{
	"subastaSmartC.sol": {
		"AdvancedAuction": {
			"abi": [
				{
					"inputs": [
						{
							"internalType": "uint256",
							"name": "_startTime",
							"type": "uint256"
						},
						{
							"internalType": "uint256",
							"name": "_durationMinutes",
							"type": "uint256"
						}
					],
					"stateMutability": "payable",
					"type": "constructor"
				},
				{
					"anonymous": false,
					"inputs": [
						{
							"indexed": true,
							"internalType": "address",
							"name": "winner",
							"type": "address"
						},
						{
							"indexed": false,
							"internalType": "uint256",
							"name": "amount",
							"type": "uint256"
						}
					],
					"name": "AuctionEnded",
					"type": "event"
				},
				{
					"anonymous": false,
					"inputs": [
						{
							"indexed": true,
							"internalType": "address",
							"name": "bidder",
							"type": "address"
						},
						{
							"indexed": false,
							"internalType": "uint256",
							"name": "amount",
							"type": "uint256"
						}
					],
					"name": "NewOffer",
					"type": "event"
				},
				{
					"anonymous": false,
					"inputs": [
						{
							"indexed": true,
							"internalType": "address",
							"name": "bidder",
							"type": "address"
						},
						{
							"indexed": false,
							"internalType": "uint256",
							"name": "amount",
							"type": "uint256"
						}
					],
					"name": "Withdrawal",
					"type": "event"
				},
				{
					"stateMutability": "payable",
					"type": "fallback"
				},
				{
					"inputs": [],
					"name": "EXTENSION_TIME",
					"outputs": [
						{
							"internalType": "uint256",
							"name": "",
							"type": "uint256"
						}
					],
					"stateMutability": "view",
					"type": "function"
				},
				{
					"inputs": [],
					"name": "EXTENSION_WINDOW",
					"outputs": [
						{
							"internalType": "uint256",
							"name": "",
							"type": "uint256"
						}
					],
					"stateMutability": "view",
					"type": "function"
				},
				{
					"inputs": [],
					"name": "MIN_INCREMENT_PERCENT",
					"outputs": [
						{
							"internalType": "uint256",
							"name": "",
							"type": "uint256"
						}
					],
					"stateMutability": "view",
					"type": "function"
				},
				{
					"inputs": [],
					"name": "REFUND_FEE_PERCENT",
					"outputs": [
						{
							"internalType": "uint256",
							"name": "",
							"type": "uint256"
						}
					],
					"stateMutability": "view",
					"type": "function"
				},
				{
					"inputs": [],
					"name": "bid",
					"outputs": [],
					"stateMutability": "payable",
					"type": "function"
				},
				{
					"inputs": [],
					"name": "collectedFees",
					"outputs": [
						{
							"internalType": "uint256",
							"name": "",
							"type": "uint256"
						}
					],
					"stateMutability": "view",
					"type": "function"
				},
				{
					"inputs": [
						{
							"internalType": "address",
							"name": "",
							"type": "address"
						}
					],
					"name": "deposits",
					"outputs": [
						{
							"internalType": "uint256",
							"name": "",
							"type": "uint256"
						}
					],
					"stateMutability": "view",
					"type": "function"
				},
				{
					"inputs": [],
					"name": "endAuction",
					"outputs": [],
					"stateMutability": "nonpayable",
					"type": "function"
				},
				{
					"inputs": [],
					"name": "endTime",
					"outputs": [
						{
							"internalType": "uint256",
							"name": "",
							"type": "uint256"
						}
					],
					"stateMutability": "view",
					"type": "function"
				},
				{
					"inputs": [],
					"name": "ended",
					"outputs": [
						{
							"internalType": "bool",
							"name": "",
							"type": "bool"
						}
					],
					"stateMutability": "view",
					"type": "function"
				},
				{
					"inputs": [],
					"name": "highestBid",
					"outputs": [
						{
							"internalType": "uint256",
							"name": "",
							"type": "uint256"
						}
					],
					"stateMutability": "view",
					"type": "function"
				},
				{
					"inputs": [],
					"name": "highestBidder",
					"outputs": [
						{
							"internalType": "address",
							"name": "",
							"type": "address"
						}
					],
					"stateMutability": "view",
					"type": "function"
				},
				{
					"inputs": [
						{
							"internalType": "address",
							"name": "",
							"type": "address"
						}
					],
					"name": "lastOfferIndex",
					"outputs": [
						{
							"internalType": "uint256",
							"name": "",
							"type": "uint256"
						}
					],
					"stateMutability": "view",
					"type": "function"
				},
				{
					"inputs": [],
					"name": "numOffers",
					"outputs": [
						{
							"internalType": "uint256",
							"name": "",
							"type": "uint256"
						}
					],
					"stateMutability": "view",
					"type": "function"
				},
				{
					"inputs": [
						{
							"internalType": "uint256",
							"name": "",
							"type": "uint256"
						}
					],
					"name": "offers",
					"outputs": [
						{
							"internalType": "address",
							"name": "bidder",
							"type": "address"
						},
						{
							"internalType": "uint256",
							"name": "amount",
							"type": "uint256"
						},
						{
							"internalType": "uint256",
							"name": "timestamp",
							"type": "uint256"
						}
					],
					"stateMutability": "view",
					"type": "function"
				},
				{
					"inputs": [],
					"name": "partialWithdrawExcess",
					"outputs": [],
					"stateMutability": "nonpayable",
					"type": "function"
				},
				{
					"inputs": [],
					"name": "seller",
					"outputs": [
						{
							"internalType": "address payable",
							"name": "",
							"type": "address"
						}
					],
					"stateMutability": "view",
					"type": "function"
				},
				{
					"inputs": [],
					"name": "showOffers",
					"outputs": [
						{
							"components": [
								{
									"internalType": "address",
									"name": "bidder",
									"type": "address"
								},
								{
									"internalType": "uint256",
									"name": "amount",
									"type": "uint256"
								},
								{
									"internalType": "uint256",
									"name": "timestamp",
									"type": "uint256"
								}
							],
							"internalType": "struct AdvancedAuction.Offer[]",
							"name": "",
							"type": "tuple[]"
						}
					],
					"stateMutability": "view",
					"type": "function"
				},
				{
					"inputs": [],
					"name": "showWinner",
					"outputs": [
						{
							"internalType": "address",
							"name": "winner",
							"type": "address"
						},
						{
							"internalType": "uint256",
							"name": "amount",
							"type": "uint256"
						}
					],
					"stateMutability": "view",
					"type": "function"
				},
				{
					"inputs": [],
					"name": "startTime",
					"outputs": [
						{
							"internalType": "uint256",
							"name": "",
							"type": "uint256"
						}
					],
					"stateMutability": "view",
					"type": "function"
				},
				{
					"inputs": [],
					"name": "withdrawDeposit",
					"outputs": [],
					"stateMutability": "nonpayable",
					"type": "function"
				},
				{
					"inputs": [],
					"name": "withdrawFees",
					"outputs": [],
					"stateMutability": "nonpayable",
					"type": "function"
				},
				{
					"stateMutability": "payable",
					"type": "receive"
				}
			],
			"devdoc": {
				"author": "Feerdus95",
				"details": "Bids are in wei. Handles Ether only, rewards must be delivered separately.",
				"events": {
					"AuctionEnded(address,uint256)": {
						"params": {
							"amount": "The winning bid amount",
							"winner": "The address of the winner"
						}
					},
					"NewOffer(address,uint256)": {
						"params": {
							"amount": "The amount of the offer",
							"bidder": "The address of the participant who made the offer"
						}
					},
					"Withdrawal(address,uint256)": {
						"params": {
							"amount": "The amount withdrawn",
							"bidder": "The address of the participant withdrawing"
						}
					}
				},
				"kind": "dev",
				"methods": {
					"constructor": {
						"params": {
							"_durationMinutes": "Auction duration in minutes",
							"_startTime": "The start timestamp"
						}
					},
					"showOffers()": {
						"returns": {
							"_0": "Array of Offer structs"
						}
					},
					"showWinner()": {
						"returns": {
							"amount": "Winning bid",
							"winner": "Winner address"
						}
					}
				},
				"title": "Advanced Auction Contract with Dynamic Extension and Partial Refunds",
				"version": 1
			},
			"evm": {
				"assembly": "    /* \"subastaSmartC.sol\":365:9004  contract AdvancedAuction {... */\n  mstore(0x40, 0x80)\n    /* \"subastaSmartC.sol\":3963:4423  constructor(uint _startTime, uint _durationMinutes) payable {... */\n  mload(0x40)\n  sub(codesize, bytecodeSize)\n  dup1\n  bytecodeSize\n  dup4\n  codecopy\n  dup2\n  dup2\n  add\n  0x40\n  mstore\n  dup2\n  add\n  swap1\n  tag_1\n  swap2\n  swap1\n  tag_2\n  jump\t// in\ntag_1:\n    /* \"subastaSmartC.sol\":4061:4062  0 */\n  0x00\n    /* \"subastaSmartC.sol\":4042:4058  _durationMinutes */\n  dup2\n    /* \"subastaSmartC.sol\":4042:4062  _durationMinutes > 0 */\n  gt\n    /* \"subastaSmartC.sol\":4034:4101  require(_durationMinutes > 0, \"Duration must be greater than zero\") */\n  tag_5\n  jumpi\n  mload(0x40)\n  0x08c379a000000000000000000000000000000000000000000000000000000000\n  dup2\n  mstore\n  0x04\n  add\n  tag_6\n  swap1\n  tag_7\n  jump\t// in\ntag_6:\n  mload(0x40)\n  dup1\n  swap2\n  sub\n  swap1\n  revert\ntag_5:\n    /* \"subastaSmartC.sol\":4133:4148  block.timestamp */\n  timestamp\n    /* \"subastaSmartC.sol\":4120:4130  _startTime */\n  dup3\n    /* \"subastaSmartC.sol\":4120:4148  _startTime > block.timestamp */\n  gt\n    /* \"subastaSmartC.sol\":4112:4181  require(_startTime > block.timestamp, \"Start time must be in future\") */\n  tag_8\n  jumpi\n  mload(0x40)\n  0x08c379a000000000000000000000000000000000000000000000000000000000\n  dup2\n  mstore\n  0x04\n  add\n  tag_9\n  swap1\n  tag_10\n  jump\t// in\ntag_9:\n  mload(0x40)\n  dup1\n  swap2\n  sub\n  swap1\n  revert\ntag_8:\n    /* \"subastaSmartC.sol\":4220:4232  30 * 24 * 60 */\n  0xa8c0\n    /* \"subastaSmartC.sol\":4200:4216  _durationMinutes */\n  dup2\n    /* \"subastaSmartC.sol\":4200:4232  _durationMinutes <= 30 * 24 * 60 */\n  gt\n  iszero\n    /* \"subastaSmartC.sol\":4192:4254  require(_durationMinutes <= 30 * 24 * 60, \"Duration too long\") */\n  tag_11\n  jumpi\n  mload(0x40)\n  0x08c379a000000000000000000000000000000000000000000000000000000000\n  dup2\n  mstore\n  0x04\n  add\n  tag_12\n  swap1\n  tag_13\n  jump\t// in\ntag_12:\n  mload(0x40)\n  dup1\n  swap2\n  sub\n  swap1\n  revert\ntag_11:\n    /* \"subastaSmartC.sol\":4307:4317  msg.sender */\n  caller\n    /* \"subastaSmartC.sol\":4290:4296  seller */\n  0x00\n  0x00\n    /* \"subastaSmartC.sol\":4290:4318  seller = payable(msg.sender) */\n  0x0100\n  exp\n  dup2\n  sload\n  dup2\n  0xffffffffffffffffffffffffffffffffffffffff\n  mul\n  not\n  and\n  swap1\n  dup4\n  0xffffffffffffffffffffffffffffffffffffffff\n  and\n  mul\n  or\n  swap1\n  sstore\n  pop\n    /* \"subastaSmartC.sol\":4341:4351  _startTime */\n  dup2\n    /* \"subastaSmartC.sol\":4329:4338  startTime */\n  0x03\n    /* \"subastaSmartC.sol\":4329:4351  startTime = _startTime */\n  dup2\n  swap1\n  sstore\n  pop\n    /* \"subastaSmartC.sol\":4405:4414  1 minutes */\n  0x3c\n    /* \"subastaSmartC.sol\":4386:4402  _durationMinutes */\n  dup2\n    /* \"subastaSmartC.sol\":4386:4414  _durationMinutes * 1 minutes */\n  tag_14\n  swap2\n  swap1\n  tag_15\n  jump\t// in\ntag_14:\n    /* \"subastaSmartC.sol\":4372:4382  _startTime */\n  dup3\n    /* \"subastaSmartC.sol\":4372:4415  _startTime + (_durationMinutes * 1 minutes) */\n  tag_16\n  swap2\n  swap1\n  tag_17\n  jump\t// in\ntag_16:\n    /* \"subastaSmartC.sol\":4362:4369  endTime */\n  0x04\n    /* \"subastaSmartC.sol\":4362:4415  endTime = _startTime + (_durationMinutes * 1 minutes) */\n  dup2\n  swap1\n  sstore\n  pop\n    /* \"subastaSmartC.sol\":3963:4423  constructor(uint _startTime, uint _durationMinutes) payable {... */\n  pop\n  pop\n    /* \"subastaSmartC.sol\":365:9004  contract AdvancedAuction {... */\n  jump(tag_18)\n    /* \"#utility.yul\":88:205   */\ntag_20:\n    /* \"#utility.yul\":197:198   */\n  0x00\n    /* \"#utility.yul\":194:195   */\n  0x00\n    /* \"#utility.yul\":187:199   */\n  revert\n    /* \"#utility.yul\":334:411   */\ntag_22:\n    /* \"#utility.yul\":371:378   */\n  0x00\n    /* \"#utility.yul\":400:405   */\n  dup2\n    /* \"#utility.yul\":389:405   */\n  swap1\n  pop\n    /* \"#utility.yul\":334:411   */\n  swap2\n  swap1\n  pop\n  jump\t// out\n    /* \"#utility.yul\":417:539   */\ntag_23:\n    /* \"#utility.yul\":490:514   */\n  tag_39\n    /* \"#utility.yul\":508:513   */\n  dup2\n    /* \"#utility.yul\":490:514   */\n  tag_22\n  jump\t// in\ntag_39:\n    /* \"#utility.yul\":483:488   */\n  dup2\n    /* \"#utility.yul\":480:515   */\n  eq\n    /* \"#utility.yul\":470:533   */\n  tag_40\n  jumpi\n    /* \"#utility.yul\":529:530   */\n  0x00\n    /* \"#utility.yul\":526:527   */\n  0x00\n    /* \"#utility.yul\":519:531   */\n  revert\n    /* \"#utility.yul\":470:533   */\ntag_40:\n    /* \"#utility.yul\":417:539   */\n  pop\n  jump\t// out\n    /* \"#utility.yul\":545:688   */\ntag_24:\n    /* \"#utility.yul\":602:607   */\n  0x00\n    /* \"#utility.yul\":633:639   */\n  dup2\n    /* \"#utility.yul\":627:640   */\n  mload\n    /* \"#utility.yul\":618:640   */\n  swap1\n  pop\n    /* \"#utility.yul\":649:682   */\n  tag_42\n    /* \"#utility.yul\":676:681   */\n  dup2\n    /* \"#utility.yul\":649:682   */\n  tag_23\n  jump\t// in\ntag_42:\n    /* \"#utility.yul\":545:688   */\n  swap3\n  swap2\n  pop\n  pop\n  jump\t// out\n    /* \"#utility.yul\":694:1201   */\ntag_2:\n    /* \"#utility.yul\":773:779   */\n  0x00\n    /* \"#utility.yul\":781:787   */\n  0x00\n    /* \"#utility.yul\":830:832   */\n  0x40\n    /* \"#utility.yul\":818:827   */\n  dup4\n    /* \"#utility.yul\":809:816   */\n  dup6\n    /* \"#utility.yul\":805:828   */\n  sub\n    /* \"#utility.yul\":801:833   */\n  slt\n    /* \"#utility.yul\":798:917   */\n  iszero\n  tag_44\n  jumpi\n    /* \"#utility.yul\":836:915   */\n  tag_45\n  tag_20\n  jump\t// in\ntag_45:\n    /* \"#utility.yul\":798:917   */\ntag_44:\n    /* \"#utility.yul\":956:957   */\n  0x00\n    /* \"#utility.yul\":981:1045   */\n  tag_46\n    /* \"#utility.yul\":1037:1044   */\n  dup6\n    /* \"#utility.yul\":1028:1034   */\n  dup3\n    /* \"#utility.yul\":1017:1026   */\n  dup7\n    /* \"#utility.yul\":1013:1035   */\n  add\n    /* \"#utility.yul\":981:1045   */\n  tag_24\n  jump\t// in\ntag_46:\n    /* \"#utility.yul\":971:1045   */\n  swap3\n  pop\n    /* \"#utility.yul\":927:1055   */\n  pop\n    /* \"#utility.yul\":1094:1096   */\n  0x20\n    /* \"#utility.yul\":1120:1184   */\n  tag_47\n    /* \"#utility.yul\":1176:1183   */\n  dup6\n    /* \"#utility.yul\":1167:1173   */\n  dup3\n    /* \"#utility.yul\":1156:1165   */\n  dup7\n    /* \"#utility.yul\":1152:1174   */\n  add\n    /* \"#utility.yul\":1120:1184   */\n  tag_24\n  jump\t// in\ntag_47:\n    /* \"#utility.yul\":1110:1184   */\n  swap2\n  pop\n    /* \"#utility.yul\":1065:1194   */\n  pop\n    /* \"#utility.yul\":694:1201   */\n  swap3\n  pop\n  swap3\n  swap1\n  pop\n  jump\t// out\n    /* \"#utility.yul\":1207:1376   */\ntag_25:\n    /* \"#utility.yul\":1291:1302   */\n  0x00\n    /* \"#utility.yul\":1325:1331   */\n  dup3\n    /* \"#utility.yul\":1320:1323   */\n  dup3\n    /* \"#utility.yul\":1313:1332   */\n  mstore\n    /* \"#utility.yul\":1365:1369   */\n  0x20\n    /* \"#utility.yul\":1360:1363   */\n  dup3\n    /* \"#utility.yul\":1356:1370   */\n  add\n    /* \"#utility.yul\":1341:1370   */\n  swap1\n  pop\n    /* \"#utility.yul\":1207:1376   */\n  swap3\n  swap2\n  pop\n  pop\n  jump\t// out\n    /* \"#utility.yul\":1382:1603   */\ntag_26:\n    /* \"#utility.yul\":1522:1556   */\n  0x4475726174696f6e206d7573742062652067726561746572207468616e207a65\n    /* \"#utility.yul\":1518:1519   */\n  0x00\n    /* \"#utility.yul\":1510:1516   */\n  dup3\n    /* \"#utility.yul\":1506:1520   */\n  add\n    /* \"#utility.yul\":1499:1557   */\n  mstore\n    /* \"#utility.yul\":1591:1595   */\n  0x726f000000000000000000000000000000000000000000000000000000000000\n    /* \"#utility.yul\":1586:1588   */\n  0x20\n    /* \"#utility.yul\":1578:1584   */\n  dup3\n    /* \"#utility.yul\":1574:1589   */\n  add\n    /* \"#utility.yul\":1567:1596   */\n  mstore\n    /* \"#utility.yul\":1382:1603   */\n  pop\n  jump\t// out\n    /* \"#utility.yul\":1609:1975   */\ntag_27:\n    /* \"#utility.yul\":1751:1754   */\n  0x00\n    /* \"#utility.yul\":1772:1839   */\n  tag_51\n    /* \"#utility.yul\":1836:1838   */\n  0x22\n    /* \"#utility.yul\":1831:1834   */\n  dup4\n    /* \"#utility.yul\":1772:1839   */\n  tag_25\n  jump\t// in\ntag_51:\n    /* \"#utility.yul\":1765:1839   */\n  swap2\n  pop\n    /* \"#utility.yul\":1848:1941   */\n  tag_52\n    /* \"#utility.yul\":1937:1940   */\n  dup3\n    /* \"#utility.yul\":1848:1941   */\n  tag_26\n  jump\t// in\ntag_52:\n    /* \"#utility.yul\":1966:1968   */\n  0x40\n    /* \"#utility.yul\":1961:1964   */\n  dup3\n    /* \"#utility.yul\":1957:1969   */\n  add\n    /* \"#utility.yul\":1950:1969   */\n  swap1\n  pop\n    /* \"#utility.yul\":1609:1975   */\n  swap2\n  swap1\n  pop\n  jump\t// out\n    /* \"#utility.yul\":1981:2400   */\ntag_7:\n    /* \"#utility.yul\":2147:2151   */\n  0x00\n    /* \"#utility.yul\":2185:2187   */\n  0x20\n    /* \"#utility.yul\":2174:2183   */\n  dup3\n    /* \"#utility.yul\":2170:2188   */\n  add\n    /* \"#utility.yul\":2162:2188   */\n  swap1\n  pop\n    /* \"#utility.yul\":2234:2243   */\n  dup2\n    /* \"#utility.yul\":2228:2232   */\n  dup2\n    /* \"#utility.yul\":2224:2244   */\n  sub\n    /* \"#utility.yul\":2220:2221   */\n  0x00\n    /* \"#utility.yul\":2209:2218   */\n  dup4\n    /* \"#utility.yul\":2205:2222   */\n  add\n    /* \"#utility.yul\":2198:2245   */\n  mstore\n    /* \"#utility.yul\":2262:2393   */\n  tag_54\n    /* \"#utility.yul\":2388:2392   */\n  dup2\n    /* \"#utility.yul\":2262:2393   */\n  tag_27\n  jump\t// in\ntag_54:\n    /* \"#utility.yul\":2254:2393   */\n  swap1\n  pop\n    /* \"#utility.yul\":1981:2400   */\n  swap2\n  swap1\n  pop\n  jump\t// out\n    /* \"#utility.yul\":2406:2584   */\ntag_28:\n    /* \"#utility.yul\":2546:2576   */\n  0x53746172742074696d65206d75737420626520696e2066757475726500000000\n    /* \"#utility.yul\":2542:2543   */\n  0x00\n    /* \"#utility.yul\":2534:2540   */\n  dup3\n    /* \"#utility.yul\":2530:2544   */\n  add\n    /* \"#utility.yul\":2523:2577   */\n  mstore\n    /* \"#utility.yul\":2406:2584   */\n  pop\n  jump\t// out\n    /* \"#utility.yul\":2590:2956   */\ntag_29:\n    /* \"#utility.yul\":2732:2735   */\n  0x00\n    /* \"#utility.yul\":2753:2820   */\n  tag_57\n    /* \"#utility.yul\":2817:2819   */\n  0x1c\n    /* \"#utility.yul\":2812:2815   */\n  dup4\n    /* \"#utility.yul\":2753:2820   */\n  tag_25\n  jump\t// in\ntag_57:\n    /* \"#utility.yul\":2746:2820   */\n  swap2\n  pop\n    /* \"#utility.yul\":2829:2922   */\n  tag_58\n    /* \"#utility.yul\":2918:2921   */\n  dup3\n    /* \"#utility.yul\":2829:2922   */\n  tag_28\n  jump\t// in\ntag_58:\n    /* \"#utility.yul\":2947:2949   */\n  0x20\n    /* \"#utility.yul\":2942:2945   */\n  dup3\n    /* \"#utility.yul\":2938:2950   */\n  add\n    /* \"#utility.yul\":2931:2950   */\n  swap1\n  pop\n    /* \"#utility.yul\":2590:2956   */\n  swap2\n  swap1\n  pop\n  jump\t// out\n    /* \"#utility.yul\":2962:3381   */\ntag_10:\n    /* \"#utility.yul\":3128:3132   */\n  0x00\n    /* \"#utility.yul\":3166:3168   */\n  0x20\n    /* \"#utility.yul\":3155:3164   */\n  dup3\n    /* \"#utility.yul\":3151:3169   */\n  add\n    /* \"#utility.yul\":3143:3169   */\n  swap1\n  pop\n    /* \"#utility.yul\":3215:3224   */\n  dup2\n    /* \"#utility.yul\":3209:3213   */\n  dup2\n    /* \"#utility.yul\":3205:3225   */\n  sub\n    /* \"#utility.yul\":3201:3202   */\n  0x00\n    /* \"#utility.yul\":3190:3199   */\n  dup4\n    /* \"#utility.yul\":3186:3203   */\n  add\n    /* \"#utility.yul\":3179:3226   */\n  mstore\n    /* \"#utility.yul\":3243:3374   */\n  tag_60\n    /* \"#utility.yul\":3369:3373   */\n  dup2\n    /* \"#utility.yul\":3243:3374   */\n  tag_29\n  jump\t// in\ntag_60:\n    /* \"#utility.yul\":3235:3374   */\n  swap1\n  pop\n    /* \"#utility.yul\":2962:3381   */\n  swap2\n  swap1\n  pop\n  jump\t// out\n    /* \"#utility.yul\":3387:3554   */\ntag_30:\n    /* \"#utility.yul\":3527:3546   */\n  0x4475726174696f6e20746f6f206c6f6e67000000000000000000000000000000\n    /* \"#utility.yul\":3523:3524   */\n  0x00\n    /* \"#utility.yul\":3515:3521   */\n  dup3\n    /* \"#utility.yul\":3511:3525   */\n  add\n    /* \"#utility.yul\":3504:3547   */\n  mstore\n    /* \"#utility.yul\":3387:3554   */\n  pop\n  jump\t// out\n    /* \"#utility.yul\":3560:3926   */\ntag_31:\n    /* \"#utility.yul\":3702:3705   */\n  0x00\n    /* \"#utility.yul\":3723:3790   */\n  tag_63\n    /* \"#utility.yul\":3787:3789   */\n  0x11\n    /* \"#utility.yul\":3782:3785   */\n  dup4\n    /* \"#utility.yul\":3723:3790   */\n  tag_25\n  jump\t// in\ntag_63:\n    /* \"#utility.yul\":3716:3790   */\n  swap2\n  pop\n    /* \"#utility.yul\":3799:3892   */\n  tag_64\n    /* \"#utility.yul\":3888:3891   */\n  dup3\n    /* \"#utility.yul\":3799:3892   */\n  tag_30\n  jump\t// in\ntag_64:\n    /* \"#utility.yul\":3917:3919   */\n  0x20\n    /* \"#utility.yul\":3912:3915   */\n  dup3\n    /* \"#utility.yul\":3908:3920   */\n  add\n    /* \"#utility.yul\":3901:3920   */\n  swap1\n  pop\n    /* \"#utility.yul\":3560:3926   */\n  swap2\n  swap1\n  pop\n  jump\t// out\n    /* \"#utility.yul\":3932:4351   */\ntag_13:\n    /* \"#utility.yul\":4098:4102   */\n  0x00\n    /* \"#utility.yul\":4136:4138   */\n  0x20\n    /* \"#utility.yul\":4125:4134   */\n  dup3\n    /* \"#utility.yul\":4121:4139   */\n  add\n    /* \"#utility.yul\":4113:4139   */\n  swap1\n  pop\n    /* \"#utility.yul\":4185:4194   */\n  dup2\n    /* \"#utility.yul\":4179:4183   */\n  dup2\n    /* \"#utility.yul\":4175:4195   */\n  sub\n    /* \"#utility.yul\":4171:4172   */\n  0x00\n    /* \"#utility.yul\":4160:4169   */\n  dup4\n    /* \"#utility.yul\":4156:4173   */\n  add\n    /* \"#utility.yul\":4149:4196   */\n  mstore\n    /* \"#utility.yul\":4213:4344   */\n  tag_66\n    /* \"#utility.yul\":4339:4343   */\n  dup2\n    /* \"#utility.yul\":4213:4344   */\n  tag_31\n  jump\t// in\ntag_66:\n    /* \"#utility.yul\":4205:4344   */\n  swap1\n  pop\n    /* \"#utility.yul\":3932:4351   */\n  swap2\n  swap1\n  pop\n  jump\t// out\n    /* \"#utility.yul\":4357:4537   */\ntag_32:\n    /* \"#utility.yul\":4405:4482   */\n  0x4e487b7100000000000000000000000000000000000000000000000000000000\n    /* \"#utility.yul\":4402:4403   */\n  0x00\n    /* \"#utility.yul\":4395:4483   */\n  mstore\n    /* \"#utility.yul\":4502:4506   */\n  0x11\n    /* \"#utility.yul\":4499:4500   */\n  0x04\n    /* \"#utility.yul\":4492:4507   */\n  mstore\n    /* \"#utility.yul\":4526:4530   */\n  0x24\n    /* \"#utility.yul\":4523:4524   */\n  0x00\n    /* \"#utility.yul\":4516:4531   */\n  revert\n    /* \"#utility.yul\":4543:4953   */\ntag_15:\n    /* \"#utility.yul\":4583:4590   */\n  0x00\n    /* \"#utility.yul\":4606:4626   */\n  tag_69\n    /* \"#utility.yul\":4624:4625   */\n  dup3\n    /* \"#utility.yul\":4606:4626   */\n  tag_22\n  jump\t// in\ntag_69:\n    /* \"#utility.yul\":4601:4626   */\n  swap2\n  pop\n    /* \"#utility.yul\":4640:4660   */\n  tag_70\n    /* \"#utility.yul\":4658:4659   */\n  dup4\n    /* \"#utility.yul\":4640:4660   */\n  tag_22\n  jump\t// in\ntag_70:\n    /* \"#utility.yul\":4635:4660   */\n  swap3\n  pop\n    /* \"#utility.yul\":4695:4696   */\n  dup3\n    /* \"#utility.yul\":4692:4693   */\n  dup3\n    /* \"#utility.yul\":4688:4697   */\n  mul\n    /* \"#utility.yul\":4717:4747   */\n  tag_71\n    /* \"#utility.yul\":4735:4746   */\n  dup2\n    /* \"#utility.yul\":4717:4747   */\n  tag_22\n  jump\t// in\ntag_71:\n    /* \"#utility.yul\":4706:4747   */\n  swap2\n  pop\n    /* \"#utility.yul\":4896:4897   */\n  dup3\n    /* \"#utility.yul\":4887:4894   */\n  dup3\n    /* \"#utility.yul\":4883:4898   */\n  div\n    /* \"#utility.yul\":4880:4881   */\n  dup5\n    /* \"#utility.yul\":4877:4899   */\n  eq\n    /* \"#utility.yul\":4857:4858   */\n  dup4\n    /* \"#utility.yul\":4850:4859   */\n  iszero\n    /* \"#utility.yul\":4830:4913   */\n  or\n    /* \"#utility.yul\":4807:4946   */\n  tag_72\n  jumpi\n    /* \"#utility.yul\":4926:4944   */\n  tag_73\n  tag_32\n  jump\t// in\ntag_73:\n    /* \"#utility.yul\":4807:4946   */\ntag_72:\n    /* \"#utility.yul\":4591:4953   */\n  pop\n    /* \"#utility.yul\":4543:4953   */\n  swap3\n  swap2\n  pop\n  pop\n  jump\t// out\n    /* \"#utility.yul\":4959:5150   */\ntag_17:\n    /* \"#utility.yul\":4999:5002   */\n  0x00\n    /* \"#utility.yul\":5018:5038   */\n  tag_75\n    /* \"#utility.yul\":5036:5037   */\n  dup3\n    /* \"#utility.yul\":5018:5038   */\n  tag_22\n  jump\t// in\ntag_75:\n    /* \"#utility.yul\":5013:5038   */\n  swap2\n  pop\n    /* \"#utility.yul\":5052:5072   */\n  tag_76\n    /* \"#utility.yul\":5070:5071   */\n  dup4\n    /* \"#utility.yul\":5052:5072   */\n  tag_22\n  jump\t// in\ntag_76:\n    /* \"#utility.yul\":5047:5072   */\n  swap3\n  pop\n    /* \"#utility.yul\":5095:5096   */\n  dup3\n    /* \"#utility.yul\":5092:5093   */\n  dup3\n    /* \"#utility.yul\":5088:5097   */\n  add\n    /* \"#utility.yul\":5081:5097   */\n  swap1\n  pop\n    /* \"#utility.yul\":5116:5119   */\n  dup1\n    /* \"#utility.yul\":5113:5114   */\n  dup3\n    /* \"#utility.yul\":5110:5120   */\n  gt\n    /* \"#utility.yul\":5107:5143   */\n  iszero\n  tag_77\n  jumpi\n    /* \"#utility.yul\":5123:5141   */\n  tag_78\n  tag_32\n  jump\t// in\ntag_78:\n    /* \"#utility.yul\":5107:5143   */\ntag_77:\n    /* \"#utility.yul\":4959:5150   */\n  swap3\n  swap2\n  pop\n  pop\n  jump\t// out\n    /* \"subastaSmartC.sol\":365:9004  contract AdvancedAuction {... */\ntag_18:\n  dataSize(sub_0)\n  dup1\n  dataOffset(sub_0)\n  0x00\n  codecopy\n  0x00\n  return\nstop\n\nsub_0: assembly {\n        /* \"subastaSmartC.sol\":365:9004  contract AdvancedAuction {... */\n      mstore(0x40, 0x80)\n      jumpi(tag_1, lt(calldatasize, 0x04))\n      shr(0xe0, calldataload(0x00))\n      dup1\n      0x78e97925\n      gt\n      tag_25\n      jumpi\n      dup1\n      0xb7e03264\n      gt\n      tag_26\n      jumpi\n      dup1\n      0xb7e03264\n      eq\n      tag_19\n      jumpi\n      dup1\n      0xcc6bee54\n      eq\n      tag_20\n      jumpi\n      dup1\n      0xcf6e1966\n      eq\n      tag_21\n      jumpi\n      dup1\n      0xd57bde79\n      eq\n      tag_22\n      jumpi\n      dup1\n      0xfc7e286d\n      eq\n      tag_23\n      jumpi\n      dup1\n      0xfe67a54b\n      eq\n      tag_24\n      jumpi\n      jump(tag_2)\n    tag_26:\n      dup1\n      0x78e97925\n      eq\n      tag_14\n      jumpi\n      dup1\n      0x7eb79d5d\n      eq\n      tag_15\n      jumpi\n      dup1\n      0x8a72ea6a\n      eq\n      tag_16\n      jumpi\n      dup1\n      0x9003adfe\n      eq\n      tag_17\n      jumpi\n      dup1\n      0x91f90157\n      eq\n      tag_18\n      jumpi\n      jump(tag_2)\n    tag_25:\n      dup1\n      0x36c2780b\n      gt\n      tag_27\n      jumpi\n      dup1\n      0x36c2780b\n      eq\n      tag_8\n      jumpi\n      dup1\n      0x476343ee\n      eq\n      tag_9\n      jumpi\n      dup1\n      0x5230a4c3\n      eq\n      tag_10\n      jumpi\n      dup1\n      0x534823bf\n      eq\n      tag_11\n      jumpi\n      dup1\n      0x5681104a\n      eq\n      tag_12\n      jumpi\n      dup1\n      0x654e4685\n      eq\n      tag_13\n      jumpi\n      jump(tag_2)\n    tag_27:\n      dup1\n      0x08551a53\n      eq\n      tag_3\n      jumpi\n      dup1\n      0x117df088\n      eq\n      tag_4\n      jumpi\n      dup1\n      0x12fa6feb\n      eq\n      tag_5\n      jumpi\n      dup1\n      0x1998aeef\n      eq\n      tag_6\n      jumpi\n      dup1\n      0x3197cbb6\n      eq\n      tag_7\n      jumpi\n      jump(tag_2)\n    tag_1:\n      jumpi(tag_2, calldatasize)\n        /* \"subastaSmartC.sol\":8834:8889  revert(\"Please use the bid() function to participate.\") */\n      mload(0x40)\n      0x08c379a000000000000000000000000000000000000000000000000000000000\n      dup2\n      mstore\n      0x04\n      add\n      tag_30\n      swap1\n      tag_31\n      jump\t// in\n    tag_30:\n      mload(0x40)\n      dup1\n      swap2\n      sub\n      swap1\n      revert\n        /* \"subastaSmartC.sol\":365:9004  contract AdvancedAuction {... */\n    tag_2:\n        /* \"subastaSmartC.sol\":8944:8993  revert(\"Invalid call. Use the correct function.\") */\n      mload(0x40)\n      0x08c379a000000000000000000000000000000000000000000000000000000000\n      dup2\n      mstore\n      0x04\n      add\n      tag_34\n      swap1\n      tag_35\n      jump\t// in\n    tag_34:\n      mload(0x40)\n      dup1\n      swap2\n      sub\n      swap1\n      revert\n        /* \"subastaSmartC.sol\":452:481  address payable public seller */\n    tag_3:\n      callvalue\n      dup1\n      iszero\n      tag_36\n      jumpi\n      revert(0x00, 0x00)\n    tag_36:\n      pop\n      tag_37\n      tag_38\n      jump\t// in\n    tag_37:\n      mload(0x40)\n      tag_39\n      swap2\n      swap1\n      tag_40\n      jump\t// in\n    tag_39:\n      mload(0x40)\n      dup1\n      swap2\n      sub\n      swap1\n      return\n        /* \"subastaSmartC.sol\":6386:7043  function withdrawDeposit() public onlyAfterEnd onlyNotWinner nonReentrant {... */\n    tag_4:\n      callvalue\n      dup1\n      iszero\n      tag_41\n      jumpi\n      revert(0x00, 0x00)\n    tag_41:\n      pop\n      tag_42\n      tag_43\n      jump\t// in\n    tag_42:\n      stop\n        /* \"subastaSmartC.sol\":1420:1437  bool public ended */\n    tag_5:\n      callvalue\n      dup1\n      iszero\n      tag_44\n      jumpi\n      revert(0x00, 0x00)\n    tag_44:\n      pop\n      tag_45\n      tag_46\n      jump\t// in\n    tag_45:\n      mload(0x40)\n      tag_47\n      swap2\n      swap1\n      tag_48\n      jump\t// in\n    tag_47:\n      mload(0x40)\n      dup1\n      swap2\n      sub\n      swap1\n      return\n        /* \"subastaSmartC.sol\":4600:5673  function bid() external payable onlyWhileActive nonReentrant {... */\n    tag_6:\n      tag_49\n      tag_50\n      jump\t// in\n    tag_49:\n      stop\n        /* \"subastaSmartC.sol\":780:799  uint public endTime */\n    tag_7:\n      callvalue\n      dup1\n      iszero\n      tag_51\n      jumpi\n      revert(0x00, 0x00)\n    tag_51:\n      pop\n      tag_52\n      tag_53\n      jump\t// in\n    tag_52:\n      mload(0x40)\n      tag_54\n      swap2\n      swap1\n      tag_55\n      jump\t// in\n    tag_54:\n      mload(0x40)\n      dup1\n      swap2\n      sub\n      swap1\n      return\n        /* \"subastaSmartC.sol\":7139:7715  function partialWithdrawExcess() public onlyWhileActive nonReentrant {... */\n    tag_8:\n      callvalue\n      dup1\n      iszero\n      tag_56\n      jumpi\n      revert(0x00, 0x00)\n    tag_56:\n      pop\n      tag_57\n      tag_58\n      jump\t// in\n    tag_57:\n      stop\n        /* \"subastaSmartC.sol\":8412:8720  function withdrawFees() external onlySeller nonReentrant {... */\n    tag_9:\n      callvalue\n      dup1\n      iszero\n      tag_59\n      jumpi\n      revert(0x00, 0x00)\n    tag_59:\n      pop\n      tag_60\n      tag_61\n      jump\t// in\n    tag_60:\n      stop\n        /* \"subastaSmartC.sol\":1331:1374  uint public constant REFUND_FEE_PERCENT = 2 */\n    tag_10:\n      callvalue\n      dup1\n      iszero\n      tag_62\n      jumpi\n      revert(0x00, 0x00)\n    tag_62:\n      pop\n      tag_63\n      tag_64\n      jump\t// in\n    tag_63:\n      mload(0x40)\n      tag_65\n      swap2\n      swap1\n      tag_55\n      jump\t// in\n    tag_65:\n      mload(0x40)\n      dup1\n      swap2\n      sub\n      swap1\n      return\n        /* \"subastaSmartC.sol\":6062:6153  function showOffers() public view returns (Offer[] memory) {... */\n    tag_11:\n      callvalue\n      dup1\n      iszero\n      tag_66\n      jumpi\n      revert(0x00, 0x00)\n    tag_66:\n      pop\n      tag_67\n      tag_68\n      jump\t// in\n    tag_67:\n      mload(0x40)\n      tag_69\n      swap2\n      swap1\n      tag_70\n      jump\t// in\n    tag_69:\n      mload(0x40)\n      dup1\n      swap2\n      sub\n      swap1\n      return\n        /* \"subastaSmartC.sol\":1064:1105  uint public constant EXTENSION_TIME = 600 */\n    tag_12:\n      callvalue\n      dup1\n      iszero\n      tag_71\n      jumpi\n      revert(0x00, 0x00)\n    tag_71:\n      pop\n      tag_72\n      tag_73\n      jump\t// in\n    tag_72:\n      mload(0x40)\n      tag_74\n      swap2\n      swap1\n      tag_55\n      jump\t// in\n    tag_74:\n      mload(0x40)\n      dup1\n      swap2\n      sub\n      swap1\n      return\n        /* \"subastaSmartC.sol\":893:941  uint public constant MIN_INCREMENT_PERCENT = 105 */\n    tag_13:\n      callvalue\n      dup1\n      iszero\n      tag_75\n      jumpi\n      revert(0x00, 0x00)\n    tag_75:\n      pop\n      tag_76\n      tag_77\n      jump\t// in\n    tag_76:\n      mload(0x40)\n      tag_78\n      swap2\n      swap1\n      tag_55\n      jump\t// in\n    tag_78:\n      mload(0x40)\n      dup1\n      swap2\n      sub\n      swap1\n      return\n        /* \"subastaSmartC.sol\":690:711  uint public startTime */\n    tag_14:\n      callvalue\n      dup1\n      iszero\n      tag_79\n      jumpi\n      revert(0x00, 0x00)\n    tag_79:\n      pop\n      tag_80\n      tag_81\n      jump\t// in\n    tag_80:\n      mload(0x40)\n      tag_82\n      swap2\n      swap1\n      tag_55\n      jump\t// in\n    tag_82:\n      mload(0x40)\n      dup1\n      swap2\n      sub\n      swap1\n      return\n        /* \"subastaSmartC.sol\":1199:1242  uint public constant EXTENSION_WINDOW = 600 */\n    tag_15:\n      callvalue\n      dup1\n      iszero\n      tag_83\n      jumpi\n      revert(0x00, 0x00)\n    tag_83:\n      pop\n      tag_84\n      tag_85\n      jump\t// in\n    tag_84:\n      mload(0x40)\n      tag_86\n      swap2\n      swap1\n      tag_55\n      jump\t// in\n    tag_86:\n      mload(0x40)\n      dup1\n      swap2\n      sub\n      swap1\n      return\n        /* \"subastaSmartC.sol\":1652:1673  Offer[] public offers */\n    tag_16:\n      callvalue\n      dup1\n      iszero\n      tag_87\n      jumpi\n      revert(0x00, 0x00)\n    tag_87:\n      pop\n      tag_88\n      0x04\n      dup1\n      calldatasize\n      sub\n      dup2\n      add\n      swap1\n      tag_89\n      swap2\n      swap1\n      tag_90\n      jump\t// in\n    tag_89:\n      tag_91\n      jump\t// in\n    tag_88:\n      mload(0x40)\n      tag_92\n      swap4\n      swap3\n      swap2\n      swap1\n      tag_93\n      jump\t// in\n    tag_92:\n      mload(0x40)\n      dup1\n      swap2\n      sub\n      swap1\n      return\n        /* \"subastaSmartC.sol\":2033:2058  uint public collectedFees */\n    tag_17:\n      callvalue\n      dup1\n      iszero\n      tag_94\n      jumpi\n      revert(0x00, 0x00)\n    tag_94:\n      pop\n      tag_95\n      tag_96\n      jump\t// in\n    tag_95:\n      mload(0x40)\n      tag_97\n      swap2\n      swap1\n      tag_55\n      jump\t// in\n    tag_97:\n      mload(0x40)\n      dup1\n      swap2\n      sub\n      swap1\n      return\n        /* \"subastaSmartC.sol\":545:573  address public highestBidder */\n    tag_18:\n      callvalue\n      dup1\n      iszero\n      tag_98\n      jumpi\n      revert(0x00, 0x00)\n    tag_98:\n      pop\n      tag_99\n      tag_100\n      jump\t// in\n    tag_99:\n      mload(0x40)\n      tag_101\n      swap2\n      swap1\n      tag_102\n      jump\t// in\n    tag_101:\n      mload(0x40)\n      dup1\n      swap2\n      sub\n      swap1\n      return\n        /* \"subastaSmartC.sol\":5812:5949  function showWinner() public view onlyAfterEnd returns(address winner, uint amount) {... */\n    tag_19:\n      callvalue\n      dup1\n      iszero\n      tag_103\n      jumpi\n      revert(0x00, 0x00)\n    tag_103:\n      pop\n      tag_104\n      tag_105\n      jump\t// in\n    tag_104:\n      mload(0x40)\n      tag_106\n      swap3\n      swap2\n      swap1\n      tag_107\n      jump\t// in\n    tag_106:\n      mload(0x40)\n      dup1\n      swap2\n      sub\n      swap1\n      return\n        /* \"subastaSmartC.sol\":6215:6301  function numOffers() public view returns(uint) {... */\n    tag_20:\n      callvalue\n      dup1\n      iszero\n      tag_108\n      jumpi\n      revert(0x00, 0x00)\n    tag_108:\n      pop\n      tag_109\n      tag_110\n      jump\t// in\n    tag_109:\n      mload(0x40)\n      tag_111\n      swap2\n      swap1\n      tag_55\n      jump\t// in\n    tag_111:\n      mload(0x40)\n      dup1\n      swap2\n      sub\n      swap1\n      return\n        /* \"subastaSmartC.sol\":1920:1966  mapping(address => uint) public lastOfferIndex */\n    tag_21:\n      callvalue\n      dup1\n      iszero\n      tag_112\n      jumpi\n      revert(0x00, 0x00)\n    tag_112:\n      pop\n      tag_113\n      0x04\n      dup1\n      calldatasize\n      sub\n      dup2\n      add\n      swap1\n      tag_114\n      swap2\n      swap1\n      tag_115\n      jump\t// in\n    tag_114:\n      tag_116\n      jump\t// in\n    tag_113:\n      mload(0x40)\n      tag_117\n      swap2\n      swap1\n      tag_55\n      jump\t// in\n    tag_117:\n      mload(0x40)\n      dup1\n      swap2\n      sub\n      swap1\n      return\n        /* \"subastaSmartC.sol\":618:640  uint public highestBid */\n    tag_22:\n      callvalue\n      dup1\n      iszero\n      tag_118\n      jumpi\n      revert(0x00, 0x00)\n    tag_118:\n      pop\n      tag_119\n      tag_120\n      jump\t// in\n    tag_119:\n      mload(0x40)\n      tag_121\n      swap2\n      swap1\n      tag_55\n      jump\t// in\n    tag_121:\n      mload(0x40)\n      dup1\n      swap2\n      sub\n      swap1\n      return\n        /* \"subastaSmartC.sol\":1771:1811  mapping(address => uint) public deposits */\n    tag_23:\n      callvalue\n      dup1\n      iszero\n      tag_122\n      jumpi\n      revert(0x00, 0x00)\n    tag_122:\n      pop\n      tag_123\n      0x04\n      dup1\n      calldatasize\n      sub\n      dup2\n      add\n      swap1\n      tag_124\n      swap2\n      swap1\n      tag_115\n      jump\t// in\n    tag_124:\n      tag_125\n      jump\t// in\n    tag_123:\n      mload(0x40)\n      tag_126\n      swap2\n      swap1\n      tag_55\n      jump\t// in\n    tag_126:\n      mload(0x40)\n      dup1\n      swap2\n      sub\n      swap1\n      return\n        /* \"subastaSmartC.sol\":7811:8333  function endAuction() public onlyAfterEnd nonReentrant {... */\n    tag_24:\n      callvalue\n      dup1\n      iszero\n      tag_127\n      jumpi\n      revert(0x00, 0x00)\n    tag_127:\n      pop\n      tag_128\n      tag_129\n      jump\t// in\n    tag_128:\n      stop\n        /* \"subastaSmartC.sol\":452:481  address payable public seller */\n    tag_38:\n      0x00\n      0x00\n      swap1\n      sload\n      swap1\n      0x0100\n      exp\n      swap1\n      div\n      0xffffffffffffffffffffffffffffffffffffffff\n      and\n      dup2\n      jump\t// out\n        /* \"subastaSmartC.sol\":6386:7043  function withdrawDeposit() public onlyAfterEnd onlyNotWinner nonReentrant {... */\n    tag_43:\n        /* \"subastaSmartC.sol\":3348:3355  endTime */\n      sload(0x04)\n        /* \"subastaSmartC.sol\":3329:3344  block.timestamp */\n      timestamp\n        /* \"subastaSmartC.sol\":3329:3355  block.timestamp >= endTime */\n      lt\n      iszero\n        /* \"subastaSmartC.sol\":3329:3364  block.timestamp >= endTime || ended */\n      dup1\n      tag_131\n      jumpi\n      pop\n        /* \"subastaSmartC.sol\":3359:3364  ended */\n      0x05\n      0x00\n      swap1\n      sload\n      swap1\n      0x0100\n      exp\n      swap1\n      div\n      0xff\n      and\n        /* \"subastaSmartC.sol\":3329:3364  block.timestamp >= endTime || ended */\n    tag_131:\n        /* \"subastaSmartC.sol\":3321:3390  require(block.timestamp >= endTime || ended, \"Auction not yet ended\") */\n      tag_132\n      jumpi\n      mload(0x40)\n      0x08c379a000000000000000000000000000000000000000000000000000000000\n      dup2\n      mstore\n      0x04\n      add\n      tag_133\n      swap1\n      tag_134\n      jump\t// in\n    tag_133:\n      mload(0x40)\n      dup1\n      swap2\n      sub\n      swap1\n      revert\n    tag_132:\n        /* \"subastaSmartC.sol\":3677:3690  highestBidder */\n      0x01\n      0x00\n      swap1\n      sload\n      swap1\n      0x0100\n      exp\n      swap1\n      div\n      0xffffffffffffffffffffffffffffffffffffffff\n      and\n        /* \"subastaSmartC.sol\":3663:3690  msg.sender != highestBidder */\n      0xffffffffffffffffffffffffffffffffffffffff\n      and\n        /* \"subastaSmartC.sol\":3663:3673  msg.sender */\n      caller\n        /* \"subastaSmartC.sol\":3663:3690  msg.sender != highestBidder */\n      0xffffffffffffffffffffffffffffffffffffffff\n      and\n      sub\n        /* \"subastaSmartC.sol\":3655:3724  require(msg.sender != highestBidder, \"Winner cannot withdraw refund\") */\n      tag_136\n      jumpi\n      mload(0x40)\n      0x08c379a000000000000000000000000000000000000000000000000000000000\n      dup2\n      mstore\n      0x04\n      add\n      tag_137\n      swap1\n      tag_138\n      jump\t// in\n    tag_137:\n      mload(0x40)\n      dup1\n      swap2\n      sub\n      swap1\n      revert\n    tag_136:\n        /* \"subastaSmartC.sol\":2916:2922  locked */\n      0x05\n      0x01\n      swap1\n      sload\n      swap1\n      0x0100\n      exp\n      swap1\n      div\n      0xff\n      and\n        /* \"subastaSmartC.sol\":2915:2922  !locked */\n      iszero\n        /* \"subastaSmartC.sol\":2907:2943  require(!locked, \"Reentrancy guard\") */\n      tag_140\n      jumpi\n      mload(0x40)\n      0x08c379a000000000000000000000000000000000000000000000000000000000\n      dup2\n      mstore\n      0x04\n      add\n      tag_141\n      swap1\n      tag_142\n      jump\t// in\n    tag_141:\n      mload(0x40)\n      dup1\n      swap2\n      sub\n      swap1\n      revert\n    tag_140:\n        /* \"subastaSmartC.sol\":2963:2967  true */\n      0x01\n        /* \"subastaSmartC.sol\":2954:2960  locked */\n      0x05\n      0x01\n        /* \"subastaSmartC.sol\":2954:2967  locked = true */\n      0x0100\n      exp\n      dup2\n      sload\n      dup2\n      0xff\n      mul\n      not\n      and\n      swap1\n      dup4\n      iszero\n      iszero\n      mul\n      or\n      swap1\n      sstore\n      pop\n        /* \"subastaSmartC.sol\":6471:6489  uint totalToReturn */\n      0x00\n        /* \"subastaSmartC.sol\":6492:6500  deposits */\n      0x07\n        /* \"subastaSmartC.sol\":6492:6512  deposits[msg.sender] */\n      0x00\n        /* \"subastaSmartC.sol\":6501:6511  msg.sender */\n      caller\n        /* \"subastaSmartC.sol\":6492:6512  deposits[msg.sender] */\n      0xffffffffffffffffffffffffffffffffffffffff\n      and\n      0xffffffffffffffffffffffffffffffffffffffff\n      and\n      dup2\n      mstore\n      0x20\n      add\n      swap1\n      dup2\n      mstore\n      0x20\n      add\n      0x00\n      keccak256\n      sload\n        /* \"subastaSmartC.sol\":6471:6512  uint totalToReturn = deposits[msg.sender] */\n      swap1\n      pop\n        /* \"subastaSmartC.sol\":6547:6548  0 */\n      0x00\n        /* \"subastaSmartC.sol\":6531:6544  totalToReturn */\n      dup2\n        /* \"subastaSmartC.sol\":6531:6548  totalToReturn > 0 */\n      gt\n        /* \"subastaSmartC.sol\":6523:6573  require(totalToReturn > 0, \"No funds to withdraw\") */\n      tag_144\n      jumpi\n      mload(0x40)\n      0x08c379a000000000000000000000000000000000000000000000000000000000\n      dup2\n      mstore\n      0x04\n      add\n      tag_145\n      swap1\n      tag_146\n      jump\t// in\n    tag_145:\n      mload(0x40)\n      dup1\n      swap2\n      sub\n      swap1\n      revert\n    tag_144:\n        /* \"subastaSmartC.sol\":6649:6650  0 */\n      0x00\n        /* \"subastaSmartC.sol\":6626:6634  deposits */\n      0x07\n        /* \"subastaSmartC.sol\":6626:6646  deposits[msg.sender] */\n      0x00\n        /* \"subastaSmartC.sol\":6635:6645  msg.sender */\n      caller\n        /* \"subastaSmartC.sol\":6626:6646  deposits[msg.sender] */\n      0xffffffffffffffffffffffffffffffffffffffff\n      and\n      0xffffffffffffffffffffffffffffffffffffffff\n      and\n      dup2\n      mstore\n      0x20\n      add\n      swap1\n      dup2\n      mstore\n      0x20\n      add\n      0x00\n      keccak256\n        /* \"subastaSmartC.sol\":6626:6650  deposits[msg.sender] = 0 */\n      dup2\n      swap1\n      sstore\n      pop\n        /* \"subastaSmartC.sol\":6708:6716  uint fee */\n      0x00\n        /* \"subastaSmartC.sol\":6758:6761  100 */\n      0x64\n        /* \"subastaSmartC.sol\":1373:1374  2 */\n      0x02\n        /* \"subastaSmartC.sol\":6720:6733  totalToReturn */\n      dup4\n        /* \"subastaSmartC.sol\":6720:6754  totalToReturn * REFUND_FEE_PERCENT */\n      tag_147\n      swap2\n      swap1\n      tag_148\n      jump\t// in\n    tag_147:\n        /* \"subastaSmartC.sol\":6719:6761  (totalToReturn * REFUND_FEE_PERCENT) / 100 */\n      tag_149\n      swap2\n      swap1\n      tag_150\n      jump\t// in\n    tag_149:\n        /* \"subastaSmartC.sol\":6708:6761  uint fee = (totalToReturn * REFUND_FEE_PERCENT) / 100 */\n      swap1\n      pop\n        /* \"subastaSmartC.sol\":6772:6783  uint refund */\n      0x00\n        /* \"subastaSmartC.sol\":6802:6805  fee */\n      dup2\n        /* \"subastaSmartC.sol\":6786:6799  totalToReturn */\n      dup4\n        /* \"subastaSmartC.sol\":6786:6805  totalToReturn - fee */\n      tag_151\n      swap2\n      swap1\n      tag_152\n      jump\t// in\n    tag_151:\n        /* \"subastaSmartC.sol\":6772:6805  uint refund = totalToReturn - fee */\n      swap1\n      pop\n        /* \"subastaSmartC.sol\":6833:6836  fee */\n      dup2\n        /* \"subastaSmartC.sol\":6816:6829  collectedFees */\n      0x09\n      0x00\n        /* \"subastaSmartC.sol\":6816:6836  collectedFees += fee */\n      dup3\n      dup3\n      sload\n      tag_153\n      swap2\n      swap1\n      tag_154\n      jump\t// in\n    tag_153:\n      swap3\n      pop\n      pop\n      dup2\n      swap1\n      sstore\n      pop\n        /* \"subastaSmartC.sol\":6880:6892  bool success */\n      0x00\n        /* \"subastaSmartC.sol\":6906:6916  msg.sender */\n      caller\n        /* \"subastaSmartC.sol\":6898:6922  payable(msg.sender).call */\n      0xffffffffffffffffffffffffffffffffffffffff\n      and\n        /* \"subastaSmartC.sol\":6930:6936  refund */\n      dup3\n        /* \"subastaSmartC.sol\":6898:6941  payable(msg.sender).call{value: refund}(\"\") */\n      mload(0x40)\n      tag_155\n      swap1\n      tag_156\n      jump\t// in\n    tag_155:\n      0x00\n      mload(0x40)\n      dup1\n      dup4\n      sub\n      dup2\n      dup6\n      dup8\n      gas\n      call\n      swap3\n      pop\n      pop\n      pop\n      returndatasize\n      dup1\n      0x00\n      dup2\n      eq\n      tag_159\n      jumpi\n      mload(0x40)\n      swap2\n      pop\n      and(add(returndatasize, 0x3f), not(0x1f))\n      dup3\n      add\n      0x40\n      mstore\n      returndatasize\n      dup3\n      mstore\n      returndatasize\n      0x00\n      0x20\n      dup5\n      add\n      returndatacopy\n      jump(tag_158)\n    tag_159:\n      0x60\n      swap2\n      pop\n    tag_158:\n      pop\n        /* \"subastaSmartC.sol\":6879:6941  (bool success, ) = payable(msg.sender).call{value: refund}(\"\") */\n      pop\n      swap1\n      pop\n        /* \"subastaSmartC.sol\":6960:6967  success */\n      dup1\n        /* \"subastaSmartC.sol\":6952:6987  require(success, \"Transfer failed\") */\n      tag_160\n      jumpi\n      mload(0x40)\n      0x08c379a000000000000000000000000000000000000000000000000000000000\n      dup2\n      mstore\n      0x04\n      add\n      tag_161\n      swap1\n      tag_162\n      jump\t// in\n    tag_161:\n      mload(0x40)\n      dup1\n      swap2\n      sub\n      swap1\n      revert\n    tag_160:\n        /* \"subastaSmartC.sol\":7016:7026  msg.sender */\n      caller\n        /* \"subastaSmartC.sol\":7005:7035  Withdrawal(msg.sender, refund) */\n      0xffffffffffffffffffffffffffffffffffffffff\n      and\n      0x7fcf532c15f0a6db0bd6d0e038bea71d30d808c7d98cb3bf7268a95bf5081b65\n        /* \"subastaSmartC.sol\":7028:7034  refund */\n      dup4\n        /* \"subastaSmartC.sol\":7005:7035  Withdrawal(msg.sender, refund) */\n      mload(0x40)\n      tag_163\n      swap2\n      swap1\n      tag_55\n      jump\t// in\n    tag_163:\n      mload(0x40)\n      dup1\n      swap2\n      sub\n      swap1\n      log2\n        /* \"subastaSmartC.sol\":6460:7043  {... */\n      pop\n      pop\n      pop\n      pop\n        /* \"subastaSmartC.sol\":2999:3004  false */\n      0x00\n        /* \"subastaSmartC.sol\":2990:2996  locked */\n      0x05\n      0x01\n        /* \"subastaSmartC.sol\":2990:3004  locked = false */\n      0x0100\n      exp\n      dup2\n      sload\n      dup2\n      0xff\n      mul\n      not\n      and\n      swap1\n      dup4\n      iszero\n      iszero\n      mul\n      or\n      swap1\n      sstore\n      pop\n        /* \"subastaSmartC.sol\":6386:7043  function withdrawDeposit() public onlyAfterEnd onlyNotWinner nonReentrant {... */\n      jump\t// out\n        /* \"subastaSmartC.sol\":1420:1437  bool public ended */\n    tag_46:\n      0x05\n      0x00\n      swap1\n      sload\n      swap1\n      0x0100\n      exp\n      swap1\n      div\n      0xff\n      and\n      dup2\n      jump\t// out\n        /* \"subastaSmartC.sol\":4600:5673  function bid() external payable onlyWhileActive nonReentrant {... */\n    tag_50:\n        /* \"subastaSmartC.sol\":3124:3129  ended */\n      0x05\n      0x00\n      swap1\n      sload\n      swap1\n      0x0100\n      exp\n      swap1\n      div\n      0xff\n      and\n        /* \"subastaSmartC.sol\":3123:3129  !ended */\n      iszero\n        /* \"subastaSmartC.sol\":3123:3161  !ended && block.timestamp >= startTime */\n      dup1\n      iszero\n      tag_165\n      jumpi\n      pop\n        /* \"subastaSmartC.sol\":3152:3161  startTime */\n      sload(0x03)\n        /* \"subastaSmartC.sol\":3133:3148  block.timestamp */\n      timestamp\n        /* \"subastaSmartC.sol\":3133:3161  block.timestamp >= startTime */\n      lt\n      iszero\n        /* \"subastaSmartC.sol\":3123:3161  !ended && block.timestamp >= startTime */\n    tag_165:\n        /* \"subastaSmartC.sol\":3123:3190  !ended && block.timestamp >= startTime && block.timestamp < endTime */\n      dup1\n      iszero\n      tag_166\n      jumpi\n      pop\n        /* \"subastaSmartC.sol\":3183:3190  endTime */\n      sload(0x04)\n        /* \"subastaSmartC.sol\":3165:3180  block.timestamp */\n      timestamp\n        /* \"subastaSmartC.sol\":3165:3190  block.timestamp < endTime */\n      lt\n        /* \"subastaSmartC.sol\":3123:3190  !ended && block.timestamp >= startTime && block.timestamp < endTime */\n    tag_166:\n        /* \"subastaSmartC.sol\":3115:3216  require(!ended && block.timestamp >= startTime && block.timestamp < endTime, \"Auction is not active\") */\n      tag_167\n      jumpi\n      mload(0x40)\n      0x08c379a000000000000000000000000000000000000000000000000000000000\n      dup2\n      mstore\n      0x04\n      add\n      tag_168\n      swap1\n      tag_169\n      jump\t// in\n    tag_168:\n      mload(0x40)\n      dup1\n      swap2\n      sub\n      swap1\n      revert\n    tag_167:\n        /* \"subastaSmartC.sol\":2916:2922  locked */\n      0x05\n      0x01\n      swap1\n      sload\n      swap1\n      0x0100\n      exp\n      swap1\n      div\n      0xff\n      and\n        /* \"subastaSmartC.sol\":2915:2922  !locked */\n      iszero\n        /* \"subastaSmartC.sol\":2907:2943  require(!locked, \"Reentrancy guard\") */\n      tag_171\n      jumpi\n      mload(0x40)\n      0x08c379a000000000000000000000000000000000000000000000000000000000\n      dup2\n      mstore\n      0x04\n      add\n      tag_172\n      swap1\n      tag_142\n      jump\t// in\n    tag_172:\n      mload(0x40)\n      dup1\n      swap2\n      sub\n      swap1\n      revert\n    tag_171:\n        /* \"subastaSmartC.sol\":2963:2967  true */\n      0x01\n        /* \"subastaSmartC.sol\":2954:2960  locked */\n      0x05\n      0x01\n        /* \"subastaSmartC.sol\":2954:2967  locked = true */\n      0x0100\n      exp\n      dup2\n      sload\n      dup2\n      0xff\n      mul\n      not\n      and\n      swap1\n      dup4\n      iszero\n      iszero\n      mul\n      or\n      swap1\n      sstore\n      pop\n        /* \"subastaSmartC.sol\":4692:4693  0 */\n      0x00\n        /* \"subastaSmartC.sol\":4680:4689  msg.value */\n      callvalue\n        /* \"subastaSmartC.sol\":4680:4693  msg.value > 0 */\n      gt\n        /* \"subastaSmartC.sol\":4672:4724  require(msg.value > 0, \"Bid must be greater than 0\") */\n      tag_174\n      jumpi\n      mload(0x40)\n      0x08c379a000000000000000000000000000000000000000000000000000000000\n      dup2\n      mstore\n      0x04\n      add\n      tag_175\n      swap1\n      tag_176\n      jump\t// in\n    tag_175:\n      mload(0x40)\n      dup1\n      swap2\n      sub\n      swap1\n      revert\n    tag_174:\n        /* \"subastaSmartC.sol\":4797:4813  uint newTotalBid */\n      0x00\n        /* \"subastaSmartC.sol\":4839:4848  msg.value */\n      callvalue\n        /* \"subastaSmartC.sol\":4816:4824  deposits */\n      0x07\n        /* \"subastaSmartC.sol\":4816:4836  deposits[msg.sender] */\n      0x00\n        /* \"subastaSmartC.sol\":4825:4835  msg.sender */\n      caller\n        /* \"subastaSmartC.sol\":4816:4836  deposits[msg.sender] */\n      0xffffffffffffffffffffffffffffffffffffffff\n      and\n      0xffffffffffffffffffffffffffffffffffffffff\n      and\n      dup2\n      mstore\n      0x20\n      add\n      swap1\n      dup2\n      mstore\n      0x20\n      add\n      0x00\n      keccak256\n      sload\n        /* \"subastaSmartC.sol\":4816:4848  deposits[msg.sender] + msg.value */\n      tag_177\n      swap2\n      swap1\n      tag_154\n      jump\t// in\n    tag_177:\n        /* \"subastaSmartC.sol\":4797:4848  uint newTotalBid = deposits[msg.sender] + msg.value */\n      swap1\n      pop\n        /* \"subastaSmartC.sol\":4859:4875  uint minRequired */\n      0x00\n        /* \"subastaSmartC.sol\":4892:4893  0 */\n      0x00\n        /* \"subastaSmartC.sol\":4878:4888  highestBid */\n      sload(0x02)\n        /* \"subastaSmartC.sol\":4878:4893  highestBid == 0 */\n      eq\n        /* \"subastaSmartC.sol\":4878:4942  highestBid == 0 ? 0 : (highestBid * MIN_INCREMENT_PERCENT) / 100 */\n      tag_178\n      jumpi\n        /* \"subastaSmartC.sol\":4939:4942  100 */\n      0x64\n        /* \"subastaSmartC.sol\":938:941  105 */\n      0x69\n        /* \"subastaSmartC.sol\":4901:4911  highestBid */\n      sload(0x02)\n        /* \"subastaSmartC.sol\":4901:4935  highestBid * MIN_INCREMENT_PERCENT */\n      tag_179\n      swap2\n      swap1\n      tag_148\n      jump\t// in\n    tag_179:\n        /* \"subastaSmartC.sol\":4900:4942  (highestBid * MIN_INCREMENT_PERCENT) / 100 */\n      tag_180\n      swap2\n      swap1\n      tag_150\n      jump\t// in\n    tag_180:\n        /* \"subastaSmartC.sol\":4878:4942  highestBid == 0 ? 0 : (highestBid * MIN_INCREMENT_PERCENT) / 100 */\n      jump(tag_181)\n    tag_178:\n        /* \"subastaSmartC.sol\":4896:4897  0 */\n      0x00\n        /* \"subastaSmartC.sol\":4878:4942  highestBid == 0 ? 0 : (highestBid * MIN_INCREMENT_PERCENT) / 100 */\n    tag_181:\n        /* \"subastaSmartC.sol\":4859:4942  uint minRequired = highestBid == 0 ? 0 : (highestBid * MIN_INCREMENT_PERCENT) / 100 */\n      swap1\n      pop\n        /* \"subastaSmartC.sol\":4985:4996  minRequired */\n      dup1\n        /* \"subastaSmartC.sol\":4971:4982  newTotalBid */\n      dup3\n        /* \"subastaSmartC.sol\":4971:4996  newTotalBid > minRequired */\n      gt\n        /* \"subastaSmartC.sol\":4963:5048  require(newTotalBid > minRequired, \"Bid must be at least 5% higher than highest bid\") */\n      tag_182\n      jumpi\n      mload(0x40)\n      0x08c379a000000000000000000000000000000000000000000000000000000000\n      dup2\n      mstore\n      0x04\n      add\n      tag_183\n      swap1\n      tag_184\n      jump\t// in\n    tag_183:\n      mload(0x40)\n      dup1\n      swap2\n      sub\n      swap1\n      revert\n    tag_182:\n        /* \"subastaSmartC.sol\":5122:5131  msg.value */\n      callvalue\n        /* \"subastaSmartC.sol\":5098:5106  deposits */\n      0x07\n        /* \"subastaSmartC.sol\":5098:5118  deposits[msg.sender] */\n      0x00\n        /* \"subastaSmartC.sol\":5107:5117  msg.sender */\n      caller\n        /* \"subastaSmartC.sol\":5098:5118  deposits[msg.sender] */\n      0xffffffffffffffffffffffffffffffffffffffff\n      and\n      0xffffffffffffffffffffffffffffffffffffffff\n      and\n      dup2\n      mstore\n      0x20\n      add\n      swap1\n      dup2\n      mstore\n      0x20\n      add\n      0x00\n      keccak256\n      0x00\n        /* \"subastaSmartC.sol\":5098:5131  deposits[msg.sender] += msg.value */\n      dup3\n      dup3\n      sload\n      tag_185\n      swap2\n      swap1\n      tag_154\n      jump\t// in\n    tag_185:\n      swap3\n      pop\n      pop\n      dup2\n      swap1\n      sstore\n      pop\n        /* \"subastaSmartC.sol\":5169:5175  offers */\n      0x06\n        /* \"subastaSmartC.sol\":5181:5226  Offer(msg.sender, msg.value, block.timestamp) */\n      mload(0x40)\n      dup1\n      0x60\n      add\n      0x40\n      mstore\n      dup1\n        /* \"subastaSmartC.sol\":5187:5197  msg.sender */\n      caller\n        /* \"subastaSmartC.sol\":5181:5226  Offer(msg.sender, msg.value, block.timestamp) */\n      0xffffffffffffffffffffffffffffffffffffffff\n      and\n      dup2\n      mstore\n      0x20\n      add\n        /* \"subastaSmartC.sol\":5199:5208  msg.value */\n      callvalue\n        /* \"subastaSmartC.sol\":5181:5226  Offer(msg.sender, msg.value, block.timestamp) */\n      dup2\n      mstore\n      0x20\n      add\n        /* \"subastaSmartC.sol\":5210:5225  block.timestamp */\n      timestamp\n        /* \"subastaSmartC.sol\":5181:5226  Offer(msg.sender, msg.value, block.timestamp) */\n      dup2\n      mstore\n      pop\n        /* \"subastaSmartC.sol\":5169:5227  offers.push(Offer(msg.sender, msg.value, block.timestamp)) */\n      swap1\n      dup1\n      0x01\n      dup2\n      sload\n      add\n      dup1\n      dup3\n      sstore\n      dup1\n      swap2\n      pop\n      pop\n      0x01\n      swap1\n      sub\n      swap1\n      0x00\n      mstore\n      keccak256(0x00, 0x20)\n      swap1\n      0x03\n      mul\n      add\n      0x00\n      swap1\n      swap2\n      swap1\n      swap2\n      swap1\n      swap2\n      pop\n      0x00\n      dup3\n      add\n      mload\n      dup2\n      0x00\n      add\n      exp(0x0100, 0x00)\n      dup2\n      sload\n      dup2\n      0xffffffffffffffffffffffffffffffffffffffff\n      mul\n      not\n      and\n      swap1\n      dup4\n      0xffffffffffffffffffffffffffffffffffffffff\n      and\n      mul\n      or\n      swap1\n      sstore\n      pop\n      0x20\n      dup3\n      add\n      mload\n      dup2\n      0x01\n      add\n      sstore\n      0x40\n      dup3\n      add\n      mload\n      dup2\n      0x02\n      add\n      sstore\n      pop\n      pop\n        /* \"subastaSmartC.sol\":5283:5284  1 */\n      0x01\n        /* \"subastaSmartC.sol\":5267:5273  offers */\n      0x06\n        /* \"subastaSmartC.sol\":5267:5280  offers.length */\n      dup1\n      sload\n      swap1\n      pop\n        /* \"subastaSmartC.sol\":5267:5284  offers.length - 1 */\n      tag_187\n      swap2\n      swap1\n      tag_152\n      jump\t// in\n    tag_187:\n        /* \"subastaSmartC.sol\":5238:5252  lastOfferIndex */\n      0x08\n        /* \"subastaSmartC.sol\":5238:5264  lastOfferIndex[msg.sender] */\n      0x00\n        /* \"subastaSmartC.sol\":5253:5263  msg.sender */\n      caller\n        /* \"subastaSmartC.sol\":5238:5264  lastOfferIndex[msg.sender] */\n      0xffffffffffffffffffffffffffffffffffffffff\n      and\n      0xffffffffffffffffffffffffffffffffffffffff\n      and\n      dup2\n      mstore\n      0x20\n      add\n      swap1\n      dup2\n      mstore\n      0x20\n      add\n      0x00\n      keccak256\n        /* \"subastaSmartC.sol\":5238:5284  lastOfferIndex[msg.sender] = offers.length - 1 */\n      dup2\n      swap1\n      sstore\n      pop\n        /* \"subastaSmartC.sol\":5371:5382  newTotalBid */\n      dup2\n        /* \"subastaSmartC.sol\":5358:5368  highestBid */\n      0x02\n        /* \"subastaSmartC.sol\":5358:5382  highestBid = newTotalBid */\n      dup2\n      swap1\n      sstore\n      pop\n        /* \"subastaSmartC.sol\":5409:5419  msg.sender */\n      caller\n        /* \"subastaSmartC.sol\":5393:5406  highestBidder */\n      0x01\n      0x00\n        /* \"subastaSmartC.sol\":5393:5419  highestBidder = msg.sender */\n      0x0100\n      exp\n      dup2\n      sload\n      dup2\n      0xffffffffffffffffffffffffffffffffffffffff\n      mul\n      not\n      and\n      swap1\n      dup4\n      0xffffffffffffffffffffffffffffffffffffffff\n      and\n      mul\n      or\n      swap1\n      sstore\n      pop\n        /* \"subastaSmartC.sol\":1239:1242  600 */\n      0x0258\n        /* \"subastaSmartC.sol\":5509:5524  block.timestamp */\n      timestamp\n        /* \"subastaSmartC.sol\":5499:5506  endTime */\n      sload(0x04)\n        /* \"subastaSmartC.sol\":5499:5524  endTime - block.timestamp */\n      tag_188\n      swap2\n      swap1\n      tag_152\n      jump\t// in\n    tag_188:\n        /* \"subastaSmartC.sol\":5499:5544  endTime - block.timestamp <= EXTENSION_WINDOW */\n      gt\n        /* \"subastaSmartC.sol\":5495:5615  if (endTime - block.timestamp <= EXTENSION_WINDOW) {... */\n      tag_189\n      jumpi\n        /* \"subastaSmartC.sol\":1102:1105  600 */\n      0x0258\n        /* \"subastaSmartC.sol\":5571:5586  block.timestamp */\n      timestamp\n        /* \"subastaSmartC.sol\":5571:5603  block.timestamp + EXTENSION_TIME */\n      tag_190\n      swap2\n      swap1\n      tag_154\n      jump\t// in\n    tag_190:\n        /* \"subastaSmartC.sol\":5561:5568  endTime */\n      0x04\n        /* \"subastaSmartC.sol\":5561:5603  endTime = block.timestamp + EXTENSION_TIME */\n      dup2\n      swap1\n      sstore\n      pop\n        /* \"subastaSmartC.sol\":5495:5615  if (endTime - block.timestamp <= EXTENSION_WINDOW) {... */\n    tag_189:\n        /* \"subastaSmartC.sol\":5641:5651  msg.sender */\n      caller\n        /* \"subastaSmartC.sol\":5632:5665  NewOffer(msg.sender, newTotalBid) */\n      0xffffffffffffffffffffffffffffffffffffffff\n      and\n      0x058d619527549e88853c641ebcec23205e5df61592e3908275721b5ad490113f\n        /* \"subastaSmartC.sol\":5653:5664  newTotalBid */\n      dup4\n        /* \"subastaSmartC.sol\":5632:5665  NewOffer(msg.sender, newTotalBid) */\n      mload(0x40)\n      tag_191\n      swap2\n      swap1\n      tag_55\n      jump\t// in\n    tag_191:\n      mload(0x40)\n      dup1\n      swap2\n      sub\n      swap1\n      log2\n        /* \"subastaSmartC.sol\":4661:5673  {... */\n      pop\n      pop\n        /* \"subastaSmartC.sol\":2999:3004  false */\n      0x00\n        /* \"subastaSmartC.sol\":2990:2996  locked */\n      0x05\n      0x01\n        /* \"subastaSmartC.sol\":2990:3004  locked = false */\n      0x0100\n      exp\n      dup2\n      sload\n      dup2\n      0xff\n      mul\n      not\n      and\n      swap1\n      dup4\n      iszero\n      iszero\n      mul\n      or\n      swap1\n      sstore\n      pop\n        /* \"subastaSmartC.sol\":4600:5673  function bid() external payable onlyWhileActive nonReentrant {... */\n      jump\t// out\n        /* \"subastaSmartC.sol\":780:799  uint public endTime */\n    tag_53:\n      sload(0x04)\n      dup2\n      jump\t// out\n        /* \"subastaSmartC.sol\":7139:7715  function partialWithdrawExcess() public onlyWhileActive nonReentrant {... */\n    tag_58:\n        /* \"subastaSmartC.sol\":3124:3129  ended */\n      0x05\n      0x00\n      swap1\n      sload\n      swap1\n      0x0100\n      exp\n      swap1\n      div\n      0xff\n      and\n        /* \"subastaSmartC.sol\":3123:3129  !ended */\n      iszero\n        /* \"subastaSmartC.sol\":3123:3161  !ended && block.timestamp >= startTime */\n      dup1\n      iszero\n      tag_193\n      jumpi\n      pop\n        /* \"subastaSmartC.sol\":3152:3161  startTime */\n      sload(0x03)\n        /* \"subastaSmartC.sol\":3133:3148  block.timestamp */\n      timestamp\n        /* \"subastaSmartC.sol\":3133:3161  block.timestamp >= startTime */\n      lt\n      iszero\n        /* \"subastaSmartC.sol\":3123:3161  !ended && block.timestamp >= startTime */\n    tag_193:\n        /* \"subastaSmartC.sol\":3123:3190  !ended && block.timestamp >= startTime && block.timestamp < endTime */\n      dup1\n      iszero\n      tag_194\n      jumpi\n      pop\n        /* \"subastaSmartC.sol\":3183:3190  endTime */\n      sload(0x04)\n        /* \"subastaSmartC.sol\":3165:3180  block.timestamp */\n      timestamp\n        /* \"subastaSmartC.sol\":3165:3190  block.timestamp < endTime */\n      lt\n        /* \"subastaSmartC.sol\":3123:3190  !ended && block.timestamp >= startTime && block.timestamp < endTime */\n    tag_194:\n        /* \"subastaSmartC.sol\":3115:3216  require(!ended && block.timestamp >= startTime && block.timestamp < endTime, \"Auction is not active\") */\n      tag_195\n      jumpi\n      mload(0x40)\n      0x08c379a000000000000000000000000000000000000000000000000000000000\n      dup2\n      mstore\n      0x04\n      add\n      tag_196\n      swap1\n      tag_169\n      jump\t// in\n    tag_196:\n      mload(0x40)\n      dup1\n      swap2\n      sub\n      swap1\n      revert\n    tag_195:\n        /* \"subastaSmartC.sol\":2916:2922  locked */\n      0x05\n      0x01\n      swap1\n      sload\n      swap1\n      0x0100\n      exp\n      swap1\n      div\n      0xff\n      and\n        /* \"subastaSmartC.sol\":2915:2922  !locked */\n      iszero\n        /* \"subastaSmartC.sol\":2907:2943  require(!locked, \"Reentrancy guard\") */\n      tag_198\n      jumpi\n      mload(0x40)\n      0x08c379a000000000000000000000000000000000000000000000000000000000\n      dup2\n      mstore\n      0x04\n      add\n      tag_199\n      swap1\n      tag_142\n      jump\t// in\n    tag_199:\n      mload(0x40)\n      dup1\n      swap2\n      sub\n      swap1\n      revert\n    tag_198:\n        /* \"subastaSmartC.sol\":2963:2967  true */\n      0x01\n        /* \"subastaSmartC.sol\":2954:2960  locked */\n      0x05\n      0x01\n        /* \"subastaSmartC.sol\":2954:2967  locked = true */\n      0x0100\n      exp\n      dup2\n      sload\n      dup2\n      0xff\n      mul\n      not\n      and\n      swap1\n      dup4\n      iszero\n      iszero\n      mul\n      or\n      swap1\n      sstore\n      pop\n        /* \"subastaSmartC.sol\":7241:7254  highestBidder */\n      0x01\n      0x00\n      swap1\n      sload\n      swap1\n      0x0100\n      exp\n      swap1\n      div\n      0xffffffffffffffffffffffffffffffffffffffff\n      and\n        /* \"subastaSmartC.sol\":7227:7254  msg.sender != highestBidder */\n      0xffffffffffffffffffffffffffffffffffffffff\n      and\n        /* \"subastaSmartC.sol\":7227:7237  msg.sender */\n      caller\n        /* \"subastaSmartC.sol\":7227:7254  msg.sender != highestBidder */\n      0xffffffffffffffffffffffffffffffffffffffff\n      and\n      sub\n        /* \"subastaSmartC.sol\":7219:7297  require(msg.sender != highestBidder, \"Current highest bidder cannot withdraw\") */\n      tag_201\n      jumpi\n      mload(0x40)\n      0x08c379a000000000000000000000000000000000000000000000000000000000\n      dup2\n      mstore\n      0x04\n      add\n      tag_202\n      swap1\n      tag_203\n      jump\t// in\n    tag_202:\n      mload(0x40)\n      dup1\n      swap2\n      sub\n      swap1\n      revert\n    tag_201:\n        /* \"subastaSmartC.sol\":7318:7335  uint totalDeposit */\n      0x00\n        /* \"subastaSmartC.sol\":7338:7346  deposits */\n      0x07\n        /* \"subastaSmartC.sol\":7338:7358  deposits[msg.sender] */\n      0x00\n        /* \"subastaSmartC.sol\":7347:7357  msg.sender */\n      caller\n        /* \"subastaSmartC.sol\":7338:7358  deposits[msg.sender] */\n      0xffffffffffffffffffffffffffffffffffffffff\n      and\n      0xffffffffffffffffffffffffffffffffffffffff\n      and\n      dup2\n      mstore\n      0x20\n      add\n      swap1\n      dup2\n      mstore\n      0x20\n      add\n      0x00\n      keccak256\n      sload\n        /* \"subastaSmartC.sol\":7318:7358  uint totalDeposit = deposits[msg.sender] */\n      swap1\n      pop\n        /* \"subastaSmartC.sol\":7392:7393  0 */\n      0x00\n        /* \"subastaSmartC.sol\":7377:7389  totalDeposit */\n      dup2\n        /* \"subastaSmartC.sol\":7377:7393  totalDeposit > 0 */\n      gt\n        /* \"subastaSmartC.sol\":7369:7425  require(totalDeposit > 0, \"No excess funds to withdraw\") */\n      tag_204\n      jumpi\n      mload(0x40)\n      0x08c379a000000000000000000000000000000000000000000000000000000000\n      dup2\n      mstore\n      0x04\n      add\n      tag_205\n      swap1\n      tag_206\n      jump\t// in\n    tag_205:\n      mload(0x40)\n      dup1\n      swap2\n      sub\n      swap1\n      revert\n    tag_204:\n        /* \"subastaSmartC.sol\":7487:7488  0 */\n      0x00\n        /* \"subastaSmartC.sol\":7464:7472  deposits */\n      0x07\n        /* \"subastaSmartC.sol\":7464:7484  deposits[msg.sender] */\n      0x00\n        /* \"subastaSmartC.sol\":7473:7483  msg.sender */\n      caller\n        /* \"subastaSmartC.sol\":7464:7484  deposits[msg.sender] */\n      0xffffffffffffffffffffffffffffffffffffffff\n      and\n      0xffffffffffffffffffffffffffffffffffffffff\n      and\n      dup2\n      mstore\n      0x20\n      add\n      swap1\n      dup2\n      mstore\n      0x20\n      add\n      0x00\n      keccak256\n        /* \"subastaSmartC.sol\":7464:7488  deposits[msg.sender] = 0 */\n      dup2\n      swap1\n      sstore\n      pop\n        /* \"subastaSmartC.sol\":7532:7544  bool success */\n      0x00\n        /* \"subastaSmartC.sol\":7558:7568  msg.sender */\n      caller\n        /* \"subastaSmartC.sol\":7550:7574  payable(msg.sender).call */\n      0xffffffffffffffffffffffffffffffffffffffff\n      and\n        /* \"subastaSmartC.sol\":7582:7594  totalDeposit */\n      dup3\n        /* \"subastaSmartC.sol\":7550:7599  payable(msg.sender).call{value: totalDeposit}(\"\") */\n      mload(0x40)\n      tag_207\n      swap1\n      tag_156\n      jump\t// in\n    tag_207:\n      0x00\n      mload(0x40)\n      dup1\n      dup4\n      sub\n      dup2\n      dup6\n      dup8\n      gas\n      call\n      swap3\n      pop\n      pop\n      pop\n      returndatasize\n      dup1\n      0x00\n      dup2\n      eq\n      tag_210\n      jumpi\n      mload(0x40)\n      swap2\n      pop\n      and(add(returndatasize, 0x3f), not(0x1f))\n      dup3\n      add\n      0x40\n      mstore\n      returndatasize\n      dup3\n      mstore\n      returndatasize\n      0x00\n      0x20\n      dup5\n      add\n      returndatacopy\n      jump(tag_209)\n    tag_210:\n      0x60\n      swap2\n      pop\n    tag_209:\n      pop\n        /* \"subastaSmartC.sol\":7531:7599  (bool success, ) = payable(msg.sender).call{value: totalDeposit}(\"\") */\n      pop\n      swap1\n      pop\n        /* \"subastaSmartC.sol\":7618:7625  success */\n      dup1\n        /* \"subastaSmartC.sol\":7610:7645  require(success, \"Transfer failed\") */\n      tag_211\n      jumpi\n      mload(0x40)\n      0x08c379a000000000000000000000000000000000000000000000000000000000\n      dup2\n      mstore\n      0x04\n      add\n      tag_212\n      swap1\n      tag_162\n      jump\t// in\n    tag_212:\n      mload(0x40)\n      dup1\n      swap2\n      sub\n      swap1\n      revert\n    tag_211:\n        /* \"subastaSmartC.sol\":7682:7692  msg.sender */\n      caller\n        /* \"subastaSmartC.sol\":7671:7707  Withdrawal(msg.sender, totalDeposit) */\n      0xffffffffffffffffffffffffffffffffffffffff\n      and\n      0x7fcf532c15f0a6db0bd6d0e038bea71d30d808c7d98cb3bf7268a95bf5081b65\n        /* \"subastaSmartC.sol\":7694:7706  totalDeposit */\n      dup4\n        /* \"subastaSmartC.sol\":7671:7707  Withdrawal(msg.sender, totalDeposit) */\n      mload(0x40)\n      tag_213\n      swap2\n      swap1\n      tag_55\n      jump\t// in\n    tag_213:\n      mload(0x40)\n      dup1\n      swap2\n      sub\n      swap1\n      log2\n        /* \"subastaSmartC.sol\":7208:7715  {... */\n      pop\n      pop\n        /* \"subastaSmartC.sol\":2999:3004  false */\n      0x00\n        /* \"subastaSmartC.sol\":2990:2996  locked */\n      0x05\n      0x01\n        /* \"subastaSmartC.sol\":2990:3004  locked = false */\n      0x0100\n      exp\n      dup2\n      sload\n      dup2\n      0xff\n      mul\n      not\n      and\n      swap1\n      dup4\n      iszero\n      iszero\n      mul\n      or\n      swap1\n      sstore\n      pop\n        /* \"subastaSmartC.sol\":7139:7715  function partialWithdrawExcess() public onlyWhileActive nonReentrant {... */\n      jump\t// out\n        /* \"subastaSmartC.sol\":8412:8720  function withdrawFees() external onlySeller nonReentrant {... */\n    tag_61:\n        /* \"subastaSmartC.sol\":3507:3513  seller */\n      0x00\n      0x00\n      swap1\n      sload\n      swap1\n      0x0100\n      exp\n      swap1\n      div\n      0xffffffffffffffffffffffffffffffffffffffff\n      and\n        /* \"subastaSmartC.sol\":3493:3513  msg.sender == seller */\n      0xffffffffffffffffffffffffffffffffffffffff\n      and\n        /* \"subastaSmartC.sol\":3493:3503  msg.sender */\n      caller\n        /* \"subastaSmartC.sol\":3493:3513  msg.sender == seller */\n      0xffffffffffffffffffffffffffffffffffffffff\n      and\n      eq\n        /* \"subastaSmartC.sol\":3485:3538  require(msg.sender == seller, \"Only seller can call\") */\n      tag_215\n      jumpi\n      mload(0x40)\n      0x08c379a000000000000000000000000000000000000000000000000000000000\n      dup2\n      mstore\n      0x04\n      add\n      tag_216\n      swap1\n      tag_217\n      jump\t// in\n    tag_216:\n      mload(0x40)\n      dup1\n      swap2\n      sub\n      swap1\n      revert\n    tag_215:\n        /* \"subastaSmartC.sol\":2916:2922  locked */\n      0x05\n      0x01\n      swap1\n      sload\n      swap1\n      0x0100\n      exp\n      swap1\n      div\n      0xff\n      and\n        /* \"subastaSmartC.sol\":2915:2922  !locked */\n      iszero\n        /* \"subastaSmartC.sol\":2907:2943  require(!locked, \"Reentrancy guard\") */\n      tag_219\n      jumpi\n      mload(0x40)\n      0x08c379a000000000000000000000000000000000000000000000000000000000\n      dup2\n      mstore\n      0x04\n      add\n      tag_220\n      swap1\n      tag_142\n      jump\t// in\n    tag_220:\n      mload(0x40)\n      dup1\n      swap2\n      sub\n      swap1\n      revert\n    tag_219:\n        /* \"subastaSmartC.sol\":2963:2967  true */\n      0x01\n        /* \"subastaSmartC.sol\":2954:2960  locked */\n      0x05\n      0x01\n        /* \"subastaSmartC.sol\":2954:2967  locked = true */\n      0x0100\n      exp\n      dup2\n      sload\n      dup2\n      0xff\n      mul\n      not\n      and\n      swap1\n      dup4\n      iszero\n      iszero\n      mul\n      or\n      swap1\n      sstore\n      pop\n        /* \"subastaSmartC.sol\":8480:8489  uint fees */\n      0x00\n        /* \"subastaSmartC.sol\":8492:8505  collectedFees */\n      sload(0x09)\n        /* \"subastaSmartC.sol\":8480:8505  uint fees = collectedFees */\n      swap1\n      pop\n        /* \"subastaSmartC.sol\":8531:8532  0 */\n      0x00\n        /* \"subastaSmartC.sol\":8524:8528  fees */\n      dup2\n        /* \"subastaSmartC.sol\":8524:8532  fees > 0 */\n      gt\n        /* \"subastaSmartC.sol\":8516:8556  require(fees > 0, \"No fees to withdraw\") */\n      tag_222\n      jumpi\n      mload(0x40)\n      0x08c379a000000000000000000000000000000000000000000000000000000000\n      dup2\n      mstore\n      0x04\n      add\n      tag_223\n      swap1\n      tag_224\n      jump\t// in\n    tag_223:\n      mload(0x40)\n      dup1\n      swap2\n      sub\n      swap1\n      revert\n    tag_222:\n        /* \"subastaSmartC.sol\":8593:8594  0 */\n      0x00\n        /* \"subastaSmartC.sol\":8577:8590  collectedFees */\n      0x09\n        /* \"subastaSmartC.sol\":8577:8594  collectedFees = 0 */\n      dup2\n      swap1\n      sstore\n      pop\n        /* \"subastaSmartC.sol\":8616:8628  bool success */\n      0x00\n        /* \"subastaSmartC.sol\":8634:8640  seller */\n      0x00\n      0x00\n      swap1\n      sload\n      swap1\n      0x0100\n      exp\n      swap1\n      div\n      0xffffffffffffffffffffffffffffffffffffffff\n      and\n        /* \"subastaSmartC.sol\":8634:8645  seller.call */\n      0xffffffffffffffffffffffffffffffffffffffff\n      and\n        /* \"subastaSmartC.sol\":8653:8657  fees */\n      dup3\n        /* \"subastaSmartC.sol\":8634:8662  seller.call{value: fees}(\"\") */\n      mload(0x40)\n      tag_225\n      swap1\n      tag_156\n      jump\t// in\n    tag_225:\n      0x00\n      mload(0x40)\n      dup1\n      dup4\n      sub\n      dup2\n      dup6\n      dup8\n      gas\n      call\n      swap3\n      pop\n      pop\n      pop\n      returndatasize\n      dup1\n      0x00\n      dup2\n      eq\n      tag_228\n      jumpi\n      mload(0x40)\n      swap2\n      pop\n      and(add(returndatasize, 0x3f), not(0x1f))\n      dup3\n      add\n      0x40\n      mstore\n      returndatasize\n      dup3\n      mstore\n      returndatasize\n      0x00\n      0x20\n      dup5\n      add\n      returndatacopy\n      jump(tag_227)\n    tag_228:\n      0x60\n      swap2\n      pop\n    tag_227:\n      pop\n        /* \"subastaSmartC.sol\":8615:8662  (bool success, ) = seller.call{value: fees}(\"\") */\n      pop\n      swap1\n      pop\n        /* \"subastaSmartC.sol\":8681:8688  success */\n      dup1\n        /* \"subastaSmartC.sol\":8673:8712  require(success, \"Fee transfer failed\") */\n      tag_229\n      jumpi\n      mload(0x40)\n      0x08c379a000000000000000000000000000000000000000000000000000000000\n      dup2\n      mstore\n      0x04\n      add\n      tag_230\n      swap1\n      tag_231\n      jump\t// in\n    tag_230:\n      mload(0x40)\n      dup1\n      swap2\n      sub\n      swap1\n      revert\n    tag_229:\n        /* \"subastaSmartC.sol\":8469:8720  {... */\n      pop\n      pop\n        /* \"subastaSmartC.sol\":2999:3004  false */\n      0x00\n        /* \"subastaSmartC.sol\":2990:2996  locked */\n      0x05\n      0x01\n        /* \"subastaSmartC.sol\":2990:3004  locked = false */\n      0x0100\n      exp\n      dup2\n      sload\n      dup2\n      0xff\n      mul\n      not\n      and\n      swap1\n      dup4\n      iszero\n      iszero\n      mul\n      or\n      swap1\n      sstore\n      pop\n        /* \"subastaSmartC.sol\":8412:8720  function withdrawFees() external onlySeller nonReentrant {... */\n      jump\t// out\n        /* \"subastaSmartC.sol\":1331:1374  uint public constant REFUND_FEE_PERCENT = 2 */\n    tag_64:\n        /* \"subastaSmartC.sol\":1373:1374  2 */\n      0x02\n        /* \"subastaSmartC.sol\":1331:1374  uint public constant REFUND_FEE_PERCENT = 2 */\n      dup2\n      jump\t// out\n        /* \"subastaSmartC.sol\":6062:6153  function showOffers() public view returns (Offer[] memory) {... */\n    tag_68:\n        /* \"subastaSmartC.sol\":6105:6119  Offer[] memory */\n      0x60\n        /* \"subastaSmartC.sol\":6139:6145  offers */\n      0x06\n        /* \"subastaSmartC.sol\":6132:6145  return offers */\n      dup1\n      sload\n      dup1\n      0x20\n      mul\n      0x20\n      add\n      mload(0x40)\n      swap1\n      dup2\n      add\n      0x40\n      mstore\n      dup1\n      swap3\n      swap2\n      swap1\n      dup2\n      dup2\n      mstore\n      0x20\n      add\n      0x00\n      swap1\n    tag_233:\n      dup3\n      dup3\n      lt\n      iszero\n      tag_234\n      jumpi\n      dup4\n      dup3\n      swap1\n      0x00\n      mstore\n      keccak256(0x00, 0x20)\n      swap1\n      0x03\n      mul\n      add\n      mload(0x40)\n      dup1\n      0x60\n      add\n      0x40\n      mstore\n      swap1\n      dup2\n      0x00\n      dup3\n      add\n      0x00\n      swap1\n      sload\n      swap1\n      0x0100\n      exp\n      swap1\n      div\n      0xffffffffffffffffffffffffffffffffffffffff\n      and\n      0xffffffffffffffffffffffffffffffffffffffff\n      and\n      0xffffffffffffffffffffffffffffffffffffffff\n      and\n      dup2\n      mstore\n      0x20\n      add\n      0x01\n      dup3\n      add\n      sload\n      dup2\n      mstore\n      0x20\n      add\n      0x02\n      dup3\n      add\n      sload\n      dup2\n      mstore\n      pop\n      pop\n      dup2\n      mstore\n      0x20\n      add\n      swap1\n      0x01\n      add\n      swap1\n      jump(tag_233)\n    tag_234:\n      pop\n      pop\n      pop\n      pop\n      swap1\n      pop\n        /* \"subastaSmartC.sol\":6062:6153  function showOffers() public view returns (Offer[] memory) {... */\n      swap1\n      jump\t// out\n        /* \"subastaSmartC.sol\":1064:1105  uint public constant EXTENSION_TIME = 600 */\n    tag_73:\n        /* \"subastaSmartC.sol\":1102:1105  600 */\n      0x0258\n        /* \"subastaSmartC.sol\":1064:1105  uint public constant EXTENSION_TIME = 600 */\n      dup2\n      jump\t// out\n        /* \"subastaSmartC.sol\":893:941  uint public constant MIN_INCREMENT_PERCENT = 105 */\n    tag_77:\n        /* \"subastaSmartC.sol\":938:941  105 */\n      0x69\n        /* \"subastaSmartC.sol\":893:941  uint public constant MIN_INCREMENT_PERCENT = 105 */\n      dup2\n      jump\t// out\n        /* \"subastaSmartC.sol\":690:711  uint public startTime */\n    tag_81:\n      sload(0x03)\n      dup2\n      jump\t// out\n        /* \"subastaSmartC.sol\":1199:1242  uint public constant EXTENSION_WINDOW = 600 */\n    tag_85:\n        /* \"subastaSmartC.sol\":1239:1242  600 */\n      0x0258\n        /* \"subastaSmartC.sol\":1199:1242  uint public constant EXTENSION_WINDOW = 600 */\n      dup2\n      jump\t// out\n        /* \"subastaSmartC.sol\":1652:1673  Offer[] public offers */\n    tag_91:\n      0x06\n      dup2\n      dup2\n      sload\n      dup2\n      lt\n      tag_236\n      jumpi\n      0x00\n      dup1\n      revert\n    tag_236:\n      swap1\n      0x00\n      mstore\n      keccak256(0x00, 0x20)\n      swap1\n      0x03\n      mul\n      add\n      0x00\n      swap2\n      pop\n      swap1\n      pop\n      dup1\n      0x00\n      add\n      0x00\n      swap1\n      sload\n      swap1\n      0x0100\n      exp\n      swap1\n      div\n      0xffffffffffffffffffffffffffffffffffffffff\n      and\n      swap1\n      dup1\n      0x01\n      add\n      sload\n      swap1\n      dup1\n      0x02\n      add\n      sload\n      swap1\n      pop\n      dup4\n      jump\t// out\n        /* \"subastaSmartC.sol\":2033:2058  uint public collectedFees */\n    tag_96:\n      sload(0x09)\n      dup2\n      jump\t// out\n        /* \"subastaSmartC.sol\":545:573  address public highestBidder */\n    tag_100:\n      0x01\n      0x00\n      swap1\n      sload\n      swap1\n      0x0100\n      exp\n      swap1\n      div\n      0xffffffffffffffffffffffffffffffffffffffff\n      and\n      dup2\n      jump\t// out\n        /* \"subastaSmartC.sol\":5812:5949  function showWinner() public view onlyAfterEnd returns(address winner, uint amount) {... */\n    tag_105:\n        /* \"subastaSmartC.sol\":5867:5881  address winner */\n      0x00\n        /* \"subastaSmartC.sol\":5883:5894  uint amount */\n      0x00\n        /* \"subastaSmartC.sol\":3348:3355  endTime */\n      sload(0x04)\n        /* \"subastaSmartC.sol\":3329:3344  block.timestamp */\n      timestamp\n        /* \"subastaSmartC.sol\":3329:3355  block.timestamp >= endTime */\n      lt\n      iszero\n        /* \"subastaSmartC.sol\":3329:3364  block.timestamp >= endTime || ended */\n      dup1\n      tag_239\n      jumpi\n      pop\n        /* \"subastaSmartC.sol\":3359:3364  ended */\n      0x05\n      0x00\n      swap1\n      sload\n      swap1\n      0x0100\n      exp\n      swap1\n      div\n      0xff\n      and\n        /* \"subastaSmartC.sol\":3329:3364  block.timestamp >= endTime || ended */\n    tag_239:\n        /* \"subastaSmartC.sol\":3321:3390  require(block.timestamp >= endTime || ended, \"Auction not yet ended\") */\n      tag_240\n      jumpi\n      mload(0x40)\n      0x08c379a000000000000000000000000000000000000000000000000000000000\n      dup2\n      mstore\n      0x04\n      add\n      tag_241\n      swap1\n      tag_134\n      jump\t// in\n    tag_241:\n      mload(0x40)\n      dup1\n      swap2\n      sub\n      swap1\n      revert\n    tag_240:\n        /* \"subastaSmartC.sol\":5915:5928  highestBidder */\n      0x01\n      0x00\n      swap1\n      sload\n      swap1\n      0x0100\n      exp\n      swap1\n      div\n      0xffffffffffffffffffffffffffffffffffffffff\n      and\n        /* \"subastaSmartC.sol\":5930:5940  highestBid */\n      sload(0x02)\n        /* \"subastaSmartC.sol\":5907:5941  return (highestBidder, highestBid) */\n      swap2\n      pop\n      swap2\n      pop\n        /* \"subastaSmartC.sol\":5812:5949  function showWinner() public view onlyAfterEnd returns(address winner, uint amount) {... */\n      swap1\n      swap2\n      jump\t// out\n        /* \"subastaSmartC.sol\":6215:6301  function numOffers() public view returns(uint) {... */\n    tag_110:\n        /* \"subastaSmartC.sol\":6256:6260  uint */\n      0x00\n        /* \"subastaSmartC.sol\":6280:6286  offers */\n      0x06\n        /* \"subastaSmartC.sol\":6280:6293  offers.length */\n      dup1\n      sload\n      swap1\n      pop\n        /* \"subastaSmartC.sol\":6273:6293  return offers.length */\n      swap1\n      pop\n        /* \"subastaSmartC.sol\":6215:6301  function numOffers() public view returns(uint) {... */\n      swap1\n      jump\t// out\n        /* \"subastaSmartC.sol\":1920:1966  mapping(address => uint) public lastOfferIndex */\n    tag_116:\n      mstore(0x20, 0x08)\n      dup1\n      0x00\n      mstore\n      keccak256(0x00, 0x40)\n      0x00\n      swap2\n      pop\n      swap1\n      pop\n      sload\n      dup2\n      jump\t// out\n        /* \"subastaSmartC.sol\":618:640  uint public highestBid */\n    tag_120:\n      sload(0x02)\n      dup2\n      jump\t// out\n        /* \"subastaSmartC.sol\":1771:1811  mapping(address => uint) public deposits */\n    tag_125:\n      mstore(0x20, 0x07)\n      dup1\n      0x00\n      mstore\n      keccak256(0x00, 0x40)\n      0x00\n      swap2\n      pop\n      swap1\n      pop\n      sload\n      dup2\n      jump\t// out\n        /* \"subastaSmartC.sol\":7811:8333  function endAuction() public onlyAfterEnd nonReentrant {... */\n    tag_129:\n        /* \"subastaSmartC.sol\":3348:3355  endTime */\n      sload(0x04)\n        /* \"subastaSmartC.sol\":3329:3344  block.timestamp */\n      timestamp\n        /* \"subastaSmartC.sol\":3329:3355  block.timestamp >= endTime */\n      lt\n      iszero\n        /* \"subastaSmartC.sol\":3329:3364  block.timestamp >= endTime || ended */\n      dup1\n      tag_245\n      jumpi\n      pop\n        /* \"subastaSmartC.sol\":3359:3364  ended */\n      0x05\n      0x00\n      swap1\n      sload\n      swap1\n      0x0100\n      exp\n      swap1\n      div\n      0xff\n      and\n        /* \"subastaSmartC.sol\":3329:3364  block.timestamp >= endTime || ended */\n    tag_245:\n        /* \"subastaSmartC.sol\":3321:3390  require(block.timestamp >= endTime || ended, \"Auction not yet ended\") */\n      tag_246\n      jumpi\n      mload(0x40)\n      0x08c379a000000000000000000000000000000000000000000000000000000000\n      dup2\n      mstore\n      0x04\n      add\n      tag_247\n      swap1\n      tag_134\n      jump\t// in\n    tag_247:\n      mload(0x40)\n      dup1\n      swap2\n      sub\n      swap1\n      revert\n    tag_246:\n        /* \"subastaSmartC.sol\":2916:2922  locked */\n      0x05\n      0x01\n      swap1\n      sload\n      swap1\n      0x0100\n      exp\n      swap1\n      div\n      0xff\n      and\n        /* \"subastaSmartC.sol\":2915:2922  !locked */\n      iszero\n        /* \"subastaSmartC.sol\":2907:2943  require(!locked, \"Reentrancy guard\") */\n      tag_249\n      jumpi\n      mload(0x40)\n      0x08c379a000000000000000000000000000000000000000000000000000000000\n      dup2\n      mstore\n      0x04\n      add\n      tag_250\n      swap1\n      tag_142\n      jump\t// in\n    tag_250:\n      mload(0x40)\n      dup1\n      swap2\n      sub\n      swap1\n      revert\n    tag_249:\n        /* \"subastaSmartC.sol\":2963:2967  true */\n      0x01\n        /* \"subastaSmartC.sol\":2954:2960  locked */\n      0x05\n      0x01\n        /* \"subastaSmartC.sol\":2954:2967  locked = true */\n      0x0100\n      exp\n      dup2\n      sload\n      dup2\n      0xff\n      mul\n      not\n      and\n      swap1\n      dup4\n      iszero\n      iszero\n      mul\n      or\n      swap1\n      sstore\n      pop\n        /* \"subastaSmartC.sol\":7886:7891  ended */\n      0x05\n      0x00\n      swap1\n      sload\n      swap1\n      0x0100\n      exp\n      swap1\n      div\n      0xff\n      and\n        /* \"subastaSmartC.sol\":7885:7891  !ended */\n      iszero\n        /* \"subastaSmartC.sol\":7877:7909  require(!ended, \"Already ended\") */\n      tag_252\n      jumpi\n      mload(0x40)\n      0x08c379a000000000000000000000000000000000000000000000000000000000\n      dup2\n      mstore\n      0x04\n      add\n      tag_253\n      swap1\n      tag_254\n      jump\t// in\n    tag_253:\n      mload(0x40)\n      dup1\n      swap2\n      sub\n      swap1\n      revert\n    tag_252:\n        /* \"subastaSmartC.sol\":7928:7932  true */\n      0x01\n        /* \"subastaSmartC.sol\":7920:7925  ended */\n      0x05\n      0x00\n        /* \"subastaSmartC.sol\":7920:7932  ended = true */\n      0x0100\n      exp\n      dup2\n      sload\n      dup2\n      0xff\n      mul\n      not\n      and\n      swap1\n      dup4\n      iszero\n      iszero\n      mul\n      or\n      swap1\n      sstore\n      pop\n        /* \"subastaSmartC.sol\":7961:7974  highestBidder */\n      0x01\n      0x00\n      swap1\n      sload\n      swap1\n      0x0100\n      exp\n      swap1\n      div\n      0xffffffffffffffffffffffffffffffffffffffff\n      and\n        /* \"subastaSmartC.sol\":7948:7987  AuctionEnded(highestBidder, highestBid) */\n      0xffffffffffffffffffffffffffffffffffffffff\n      and\n      0xdaec4582d5d9595688c8c98545fdd1c696d41c6aeaeb636737e84ed2f5c00eda\n        /* \"subastaSmartC.sol\":7976:7986  highestBid */\n      sload(0x02)\n        /* \"subastaSmartC.sol\":7948:7987  AuctionEnded(highestBidder, highestBid) */\n      mload(0x40)\n      tag_255\n      swap2\n      swap1\n      tag_55\n      jump\t// in\n    tag_255:\n      mload(0x40)\n      dup1\n      swap2\n      sub\n      swap1\n      log2\n        /* \"subastaSmartC.sol\":8065:8066  0 */\n      0x00\n        /* \"subastaSmartC.sol\":8052:8062  highestBid */\n      sload(0x02)\n        /* \"subastaSmartC.sol\":8052:8066  highestBid > 0 */\n      gt\n        /* \"subastaSmartC.sol\":8048:8326  if (highestBid > 0) {... */\n      iszero\n      tag_256\n      jumpi\n        /* \"subastaSmartC.sol\":8083:8101  uint winningAmount */\n      0x00\n        /* \"subastaSmartC.sol\":8104:8112  deposits */\n      0x07\n        /* \"subastaSmartC.sol\":8104:8127  deposits[highestBidder] */\n      0x00\n        /* \"subastaSmartC.sol\":8113:8126  highestBidder */\n      0x01\n      0x00\n      swap1\n      sload\n      swap1\n      0x0100\n      exp\n      swap1\n      div\n      0xffffffffffffffffffffffffffffffffffffffff\n      and\n        /* \"subastaSmartC.sol\":8104:8127  deposits[highestBidder] */\n      0xffffffffffffffffffffffffffffffffffffffff\n      and\n      0xffffffffffffffffffffffffffffffffffffffff\n      and\n      dup2\n      mstore\n      0x20\n      add\n      swap1\n      dup2\n      mstore\n      0x20\n      add\n      0x00\n      keccak256\n      sload\n        /* \"subastaSmartC.sol\":8083:8127  uint winningAmount = deposits[highestBidder] */\n      swap1\n      pop\n        /* \"subastaSmartC.sol\":8168:8169  0 */\n      0x00\n        /* \"subastaSmartC.sol\":8142:8150  deposits */\n      0x07\n        /* \"subastaSmartC.sol\":8142:8165  deposits[highestBidder] */\n      0x00\n        /* \"subastaSmartC.sol\":8151:8164  highestBidder */\n      0x01\n      0x00\n      swap1\n      sload\n      swap1\n      0x0100\n      exp\n      swap1\n      div\n      0xffffffffffffffffffffffffffffffffffffffff\n      and\n        /* \"subastaSmartC.sol\":8142:8165  deposits[highestBidder] */\n      0xffffffffffffffffffffffffffffffffffffffff\n      and\n      0xffffffffffffffffffffffffffffffffffffffff\n      and\n      dup2\n      mstore\n      0x20\n      add\n      swap1\n      dup2\n      mstore\n      0x20\n      add\n      0x00\n      keccak256\n        /* \"subastaSmartC.sol\":8142:8169  deposits[highestBidder] = 0 */\n      dup2\n      swap1\n      sstore\n      pop\n        /* \"subastaSmartC.sol\":8199:8211  bool success */\n      0x00\n        /* \"subastaSmartC.sol\":8217:8223  seller */\n      0x00\n      0x00\n      swap1\n      sload\n      swap1\n      0x0100\n      exp\n      swap1\n      div\n      0xffffffffffffffffffffffffffffffffffffffff\n      and\n        /* \"subastaSmartC.sol\":8217:8228  seller.call */\n      0xffffffffffffffffffffffffffffffffffffffff\n      and\n        /* \"subastaSmartC.sol\":8236:8249  winningAmount */\n      dup3\n        /* \"subastaSmartC.sol\":8217:8254  seller.call{value: winningAmount}(\"\") */\n      mload(0x40)\n      tag_257\n      swap1\n      tag_156\n      jump\t// in\n    tag_257:\n      0x00\n      mload(0x40)\n      dup1\n      dup4\n      sub\n      dup2\n      dup6\n      dup8\n      gas\n      call\n      swap3\n      pop\n      pop\n      pop\n      returndatasize\n      dup1\n      0x00\n      dup2\n      eq\n      tag_260\n      jumpi\n      mload(0x40)\n      swap2\n      pop\n      and(add(returndatasize, 0x3f), not(0x1f))\n      dup3\n      add\n      0x40\n      mstore\n      returndatasize\n      dup3\n      mstore\n      returndatasize\n      0x00\n      0x20\n      dup5\n      add\n      returndatacopy\n      jump(tag_259)\n    tag_260:\n      0x60\n      swap2\n      pop\n    tag_259:\n      pop\n        /* \"subastaSmartC.sol\":8198:8254  (bool success, ) = seller.call{value: winningAmount}(\"\") */\n      pop\n      swap1\n      pop\n        /* \"subastaSmartC.sol\":8277:8284  success */\n      dup1\n        /* \"subastaSmartC.sol\":8269:8314  require(success, \"Transfer to seller failed\") */\n      tag_261\n      jumpi\n      mload(0x40)\n      0x08c379a000000000000000000000000000000000000000000000000000000000\n      dup2\n      mstore\n      0x04\n      add\n      tag_262\n      swap1\n      tag_263\n      jump\t// in\n    tag_262:\n      mload(0x40)\n      dup1\n      swap2\n      sub\n      swap1\n      revert\n    tag_261:\n        /* \"subastaSmartC.sol\":8068:8326  {... */\n      pop\n      pop\n        /* \"subastaSmartC.sol\":8048:8326  if (highestBid > 0) {... */\n    tag_256:\n        /* \"subastaSmartC.sol\":2999:3004  false */\n      0x00\n        /* \"subastaSmartC.sol\":2990:2996  locked */\n      0x05\n      0x01\n        /* \"subastaSmartC.sol\":2990:3004  locked = false */\n      0x0100\n      exp\n      dup2\n      sload\n      dup2\n      0xff\n      mul\n      not\n      and\n      swap1\n      dup4\n      iszero\n      iszero\n      mul\n      or\n      swap1\n      sstore\n      pop\n        /* \"subastaSmartC.sol\":7811:8333  function endAuction() public onlyAfterEnd nonReentrant {... */\n      jump\t// out\n        /* \"#utility.yul\":7:176   */\n    tag_264:\n        /* \"#utility.yul\":91:102   */\n      0x00\n        /* \"#utility.yul\":125:131   */\n      dup3\n        /* \"#utility.yul\":120:123   */\n      dup3\n        /* \"#utility.yul\":113:132   */\n      mstore\n        /* \"#utility.yul\":165:169   */\n      0x20\n        /* \"#utility.yul\":160:163   */\n      dup3\n        /* \"#utility.yul\":156:170   */\n      add\n        /* \"#utility.yul\":141:170   */\n      swap1\n      pop\n        /* \"#utility.yul\":7:176   */\n      swap3\n      swap2\n      pop\n      pop\n      jump\t// out\n        /* \"#utility.yul\":182:414   */\n    tag_265:\n        /* \"#utility.yul\":322:356   */\n      0x506c6561736520757365207468652062696428292066756e6374696f6e20746f\n        /* \"#utility.yul\":318:319   */\n      0x00\n        /* \"#utility.yul\":310:316   */\n      dup3\n        /* \"#utility.yul\":306:320   */\n      add\n        /* \"#utility.yul\":299:357   */\n      mstore\n        /* \"#utility.yul\":391:406   */\n      0x2070617274696369706174652e00000000000000000000000000000000000000\n        /* \"#utility.yul\":386:388   */\n      0x20\n        /* \"#utility.yul\":378:384   */\n      dup3\n        /* \"#utility.yul\":374:389   */\n      add\n        /* \"#utility.yul\":367:407   */\n      mstore\n        /* \"#utility.yul\":182:414   */\n      pop\n      jump\t// out\n        /* \"#utility.yul\":420:786   */\n    tag_266:\n        /* \"#utility.yul\":562:565   */\n      0x00\n        /* \"#utility.yul\":583:650   */\n      tag_333\n        /* \"#utility.yul\":647:649   */\n      0x2d\n        /* \"#utility.yul\":642:645   */\n      dup4\n        /* \"#utility.yul\":583:650   */\n      tag_264\n      jump\t// in\n    tag_333:\n        /* \"#utility.yul\":576:650   */\n      swap2\n      pop\n        /* \"#utility.yul\":659:752   */\n      tag_334\n        /* \"#utility.yul\":748:751   */\n      dup3\n        /* \"#utility.yul\":659:752   */\n      tag_265\n      jump\t// in\n    tag_334:\n        /* \"#utility.yul\":777:779   */\n      0x40\n        /* \"#utility.yul\":772:775   */\n      dup3\n        /* \"#utility.yul\":768:780   */\n      add\n        /* \"#utility.yul\":761:780   */\n      swap1\n      pop\n        /* \"#utility.yul\":420:786   */\n      swap2\n      swap1\n      pop\n      jump\t// out\n        /* \"#utility.yul\":792:1211   */\n    tag_31:\n        /* \"#utility.yul\":958:962   */\n      0x00\n        /* \"#utility.yul\":996:998   */\n      0x20\n        /* \"#utility.yul\":985:994   */\n      dup3\n        /* \"#utility.yul\":981:999   */\n      add\n        /* \"#utility.yul\":973:999   */\n      swap1\n      pop\n        /* \"#utility.yul\":1045:1054   */\n      dup2\n        /* \"#utility.yul\":1039:1043   */\n      dup2\n        /* \"#utility.yul\":1035:1055   */\n      sub\n        /* \"#utility.yul\":1031:1032   */\n      0x00\n        /* \"#utility.yul\":1020:1029   */\n      dup4\n        /* \"#utility.yul\":1016:1033   */\n      add\n        /* \"#utility.yul\":1009:1056   */\n      mstore\n        /* \"#utility.yul\":1073:1204   */\n      tag_336\n        /* \"#utility.yul\":1199:1203   */\n      dup2\n        /* \"#utility.yul\":1073:1204   */\n      tag_266\n      jump\t// in\n    tag_336:\n        /* \"#utility.yul\":1065:1204   */\n      swap1\n      pop\n        /* \"#utility.yul\":792:1211   */\n      swap2\n      swap1\n      pop\n      jump\t// out\n        /* \"#utility.yul\":1217:1443   */\n    tag_267:\n        /* \"#utility.yul\":1357:1391   */\n      0x496e76616c69642063616c6c2e205573652074686520636f7272656374206675\n        /* \"#utility.yul\":1353:1354   */\n      0x00\n        /* \"#utility.yul\":1345:1351   */\n      dup3\n        /* \"#utility.yul\":1341:1355   */\n      add\n        /* \"#utility.yul\":1334:1392   */\n      mstore\n        /* \"#utility.yul\":1426:1435   */\n      0x6e6374696f6e2e00000000000000000000000000000000000000000000000000\n        /* \"#utility.yul\":1421:1423   */\n      0x20\n        /* \"#utility.yul\":1413:1419   */\n      dup3\n        /* \"#utility.yul\":1409:1424   */\n      add\n        /* \"#utility.yul\":1402:1436   */\n      mstore\n        /* \"#utility.yul\":1217:1443   */\n      pop\n      jump\t// out\n        /* \"#utility.yul\":1449:1815   */\n    tag_268:\n        /* \"#utility.yul\":1591:1594   */\n      0x00\n        /* \"#utility.yul\":1612:1679   */\n      tag_339\n        /* \"#utility.yul\":1676:1678   */\n      0x27\n        /* \"#utility.yul\":1671:1674   */\n      dup4\n        /* \"#utility.yul\":1612:1679   */\n      tag_264\n      jump\t// in\n    tag_339:\n        /* \"#utility.yul\":1605:1679   */\n      swap2\n      pop\n        /* \"#utility.yul\":1688:1781   */\n      tag_340\n        /* \"#utility.yul\":1777:1780   */\n      dup3\n        /* \"#utility.yul\":1688:1781   */\n      tag_267\n      jump\t// in\n    tag_340:\n        /* \"#utility.yul\":1806:1808   */\n      0x40\n        /* \"#utility.yul\":1801:1804   */\n      dup3\n        /* \"#utility.yul\":1797:1809   */\n      add\n        /* \"#utility.yul\":1790:1809   */\n      swap1\n      pop\n        /* \"#utility.yul\":1449:1815   */\n      swap2\n      swap1\n      pop\n      jump\t// out\n        /* \"#utility.yul\":1821:2240   */\n    tag_35:\n        /* \"#utility.yul\":1987:1991   */\n      0x00\n        /* \"#utility.yul\":2025:2027   */\n      0x20\n        /* \"#utility.yul\":2014:2023   */\n      dup3\n        /* \"#utility.yul\":2010:2028   */\n      add\n        /* \"#utility.yul\":2002:2028   */\n      swap1\n      pop\n        /* \"#utility.yul\":2074:2083   */\n      dup2\n        /* \"#utility.yul\":2068:2072   */\n      dup2\n        /* \"#utility.yul\":2064:2084   */\n      sub\n        /* \"#utility.yul\":2060:2061   */\n      0x00\n        /* \"#utility.yul\":2049:2058   */\n      dup4\n        /* \"#utility.yul\":2045:2062   */\n      add\n        /* \"#utility.yul\":2038:2085   */\n      mstore\n        /* \"#utility.yul\":2102:2233   */\n      tag_342\n        /* \"#utility.yul\":2228:2232   */\n      dup2\n        /* \"#utility.yul\":2102:2233   */\n      tag_268\n      jump\t// in\n    tag_342:\n        /* \"#utility.yul\":2094:2233   */\n      swap1\n      pop\n        /* \"#utility.yul\":1821:2240   */\n      swap2\n      swap1\n      pop\n      jump\t// out\n        /* \"#utility.yul\":2246:2372   */\n    tag_269:\n        /* \"#utility.yul\":2283:2290   */\n      0x00\n        /* \"#utility.yul\":2323:2365   */\n      0xffffffffffffffffffffffffffffffffffffffff\n        /* \"#utility.yul\":2316:2321   */\n      dup3\n        /* \"#utility.yul\":2312:2366   */\n      and\n        /* \"#utility.yul\":2301:2366   */\n      swap1\n      pop\n        /* \"#utility.yul\":2246:2372   */\n      swap2\n      swap1\n      pop\n      jump\t// out\n        /* \"#utility.yul\":2378:2482   */\n    tag_270:\n        /* \"#utility.yul\":2423:2430   */\n      0x00\n        /* \"#utility.yul\":2452:2476   */\n      tag_345\n        /* \"#utility.yul\":2470:2475   */\n      dup3\n        /* \"#utility.yul\":2452:2476   */\n      tag_269\n      jump\t// in\n    tag_345:\n        /* \"#utility.yul\":2441:2476   */\n      swap1\n      pop\n        /* \"#utility.yul\":2378:2482   */\n      swap2\n      swap1\n      pop\n      jump\t// out\n        /* \"#utility.yul\":2488:2630   */\n    tag_271:\n        /* \"#utility.yul\":2591:2623   */\n      tag_347\n        /* \"#utility.yul\":2617:2622   */\n      dup2\n        /* \"#utility.yul\":2591:2623   */\n      tag_270\n      jump\t// in\n    tag_347:\n        /* \"#utility.yul\":2586:2589   */\n      dup3\n        /* \"#utility.yul\":2579:2624   */\n      mstore\n        /* \"#utility.yul\":2488:2630   */\n      pop\n      pop\n      jump\t// out\n        /* \"#utility.yul\":2636:2890   */\n    tag_40:\n        /* \"#utility.yul\":2745:2749   */\n      0x00\n        /* \"#utility.yul\":2783:2785   */\n      0x20\n        /* \"#utility.yul\":2772:2781   */\n      dup3\n        /* \"#utility.yul\":2768:2786   */\n      add\n        /* \"#utility.yul\":2760:2786   */\n      swap1\n      pop\n        /* \"#utility.yul\":2796:2883   */\n      tag_349\n        /* \"#utility.yul\":2880:2881   */\n      0x00\n        /* \"#utility.yul\":2869:2878   */\n      dup4\n        /* \"#utility.yul\":2865:2882   */\n      add\n        /* \"#utility.yul\":2856:2862   */\n      dup5\n        /* \"#utility.yul\":2796:2883   */\n      tag_271\n      jump\t// in\n    tag_349:\n        /* \"#utility.yul\":2636:2890   */\n      swap3\n      swap2\n      pop\n      pop\n      jump\t// out\n        /* \"#utility.yul\":2896:2986   */\n    tag_272:\n        /* \"#utility.yul\":2930:2937   */\n      0x00\n        /* \"#utility.yul\":2973:2978   */\n      dup2\n        /* \"#utility.yul\":2966:2979   */\n      iszero\n        /* \"#utility.yul\":2959:2980   */\n      iszero\n        /* \"#utility.yul\":2948:2980   */\n      swap1\n      pop\n        /* \"#utility.yul\":2896:2986   */\n      swap2\n      swap1\n      pop\n      jump\t// out\n        /* \"#utility.yul\":2992:3101   */\n    tag_273:\n        /* \"#utility.yul\":3073:3094   */\n      tag_352\n        /* \"#utility.yul\":3088:3093   */\n      dup2\n        /* \"#utility.yul\":3073:3094   */\n      tag_272\n      jump\t// in\n    tag_352:\n        /* \"#utility.yul\":3068:3071   */\n      dup3\n        /* \"#utility.yul\":3061:3095   */\n      mstore\n        /* \"#utility.yul\":2992:3101   */\n      pop\n      pop\n      jump\t// out\n        /* \"#utility.yul\":3107:3317   */\n    tag_48:\n        /* \"#utility.yul\":3194:3198   */\n      0x00\n        /* \"#utility.yul\":3232:3234   */\n      0x20\n        /* \"#utility.yul\":3221:3230   */\n      dup3\n        /* \"#utility.yul\":3217:3235   */\n      add\n        /* \"#utility.yul\":3209:3235   */\n      swap1\n      pop\n        /* \"#utility.yul\":3245:3310   */\n      tag_354\n        /* \"#utility.yul\":3307:3308   */\n      0x00\n        /* \"#utility.yul\":3296:3305   */\n      dup4\n        /* \"#utility.yul\":3292:3309   */\n      add\n        /* \"#utility.yul\":3283:3289   */\n      dup5\n        /* \"#utility.yul\":3245:3310   */\n      tag_273\n      jump\t// in\n    tag_354:\n        /* \"#utility.yul\":3107:3317   */\n      swap3\n      swap2\n      pop\n      pop\n      jump\t// out\n        /* \"#utility.yul\":3323:3400   */\n    tag_274:\n        /* \"#utility.yul\":3360:3367   */\n      0x00\n        /* \"#utility.yul\":3389:3394   */\n      dup2\n        /* \"#utility.yul\":3378:3394   */\n      swap1\n      pop\n        /* \"#utility.yul\":3323:3400   */\n      swap2\n      swap1\n      pop\n      jump\t// out\n        /* \"#utility.yul\":3406:3524   */\n    tag_275:\n        /* \"#utility.yul\":3493:3517   */\n      tag_357\n        /* \"#utility.yul\":3511:3516   */\n      dup2\n        /* \"#utility.yul\":3493:3517   */\n      tag_274\n      jump\t// in\n    tag_357:\n        /* \"#utility.yul\":3488:3491   */\n      dup3\n        /* \"#utility.yul\":3481:3518   */\n      mstore\n        /* \"#utility.yul\":3406:3524   */\n      pop\n      pop\n      jump\t// out\n        /* \"#utility.yul\":3530:3752   */\n    tag_55:\n        /* \"#utility.yul\":3623:3627   */\n      0x00\n        /* \"#utility.yul\":3661:3663   */\n      0x20\n        /* \"#utility.yul\":3650:3659   */\n      dup3\n        /* \"#utility.yul\":3646:3664   */\n      add\n        /* \"#utility.yul\":3638:3664   */\n      swap1\n      pop\n        /* \"#utility.yul\":3674:3745   */\n      tag_359\n        /* \"#utility.yul\":3742:3743   */\n      0x00\n        /* \"#utility.yul\":3731:3740   */\n      dup4\n        /* \"#utility.yul\":3727:3744   */\n      add\n        /* \"#utility.yul\":3718:3724   */\n      dup5\n        /* \"#utility.yul\":3674:3745   */\n      tag_275\n      jump\t// in\n    tag_359:\n        /* \"#utility.yul\":3530:3752   */\n      swap3\n      swap2\n      pop\n      pop\n      jump\t// out\n        /* \"#utility.yul\":3758:3893   */\n    tag_276:\n        /* \"#utility.yul\":3846:3852   */\n      0x00\n        /* \"#utility.yul\":3880:3885   */\n      dup2\n        /* \"#utility.yul\":3874:3886   */\n      mload\n        /* \"#utility.yul\":3864:3886   */\n      swap1\n      pop\n        /* \"#utility.yul\":3758:3893   */\n      swap2\n      swap1\n      pop\n      jump\t// out\n        /* \"#utility.yul\":3899:4104   */\n    tag_277:\n        /* \"#utility.yul\":4019:4030   */\n      0x00\n        /* \"#utility.yul\":4053:4059   */\n      dup3\n        /* \"#utility.yul\":4048:4051   */\n      dup3\n        /* \"#utility.yul\":4041:4060   */\n      mstore\n        /* \"#utility.yul\":4093:4097   */\n      0x20\n        /* \"#utility.yul\":4088:4091   */\n      dup3\n        /* \"#utility.yul\":4084:4098   */\n      add\n        /* \"#utility.yul\":4069:4098   */\n      swap1\n      pop\n        /* \"#utility.yul\":3899:4104   */\n      swap3\n      swap2\n      pop\n      pop\n      jump\t// out\n        /* \"#utility.yul\":4110:4263   */\n    tag_278:\n        /* \"#utility.yul\":4198:4202   */\n      0x00\n        /* \"#utility.yul\":4221:4224   */\n      dup2\n        /* \"#utility.yul\":4213:4224   */\n      swap1\n      pop\n        /* \"#utility.yul\":4251:4255   */\n      0x20\n        /* \"#utility.yul\":4246:4249   */\n      dup3\n        /* \"#utility.yul\":4242:4256   */\n      add\n        /* \"#utility.yul\":4234:4256   */\n      swap1\n      pop\n        /* \"#utility.yul\":4110:4263   */\n      swap2\n      swap1\n      pop\n      jump\t// out\n        /* \"#utility.yul\":4269:4365   */\n    tag_279:\n        /* \"#utility.yul\":4306:4313   */\n      0x00\n        /* \"#utility.yul\":4335:4359   */\n      tag_364\n        /* \"#utility.yul\":4353:4358   */\n      dup3\n        /* \"#utility.yul\":4335:4359   */\n      tag_269\n      jump\t// in\n    tag_364:\n        /* \"#utility.yul\":4324:4359   */\n      swap1\n      pop\n        /* \"#utility.yul\":4269:4365   */\n      swap2\n      swap1\n      pop\n      jump\t// out\n        /* \"#utility.yul\":4371:4479   */\n    tag_280:\n        /* \"#utility.yul\":4448:4472   */\n      tag_366\n        /* \"#utility.yul\":4466:4471   */\n      dup2\n        /* \"#utility.yul\":4448:4472   */\n      tag_279\n      jump\t// in\n    tag_366:\n        /* \"#utility.yul\":4443:4446   */\n      dup3\n        /* \"#utility.yul\":4436:4473   */\n      mstore\n        /* \"#utility.yul\":4371:4479   */\n      pop\n      pop\n      jump\t// out\n        /* \"#utility.yul\":4485:4593   */\n    tag_281:\n        /* \"#utility.yul\":4562:4586   */\n      tag_368\n        /* \"#utility.yul\":4580:4585   */\n      dup2\n        /* \"#utility.yul\":4562:4586   */\n      tag_274\n      jump\t// in\n    tag_368:\n        /* \"#utility.yul\":4557:4560   */\n      dup3\n        /* \"#utility.yul\":4550:4587   */\n      mstore\n        /* \"#utility.yul\":4485:4593   */\n      pop\n      pop\n      jump\t// out\n        /* \"#utility.yul\":4667:5339   */\n    tag_282:\n        /* \"#utility.yul\":4796:4800   */\n      0x60\n        /* \"#utility.yul\":4791:4794   */\n      dup3\n        /* \"#utility.yul\":4787:4801   */\n      add\n        /* \"#utility.yul\":4885:4889   */\n      0x00\n        /* \"#utility.yul\":4878:4883   */\n      dup3\n        /* \"#utility.yul\":4874:4890   */\n      add\n        /* \"#utility.yul\":4868:4891   */\n      mload\n        /* \"#utility.yul\":4904:4967   */\n      tag_370\n        /* \"#utility.yul\":4961:4965   */\n      0x00\n        /* \"#utility.yul\":4956:4959   */\n      dup6\n        /* \"#utility.yul\":4952:4966   */\n      add\n        /* \"#utility.yul\":4938:4950   */\n      dup3\n        /* \"#utility.yul\":4904:4967   */\n      tag_280\n      jump\t// in\n    tag_370:\n        /* \"#utility.yul\":4811:4977   */\n      pop\n        /* \"#utility.yul\":5061:5065   */\n      0x20\n        /* \"#utility.yul\":5054:5059   */\n      dup3\n        /* \"#utility.yul\":5050:5066   */\n      add\n        /* \"#utility.yul\":5044:5067   */\n      mload\n        /* \"#utility.yul\":5080:5143   */\n      tag_371\n        /* \"#utility.yul\":5137:5141   */\n      0x20\n        /* \"#utility.yul\":5132:5135   */\n      dup6\n        /* \"#utility.yul\":5128:5142   */\n      add\n        /* \"#utility.yul\":5114:5126   */\n      dup3\n        /* \"#utility.yul\":5080:5143   */\n      tag_281\n      jump\t// in\n    tag_371:\n        /* \"#utility.yul\":4987:5153   */\n      pop\n        /* \"#utility.yul\":5240:5244   */\n      0x40\n        /* \"#utility.yul\":5233:5238   */\n      dup3\n        /* \"#utility.yul\":5229:5245   */\n      add\n        /* \"#utility.yul\":5223:5246   */\n      mload\n        /* \"#utility.yul\":5259:5322   */\n      tag_372\n        /* \"#utility.yul\":5316:5320   */\n      0x40\n        /* \"#utility.yul\":5311:5314   */\n      dup6\n        /* \"#utility.yul\":5307:5321   */\n      add\n        /* \"#utility.yul\":5293:5305   */\n      dup3\n        /* \"#utility.yul\":5259:5322   */\n      tag_281\n      jump\t// in\n    tag_372:\n        /* \"#utility.yul\":5163:5332   */\n      pop\n        /* \"#utility.yul\":4765:5339   */\n      pop\n        /* \"#utility.yul\":4667:5339   */\n      pop\n      pop\n      jump\t// out\n        /* \"#utility.yul\":5345:5608   */\n    tag_283:\n        /* \"#utility.yul\":5456:5466   */\n      0x00\n        /* \"#utility.yul\":5477:5565   */\n      tag_374\n        /* \"#utility.yul\":5561:5564   */\n      dup4\n        /* \"#utility.yul\":5553:5559   */\n      dup4\n        /* \"#utility.yul\":5477:5565   */\n      tag_282\n      jump\t// in\n    tag_374:\n        /* \"#utility.yul\":5597:5601   */\n      0x60\n        /* \"#utility.yul\":5592:5595   */\n      dup4\n        /* \"#utility.yul\":5588:5602   */\n      add\n        /* \"#utility.yul\":5574:5602   */\n      swap1\n      pop\n        /* \"#utility.yul\":5345:5608   */\n      swap3\n      swap2\n      pop\n      pop\n      jump\t// out\n        /* \"#utility.yul\":5614:5748   */\n    tag_284:\n        /* \"#utility.yul\":5705:5709   */\n      0x00\n        /* \"#utility.yul\":5737:5741   */\n      0x20\n        /* \"#utility.yul\":5732:5735   */\n      dup3\n        /* \"#utility.yul\":5728:5742   */\n      add\n        /* \"#utility.yul\":5720:5742   */\n      swap1\n      pop\n        /* \"#utility.yul\":5614:5748   */\n      swap2\n      swap1\n      pop\n      jump\t// out\n        /* \"#utility.yul\":5826:6726   */\n    tag_285:\n        /* \"#utility.yul\":5987:5990   */\n      0x00\n        /* \"#utility.yul\":6016:6091   */\n      tag_377\n        /* \"#utility.yul\":6085:6090   */\n      dup3\n        /* \"#utility.yul\":6016:6091   */\n      tag_276\n      jump\t// in\n    tag_377:\n        /* \"#utility.yul\":6107:6214   */\n      tag_378\n        /* \"#utility.yul\":6207:6213   */\n      dup2\n        /* \"#utility.yul\":6202:6205   */\n      dup6\n        /* \"#utility.yul\":6107:6214   */\n      tag_277\n      jump\t// in\n    tag_378:\n        /* \"#utility.yul\":6100:6214   */\n      swap4\n      pop\n        /* \"#utility.yul\":6238:6315   */\n      tag_379\n        /* \"#utility.yul\":6309:6314   */\n      dup4\n        /* \"#utility.yul\":6238:6315   */\n      tag_278\n      jump\t// in\n    tag_379:\n        /* \"#utility.yul\":6338:6345   */\n      dup1\n        /* \"#utility.yul\":6369:6370   */\n      0x00\n        /* \"#utility.yul\":6354:6701   */\n    tag_380:\n        /* \"#utility.yul\":6379:6385   */\n      dup4\n        /* \"#utility.yul\":6376:6377   */\n      dup2\n        /* \"#utility.yul\":6373:6386   */\n      lt\n        /* \"#utility.yul\":6354:6701   */\n      iszero\n      tag_382\n      jumpi\n        /* \"#utility.yul\":6455:6461   */\n      dup2\n        /* \"#utility.yul\":6449:6462   */\n      mload\n        /* \"#utility.yul\":6482:6587   */\n      tag_383\n        /* \"#utility.yul\":6583:6586   */\n      dup9\n        /* \"#utility.yul\":6568:6581   */\n      dup3\n        /* \"#utility.yul\":6482:6587   */\n      tag_283\n      jump\t// in\n    tag_383:\n        /* \"#utility.yul\":6475:6587   */\n      swap8\n      pop\n        /* \"#utility.yul\":6610:6691   */\n      tag_384\n        /* \"#utility.yul\":6684:6690   */\n      dup4\n        /* \"#utility.yul\":6610:6691   */\n      tag_284\n      jump\t// in\n    tag_384:\n        /* \"#utility.yul\":6600:6691   */\n      swap3\n      pop\n        /* \"#utility.yul\":6414:6701   */\n      pop\n        /* \"#utility.yul\":6401:6402   */\n      0x01\n        /* \"#utility.yul\":6398:6399   */\n      dup2\n        /* \"#utility.yul\":6394:6403   */\n      add\n        /* \"#utility.yul\":6389:6403   */\n      swap1\n      pop\n        /* \"#utility.yul\":6354:6701   */\n      jump(tag_380)\n    tag_382:\n        /* \"#utility.yul\":6358:6372   */\n      pop\n        /* \"#utility.yul\":6717:6720   */\n      dup6\n        /* \"#utility.yul\":6710:6720   */\n      swap4\n      pop\n        /* \"#utility.yul\":5992:6726   */\n      pop\n      pop\n      pop\n        /* \"#utility.yul\":5826:6726   */\n      swap3\n      swap2\n      pop\n      pop\n      jump\t// out\n        /* \"#utility.yul\":6732:7189   */\n    tag_70:\n        /* \"#utility.yul\":6917:6921   */\n      0x00\n        /* \"#utility.yul\":6955:6957   */\n      0x20\n        /* \"#utility.yul\":6944:6953   */\n      dup3\n        /* \"#utility.yul\":6940:6958   */\n      add\n        /* \"#utility.yul\":6932:6958   */\n      swap1\n      pop\n        /* \"#utility.yul\":7004:7013   */\n      dup2\n        /* \"#utility.yul\":6998:7002   */\n      dup2\n        /* \"#utility.yul\":6994:7014   */\n      sub\n        /* \"#utility.yul\":6990:6991   */\n      0x00\n        /* \"#utility.yul\":6979:6988   */\n      dup4\n        /* \"#utility.yul\":6975:6992   */\n      add\n        /* \"#utility.yul\":6968:7015   */\n      mstore\n        /* \"#utility.yul\":7032:7182   */\n      tag_386\n        /* \"#utility.yul\":7177:7181   */\n      dup2\n        /* \"#utility.yul\":7168:7174   */\n      dup5\n        /* \"#utility.yul\":7032:7182   */\n      tag_285\n      jump\t// in\n    tag_386:\n        /* \"#utility.yul\":7024:7182   */\n      swap1\n      pop\n        /* \"#utility.yul\":6732:7189   */\n      swap3\n      swap2\n      pop\n      pop\n      jump\t// out\n        /* \"#utility.yul\":7276:7393   */\n    tag_287:\n        /* \"#utility.yul\":7385:7386   */\n      0x00\n        /* \"#utility.yul\":7382:7383   */\n      0x00\n        /* \"#utility.yul\":7375:7387   */\n      revert\n        /* \"#utility.yul\":7522:7644   */\n    tag_289:\n        /* \"#utility.yul\":7595:7619   */\n      tag_391\n        /* \"#utility.yul\":7613:7618   */\n      dup2\n        /* \"#utility.yul\":7595:7619   */\n      tag_274\n      jump\t// in\n    tag_391:\n        /* \"#utility.yul\":7588:7593   */\n      dup2\n        /* \"#utility.yul\":7585:7620   */\n      eq\n        /* \"#utility.yul\":7575:7638   */\n      tag_392\n      jumpi\n        /* \"#utility.yul\":7634:7635   */\n      0x00\n        /* \"#utility.yul\":7631:7632   */\n      0x00\n        /* \"#utility.yul\":7624:7636   */\n      revert\n        /* \"#utility.yul\":7575:7638   */\n    tag_392:\n        /* \"#utility.yul\":7522:7644   */\n      pop\n      jump\t// out\n        /* \"#utility.yul\":7650:7789   */\n    tag_290:\n        /* \"#utility.yul\":7696:7701   */\n      0x00\n        /* \"#utility.yul\":7734:7740   */\n      dup2\n        /* \"#utility.yul\":7721:7741   */\n      calldataload\n        /* \"#utility.yul\":7712:7741   */\n      swap1\n      pop\n        /* \"#utility.yul\":7750:7783   */\n      tag_394\n        /* \"#utility.yul\":7777:7782   */\n      dup2\n        /* \"#utility.yul\":7750:7783   */\n      tag_289\n      jump\t// in\n    tag_394:\n        /* \"#utility.yul\":7650:7789   */\n      swap3\n      swap2\n      pop\n      pop\n      jump\t// out\n        /* \"#utility.yul\":7795:8124   */\n    tag_90:\n        /* \"#utility.yul\":7854:7860   */\n      0x00\n        /* \"#utility.yul\":7903:7905   */\n      0x20\n        /* \"#utility.yul\":7891:7900   */\n      dup3\n        /* \"#utility.yul\":7882:7889   */\n      dup5\n        /* \"#utility.yul\":7878:7901   */\n      sub\n        /* \"#utility.yul\":7874:7906   */\n      slt\n        /* \"#utility.yul\":7871:7990   */\n      iszero\n      tag_396\n      jumpi\n        /* \"#utility.yul\":7909:7988   */\n      tag_397\n      tag_287\n      jump\t// in\n    tag_397:\n        /* \"#utility.yul\":7871:7990   */\n    tag_396:\n        /* \"#utility.yul\":8029:8030   */\n      0x00\n        /* \"#utility.yul\":8054:8107   */\n      tag_398\n        /* \"#utility.yul\":8099:8106   */\n      dup5\n        /* \"#utility.yul\":8090:8096   */\n      dup3\n        /* \"#utility.yul\":8079:8088   */\n      dup6\n        /* \"#utility.yul\":8075:8097   */\n      add\n        /* \"#utility.yul\":8054:8107   */\n      tag_290\n      jump\t// in\n    tag_398:\n        /* \"#utility.yul\":8044:8107   */\n      swap2\n      pop\n        /* \"#utility.yul\":8000:8117   */\n      pop\n        /* \"#utility.yul\":7795:8124   */\n      swap3\n      swap2\n      pop\n      pop\n      jump\t// out\n        /* \"#utility.yul\":8130:8248   */\n    tag_291:\n        /* \"#utility.yul\":8217:8241   */\n      tag_400\n        /* \"#utility.yul\":8235:8240   */\n      dup2\n        /* \"#utility.yul\":8217:8241   */\n      tag_279\n      jump\t// in\n    tag_400:\n        /* \"#utility.yul\":8212:8215   */\n      dup3\n        /* \"#utility.yul\":8205:8242   */\n      mstore\n        /* \"#utility.yul\":8130:8248   */\n      pop\n      pop\n      jump\t// out\n        /* \"#utility.yul\":8254:8696   */\n    tag_93:\n        /* \"#utility.yul\":8403:8407   */\n      0x00\n        /* \"#utility.yul\":8441:8443   */\n      0x60\n        /* \"#utility.yul\":8430:8439   */\n      dup3\n        /* \"#utility.yul\":8426:8444   */\n      add\n        /* \"#utility.yul\":8418:8444   */\n      swap1\n      pop\n        /* \"#utility.yul\":8454:8525   */\n      tag_402\n        /* \"#utility.yul\":8522:8523   */\n      0x00\n        /* \"#utility.yul\":8511:8520   */\n      dup4\n        /* \"#utility.yul\":8507:8524   */\n      add\n        /* \"#utility.yul\":8498:8504   */\n      dup7\n        /* \"#utility.yul\":8454:8525   */\n      tag_291\n      jump\t// in\n    tag_402:\n        /* \"#utility.yul\":8535:8607   */\n      tag_403\n        /* \"#utility.yul\":8603:8605   */\n      0x20\n        /* \"#utility.yul\":8592:8601   */\n      dup4\n        /* \"#utility.yul\":8588:8606   */\n      add\n        /* \"#utility.yul\":8579:8585   */\n      dup6\n        /* \"#utility.yul\":8535:8607   */\n      tag_275\n      jump\t// in\n    tag_403:\n        /* \"#utility.yul\":8617:8689   */\n      tag_404\n        /* \"#utility.yul\":8685:8687   */\n      0x40\n        /* \"#utility.yul\":8674:8683   */\n      dup4\n        /* \"#utility.yul\":8670:8688   */\n      add\n        /* \"#utility.yul\":8661:8667   */\n      dup5\n        /* \"#utility.yul\":8617:8689   */\n      tag_275\n      jump\t// in\n    tag_404:\n        /* \"#utility.yul\":8254:8696   */\n      swap5\n      swap4\n      pop\n      pop\n      pop\n      pop\n      jump\t// out\n        /* \"#utility.yul\":8702:8924   */\n    tag_102:\n        /* \"#utility.yul\":8795:8799   */\n      0x00\n        /* \"#utility.yul\":8833:8835   */\n      0x20\n        /* \"#utility.yul\":8822:8831   */\n      dup3\n        /* \"#utility.yul\":8818:8836   */\n      add\n        /* \"#utility.yul\":8810:8836   */\n      swap1\n      pop\n        /* \"#utility.yul\":8846:8917   */\n      tag_406\n        /* \"#utility.yul\":8914:8915   */\n      0x00\n        /* \"#utility.yul\":8903:8912   */\n      dup4\n        /* \"#utility.yul\":8899:8916   */\n      add\n        /* \"#utility.yul\":8890:8896   */\n      dup5\n        /* \"#utility.yul\":8846:8917   */\n      tag_291\n      jump\t// in\n    tag_406:\n        /* \"#utility.yul\":8702:8924   */\n      swap3\n      swap2\n      pop\n      pop\n      jump\t// out\n        /* \"#utility.yul\":8930:9262   */\n    tag_107:\n        /* \"#utility.yul\":9051:9055   */\n      0x00\n        /* \"#utility.yul\":9089:9091   */\n      0x40\n        /* \"#utility.yul\":9078:9087   */\n      dup3\n        /* \"#utility.yul\":9074:9092   */\n      add\n        /* \"#utility.yul\":9066:9092   */\n      swap1\n      pop\n        /* \"#utility.yul\":9102:9173   */\n      tag_408\n        /* \"#utility.yul\":9170:9171   */\n      0x00\n        /* \"#utility.yul\":9159:9168   */\n      dup4\n        /* \"#utility.yul\":9155:9172   */\n      add\n        /* \"#utility.yul\":9146:9152   */\n      dup6\n        /* \"#utility.yul\":9102:9173   */\n      tag_291\n      jump\t// in\n    tag_408:\n        /* \"#utility.yul\":9183:9255   */\n      tag_409\n        /* \"#utility.yul\":9251:9253   */\n      0x20\n        /* \"#utility.yul\":9240:9249   */\n      dup4\n        /* \"#utility.yul\":9236:9254   */\n      add\n        /* \"#utility.yul\":9227:9233   */\n      dup5\n        /* \"#utility.yul\":9183:9255   */\n      tag_275\n      jump\t// in\n    tag_409:\n        /* \"#utility.yul\":8930:9262   */\n      swap4\n      swap3\n      pop\n      pop\n      pop\n      jump\t// out\n        /* \"#utility.yul\":9268:9390   */\n    tag_292:\n        /* \"#utility.yul\":9341:9365   */\n      tag_411\n        /* \"#utility.yul\":9359:9364   */\n      dup2\n        /* \"#utility.yul\":9341:9365   */\n      tag_279\n      jump\t// in\n    tag_411:\n        /* \"#utility.yul\":9334:9339   */\n      dup2\n        /* \"#utility.yul\":9331:9366   */\n      eq\n        /* \"#utility.yul\":9321:9384   */\n      tag_412\n      jumpi\n        /* \"#utility.yul\":9380:9381   */\n      0x00\n        /* \"#utility.yul\":9377:9378   */\n      0x00\n        /* \"#utility.yul\":9370:9382   */\n      revert\n        /* \"#utility.yul\":9321:9384   */\n    tag_412:\n        /* \"#utility.yul\":9268:9390   */\n      pop\n      jump\t// out\n        /* \"#utility.yul\":9396:9535   */\n    tag_293:\n        /* \"#utility.yul\":9442:9447   */\n      0x00\n        /* \"#utility.yul\":9480:9486   */\n      dup2\n        /* \"#utility.yul\":9467:9487   */\n      calldataload\n        /* \"#utility.yul\":9458:9487   */\n      swap1\n      pop\n        /* \"#utility.yul\":9496:9529   */\n      tag_414\n        /* \"#utility.yul\":9523:9528   */\n      dup2\n        /* \"#utility.yul\":9496:9529   */\n      tag_292\n      jump\t// in\n    tag_414:\n        /* \"#utility.yul\":9396:9535   */\n      swap3\n      swap2\n      pop\n      pop\n      jump\t// out\n        /* \"#utility.yul\":9541:9870   */\n    tag_115:\n        /* \"#utility.yul\":9600:9606   */\n      0x00\n        /* \"#utility.yul\":9649:9651   */\n      0x20\n        /* \"#utility.yul\":9637:9646   */\n      dup3\n        /* \"#utility.yul\":9628:9635   */\n      dup5\n        /* \"#utility.yul\":9624:9647   */\n      sub\n        /* \"#utility.yul\":9620:9652   */\n      slt\n        /* \"#utility.yul\":9617:9736   */\n      iszero\n      tag_416\n      jumpi\n        /* \"#utility.yul\":9655:9734   */\n      tag_417\n      tag_287\n      jump\t// in\n    tag_417:\n        /* \"#utility.yul\":9617:9736   */\n    tag_416:\n        /* \"#utility.yul\":9775:9776   */\n      0x00\n        /* \"#utility.yul\":9800:9853   */\n      tag_418\n        /* \"#utility.yul\":9845:9852   */\n      dup5\n        /* \"#utility.yul\":9836:9842   */\n      dup3\n        /* \"#utility.yul\":9825:9834   */\n      dup6\n        /* \"#utility.yul\":9821:9843   */\n      add\n        /* \"#utility.yul\":9800:9853   */\n      tag_293\n      jump\t// in\n    tag_418:\n        /* \"#utility.yul\":9790:9853   */\n      swap2\n      pop\n        /* \"#utility.yul\":9746:9863   */\n      pop\n        /* \"#utility.yul\":9541:9870   */\n      swap3\n      swap2\n      pop\n      pop\n      jump\t// out\n        /* \"#utility.yul\":9876:10047   */\n    tag_294:\n        /* \"#utility.yul\":10016:10039   */\n      0x41756374696f6e206e6f742079657420656e6465640000000000000000000000\n        /* \"#utility.yul\":10012:10013   */\n      0x00\n        /* \"#utility.yul\":10004:10010   */\n      dup3\n        /* \"#utility.yul\":10000:10014   */\n      add\n        /* \"#utility.yul\":9993:10040   */\n      mstore\n        /* \"#utility.yul\":9876:10047   */\n      pop\n      jump\t// out\n        /* \"#utility.yul\":10053:10419   */\n    tag_295:\n        /* \"#utility.yul\":10195:10198   */\n      0x00\n        /* \"#utility.yul\":10216:10283   */\n      tag_421\n        /* \"#utility.yul\":10280:10282   */\n      0x15\n        /* \"#utility.yul\":10275:10278   */\n      dup4\n        /* \"#utility.yul\":10216:10283   */\n      tag_264\n      jump\t// in\n    tag_421:\n        /* \"#utility.yul\":10209:10283   */\n      swap2\n      pop\n        /* \"#utility.yul\":10292:10385   */\n      tag_422\n        /* \"#utility.yul\":10381:10384   */\n      dup3\n        /* \"#utility.yul\":10292:10385   */\n      tag_294\n      jump\t// in\n    tag_422:\n        /* \"#utility.yul\":10410:10412   */\n      0x20\n        /* \"#utility.yul\":10405:10408   */\n      dup3\n        /* \"#utility.yul\":10401:10413   */\n      add\n        /* \"#utility.yul\":10394:10413   */\n      swap1\n      pop\n        /* \"#utility.yul\":10053:10419   */\n      swap2\n      swap1\n      pop\n      jump\t// out\n        /* \"#utility.yul\":10425:10844   */\n    tag_134:\n        /* \"#utility.yul\":10591:10595   */\n      0x00\n        /* \"#utility.yul\":10629:10631   */\n      0x20\n        /* \"#utility.yul\":10618:10627   */\n      dup3\n        /* \"#utility.yul\":10614:10632   */\n      add\n        /* \"#utility.yul\":10606:10632   */\n      swap1\n      pop\n        /* \"#utility.yul\":10678:10687   */\n      dup2\n        /* \"#utility.yul\":10672:10676   */\n      dup2\n        /* \"#utility.yul\":10668:10688   */\n      sub\n        /* \"#utility.yul\":10664:10665   */\n      0x00\n        /* \"#utility.yul\":10653:10662   */\n      dup4\n        /* \"#utility.yul\":10649:10666   */\n      add\n        /* \"#utility.yul\":10642:10689   */\n      mstore\n        /* \"#utility.yul\":10706:10837   */\n      tag_424\n        /* \"#utility.yul\":10832:10836   */\n      dup2\n        /* \"#utility.yul\":10706:10837   */\n      tag_295\n      jump\t// in\n    tag_424:\n        /* \"#utility.yul\":10698:10837   */\n      swap1\n      pop\n        /* \"#utility.yul\":10425:10844   */\n      swap2\n      swap1\n      pop\n      jump\t// out\n        /* \"#utility.yul\":10850:11029   */\n    tag_296:\n        /* \"#utility.yul\":10990:11021   */\n      0x57696e6e65722063616e6e6f7420776974686472617720726566756e64000000\n        /* \"#utility.yul\":10986:10987   */\n      0x00\n        /* \"#utility.yul\":10978:10984   */\n      dup3\n        /* \"#utility.yul\":10974:10988   */\n      add\n        /* \"#utility.yul\":10967:11022   */\n      mstore\n        /* \"#utility.yul\":10850:11029   */\n      pop\n      jump\t// out\n        /* \"#utility.yul\":11035:11401   */\n    tag_297:\n        /* \"#utility.yul\":11177:11180   */\n      0x00\n        /* \"#utility.yul\":11198:11265   */\n      tag_427\n        /* \"#utility.yul\":11262:11264   */\n      0x1d\n        /* \"#utility.yul\":11257:11260   */\n      dup4\n        /* \"#utility.yul\":11198:11265   */\n      tag_264\n      jump\t// in\n    tag_427:\n        /* \"#utility.yul\":11191:11265   */\n      swap2\n      pop\n        /* \"#utility.yul\":11274:11367   */\n      tag_428\n        /* \"#utility.yul\":11363:11366   */\n      dup3\n        /* \"#utility.yul\":11274:11367   */\n      tag_296\n      jump\t// in\n    tag_428:\n        /* \"#utility.yul\":11392:11394   */\n      0x20\n        /* \"#utility.yul\":11387:11390   */\n      dup3\n        /* \"#utility.yul\":11383:11395   */\n      add\n        /* \"#utility.yul\":11376:11395   */\n      swap1\n      pop\n        /* \"#utility.yul\":11035:11401   */\n      swap2\n      swap1\n      pop\n      jump\t// out\n        /* \"#utility.yul\":11407:11826   */\n    tag_138:\n        /* \"#utility.yul\":11573:11577   */\n      0x00\n        /* \"#utility.yul\":11611:11613   */\n      0x20\n        /* \"#utility.yul\":11600:11609   */\n      dup3\n        /* \"#utility.yul\":11596:11614   */\n      add\n        /* \"#utility.yul\":11588:11614   */\n      swap1\n      pop\n        /* \"#utility.yul\":11660:11669   */\n      dup2\n        /* \"#utility.yul\":11654:11658   */\n      dup2\n        /* \"#utility.yul\":11650:11670   */\n      sub\n        /* \"#utility.yul\":11646:11647   */\n      0x00\n        /* \"#utility.yul\":11635:11644   */\n      dup4\n        /* \"#utility.yul\":11631:11648   */\n      add\n        /* \"#utility.yul\":11624:11671   */\n      mstore\n        /* \"#utility.yul\":11688:11819   */\n      tag_430\n        /* \"#utility.yul\":11814:11818   */\n      dup2\n        /* \"#utility.yul\":11688:11819   */\n      tag_297\n      jump\t// in\n    tag_430:\n        /* \"#utility.yul\":11680:11819   */\n      swap1\n      pop\n        /* \"#utility.yul\":11407:11826   */\n      swap2\n      swap1\n      pop\n      jump\t// out\n        /* \"#utility.yul\":11832:11998   */\n    tag_298:\n        /* \"#utility.yul\":11972:11990   */\n      0x5265656e7472616e637920677561726400000000000000000000000000000000\n        /* \"#utility.yul\":11968:11969   */\n      0x00\n        /* \"#utility.yul\":11960:11966   */\n      dup3\n        /* \"#utility.yul\":11956:11970   */\n      add\n        /* \"#utility.yul\":11949:11991   */\n      mstore\n        /* \"#utility.yul\":11832:11998   */\n      pop\n      jump\t// out\n        /* \"#utility.yul\":12004:12370   */\n    tag_299:\n        /* \"#utility.yul\":12146:12149   */\n      0x00\n        /* \"#utility.yul\":12167:12234   */\n      tag_433\n        /* \"#utility.yul\":12231:12233   */\n      0x10\n        /* \"#utility.yul\":12226:12229   */\n      dup4\n        /* \"#utility.yul\":12167:12234   */\n      tag_264\n      jump\t// in\n    tag_433:\n        /* \"#utility.yul\":12160:12234   */\n      swap2\n      pop\n        /* \"#utility.yul\":12243:12336   */\n      tag_434\n        /* \"#utility.yul\":12332:12335   */\n      dup3\n        /* \"#utility.yul\":12243:12336   */\n      tag_298\n      jump\t// in\n    tag_434:\n        /* \"#utility.yul\":12361:12363   */\n      0x20\n        /* \"#utility.yul\":12356:12359   */\n      dup3\n        /* \"#utility.yul\":12352:12364   */\n      add\n        /* \"#utility.yul\":12345:12364   */\n      swap1\n      pop\n        /* \"#utility.yul\":12004:12370   */\n      swap2\n      swap1\n      pop\n      jump\t// out\n        /* \"#utility.yul\":12376:12795   */\n    tag_142:\n        /* \"#utility.yul\":12542:12546   */\n      0x00\n        /* \"#utility.yul\":12580:12582   */\n      0x20\n        /* \"#utility.yul\":12569:12578   */\n      dup3\n        /* \"#utility.yul\":12565:12583   */\n      add\n        /* \"#utility.yul\":12557:12583   */\n      swap1\n      pop\n        /* \"#utility.yul\":12629:12638   */\n      dup2\n        /* \"#utility.yul\":12623:12627   */\n      dup2\n        /* \"#utility.yul\":12619:12639   */\n      sub\n        /* \"#utility.yul\":12615:12616   */\n      0x00\n        /* \"#utility.yul\":12604:12613   */\n      dup4\n        /* \"#utility.yul\":12600:12617   */\n      add\n        /* \"#utility.yul\":12593:12640   */\n      mstore\n        /* \"#utility.yul\":12657:12788   */\n      tag_436\n        /* \"#utility.yul\":12783:12787   */\n      dup2\n        /* \"#utility.yul\":12657:12788   */\n      tag_299\n      jump\t// in\n    tag_436:\n        /* \"#utility.yul\":12649:12788   */\n      swap1\n      pop\n        /* \"#utility.yul\":12376:12795   */\n      swap2\n      swap1\n      pop\n      jump\t// out\n        /* \"#utility.yul\":12801:12971   */\n    tag_300:\n        /* \"#utility.yul\":12941:12963   */\n      0x4e6f2066756e647320746f207769746864726177000000000000000000000000\n        /* \"#utility.yul\":12937:12938   */\n      0x00\n        /* \"#utility.yul\":12929:12935   */\n      dup3\n        /* \"#utility.yul\":12925:12939   */\n      add\n        /* \"#utility.yul\":12918:12964   */\n      mstore\n        /* \"#utility.yul\":12801:12971   */\n      pop\n      jump\t// out\n        /* \"#utility.yul\":12977:13343   */\n    tag_301:\n        /* \"#utility.yul\":13119:13122   */\n      0x00\n        /* \"#utility.yul\":13140:13207   */\n      tag_439\n        /* \"#utility.yul\":13204:13206   */\n      0x14\n        /* \"#utility.yul\":13199:13202   */\n      dup4\n        /* \"#utility.yul\":13140:13207   */\n      tag_264\n      jump\t// in\n    tag_439:\n        /* \"#utility.yul\":13133:13207   */\n      swap2\n      pop\n        /* \"#utility.yul\":13216:13309   */\n      tag_440\n        /* \"#utility.yul\":13305:13308   */\n      dup3\n        /* \"#utility.yul\":13216:13309   */\n      tag_300\n      jump\t// in\n    tag_440:\n        /* \"#utility.yul\":13334:13336   */\n      0x20\n        /* \"#utility.yul\":13329:13332   */\n      dup3\n        /* \"#utility.yul\":13325:13337   */\n      add\n        /* \"#utility.yul\":13318:13337   */\n      swap1\n      pop\n        /* \"#utility.yul\":12977:13343   */\n      swap2\n      swap1\n      pop\n      jump\t// out\n        /* \"#utility.yul\":13349:13768   */\n    tag_146:\n        /* \"#utility.yul\":13515:13519   */\n      0x00\n        /* \"#utility.yul\":13553:13555   */\n      0x20\n        /* \"#utility.yul\":13542:13551   */\n      dup3\n        /* \"#utility.yul\":13538:13556   */\n      add\n        /* \"#utility.yul\":13530:13556   */\n      swap1\n      pop\n        /* \"#utility.yul\":13602:13611   */\n      dup2\n        /* \"#utility.yul\":13596:13600   */\n      dup2\n        /* \"#utility.yul\":13592:13612   */\n      sub\n        /* \"#utility.yul\":13588:13589   */\n      0x00\n        /* \"#utility.yul\":13577:13586   */\n      dup4\n        /* \"#utility.yul\":13573:13590   */\n      add\n        /* \"#utility.yul\":13566:13613   */\n      mstore\n        /* \"#utility.yul\":13630:13761   */\n      tag_442\n        /* \"#utility.yul\":13756:13760   */\n      dup2\n        /* \"#utility.yul\":13630:13761   */\n      tag_301\n      jump\t// in\n    tag_442:\n        /* \"#utility.yul\":13622:13761   */\n      swap1\n      pop\n        /* \"#utility.yul\":13349:13768   */\n      swap2\n      swap1\n      pop\n      jump\t// out\n        /* \"#utility.yul\":13774:13954   */\n    tag_302:\n        /* \"#utility.yul\":13822:13899   */\n      0x4e487b7100000000000000000000000000000000000000000000000000000000\n        /* \"#utility.yul\":13819:13820   */\n      0x00\n        /* \"#utility.yul\":13812:13900   */\n      mstore\n        /* \"#utility.yul\":13919:13923   */\n      0x11\n        /* \"#utility.yul\":13916:13917   */\n      0x04\n        /* \"#utility.yul\":13909:13924   */\n      mstore\n        /* \"#utility.yul\":13943:13947   */\n      0x24\n        /* \"#utility.yul\":13940:13941   */\n      0x00\n        /* \"#utility.yul\":13933:13948   */\n      revert\n        /* \"#utility.yul\":13960:14370   */\n    tag_148:\n        /* \"#utility.yul\":14000:14007   */\n      0x00\n        /* \"#utility.yul\":14023:14043   */\n      tag_445\n        /* \"#utility.yul\":14041:14042   */\n      dup3\n        /* \"#utility.yul\":14023:14043   */\n      tag_274\n      jump\t// in\n    tag_445:\n        /* \"#utility.yul\":14018:14043   */\n      swap2\n      pop\n        /* \"#utility.yul\":14057:14077   */\n      tag_446\n        /* \"#utility.yul\":14075:14076   */\n      dup4\n        /* \"#utility.yul\":14057:14077   */\n      tag_274\n      jump\t// in\n    tag_446:\n        /* \"#utility.yul\":14052:14077   */\n      swap3\n      pop\n        /* \"#utility.yul\":14112:14113   */\n      dup3\n        /* \"#utility.yul\":14109:14110   */\n      dup3\n        /* \"#utility.yul\":14105:14114   */\n      mul\n        /* \"#utility.yul\":14134:14164   */\n      tag_447\n        /* \"#utility.yul\":14152:14163   */\n      dup2\n        /* \"#utility.yul\":14134:14164   */\n      tag_274\n      jump\t// in\n    tag_447:\n        /* \"#utility.yul\":14123:14164   */\n      swap2\n      pop\n        /* \"#utility.yul\":14313:14314   */\n      dup3\n        /* \"#utility.yul\":14304:14311   */\n      dup3\n        /* \"#utility.yul\":14300:14315   */\n      div\n        /* \"#utility.yul\":14297:14298   */\n      dup5\n        /* \"#utility.yul\":14294:14316   */\n      eq\n        /* \"#utility.yul\":14274:14275   */\n      dup4\n        /* \"#utility.yul\":14267:14276   */\n      iszero\n        /* \"#utility.yul\":14247:14330   */\n      or\n        /* \"#utility.yul\":14224:14363   */\n      tag_448\n      jumpi\n        /* \"#utility.yul\":14343:14361   */\n      tag_449\n      tag_302\n      jump\t// in\n    tag_449:\n        /* \"#utility.yul\":14224:14363   */\n    tag_448:\n        /* \"#utility.yul\":14008:14370   */\n      pop\n        /* \"#utility.yul\":13960:14370   */\n      swap3\n      swap2\n      pop\n      pop\n      jump\t// out\n        /* \"#utility.yul\":14376:14556   */\n    tag_303:\n        /* \"#utility.yul\":14424:14501   */\n      0x4e487b7100000000000000000000000000000000000000000000000000000000\n        /* \"#utility.yul\":14421:14422   */\n      0x00\n        /* \"#utility.yul\":14414:14502   */\n      mstore\n        /* \"#utility.yul\":14521:14525   */\n      0x12\n        /* \"#utility.yul\":14518:14519   */\n      0x04\n        /* \"#utility.yul\":14511:14526   */\n      mstore\n        /* \"#utility.yul\":14545:14549   */\n      0x24\n        /* \"#utility.yul\":14542:14543   */\n      0x00\n        /* \"#utility.yul\":14535:14550   */\n      revert\n        /* \"#utility.yul\":14562:14747   */\n    tag_150:\n        /* \"#utility.yul\":14602:14603   */\n      0x00\n        /* \"#utility.yul\":14619:14639   */\n      tag_452\n        /* \"#utility.yul\":14637:14638   */\n      dup3\n        /* \"#utility.yul\":14619:14639   */\n      tag_274\n      jump\t// in\n    tag_452:\n        /* \"#utility.yul\":14614:14639   */\n      swap2\n      pop\n        /* \"#utility.yul\":14653:14673   */\n      tag_453\n        /* \"#utility.yul\":14671:14672   */\n      dup4\n        /* \"#utility.yul\":14653:14673   */\n      tag_274\n      jump\t// in\n    tag_453:\n        /* \"#utility.yul\":14648:14673   */\n      swap3\n      pop\n        /* \"#utility.yul\":14692:14693   */\n      dup3\n        /* \"#utility.yul\":14682:14717   */\n      tag_454\n      jumpi\n        /* \"#utility.yul\":14697:14715   */\n      tag_455\n      tag_303\n      jump\t// in\n    tag_455:\n        /* \"#utility.yul\":14682:14717   */\n    tag_454:\n        /* \"#utility.yul\":14739:14740   */\n      dup3\n        /* \"#utility.yul\":14736:14737   */\n      dup3\n        /* \"#utility.yul\":14732:14741   */\n      div\n        /* \"#utility.yul\":14727:14741   */\n      swap1\n      pop\n        /* \"#utility.yul\":14562:14747   */\n      swap3\n      swap2\n      pop\n      pop\n      jump\t// out\n        /* \"#utility.yul\":14753:14947   */\n    tag_152:\n        /* \"#utility.yul\":14793:14797   */\n      0x00\n        /* \"#utility.yul\":14813:14833   */\n      tag_457\n        /* \"#utility.yul\":14831:14832   */\n      dup3\n        /* \"#utility.yul\":14813:14833   */\n      tag_274\n      jump\t// in\n    tag_457:\n        /* \"#utility.yul\":14808:14833   */\n      swap2\n      pop\n        /* \"#utility.yul\":14847:14867   */\n      tag_458\n        /* \"#utility.yul\":14865:14866   */\n      dup4\n        /* \"#utility.yul\":14847:14867   */\n      tag_274\n      jump\t// in\n    tag_458:\n        /* \"#utility.yul\":14842:14867   */\n      swap3\n      pop\n        /* \"#utility.yul\":14891:14892   */\n      dup3\n        /* \"#utility.yul\":14888:14889   */\n      dup3\n        /* \"#utility.yul\":14884:14893   */\n      sub\n        /* \"#utility.yul\":14876:14893   */\n      swap1\n      pop\n        /* \"#utility.yul\":14915:14916   */\n      dup2\n        /* \"#utility.yul\":14909:14913   */\n      dup2\n        /* \"#utility.yul\":14906:14917   */\n      gt\n        /* \"#utility.yul\":14903:14940   */\n      iszero\n      tag_459\n      jumpi\n        /* \"#utility.yul\":14920:14938   */\n      tag_460\n      tag_302\n      jump\t// in\n    tag_460:\n        /* \"#utility.yul\":14903:14940   */\n    tag_459:\n        /* \"#utility.yul\":14753:14947   */\n      swap3\n      swap2\n      pop\n      pop\n      jump\t// out\n        /* \"#utility.yul\":14953:15144   */\n    tag_154:\n        /* \"#utility.yul\":14993:14996   */\n      0x00\n        /* \"#utility.yul\":15012:15032   */\n      tag_462\n        /* \"#utility.yul\":15030:15031   */\n      dup3\n        /* \"#utility.yul\":15012:15032   */\n      tag_274\n      jump\t// in\n    tag_462:\n        /* \"#utility.yul\":15007:15032   */\n      swap2\n      pop\n        /* \"#utility.yul\":15046:15066   */\n      tag_463\n        /* \"#utility.yul\":15064:15065   */\n      dup4\n        /* \"#utility.yul\":15046:15066   */\n      tag_274\n      jump\t// in\n    tag_463:\n        /* \"#utility.yul\":15041:15066   */\n      swap3\n      pop\n        /* \"#utility.yul\":15089:15090   */\n      dup3\n        /* \"#utility.yul\":15086:15087   */\n      dup3\n        /* \"#utility.yul\":15082:15091   */\n      add\n        /* \"#utility.yul\":15075:15091   */\n      swap1\n      pop\n        /* \"#utility.yul\":15110:15113   */\n      dup1\n        /* \"#utility.yul\":15107:15108   */\n      dup3\n        /* \"#utility.yul\":15104:15114   */\n      gt\n        /* \"#utility.yul\":15101:15137   */\n      iszero\n      tag_464\n      jumpi\n        /* \"#utility.yul\":15117:15135   */\n      tag_465\n      tag_302\n      jump\t// in\n    tag_465:\n        /* \"#utility.yul\":15101:15137   */\n    tag_464:\n        /* \"#utility.yul\":14953:15144   */\n      swap3\n      swap2\n      pop\n      pop\n      jump\t// out\n        /* \"#utility.yul\":15150:15297   */\n    tag_304:\n        /* \"#utility.yul\":15251:15262   */\n      0x00\n        /* \"#utility.yul\":15288:15291   */\n      dup2\n        /* \"#utility.yul\":15273:15291   */\n      swap1\n      pop\n        /* \"#utility.yul\":15150:15297   */\n      swap3\n      swap2\n      pop\n      pop\n      jump\t// out\n        /* \"#utility.yul\":15303:15417   */\n    tag_305:\n      pop\n      jump\t// out\n        /* \"#utility.yul\":15423:15821   */\n    tag_306:\n        /* \"#utility.yul\":15582:15585   */\n      0x00\n        /* \"#utility.yul\":15603:15686   */\n      tag_469\n        /* \"#utility.yul\":15684:15685   */\n      0x00\n        /* \"#utility.yul\":15679:15682   */\n      dup4\n        /* \"#utility.yul\":15603:15686   */\n      tag_304\n      jump\t// in\n    tag_469:\n        /* \"#utility.yul\":15596:15686   */\n      swap2\n      pop\n        /* \"#utility.yul\":15695:15788   */\n      tag_470\n        /* \"#utility.yul\":15784:15787   */\n      dup3\n        /* \"#utility.yul\":15695:15788   */\n      tag_305\n      jump\t// in\n    tag_470:\n        /* \"#utility.yul\":15813:15814   */\n      0x00\n        /* \"#utility.yul\":15808:15811   */\n      dup3\n        /* \"#utility.yul\":15804:15815   */\n      add\n        /* \"#utility.yul\":15797:15815   */\n      swap1\n      pop\n        /* \"#utility.yul\":15423:15821   */\n      swap2\n      swap1\n      pop\n      jump\t// out\n        /* \"#utility.yul\":15827:16206   */\n    tag_156:\n        /* \"#utility.yul\":16011:16014   */\n      0x00\n        /* \"#utility.yul\":16033:16180   */\n      tag_472\n        /* \"#utility.yul\":16176:16179   */\n      dup3\n        /* \"#utility.yul\":16033:16180   */\n      tag_306\n      jump\t// in\n    tag_472:\n        /* \"#utility.yul\":16026:16180   */\n      swap2\n      pop\n        /* \"#utility.yul\":16197:16200   */\n      dup2\n        /* \"#utility.yul\":16190:16200   */\n      swap1\n      pop\n        /* \"#utility.yul\":15827:16206   */\n      swap2\n      swap1\n      pop\n      jump\t// out\n        /* \"#utility.yul\":16212:16377   */\n    tag_307:\n        /* \"#utility.yul\":16352:16369   */\n      0x5472616e73666572206661696c65640000000000000000000000000000000000\n        /* \"#utility.yul\":16348:16349   */\n      0x00\n        /* \"#utility.yul\":16340:16346   */\n      dup3\n        /* \"#utility.yul\":16336:16350   */\n      add\n        /* \"#utility.yul\":16329:16370   */\n      mstore\n        /* \"#utility.yul\":16212:16377   */\n      pop\n      jump\t// out\n        /* \"#utility.yul\":16383:16749   */\n    tag_308:\n        /* \"#utility.yul\":16525:16528   */\n      0x00\n        /* \"#utility.yul\":16546:16613   */\n      tag_475\n        /* \"#utility.yul\":16610:16612   */\n      0x0f\n        /* \"#utility.yul\":16605:16608   */\n      dup4\n        /* \"#utility.yul\":16546:16613   */\n      tag_264\n      jump\t// in\n    tag_475:\n        /* \"#utility.yul\":16539:16613   */\n      swap2\n      pop\n        /* \"#utility.yul\":16622:16715   */\n      tag_476\n        /* \"#utility.yul\":16711:16714   */\n      dup3\n        /* \"#utility.yul\":16622:16715   */\n      tag_307\n      jump\t// in\n    tag_476:\n        /* \"#utility.yul\":16740:16742   */\n      0x20\n        /* \"#utility.yul\":16735:16738   */\n      dup3\n        /* \"#utility.yul\":16731:16743   */\n      add\n        /* \"#utility.yul\":16724:16743   */\n      swap1\n      pop\n        /* \"#utility.yul\":16383:16749   */\n      swap2\n      swap1\n      pop\n      jump\t// out\n        /* \"#utility.yul\":16755:17174   */\n    tag_162:\n        /* \"#utility.yul\":16921:16925   */\n      0x00\n        /* \"#utility.yul\":16959:16961   */\n      0x20\n        /* \"#utility.yul\":16948:16957   */\n      dup3\n        /* \"#utility.yul\":16944:16962   */\n      add\n        /* \"#utility.yul\":16936:16962   */\n      swap1\n      pop\n        /* \"#utility.yul\":17008:17017   */\n      dup2\n        /* \"#utility.yul\":17002:17006   */\n      dup2\n        /* \"#utility.yul\":16998:17018   */\n      sub\n        /* \"#utility.yul\":16994:16995   */\n      0x00\n        /* \"#utility.yul\":16983:16992   */\n      dup4\n        /* \"#utility.yul\":16979:16996   */\n      add\n        /* \"#utility.yul\":16972:17019   */\n      mstore\n        /* \"#utility.yul\":17036:17167   */\n      tag_478\n        /* \"#utility.yul\":17162:17166   */\n      dup2\n        /* \"#utility.yul\":17036:17167   */\n      tag_308\n      jump\t// in\n    tag_478:\n        /* \"#utility.yul\":17028:17167   */\n      swap1\n      pop\n        /* \"#utility.yul\":16755:17174   */\n      swap2\n      swap1\n      pop\n      jump\t// out\n        /* \"#utility.yul\":17180:17351   */\n    tag_309:\n        /* \"#utility.yul\":17320:17343   */\n      0x41756374696f6e206973206e6f74206163746976650000000000000000000000\n        /* \"#utility.yul\":17316:17317   */\n      0x00\n        /* \"#utility.yul\":17308:17314   */\n      dup3\n        /* \"#utility.yul\":17304:17318   */\n      add\n        /* \"#utility.yul\":17297:17344   */\n      mstore\n        /* \"#utility.yul\":17180:17351   */\n      pop\n      jump\t// out\n        /* \"#utility.yul\":17357:17723   */\n    tag_310:\n        /* \"#utility.yul\":17499:17502   */\n      0x00\n        /* \"#utility.yul\":17520:17587   */\n      tag_481\n        /* \"#utility.yul\":17584:17586   */\n      0x15\n        /* \"#utility.yul\":17579:17582   */\n      dup4\n        /* \"#utility.yul\":17520:17587   */\n      tag_264\n      jump\t// in\n    tag_481:\n        /* \"#utility.yul\":17513:17587   */\n      swap2\n      pop\n        /* \"#utility.yul\":17596:17689   */\n      tag_482\n        /* \"#utility.yul\":17685:17688   */\n      dup3\n        /* \"#utility.yul\":17596:17689   */\n      tag_309\n      jump\t// in\n    tag_482:\n        /* \"#utility.yul\":17714:17716   */\n      0x20\n        /* \"#utility.yul\":17709:17712   */\n      dup3\n        /* \"#utility.yul\":17705:17717   */\n      add\n        /* \"#utility.yul\":17698:17717   */\n      swap1\n      pop\n        /* \"#utility.yul\":17357:17723   */\n      swap2\n      swap1\n      pop\n      jump\t// out\n        /* \"#utility.yul\":17729:18148   */\n    tag_169:\n        /* \"#utility.yul\":17895:17899   */\n      0x00\n        /* \"#utility.yul\":17933:17935   */\n      0x20\n        /* \"#utility.yul\":17922:17931   */\n      dup3\n        /* \"#utility.yul\":17918:17936   */\n      add\n        /* \"#utility.yul\":17910:17936   */\n      swap1\n      pop\n        /* \"#utility.yul\":17982:17991   */\n      dup2\n        /* \"#utility.yul\":17976:17980   */\n      dup2\n        /* \"#utility.yul\":17972:17992   */\n      sub\n        /* \"#utility.yul\":17968:17969   */\n      0x00\n        /* \"#utility.yul\":17957:17966   */\n      dup4\n        /* \"#utility.yul\":17953:17970   */\n      add\n        /* \"#utility.yul\":17946:17993   */\n      mstore\n        /* \"#utility.yul\":18010:18141   */\n      tag_484\n        /* \"#utility.yul\":18136:18140   */\n      dup2\n        /* \"#utility.yul\":18010:18141   */\n      tag_310\n      jump\t// in\n    tag_484:\n        /* \"#utility.yul\":18002:18141   */\n      swap1\n      pop\n        /* \"#utility.yul\":17729:18148   */\n      swap2\n      swap1\n      pop\n      jump\t// out\n        /* \"#utility.yul\":18154:18330   */\n    tag_311:\n        /* \"#utility.yul\":18294:18322   */\n      0x426964206d7573742062652067726561746572207468616e2030000000000000\n        /* \"#utility.yul\":18290:18291   */\n      0x00\n        /* \"#utility.yul\":18282:18288   */\n      dup3\n        /* \"#utility.yul\":18278:18292   */\n      add\n        /* \"#utility.yul\":18271:18323   */\n      mstore\n        /* \"#utility.yul\":18154:18330   */\n      pop\n      jump\t// out\n        /* \"#utility.yul\":18336:18702   */\n    tag_312:\n        /* \"#utility.yul\":18478:18481   */\n      0x00\n        /* \"#utility.yul\":18499:18566   */\n      tag_487\n        /* \"#utility.yul\":18563:18565   */\n      0x1a\n        /* \"#utility.yul\":18558:18561   */\n      dup4\n        /* \"#utility.yul\":18499:18566   */\n      tag_264\n      jump\t// in\n    tag_487:\n        /* \"#utility.yul\":18492:18566   */\n      swap2\n      pop\n        /* \"#utility.yul\":18575:18668   */\n      tag_488\n        /* \"#utility.yul\":18664:18667   */\n      dup3\n        /* \"#utility.yul\":18575:18668   */\n      tag_311\n      jump\t// in\n    tag_488:\n        /* \"#utility.yul\":18693:18695   */\n      0x20\n        /* \"#utility.yul\":18688:18691   */\n      dup3\n        /* \"#utility.yul\":18684:18696   */\n      add\n        /* \"#utility.yul\":18677:18696   */\n      swap1\n      pop\n        /* \"#utility.yul\":18336:18702   */\n      swap2\n      swap1\n      pop\n      jump\t// out\n        /* \"#utility.yul\":18708:19127   */\n    tag_176:\n        /* \"#utility.yul\":18874:18878   */\n      0x00\n        /* \"#utility.yul\":18912:18914   */\n      0x20\n        /* \"#utility.yul\":18901:18910   */\n      dup3\n        /* \"#utility.yul\":18897:18915   */\n      add\n        /* \"#utility.yul\":18889:18915   */\n      swap1\n      pop\n        /* \"#utility.yul\":18961:18970   */\n      dup2\n        /* \"#utility.yul\":18955:18959   */\n      dup2\n        /* \"#utility.yul\":18951:18971   */\n      sub\n        /* \"#utility.yul\":18947:18948   */\n      0x00\n        /* \"#utility.yul\":18936:18945   */\n      dup4\n        /* \"#utility.yul\":18932:18949   */\n      add\n        /* \"#utility.yul\":18925:18972   */\n      mstore\n        /* \"#utility.yul\":18989:19120   */\n      tag_490\n        /* \"#utility.yul\":19115:19119   */\n      dup2\n        /* \"#utility.yul\":18989:19120   */\n      tag_312\n      jump\t// in\n    tag_490:\n        /* \"#utility.yul\":18981:19120   */\n      swap1\n      pop\n        /* \"#utility.yul\":18708:19127   */\n      swap2\n      swap1\n      pop\n      jump\t// out\n        /* \"#utility.yul\":19133:19367   */\n    tag_313:\n        /* \"#utility.yul\":19273:19307   */\n      0x426964206d757374206265206174206c65617374203525206869676865722074\n        /* \"#utility.yul\":19269:19270   */\n      0x00\n        /* \"#utility.yul\":19261:19267   */\n      dup3\n        /* \"#utility.yul\":19257:19271   */\n      add\n        /* \"#utility.yul\":19250:19308   */\n      mstore\n        /* \"#utility.yul\":19342:19359   */\n      0x68616e2068696768657374206269640000000000000000000000000000000000\n        /* \"#utility.yul\":19337:19339   */\n      0x20\n        /* \"#utility.yul\":19329:19335   */\n      dup3\n        /* \"#utility.yul\":19325:19340   */\n      add\n        /* \"#utility.yul\":19318:19360   */\n      mstore\n        /* \"#utility.yul\":19133:19367   */\n      pop\n      jump\t// out\n        /* \"#utility.yul\":19373:19739   */\n    tag_314:\n        /* \"#utility.yul\":19515:19518   */\n      0x00\n        /* \"#utility.yul\":19536:19603   */\n      tag_493\n        /* \"#utility.yul\":19600:19602   */\n      0x2f\n        /* \"#utility.yul\":19595:19598   */\n      dup4\n        /* \"#utility.yul\":19536:19603   */\n      tag_264\n      jump\t// in\n    tag_493:\n        /* \"#utility.yul\":19529:19603   */\n      swap2\n      pop\n        /* \"#utility.yul\":19612:19705   */\n      tag_494\n        /* \"#utility.yul\":19701:19704   */\n      dup3\n        /* \"#utility.yul\":19612:19705   */\n      tag_313\n      jump\t// in\n    tag_494:\n        /* \"#utility.yul\":19730:19732   */\n      0x40\n        /* \"#utility.yul\":19725:19728   */\n      dup3\n        /* \"#utility.yul\":19721:19733   */\n      add\n        /* \"#utility.yul\":19714:19733   */\n      swap1\n      pop\n        /* \"#utility.yul\":19373:19739   */\n      swap2\n      swap1\n      pop\n      jump\t// out\n        /* \"#utility.yul\":19745:20164   */\n    tag_184:\n        /* \"#utility.yul\":19911:19915   */\n      0x00\n        /* \"#utility.yul\":19949:19951   */\n      0x20\n        /* \"#utility.yul\":19938:19947   */\n      dup3\n        /* \"#utility.yul\":19934:19952   */\n      add\n        /* \"#utility.yul\":19926:19952   */\n      swap1\n      pop\n        /* \"#utility.yul\":19998:20007   */\n      dup2\n        /* \"#utility.yul\":19992:19996   */\n      dup2\n        /* \"#utility.yul\":19988:20008   */\n      sub\n        /* \"#utility.yul\":19984:19985   */\n      0x00\n        /* \"#utility.yul\":19973:19982   */\n      dup4\n        /* \"#utility.yul\":19969:19986   */\n      add\n        /* \"#utility.yul\":19962:20009   */\n      mstore\n        /* \"#utility.yul\":20026:20157   */\n      tag_496\n        /* \"#utility.yul\":20152:20156   */\n      dup2\n        /* \"#utility.yul\":20026:20157   */\n      tag_314\n      jump\t// in\n    tag_496:\n        /* \"#utility.yul\":20018:20157   */\n      swap1\n      pop\n        /* \"#utility.yul\":19745:20164   */\n      swap2\n      swap1\n      pop\n      jump\t// out\n        /* \"#utility.yul\":20170:20395   */\n    tag_315:\n        /* \"#utility.yul\":20310:20344   */\n      0x43757272656e742068696768657374206269646465722063616e6e6f74207769\n        /* \"#utility.yul\":20306:20307   */\n      0x00\n        /* \"#utility.yul\":20298:20304   */\n      dup3\n        /* \"#utility.yul\":20294:20308   */\n      add\n        /* \"#utility.yul\":20287:20345   */\n      mstore\n        /* \"#utility.yul\":20379:20387   */\n      0x7468647261770000000000000000000000000000000000000000000000000000\n        /* \"#utility.yul\":20374:20376   */\n      0x20\n        /* \"#utility.yul\":20366:20372   */\n      dup3\n        /* \"#utility.yul\":20362:20377   */\n      add\n        /* \"#utility.yul\":20355:20388   */\n      mstore\n        /* \"#utility.yul\":20170:20395   */\n      pop\n      jump\t// out\n        /* \"#utility.yul\":20401:20767   */\n    tag_316:\n        /* \"#utility.yul\":20543:20546   */\n      0x00\n        /* \"#utility.yul\":20564:20631   */\n      tag_499\n        /* \"#utility.yul\":20628:20630   */\n      0x26\n        /* \"#utility.yul\":20623:20626   */\n      dup4\n        /* \"#utility.yul\":20564:20631   */\n      tag_264\n      jump\t// in\n    tag_499:\n        /* \"#utility.yul\":20557:20631   */\n      swap2\n      pop\n        /* \"#utility.yul\":20640:20733   */\n      tag_500\n        /* \"#utility.yul\":20729:20732   */\n      dup3\n        /* \"#utility.yul\":20640:20733   */\n      tag_315\n      jump\t// in\n    tag_500:\n        /* \"#utility.yul\":20758:20760   */\n      0x40\n        /* \"#utility.yul\":20753:20756   */\n      dup3\n        /* \"#utility.yul\":20749:20761   */\n      add\n        /* \"#utility.yul\":20742:20761   */\n      swap1\n      pop\n        /* \"#utility.yul\":20401:20767   */\n      swap2\n      swap1\n      pop\n      jump\t// out\n        /* \"#utility.yul\":20773:21192   */\n    tag_203:\n        /* \"#utility.yul\":20939:20943   */\n      0x00\n        /* \"#utility.yul\":20977:20979   */\n      0x20\n        /* \"#utility.yul\":20966:20975   */\n      dup3\n        /* \"#utility.yul\":20962:20980   */\n      add\n        /* \"#utility.yul\":20954:20980   */\n      swap1\n      pop\n        /* \"#utility.yul\":21026:21035   */\n      dup2\n        /* \"#utility.yul\":21020:21024   */\n      dup2\n        /* \"#utility.yul\":21016:21036   */\n      sub\n        /* \"#utility.yul\":21012:21013   */\n      0x00\n        /* \"#utility.yul\":21001:21010   */\n      dup4\n        /* \"#utility.yul\":20997:21014   */\n      add\n        /* \"#utility.yul\":20990:21037   */\n      mstore\n        /* \"#utility.yul\":21054:21185   */\n      tag_502\n        /* \"#utility.yul\":21180:21184   */\n      dup2\n        /* \"#utility.yul\":21054:21185   */\n      tag_316\n      jump\t// in\n    tag_502:\n        /* \"#utility.yul\":21046:21185   */\n      swap1\n      pop\n        /* \"#utility.yul\":20773:21192   */\n      swap2\n      swap1\n      pop\n      jump\t// out\n        /* \"#utility.yul\":21198:21375   */\n    tag_317:\n        /* \"#utility.yul\":21338:21367   */\n      0x4e6f206578636573732066756e647320746f2077697468647261770000000000\n        /* \"#utility.yul\":21334:21335   */\n      0x00\n        /* \"#utility.yul\":21326:21332   */\n      dup3\n        /* \"#utility.yul\":21322:21336   */\n      add\n        /* \"#utility.yul\":21315:21368   */\n      mstore\n        /* \"#utility.yul\":21198:21375   */\n      pop\n      jump\t// out\n        /* \"#utility.yul\":21381:21747   */\n    tag_318:\n        /* \"#utility.yul\":21523:21526   */\n      0x00\n        /* \"#utility.yul\":21544:21611   */\n      tag_505\n        /* \"#utility.yul\":21608:21610   */\n      0x1b\n        /* \"#utility.yul\":21603:21606   */\n      dup4\n        /* \"#utility.yul\":21544:21611   */\n      tag_264\n      jump\t// in\n    tag_505:\n        /* \"#utility.yul\":21537:21611   */\n      swap2\n      pop\n        /* \"#utility.yul\":21620:21713   */\n      tag_506\n        /* \"#utility.yul\":21709:21712   */\n      dup3\n        /* \"#utility.yul\":21620:21713   */\n      tag_317\n      jump\t// in\n    tag_506:\n        /* \"#utility.yul\":21738:21740   */\n      0x20\n        /* \"#utility.yul\":21733:21736   */\n      dup3\n        /* \"#utility.yul\":21729:21741   */\n      add\n        /* \"#utility.yul\":21722:21741   */\n      swap1\n      pop\n        /* \"#utility.yul\":21381:21747   */\n      swap2\n      swap1\n      pop\n      jump\t// out\n        /* \"#utility.yul\":21753:22172   */\n    tag_206:\n        /* \"#utility.yul\":21919:21923   */\n      0x00\n        /* \"#utility.yul\":21957:21959   */\n      0x20\n        /* \"#utility.yul\":21946:21955   */\n      dup3\n        /* \"#utility.yul\":21942:21960   */\n      add\n        /* \"#utility.yul\":21934:21960   */\n      swap1\n      pop\n        /* \"#utility.yul\":22006:22015   */\n      dup2\n        /* \"#utility.yul\":22000:22004   */\n      dup2\n        /* \"#utility.yul\":21996:22016   */\n      sub\n        /* \"#utility.yul\":21992:21993   */\n      0x00\n        /* \"#utility.yul\":21981:21990   */\n      dup4\n        /* \"#utility.yul\":21977:21994   */\n      add\n        /* \"#utility.yul\":21970:22017   */\n      mstore\n        /* \"#utility.yul\":22034:22165   */\n      tag_508\n        /* \"#utility.yul\":22160:22164   */\n      dup2\n        /* \"#utility.yul\":22034:22165   */\n      tag_318\n      jump\t// in\n    tag_508:\n        /* \"#utility.yul\":22026:22165   */\n      swap1\n      pop\n        /* \"#utility.yul\":21753:22172   */\n      swap2\n      swap1\n      pop\n      jump\t// out\n        /* \"#utility.yul\":22178:22348   */\n    tag_319:\n        /* \"#utility.yul\":22318:22340   */\n      0x4f6e6c792073656c6c65722063616e2063616c6c000000000000000000000000\n        /* \"#utility.yul\":22314:22315   */\n      0x00\n        /* \"#utility.yul\":22306:22312   */\n      dup3\n        /* \"#utility.yul\":22302:22316   */\n      add\n        /* \"#utility.yul\":22295:22341   */\n      mstore\n        /* \"#utility.yul\":22178:22348   */\n      pop\n      jump\t// out\n        /* \"#utility.yul\":22354:22720   */\n    tag_320:\n        /* \"#utility.yul\":22496:22499   */\n      0x00\n        /* \"#utility.yul\":22517:22584   */\n      tag_511\n        /* \"#utility.yul\":22581:22583   */\n      0x14\n        /* \"#utility.yul\":22576:22579   */\n      dup4\n        /* \"#utility.yul\":22517:22584   */\n      tag_264\n      jump\t// in\n    tag_511:\n        /* \"#utility.yul\":22510:22584   */\n      swap2\n      pop\n        /* \"#utility.yul\":22593:22686   */\n      tag_512\n        /* \"#utility.yul\":22682:22685   */\n      dup3\n        /* \"#utility.yul\":22593:22686   */\n      tag_319\n      jump\t// in\n    tag_512:\n        /* \"#utility.yul\":22711:22713   */\n      0x20\n        /* \"#utility.yul\":22706:22709   */\n      dup3\n        /* \"#utility.yul\":22702:22714   */\n      add\n        /* \"#utility.yul\":22695:22714   */\n      swap1\n      pop\n        /* \"#utility.yul\":22354:22720   */\n      swap2\n      swap1\n      pop\n      jump\t// out\n        /* \"#utility.yul\":22726:23145   */\n    tag_217:\n        /* \"#utility.yul\":22892:22896   */\n      0x00\n        /* \"#utility.yul\":22930:22932   */\n      0x20\n        /* \"#utility.yul\":22919:22928   */\n      dup3\n        /* \"#utility.yul\":22915:22933   */\n      add\n        /* \"#utility.yul\":22907:22933   */\n      swap1\n      pop\n        /* \"#utility.yul\":22979:22988   */\n      dup2\n        /* \"#utility.yul\":22973:22977   */\n      dup2\n        /* \"#utility.yul\":22969:22989   */\n      sub\n        /* \"#utility.yul\":22965:22966   */\n      0x00\n        /* \"#utility.yul\":22954:22963   */\n      dup4\n        /* \"#utility.yul\":22950:22967   */\n      add\n        /* \"#utility.yul\":22943:22990   */\n      mstore\n        /* \"#utility.yul\":23007:23138   */\n      tag_514\n        /* \"#utility.yul\":23133:23137   */\n      dup2\n        /* \"#utility.yul\":23007:23138   */\n      tag_320\n      jump\t// in\n    tag_514:\n        /* \"#utility.yul\":22999:23138   */\n      swap1\n      pop\n        /* \"#utility.yul\":22726:23145   */\n      swap2\n      swap1\n      pop\n      jump\t// out\n        /* \"#utility.yul\":23151:23320   */\n    tag_321:\n        /* \"#utility.yul\":23291:23312   */\n      0x4e6f206665657320746f20776974686472617700000000000000000000000000\n        /* \"#utility.yul\":23287:23288   */\n      0x00\n        /* \"#utility.yul\":23279:23285   */\n      dup3\n        /* \"#utility.yul\":23275:23289   */\n      add\n        /* \"#utility.yul\":23268:23313   */\n      mstore\n        /* \"#utility.yul\":23151:23320   */\n      pop\n      jump\t// out\n        /* \"#utility.yul\":23326:23692   */\n    tag_322:\n        /* \"#utility.yul\":23468:23471   */\n      0x00\n        /* \"#utility.yul\":23489:23556   */\n      tag_517\n        /* \"#utility.yul\":23553:23555   */\n      0x13\n        /* \"#utility.yul\":23548:23551   */\n      dup4\n        /* \"#utility.yul\":23489:23556   */\n      tag_264\n      jump\t// in\n    tag_517:\n        /* \"#utility.yul\":23482:23556   */\n      swap2\n      pop\n        /* \"#utility.yul\":23565:23658   */\n      tag_518\n        /* \"#utility.yul\":23654:23657   */\n      dup3\n        /* \"#utility.yul\":23565:23658   */\n      tag_321\n      jump\t// in\n    tag_518:\n        /* \"#utility.yul\":23683:23685   */\n      0x20\n        /* \"#utility.yul\":23678:23681   */\n      dup3\n        /* \"#utility.yul\":23674:23686   */\n      add\n        /* \"#utility.yul\":23667:23686   */\n      swap1\n      pop\n        /* \"#utility.yul\":23326:23692   */\n      swap2\n      swap1\n      pop\n      jump\t// out\n        /* \"#utility.yul\":23698:24117   */\n    tag_224:\n        /* \"#utility.yul\":23864:23868   */\n      0x00\n        /* \"#utility.yul\":23902:23904   */\n      0x20\n        /* \"#utility.yul\":23891:23900   */\n      dup3\n        /* \"#utility.yul\":23887:23905   */\n      add\n        /* \"#utility.yul\":23879:23905   */\n      swap1\n      pop\n        /* \"#utility.yul\":23951:23960   */\n      dup2\n        /* \"#utility.yul\":23945:23949   */\n      dup2\n        /* \"#utility.yul\":23941:23961   */\n      sub\n        /* \"#utility.yul\":23937:23938   */\n      0x00\n        /* \"#utility.yul\":23926:23935   */\n      dup4\n        /* \"#utility.yul\":23922:23939   */\n      add\n        /* \"#utility.yul\":23915:23962   */\n      mstore\n        /* \"#utility.yul\":23979:24110   */\n      tag_520\n        /* \"#utility.yul\":24105:24109   */\n      dup2\n        /* \"#utility.yul\":23979:24110   */\n      tag_322\n      jump\t// in\n    tag_520:\n        /* \"#utility.yul\":23971:24110   */\n      swap1\n      pop\n        /* \"#utility.yul\":23698:24117   */\n      swap2\n      swap1\n      pop\n      jump\t// out\n        /* \"#utility.yul\":24123:24292   */\n    tag_323:\n        /* \"#utility.yul\":24263:24284   */\n      0x466565207472616e73666572206661696c656400000000000000000000000000\n        /* \"#utility.yul\":24259:24260   */\n      0x00\n        /* \"#utility.yul\":24251:24257   */\n      dup3\n        /* \"#utility.yul\":24247:24261   */\n      add\n        /* \"#utility.yul\":24240:24285   */\n      mstore\n        /* \"#utility.yul\":24123:24292   */\n      pop\n      jump\t// out\n        /* \"#utility.yul\":24298:24664   */\n    tag_324:\n        /* \"#utility.yul\":24440:24443   */\n      0x00\n        /* \"#utility.yul\":24461:24528   */\n      tag_523\n        /* \"#utility.yul\":24525:24527   */\n      0x13\n        /* \"#utility.yul\":24520:24523   */\n      dup4\n        /* \"#utility.yul\":24461:24528   */\n      tag_264\n      jump\t// in\n    tag_523:\n        /* \"#utility.yul\":24454:24528   */\n      swap2\n      pop\n        /* \"#utility.yul\":24537:24630   */\n      tag_524\n        /* \"#utility.yul\":24626:24629   */\n      dup3\n        /* \"#utility.yul\":24537:24630   */\n      tag_323\n      jump\t// in\n    tag_524:\n        /* \"#utility.yul\":24655:24657   */\n      0x20\n        /* \"#utility.yul\":24650:24653   */\n      dup3\n        /* \"#utility.yul\":24646:24658   */\n      add\n        /* \"#utility.yul\":24639:24658   */\n      swap1\n      pop\n        /* \"#utility.yul\":24298:24664   */\n      swap2\n      swap1\n      pop\n      jump\t// out\n        /* \"#utility.yul\":24670:25089   */\n    tag_231:\n        /* \"#utility.yul\":24836:24840   */\n      0x00\n        /* \"#utility.yul\":24874:24876   */\n      0x20\n        /* \"#utility.yul\":24863:24872   */\n      dup3\n        /* \"#utility.yul\":24859:24877   */\n      add\n        /* \"#utility.yul\":24851:24877   */\n      swap1\n      pop\n        /* \"#utility.yul\":24923:24932   */\n      dup2\n        /* \"#utility.yul\":24917:24921   */\n      dup2\n        /* \"#utility.yul\":24913:24933   */\n      sub\n        /* \"#utility.yul\":24909:24910   */\n      0x00\n        /* \"#utility.yul\":24898:24907   */\n      dup4\n        /* \"#utility.yul\":24894:24911   */\n      add\n        /* \"#utility.yul\":24887:24934   */\n      mstore\n        /* \"#utility.yul\":24951:25082   */\n      tag_526\n        /* \"#utility.yul\":25077:25081   */\n      dup2\n        /* \"#utility.yul\":24951:25082   */\n      tag_324\n      jump\t// in\n    tag_526:\n        /* \"#utility.yul\":24943:25082   */\n      swap1\n      pop\n        /* \"#utility.yul\":24670:25089   */\n      swap2\n      swap1\n      pop\n      jump\t// out\n        /* \"#utility.yul\":25095:25258   */\n    tag_325:\n        /* \"#utility.yul\":25235:25250   */\n      0x416c726561647920656e64656400000000000000000000000000000000000000\n        /* \"#utility.yul\":25231:25232   */\n      0x00\n        /* \"#utility.yul\":25223:25229   */\n      dup3\n        /* \"#utility.yul\":25219:25233   */\n      add\n        /* \"#utility.yul\":25212:25251   */\n      mstore\n        /* \"#utility.yul\":25095:25258   */\n      pop\n      jump\t// out\n        /* \"#utility.yul\":25264:25630   */\n    tag_326:\n        /* \"#utility.yul\":25406:25409   */\n      0x00\n        /* \"#utility.yul\":25427:25494   */\n      tag_529\n        /* \"#utility.yul\":25491:25493   */\n      0x0d\n        /* \"#utility.yul\":25486:25489   */\n      dup4\n        /* \"#utility.yul\":25427:25494   */\n      tag_264\n      jump\t// in\n    tag_529:\n        /* \"#utility.yul\":25420:25494   */\n      swap2\n      pop\n        /* \"#utility.yul\":25503:25596   */\n      tag_530\n        /* \"#utility.yul\":25592:25595   */\n      dup3\n        /* \"#utility.yul\":25503:25596   */\n      tag_325\n      jump\t// in\n    tag_530:\n        /* \"#utility.yul\":25621:25623   */\n      0x20\n        /* \"#utility.yul\":25616:25619   */\n      dup3\n        /* \"#utility.yul\":25612:25624   */\n      add\n        /* \"#utility.yul\":25605:25624   */\n      swap1\n      pop\n        /* \"#utility.yul\":25264:25630   */\n      swap2\n      swap1\n      pop\n      jump\t// out\n        /* \"#utility.yul\":25636:26055   */\n    tag_254:\n        /* \"#utility.yul\":25802:25806   */\n      0x00\n        /* \"#utility.yul\":25840:25842   */\n      0x20\n        /* \"#utility.yul\":25829:25838   */\n      dup3\n        /* \"#utility.yul\":25825:25843   */\n      add\n        /* \"#utility.yul\":25817:25843   */\n      swap1\n      pop\n        /* \"#utility.yul\":25889:25898   */\n      dup2\n        /* \"#utility.yul\":25883:25887   */\n      dup2\n        /* \"#utility.yul\":25879:25899   */\n      sub\n        /* \"#utility.yul\":25875:25876   */\n      0x00\n        /* \"#utility.yul\":25864:25873   */\n      dup4\n        /* \"#utility.yul\":25860:25877   */\n      add\n        /* \"#utility.yul\":25853:25900   */\n      mstore\n        /* \"#utility.yul\":25917:26048   */\n      tag_532\n        /* \"#utility.yul\":26043:26047   */\n      dup2\n        /* \"#utility.yul\":25917:26048   */\n      tag_326\n      jump\t// in\n    tag_532:\n        /* \"#utility.yul\":25909:26048   */\n      swap1\n      pop\n        /* \"#utility.yul\":25636:26055   */\n      swap2\n      swap1\n      pop\n      jump\t// out\n        /* \"#utility.yul\":26061:26236   */\n    tag_327:\n        /* \"#utility.yul\":26201:26228   */\n      0x5472616e7366657220746f2073656c6c6572206661696c656400000000000000\n        /* \"#utility.yul\":26197:26198   */\n      0x00\n        /* \"#utility.yul\":26189:26195   */\n      dup3\n        /* \"#utility.yul\":26185:26199   */\n      add\n        /* \"#utility.yul\":26178:26229   */\n      mstore\n        /* \"#utility.yul\":26061:26236   */\n      pop\n      jump\t// out\n        /* \"#utility.yul\":26242:26608   */\n    tag_328:\n        /* \"#utility.yul\":26384:26387   */\n      0x00\n        /* \"#utility.yul\":26405:26472   */\n      tag_535\n        /* \"#utility.yul\":26469:26471   */\n      0x19\n        /* \"#utility.yul\":26464:26467   */\n      dup4\n        /* \"#utility.yul\":26405:26472   */\n      tag_264\n      jump\t// in\n    tag_535:\n        /* \"#utility.yul\":26398:26472   */\n      swap2\n      pop\n        /* \"#utility.yul\":26481:26574   */\n      tag_536\n        /* \"#utility.yul\":26570:26573   */\n      dup3\n        /* \"#utility.yul\":26481:26574   */\n      tag_327\n      jump\t// in\n    tag_536:\n        /* \"#utility.yul\":26599:26601   */\n      0x20\n        /* \"#utility.yul\":26594:26597   */\n      dup3\n        /* \"#utility.yul\":26590:26602   */\n      add\n        /* \"#utility.yul\":26583:26602   */\n      swap1\n      pop\n        /* \"#utility.yul\":26242:26608   */\n      swap2\n      swap1\n      pop\n      jump\t// out\n        /* \"#utility.yul\":26614:27033   */\n    tag_263:\n        /* \"#utility.yul\":26780:26784   */\n      0x00\n        /* \"#utility.yul\":26818:26820   */\n      0x20\n        /* \"#utility.yul\":26807:26816   */\n      dup3\n        /* \"#utility.yul\":26803:26821   */\n      add\n        /* \"#utility.yul\":26795:26821   */\n      swap1\n      pop\n        /* \"#utility.yul\":26867:26876   */\n      dup2\n        /* \"#utility.yul\":26861:26865   */\n      dup2\n        /* \"#utility.yul\":26857:26877   */\n      sub\n        /* \"#utility.yul\":26853:26854   */\n      0x00\n        /* \"#utility.yul\":26842:26851   */\n      dup4\n        /* \"#utility.yul\":26838:26855   */\n      add\n        /* \"#utility.yul\":26831:26878   */\n      mstore\n        /* \"#utility.yul\":26895:27026   */\n      tag_538\n        /* \"#utility.yul\":27021:27025   */\n      dup2\n        /* \"#utility.yul\":26895:27026   */\n      tag_328\n      jump\t// in\n    tag_538:\n        /* \"#utility.yul\":26887:27026   */\n      swap1\n      pop\n        /* \"#utility.yul\":26614:27033   */\n      swap2\n      swap1\n      pop\n      jump\t// out\n\n    auxdata: 0xa2646970667358221220e3e47b0ebf4fe31af5bc1978eac52276c86d7e3465b7d31c888956e01b6ca5d464736f6c634300081e0033\n}\n",
				"bytecode": {
					"linkReferences": {},
					"object": "60806040526040516127fe3803806127fe83398181016040528101906100259190610190565b5f8111610067576040517f08c379a000000000000000000000000000000000000000000000000000000000815260040161005e9061024e565b60405180910390fd5b4282116100a9576040517f08c379a00000000000000000000000000000000000000000000000000000000081526004016100a0906102b6565b60405180910390fd5b61a8c08111156100ee576040517f08c379a00000000000000000000000000000000000000000000000000000000081526004016100e59061031e565b60405180910390fd5b335f5f6101000a81548173ffffffffffffffffffffffffffffffffffffffff021916908373ffffffffffffffffffffffffffffffffffffffff16021790555081600381905550603c816101419190610369565b8261014c91906103aa565b60048190555050506103dd565b5f5ffd5b5f819050919050565b61016f8161015d565b8114610179575f5ffd5b50565b5f8151905061018a81610166565b92915050565b5f5f604083850312156101a6576101a5610159565b5b5f6101b38582860161017c565b92505060206101c48582860161017c565b9150509250929050565b5f82825260208201905092915050565b7f4475726174696f6e206d7573742062652067726561746572207468616e207a655f8201527f726f000000000000000000000000000000000000000000000000000000000000602082015250565b5f6102386022836101ce565b9150610243826101de565b604082019050919050565b5f6020820190508181035f8301526102658161022c565b9050919050565b7f53746172742074696d65206d75737420626520696e20667574757265000000005f82015250565b5f6102a0601c836101ce565b91506102ab8261026c565b602082019050919050565b5f6020820190508181035f8301526102cd81610294565b9050919050565b7f4475726174696f6e20746f6f206c6f6e670000000000000000000000000000005f82015250565b5f6103086011836101ce565b9150610313826102d4565b602082019050919050565b5f6020820190508181035f830152610335816102fc565b9050919050565b7f4e487b71000000000000000000000000000000000000000000000000000000005f52601160045260245ffd5b5f6103738261015d565b915061037e8361015d565b925082820261038c8161015d565b915082820484148315176103a3576103a261033c565b5b5092915050565b5f6103b48261015d565b91506103bf8361015d565b92508282019050808211156103d7576103d661033c565b5b92915050565b612414806103ea5f395ff3fe608060405260043610610138575f3560e01c806378e97925116100aa578063b7e032641161006e578063b7e032641461040b578063cc6bee5414610436578063cf6e196614610460578063d57bde791461049c578063fc7e286d146104c6578063fe67a54b1461050257610178565b806378e97925146103255780637eb79d5d1461034f5780638a72ea6a146103795780639003adfe146103b757806391f90157146103e157610178565b806336c2780b116100fc57806336c2780b14610251578063476343ee146102675780635230a4c31461027d578063534823bf146102a75780635681104a146102d1578063654e4685146102fb57610178565b806308551a53146101b3578063117df088146101dd57806312fa6feb146101f35780631998aeef1461021d5780633197cbb61461022757610178565b36610178576040517f08c379a000000000000000000000000000000000000000000000000000000000815260040161016f90611837565b60405180910390fd5b6040517f08c379a00000000000000000000000000000000000000000000000000000000081526004016101aa906118c5565b60405180910390fd5b3480156101be575f5ffd5b506101c7610518565b6040516101d49190611922565b60405180910390f35b3480156101e8575f5ffd5b506101f161053c565b005b3480156101fe575f5ffd5b506102076108af565b6040516102149190611955565b60405180910390f35b6102256108c1565b005b348015610232575f5ffd5b5061023b610ccb565b6040516102489190611986565b60405180910390f35b34801561025c575f5ffd5b50610265610cd1565b005b348015610272575f5ffd5b5061027b61100e565b005b348015610288575f5ffd5b5061029161123c565b60405161029e9190611986565b60405180910390f35b3480156102b2575f5ffd5b506102bb611241565b6040516102c89190611ab6565b60405180910390f35b3480156102dc575f5ffd5b506102e5611305565b6040516102f29190611986565b60405180910390f35b348015610306575f5ffd5b5061030f61130b565b60405161031c9190611986565b60405180910390f35b348015610330575f5ffd5b50610339611310565b6040516103469190611986565b60405180910390f35b34801561035a575f5ffd5b50610363611316565b6040516103709190611986565b60405180910390f35b348015610384575f5ffd5b5061039f600480360381019061039a9190611b04565b61131c565b6040516103ae93929190611b3e565b60405180910390f35b3480156103c2575f5ffd5b506103cb611370565b6040516103d89190611986565b60405180910390f35b3480156103ec575f5ffd5b506103f5611376565b6040516104029190611b73565b60405180910390f35b348015610416575f5ffd5b5061041f61139b565b60405161042d929190611b8c565b60405180910390f35b348015610441575f5ffd5b5061044a611425565b6040516104579190611986565b60405180910390f35b34801561046b575f5ffd5b5061048660048036038101906104819190611bdd565b611431565b6040516104939190611986565b60405180910390f35b3480156104a7575f5ffd5b506104b0611446565b6040516104bd9190611986565b60405180910390f35b3480156104d1575f5ffd5b506104ec60048036038101906104e79190611bdd565b61144c565b6040516104f99190611986565b60405180910390f35b34801561050d575f5ffd5b50610516611461565b005b5f5f9054906101000a900473ffffffffffffffffffffffffffffffffffffffff1681565b60045442101580610558575060055f9054906101000a900460ff165b610597576040517f08c379a000000000000000000000000000000000000000000000000000000000815260040161058e90611c52565b60405180910390fd5b60015f9054906101000a900473ffffffffffffffffffffffffffffffffffffffff1673ffffffffffffffffffffffffffffffffffffffff163373ffffffffffffffffffffffffffffffffffffffff1603610626576040517f08c379a000000000000000000000000000000000000000000000000000000000815260040161061d90611cba565b60405180910390fd5b600560019054906101000a900460ff1615610676576040517f08c379a000000000000000000000000000000000000000000000000000000000815260040161066d90611d22565b60405180910390fd5b6001600560016101000a81548160ff0219169083151502179055505f60075f3373ffffffffffffffffffffffffffffffffffffffff1673ffffffffffffffffffffffffffffffffffffffff1681526020019081526020015f205490505f8111610714576040517f08c379a000000000000000000000000000000000000000000000000000000000815260040161070b90611d8a565b60405180910390fd5b5f60075f3373ffffffffffffffffffffffffffffffffffffffff1673ffffffffffffffffffffffffffffffffffffffff1681526020019081526020015f20819055505f60646002836107669190611dd5565b6107709190611e43565b90505f818361077f9190611e73565b90508160095f8282546107929190611ea6565b925050819055505f3373ffffffffffffffffffffffffffffffffffffffff16826040516107be90611f06565b5f6040518083038185875af1925050503d805f81146107f8576040519150601f19603f3d011682016040523d82523d5f602084013e6107fd565b606091505b5050905080610841576040517f08c379a000000000000000000000000000000000000000000000000000000000815260040161083890611f64565b60405180910390fd5b3373ffffffffffffffffffffffffffffffffffffffff167f7fcf532c15f0a6db0bd6d0e038bea71d30d808c7d98cb3bf7268a95bf5081b65836040516108879190611986565b60405180910390a2505050505f600560016101000a81548160ff021916908315150217905550565b60055f9054906101000a900460ff1681565b60055f9054906101000a900460ff161580156108df57506003544210155b80156108ec575060045442105b61092b576040517f08c379a000000000000000000000000000000000000000000000000000000000815260040161092290611fcc565b60405180910390fd5b600560019054906101000a900460ff161561097b576040517f08c379a000000000000000000000000000000000000000000000000000000000815260040161097290611d22565b60405180910390fd5b6001600560016101000a81548160ff0219169083151502179055505f34116109d8576040517f08c379a00000000000000000000000000000000000000000000000000000000081526004016109cf90612034565b60405180910390fd5b5f3460075f3373ffffffffffffffffffffffffffffffffffffffff1673ffffffffffffffffffffffffffffffffffffffff1681526020019081526020015f2054610a229190611ea6565b90505f5f60025414610a4e5760646069600254610a3f9190611dd5565b610a499190611e43565b610a50565b5f5b9050808211610a94576040517f08c379a0000000000000000000000000000000000000000000000000000000008152600401610a8b906120c2565b60405180910390fd5b3460075f3373ffffffffffffffffffffffffffffffffffffffff1673ffffffffffffffffffffffffffffffffffffffff1681526020019081526020015f205f828254610ae09190611ea6565b92505081905550600660405180606001604052803373ffffffffffffffffffffffffffffffffffffffff16815260200134815260200142815250908060018154018082558091505060019003905f5260205f2090600302015f909190919091505f820151815f015f6101000a81548173ffffffffffffffffffffffffffffffffffffffff021916908373ffffffffffffffffffffffffffffffffffffffff160217905550602082015181600101556040820151816002015550506001600680549050610bac9190611e73565b60085f3373ffffffffffffffffffffffffffffffffffffffff1673ffffffffffffffffffffffffffffffffffffffff1681526020019081526020015f2081905550816002819055503360015f6101000a81548173ffffffffffffffffffffffffffffffffffffffff021916908373ffffffffffffffffffffffffffffffffffffffff16021790555061025842600454610c459190611e73565b11610c5f5761025842610c589190611ea6565b6004819055505b3373ffffffffffffffffffffffffffffffffffffffff167f058d619527549e88853c641ebcec23205e5df61592e3908275721b5ad490113f83604051610ca59190611986565b60405180910390a250505f600560016101000a81548160ff021916908315150217905550565b60045481565b60055f9054906101000a900460ff16158015610cef57506003544210155b8015610cfc575060045442105b610d3b576040517f08c379a0000000000000000000000000000000000000000000000000000000008152600401610d3290611fcc565b60405180910390fd5b600560019054906101000a900460ff1615610d8b576040517f08c379a0000000000000000000000000000000000000000000000000000000008152600401610d8290611d22565b60405180910390fd5b6001600560016101000a81548160ff02191690831515021790555060015f9054906101000a900473ffffffffffffffffffffffffffffffffffffffff1673ffffffffffffffffffffffffffffffffffffffff163373ffffffffffffffffffffffffffffffffffffffff1603610e35576040517f08c379a0000000000000000000000000000000000000000000000000000000008152600401610e2c90612150565b60405180910390fd5b5f60075f3373ffffffffffffffffffffffffffffffffffffffff1673ffffffffffffffffffffffffffffffffffffffff1681526020019081526020015f205490505f8111610eb8576040517f08c379a0000000000000000000000000000000000000000000000000000000008152600401610eaf906121b8565b60405180910390fd5b5f60075f3373ffffffffffffffffffffffffffffffffffffffff1673ffffffffffffffffffffffffffffffffffffffff1681526020019081526020015f20819055505f3373ffffffffffffffffffffffffffffffffffffffff1682604051610f1f90611f06565b5f6040518083038185875af1925050503d805f8114610f59576040519150601f19603f3d011682016040523d82523d5f602084013e610f5e565b606091505b5050905080610fa2576040517f08c379a0000000000000000000000000000000000000000000000000000000008152600401610f9990611f64565b60405180910390fd5b3373ffffffffffffffffffffffffffffffffffffffff167f7fcf532c15f0a6db0bd6d0e038bea71d30d808c7d98cb3bf7268a95bf5081b6583604051610fe89190611986565b60405180910390a250505f600560016101000a81548160ff021916908315150217905550565b5f5f9054906101000a900473ffffffffffffffffffffffffffffffffffffffff1673ffffffffffffffffffffffffffffffffffffffff163373ffffffffffffffffffffffffffffffffffffffff161461109c576040517f08c379a000000000000000000000000000000000000000000000000000000000815260040161109390612220565b60405180910390fd5b600560019054906101000a900460ff16156110ec576040517f08c379a00000000000000000000000000000000000000000000000000000000081526004016110e390611d22565b60405180910390fd5b6001600560016101000a81548160ff0219169083151502179055505f60095490505f811161114f576040517f08c379a000000000000000000000000000000000000000000000000000000000815260040161114690612288565b60405180910390fd5b5f6009819055505f5f5f9054906101000a900473ffffffffffffffffffffffffffffffffffffffff1673ffffffffffffffffffffffffffffffffffffffff168260405161119b90611f06565b5f6040518083038185875af1925050503d805f81146111d5576040519150601f19603f3d011682016040523d82523d5f602084013e6111da565b606091505b505090508061121e576040517f08c379a0000000000000000000000000000000000000000000000000000000008152600401611215906122f0565b60405180910390fd5b50505f600560016101000a81548160ff021916908315150217905550565b600281565b60606006805480602002602001604051908101604052809291908181526020015f905b828210156112fc578382905f5260205f2090600302016040518060600160405290815f82015f9054906101000a900473ffffffffffffffffffffffffffffffffffffffff1673ffffffffffffffffffffffffffffffffffffffff1673ffffffffffffffffffffffffffffffffffffffff1681526020016001820154815260200160028201548152505081526020019060010190611264565b50505050905090565b61025881565b606981565b60035481565b61025881565b6006818154811061132b575f80fd5b905f5260205f2090600302015f91509050805f015f9054906101000a900473ffffffffffffffffffffffffffffffffffffffff16908060010154908060020154905083565b60095481565b60015f9054906101000a900473ffffffffffffffffffffffffffffffffffffffff1681565b5f5f600454421015806113b9575060055f9054906101000a900460ff165b6113f8576040517f08c379a00000000000000000000000000000000000000000000000000000000081526004016113ef90611c52565b60405180910390fd5b60015f9054906101000a900473ffffffffffffffffffffffffffffffffffffffff16600254915091509091565b5f600680549050905090565b6008602052805f5260405f205f915090505481565b60025481565b6007602052805f5260405f205f915090505481565b6004544210158061147d575060055f9054906101000a900460ff165b6114bc576040517f08c379a00000000000000000000000000000000000000000000000000000000081526004016114b390611c52565b60405180910390fd5b600560019054906101000a900460ff161561150c576040517f08c379a000000000000000000000000000000000000000000000000000000000815260040161150390611d22565b60405180910390fd5b6001600560016101000a81548160ff02191690831515021790555060055f9054906101000a900460ff1615611576576040517f08c379a000000000000000000000000000000000000000000000000000000000815260040161156d90612358565b60405180910390fd5b600160055f6101000a81548160ff02191690831515021790555060015f9054906101000a900473ffffffffffffffffffffffffffffffffffffffff1673ffffffffffffffffffffffffffffffffffffffff167fdaec4582d5d9595688c8c98545fdd1c696d41c6aeaeb636737e84ed2f5c00eda6002546040516115f99190611986565b60405180910390a25f600254111561179b575f60075f60015f9054906101000a900473ffffffffffffffffffffffffffffffffffffffff1673ffffffffffffffffffffffffffffffffffffffff1673ffffffffffffffffffffffffffffffffffffffff1681526020019081526020015f205490505f60075f60015f9054906101000a900473ffffffffffffffffffffffffffffffffffffffff1673ffffffffffffffffffffffffffffffffffffffff1673ffffffffffffffffffffffffffffffffffffffff1681526020019081526020015f20819055505f5f5f9054906101000a900473ffffffffffffffffffffffffffffffffffffffff1673ffffffffffffffffffffffffffffffffffffffff168260405161171590611f06565b5f6040518083038185875af1925050503d805f811461174f576040519150601f19603f3d011682016040523d82523d5f602084013e611754565b606091505b5050905080611798576040517f08c379a000000000000000000000000000000000000000000000000000000000815260040161178f906123c0565b60405180910390fd5b50505b5f600560016101000a81548160ff021916908315150217905550565b5f82825260208201905092915050565b7f506c6561736520757365207468652062696428292066756e6374696f6e20746f5f8201527f2070617274696369706174652e00000000000000000000000000000000000000602082015250565b5f611821602d836117b7565b915061182c826117c7565b604082019050919050565b5f6020820190508181035f83015261184e81611815565b9050919050565b7f496e76616c69642063616c6c2e205573652074686520636f72726563742066755f8201527f6e6374696f6e2e00000000000000000000000000000000000000000000000000602082015250565b5f6118af6027836117b7565b91506118ba82611855565b604082019050919050565b5f6020820190508181035f8301526118dc816118a3565b9050919050565b5f73ffffffffffffffffffffffffffffffffffffffff82169050919050565b5f61190c826118e3565b9050919050565b61191c81611902565b82525050565b5f6020820190506119355f830184611913565b92915050565b5f8115159050919050565b61194f8161193b565b82525050565b5f6020820190506119685f830184611946565b92915050565b5f819050919050565b6119808161196e565b82525050565b5f6020820190506119995f830184611977565b92915050565b5f81519050919050565b5f82825260208201905092915050565b5f819050602082019050919050565b5f6119d2826118e3565b9050919050565b6119e2816119c8565b82525050565b6119f18161196e565b82525050565b606082015f820151611a0b5f8501826119d9565b506020820151611a1e60208501826119e8565b506040820151611a3160408501826119e8565b50505050565b5f611a4283836119f7565b60608301905092915050565b5f602082019050919050565b5f611a648261199f565b611a6e81856119a9565b9350611a79836119b9565b805f5b83811015611aa9578151611a908882611a37565b9750611a9b83611a4e565b925050600181019050611a7c565b5085935050505092915050565b5f6020820190508181035f830152611ace8184611a5a565b905092915050565b5f5ffd5b611ae38161196e565b8114611aed575f5ffd5b50565b5f81359050611afe81611ada565b92915050565b5f60208284031215611b1957611b18611ad6565b5b5f611b2684828501611af0565b91505092915050565b611b38816119c8565b82525050565b5f606082019050611b515f830186611b2f565b611b5e6020830185611977565b611b6b6040830184611977565b949350505050565b5f602082019050611b865f830184611b2f565b92915050565b5f604082019050611b9f5f830185611b2f565b611bac6020830184611977565b9392505050565b611bbc816119c8565b8114611bc6575f5ffd5b50565b5f81359050611bd781611bb3565b92915050565b5f60208284031215611bf257611bf1611ad6565b5b5f611bff84828501611bc9565b91505092915050565b7f41756374696f6e206e6f742079657420656e64656400000000000000000000005f82015250565b5f611c3c6015836117b7565b9150611c4782611c08565b602082019050919050565b5f6020820190508181035f830152611c6981611c30565b9050919050565b7f57696e6e65722063616e6e6f7420776974686472617720726566756e640000005f82015250565b5f611ca4601d836117b7565b9150611caf82611c70565b602082019050919050565b5f6020820190508181035f830152611cd181611c98565b9050919050565b7f5265656e7472616e6379206775617264000000000000000000000000000000005f82015250565b5f611d0c6010836117b7565b9150611d1782611cd8565b602082019050919050565b5f6020820190508181035f830152611d3981611d00565b9050919050565b7f4e6f2066756e647320746f2077697468647261770000000000000000000000005f82015250565b5f611d746014836117b7565b9150611d7f82611d40565b602082019050919050565b5f6020820190508181035f830152611da181611d68565b9050919050565b7f4e487b71000000000000000000000000000000000000000000000000000000005f52601160045260245ffd5b5f611ddf8261196e565b9150611dea8361196e565b9250828202611df88161196e565b91508282048414831517611e0f57611e0e611da8565b5b5092915050565b7f4e487b71000000000000000000000000000000000000000000000000000000005f52601260045260245ffd5b5f611e4d8261196e565b9150611e588361196e565b925082611e6857611e67611e16565b5b828204905092915050565b5f611e7d8261196e565b9150611e888361196e565b9250828203905081811115611ea057611e9f611da8565b5b92915050565b5f611eb08261196e565b9150611ebb8361196e565b9250828201905080821115611ed357611ed2611da8565b5b92915050565b5f81905092915050565b50565b5f611ef15f83611ed9565b9150611efc82611ee3565b5f82019050919050565b5f611f1082611ee6565b9150819050919050565b7f5472616e73666572206661696c656400000000000000000000000000000000005f82015250565b5f611f4e600f836117b7565b9150611f5982611f1a565b602082019050919050565b5f6020820190508181035f830152611f7b81611f42565b9050919050565b7f41756374696f6e206973206e6f742061637469766500000000000000000000005f82015250565b5f611fb66015836117b7565b9150611fc182611f82565b602082019050919050565b5f6020820190508181035f830152611fe381611faa565b9050919050565b7f426964206d7573742062652067726561746572207468616e20300000000000005f82015250565b5f61201e601a836117b7565b915061202982611fea565b602082019050919050565b5f6020820190508181035f83015261204b81612012565b9050919050565b7f426964206d757374206265206174206c656173742035252068696768657220745f8201527f68616e2068696768657374206269640000000000000000000000000000000000602082015250565b5f6120ac602f836117b7565b91506120b782612052565b604082019050919050565b5f6020820190508181035f8301526120d9816120a0565b9050919050565b7f43757272656e742068696768657374206269646465722063616e6e6f742077695f8201527f7468647261770000000000000000000000000000000000000000000000000000602082015250565b5f61213a6026836117b7565b9150612145826120e0565b604082019050919050565b5f6020820190508181035f8301526121678161212e565b9050919050565b7f4e6f206578636573732066756e647320746f20776974686472617700000000005f82015250565b5f6121a2601b836117b7565b91506121ad8261216e565b602082019050919050565b5f6020820190508181035f8301526121cf81612196565b9050919050565b7f4f6e6c792073656c6c65722063616e2063616c6c0000000000000000000000005f82015250565b5f61220a6014836117b7565b9150612215826121d6565b602082019050919050565b5f6020820190508181035f830152612237816121fe565b9050919050565b7f4e6f206665657320746f207769746864726177000000000000000000000000005f82015250565b5f6122726013836117b7565b915061227d8261223e565b602082019050919050565b5f6020820190508181035f83015261229f81612266565b9050919050565b7f466565207472616e73666572206661696c6564000000000000000000000000005f82015250565b5f6122da6013836117b7565b91506122e5826122a6565b602082019050919050565b5f6020820190508181035f830152612307816122ce565b9050919050565b7f416c726561647920656e646564000000000000000000000000000000000000005f82015250565b5f612342600d836117b7565b915061234d8261230e565b602082019050919050565b5f6020820190508181035f83015261236f81612336565b9050919050565b7f5472616e7366657220746f2073656c6c6572206661696c6564000000000000005f82015250565b5f6123aa6019836117b7565b91506123b582612376565b602082019050919050565b5f6020820190508181035f8301526123d78161239e565b905091905056fea2646970667358221220e3e47b0ebf4fe31af5bc1978eac52276c86d7e3465b7d31c888956e01b6ca5d464736f6c634300081e0033",
					"opcodes": "PUSH1 0x80 PUSH1 0x40 MSTORE PUSH1 0x40 MLOAD PUSH2 0x27FE CODESIZE SUB DUP1 PUSH2 0x27FE DUP4 CODECOPY DUP2 DUP2 ADD PUSH1 0x40 MSTORE DUP2 ADD SWAP1 PUSH2 0x25 SWAP2 SWAP1 PUSH2 0x190 JUMP JUMPDEST PUSH0 DUP2 GT PUSH2 0x67 JUMPI PUSH1 0x40 MLOAD PUSH32 0x8C379A000000000000000000000000000000000000000000000000000000000 DUP2 MSTORE PUSH1 0x4 ADD PUSH2 0x5E SWAP1 PUSH2 0x24E JUMP JUMPDEST PUSH1 0x40 MLOAD DUP1 SWAP2 SUB SWAP1 REVERT JUMPDEST TIMESTAMP DUP3 GT PUSH2 0xA9 JUMPI PUSH1 0x40 MLOAD PUSH32 0x8C379A000000000000000000000000000000000000000000000000000000000 DUP2 MSTORE PUSH1 0x4 ADD PUSH2 0xA0 SWAP1 PUSH2 0x2B6 JUMP JUMPDEST PUSH1 0x40 MLOAD DUP1 SWAP2 SUB SWAP1 REVERT JUMPDEST PUSH2 0xA8C0 DUP2 GT ISZERO PUSH2 0xEE JUMPI PUSH1 0x40 MLOAD PUSH32 0x8C379A000000000000000000000000000000000000000000000000000000000 DUP2 MSTORE PUSH1 0x4 ADD PUSH2 0xE5 SWAP1 PUSH2 0x31E JUMP JUMPDEST PUSH1 0x40 MLOAD DUP1 SWAP2 SUB SWAP1 REVERT JUMPDEST CALLER PUSH0 PUSH0 PUSH2 0x100 EXP DUP2 SLOAD DUP2 PUSH20 0xFFFFFFFFFFFFFFFFFFFFFFFFFFFFFFFFFFFFFFFF MUL NOT AND SWAP1 DUP4 PUSH20 0xFFFFFFFFFFFFFFFFFFFFFFFFFFFFFFFFFFFFFFFF AND MUL OR SWAP1 SSTORE POP DUP2 PUSH1 0x3 DUP2 SWAP1 SSTORE POP PUSH1 0x3C DUP2 PUSH2 0x141 SWAP2 SWAP1 PUSH2 0x369 JUMP JUMPDEST DUP3 PUSH2 0x14C SWAP2 SWAP1 PUSH2 0x3AA JUMP JUMPDEST PUSH1 0x4 DUP2 SWAP1 SSTORE POP POP POP PUSH2 0x3DD JUMP JUMPDEST PUSH0 PUSH0 REVERT JUMPDEST PUSH0 DUP2 SWAP1 POP SWAP2 SWAP1 POP JUMP JUMPDEST PUSH2 0x16F DUP2 PUSH2 0x15D JUMP JUMPDEST DUP2 EQ PUSH2 0x179 JUMPI PUSH0 PUSH0 REVERT JUMPDEST POP JUMP JUMPDEST PUSH0 DUP2 MLOAD SWAP1 POP PUSH2 0x18A DUP2 PUSH2 0x166 JUMP JUMPDEST SWAP3 SWAP2 POP POP JUMP JUMPDEST PUSH0 PUSH0 PUSH1 0x40 DUP4 DUP6 SUB SLT ISZERO PUSH2 0x1A6 JUMPI PUSH2 0x1A5 PUSH2 0x159 JUMP JUMPDEST JUMPDEST PUSH0 PUSH2 0x1B3 DUP6 DUP3 DUP7 ADD PUSH2 0x17C JUMP JUMPDEST SWAP3 POP POP PUSH1 0x20 PUSH2 0x1C4 DUP6 DUP3 DUP7 ADD PUSH2 0x17C JUMP JUMPDEST SWAP2 POP POP SWAP3 POP SWAP3 SWAP1 POP JUMP JUMPDEST PUSH0 DUP3 DUP3 MSTORE PUSH1 0x20 DUP3 ADD SWAP1 POP SWAP3 SWAP2 POP POP JUMP JUMPDEST PUSH32 0x4475726174696F6E206D7573742062652067726561746572207468616E207A65 PUSH0 DUP3 ADD MSTORE PUSH32 0x726F000000000000000000000000000000000000000000000000000000000000 PUSH1 0x20 DUP3 ADD MSTORE POP JUMP JUMPDEST PUSH0 PUSH2 0x238 PUSH1 0x22 DUP4 PUSH2 0x1CE JUMP JUMPDEST SWAP2 POP PUSH2 0x243 DUP3 PUSH2 0x1DE JUMP JUMPDEST PUSH1 0x40 DUP3 ADD SWAP1 POP SWAP2 SWAP1 POP JUMP JUMPDEST PUSH0 PUSH1 0x20 DUP3 ADD SWAP1 POP DUP2 DUP2 SUB PUSH0 DUP4 ADD MSTORE PUSH2 0x265 DUP2 PUSH2 0x22C JUMP JUMPDEST SWAP1 POP SWAP2 SWAP1 POP JUMP JUMPDEST PUSH32 0x53746172742074696D65206D75737420626520696E2066757475726500000000 PUSH0 DUP3 ADD MSTORE POP JUMP JUMPDEST PUSH0 PUSH2 0x2A0 PUSH1 0x1C DUP4 PUSH2 0x1CE JUMP JUMPDEST SWAP2 POP PUSH2 0x2AB DUP3 PUSH2 0x26C JUMP JUMPDEST PUSH1 0x20 DUP3 ADD SWAP1 POP SWAP2 SWAP1 POP JUMP JUMPDEST PUSH0 PUSH1 0x20 DUP3 ADD SWAP1 POP DUP2 DUP2 SUB PUSH0 DUP4 ADD MSTORE PUSH2 0x2CD DUP2 PUSH2 0x294 JUMP JUMPDEST SWAP1 POP SWAP2 SWAP1 POP JUMP JUMPDEST PUSH32 0x4475726174696F6E20746F6F206C6F6E67000000000000000000000000000000 PUSH0 DUP3 ADD MSTORE POP JUMP JUMPDEST PUSH0 PUSH2 0x308 PUSH1 0x11 DUP4 PUSH2 0x1CE JUMP JUMPDEST SWAP2 POP PUSH2 0x313 DUP3 PUSH2 0x2D4 JUMP JUMPDEST PUSH1 0x20 DUP3 ADD SWAP1 POP SWAP2 SWAP1 POP JUMP JUMPDEST PUSH0 PUSH1 0x20 DUP3 ADD SWAP1 POP DUP2 DUP2 SUB PUSH0 DUP4 ADD MSTORE PUSH2 0x335 DUP2 PUSH2 0x2FC JUMP JUMPDEST SWAP1 POP SWAP2 SWAP1 POP JUMP JUMPDEST PUSH32 0x4E487B7100000000000000000000000000000000000000000000000000000000 PUSH0 MSTORE PUSH1 0x11 PUSH1 0x4 MSTORE PUSH1 0x24 PUSH0 REVERT JUMPDEST PUSH0 PUSH2 0x373 DUP3 PUSH2 0x15D JUMP JUMPDEST SWAP2 POP PUSH2 0x37E DUP4 PUSH2 0x15D JUMP JUMPDEST SWAP3 POP DUP3 DUP3 MUL PUSH2 0x38C DUP2 PUSH2 0x15D JUMP JUMPDEST SWAP2 POP DUP3 DUP3 DIV DUP5 EQ DUP4 ISZERO OR PUSH2 0x3A3 JUMPI PUSH2 0x3A2 PUSH2 0x33C JUMP JUMPDEST JUMPDEST POP SWAP3 SWAP2 POP POP JUMP JUMPDEST PUSH0 PUSH2 0x3B4 DUP3 PUSH2 0x15D JUMP JUMPDEST SWAP2 POP PUSH2 0x3BF DUP4 PUSH2 0x15D JUMP JUMPDEST SWAP3 POP DUP3 DUP3 ADD SWAP1 POP DUP1 DUP3 GT ISZERO PUSH2 0x3D7 JUMPI PUSH2 0x3D6 PUSH2 0x33C JUMP JUMPDEST JUMPDEST SWAP3 SWAP2 POP POP JUMP JUMPDEST PUSH2 0x2414 DUP1 PUSH2 0x3EA PUSH0 CODECOPY PUSH0 RETURN INVALID PUSH1 0x80 PUSH1 0x40 MSTORE PUSH1 0x4 CALLDATASIZE LT PUSH2 0x138 JUMPI PUSH0 CALLDATALOAD PUSH1 0xE0 SHR DUP1 PUSH4 0x78E97925 GT PUSH2 0xAA JUMPI DUP1 PUSH4 0xB7E03264 GT PUSH2 0x6E JUMPI DUP1 PUSH4 0xB7E03264 EQ PUSH2 0x40B JUMPI DUP1 PUSH4 0xCC6BEE54 EQ PUSH2 0x436 JUMPI DUP1 PUSH4 0xCF6E1966 EQ PUSH2 0x460 JUMPI DUP1 PUSH4 0xD57BDE79 EQ PUSH2 0x49C JUMPI DUP1 PUSH4 0xFC7E286D EQ PUSH2 0x4C6 JUMPI DUP1 PUSH4 0xFE67A54B EQ PUSH2 0x502 JUMPI PUSH2 0x178 JUMP JUMPDEST DUP1 PUSH4 0x78E97925 EQ PUSH2 0x325 JUMPI DUP1 PUSH4 0x7EB79D5D EQ PUSH2 0x34F JUMPI DUP1 PUSH4 0x8A72EA6A EQ PUSH2 0x379 JUMPI DUP1 PUSH4 0x9003ADFE EQ PUSH2 0x3B7 JUMPI DUP1 PUSH4 0x91F90157 EQ PUSH2 0x3E1 JUMPI PUSH2 0x178 JUMP JUMPDEST DUP1 PUSH4 0x36C2780B GT PUSH2 0xFC JUMPI DUP1 PUSH4 0x36C2780B EQ PUSH2 0x251 JUMPI DUP1 PUSH4 0x476343EE EQ PUSH2 0x267 JUMPI DUP1 PUSH4 0x5230A4C3 EQ PUSH2 0x27D JUMPI DUP1 PUSH4 0x534823BF EQ PUSH2 0x2A7 JUMPI DUP1 PUSH4 0x5681104A EQ PUSH2 0x2D1 JUMPI DUP1 PUSH4 0x654E4685 EQ PUSH2 0x2FB JUMPI PUSH2 0x178 JUMP JUMPDEST DUP1 PUSH4 0x8551A53 EQ PUSH2 0x1B3 JUMPI DUP1 PUSH4 0x117DF088 EQ PUSH2 0x1DD JUMPI DUP1 PUSH4 0x12FA6FEB EQ PUSH2 0x1F3 JUMPI DUP1 PUSH4 0x1998AEEF EQ PUSH2 0x21D JUMPI DUP1 PUSH4 0x3197CBB6 EQ PUSH2 0x227 JUMPI PUSH2 0x178 JUMP JUMPDEST CALLDATASIZE PUSH2 0x178 JUMPI PUSH1 0x40 MLOAD PUSH32 0x8C379A000000000000000000000000000000000000000000000000000000000 DUP2 MSTORE PUSH1 0x4 ADD PUSH2 0x16F SWAP1 PUSH2 0x1837 JUMP JUMPDEST PUSH1 0x40 MLOAD DUP1 SWAP2 SUB SWAP1 REVERT JUMPDEST PUSH1 0x40 MLOAD PUSH32 0x8C379A000000000000000000000000000000000000000000000000000000000 DUP2 MSTORE PUSH1 0x4 ADD PUSH2 0x1AA SWAP1 PUSH2 0x18C5 JUMP JUMPDEST PUSH1 0x40 MLOAD DUP1 SWAP2 SUB SWAP1 REVERT JUMPDEST CALLVALUE DUP1 ISZERO PUSH2 0x1BE JUMPI PUSH0 PUSH0 REVERT JUMPDEST POP PUSH2 0x1C7 PUSH2 0x518 JUMP JUMPDEST PUSH1 0x40 MLOAD PUSH2 0x1D4 SWAP2 SWAP1 PUSH2 0x1922 JUMP JUMPDEST PUSH1 0x40 MLOAD DUP1 SWAP2 SUB SWAP1 RETURN JUMPDEST CALLVALUE DUP1 ISZERO PUSH2 0x1E8 JUMPI PUSH0 PUSH0 REVERT JUMPDEST POP PUSH2 0x1F1 PUSH2 0x53C JUMP JUMPDEST STOP JUMPDEST CALLVALUE DUP1 ISZERO PUSH2 0x1FE JUMPI PUSH0 PUSH0 REVERT JUMPDEST POP PUSH2 0x207 PUSH2 0x8AF JUMP JUMPDEST PUSH1 0x40 MLOAD PUSH2 0x214 SWAP2 SWAP1 PUSH2 0x1955 JUMP JUMPDEST PUSH1 0x40 MLOAD DUP1 SWAP2 SUB SWAP1 RETURN JUMPDEST PUSH2 0x225 PUSH2 0x8C1 JUMP JUMPDEST STOP JUMPDEST CALLVALUE DUP1 ISZERO PUSH2 0x232 JUMPI PUSH0 PUSH0 REVERT JUMPDEST POP PUSH2 0x23B PUSH2 0xCCB JUMP JUMPDEST PUSH1 0x40 MLOAD PUSH2 0x248 SWAP2 SWAP1 PUSH2 0x1986 JUMP JUMPDEST PUSH1 0x40 MLOAD DUP1 SWAP2 SUB SWAP1 RETURN JUMPDEST CALLVALUE DUP1 ISZERO PUSH2 0x25C JUMPI PUSH0 PUSH0 REVERT JUMPDEST POP PUSH2 0x265 PUSH2 0xCD1 JUMP JUMPDEST STOP JUMPDEST CALLVALUE DUP1 ISZERO PUSH2 0x272 JUMPI PUSH0 PUSH0 REVERT JUMPDEST POP PUSH2 0x27B PUSH2 0x100E JUMP JUMPDEST STOP JUMPDEST CALLVALUE DUP1 ISZERO PUSH2 0x288 JUMPI PUSH0 PUSH0 REVERT JUMPDEST POP PUSH2 0x291 PUSH2 0x123C JUMP JUMPDEST PUSH1 0x40 MLOAD PUSH2 0x29E SWAP2 SWAP1 PUSH2 0x1986 JUMP JUMPDEST PUSH1 0x40 MLOAD DUP1 SWAP2 SUB SWAP1 RETURN JUMPDEST CALLVALUE DUP1 ISZERO PUSH2 0x2B2 JUMPI PUSH0 PUSH0 REVERT JUMPDEST POP PUSH2 0x2BB PUSH2 0x1241 JUMP JUMPDEST PUSH1 0x40 MLOAD PUSH2 0x2C8 SWAP2 SWAP1 PUSH2 0x1AB6 JUMP JUMPDEST PUSH1 0x40 MLOAD DUP1 SWAP2 SUB SWAP1 RETURN JUMPDEST CALLVALUE DUP1 ISZERO PUSH2 0x2DC JUMPI PUSH0 PUSH0 REVERT JUMPDEST POP PUSH2 0x2E5 PUSH2 0x1305 JUMP JUMPDEST PUSH1 0x40 MLOAD PUSH2 0x2F2 SWAP2 SWAP1 PUSH2 0x1986 JUMP JUMPDEST PUSH1 0x40 MLOAD DUP1 SWAP2 SUB SWAP1 RETURN JUMPDEST CALLVALUE DUP1 ISZERO PUSH2 0x306 JUMPI PUSH0 PUSH0 REVERT JUMPDEST POP PUSH2 0x30F PUSH2 0x130B JUMP JUMPDEST PUSH1 0x40 MLOAD PUSH2 0x31C SWAP2 SWAP1 PUSH2 0x1986 JUMP JUMPDEST PUSH1 0x40 MLOAD DUP1 SWAP2 SUB SWAP1 RETURN JUMPDEST CALLVALUE DUP1 ISZERO PUSH2 0x330 JUMPI PUSH0 PUSH0 REVERT JUMPDEST POP PUSH2 0x339 PUSH2 0x1310 JUMP JUMPDEST PUSH1 0x40 MLOAD PUSH2 0x346 SWAP2 SWAP1 PUSH2 0x1986 JUMP JUMPDEST PUSH1 0x40 MLOAD DUP1 SWAP2 SUB SWAP1 RETURN JUMPDEST CALLVALUE DUP1 ISZERO PUSH2 0x35A JUMPI PUSH0 PUSH0 REVERT JUMPDEST POP PUSH2 0x363 PUSH2 0x1316 JUMP JUMPDEST PUSH1 0x40 MLOAD PUSH2 0x370 SWAP2 SWAP1 PUSH2 0x1986 JUMP JUMPDEST PUSH1 0x40 MLOAD DUP1 SWAP2 SUB SWAP1 RETURN JUMPDEST CALLVALUE DUP1 ISZERO PUSH2 0x384 JUMPI PUSH0 PUSH0 REVERT JUMPDEST POP PUSH2 0x39F PUSH1 0x4 DUP1 CALLDATASIZE SUB DUP2 ADD SWAP1 PUSH2 0x39A SWAP2 SWAP1 PUSH2 0x1B04 JUMP JUMPDEST PUSH2 0x131C JUMP JUMPDEST PUSH1 0x40 MLOAD PUSH2 0x3AE SWAP4 SWAP3 SWAP2 SWAP1 PUSH2 0x1B3E JUMP JUMPDEST PUSH1 0x40 MLOAD DUP1 SWAP2 SUB SWAP1 RETURN JUMPDEST CALLVALUE DUP1 ISZERO PUSH2 0x3C2 JUMPI PUSH0 PUSH0 REVERT JUMPDEST POP PUSH2 0x3CB PUSH2 0x1370 JUMP JUMPDEST PUSH1 0x40 MLOAD PUSH2 0x3D8 SWAP2 SWAP1 PUSH2 0x1986 JUMP JUMPDEST PUSH1 0x40 MLOAD DUP1 SWAP2 SUB SWAP1 RETURN JUMPDEST CALLVALUE DUP1 ISZERO PUSH2 0x3EC JUMPI PUSH0 PUSH0 REVERT JUMPDEST POP PUSH2 0x3F5 PUSH2 0x1376 JUMP JUMPDEST PUSH1 0x40 MLOAD PUSH2 0x402 SWAP2 SWAP1 PUSH2 0x1B73 JUMP JUMPDEST PUSH1 0x40 MLOAD DUP1 SWAP2 SUB SWAP1 RETURN JUMPDEST CALLVALUE DUP1 ISZERO PUSH2 0x416 JUMPI PUSH0 PUSH0 REVERT JUMPDEST POP PUSH2 0x41F PUSH2 0x139B JUMP JUMPDEST PUSH1 0x40 MLOAD PUSH2 0x42D SWAP3 SWAP2 SWAP1 PUSH2 0x1B8C JUMP JUMPDEST PUSH1 0x40 MLOAD DUP1 SWAP2 SUB SWAP1 RETURN JUMPDEST CALLVALUE DUP1 ISZERO PUSH2 0x441 JUMPI PUSH0 PUSH0 REVERT JUMPDEST POP PUSH2 0x44A PUSH2 0x1425 JUMP JUMPDEST PUSH1 0x40 MLOAD PUSH2 0x457 SWAP2 SWAP1 PUSH2 0x1986 JUMP JUMPDEST PUSH1 0x40 MLOAD DUP1 SWAP2 SUB SWAP1 RETURN JUMPDEST CALLVALUE DUP1 ISZERO PUSH2 0x46B JUMPI PUSH0 PUSH0 REVERT JUMPDEST POP PUSH2 0x486 PUSH1 0x4 DUP1 CALLDATASIZE SUB DUP2 ADD SWAP1 PUSH2 0x481 SWAP2 SWAP1 PUSH2 0x1BDD JUMP JUMPDEST PUSH2 0x1431 JUMP JUMPDEST PUSH1 0x40 MLOAD PUSH2 0x493 SWAP2 SWAP1 PUSH2 0x1986 JUMP JUMPDEST PUSH1 0x40 MLOAD DUP1 SWAP2 SUB SWAP1 RETURN JUMPDEST CALLVALUE DUP1 ISZERO PUSH2 0x4A7 JUMPI PUSH0 PUSH0 REVERT JUMPDEST POP PUSH2 0x4B0 PUSH2 0x1446 JUMP JUMPDEST PUSH1 0x40 MLOAD PUSH2 0x4BD SWAP2 SWAP1 PUSH2 0x1986 JUMP JUMPDEST PUSH1 0x40 MLOAD DUP1 SWAP2 SUB SWAP1 RETURN JUMPDEST CALLVALUE DUP1 ISZERO PUSH2 0x4D1 JUMPI PUSH0 PUSH0 REVERT JUMPDEST POP PUSH2 0x4EC PUSH1 0x4 DUP1 CALLDATASIZE SUB DUP2 ADD SWAP1 PUSH2 0x4E7 SWAP2 SWAP1 PUSH2 0x1BDD JUMP JUMPDEST PUSH2 0x144C JUMP JUMPDEST PUSH1 0x40 MLOAD PUSH2 0x4F9 SWAP2 SWAP1 PUSH2 0x1986 JUMP JUMPDEST PUSH1 0x40 MLOAD DUP1 SWAP2 SUB SWAP1 RETURN JUMPDEST CALLVALUE DUP1 ISZERO PUSH2 0x50D JUMPI PUSH0 PUSH0 REVERT JUMPDEST POP PUSH2 0x516 PUSH2 0x1461 JUMP JUMPDEST STOP JUMPDEST PUSH0 PUSH0 SWAP1 SLOAD SWAP1 PUSH2 0x100 EXP SWAP1 DIV PUSH20 0xFFFFFFFFFFFFFFFFFFFFFFFFFFFFFFFFFFFFFFFF AND DUP2 JUMP JUMPDEST PUSH1 0x4 SLOAD TIMESTAMP LT ISZERO DUP1 PUSH2 0x558 JUMPI POP PUSH1 0x5 PUSH0 SWAP1 SLOAD SWAP1 PUSH2 0x100 EXP SWAP1 DIV PUSH1 0xFF AND JUMPDEST PUSH2 0x597 JUMPI PUSH1 0x40 MLOAD PUSH32 0x8C379A000000000000000000000000000000000000000000000000000000000 DUP2 MSTORE PUSH1 0x4 ADD PUSH2 0x58E SWAP1 PUSH2 0x1C52 JUMP JUMPDEST PUSH1 0x40 MLOAD DUP1 SWAP2 SUB SWAP1 REVERT JUMPDEST PUSH1 0x1 PUSH0 SWAP1 SLOAD SWAP1 PUSH2 0x100 EXP SWAP1 DIV PUSH20 0xFFFFFFFFFFFFFFFFFFFFFFFFFFFFFFFFFFFFFFFF AND PUSH20 0xFFFFFFFFFFFFFFFFFFFFFFFFFFFFFFFFFFFFFFFF AND CALLER PUSH20 0xFFFFFFFFFFFFFFFFFFFFFFFFFFFFFFFFFFFFFFFF AND SUB PUSH2 0x626 JUMPI PUSH1 0x40 MLOAD PUSH32 0x8C379A000000000000000000000000000000000000000000000000000000000 DUP2 MSTORE PUSH1 0x4 ADD PUSH2 0x61D SWAP1 PUSH2 0x1CBA JUMP JUMPDEST PUSH1 0x40 MLOAD DUP1 SWAP2 SUB SWAP1 REVERT JUMPDEST PUSH1 0x5 PUSH1 0x1 SWAP1 SLOAD SWAP1 PUSH2 0x100 EXP SWAP1 DIV PUSH1 0xFF AND ISZERO PUSH2 0x676 JUMPI PUSH1 0x40 MLOAD PUSH32 0x8C379A000000000000000000000000000000000000000000000000000000000 DUP2 MSTORE PUSH1 0x4 ADD PUSH2 0x66D SWAP1 PUSH2 0x1D22 JUMP JUMPDEST PUSH1 0x40 MLOAD DUP1 SWAP2 SUB SWAP1 REVERT JUMPDEST PUSH1 0x1 PUSH1 0x5 PUSH1 0x1 PUSH2 0x100 EXP DUP2 SLOAD DUP2 PUSH1 0xFF MUL NOT AND SWAP1 DUP4 ISZERO ISZERO MUL OR SWAP1 SSTORE POP PUSH0 PUSH1 0x7 PUSH0 CALLER PUSH20 0xFFFFFFFFFFFFFFFFFFFFFFFFFFFFFFFFFFFFFFFF AND PUSH20 0xFFFFFFFFFFFFFFFFFFFFFFFFFFFFFFFFFFFFFFFF AND DUP2 MSTORE PUSH1 0x20 ADD SWAP1 DUP2 MSTORE PUSH1 0x20 ADD PUSH0 KECCAK256 SLOAD SWAP1 POP PUSH0 DUP2 GT PUSH2 0x714 JUMPI PUSH1 0x40 MLOAD PUSH32 0x8C379A000000000000000000000000000000000000000000000000000000000 DUP2 MSTORE PUSH1 0x4 ADD PUSH2 0x70B SWAP1 PUSH2 0x1D8A JUMP JUMPDEST PUSH1 0x40 MLOAD DUP1 SWAP2 SUB SWAP1 REVERT JUMPDEST PUSH0 PUSH1 0x7 PUSH0 CALLER PUSH20 0xFFFFFFFFFFFFFFFFFFFFFFFFFFFFFFFFFFFFFFFF AND PUSH20 0xFFFFFFFFFFFFFFFFFFFFFFFFFFFFFFFFFFFFFFFF AND DUP2 MSTORE PUSH1 0x20 ADD SWAP1 DUP2 MSTORE PUSH1 0x20 ADD PUSH0 KECCAK256 DUP2 SWAP1 SSTORE POP PUSH0 PUSH1 0x64 PUSH1 0x2 DUP4 PUSH2 0x766 SWAP2 SWAP1 PUSH2 0x1DD5 JUMP JUMPDEST PUSH2 0x770 SWAP2 SWAP1 PUSH2 0x1E43 JUMP JUMPDEST SWAP1 POP PUSH0 DUP2 DUP4 PUSH2 0x77F SWAP2 SWAP1 PUSH2 0x1E73 JUMP JUMPDEST SWAP1 POP DUP2 PUSH1 0x9 PUSH0 DUP3 DUP3 SLOAD PUSH2 0x792 SWAP2 SWAP1 PUSH2 0x1EA6 JUMP JUMPDEST SWAP3 POP POP DUP2 SWAP1 SSTORE POP PUSH0 CALLER PUSH20 0xFFFFFFFFFFFFFFFFFFFFFFFFFFFFFFFFFFFFFFFF AND DUP3 PUSH1 0x40 MLOAD PUSH2 0x7BE SWAP1 PUSH2 0x1F06 JUMP JUMPDEST PUSH0 PUSH1 0x40 MLOAD DUP1 DUP4 SUB DUP2 DUP6 DUP8 GAS CALL SWAP3 POP POP POP RETURNDATASIZE DUP1 PUSH0 DUP2 EQ PUSH2 0x7F8 JUMPI PUSH1 0x40 MLOAD SWAP2 POP PUSH1 0x1F NOT PUSH1 0x3F RETURNDATASIZE ADD AND DUP3 ADD PUSH1 0x40 MSTORE RETURNDATASIZE DUP3 MSTORE RETURNDATASIZE PUSH0 PUSH1 0x20 DUP5 ADD RETURNDATACOPY PUSH2 0x7FD JUMP JUMPDEST PUSH1 0x60 SWAP2 POP JUMPDEST POP POP SWAP1 POP DUP1 PUSH2 0x841 JUMPI PUSH1 0x40 MLOAD PUSH32 0x8C379A000000000000000000000000000000000000000000000000000000000 DUP2 MSTORE PUSH1 0x4 ADD PUSH2 0x838 SWAP1 PUSH2 0x1F64 JUMP JUMPDEST PUSH1 0x40 MLOAD DUP1 SWAP2 SUB SWAP1 REVERT JUMPDEST CALLER PUSH20 0xFFFFFFFFFFFFFFFFFFFFFFFFFFFFFFFFFFFFFFFF AND PUSH32 0x7FCF532C15F0A6DB0BD6D0E038BEA71D30D808C7D98CB3BF7268A95BF5081B65 DUP4 PUSH1 0x40 MLOAD PUSH2 0x887 SWAP2 SWAP1 PUSH2 0x1986 JUMP JUMPDEST PUSH1 0x40 MLOAD DUP1 SWAP2 SUB SWAP1 LOG2 POP POP POP POP PUSH0 PUSH1 0x5 PUSH1 0x1 PUSH2 0x100 EXP DUP2 SLOAD DUP2 PUSH1 0xFF MUL NOT AND SWAP1 DUP4 ISZERO ISZERO MUL OR SWAP1 SSTORE POP JUMP JUMPDEST PUSH1 0x5 PUSH0 SWAP1 SLOAD SWAP1 PUSH2 0x100 EXP SWAP1 DIV PUSH1 0xFF AND DUP2 JUMP JUMPDEST PUSH1 0x5 PUSH0 SWAP1 SLOAD SWAP1 PUSH2 0x100 EXP SWAP1 DIV PUSH1 0xFF AND ISZERO DUP1 ISZERO PUSH2 0x8DF JUMPI POP PUSH1 0x3 SLOAD TIMESTAMP LT ISZERO JUMPDEST DUP1 ISZERO PUSH2 0x8EC JUMPI POP PUSH1 0x4 SLOAD TIMESTAMP LT JUMPDEST PUSH2 0x92B JUMPI PUSH1 0x40 MLOAD PUSH32 0x8C379A000000000000000000000000000000000000000000000000000000000 DUP2 MSTORE PUSH1 0x4 ADD PUSH2 0x922 SWAP1 PUSH2 0x1FCC JUMP JUMPDEST PUSH1 0x40 MLOAD DUP1 SWAP2 SUB SWAP1 REVERT JUMPDEST PUSH1 0x5 PUSH1 0x1 SWAP1 SLOAD SWAP1 PUSH2 0x100 EXP SWAP1 DIV PUSH1 0xFF AND ISZERO PUSH2 0x97B JUMPI PUSH1 0x40 MLOAD PUSH32 0x8C379A000000000000000000000000000000000000000000000000000000000 DUP2 MSTORE PUSH1 0x4 ADD PUSH2 0x972 SWAP1 PUSH2 0x1D22 JUMP JUMPDEST PUSH1 0x40 MLOAD DUP1 SWAP2 SUB SWAP1 REVERT JUMPDEST PUSH1 0x1 PUSH1 0x5 PUSH1 0x1 PUSH2 0x100 EXP DUP2 SLOAD DUP2 PUSH1 0xFF MUL NOT AND SWAP1 DUP4 ISZERO ISZERO MUL OR SWAP1 SSTORE POP PUSH0 CALLVALUE GT PUSH2 0x9D8 JUMPI PUSH1 0x40 MLOAD PUSH32 0x8C379A000000000000000000000000000000000000000000000000000000000 DUP2 MSTORE PUSH1 0x4 ADD PUSH2 0x9CF SWAP1 PUSH2 0x2034 JUMP JUMPDEST PUSH1 0x40 MLOAD DUP1 SWAP2 SUB SWAP1 REVERT JUMPDEST PUSH0 CALLVALUE PUSH1 0x7 PUSH0 CALLER PUSH20 0xFFFFFFFFFFFFFFFFFFFFFFFFFFFFFFFFFFFFFFFF AND PUSH20 0xFFFFFFFFFFFFFFFFFFFFFFFFFFFFFFFFFFFFFFFF AND DUP2 MSTORE PUSH1 0x20 ADD SWAP1 DUP2 MSTORE PUSH1 0x20 ADD PUSH0 KECCAK256 SLOAD PUSH2 0xA22 SWAP2 SWAP1 PUSH2 0x1EA6 JUMP JUMPDEST SWAP1 POP PUSH0 PUSH0 PUSH1 0x2 SLOAD EQ PUSH2 0xA4E JUMPI PUSH1 0x64 PUSH1 0x69 PUSH1 0x2 SLOAD PUSH2 0xA3F SWAP2 SWAP1 PUSH2 0x1DD5 JUMP JUMPDEST PUSH2 0xA49 SWAP2 SWAP1 PUSH2 0x1E43 JUMP JUMPDEST PUSH2 0xA50 JUMP JUMPDEST PUSH0 JUMPDEST SWAP1 POP DUP1 DUP3 GT PUSH2 0xA94 JUMPI PUSH1 0x40 MLOAD PUSH32 0x8C379A000000000000000000000000000000000000000000000000000000000 DUP2 MSTORE PUSH1 0x4 ADD PUSH2 0xA8B SWAP1 PUSH2 0x20C2 JUMP JUMPDEST PUSH1 0x40 MLOAD DUP1 SWAP2 SUB SWAP1 REVERT JUMPDEST CALLVALUE PUSH1 0x7 PUSH0 CALLER PUSH20 0xFFFFFFFFFFFFFFFFFFFFFFFFFFFFFFFFFFFFFFFF AND PUSH20 0xFFFFFFFFFFFFFFFFFFFFFFFFFFFFFFFFFFFFFFFF AND DUP2 MSTORE PUSH1 0x20 ADD SWAP1 DUP2 MSTORE PUSH1 0x20 ADD PUSH0 KECCAK256 PUSH0 DUP3 DUP3 SLOAD PUSH2 0xAE0 SWAP2 SWAP1 PUSH2 0x1EA6 JUMP JUMPDEST SWAP3 POP POP DUP2 SWAP1 SSTORE POP PUSH1 0x6 PUSH1 0x40 MLOAD DUP1 PUSH1 0x60 ADD PUSH1 0x40 MSTORE DUP1 CALLER PUSH20 0xFFFFFFFFFFFFFFFFFFFFFFFFFFFFFFFFFFFFFFFF AND DUP2 MSTORE PUSH1 0x20 ADD CALLVALUE DUP2 MSTORE PUSH1 0x20 ADD TIMESTAMP DUP2 MSTORE POP SWAP1 DUP1 PUSH1 0x1 DUP2 SLOAD ADD DUP1 DUP3 SSTORE DUP1 SWAP2 POP POP PUSH1 0x1 SWAP1 SUB SWAP1 PUSH0 MSTORE PUSH1 0x20 PUSH0 KECCAK256 SWAP1 PUSH1 0x3 MUL ADD PUSH0 SWAP1 SWAP2 SWAP1 SWAP2 SWAP1 SWAP2 POP PUSH0 DUP3 ADD MLOAD DUP2 PUSH0 ADD PUSH0 PUSH2 0x100 EXP DUP2 SLOAD DUP2 PUSH20 0xFFFFFFFFFFFFFFFFFFFFFFFFFFFFFFFFFFFFFFFF MUL NOT AND SWAP1 DUP4 PUSH20 0xFFFFFFFFFFFFFFFFFFFFFFFFFFFFFFFFFFFFFFFF AND MUL OR SWAP1 SSTORE POP PUSH1 0x20 DUP3 ADD MLOAD DUP2 PUSH1 0x1 ADD SSTORE PUSH1 0x40 DUP3 ADD MLOAD DUP2 PUSH1 0x2 ADD SSTORE POP POP PUSH1 0x1 PUSH1 0x6 DUP1 SLOAD SWAP1 POP PUSH2 0xBAC SWAP2 SWAP1 PUSH2 0x1E73 JUMP JUMPDEST PUSH1 0x8 PUSH0 CALLER PUSH20 0xFFFFFFFFFFFFFFFFFFFFFFFFFFFFFFFFFFFFFFFF AND PUSH20 0xFFFFFFFFFFFFFFFFFFFFFFFFFFFFFFFFFFFFFFFF AND DUP2 MSTORE PUSH1 0x20 ADD SWAP1 DUP2 MSTORE PUSH1 0x20 ADD PUSH0 KECCAK256 DUP2 SWAP1 SSTORE POP DUP2 PUSH1 0x2 DUP2 SWAP1 SSTORE POP CALLER PUSH1 0x1 PUSH0 PUSH2 0x100 EXP DUP2 SLOAD DUP2 PUSH20 0xFFFFFFFFFFFFFFFFFFFFFFFFFFFFFFFFFFFFFFFF MUL NOT AND SWAP1 DUP4 PUSH20 0xFFFFFFFFFFFFFFFFFFFFFFFFFFFFFFFFFFFFFFFF AND MUL OR SWAP1 SSTORE POP PUSH2 0x258 TIMESTAMP PUSH1 0x4 SLOAD PUSH2 0xC45 SWAP2 SWAP1 PUSH2 0x1E73 JUMP JUMPDEST GT PUSH2 0xC5F JUMPI PUSH2 0x258 TIMESTAMP PUSH2 0xC58 SWAP2 SWAP1 PUSH2 0x1EA6 JUMP JUMPDEST PUSH1 0x4 DUP2 SWAP1 SSTORE POP JUMPDEST CALLER PUSH20 0xFFFFFFFFFFFFFFFFFFFFFFFFFFFFFFFFFFFFFFFF AND PUSH32 0x58D619527549E88853C641EBCEC23205E5DF61592E3908275721B5AD490113F DUP4 PUSH1 0x40 MLOAD PUSH2 0xCA5 SWAP2 SWAP1 PUSH2 0x1986 JUMP JUMPDEST PUSH1 0x40 MLOAD DUP1 SWAP2 SUB SWAP1 LOG2 POP POP PUSH0 PUSH1 0x5 PUSH1 0x1 PUSH2 0x100 EXP DUP2 SLOAD DUP2 PUSH1 0xFF MUL NOT AND SWAP1 DUP4 ISZERO ISZERO MUL OR SWAP1 SSTORE POP JUMP JUMPDEST PUSH1 0x4 SLOAD DUP2 JUMP JUMPDEST PUSH1 0x5 PUSH0 SWAP1 SLOAD SWAP1 PUSH2 0x100 EXP SWAP1 DIV PUSH1 0xFF AND ISZERO DUP1 ISZERO PUSH2 0xCEF JUMPI POP PUSH1 0x3 SLOAD TIMESTAMP LT ISZERO JUMPDEST DUP1 ISZERO PUSH2 0xCFC JUMPI POP PUSH1 0x4 SLOAD TIMESTAMP LT JUMPDEST PUSH2 0xD3B JUMPI PUSH1 0x40 MLOAD PUSH32 0x8C379A000000000000000000000000000000000000000000000000000000000 DUP2 MSTORE PUSH1 0x4 ADD PUSH2 0xD32 SWAP1 PUSH2 0x1FCC JUMP JUMPDEST PUSH1 0x40 MLOAD DUP1 SWAP2 SUB SWAP1 REVERT JUMPDEST PUSH1 0x5 PUSH1 0x1 SWAP1 SLOAD SWAP1 PUSH2 0x100 EXP SWAP1 DIV PUSH1 0xFF AND ISZERO PUSH2 0xD8B JUMPI PUSH1 0x40 MLOAD PUSH32 0x8C379A000000000000000000000000000000000000000000000000000000000 DUP2 MSTORE PUSH1 0x4 ADD PUSH2 0xD82 SWAP1 PUSH2 0x1D22 JUMP JUMPDEST PUSH1 0x40 MLOAD DUP1 SWAP2 SUB SWAP1 REVERT JUMPDEST PUSH1 0x1 PUSH1 0x5 PUSH1 0x1 PUSH2 0x100 EXP DUP2 SLOAD DUP2 PUSH1 0xFF MUL NOT AND SWAP1 DUP4 ISZERO ISZERO MUL OR SWAP1 SSTORE POP PUSH1 0x1 PUSH0 SWAP1 SLOAD SWAP1 PUSH2 0x100 EXP SWAP1 DIV PUSH20 0xFFFFFFFFFFFFFFFFFFFFFFFFFFFFFFFFFFFFFFFF AND PUSH20 0xFFFFFFFFFFFFFFFFFFFFFFFFFFFFFFFFFFFFFFFF AND CALLER PUSH20 0xFFFFFFFFFFFFFFFFFFFFFFFFFFFFFFFFFFFFFFFF AND SUB PUSH2 0xE35 JUMPI PUSH1 0x40 MLOAD PUSH32 0x8C379A000000000000000000000000000000000000000000000000000000000 DUP2 MSTORE PUSH1 0x4 ADD PUSH2 0xE2C SWAP1 PUSH2 0x2150 JUMP JUMPDEST PUSH1 0x40 MLOAD DUP1 SWAP2 SUB SWAP1 REVERT JUMPDEST PUSH0 PUSH1 0x7 PUSH0 CALLER PUSH20 0xFFFFFFFFFFFFFFFFFFFFFFFFFFFFFFFFFFFFFFFF AND PUSH20 0xFFFFFFFFFFFFFFFFFFFFFFFFFFFFFFFFFFFFFFFF AND DUP2 MSTORE PUSH1 0x20 ADD SWAP1 DUP2 MSTORE PUSH1 0x20 ADD PUSH0 KECCAK256 SLOAD SWAP1 POP PUSH0 DUP2 GT PUSH2 0xEB8 JUMPI PUSH1 0x40 MLOAD PUSH32 0x8C379A000000000000000000000000000000000000000000000000000000000 DUP2 MSTORE PUSH1 0x4 ADD PUSH2 0xEAF SWAP1 PUSH2 0x21B8 JUMP JUMPDEST PUSH1 0x40 MLOAD DUP1 SWAP2 SUB SWAP1 REVERT JUMPDEST PUSH0 PUSH1 0x7 PUSH0 CALLER PUSH20 0xFFFFFFFFFFFFFFFFFFFFFFFFFFFFFFFFFFFFFFFF AND PUSH20 0xFFFFFFFFFFFFFFFFFFFFFFFFFFFFFFFFFFFFFFFF AND DUP2 MSTORE PUSH1 0x20 ADD SWAP1 DUP2 MSTORE PUSH1 0x20 ADD PUSH0 KECCAK256 DUP2 SWAP1 SSTORE POP PUSH0 CALLER PUSH20 0xFFFFFFFFFFFFFFFFFFFFFFFFFFFFFFFFFFFFFFFF AND DUP3 PUSH1 0x40 MLOAD PUSH2 0xF1F SWAP1 PUSH2 0x1F06 JUMP JUMPDEST PUSH0 PUSH1 0x40 MLOAD DUP1 DUP4 SUB DUP2 DUP6 DUP8 GAS CALL SWAP3 POP POP POP RETURNDATASIZE DUP1 PUSH0 DUP2 EQ PUSH2 0xF59 JUMPI PUSH1 0x40 MLOAD SWAP2 POP PUSH1 0x1F NOT PUSH1 0x3F RETURNDATASIZE ADD AND DUP3 ADD PUSH1 0x40 MSTORE RETURNDATASIZE DUP3 MSTORE RETURNDATASIZE PUSH0 PUSH1 0x20 DUP5 ADD RETURNDATACOPY PUSH2 0xF5E JUMP JUMPDEST PUSH1 0x60 SWAP2 POP JUMPDEST POP POP SWAP1 POP DUP1 PUSH2 0xFA2 JUMPI PUSH1 0x40 MLOAD PUSH32 0x8C379A000000000000000000000000000000000000000000000000000000000 DUP2 MSTORE PUSH1 0x4 ADD PUSH2 0xF99 SWAP1 PUSH2 0x1F64 JUMP JUMPDEST PUSH1 0x40 MLOAD DUP1 SWAP2 SUB SWAP1 REVERT JUMPDEST CALLER PUSH20 0xFFFFFFFFFFFFFFFFFFFFFFFFFFFFFFFFFFFFFFFF AND PUSH32 0x7FCF532C15F0A6DB0BD6D0E038BEA71D30D808C7D98CB3BF7268A95BF5081B65 DUP4 PUSH1 0x40 MLOAD PUSH2 0xFE8 SWAP2 SWAP1 PUSH2 0x1986 JUMP JUMPDEST PUSH1 0x40 MLOAD DUP1 SWAP2 SUB SWAP1 LOG2 POP POP PUSH0 PUSH1 0x5 PUSH1 0x1 PUSH2 0x100 EXP DUP2 SLOAD DUP2 PUSH1 0xFF MUL NOT AND SWAP1 DUP4 ISZERO ISZERO MUL OR SWAP1 SSTORE POP JUMP JUMPDEST PUSH0 PUSH0 SWAP1 SLOAD SWAP1 PUSH2 0x100 EXP SWAP1 DIV PUSH20 0xFFFFFFFFFFFFFFFFFFFFFFFFFFFFFFFFFFFFFFFF AND PUSH20 0xFFFFFFFFFFFFFFFFFFFFFFFFFFFFFFFFFFFFFFFF AND CALLER PUSH20 0xFFFFFFFFFFFFFFFFFFFFFFFFFFFFFFFFFFFFFFFF AND EQ PUSH2 0x109C JUMPI PUSH1 0x40 MLOAD PUSH32 0x8C379A000000000000000000000000000000000000000000000000000000000 DUP2 MSTORE PUSH1 0x4 ADD PUSH2 0x1093 SWAP1 PUSH2 0x2220 JUMP JUMPDEST PUSH1 0x40 MLOAD DUP1 SWAP2 SUB SWAP1 REVERT JUMPDEST PUSH1 0x5 PUSH1 0x1 SWAP1 SLOAD SWAP1 PUSH2 0x100 EXP SWAP1 DIV PUSH1 0xFF AND ISZERO PUSH2 0x10EC JUMPI PUSH1 0x40 MLOAD PUSH32 0x8C379A000000000000000000000000000000000000000000000000000000000 DUP2 MSTORE PUSH1 0x4 ADD PUSH2 0x10E3 SWAP1 PUSH2 0x1D22 JUMP JUMPDEST PUSH1 0x40 MLOAD DUP1 SWAP2 SUB SWAP1 REVERT JUMPDEST PUSH1 0x1 PUSH1 0x5 PUSH1 0x1 PUSH2 0x100 EXP DUP2 SLOAD DUP2 PUSH1 0xFF MUL NOT AND SWAP1 DUP4 ISZERO ISZERO MUL OR SWAP1 SSTORE POP PUSH0 PUSH1 0x9 SLOAD SWAP1 POP PUSH0 DUP2 GT PUSH2 0x114F JUMPI PUSH1 0x40 MLOAD PUSH32 0x8C379A000000000000000000000000000000000000000000000000000000000 DUP2 MSTORE PUSH1 0x4 ADD PUSH2 0x1146 SWAP1 PUSH2 0x2288 JUMP JUMPDEST PUSH1 0x40 MLOAD DUP1 SWAP2 SUB SWAP1 REVERT JUMPDEST PUSH0 PUSH1 0x9 DUP2 SWAP1 SSTORE POP PUSH0 PUSH0 PUSH0 SWAP1 SLOAD SWAP1 PUSH2 0x100 EXP SWAP1 DIV PUSH20 0xFFFFFFFFFFFFFFFFFFFFFFFFFFFFFFFFFFFFFFFF AND PUSH20 0xFFFFFFFFFFFFFFFFFFFFFFFFFFFFFFFFFFFFFFFF AND DUP3 PUSH1 0x40 MLOAD PUSH2 0x119B SWAP1 PUSH2 0x1F06 JUMP JUMPDEST PUSH0 PUSH1 0x40 MLOAD DUP1 DUP4 SUB DUP2 DUP6 DUP8 GAS CALL SWAP3 POP POP POP RETURNDATASIZE DUP1 PUSH0 DUP2 EQ PUSH2 0x11D5 JUMPI PUSH1 0x40 MLOAD SWAP2 POP PUSH1 0x1F NOT PUSH1 0x3F RETURNDATASIZE ADD AND DUP3 ADD PUSH1 0x40 MSTORE RETURNDATASIZE DUP3 MSTORE RETURNDATASIZE PUSH0 PUSH1 0x20 DUP5 ADD RETURNDATACOPY PUSH2 0x11DA JUMP JUMPDEST PUSH1 0x60 SWAP2 POP JUMPDEST POP POP SWAP1 POP DUP1 PUSH2 0x121E JUMPI PUSH1 0x40 MLOAD PUSH32 0x8C379A000000000000000000000000000000000000000000000000000000000 DUP2 MSTORE PUSH1 0x4 ADD PUSH2 0x1215 SWAP1 PUSH2 0x22F0 JUMP JUMPDEST PUSH1 0x40 MLOAD DUP1 SWAP2 SUB SWAP1 REVERT JUMPDEST POP POP PUSH0 PUSH1 0x5 PUSH1 0x1 PUSH2 0x100 EXP DUP2 SLOAD DUP2 PUSH1 0xFF MUL NOT AND SWAP1 DUP4 ISZERO ISZERO MUL OR SWAP1 SSTORE POP JUMP JUMPDEST PUSH1 0x2 DUP2 JUMP JUMPDEST PUSH1 0x60 PUSH1 0x6 DUP1 SLOAD DUP1 PUSH1 0x20 MUL PUSH1 0x20 ADD PUSH1 0x40 MLOAD SWAP1 DUP2 ADD PUSH1 0x40 MSTORE DUP1 SWAP3 SWAP2 SWAP1 DUP2 DUP2 MSTORE PUSH1 0x20 ADD PUSH0 SWAP1 JUMPDEST DUP3 DUP3 LT ISZERO PUSH2 0x12FC JUMPI DUP4 DUP3 SWAP1 PUSH0 MSTORE PUSH1 0x20 PUSH0 KECCAK256 SWAP1 PUSH1 0x3 MUL ADD PUSH1 0x40 MLOAD DUP1 PUSH1 0x60 ADD PUSH1 0x40 MSTORE SWAP1 DUP2 PUSH0 DUP3 ADD PUSH0 SWAP1 SLOAD SWAP1 PUSH2 0x100 EXP SWAP1 DIV PUSH20 0xFFFFFFFFFFFFFFFFFFFFFFFFFFFFFFFFFFFFFFFF AND PUSH20 0xFFFFFFFFFFFFFFFFFFFFFFFFFFFFFFFFFFFFFFFF AND PUSH20 0xFFFFFFFFFFFFFFFFFFFFFFFFFFFFFFFFFFFFFFFF AND DUP2 MSTORE PUSH1 0x20 ADD PUSH1 0x1 DUP3 ADD SLOAD DUP2 MSTORE PUSH1 0x20 ADD PUSH1 0x2 DUP3 ADD SLOAD DUP2 MSTORE POP POP DUP2 MSTORE PUSH1 0x20 ADD SWAP1 PUSH1 0x1 ADD SWAP1 PUSH2 0x1264 JUMP JUMPDEST POP POP POP POP SWAP1 POP SWAP1 JUMP JUMPDEST PUSH2 0x258 DUP2 JUMP JUMPDEST PUSH1 0x69 DUP2 JUMP JUMPDEST PUSH1 0x3 SLOAD DUP2 JUMP JUMPDEST PUSH2 0x258 DUP2 JUMP JUMPDEST PUSH1 0x6 DUP2 DUP2 SLOAD DUP2 LT PUSH2 0x132B JUMPI PUSH0 DUP1 REVERT JUMPDEST SWAP1 PUSH0 MSTORE PUSH1 0x20 PUSH0 KECCAK256 SWAP1 PUSH1 0x3 MUL ADD PUSH0 SWAP2 POP SWAP1 POP DUP1 PUSH0 ADD PUSH0 SWAP1 SLOAD SWAP1 PUSH2 0x100 EXP SWAP1 DIV PUSH20 0xFFFFFFFFFFFFFFFFFFFFFFFFFFFFFFFFFFFFFFFF AND SWAP1 DUP1 PUSH1 0x1 ADD SLOAD SWAP1 DUP1 PUSH1 0x2 ADD SLOAD SWAP1 POP DUP4 JUMP JUMPDEST PUSH1 0x9 SLOAD DUP2 JUMP JUMPDEST PUSH1 0x1 PUSH0 SWAP1 SLOAD SWAP1 PUSH2 0x100 EXP SWAP1 DIV PUSH20 0xFFFFFFFFFFFFFFFFFFFFFFFFFFFFFFFFFFFFFFFF AND DUP2 JUMP JUMPDEST PUSH0 PUSH0 PUSH1 0x4 SLOAD TIMESTAMP LT ISZERO DUP1 PUSH2 0x13B9 JUMPI POP PUSH1 0x5 PUSH0 SWAP1 SLOAD SWAP1 PUSH2 0x100 EXP SWAP1 DIV PUSH1 0xFF AND JUMPDEST PUSH2 0x13F8 JUMPI PUSH1 0x40 MLOAD PUSH32 0x8C379A000000000000000000000000000000000000000000000000000000000 DUP2 MSTORE PUSH1 0x4 ADD PUSH2 0x13EF SWAP1 PUSH2 0x1C52 JUMP JUMPDEST PUSH1 0x40 MLOAD DUP1 SWAP2 SUB SWAP1 REVERT JUMPDEST PUSH1 0x1 PUSH0 SWAP1 SLOAD SWAP1 PUSH2 0x100 EXP SWAP1 DIV PUSH20 0xFFFFFFFFFFFFFFFFFFFFFFFFFFFFFFFFFFFFFFFF AND PUSH1 0x2 SLOAD SWAP2 POP SWAP2 POP SWAP1 SWAP2 JUMP JUMPDEST PUSH0 PUSH1 0x6 DUP1 SLOAD SWAP1 POP SWAP1 POP SWAP1 JUMP JUMPDEST PUSH1 0x8 PUSH1 0x20 MSTORE DUP1 PUSH0 MSTORE PUSH1 0x40 PUSH0 KECCAK256 PUSH0 SWAP2 POP SWAP1 POP SLOAD DUP2 JUMP JUMPDEST PUSH1 0x2 SLOAD DUP2 JUMP JUMPDEST PUSH1 0x7 PUSH1 0x20 MSTORE DUP1 PUSH0 MSTORE PUSH1 0x40 PUSH0 KECCAK256 PUSH0 SWAP2 POP SWAP1 POP SLOAD DUP2 JUMP JUMPDEST PUSH1 0x4 SLOAD TIMESTAMP LT ISZERO DUP1 PUSH2 0x147D JUMPI POP PUSH1 0x5 PUSH0 SWAP1 SLOAD SWAP1 PUSH2 0x100 EXP SWAP1 DIV PUSH1 0xFF AND JUMPDEST PUSH2 0x14BC JUMPI PUSH1 0x40 MLOAD PUSH32 0x8C379A000000000000000000000000000000000000000000000000000000000 DUP2 MSTORE PUSH1 0x4 ADD PUSH2 0x14B3 SWAP1 PUSH2 0x1C52 JUMP JUMPDEST PUSH1 0x40 MLOAD DUP1 SWAP2 SUB SWAP1 REVERT JUMPDEST PUSH1 0x5 PUSH1 0x1 SWAP1 SLOAD SWAP1 PUSH2 0x100 EXP SWAP1 DIV PUSH1 0xFF AND ISZERO PUSH2 0x150C JUMPI PUSH1 0x40 MLOAD PUSH32 0x8C379A000000000000000000000000000000000000000000000000000000000 DUP2 MSTORE PUSH1 0x4 ADD PUSH2 0x1503 SWAP1 PUSH2 0x1D22 JUMP JUMPDEST PUSH1 0x40 MLOAD DUP1 SWAP2 SUB SWAP1 REVERT JUMPDEST PUSH1 0x1 PUSH1 0x5 PUSH1 0x1 PUSH2 0x100 EXP DUP2 SLOAD DUP2 PUSH1 0xFF MUL NOT AND SWAP1 DUP4 ISZERO ISZERO MUL OR SWAP1 SSTORE POP PUSH1 0x5 PUSH0 SWAP1 SLOAD SWAP1 PUSH2 0x100 EXP SWAP1 DIV PUSH1 0xFF AND ISZERO PUSH2 0x1576 JUMPI PUSH1 0x40 MLOAD PUSH32 0x8C379A000000000000000000000000000000000000000000000000000000000 DUP2 MSTORE PUSH1 0x4 ADD PUSH2 0x156D SWAP1 PUSH2 0x2358 JUMP JUMPDEST PUSH1 0x40 MLOAD DUP1 SWAP2 SUB SWAP1 REVERT JUMPDEST PUSH1 0x1 PUSH1 0x5 PUSH0 PUSH2 0x100 EXP DUP2 SLOAD DUP2 PUSH1 0xFF MUL NOT AND SWAP1 DUP4 ISZERO ISZERO MUL OR SWAP1 SSTORE POP PUSH1 0x1 PUSH0 SWAP1 SLOAD SWAP1 PUSH2 0x100 EXP SWAP1 DIV PUSH20 0xFFFFFFFFFFFFFFFFFFFFFFFFFFFFFFFFFFFFFFFF AND PUSH20 0xFFFFFFFFFFFFFFFFFFFFFFFFFFFFFFFFFFFFFFFF AND PUSH32 0xDAEC4582D5D9595688C8C98545FDD1C696D41C6AEAEB636737E84ED2F5C00EDA PUSH1 0x2 SLOAD PUSH1 0x40 MLOAD PUSH2 0x15F9 SWAP2 SWAP1 PUSH2 0x1986 JUMP JUMPDEST PUSH1 0x40 MLOAD DUP1 SWAP2 SUB SWAP1 LOG2 PUSH0 PUSH1 0x2 SLOAD GT ISZERO PUSH2 0x179B JUMPI PUSH0 PUSH1 0x7 PUSH0 PUSH1 0x1 PUSH0 SWAP1 SLOAD SWAP1 PUSH2 0x100 EXP SWAP1 DIV PUSH20 0xFFFFFFFFFFFFFFFFFFFFFFFFFFFFFFFFFFFFFFFF AND PUSH20 0xFFFFFFFFFFFFFFFFFFFFFFFFFFFFFFFFFFFFFFFF AND PUSH20 0xFFFFFFFFFFFFFFFFFFFFFFFFFFFFFFFFFFFFFFFF AND DUP2 MSTORE PUSH1 0x20 ADD SWAP1 DUP2 MSTORE PUSH1 0x20 ADD PUSH0 KECCAK256 SLOAD SWAP1 POP PUSH0 PUSH1 0x7 PUSH0 PUSH1 0x1 PUSH0 SWAP1 SLOAD SWAP1 PUSH2 0x100 EXP SWAP1 DIV PUSH20 0xFFFFFFFFFFFFFFFFFFFFFFFFFFFFFFFFFFFFFFFF AND PUSH20 0xFFFFFFFFFFFFFFFFFFFFFFFFFFFFFFFFFFFFFFFF AND PUSH20 0xFFFFFFFFFFFFFFFFFFFFFFFFFFFFFFFFFFFFFFFF AND DUP2 MSTORE PUSH1 0x20 ADD SWAP1 DUP2 MSTORE PUSH1 0x20 ADD PUSH0 KECCAK256 DUP2 SWAP1 SSTORE POP PUSH0 PUSH0 PUSH0 SWAP1 SLOAD SWAP1 PUSH2 0x100 EXP SWAP1 DIV PUSH20 0xFFFFFFFFFFFFFFFFFFFFFFFFFFFFFFFFFFFFFFFF AND PUSH20 0xFFFFFFFFFFFFFFFFFFFFFFFFFFFFFFFFFFFFFFFF AND DUP3 PUSH1 0x40 MLOAD PUSH2 0x1715 SWAP1 PUSH2 0x1F06 JUMP JUMPDEST PUSH0 PUSH1 0x40 MLOAD DUP1 DUP4 SUB DUP2 DUP6 DUP8 GAS CALL SWAP3 POP POP POP RETURNDATASIZE DUP1 PUSH0 DUP2 EQ PUSH2 0x174F JUMPI PUSH1 0x40 MLOAD SWAP2 POP PUSH1 0x1F NOT PUSH1 0x3F RETURNDATASIZE ADD AND DUP3 ADD PUSH1 0x40 MSTORE RETURNDATASIZE DUP3 MSTORE RETURNDATASIZE PUSH0 PUSH1 0x20 DUP5 ADD RETURNDATACOPY PUSH2 0x1754 JUMP JUMPDEST PUSH1 0x60 SWAP2 POP JUMPDEST POP POP SWAP1 POP DUP1 PUSH2 0x1798 JUMPI PUSH1 0x40 MLOAD PUSH32 0x8C379A000000000000000000000000000000000000000000000000000000000 DUP2 MSTORE PUSH1 0x4 ADD PUSH2 0x178F SWAP1 PUSH2 0x23C0 JUMP JUMPDEST PUSH1 0x40 MLOAD DUP1 SWAP2 SUB SWAP1 REVERT JUMPDEST POP POP JUMPDEST PUSH0 PUSH1 0x5 PUSH1 0x1 PUSH2 0x100 EXP DUP2 SLOAD DUP2 PUSH1 0xFF MUL NOT AND SWAP1 DUP4 ISZERO ISZERO MUL OR SWAP1 SSTORE POP JUMP JUMPDEST PUSH0 DUP3 DUP3 MSTORE PUSH1 0x20 DUP3 ADD SWAP1 POP SWAP3 SWAP2 POP POP JUMP JUMPDEST PUSH32 0x506C6561736520757365207468652062696428292066756E6374696F6E20746F PUSH0 DUP3 ADD MSTORE PUSH32 0x2070617274696369706174652E00000000000000000000000000000000000000 PUSH1 0x20 DUP3 ADD MSTORE POP JUMP JUMPDEST PUSH0 PUSH2 0x1821 PUSH1 0x2D DUP4 PUSH2 0x17B7 JUMP JUMPDEST SWAP2 POP PUSH2 0x182C DUP3 PUSH2 0x17C7 JUMP JUMPDEST PUSH1 0x40 DUP3 ADD SWAP1 POP SWAP2 SWAP1 POP JUMP JUMPDEST PUSH0 PUSH1 0x20 DUP3 ADD SWAP1 POP DUP2 DUP2 SUB PUSH0 DUP4 ADD MSTORE PUSH2 0x184E DUP2 PUSH2 0x1815 JUMP JUMPDEST SWAP1 POP SWAP2 SWAP1 POP JUMP JUMPDEST PUSH32 0x496E76616C69642063616C6C2E205573652074686520636F7272656374206675 PUSH0 DUP3 ADD MSTORE PUSH32 0x6E6374696F6E2E00000000000000000000000000000000000000000000000000 PUSH1 0x20 DUP3 ADD MSTORE POP JUMP JUMPDEST PUSH0 PUSH2 0x18AF PUSH1 0x27 DUP4 PUSH2 0x17B7 JUMP JUMPDEST SWAP2 POP PUSH2 0x18BA DUP3 PUSH2 0x1855 JUMP JUMPDEST PUSH1 0x40 DUP3 ADD SWAP1 POP SWAP2 SWAP1 POP JUMP JUMPDEST PUSH0 PUSH1 0x20 DUP3 ADD SWAP1 POP DUP2 DUP2 SUB PUSH0 DUP4 ADD MSTORE PUSH2 0x18DC DUP2 PUSH2 0x18A3 JUMP JUMPDEST SWAP1 POP SWAP2 SWAP1 POP JUMP JUMPDEST PUSH0 PUSH20 0xFFFFFFFFFFFFFFFFFFFFFFFFFFFFFFFFFFFFFFFF DUP3 AND SWAP1 POP SWAP2 SWAP1 POP JUMP JUMPDEST PUSH0 PUSH2 0x190C DUP3 PUSH2 0x18E3 JUMP JUMPDEST SWAP1 POP SWAP2 SWAP1 POP JUMP JUMPDEST PUSH2 0x191C DUP2 PUSH2 0x1902 JUMP JUMPDEST DUP3 MSTORE POP POP JUMP JUMPDEST PUSH0 PUSH1 0x20 DUP3 ADD SWAP1 POP PUSH2 0x1935 PUSH0 DUP4 ADD DUP5 PUSH2 0x1913 JUMP JUMPDEST SWAP3 SWAP2 POP POP JUMP JUMPDEST PUSH0 DUP2 ISZERO ISZERO SWAP1 POP SWAP2 SWAP1 POP JUMP JUMPDEST PUSH2 0x194F DUP2 PUSH2 0x193B JUMP JUMPDEST DUP3 MSTORE POP POP JUMP JUMPDEST PUSH0 PUSH1 0x20 DUP3 ADD SWAP1 POP PUSH2 0x1968 PUSH0 DUP4 ADD DUP5 PUSH2 0x1946 JUMP JUMPDEST SWAP3 SWAP2 POP POP JUMP JUMPDEST PUSH0 DUP2 SWAP1 POP SWAP2 SWAP1 POP JUMP JUMPDEST PUSH2 0x1980 DUP2 PUSH2 0x196E JUMP JUMPDEST DUP3 MSTORE POP POP JUMP JUMPDEST PUSH0 PUSH1 0x20 DUP3 ADD SWAP1 POP PUSH2 0x1999 PUSH0 DUP4 ADD DUP5 PUSH2 0x1977 JUMP JUMPDEST SWAP3 SWAP2 POP POP JUMP JUMPDEST PUSH0 DUP2 MLOAD SWAP1 POP SWAP2 SWAP1 POP JUMP JUMPDEST PUSH0 DUP3 DUP3 MSTORE PUSH1 0x20 DUP3 ADD SWAP1 POP SWAP3 SWAP2 POP POP JUMP JUMPDEST PUSH0 DUP2 SWAP1 POP PUSH1 0x20 DUP3 ADD SWAP1 POP SWAP2 SWAP1 POP JUMP JUMPDEST PUSH0 PUSH2 0x19D2 DUP3 PUSH2 0x18E3 JUMP JUMPDEST SWAP1 POP SWAP2 SWAP1 POP JUMP JUMPDEST PUSH2 0x19E2 DUP2 PUSH2 0x19C8 JUMP JUMPDEST DUP3 MSTORE POP POP JUMP JUMPDEST PUSH2 0x19F1 DUP2 PUSH2 0x196E JUMP JUMPDEST DUP3 MSTORE POP POP JUMP JUMPDEST PUSH1 0x60 DUP3 ADD PUSH0 DUP3 ADD MLOAD PUSH2 0x1A0B PUSH0 DUP6 ADD DUP3 PUSH2 0x19D9 JUMP JUMPDEST POP PUSH1 0x20 DUP3 ADD MLOAD PUSH2 0x1A1E PUSH1 0x20 DUP6 ADD DUP3 PUSH2 0x19E8 JUMP JUMPDEST POP PUSH1 0x40 DUP3 ADD MLOAD PUSH2 0x1A31 PUSH1 0x40 DUP6 ADD DUP3 PUSH2 0x19E8 JUMP JUMPDEST POP POP POP POP JUMP JUMPDEST PUSH0 PUSH2 0x1A42 DUP4 DUP4 PUSH2 0x19F7 JUMP JUMPDEST PUSH1 0x60 DUP4 ADD SWAP1 POP SWAP3 SWAP2 POP POP JUMP JUMPDEST PUSH0 PUSH1 0x20 DUP3 ADD SWAP1 POP SWAP2 SWAP1 POP JUMP JUMPDEST PUSH0 PUSH2 0x1A64 DUP3 PUSH2 0x199F JUMP JUMPDEST PUSH2 0x1A6E DUP2 DUP6 PUSH2 0x19A9 JUMP JUMPDEST SWAP4 POP PUSH2 0x1A79 DUP4 PUSH2 0x19B9 JUMP JUMPDEST DUP1 PUSH0 JUMPDEST DUP4 DUP2 LT ISZERO PUSH2 0x1AA9 JUMPI DUP2 MLOAD PUSH2 0x1A90 DUP9 DUP3 PUSH2 0x1A37 JUMP JUMPDEST SWAP8 POP PUSH2 0x1A9B DUP4 PUSH2 0x1A4E JUMP JUMPDEST SWAP3 POP POP PUSH1 0x1 DUP2 ADD SWAP1 POP PUSH2 0x1A7C JUMP JUMPDEST POP DUP6 SWAP4 POP POP POP POP SWAP3 SWAP2 POP POP JUMP JUMPDEST PUSH0 PUSH1 0x20 DUP3 ADD SWAP1 POP DUP2 DUP2 SUB PUSH0 DUP4 ADD MSTORE PUSH2 0x1ACE DUP2 DUP5 PUSH2 0x1A5A JUMP JUMPDEST SWAP1 POP SWAP3 SWAP2 POP POP JUMP JUMPDEST PUSH0 PUSH0 REVERT JUMPDEST PUSH2 0x1AE3 DUP2 PUSH2 0x196E JUMP JUMPDEST DUP2 EQ PUSH2 0x1AED JUMPI PUSH0 PUSH0 REVERT JUMPDEST POP JUMP JUMPDEST PUSH0 DUP2 CALLDATALOAD SWAP1 POP PUSH2 0x1AFE DUP2 PUSH2 0x1ADA JUMP JUMPDEST SWAP3 SWAP2 POP POP JUMP JUMPDEST PUSH0 PUSH1 0x20 DUP3 DUP5 SUB SLT ISZERO PUSH2 0x1B19 JUMPI PUSH2 0x1B18 PUSH2 0x1AD6 JUMP JUMPDEST JUMPDEST PUSH0 PUSH2 0x1B26 DUP5 DUP3 DUP6 ADD PUSH2 0x1AF0 JUMP JUMPDEST SWAP2 POP POP SWAP3 SWAP2 POP POP JUMP JUMPDEST PUSH2 0x1B38 DUP2 PUSH2 0x19C8 JUMP JUMPDEST DUP3 MSTORE POP POP JUMP JUMPDEST PUSH0 PUSH1 0x60 DUP3 ADD SWAP1 POP PUSH2 0x1B51 PUSH0 DUP4 ADD DUP7 PUSH2 0x1B2F JUMP JUMPDEST PUSH2 0x1B5E PUSH1 0x20 DUP4 ADD DUP6 PUSH2 0x1977 JUMP JUMPDEST PUSH2 0x1B6B PUSH1 0x40 DUP4 ADD DUP5 PUSH2 0x1977 JUMP JUMPDEST SWAP5 SWAP4 POP POP POP POP JUMP JUMPDEST PUSH0 PUSH1 0x20 DUP3 ADD SWAP1 POP PUSH2 0x1B86 PUSH0 DUP4 ADD DUP5 PUSH2 0x1B2F JUMP JUMPDEST SWAP3 SWAP2 POP POP JUMP JUMPDEST PUSH0 PUSH1 0x40 DUP3 ADD SWAP1 POP PUSH2 0x1B9F PUSH0 DUP4 ADD DUP6 PUSH2 0x1B2F JUMP JUMPDEST PUSH2 0x1BAC PUSH1 0x20 DUP4 ADD DUP5 PUSH2 0x1977 JUMP JUMPDEST SWAP4 SWAP3 POP POP POP JUMP JUMPDEST PUSH2 0x1BBC DUP2 PUSH2 0x19C8 JUMP JUMPDEST DUP2 EQ PUSH2 0x1BC6 JUMPI PUSH0 PUSH0 REVERT JUMPDEST POP JUMP JUMPDEST PUSH0 DUP2 CALLDATALOAD SWAP1 POP PUSH2 0x1BD7 DUP2 PUSH2 0x1BB3 JUMP JUMPDEST SWAP3 SWAP2 POP POP JUMP JUMPDEST PUSH0 PUSH1 0x20 DUP3 DUP5 SUB SLT ISZERO PUSH2 0x1BF2 JUMPI PUSH2 0x1BF1 PUSH2 0x1AD6 JUMP JUMPDEST JUMPDEST PUSH0 PUSH2 0x1BFF DUP5 DUP3 DUP6 ADD PUSH2 0x1BC9 JUMP JUMPDEST SWAP2 POP POP SWAP3 SWAP2 POP POP JUMP JUMPDEST PUSH32 0x41756374696F6E206E6F742079657420656E6465640000000000000000000000 PUSH0 DUP3 ADD MSTORE POP JUMP JUMPDEST PUSH0 PUSH2 0x1C3C PUSH1 0x15 DUP4 PUSH2 0x17B7 JUMP JUMPDEST SWAP2 POP PUSH2 0x1C47 DUP3 PUSH2 0x1C08 JUMP JUMPDEST PUSH1 0x20 DUP3 ADD SWAP1 POP SWAP2 SWAP1 POP JUMP JUMPDEST PUSH0 PUSH1 0x20 DUP3 ADD SWAP1 POP DUP2 DUP2 SUB PUSH0 DUP4 ADD MSTORE PUSH2 0x1C69 DUP2 PUSH2 0x1C30 JUMP JUMPDEST SWAP1 POP SWAP2 SWAP1 POP JUMP JUMPDEST PUSH32 0x57696E6E65722063616E6E6F7420776974686472617720726566756E64000000 PUSH0 DUP3 ADD MSTORE POP JUMP JUMPDEST PUSH0 PUSH2 0x1CA4 PUSH1 0x1D DUP4 PUSH2 0x17B7 JUMP JUMPDEST SWAP2 POP PUSH2 0x1CAF DUP3 PUSH2 0x1C70 JUMP JUMPDEST PUSH1 0x20 DUP3 ADD SWAP1 POP SWAP2 SWAP1 POP JUMP JUMPDEST PUSH0 PUSH1 0x20 DUP3 ADD SWAP1 POP DUP2 DUP2 SUB PUSH0 DUP4 ADD MSTORE PUSH2 0x1CD1 DUP2 PUSH2 0x1C98 JUMP JUMPDEST SWAP1 POP SWAP2 SWAP1 POP JUMP JUMPDEST PUSH32 0x5265656E7472616E637920677561726400000000000000000000000000000000 PUSH0 DUP3 ADD MSTORE POP JUMP JUMPDEST PUSH0 PUSH2 0x1D0C PUSH1 0x10 DUP4 PUSH2 0x17B7 JUMP JUMPDEST SWAP2 POP PUSH2 0x1D17 DUP3 PUSH2 0x1CD8 JUMP JUMPDEST PUSH1 0x20 DUP3 ADD SWAP1 POP SWAP2 SWAP1 POP JUMP JUMPDEST PUSH0 PUSH1 0x20 DUP3 ADD SWAP1 POP DUP2 DUP2 SUB PUSH0 DUP4 ADD MSTORE PUSH2 0x1D39 DUP2 PUSH2 0x1D00 JUMP JUMPDEST SWAP1 POP SWAP2 SWAP1 POP JUMP JUMPDEST PUSH32 0x4E6F2066756E647320746F207769746864726177000000000000000000000000 PUSH0 DUP3 ADD MSTORE POP JUMP JUMPDEST PUSH0 PUSH2 0x1D74 PUSH1 0x14 DUP4 PUSH2 0x17B7 JUMP JUMPDEST SWAP2 POP PUSH2 0x1D7F DUP3 PUSH2 0x1D40 JUMP JUMPDEST PUSH1 0x20 DUP3 ADD SWAP1 POP SWAP2 SWAP1 POP JUMP JUMPDEST PUSH0 PUSH1 0x20 DUP3 ADD SWAP1 POP DUP2 DUP2 SUB PUSH0 DUP4 ADD MSTORE PUSH2 0x1DA1 DUP2 PUSH2 0x1D68 JUMP JUMPDEST SWAP1 POP SWAP2 SWAP1 POP JUMP JUMPDEST PUSH32 0x4E487B7100000000000000000000000000000000000000000000000000000000 PUSH0 MSTORE PUSH1 0x11 PUSH1 0x4 MSTORE PUSH1 0x24 PUSH0 REVERT JUMPDEST PUSH0 PUSH2 0x1DDF DUP3 PUSH2 0x196E JUMP JUMPDEST SWAP2 POP PUSH2 0x1DEA DUP4 PUSH2 0x196E JUMP JUMPDEST SWAP3 POP DUP3 DUP3 MUL PUSH2 0x1DF8 DUP2 PUSH2 0x196E JUMP JUMPDEST SWAP2 POP DUP3 DUP3 DIV DUP5 EQ DUP4 ISZERO OR PUSH2 0x1E0F JUMPI PUSH2 0x1E0E PUSH2 0x1DA8 JUMP JUMPDEST JUMPDEST POP SWAP3 SWAP2 POP POP JUMP JUMPDEST PUSH32 0x4E487B7100000000000000000000000000000000000000000000000000000000 PUSH0 MSTORE PUSH1 0x12 PUSH1 0x4 MSTORE PUSH1 0x24 PUSH0 REVERT JUMPDEST PUSH0 PUSH2 0x1E4D DUP3 PUSH2 0x196E JUMP JUMPDEST SWAP2 POP PUSH2 0x1E58 DUP4 PUSH2 0x196E JUMP JUMPDEST SWAP3 POP DUP3 PUSH2 0x1E68 JUMPI PUSH2 0x1E67 PUSH2 0x1E16 JUMP JUMPDEST JUMPDEST DUP3 DUP3 DIV SWAP1 POP SWAP3 SWAP2 POP POP JUMP JUMPDEST PUSH0 PUSH2 0x1E7D DUP3 PUSH2 0x196E JUMP JUMPDEST SWAP2 POP PUSH2 0x1E88 DUP4 PUSH2 0x196E JUMP JUMPDEST SWAP3 POP DUP3 DUP3 SUB SWAP1 POP DUP2 DUP2 GT ISZERO PUSH2 0x1EA0 JUMPI PUSH2 0x1E9F PUSH2 0x1DA8 JUMP JUMPDEST JUMPDEST SWAP3 SWAP2 POP POP JUMP JUMPDEST PUSH0 PUSH2 0x1EB0 DUP3 PUSH2 0x196E JUMP JUMPDEST SWAP2 POP PUSH2 0x1EBB DUP4 PUSH2 0x196E JUMP JUMPDEST SWAP3 POP DUP3 DUP3 ADD SWAP1 POP DUP1 DUP3 GT ISZERO PUSH2 0x1ED3 JUMPI PUSH2 0x1ED2 PUSH2 0x1DA8 JUMP JUMPDEST JUMPDEST SWAP3 SWAP2 POP POP JUMP JUMPDEST PUSH0 DUP2 SWAP1 POP SWAP3 SWAP2 POP POP JUMP JUMPDEST POP JUMP JUMPDEST PUSH0 PUSH2 0x1EF1 PUSH0 DUP4 PUSH2 0x1ED9 JUMP JUMPDEST SWAP2 POP PUSH2 0x1EFC DUP3 PUSH2 0x1EE3 JUMP JUMPDEST PUSH0 DUP3 ADD SWAP1 POP SWAP2 SWAP1 POP JUMP JUMPDEST PUSH0 PUSH2 0x1F10 DUP3 PUSH2 0x1EE6 JUMP JUMPDEST SWAP2 POP DUP2 SWAP1 POP SWAP2 SWAP1 POP JUMP JUMPDEST PUSH32 0x5472616E73666572206661696C65640000000000000000000000000000000000 PUSH0 DUP3 ADD MSTORE POP JUMP JUMPDEST PUSH0 PUSH2 0x1F4E PUSH1 0xF DUP4 PUSH2 0x17B7 JUMP JUMPDEST SWAP2 POP PUSH2 0x1F59 DUP3 PUSH2 0x1F1A JUMP JUMPDEST PUSH1 0x20 DUP3 ADD SWAP1 POP SWAP2 SWAP1 POP JUMP JUMPDEST PUSH0 PUSH1 0x20 DUP3 ADD SWAP1 POP DUP2 DUP2 SUB PUSH0 DUP4 ADD MSTORE PUSH2 0x1F7B DUP2 PUSH2 0x1F42 JUMP JUMPDEST SWAP1 POP SWAP2 SWAP1 POP JUMP JUMPDEST PUSH32 0x41756374696F6E206973206E6F74206163746976650000000000000000000000 PUSH0 DUP3 ADD MSTORE POP JUMP JUMPDEST PUSH0 PUSH2 0x1FB6 PUSH1 0x15 DUP4 PUSH2 0x17B7 JUMP JUMPDEST SWAP2 POP PUSH2 0x1FC1 DUP3 PUSH2 0x1F82 JUMP JUMPDEST PUSH1 0x20 DUP3 ADD SWAP1 POP SWAP2 SWAP1 POP JUMP JUMPDEST PUSH0 PUSH1 0x20 DUP3 ADD SWAP1 POP DUP2 DUP2 SUB PUSH0 DUP4 ADD MSTORE PUSH2 0x1FE3 DUP2 PUSH2 0x1FAA JUMP JUMPDEST SWAP1 POP SWAP2 SWAP1 POP JUMP JUMPDEST PUSH32 0x426964206D7573742062652067726561746572207468616E2030000000000000 PUSH0 DUP3 ADD MSTORE POP JUMP JUMPDEST PUSH0 PUSH2 0x201E PUSH1 0x1A DUP4 PUSH2 0x17B7 JUMP JUMPDEST SWAP2 POP PUSH2 0x2029 DUP3 PUSH2 0x1FEA JUMP JUMPDEST PUSH1 0x20 DUP3 ADD SWAP1 POP SWAP2 SWAP1 POP JUMP JUMPDEST PUSH0 PUSH1 0x20 DUP3 ADD SWAP1 POP DUP2 DUP2 SUB PUSH0 DUP4 ADD MSTORE PUSH2 0x204B DUP2 PUSH2 0x2012 JUMP JUMPDEST SWAP1 POP SWAP2 SWAP1 POP JUMP JUMPDEST PUSH32 0x426964206D757374206265206174206C65617374203525206869676865722074 PUSH0 DUP3 ADD MSTORE PUSH32 0x68616E2068696768657374206269640000000000000000000000000000000000 PUSH1 0x20 DUP3 ADD MSTORE POP JUMP JUMPDEST PUSH0 PUSH2 0x20AC PUSH1 0x2F DUP4 PUSH2 0x17B7 JUMP JUMPDEST SWAP2 POP PUSH2 0x20B7 DUP3 PUSH2 0x2052 JUMP JUMPDEST PUSH1 0x40 DUP3 ADD SWAP1 POP SWAP2 SWAP1 POP JUMP JUMPDEST PUSH0 PUSH1 0x20 DUP3 ADD SWAP1 POP DUP2 DUP2 SUB PUSH0 DUP4 ADD MSTORE PUSH2 0x20D9 DUP2 PUSH2 0x20A0 JUMP JUMPDEST SWAP1 POP SWAP2 SWAP1 POP JUMP JUMPDEST PUSH32 0x43757272656E742068696768657374206269646465722063616E6E6F74207769 PUSH0 DUP3 ADD MSTORE PUSH32 0x7468647261770000000000000000000000000000000000000000000000000000 PUSH1 0x20 DUP3 ADD MSTORE POP JUMP JUMPDEST PUSH0 PUSH2 0x213A PUSH1 0x26 DUP4 PUSH2 0x17B7 JUMP JUMPDEST SWAP2 POP PUSH2 0x2145 DUP3 PUSH2 0x20E0 JUMP JUMPDEST PUSH1 0x40 DUP3 ADD SWAP1 POP SWAP2 SWAP1 POP JUMP JUMPDEST PUSH0 PUSH1 0x20 DUP3 ADD SWAP1 POP DUP2 DUP2 SUB PUSH0 DUP4 ADD MSTORE PUSH2 0x2167 DUP2 PUSH2 0x212E JUMP JUMPDEST SWAP1 POP SWAP2 SWAP1 POP JUMP JUMPDEST PUSH32 0x4E6F206578636573732066756E647320746F2077697468647261770000000000 PUSH0 DUP3 ADD MSTORE POP JUMP JUMPDEST PUSH0 PUSH2 0x21A2 PUSH1 0x1B DUP4 PUSH2 0x17B7 JUMP JUMPDEST SWAP2 POP PUSH2 0x21AD DUP3 PUSH2 0x216E JUMP JUMPDEST PUSH1 0x20 DUP3 ADD SWAP1 POP SWAP2 SWAP1 POP JUMP JUMPDEST PUSH0 PUSH1 0x20 DUP3 ADD SWAP1 POP DUP2 DUP2 SUB PUSH0 DUP4 ADD MSTORE PUSH2 0x21CF DUP2 PUSH2 0x2196 JUMP JUMPDEST SWAP1 POP SWAP2 SWAP1 POP JUMP JUMPDEST PUSH32 0x4F6E6C792073656C6C65722063616E2063616C6C000000000000000000000000 PUSH0 DUP3 ADD MSTORE POP JUMP JUMPDEST PUSH0 PUSH2 0x220A PUSH1 0x14 DUP4 PUSH2 0x17B7 JUMP JUMPDEST SWAP2 POP PUSH2 0x2215 DUP3 PUSH2 0x21D6 JUMP JUMPDEST PUSH1 0x20 DUP3 ADD SWAP1 POP SWAP2 SWAP1 POP JUMP JUMPDEST PUSH0 PUSH1 0x20 DUP3 ADD SWAP1 POP DUP2 DUP2 SUB PUSH0 DUP4 ADD MSTORE PUSH2 0x2237 DUP2 PUSH2 0x21FE JUMP JUMPDEST SWAP1 POP SWAP2 SWAP1 POP JUMP JUMPDEST PUSH32 0x4E6F206665657320746F20776974686472617700000000000000000000000000 PUSH0 DUP3 ADD MSTORE POP JUMP JUMPDEST PUSH0 PUSH2 0x2272 PUSH1 0x13 DUP4 PUSH2 0x17B7 JUMP JUMPDEST SWAP2 POP PUSH2 0x227D DUP3 PUSH2 0x223E JUMP JUMPDEST PUSH1 0x20 DUP3 ADD SWAP1 POP SWAP2 SWAP1 POP JUMP JUMPDEST PUSH0 PUSH1 0x20 DUP3 ADD SWAP1 POP DUP2 DUP2 SUB PUSH0 DUP4 ADD MSTORE PUSH2 0x229F DUP2 PUSH2 0x2266 JUMP JUMPDEST SWAP1 POP SWAP2 SWAP1 POP JUMP JUMPDEST PUSH32 0x466565207472616E73666572206661696C656400000000000000000000000000 PUSH0 DUP3 ADD MSTORE POP JUMP JUMPDEST PUSH0 PUSH2 0x22DA PUSH1 0x13 DUP4 PUSH2 0x17B7 JUMP JUMPDEST SWAP2 POP PUSH2 0x22E5 DUP3 PUSH2 0x22A6 JUMP JUMPDEST PUSH1 0x20 DUP3 ADD SWAP1 POP SWAP2 SWAP1 POP JUMP JUMPDEST PUSH0 PUSH1 0x20 DUP3 ADD SWAP1 POP DUP2 DUP2 SUB PUSH0 DUP4 ADD MSTORE PUSH2 0x2307 DUP2 PUSH2 0x22CE JUMP JUMPDEST SWAP1 POP SWAP2 SWAP1 POP JUMP JUMPDEST PUSH32 0x416C726561647920656E64656400000000000000000000000000000000000000 PUSH0 DUP3 ADD MSTORE POP JUMP JUMPDEST PUSH0 PUSH2 0x2342 PUSH1 0xD DUP4 PUSH2 0x17B7 JUMP JUMPDEST SWAP2 POP PUSH2 0x234D DUP3 PUSH2 0x230E JUMP JUMPDEST PUSH1 0x20 DUP3 ADD SWAP1 POP SWAP2 SWAP1 POP JUMP JUMPDEST PUSH0 PUSH1 0x20 DUP3 ADD SWAP1 POP DUP2 DUP2 SUB PUSH0 DUP4 ADD MSTORE PUSH2 0x236F DUP2 PUSH2 0x2336 JUMP JUMPDEST SWAP1 POP SWAP2 SWAP1 POP JUMP JUMPDEST PUSH32 0x5472616E7366657220746F2073656C6C6572206661696C656400000000000000 PUSH0 DUP3 ADD MSTORE POP JUMP JUMPDEST PUSH0 PUSH2 0x23AA PUSH1 0x19 DUP4 PUSH2 0x17B7 JUMP JUMPDEST SWAP2 POP PUSH2 0x23B5 DUP3 PUSH2 0x2376 JUMP JUMPDEST PUSH1 0x20 DUP3 ADD SWAP1 POP SWAP2 SWAP1 POP JUMP JUMPDEST PUSH0 PUSH1 0x20 DUP3 ADD SWAP1 POP DUP2 DUP2 SUB PUSH0 DUP4 ADD MSTORE PUSH2 0x23D7 DUP2 PUSH2 0x239E JUMP JUMPDEST SWAP1 POP SWAP2 SWAP1 POP JUMP INVALID LOG2 PUSH5 0x6970667358 0x22 SLT KECCAK256 CALLF 0xE47B 0xE 0xBF 0x4F CALLF 0x1AF5 0xBC NOT PUSH25 0xEAC52276C86D7E3465B7D31C888956E01B6CA5D464736F6C63 NUMBER STOP ADDMOD 0x1E STOP CALLER "
				},
				"gasEstimates": {
					"creation": {
						"codeDepositCost": "1847200",
						"executionCost": "infinite",
						"totalCost": "infinite"
					},
					"external": {
						"": "530",
						"EXTENSION_TIME()": "436",
						"EXTENSION_WINDOW()": "370",
						"MIN_INCREMENT_PERCENT()": "458",
						"REFUND_FEE_PERCENT()": "392",
						"bid()": "infinite",
						"collectedFees()": "2514",
						"deposits(address)": "2912",
						"endAuction()": "infinite",
						"endTime()": "2537",
						"ended()": "2534",
						"highestBid()": "2513",
						"highestBidder()": "2619",
						"lastOfferIndex(address)": "2868",
						"numOffers()": "2484",
						"offers(uint256)": "infinite",
						"partialWithdrawExcess()": "infinite",
						"seller()": "2531",
						"showOffers()": "infinite",
						"showWinner()": "9031",
						"startTime()": "2448",
						"withdrawDeposit()": "infinite",
						"withdrawFees()": "infinite"
					}
				},
				"methodIdentifiers": {
					"EXTENSION_TIME()": "5681104a",
					"EXTENSION_WINDOW()": "7eb79d5d",
					"MIN_INCREMENT_PERCENT()": "654e4685",
					"REFUND_FEE_PERCENT()": "5230a4c3",
					"bid()": "1998aeef",
					"collectedFees()": "9003adfe",
					"deposits(address)": "fc7e286d",
					"endAuction()": "fe67a54b",
					"endTime()": "3197cbb6",
					"ended()": "12fa6feb",
					"highestBid()": "d57bde79",
					"highestBidder()": "91f90157",
					"lastOfferIndex(address)": "cf6e1966",
					"numOffers()": "cc6bee54",
					"offers(uint256)": "8a72ea6a",
					"partialWithdrawExcess()": "36c2780b",
					"seller()": "08551a53",
					"showOffers()": "534823bf",
					"showWinner()": "b7e03264",
					"startTime()": "78e97925",
					"withdrawDeposit()": "117df088",
					"withdrawFees()": "476343ee"
				}
			},
			"storageLayout": {
				"storage": [
					{
						"astId": 5,
						"contract": "subastaSmartC.sol:AdvancedAuction",
						"label": "seller",
						"offset": 0,
						"slot": "0",
						"type": "t_address_payable"
					},
					{
						"astId": 8,
						"contract": "subastaSmartC.sol:AdvancedAuction",
						"label": "highestBidder",
						"offset": 0,
						"slot": "1",
						"type": "t_address"
					},
					{
						"astId": 11,
						"contract": "subastaSmartC.sol:AdvancedAuction",
						"label": "highestBid",
						"offset": 0,
						"slot": "2",
						"type": "t_uint256"
					},
					{
						"astId": 14,
						"contract": "subastaSmartC.sol:AdvancedAuction",
						"label": "startTime",
						"offset": 0,
						"slot": "3",
						"type": "t_uint256"
					},
					{
						"astId": 17,
						"contract": "subastaSmartC.sol:AdvancedAuction",
						"label": "endTime",
						"offset": 0,
						"slot": "4",
						"type": "t_uint256"
					},
					{
						"astId": 36,
						"contract": "subastaSmartC.sol:AdvancedAuction",
						"label": "ended",
						"offset": 0,
						"slot": "5",
						"type": "t_bool"
					},
					{
						"astId": 39,
						"contract": "subastaSmartC.sol:AdvancedAuction",
						"label": "locked",
						"offset": 1,
						"slot": "5",
						"type": "t_bool"
					},
					{
						"astId": 51,
						"contract": "subastaSmartC.sol:AdvancedAuction",
						"label": "offers",
						"offset": 0,
						"slot": "6",
						"type": "t_array(t_struct(Offer)47_storage)dyn_storage"
					},
					{
						"astId": 56,
						"contract": "subastaSmartC.sol:AdvancedAuction",
						"label": "deposits",
						"offset": 0,
						"slot": "7",
						"type": "t_mapping(t_address,t_uint256)"
					},
					{
						"astId": 61,
						"contract": "subastaSmartC.sol:AdvancedAuction",
						"label": "lastOfferIndex",
						"offset": 0,
						"slot": "8",
						"type": "t_mapping(t_address,t_uint256)"
					},
					{
						"astId": 64,
						"contract": "subastaSmartC.sol:AdvancedAuction",
						"label": "collectedFees",
						"offset": 0,
						"slot": "9",
						"type": "t_uint256"
					}
				],
				"types": {
					"t_address": {
						"encoding": "inplace",
						"label": "address",
						"numberOfBytes": "20"
					},
					"t_address_payable": {
						"encoding": "inplace",
						"label": "address payable",
						"numberOfBytes": "20"
					},
					"t_array(t_struct(Offer)47_storage)dyn_storage": {
						"base": "t_struct(Offer)47_storage",
						"encoding": "dynamic_array",
						"label": "struct AdvancedAuction.Offer[]",
						"numberOfBytes": "32"
					},
					"t_bool": {
						"encoding": "inplace",
						"label": "bool",
						"numberOfBytes": "1"
					},
					"t_mapping(t_address,t_uint256)": {
						"encoding": "mapping",
						"key": "t_address",
						"label": "mapping(address => uint256)",
						"numberOfBytes": "32",
						"value": "t_uint256"
					},
					"t_struct(Offer)47_storage": {
						"encoding": "inplace",
						"label": "struct AdvancedAuction.Offer",
						"members": [
							{
								"astId": 42,
								"contract": "subastaSmartC.sol:AdvancedAuction",
								"label": "bidder",
								"offset": 0,
								"slot": "0",
								"type": "t_address"
							},
							{
								"astId": 44,
								"contract": "subastaSmartC.sol:AdvancedAuction",
								"label": "amount",
								"offset": 0,
								"slot": "1",
								"type": "t_uint256"
							},
							{
								"astId": 46,
								"contract": "subastaSmartC.sol:AdvancedAuction",
								"label": "timestamp",
								"offset": 0,
								"slot": "2",
								"type": "t_uint256"
							}
						],
						"numberOfBytes": "96"
					},
					"t_uint256": {
						"encoding": "inplace",
						"label": "uint256",
						"numberOfBytes": "32"
					}
				}
			},
			"userdoc": {
				"events": {
					"AuctionEnded(address,uint256)": {
						"notice": "Emitted when the auction ends"
					},
					"NewOffer(address,uint256)": {
						"notice": "Emitted when a new valid offer is received"
					},
					"Withdrawal(address,uint256)": {
						"notice": "Emitted on withdrawal"
					}
				},
				"kind": "user",
				"methods": {
					"EXTENSION_TIME()": {
						"notice": "Time (seconds) for auction extension when a valid bid is made near ending (10 min = 600 seconds)"
					},
					"EXTENSION_WINDOW()": {
						"notice": "Time window before the end when extensions are allowed (10 minutes)"
					},
					"MIN_INCREMENT_PERCENT()": {
						"notice": "Minimum percentage increment required for new bids (e.g., 5% = 105)"
					},
					"REFUND_FEE_PERCENT()": {
						"notice": "Commission fee percentage taken from refund to losers (2% = 2)"
					},
					"bid()": {
						"notice": "Place a new bid. Must be at least 5% higher than previous bid and during auction time"
					},
					"collectedFees()": {
						"notice": "Tracks total fees collected from refunds"
					},
					"constructor": {
						"notice": "Initializes the auction"
					},
					"deposits(address)": {
						"notice": "Tracks total deposits for each participant (used for withdrawal/refund)"
					},
					"endAuction()": {
						"notice": "Ends the auction (anyone can call after time's up). Only executes once"
					},
					"endTime()": {
						"notice": "End time (timestamp, dynamically extended)"
					},
					"ended()": {
						"notice": "Auction active flag"
					},
					"highestBid()": {
						"notice": "Highest bid amount"
					},
					"highestBidder()": {
						"notice": "Address of the current highest bidder"
					},
					"lastOfferIndex(address)": {
						"notice": "Tracks the latest offer index for each bidder (for partial withdrawal computation)"
					},
					"numOffers()": {
						"notice": "Returns the current number of offers"
					},
					"partialWithdrawExcess()": {
						"notice": "Partial withdrawal of excess (over last offer) while auction is active"
					},
					"seller()": {
						"notice": "Address of the auction creator/seller"
					},
					"showOffers()": {
						"notice": "Returns list of all offers (for off-chain read)"
					},
					"showWinner()": {
						"notice": "Show the current winner and bid amount"
					},
					"startTime()": {
						"notice": "Start time (timestamp) "
					},
					"withdrawDeposit()": {
						"notice": "Withdraws funds for non-winning bidders after auction ends."
					},
					"withdrawFees()": {
						"notice": "Allows seller to withdraw collected fees from refunds"
					}
				},
				"notice": "Implements an auction with 5% minimum increment, refund with 2% fee, and dynamic end time extension",
				"version": 1
			}
		}
	}
}