{
	"SmartAuctionEthKipu_flattened.sol": {
		"SmartAuctionEthKipu": {
			"abi": [
				{
					"inputs": [
						{
							"internalType": "uint256",
							"name": "_startTime",
							"type": "uint256"
						},
						{
							"internalType": "uint256",
							"name": "_durationMinutes",
							"type": "uint256"
						}
					],
					"stateMutability": "nonpayable",
					"type": "constructor"
				},
				{
					"inputs": [],
					"name": "EnforcedPause",
					"type": "error"
				},
				{
					"inputs": [],
					"name": "ExpectedPause",
					"type": "error"
				},
				{
					"inputs": [],
					"name": "FailedCall",
					"type": "error"
				},
				{
					"inputs": [
						{
							"internalType": "uint256",
							"name": "balance",
							"type": "uint256"
						},
						{
							"internalType": "uint256",
							"name": "needed",
							"type": "uint256"
						}
					],
					"name": "InsufficientBalance",
					"type": "error"
				},
				{
					"inputs": [
						{
							"internalType": "address",
							"name": "owner",
							"type": "address"
						}
					],
					"name": "OwnableInvalidOwner",
					"type": "error"
				},
				{
					"inputs": [
						{
							"internalType": "address",
							"name": "account",
							"type": "address"
						}
					],
					"name": "OwnableUnauthorizedAccount",
					"type": "error"
				},
				{
					"inputs": [],
					"name": "ReentrancyGuardReentrantCall",
					"type": "error"
				},
				{
					"anonymous": false,
					"inputs": [
						{
							"indexed": true,
							"internalType": "address",
							"name": "winner",
							"type": "address"
						},
						{
							"indexed": false,
							"internalType": "uint256",
							"name": "amount",
							"type": "uint256"
						}
					],
					"name": "AuctionEnded",
					"type": "event"
				},
				{
					"anonymous": false,
					"inputs": [
						{
							"indexed": true,
							"internalType": "address",
							"name": "bidder",
							"type": "address"
						},
						{
							"indexed": false,
							"internalType": "uint256",
							"name": "amount",
							"type": "uint256"
						}
					],
					"name": "NewOffer",
					"type": "event"
				},
				{
					"anonymous": false,
					"inputs": [
						{
							"indexed": true,
							"internalType": "address",
							"name": "previousOwner",
							"type": "address"
						},
						{
							"indexed": true,
							"internalType": "address",
							"name": "newOwner",
							"type": "address"
						}
					],
					"name": "OwnershipTransferred",
					"type": "event"
				},
				{
					"anonymous": false,
					"inputs": [
						{
							"indexed": false,
							"internalType": "address",
							"name": "account",
							"type": "address"
						}
					],
					"name": "Paused",
					"type": "event"
				},
				{
					"anonymous": false,
					"inputs": [
						{
							"indexed": false,
							"internalType": "address",
							"name": "account",
							"type": "address"
						}
					],
					"name": "Unpaused",
					"type": "event"
				},
				{
					"anonymous": false,
					"inputs": [
						{
							"indexed": true,
							"internalType": "address",
							"name": "bidder",
							"type": "address"
						},
						{
							"indexed": false,
							"internalType": "uint256",
							"name": "amount",
							"type": "uint256"
						}
					],
					"name": "Withdrawal",
					"type": "event"
				},
				{
					"stateMutability": "payable",
					"type": "fallback"
				},
				{
					"inputs": [],
					"name": "EXTENSION_TIME",
					"outputs": [
						{
							"internalType": "uint256",
							"name": "",
							"type": "uint256"
						}
					],
					"stateMutability": "view",
					"type": "function"
				},
				{
					"inputs": [],
					"name": "EXTENSION_WINDOW",
					"outputs": [
						{
							"internalType": "uint256",
							"name": "",
							"type": "uint256"
						}
					],
					"stateMutability": "view",
					"type": "function"
				},
				{
					"inputs": [],
					"name": "MIN_INCREMENT_PERCENT",
					"outputs": [
						{
							"internalType": "uint256",
							"name": "",
							"type": "uint256"
						}
					],
					"stateMutability": "view",
					"type": "function"
				},
				{
					"inputs": [],
					"name": "REFUND_FEE_PERCENT",
					"outputs": [
						{
							"internalType": "uint256",
							"name": "",
							"type": "uint256"
						}
					],
					"stateMutability": "view",
					"type": "function"
				},
				{
					"inputs": [],
					"name": "bid",
					"outputs": [],
					"stateMutability": "payable",
					"type": "function"
				},
				{
					"inputs": [
						{
							"internalType": "address",
							"name": "",
							"type": "address"
						}
					],
					"name": "deposits",
					"outputs": [
						{
							"internalType": "uint256",
							"name": "",
							"type": "uint256"
						}
					],
					"stateMutability": "view",
					"type": "function"
				},
				{
					"inputs": [],
					"name": "distributeRefunds",
					"outputs": [],
					"stateMutability": "nonpayable",
					"type": "function"
				},
				{
					"inputs": [],
					"name": "emergencyWithdraw",
					"outputs": [],
					"stateMutability": "nonpayable",
					"type": "function"
				},
				{
					"inputs": [],
					"name": "endAuction",
					"outputs": [],
					"stateMutability": "nonpayable",
					"type": "function"
				},
				{
					"inputs": [],
					"name": "endTime",
					"outputs": [
						{
							"internalType": "uint256",
							"name": "",
							"type": "uint256"
						}
					],
					"stateMutability": "view",
					"type": "function"
				},
				{
					"inputs": [],
					"name": "ended",
					"outputs": [
						{
							"internalType": "bool",
							"name": "",
							"type": "bool"
						}
					],
					"stateMutability": "view",
					"type": "function"
				},
				{
					"inputs": [],
					"name": "getCollectedFees",
					"outputs": [
						{
							"internalType": "uint256",
							"name": "",
							"type": "uint256"
						}
					],
					"stateMutability": "view",
					"type": "function"
				},
				{
					"inputs": [],
					"name": "getLastOfferIndex",
					"outputs": [
						{
							"internalType": "uint256",
							"name": "",
							"type": "uint256"
						}
					],
					"stateMutability": "view",
					"type": "function"
				},
				{
					"inputs": [],
					"name": "highestBid",
					"outputs": [
						{
							"internalType": "uint256",
							"name": "",
							"type": "uint256"
						}
					],
					"stateMutability": "view",
					"type": "function"
				},
				{
					"inputs": [],
					"name": "highestBidder",
					"outputs": [
						{
							"internalType": "address",
							"name": "",
							"type": "address"
						}
					],
					"stateMutability": "view",
					"type": "function"
				},
				{
					"inputs": [],
					"name": "numOffers",
					"outputs": [
						{
							"internalType": "uint256",
							"name": "",
							"type": "uint256"
						}
					],
					"stateMutability": "view",
					"type": "function"
				},
				{
					"inputs": [
						{
							"internalType": "uint256",
							"name": "",
							"type": "uint256"
						}
					],
					"name": "offers",
					"outputs": [
						{
							"internalType": "address",
							"name": "bidder",
							"type": "address"
						},
						{
							"internalType": "uint256",
							"name": "amount",
							"type": "uint256"
						},
						{
							"internalType": "uint256",
							"name": "timestamp",
							"type": "uint256"
						}
					],
					"stateMutability": "view",
					"type": "function"
				},
				{
					"inputs": [],
					"name": "owner",
					"outputs": [
						{
							"internalType": "address",
							"name": "",
							"type": "address"
						}
					],
					"stateMutability": "view",
					"type": "function"
				},
				{
					"inputs": [],
					"name": "partialWithdrawExcess",
					"outputs": [],
					"stateMutability": "nonpayable",
					"type": "function"
				},
				{
					"inputs": [],
					"name": "pause",
					"outputs": [],
					"stateMutability": "nonpayable",
					"type": "function"
				},
				{
					"inputs": [],
					"name": "paused",
					"outputs": [
						{
							"internalType": "bool",
							"name": "",
							"type": "bool"
						}
					],
					"stateMutability": "view",
					"type": "function"
				},
				{
					"inputs": [],
					"name": "renounceOwnership",
					"outputs": [],
					"stateMutability": "nonpayable",
					"type": "function"
				},
				{
					"inputs": [],
					"name": "seller",
					"outputs": [
						{
							"internalType": "address payable",
							"name": "",
							"type": "address"
						}
					],
					"stateMutability": "view",
					"type": "function"
				},
				{
					"inputs": [],
					"name": "showOffers",
					"outputs": [
						{
							"components": [
								{
									"internalType": "address",
									"name": "bidder",
									"type": "address"
								},
								{
									"internalType": "uint256",
									"name": "amount",
									"type": "uint256"
								},
								{
									"internalType": "uint256",
									"name": "timestamp",
									"type": "uint256"
								}
							],
							"internalType": "struct SmartAuctionEthKipu.Offer[]",
							"name": "",
							"type": "tuple[]"
						}
					],
					"stateMutability": "view",
					"type": "function"
				},
				{
					"inputs": [],
					"name": "showWinner",
					"outputs": [
						{
							"internalType": "address",
							"name": "winner",
							"type": "address"
						},
						{
							"internalType": "uint256",
							"name": "amount",
							"type": "uint256"
						}
					],
					"stateMutability": "view",
					"type": "function"
				},
				{
					"inputs": [],
					"name": "startTime",
					"outputs": [
						{
							"internalType": "uint256",
							"name": "",
							"type": "uint256"
						}
					],
					"stateMutability": "view",
					"type": "function"
				},
				{
					"inputs": [
						{
							"internalType": "address",
							"name": "newOwner",
							"type": "address"
						}
					],
					"name": "transferOwnership",
					"outputs": [],
					"stateMutability": "nonpayable",
					"type": "function"
				},
				{
					"inputs": [],
					"name": "unpause",
					"outputs": [],
					"stateMutability": "nonpayable",
					"type": "function"
				},
				{
					"inputs": [],
					"name": "withdrawDeposit",
					"outputs": [],
					"stateMutability": "nonpayable",
					"type": "function"
				},
				{
					"inputs": [],
					"name": "withdrawFees",
					"outputs": [],
					"stateMutability": "nonpayable",
					"type": "function"
				},
				{
					"stateMutability": "payable",
					"type": "receive"
				}
			],
			"devdoc": {
				"author": "Feerdus95",
				"details": "Bids are in wei. Handles Ether only, rewards must be delivered separately.",
				"errors": {
					"EnforcedPause()": [
						{
							"details": "The operation failed because the contract is paused."
						}
					],
					"ExpectedPause()": [
						{
							"details": "The operation failed because the contract is not paused."
						}
					],
					"FailedCall()": [
						{
							"details": "A call to an address target failed. The target may have reverted."
						}
					],
					"InsufficientBalance(uint256,uint256)": [
						{
							"details": "The ETH balance of the account is not enough to perform the operation."
						}
					],
					"OwnableInvalidOwner(address)": [
						{
							"details": "The owner is not a valid owner account. (eg. `address(0)`)"
						}
					],
					"OwnableUnauthorizedAccount(address)": [
						{
							"details": "The caller account is not authorized to perform an operation."
						}
					],
					"ReentrancyGuardReentrantCall()": [
						{
							"details": "Unauthorized reentrant call."
						}
					]
				},
				"events": {
					"AuctionEnded(address,uint256)": {
						"params": {
							"amount": "Winning bid amount",
							"winner": "Address of winner"
						}
					},
					"NewOffer(address,uint256)": {
						"params": {
							"amount": "Amount of offer",
							"bidder": "Address of participant who made offer"
						}
					},
					"Paused(address)": {
						"details": "Emitted when the pause is triggered by `account`."
					},
					"Unpaused(address)": {
						"details": "Emitted when the pause is lifted by `account`."
					},
					"Withdrawal(address,uint256)": {
						"params": {
							"amount": "Amount withdrawn",
							"bidder": "Address of participant withdrawing"
						}
					}
				},
				"kind": "dev",
				"methods": {
					"bid()": {
						"details": "Updates deposits, records offer, updates highest bid, may extend time"
					},
					"constructor": {
						"params": {
							"_durationMinutes": "Auction duration in minutes",
							"_startTime": "Start timestamp"
						}
					},
					"distributeRefunds()": {
						"details": "Distributes refunds with 2% fee to all non-winners"
					},
					"emergencyWithdraw()": {
						"details": "Only owner can recover stuck ETH"
					},
					"endAuction()": {
						"details": "Can be called by anyone after time expires. Only executes once"
					},
					"getCollectedFees()": {
						"details": "Only seller can view",
						"returns": {
							"_0": "Amount of collected fees"
						}
					},
					"getLastOfferIndex()": {
						"details": "Returns caller's last offer index",
						"returns": {
							"_0": "Last offer index"
						}
					},
					"numOffers()": {
						"returns": {
							"_0": "Number of offers made"
						}
					},
					"owner()": {
						"details": "Returns the address of the current owner."
					},
					"partialWithdrawExcess()": {
						"details": "Allows non-highest bidders to withdraw during auction"
					},
					"pause()": {
						"details": "Only owner can pause"
					},
					"paused()": {
						"details": "Returns true if the contract is paused, and false otherwise."
					},
					"renounceOwnership()": {
						"details": "Leaves the contract without owner. It will not be possible to call `onlyOwner` functions. Can only be called by the current owner. NOTE: Renouncing ownership will leave the contract without an owner, thereby disabling any functionality that is only available to the owner."
					},
					"showOffers()": {
						"details": "For off-chain reading",
						"returns": {
							"_0": "Array of Offer structs"
						}
					},
					"showWinner()": {
						"details": "Only callable after auction ends",
						"returns": {
							"amount": "Winning bid",
							"winner": "Winner address"
						}
					},
					"transferOwnership(address)": {
						"details": "Transfers ownership of the contract to a new account (`newOwner`). Can only be called by the current owner."
					},
					"unpause()": {
						"details": "Only owner can unpause"
					},
					"withdrawDeposit()": {
						"details": "Deducts 2% commission fee"
					},
					"withdrawFees()": {
						"details": "Only callable by auction seller"
					}
				},
				"title": "Advanced Auction Contract with Dynamic Extension and Partial Refunds",
				"version": 1
			},
			"evm": {
				"assembly": "    /* \"SmartAuctionEthKipu_flattened.sol\":17475:28410  contract SmartAuctionEthKipu is ReentrancyGuard, Ownable, Pausable {... */\n  mstore(0x40, 0x80)\n    /* \"SmartAuctionEthKipu_flattened.sol\":20857:21272  constructor(uint _startTime, uint _durationMinutes) Ownable(msg.sender) {... */\n  callvalue\n  dup1\n  iszero\n  tag_1\n  jumpi\n  revert(0x00, 0x00)\ntag_1:\n  pop\n  mload(0x40)\n  sub(codesize, bytecodeSize)\n  dup1\n  bytecodeSize\n  dup4\n  codecopy\n  dup2\n  dup2\n  add\n  0x40\n  mstore\n  dup2\n  add\n  swap1\n  tag_2\n  swap2\n  swap1\n  tag_3\n  jump\t// in\ntag_2:\n    /* \"SmartAuctionEthKipu_flattened.sol\":20917:20927  msg.sender */\n  caller\n    /* \"SmartAuctionEthKipu_flattened.sol\":1887:1888  1 */\n  0x01\n    /* \"SmartAuctionEthKipu_flattened.sol\":2091:2098  _status */\n  0x00\n    /* \"SmartAuctionEthKipu_flattened.sol\":2091:2112  _status = NOT_ENTERED */\n  dup2\n  swap1\n  sstore\n  pop\n    /* \"SmartAuctionEthKipu_flattened.sol\":5673:5674  0 */\n  0x00\n    /* \"SmartAuctionEthKipu_flattened.sol\":5649:5675  initialOwner == address(0) */\n  0xffffffffffffffffffffffffffffffffffffffff\n  and\n    /* \"SmartAuctionEthKipu_flattened.sol\":5649:5661  initialOwner */\n  dup2\n    /* \"SmartAuctionEthKipu_flattened.sol\":5649:5675  initialOwner == address(0) */\n  0xffffffffffffffffffffffffffffffffffffffff\n  and\n  sub\n    /* \"SmartAuctionEthKipu_flattened.sol\":5645:5740  if (initialOwner == address(0)) {... */\n  tag_9\n  jumpi\n    /* \"SmartAuctionEthKipu_flattened.sol\":5726:5727  0 */\n  0x00\n    /* \"SmartAuctionEthKipu_flattened.sol\":5698:5729  OwnableInvalidOwner(address(0)) */\n  mload(0x40)\n  0x1e4fbdf700000000000000000000000000000000000000000000000000000000\n  dup2\n  mstore\n  0x04\n  add\n  tag_10\n  swap2\n  swap1\n  tag_11\n  jump\t// in\ntag_10:\n  mload(0x40)\n  dup1\n  swap2\n  sub\n  swap1\n  revert\n    /* \"SmartAuctionEthKipu_flattened.sol\":5645:5740  if (initialOwner == address(0)) {... */\ntag_9:\n    /* \"SmartAuctionEthKipu_flattened.sol\":5749:5781  _transferOwnership(initialOwner) */\n  tag_12\n    /* \"SmartAuctionEthKipu_flattened.sol\":5768:5780  initialOwner */\n  dup2\n    /* \"SmartAuctionEthKipu_flattened.sol\":5749:5767  _transferOwnership */\n  shl(0x20, tag_13)\n    /* \"SmartAuctionEthKipu_flattened.sol\":5749:5781  _transferOwnership(initialOwner) */\n  0x20\n  shr\n  jump\t// in\ntag_12:\n    /* \"SmartAuctionEthKipu_flattened.sol\":5601:5788  constructor(address initialOwner) {... */\n  pop\n    /* \"SmartAuctionEthKipu_flattened.sol\":20966:20967  0 */\n  0x00\n    /* \"SmartAuctionEthKipu_flattened.sol\":20947:20963  _durationMinutes */\n  dup2\n    /* \"SmartAuctionEthKipu_flattened.sol\":20947:20967  _durationMinutes > 0 */\n  gt\n    /* \"SmartAuctionEthKipu_flattened.sol\":20939:20988  require(_durationMinutes > 0, \"Invalid duration\") */\n  tag_15\n  jumpi\n  mload(0x40)\n  0x08c379a000000000000000000000000000000000000000000000000000000000\n  dup2\n  mstore\n  0x04\n  add\n  tag_16\n  swap1\n  tag_17\n  jump\t// in\ntag_16:\n  mload(0x40)\n  dup1\n  swap2\n  sub\n  swap1\n  revert\ntag_15:\n    /* \"SmartAuctionEthKipu_flattened.sol\":21019:21034  block.timestamp */\n  timestamp\n    /* \"SmartAuctionEthKipu_flattened.sol\":21006:21016  _startTime */\n  dup3\n    /* \"SmartAuctionEthKipu_flattened.sol\":21006:21034  _startTime > block.timestamp */\n  gt\n    /* \"SmartAuctionEthKipu_flattened.sol\":20998:21052  require(_startTime > block.timestamp, \"Invalid start\") */\n  tag_18\n  jumpi\n  mload(0x40)\n  0x08c379a000000000000000000000000000000000000000000000000000000000\n  dup2\n  mstore\n  0x04\n  add\n  tag_19\n  swap1\n  tag_20\n  jump\t// in\ntag_19:\n  mload(0x40)\n  dup1\n  swap2\n  sub\n  swap1\n  revert\ntag_18:\n    /* \"SmartAuctionEthKipu_flattened.sol\":21090:21095  43200 */\n  0xa8c0\n    /* \"SmartAuctionEthKipu_flattened.sol\":21070:21086  _durationMinutes */\n  dup2\n    /* \"SmartAuctionEthKipu_flattened.sol\":21070:21095  _durationMinutes <= 43200 */\n  gt\n  iszero\n    /* \"SmartAuctionEthKipu_flattened.sol\":21062:21108  require(_durationMinutes <= 43200, \"Too long\") */\n  tag_21\n  jumpi\n  mload(0x40)\n  0x08c379a000000000000000000000000000000000000000000000000000000000\n  dup2\n  mstore\n  0x04\n  add\n  tag_22\n  swap1\n  tag_23\n  jump\t// in\ntag_22:\n  mload(0x40)\n  dup1\n  swap2\n  sub\n  swap1\n  revert\ntag_21:\n    /* \"SmartAuctionEthKipu_flattened.sol\":21159:21169  msg.sender */\n  caller\n    /* \"SmartAuctionEthKipu_flattened.sol\":21142:21148  seller */\n  0x02\n  0x00\n    /* \"SmartAuctionEthKipu_flattened.sol\":21142:21170  seller = payable(msg.sender) */\n  0x0100\n  exp\n  dup2\n  sload\n  dup2\n  0xffffffffffffffffffffffffffffffffffffffff\n  mul\n  not\n  and\n  swap1\n  dup4\n  0xffffffffffffffffffffffffffffffffffffffff\n  and\n  mul\n  or\n  swap1\n  sstore\n  pop\n    /* \"SmartAuctionEthKipu_flattened.sol\":21192:21202  _startTime */\n  dup2\n    /* \"SmartAuctionEthKipu_flattened.sol\":21180:21189  startTime */\n  0x05\n    /* \"SmartAuctionEthKipu_flattened.sol\":21180:21202  startTime = _startTime */\n  dup2\n  swap1\n  sstore\n  pop\n    /* \"SmartAuctionEthKipu_flattened.sol\":21255:21264  1 minutes */\n  0x3c\n    /* \"SmartAuctionEthKipu_flattened.sol\":21236:21252  _durationMinutes */\n  dup2\n    /* \"SmartAuctionEthKipu_flattened.sol\":21236:21264  _durationMinutes * 1 minutes */\n  tag_24\n  swap2\n  swap1\n  tag_25\n  jump\t// in\ntag_24:\n    /* \"SmartAuctionEthKipu_flattened.sol\":21222:21232  _startTime */\n  dup3\n    /* \"SmartAuctionEthKipu_flattened.sol\":21222:21265  _startTime + (_durationMinutes * 1 minutes) */\n  tag_26\n  swap2\n  swap1\n  tag_27\n  jump\t// in\ntag_26:\n    /* \"SmartAuctionEthKipu_flattened.sol\":21212:21219  endTime */\n  0x06\n    /* \"SmartAuctionEthKipu_flattened.sol\":21212:21265  endTime = _startTime + (_durationMinutes * 1 minutes) */\n  dup2\n  swap1\n  sstore\n  pop\n    /* \"SmartAuctionEthKipu_flattened.sol\":20857:21272  constructor(uint _startTime, uint _durationMinutes) Ownable(msg.sender) {... */\n  pop\n  pop\n    /* \"SmartAuctionEthKipu_flattened.sol\":17475:28410  contract SmartAuctionEthKipu is ReentrancyGuard, Ownable, Pausable {... */\n  jump(tag_28)\n    /* \"SmartAuctionEthKipu_flattened.sol\":7288:7475  function _transferOwnership(address newOwner) internal virtual {... */\ntag_13:\n    /* \"SmartAuctionEthKipu_flattened.sol\":7361:7377  address oldOwner */\n  0x00\n    /* \"SmartAuctionEthKipu_flattened.sol\":7380:7386  _owner */\n  0x01\n  0x00\n  swap1\n  sload\n  swap1\n  0x0100\n  exp\n  swap1\n  div\n  0xffffffffffffffffffffffffffffffffffffffff\n  and\n    /* \"SmartAuctionEthKipu_flattened.sol\":7361:7386  address oldOwner = _owner */\n  swap1\n  pop\n    /* \"SmartAuctionEthKipu_flattened.sol\":7405:7413  newOwner */\n  dup2\n    /* \"SmartAuctionEthKipu_flattened.sol\":7396:7402  _owner */\n  0x01\n  0x00\n    /* \"SmartAuctionEthKipu_flattened.sol\":7396:7413  _owner = newOwner */\n  0x0100\n  exp\n  dup2\n  sload\n  dup2\n  0xffffffffffffffffffffffffffffffffffffffff\n  mul\n  not\n  and\n  swap1\n  dup4\n  0xffffffffffffffffffffffffffffffffffffffff\n  and\n  mul\n  or\n  swap1\n  sstore\n  pop\n    /* \"SmartAuctionEthKipu_flattened.sol\":7459:7467  newOwner */\n  dup2\n    /* \"SmartAuctionEthKipu_flattened.sol\":7428:7468  OwnershipTransferred(oldOwner, newOwner) */\n  0xffffffffffffffffffffffffffffffffffffffff\n  and\n    /* \"SmartAuctionEthKipu_flattened.sol\":7449:7457  oldOwner */\n  dup2\n    /* \"SmartAuctionEthKipu_flattened.sol\":7428:7468  OwnershipTransferred(oldOwner, newOwner) */\n  0xffffffffffffffffffffffffffffffffffffffff\n  and\n  0x8be0079c531659141344cd1fd0a4f28419497f9722a3daafe3b4186f6b6457e0\n  mload(0x40)\n  mload(0x40)\n  dup1\n  swap2\n  sub\n  swap1\n  log3\n    /* \"SmartAuctionEthKipu_flattened.sol\":7351:7475  {... */\n  pop\n    /* \"SmartAuctionEthKipu_flattened.sol\":7288:7475  function _transferOwnership(address newOwner) internal virtual {... */\n  pop\n  jump\t// out\n    /* \"#utility.yul\":88:205   */\ntag_31:\n    /* \"#utility.yul\":197:198   */\n  0x00\n    /* \"#utility.yul\":194:195   */\n  0x00\n    /* \"#utility.yul\":187:199   */\n  revert\n    /* \"#utility.yul\":334:411   */\ntag_33:\n    /* \"#utility.yul\":371:378   */\n  0x00\n    /* \"#utility.yul\":400:405   */\n  dup2\n    /* \"#utility.yul\":389:405   */\n  swap1\n  pop\n    /* \"#utility.yul\":334:411   */\n  swap2\n  swap1\n  pop\n  jump\t// out\n    /* \"#utility.yul\":417:539   */\ntag_34:\n    /* \"#utility.yul\":490:514   */\n  tag_53\n    /* \"#utility.yul\":508:513   */\n  dup2\n    /* \"#utility.yul\":490:514   */\n  tag_33\n  jump\t// in\ntag_53:\n    /* \"#utility.yul\":483:488   */\n  dup2\n    /* \"#utility.yul\":480:515   */\n  eq\n    /* \"#utility.yul\":470:533   */\n  tag_54\n  jumpi\n    /* \"#utility.yul\":529:530   */\n  0x00\n    /* \"#utility.yul\":526:527   */\n  0x00\n    /* \"#utility.yul\":519:531   */\n  revert\n    /* \"#utility.yul\":470:533   */\ntag_54:\n    /* \"#utility.yul\":417:539   */\n  pop\n  jump\t// out\n    /* \"#utility.yul\":545:688   */\ntag_35:\n    /* \"#utility.yul\":602:607   */\n  0x00\n    /* \"#utility.yul\":633:639   */\n  dup2\n    /* \"#utility.yul\":627:640   */\n  mload\n    /* \"#utility.yul\":618:640   */\n  swap1\n  pop\n    /* \"#utility.yul\":649:682   */\n  tag_56\n    /* \"#utility.yul\":676:681   */\n  dup2\n    /* \"#utility.yul\":649:682   */\n  tag_34\n  jump\t// in\ntag_56:\n    /* \"#utility.yul\":545:688   */\n  swap3\n  swap2\n  pop\n  pop\n  jump\t// out\n    /* \"#utility.yul\":694:1201   */\ntag_3:\n    /* \"#utility.yul\":773:779   */\n  0x00\n    /* \"#utility.yul\":781:787   */\n  0x00\n    /* \"#utility.yul\":830:832   */\n  0x40\n    /* \"#utility.yul\":818:827   */\n  dup4\n    /* \"#utility.yul\":809:816   */\n  dup6\n    /* \"#utility.yul\":805:828   */\n  sub\n    /* \"#utility.yul\":801:833   */\n  slt\n    /* \"#utility.yul\":798:917   */\n  iszero\n  tag_58\n  jumpi\n    /* \"#utility.yul\":836:915   */\n  tag_59\n  tag_31\n  jump\t// in\ntag_59:\n    /* \"#utility.yul\":798:917   */\ntag_58:\n    /* \"#utility.yul\":956:957   */\n  0x00\n    /* \"#utility.yul\":981:1045   */\n  tag_60\n    /* \"#utility.yul\":1037:1044   */\n  dup6\n    /* \"#utility.yul\":1028:1034   */\n  dup3\n    /* \"#utility.yul\":1017:1026   */\n  dup7\n    /* \"#utility.yul\":1013:1035   */\n  add\n    /* \"#utility.yul\":981:1045   */\n  tag_35\n  jump\t// in\ntag_60:\n    /* \"#utility.yul\":971:1045   */\n  swap3\n  pop\n    /* \"#utility.yul\":927:1055   */\n  pop\n    /* \"#utility.yul\":1094:1096   */\n  0x20\n    /* \"#utility.yul\":1120:1184   */\n  tag_61\n    /* \"#utility.yul\":1176:1183   */\n  dup6\n    /* \"#utility.yul\":1167:1173   */\n  dup3\n    /* \"#utility.yul\":1156:1165   */\n  dup7\n    /* \"#utility.yul\":1152:1174   */\n  add\n    /* \"#utility.yul\":1120:1184   */\n  tag_35\n  jump\t// in\ntag_61:\n    /* \"#utility.yul\":1110:1184   */\n  swap2\n  pop\n    /* \"#utility.yul\":1065:1194   */\n  pop\n    /* \"#utility.yul\":694:1201   */\n  swap3\n  pop\n  swap3\n  swap1\n  pop\n  jump\t// out\n    /* \"#utility.yul\":1207:1333   */\ntag_36:\n    /* \"#utility.yul\":1244:1251   */\n  0x00\n    /* \"#utility.yul\":1284:1326   */\n  0xffffffffffffffffffffffffffffffffffffffff\n    /* \"#utility.yul\":1277:1282   */\n  dup3\n    /* \"#utility.yul\":1273:1327   */\n  and\n    /* \"#utility.yul\":1262:1327   */\n  swap1\n  pop\n    /* \"#utility.yul\":1207:1333   */\n  swap2\n  swap1\n  pop\n  jump\t// out\n    /* \"#utility.yul\":1339:1435   */\ntag_37:\n    /* \"#utility.yul\":1376:1383   */\n  0x00\n    /* \"#utility.yul\":1405:1429   */\n  tag_64\n    /* \"#utility.yul\":1423:1428   */\n  dup3\n    /* \"#utility.yul\":1405:1429   */\n  tag_36\n  jump\t// in\ntag_64:\n    /* \"#utility.yul\":1394:1429   */\n  swap1\n  pop\n    /* \"#utility.yul\":1339:1435   */\n  swap2\n  swap1\n  pop\n  jump\t// out\n    /* \"#utility.yul\":1441:1559   */\ntag_38:\n    /* \"#utility.yul\":1528:1552   */\n  tag_66\n    /* \"#utility.yul\":1546:1551   */\n  dup2\n    /* \"#utility.yul\":1528:1552   */\n  tag_37\n  jump\t// in\ntag_66:\n    /* \"#utility.yul\":1523:1526   */\n  dup3\n    /* \"#utility.yul\":1516:1553   */\n  mstore\n    /* \"#utility.yul\":1441:1559   */\n  pop\n  pop\n  jump\t// out\n    /* \"#utility.yul\":1565:1787   */\ntag_11:\n    /* \"#utility.yul\":1658:1662   */\n  0x00\n    /* \"#utility.yul\":1696:1698   */\n  0x20\n    /* \"#utility.yul\":1685:1694   */\n  dup3\n    /* \"#utility.yul\":1681:1699   */\n  add\n    /* \"#utility.yul\":1673:1699   */\n  swap1\n  pop\n    /* \"#utility.yul\":1709:1780   */\n  tag_68\n    /* \"#utility.yul\":1777:1778   */\n  0x00\n    /* \"#utility.yul\":1766:1775   */\n  dup4\n    /* \"#utility.yul\":1762:1779   */\n  add\n    /* \"#utility.yul\":1753:1759   */\n  dup5\n    /* \"#utility.yul\":1709:1780   */\n  tag_38\n  jump\t// in\ntag_68:\n    /* \"#utility.yul\":1565:1787   */\n  swap3\n  swap2\n  pop\n  pop\n  jump\t// out\n    /* \"#utility.yul\":1793:1962   */\ntag_39:\n    /* \"#utility.yul\":1877:1888   */\n  0x00\n    /* \"#utility.yul\":1911:1917   */\n  dup3\n    /* \"#utility.yul\":1906:1909   */\n  dup3\n    /* \"#utility.yul\":1899:1918   */\n  mstore\n    /* \"#utility.yul\":1951:1955   */\n  0x20\n    /* \"#utility.yul\":1946:1949   */\n  dup3\n    /* \"#utility.yul\":1942:1956   */\n  add\n    /* \"#utility.yul\":1927:1956   */\n  swap1\n  pop\n    /* \"#utility.yul\":1793:1962   */\n  swap3\n  swap2\n  pop\n  pop\n  jump\t// out\n    /* \"#utility.yul\":1968:2134   */\ntag_40:\n    /* \"#utility.yul\":2108:2126   */\n  0x496e76616c6964206475726174696f6e00000000000000000000000000000000\n    /* \"#utility.yul\":2104:2105   */\n  0x00\n    /* \"#utility.yul\":2096:2102   */\n  dup3\n    /* \"#utility.yul\":2092:2106   */\n  add\n    /* \"#utility.yul\":2085:2127   */\n  mstore\n    /* \"#utility.yul\":1968:2134   */\n  pop\n  jump\t// out\n    /* \"#utility.yul\":2140:2506   */\ntag_41:\n    /* \"#utility.yul\":2282:2285   */\n  0x00\n    /* \"#utility.yul\":2303:2370   */\n  tag_72\n    /* \"#utility.yul\":2367:2369   */\n  0x10\n    /* \"#utility.yul\":2362:2365   */\n  dup4\n    /* \"#utility.yul\":2303:2370   */\n  tag_39\n  jump\t// in\ntag_72:\n    /* \"#utility.yul\":2296:2370   */\n  swap2\n  pop\n    /* \"#utility.yul\":2379:2472   */\n  tag_73\n    /* \"#utility.yul\":2468:2471   */\n  dup3\n    /* \"#utility.yul\":2379:2472   */\n  tag_40\n  jump\t// in\ntag_73:\n    /* \"#utility.yul\":2497:2499   */\n  0x20\n    /* \"#utility.yul\":2492:2495   */\n  dup3\n    /* \"#utility.yul\":2488:2500   */\n  add\n    /* \"#utility.yul\":2481:2500   */\n  swap1\n  pop\n    /* \"#utility.yul\":2140:2506   */\n  swap2\n  swap1\n  pop\n  jump\t// out\n    /* \"#utility.yul\":2512:2931   */\ntag_17:\n    /* \"#utility.yul\":2678:2682   */\n  0x00\n    /* \"#utility.yul\":2716:2718   */\n  0x20\n    /* \"#utility.yul\":2705:2714   */\n  dup3\n    /* \"#utility.yul\":2701:2719   */\n  add\n    /* \"#utility.yul\":2693:2719   */\n  swap1\n  pop\n    /* \"#utility.yul\":2765:2774   */\n  dup2\n    /* \"#utility.yul\":2759:2763   */\n  dup2\n    /* \"#utility.yul\":2755:2775   */\n  sub\n    /* \"#utility.yul\":2751:2752   */\n  0x00\n    /* \"#utility.yul\":2740:2749   */\n  dup4\n    /* \"#utility.yul\":2736:2753   */\n  add\n    /* \"#utility.yul\":2729:2776   */\n  mstore\n    /* \"#utility.yul\":2793:2924   */\n  tag_75\n    /* \"#utility.yul\":2919:2923   */\n  dup2\n    /* \"#utility.yul\":2793:2924   */\n  tag_41\n  jump\t// in\ntag_75:\n    /* \"#utility.yul\":2785:2924   */\n  swap1\n  pop\n    /* \"#utility.yul\":2512:2931   */\n  swap2\n  swap1\n  pop\n  jump\t// out\n    /* \"#utility.yul\":2937:3100   */\ntag_42:\n    /* \"#utility.yul\":3077:3092   */\n  0x496e76616c696420737461727400000000000000000000000000000000000000\n    /* \"#utility.yul\":3073:3074   */\n  0x00\n    /* \"#utility.yul\":3065:3071   */\n  dup3\n    /* \"#utility.yul\":3061:3075   */\n  add\n    /* \"#utility.yul\":3054:3093   */\n  mstore\n    /* \"#utility.yul\":2937:3100   */\n  pop\n  jump\t// out\n    /* \"#utility.yul\":3106:3472   */\ntag_43:\n    /* \"#utility.yul\":3248:3251   */\n  0x00\n    /* \"#utility.yul\":3269:3336   */\n  tag_78\n    /* \"#utility.yul\":3333:3335   */\n  0x0d\n    /* \"#utility.yul\":3328:3331   */\n  dup4\n    /* \"#utility.yul\":3269:3336   */\n  tag_39\n  jump\t// in\ntag_78:\n    /* \"#utility.yul\":3262:3336   */\n  swap2\n  pop\n    /* \"#utility.yul\":3345:3438   */\n  tag_79\n    /* \"#utility.yul\":3434:3437   */\n  dup3\n    /* \"#utility.yul\":3345:3438   */\n  tag_42\n  jump\t// in\ntag_79:\n    /* \"#utility.yul\":3463:3465   */\n  0x20\n    /* \"#utility.yul\":3458:3461   */\n  dup3\n    /* \"#utility.yul\":3454:3466   */\n  add\n    /* \"#utility.yul\":3447:3466   */\n  swap1\n  pop\n    /* \"#utility.yul\":3106:3472   */\n  swap2\n  swap1\n  pop\n  jump\t// out\n    /* \"#utility.yul\":3478:3897   */\ntag_20:\n    /* \"#utility.yul\":3644:3648   */\n  0x00\n    /* \"#utility.yul\":3682:3684   */\n  0x20\n    /* \"#utility.yul\":3671:3680   */\n  dup3\n    /* \"#utility.yul\":3667:3685   */\n  add\n    /* \"#utility.yul\":3659:3685   */\n  swap1\n  pop\n    /* \"#utility.yul\":3731:3740   */\n  dup2\n    /* \"#utility.yul\":3725:3729   */\n  dup2\n    /* \"#utility.yul\":3721:3741   */\n  sub\n    /* \"#utility.yul\":3717:3718   */\n  0x00\n    /* \"#utility.yul\":3706:3715   */\n  dup4\n    /* \"#utility.yul\":3702:3719   */\n  add\n    /* \"#utility.yul\":3695:3742   */\n  mstore\n    /* \"#utility.yul\":3759:3890   */\n  tag_81\n    /* \"#utility.yul\":3885:3889   */\n  dup2\n    /* \"#utility.yul\":3759:3890   */\n  tag_43\n  jump\t// in\ntag_81:\n    /* \"#utility.yul\":3751:3890   */\n  swap1\n  pop\n    /* \"#utility.yul\":3478:3897   */\n  swap2\n  swap1\n  pop\n  jump\t// out\n    /* \"#utility.yul\":3903:4061   */\ntag_44:\n    /* \"#utility.yul\":4043:4053   */\n  0x546f6f206c6f6e67000000000000000000000000000000000000000000000000\n    /* \"#utility.yul\":4039:4040   */\n  0x00\n    /* \"#utility.yul\":4031:4037   */\n  dup3\n    /* \"#utility.yul\":4027:4041   */\n  add\n    /* \"#utility.yul\":4020:4054   */\n  mstore\n    /* \"#utility.yul\":3903:4061   */\n  pop\n  jump\t// out\n    /* \"#utility.yul\":4067:4432   */\ntag_45:\n    /* \"#utility.yul\":4209:4212   */\n  0x00\n    /* \"#utility.yul\":4230:4296   */\n  tag_84\n    /* \"#utility.yul\":4294:4295   */\n  0x08\n    /* \"#utility.yul\":4289:4292   */\n  dup4\n    /* \"#utility.yul\":4230:4296   */\n  tag_39\n  jump\t// in\ntag_84:\n    /* \"#utility.yul\":4223:4296   */\n  swap2\n  pop\n    /* \"#utility.yul\":4305:4398   */\n  tag_85\n    /* \"#utility.yul\":4394:4397   */\n  dup3\n    /* \"#utility.yul\":4305:4398   */\n  tag_44\n  jump\t// in\ntag_85:\n    /* \"#utility.yul\":4423:4425   */\n  0x20\n    /* \"#utility.yul\":4418:4421   */\n  dup3\n    /* \"#utility.yul\":4414:4426   */\n  add\n    /* \"#utility.yul\":4407:4426   */\n  swap1\n  pop\n    /* \"#utility.yul\":4067:4432   */\n  swap2\n  swap1\n  pop\n  jump\t// out\n    /* \"#utility.yul\":4438:4857   */\ntag_23:\n    /* \"#utility.yul\":4604:4608   */\n  0x00\n    /* \"#utility.yul\":4642:4644   */\n  0x20\n    /* \"#utility.yul\":4631:4640   */\n  dup3\n    /* \"#utility.yul\":4627:4645   */\n  add\n    /* \"#utility.yul\":4619:4645   */\n  swap1\n  pop\n    /* \"#utility.yul\":4691:4700   */\n  dup2\n    /* \"#utility.yul\":4685:4689   */\n  dup2\n    /* \"#utility.yul\":4681:4701   */\n  sub\n    /* \"#utility.yul\":4677:4678   */\n  0x00\n    /* \"#utility.yul\":4666:4675   */\n  dup4\n    /* \"#utility.yul\":4662:4679   */\n  add\n    /* \"#utility.yul\":4655:4702   */\n  mstore\n    /* \"#utility.yul\":4719:4850   */\n  tag_87\n    /* \"#utility.yul\":4845:4849   */\n  dup2\n    /* \"#utility.yul\":4719:4850   */\n  tag_45\n  jump\t// in\ntag_87:\n    /* \"#utility.yul\":4711:4850   */\n  swap1\n  pop\n    /* \"#utility.yul\":4438:4857   */\n  swap2\n  swap1\n  pop\n  jump\t// out\n    /* \"#utility.yul\":4863:5043   */\ntag_46:\n    /* \"#utility.yul\":4911:4988   */\n  0x4e487b7100000000000000000000000000000000000000000000000000000000\n    /* \"#utility.yul\":4908:4909   */\n  0x00\n    /* \"#utility.yul\":4901:4989   */\n  mstore\n    /* \"#utility.yul\":5008:5012   */\n  0x11\n    /* \"#utility.yul\":5005:5006   */\n  0x04\n    /* \"#utility.yul\":4998:5013   */\n  mstore\n    /* \"#utility.yul\":5032:5036   */\n  0x24\n    /* \"#utility.yul\":5029:5030   */\n  0x00\n    /* \"#utility.yul\":5022:5037   */\n  revert\n    /* \"#utility.yul\":5049:5459   */\ntag_25:\n    /* \"#utility.yul\":5089:5096   */\n  0x00\n    /* \"#utility.yul\":5112:5132   */\n  tag_90\n    /* \"#utility.yul\":5130:5131   */\n  dup3\n    /* \"#utility.yul\":5112:5132   */\n  tag_33\n  jump\t// in\ntag_90:\n    /* \"#utility.yul\":5107:5132   */\n  swap2\n  pop\n    /* \"#utility.yul\":5146:5166   */\n  tag_91\n    /* \"#utility.yul\":5164:5165   */\n  dup4\n    /* \"#utility.yul\":5146:5166   */\n  tag_33\n  jump\t// in\ntag_91:\n    /* \"#utility.yul\":5141:5166   */\n  swap3\n  pop\n    /* \"#utility.yul\":5201:5202   */\n  dup3\n    /* \"#utility.yul\":5198:5199   */\n  dup3\n    /* \"#utility.yul\":5194:5203   */\n  mul\n    /* \"#utility.yul\":5223:5253   */\n  tag_92\n    /* \"#utility.yul\":5241:5252   */\n  dup2\n    /* \"#utility.yul\":5223:5253   */\n  tag_33\n  jump\t// in\ntag_92:\n    /* \"#utility.yul\":5212:5253   */\n  swap2\n  pop\n    /* \"#utility.yul\":5402:5403   */\n  dup3\n    /* \"#utility.yul\":5393:5400   */\n  dup3\n    /* \"#utility.yul\":5389:5404   */\n  div\n    /* \"#utility.yul\":5386:5387   */\n  dup5\n    /* \"#utility.yul\":5383:5405   */\n  eq\n    /* \"#utility.yul\":5363:5364   */\n  dup4\n    /* \"#utility.yul\":5356:5365   */\n  iszero\n    /* \"#utility.yul\":5336:5419   */\n  or\n    /* \"#utility.yul\":5313:5452   */\n  tag_93\n  jumpi\n    /* \"#utility.yul\":5432:5450   */\n  tag_94\n  tag_46\n  jump\t// in\ntag_94:\n    /* \"#utility.yul\":5313:5452   */\ntag_93:\n    /* \"#utility.yul\":5097:5459   */\n  pop\n    /* \"#utility.yul\":5049:5459   */\n  swap3\n  swap2\n  pop\n  pop\n  jump\t// out\n    /* \"#utility.yul\":5465:5656   */\ntag_27:\n    /* \"#utility.yul\":5505:5508   */\n  0x00\n    /* \"#utility.yul\":5524:5544   */\n  tag_96\n    /* \"#utility.yul\":5542:5543   */\n  dup3\n    /* \"#utility.yul\":5524:5544   */\n  tag_33\n  jump\t// in\ntag_96:\n    /* \"#utility.yul\":5519:5544   */\n  swap2\n  pop\n    /* \"#utility.yul\":5558:5578   */\n  tag_97\n    /* \"#utility.yul\":5576:5577   */\n  dup4\n    /* \"#utility.yul\":5558:5578   */\n  tag_33\n  jump\t// in\ntag_97:\n    /* \"#utility.yul\":5553:5578   */\n  swap3\n  pop\n    /* \"#utility.yul\":5601:5602   */\n  dup3\n    /* \"#utility.yul\":5598:5599   */\n  dup3\n    /* \"#utility.yul\":5594:5603   */\n  add\n    /* \"#utility.yul\":5587:5603   */\n  swap1\n  pop\n    /* \"#utility.yul\":5622:5625   */\n  dup1\n    /* \"#utility.yul\":5619:5620   */\n  dup3\n    /* \"#utility.yul\":5616:5626   */\n  gt\n    /* \"#utility.yul\":5613:5649   */\n  iszero\n  tag_98\n  jumpi\n    /* \"#utility.yul\":5629:5647   */\n  tag_99\n  tag_46\n  jump\t// in\ntag_99:\n    /* \"#utility.yul\":5613:5649   */\ntag_98:\n    /* \"#utility.yul\":5465:5656   */\n  swap3\n  swap2\n  pop\n  pop\n  jump\t// out\n    /* \"SmartAuctionEthKipu_flattened.sol\":17475:28410  contract SmartAuctionEthKipu is ReentrancyGuard, Ownable, Pausable {... */\ntag_28:\n  dataSize(sub_0)\n  dup1\n  dataOffset(sub_0)\n  0x00\n  codecopy\n  0x00\n  return\nstop\n\nsub_0: assembly {\n        /* \"SmartAuctionEthKipu_flattened.sol\":17475:28410  contract SmartAuctionEthKipu is ReentrancyGuard, Ownable, Pausable {... */\n      mstore(0x40, 0x80)\n      jumpi(tag_1, lt(calldatasize, 0x04))\n      shr(0xe0, calldataload(0x00))\n      dup1\n      0x7eb79d5d\n      gt\n      tag_33\n      jumpi\n      dup1\n      0xcc6bee54\n      gt\n      tag_34\n      jumpi\n      dup1\n      0xf2fde38b\n      gt\n      tag_35\n      jumpi\n      dup1\n      0xf2fde38b\n      eq\n      tag_29\n      jumpi\n      dup1\n      0xf4668c6c\n      eq\n      tag_30\n      jumpi\n      dup1\n      0xfc7e286d\n      eq\n      tag_31\n      jumpi\n      dup1\n      0xfe67a54b\n      eq\n      tag_32\n      jumpi\n      jump(tag_2)\n    tag_35:\n      dup1\n      0xcc6bee54\n      eq\n      tag_25\n      jumpi\n      dup1\n      0xd54a8d18\n      eq\n      tag_26\n      jumpi\n      dup1\n      0xd57bde79\n      eq\n      tag_27\n      jumpi\n      dup1\n      0xdb2e21bc\n      eq\n      tag_28\n      jumpi\n      jump(tag_2)\n    tag_34:\n      dup1\n      0x8da5cb5b\n      gt\n      tag_36\n      jumpi\n      dup1\n      0x8da5cb5b\n      eq\n      tag_21\n      jumpi\n      dup1\n      0x8f9cfe70\n      eq\n      tag_22\n      jumpi\n      dup1\n      0x91f90157\n      eq\n      tag_23\n      jumpi\n      dup1\n      0xb7e03264\n      eq\n      tag_24\n      jumpi\n      jump(tag_2)\n    tag_36:\n      dup1\n      0x7eb79d5d\n      eq\n      tag_18\n      jumpi\n      dup1\n      0x8456cb59\n      eq\n      tag_19\n      jumpi\n      dup1\n      0x8a72ea6a\n      eq\n      tag_20\n      jumpi\n      jump(tag_2)\n    tag_33:\n      dup1\n      0x476343ee\n      gt\n      tag_37\n      jumpi\n      dup1\n      0x5c975abb\n      gt\n      tag_38\n      jumpi\n      dup1\n      0x5c975abb\n      eq\n      tag_14\n      jumpi\n      dup1\n      0x654e4685\n      eq\n      tag_15\n      jumpi\n      dup1\n      0x715018a6\n      eq\n      tag_16\n      jumpi\n      dup1\n      0x78e97925\n      eq\n      tag_17\n      jumpi\n      jump(tag_2)\n    tag_38:\n      dup1\n      0x476343ee\n      eq\n      tag_10\n      jumpi\n      dup1\n      0x5230a4c3\n      eq\n      tag_11\n      jumpi\n      dup1\n      0x534823bf\n      eq\n      tag_12\n      jumpi\n      dup1\n      0x5681104a\n      eq\n      tag_13\n      jumpi\n      jump(tag_2)\n    tag_37:\n      dup1\n      0x1998aeef\n      gt\n      tag_39\n      jumpi\n      dup1\n      0x1998aeef\n      eq\n      tag_6\n      jumpi\n      dup1\n      0x3197cbb6\n      eq\n      tag_7\n      jumpi\n      dup1\n      0x36c2780b\n      eq\n      tag_8\n      jumpi\n      dup1\n      0x3f4ba83a\n      eq\n      tag_9\n      jumpi\n      jump(tag_2)\n    tag_39:\n      dup1\n      0x08551a53\n      eq\n      tag_3\n      jumpi\n      dup1\n      0x117df088\n      eq\n      tag_4\n      jumpi\n      dup1\n      0x12fa6feb\n      eq\n      tag_5\n      jumpi\n      jump(tag_2)\n    tag_1:\n      jumpi(tag_2, calldatasize)\n        /* \"SmartAuctionEthKipu_flattened.sol\":28253:28272  revert(\"Use bid()\") */\n      mload(0x40)\n      0x08c379a000000000000000000000000000000000000000000000000000000000\n      dup2\n      mstore\n      0x04\n      add\n      tag_42\n      swap1\n      tag_43\n      jump\t// in\n    tag_42:\n      mload(0x40)\n      dup1\n      swap2\n      sub\n      swap1\n      revert\n        /* \"SmartAuctionEthKipu_flattened.sol\":17475:28410  contract SmartAuctionEthKipu is ReentrancyGuard, Ownable, Pausable {... */\n    tag_2:\n        /* \"SmartAuctionEthKipu_flattened.sol\":28379:28401  revert(\"Invalid call\") */\n      mload(0x40)\n      0x08c379a000000000000000000000000000000000000000000000000000000000\n      dup2\n      mstore\n      0x04\n      add\n      tag_46\n      swap1\n      tag_47\n      jump\t// in\n    tag_46:\n      mload(0x40)\n      dup1\n      swap2\n      sub\n      swap1\n      revert\n        /* \"SmartAuctionEthKipu_flattened.sol\":17707:17736  address payable public seller */\n    tag_3:\n      callvalue\n      dup1\n      iszero\n      tag_48\n      jumpi\n      revert(0x00, 0x00)\n    tag_48:\n      pop\n      tag_49\n      tag_50\n      jump\t// in\n    tag_49:\n      mload(0x40)\n      tag_51\n      swap2\n      swap1\n      tag_52\n      jump\t// in\n    tag_51:\n      mload(0x40)\n      dup1\n      swap2\n      sub\n      swap1\n      return\n        /* \"SmartAuctionEthKipu_flattened.sol\":24397:24844  function withdrawDeposit() public onlyAfterEnd onlyNotWinner nonReentrant {... */\n    tag_4:\n      callvalue\n      dup1\n      iszero\n      tag_53\n      jumpi\n      revert(0x00, 0x00)\n    tag_53:\n      pop\n      tag_54\n      tag_55\n      jump\t// in\n    tag_54:\n      stop\n        /* \"SmartAuctionEthKipu_flattened.sol\":18080:18097  bool public ended */\n    tag_5:\n      callvalue\n      dup1\n      iszero\n      tag_56\n      jumpi\n      revert(0x00, 0x00)\n    tag_56:\n      pop\n      tag_57\n      tag_58\n      jump\t// in\n    tag_57:\n      mload(0x40)\n      tag_59\n      swap2\n      swap1\n      tag_60\n      jump\t// in\n    tag_59:\n      mload(0x40)\n      dup1\n      swap2\n      sub\n      swap1\n      return\n        /* \"SmartAuctionEthKipu_flattened.sol\":22170:22994  function bid() external payable onlyWhileActive nonReentrant whenNotPaused {... */\n    tag_6:\n      tag_61\n      tag_62\n      jump\t// in\n    tag_61:\n      stop\n        /* \"SmartAuctionEthKipu_flattened.sol\":18019:18038  uint public endTime */\n    tag_7:\n      callvalue\n      dup1\n      iszero\n      tag_63\n      jumpi\n      revert(0x00, 0x00)\n    tag_63:\n      pop\n      tag_64\n      tag_65\n      jump\t// in\n    tag_64:\n      mload(0x40)\n      tag_66\n      swap2\n      swap1\n      tag_67\n      jump\t// in\n    tag_66:\n      mload(0x40)\n      dup1\n      swap2\n      sub\n      swap1\n      return\n        /* \"SmartAuctionEthKipu_flattened.sol\":23139:23577  function partialWithdrawExcess() public onlyWhileActive nonReentrant {... */\n    tag_8:\n      callvalue\n      dup1\n      iszero\n      tag_68\n      jumpi\n      revert(0x00, 0x00)\n    tag_68:\n      pop\n      tag_69\n      tag_70\n      jump\t// in\n    tag_69:\n      stop\n        /* \"SmartAuctionEthKipu_flattened.sol\":27541:27606  function unpause() external onlyOwner {... */\n    tag_9:\n      callvalue\n      dup1\n      iszero\n      tag_71\n      jumpi\n      revert(0x00, 0x00)\n    tag_71:\n      pop\n      tag_72\n      tag_73\n      jump\t// in\n    tag_72:\n      stop\n        /* \"SmartAuctionEthKipu_flattened.sol\":26761:26971  function withdrawFees() external onlySeller nonReentrant {... */\n    tag_10:\n      callvalue\n      dup1\n      iszero\n      tag_74\n      jumpi\n      revert(0x00, 0x00)\n    tag_74:\n      pop\n      tag_75\n      tag_76\n      jump\t// in\n    tag_75:\n      stop\n        /* \"SmartAuctionEthKipu_flattened.sol\":18612:18655  uint public constant REFUND_FEE_PERCENT = 2 */\n    tag_11:\n      callvalue\n      dup1\n      iszero\n      tag_77\n      jumpi\n      revert(0x00, 0x00)\n    tag_77:\n      pop\n      tag_78\n      tag_79\n      jump\t// in\n    tag_78:\n      mload(0x40)\n      tag_80\n      swap2\n      swap1\n      tag_67\n      jump\t// in\n    tag_80:\n      mload(0x40)\n      dup1\n      swap2\n      sub\n      swap1\n      return\n        /* \"SmartAuctionEthKipu_flattened.sol\":24011:24100  function showOffers() public view returns (Offer[] memory) {... */\n    tag_12:\n      callvalue\n      dup1\n      iszero\n      tag_81\n      jumpi\n      revert(0x00, 0x00)\n    tag_81:\n      pop\n      tag_82\n      tag_83\n      jump\t// in\n    tag_82:\n      mload(0x40)\n      tag_84\n      swap2\n      swap1\n      tag_85\n      jump\t// in\n    tag_84:\n      mload(0x40)\n      dup1\n      swap2\n      sub\n      swap1\n      return\n        /* \"SmartAuctionEthKipu_flattened.sol\":18371:18412  uint public constant EXTENSION_TIME = 600 */\n    tag_13:\n      callvalue\n      dup1\n      iszero\n      tag_86\n      jumpi\n      revert(0x00, 0x00)\n    tag_86:\n      pop\n      tag_87\n      tag_88\n      jump\t// in\n    tag_87:\n      mload(0x40)\n      tag_89\n      swap2\n      swap1\n      tag_67\n      jump\t// in\n    tag_89:\n      mload(0x40)\n      dup1\n      swap2\n      sub\n      swap1\n      return\n        /* \"SmartAuctionEthKipu_flattened.sol\":9181:9265  function paused() public view virtual returns (bool) {... */\n    tag_14:\n      callvalue\n      dup1\n      iszero\n      tag_90\n      jumpi\n      revert(0x00, 0x00)\n    tag_90:\n      pop\n      tag_91\n      tag_92\n      jump\t// in\n    tag_91:\n      mload(0x40)\n      tag_93\n      swap2\n      swap1\n      tag_60\n      jump\t// in\n    tag_93:\n      mload(0x40)\n      dup1\n      swap2\n      sub\n      swap1\n      return\n        /* \"SmartAuctionEthKipu_flattened.sol\":18241:18289  uint public constant MIN_INCREMENT_PERCENT = 105 */\n    tag_15:\n      callvalue\n      dup1\n      iszero\n      tag_94\n      jumpi\n      revert(0x00, 0x00)\n    tag_94:\n      pop\n      tag_95\n      tag_96\n      jump\t// in\n    tag_95:\n      mload(0x40)\n      tag_97\n      swap2\n      swap1\n      tag_67\n      jump\t// in\n    tag_97:\n      mload(0x40)\n      dup1\n      swap2\n      sub\n      swap1\n      return\n        /* \"SmartAuctionEthKipu_flattened.sol\":6669:6770  function renounceOwnership() public virtual onlyOwner {... */\n    tag_16:\n      callvalue\n      dup1\n      iszero\n      tag_98\n      jumpi\n      revert(0x00, 0x00)\n    tag_98:\n      pop\n      tag_99\n      tag_100\n      jump\t// in\n    tag_99:\n      stop\n        /* \"SmartAuctionEthKipu_flattened.sol\":17933:17954  uint public startTime */\n    tag_17:\n      callvalue\n      dup1\n      iszero\n      tag_101\n      jumpi\n      revert(0x00, 0x00)\n    tag_101:\n      pop\n      tag_102\n      tag_103\n      jump\t// in\n    tag_102:\n      mload(0x40)\n      tag_104\n      swap2\n      swap1\n      tag_67\n      jump\t// in\n    tag_104:\n      mload(0x40)\n      dup1\n      swap2\n      sub\n      swap1\n      return\n        /* \"SmartAuctionEthKipu_flattened.sol\":18494:18537  uint public constant EXTENSION_WINDOW = 600 */\n    tag_18:\n      callvalue\n      dup1\n      iszero\n      tag_105\n      jumpi\n      revert(0x00, 0x00)\n    tag_105:\n      pop\n      tag_106\n      tag_107\n      jump\t// in\n    tag_106:\n      mload(0x40)\n      tag_108\n      swap2\n      swap1\n      tag_67\n      jump\t// in\n    tag_108:\n      mload(0x40)\n      dup1\n      swap2\n      sub\n      swap1\n      return\n        /* \"SmartAuctionEthKipu_flattened.sol\":27393:27454  function pause() external onlyOwner {... */\n    tag_19:\n      callvalue\n      dup1\n      iszero\n      tag_109\n      jumpi\n      revert(0x00, 0x00)\n    tag_109:\n      pop\n      tag_110\n      tag_111\n      jump\t// in\n    tag_110:\n      stop\n        /* \"SmartAuctionEthKipu_flattened.sol\":18902:18923  Offer[] public offers */\n    tag_20:\n      callvalue\n      dup1\n      iszero\n      tag_112\n      jumpi\n      revert(0x00, 0x00)\n    tag_112:\n      pop\n      tag_113\n      0x04\n      dup1\n      calldatasize\n      sub\n      dup2\n      add\n      swap1\n      tag_114\n      swap2\n      swap1\n      tag_115\n      jump\t// in\n    tag_114:\n      tag_116\n      jump\t// in\n    tag_113:\n      mload(0x40)\n      tag_117\n      swap4\n      swap3\n      swap2\n      swap1\n      tag_118\n      jump\t// in\n    tag_117:\n      mload(0x40)\n      dup1\n      swap2\n      sub\n      swap1\n      return\n        /* \"SmartAuctionEthKipu_flattened.sol\":6014:6099  function owner() public view virtual returns (address) {... */\n    tag_21:\n      callvalue\n      dup1\n      iszero\n      tag_119\n      jumpi\n      revert(0x00, 0x00)\n    tag_119:\n      pop\n      tag_120\n      tag_121\n      jump\t// in\n    tag_120:\n      mload(0x40)\n      tag_122\n      swap2\n      swap1\n      tag_123\n      jump\t// in\n    tag_122:\n      mload(0x40)\n      dup1\n      swap2\n      sub\n      swap1\n      return\n        /* \"SmartAuctionEthKipu_flattened.sol\":28035:28143  function getLastOfferIndex() external view returns (uint) {... */\n    tag_22:\n      callvalue\n      dup1\n      iszero\n      tag_124\n      jumpi\n      revert(0x00, 0x00)\n    tag_124:\n      pop\n      tag_125\n      tag_126\n      jump\t// in\n    tag_125:\n      mload(0x40)\n      tag_127\n      swap2\n      swap1\n      tag_67\n      jump\t// in\n    tag_127:\n      mload(0x40)\n      dup1\n      swap2\n      sub\n      swap1\n      return\n        /* \"SmartAuctionEthKipu_flattened.sol\":17796:17824  address public highestBidder */\n    tag_23:\n      callvalue\n      dup1\n      iszero\n      tag_128\n      jumpi\n      revert(0x00, 0x00)\n    tag_128:\n      pop\n      tag_129\n      tag_130\n      jump\t// in\n    tag_129:\n      mload(0x40)\n      tag_131\n      swap2\n      swap1\n      tag_123\n      jump\t// in\n    tag_131:\n      mload(0x40)\n      dup1\n      swap2\n      sub\n      swap1\n      return\n        /* \"SmartAuctionEthKipu_flattened.sol\":23753:23888  function showWinner() public view onlyAfterEnd returns(address winner, uint amount) {... */\n    tag_24:\n      callvalue\n      dup1\n      iszero\n      tag_132\n      jumpi\n      revert(0x00, 0x00)\n    tag_132:\n      pop\n      tag_133\n      tag_134\n      jump\t// in\n    tag_133:\n      mload(0x40)\n      tag_135\n      swap3\n      swap2\n      swap1\n      tag_136\n      jump\t// in\n    tag_135:\n      mload(0x40)\n      dup1\n      swap2\n      sub\n      swap1\n      return\n        /* \"SmartAuctionEthKipu_flattened.sol\":24193:24277  function numOffers() public view returns(uint) {... */\n    tag_25:\n      callvalue\n      dup1\n      iszero\n      tag_137\n      jumpi\n      revert(0x00, 0x00)\n    tag_137:\n      pop\n      tag_138\n      tag_139\n      jump\t// in\n    tag_138:\n      mload(0x40)\n      tag_140\n      swap2\n      swap1\n      tag_67\n      jump\t// in\n    tag_140:\n      mload(0x40)\n      dup1\n      swap2\n      sub\n      swap1\n      return\n        /* \"SmartAuctionEthKipu_flattened.sol\":27792:27897  function getCollectedFees() external view onlySeller returns (uint) {... */\n    tag_26:\n      callvalue\n      dup1\n      iszero\n      tag_141\n      jumpi\n      revert(0x00, 0x00)\n    tag_141:\n      pop\n      tag_142\n      tag_143\n      jump\t// in\n    tag_142:\n      mload(0x40)\n      tag_144\n      swap2\n      swap1\n      tag_67\n      jump\t// in\n    tag_144:\n      mload(0x40)\n      dup1\n      swap2\n      sub\n      swap1\n      return\n        /* \"SmartAuctionEthKipu_flattened.sol\":17865:17887  uint public highestBid */\n    tag_27:\n      callvalue\n      dup1\n      iszero\n      tag_145\n      jumpi\n      revert(0x00, 0x00)\n    tag_145:\n      pop\n      tag_146\n      tag_147\n      jump\t// in\n    tag_146:\n      mload(0x40)\n      tag_148\n      swap2\n      swap1\n      tag_67\n      jump\t// in\n    tag_148:\n      mload(0x40)\n      dup1\n      swap2\n      sub\n      swap1\n      return\n        /* \"SmartAuctionEthKipu_flattened.sol\":27071:27312  function emergencyWithdraw() external onlyOwner {... */\n    tag_28:\n      callvalue\n      dup1\n      iszero\n      tag_149\n      jumpi\n      revert(0x00, 0x00)\n    tag_149:\n      pop\n      tag_150\n      tag_151\n      jump\t// in\n    tag_150:\n      stop\n        /* \"SmartAuctionEthKipu_flattened.sol\":6919:7134  function transferOwnership(address newOwner) public virtual onlyOwner {... */\n    tag_29:\n      callvalue\n      dup1\n      iszero\n      tag_152\n      jumpi\n      revert(0x00, 0x00)\n    tag_152:\n      pop\n      tag_153\n      0x04\n      dup1\n      calldatasize\n      sub\n      dup2\n      add\n      swap1\n      tag_154\n      swap2\n      swap1\n      tag_155\n      jump\t// in\n    tag_154:\n      tag_156\n      jump\t// in\n    tag_153:\n      stop\n        /* \"SmartAuctionEthKipu_flattened.sol\":25522:26653  function distributeRefunds() external onlyOwner onlyAfterEnd nonReentrant {... */\n    tag_30:\n      callvalue\n      dup1\n      iszero\n      tag_157\n      jumpi\n      revert(0x00, 0x00)\n    tag_157:\n      pop\n      tag_158\n      tag_159\n      jump\t// in\n    tag_158:\n      stop\n        /* \"SmartAuctionEthKipu_flattened.sol\":18988:19028  mapping(address => uint) public deposits */\n    tag_31:\n      callvalue\n      dup1\n      iszero\n      tag_160\n      jumpi\n      revert(0x00, 0x00)\n    tag_160:\n      pop\n      tag_161\n      0x04\n      dup1\n      calldatasize\n      sub\n      dup2\n      add\n      swap1\n      tag_162\n      swap2\n      swap1\n      tag_155\n      jump\t// in\n    tag_162:\n      tag_163\n      jump\t// in\n    tag_161:\n      mload(0x40)\n      tag_164\n      swap2\n      swap1\n      tag_67\n      jump\t// in\n    tag_164:\n      mload(0x40)\n      dup1\n      swap2\n      sub\n      swap1\n      return\n        /* \"SmartAuctionEthKipu_flattened.sol\":24991:25370  function endAuction() public onlyAfterEnd nonReentrant {... */\n    tag_32:\n      callvalue\n      dup1\n      iszero\n      tag_165\n      jumpi\n      revert(0x00, 0x00)\n    tag_165:\n      pop\n      tag_166\n      tag_167\n      jump\t// in\n    tag_166:\n      stop\n        /* \"SmartAuctionEthKipu_flattened.sol\":17707:17736  address payable public seller */\n    tag_50:\n      0x02\n      0x00\n      swap1\n      sload\n      swap1\n      0x0100\n      exp\n      swap1\n      div\n      0xffffffffffffffffffffffffffffffffffffffff\n      and\n      dup2\n      jump\t// out\n        /* \"SmartAuctionEthKipu_flattened.sol\":24397:24844  function withdrawDeposit() public onlyAfterEnd onlyNotWinner nonReentrant {... */\n    tag_55:\n        /* \"SmartAuctionEthKipu_flattened.sol\":20307:20314  endTime */\n      sload(0x06)\n        /* \"SmartAuctionEthKipu_flattened.sol\":20288:20303  block.timestamp */\n      timestamp\n        /* \"SmartAuctionEthKipu_flattened.sol\":20288:20314  block.timestamp >= endTime */\n      lt\n      iszero\n        /* \"SmartAuctionEthKipu_flattened.sol\":20288:20323  block.timestamp >= endTime || ended */\n      dup1\n      tag_169\n      jumpi\n      pop\n        /* \"SmartAuctionEthKipu_flattened.sol\":20318:20323  ended */\n      0x07\n      0x00\n      swap1\n      sload\n      swap1\n      0x0100\n      exp\n      swap1\n      div\n      0xff\n      and\n        /* \"SmartAuctionEthKipu_flattened.sol\":20288:20323  block.timestamp >= endTime || ended */\n    tag_169:\n        /* \"SmartAuctionEthKipu_flattened.sol\":20280:20337  require(block.timestamp >= endTime || ended, \"Not ended\") */\n      tag_170\n      jumpi\n      mload(0x40)\n      0x08c379a000000000000000000000000000000000000000000000000000000000\n      dup2\n      mstore\n      0x04\n      add\n      tag_171\n      swap1\n      tag_172\n      jump\t// in\n    tag_171:\n      mload(0x40)\n      dup1\n      swap2\n      sub\n      swap1\n      revert\n    tag_170:\n        /* \"SmartAuctionEthKipu_flattened.sol\":20594:20607  highestBidder */\n      0x03\n      0x00\n      swap1\n      sload\n      swap1\n      0x0100\n      exp\n      swap1\n      div\n      0xffffffffffffffffffffffffffffffffffffffff\n      and\n        /* \"SmartAuctionEthKipu_flattened.sol\":20580:20607  msg.sender != highestBidder */\n      0xffffffffffffffffffffffffffffffffffffffff\n      and\n        /* \"SmartAuctionEthKipu_flattened.sol\":20580:20590  msg.sender */\n      caller\n        /* \"SmartAuctionEthKipu_flattened.sol\":20580:20607  msg.sender != highestBidder */\n      0xffffffffffffffffffffffffffffffffffffffff\n      and\n      sub\n        /* \"SmartAuctionEthKipu_flattened.sol\":20572:20634  require(msg.sender != highestBidder, \"Winner cannot withdraw\") */\n      tag_174\n      jumpi\n      mload(0x40)\n      0x08c379a000000000000000000000000000000000000000000000000000000000\n      dup2\n      mstore\n      0x04\n      add\n      tag_175\n      swap1\n      tag_176\n      jump\t// in\n    tag_175:\n      mload(0x40)\n      dup1\n      swap2\n      sub\n      swap1\n      revert\n    tag_174:\n        /* \"SmartAuctionEthKipu_flattened.sol\":2530:2551  _nonReentrantBefore() */\n      tag_178\n        /* \"SmartAuctionEthKipu_flattened.sol\":2530:2549  _nonReentrantBefore */\n      tag_179\n        /* \"SmartAuctionEthKipu_flattened.sol\":2530:2551  _nonReentrantBefore() */\n      jump\t// in\n    tag_178:\n        /* \"SmartAuctionEthKipu_flattened.sol\":24481:24499  uint totalToReturn */\n      0x00\n        /* \"SmartAuctionEthKipu_flattened.sol\":24502:24510  deposits */\n      0x09\n        /* \"SmartAuctionEthKipu_flattened.sol\":24502:24522  deposits[msg.sender] */\n      0x00\n        /* \"SmartAuctionEthKipu_flattened.sol\":24511:24521  msg.sender */\n      caller\n        /* \"SmartAuctionEthKipu_flattened.sol\":24502:24522  deposits[msg.sender] */\n      0xffffffffffffffffffffffffffffffffffffffff\n      and\n      0xffffffffffffffffffffffffffffffffffffffff\n      and\n      dup2\n      mstore\n      0x20\n      add\n      swap1\n      dup2\n      mstore\n      0x20\n      add\n      0x00\n      keccak256\n      sload\n        /* \"SmartAuctionEthKipu_flattened.sol\":24481:24522  uint totalToReturn = deposits[msg.sender] */\n      swap1\n      pop\n        /* \"SmartAuctionEthKipu_flattened.sol\":24556:24557  0 */\n      0x00\n        /* \"SmartAuctionEthKipu_flattened.sol\":24540:24553  totalToReturn */\n      dup2\n        /* \"SmartAuctionEthKipu_flattened.sol\":24540:24557  totalToReturn > 0 */\n      gt\n        /* \"SmartAuctionEthKipu_flattened.sol\":24532:24570  require(totalToReturn > 0, \"No funds\") */\n      tag_181\n      jumpi\n      mload(0x40)\n      0x08c379a000000000000000000000000000000000000000000000000000000000\n      dup2\n      mstore\n      0x04\n      add\n      tag_182\n      swap1\n      tag_183\n      jump\t// in\n    tag_182:\n      mload(0x40)\n      dup1\n      swap2\n      sub\n      swap1\n      revert\n    tag_181:\n        /* \"SmartAuctionEthKipu_flattened.sol\":24635:24636  0 */\n      0x00\n        /* \"SmartAuctionEthKipu_flattened.sol\":24612:24620  deposits */\n      0x09\n        /* \"SmartAuctionEthKipu_flattened.sol\":24612:24632  deposits[msg.sender] */\n      0x00\n        /* \"SmartAuctionEthKipu_flattened.sol\":24621:24631  msg.sender */\n      caller\n        /* \"SmartAuctionEthKipu_flattened.sol\":24612:24632  deposits[msg.sender] */\n      0xffffffffffffffffffffffffffffffffffffffff\n      and\n      0xffffffffffffffffffffffffffffffffffffffff\n      and\n      dup2\n      mstore\n      0x20\n      add\n      swap1\n      dup2\n      mstore\n      0x20\n      add\n      0x00\n      keccak256\n        /* \"SmartAuctionEthKipu_flattened.sol\":24612:24636  deposits[msg.sender] = 0 */\n      dup2\n      swap1\n      sstore\n      pop\n        /* \"SmartAuctionEthKipu_flattened.sol\":24656:24664  uint fee */\n      0x00\n        /* \"SmartAuctionEthKipu_flattened.sol\":24666:24677  uint refund */\n      0x00\n        /* \"SmartAuctionEthKipu_flattened.sol\":24681:24709  _calculateFee(totalToReturn) */\n      tag_184\n        /* \"SmartAuctionEthKipu_flattened.sol\":24695:24708  totalToReturn */\n      dup4\n        /* \"SmartAuctionEthKipu_flattened.sol\":24681:24694  _calculateFee */\n      tag_185\n        /* \"SmartAuctionEthKipu_flattened.sol\":24681:24709  _calculateFee(totalToReturn) */\n      jump\t// in\n    tag_184:\n        /* \"SmartAuctionEthKipu_flattened.sol\":24655:24709  (uint fee, uint refund) = _calculateFee(totalToReturn) */\n      swap2\n      pop\n      swap2\n      pop\n        /* \"SmartAuctionEthKipu_flattened.sol\":24736:24739  fee */\n      dup2\n        /* \"SmartAuctionEthKipu_flattened.sol\":24719:24732  collectedFees */\n      0x0b\n      0x00\n        /* \"SmartAuctionEthKipu_flattened.sol\":24719:24739  collectedFees += fee */\n      dup3\n      dup3\n      sload\n      tag_186\n      swap2\n      swap1\n      tag_187\n      jump\t// in\n    tag_186:\n      swap3\n      pop\n      pop\n      dup2\n      swap1\n      sstore\n      pop\n        /* \"SmartAuctionEthKipu_flattened.sol\":24750:24792  _safeTransfer(payable(msg.sender), refund) */\n      tag_188\n        /* \"SmartAuctionEthKipu_flattened.sol\":24772:24782  msg.sender */\n      caller\n        /* \"SmartAuctionEthKipu_flattened.sol\":24785:24791  refund */\n      dup3\n        /* \"SmartAuctionEthKipu_flattened.sol\":24750:24763  _safeTransfer */\n      tag_189\n        /* \"SmartAuctionEthKipu_flattened.sol\":24750:24792  _safeTransfer(payable(msg.sender), refund) */\n      jump\t// in\n    tag_188:\n        /* \"SmartAuctionEthKipu_flattened.sol\":24818:24828  msg.sender */\n      caller\n        /* \"SmartAuctionEthKipu_flattened.sol\":24807:24837  Withdrawal(msg.sender, refund) */\n      0xffffffffffffffffffffffffffffffffffffffff\n      and\n      0x7fcf532c15f0a6db0bd6d0e038bea71d30d808c7d98cb3bf7268a95bf5081b65\n        /* \"SmartAuctionEthKipu_flattened.sol\":24830:24836  refund */\n      dup3\n        /* \"SmartAuctionEthKipu_flattened.sol\":24807:24837  Withdrawal(msg.sender, refund) */\n      mload(0x40)\n      tag_190\n      swap2\n      swap1\n      tag_67\n      jump\t// in\n    tag_190:\n      mload(0x40)\n      dup1\n      swap2\n      sub\n      swap1\n      log2\n        /* \"SmartAuctionEthKipu_flattened.sol\":24471:24844  {... */\n      pop\n      pop\n      pop\n        /* \"SmartAuctionEthKipu_flattened.sol\":2572:2592  _nonReentrantAfter() */\n      tag_191\n        /* \"SmartAuctionEthKipu_flattened.sol\":2572:2590  _nonReentrantAfter */\n      tag_192\n        /* \"SmartAuctionEthKipu_flattened.sol\":2572:2592  _nonReentrantAfter() */\n      jump\t// in\n    tag_191:\n        /* \"SmartAuctionEthKipu_flattened.sol\":24397:24844  function withdrawDeposit() public onlyAfterEnd onlyNotWinner nonReentrant {... */\n      jump\t// out\n        /* \"SmartAuctionEthKipu_flattened.sol\":18080:18097  bool public ended */\n    tag_58:\n      0x07\n      0x00\n      swap1\n      sload\n      swap1\n      0x0100\n      exp\n      swap1\n      div\n      0xff\n      and\n      dup2\n      jump\t// out\n        /* \"SmartAuctionEthKipu_flattened.sol\":22170:22994  function bid() external payable onlyWhileActive nonReentrant whenNotPaused {... */\n    tag_62:\n        /* \"SmartAuctionEthKipu_flattened.sol\":20036:20041  ended */\n      0x07\n      0x00\n      swap1\n      sload\n      swap1\n      0x0100\n      exp\n      swap1\n      div\n      0xff\n      and\n        /* \"SmartAuctionEthKipu_flattened.sol\":20035:20041  !ended */\n      iszero\n        /* \"SmartAuctionEthKipu_flattened.sol\":20027:20059  require(!ended, \"Auction ended\") */\n      tag_194\n      jumpi\n      mload(0x40)\n      0x08c379a000000000000000000000000000000000000000000000000000000000\n      dup2\n      mstore\n      0x04\n      add\n      tag_195\n      swap1\n      tag_196\n      jump\t// in\n    tag_195:\n      mload(0x40)\n      dup1\n      swap2\n      sub\n      swap1\n      revert\n    tag_194:\n        /* \"SmartAuctionEthKipu_flattened.sol\":20096:20105  startTime */\n      sload(0x05)\n        /* \"SmartAuctionEthKipu_flattened.sol\":20077:20092  block.timestamp */\n      timestamp\n        /* \"SmartAuctionEthKipu_flattened.sol\":20077:20105  block.timestamp >= startTime */\n      lt\n      iszero\n        /* \"SmartAuctionEthKipu_flattened.sol\":20069:20121  require(block.timestamp >= startTime, \"Not started\") */\n      tag_197\n      jumpi\n      mload(0x40)\n      0x08c379a000000000000000000000000000000000000000000000000000000000\n      dup2\n      mstore\n      0x04\n      add\n      tag_198\n      swap1\n      tag_199\n      jump\t// in\n    tag_198:\n      mload(0x40)\n      dup1\n      swap2\n      sub\n      swap1\n      revert\n    tag_197:\n        /* \"SmartAuctionEthKipu_flattened.sol\":20157:20164  endTime */\n      sload(0x06)\n        /* \"SmartAuctionEthKipu_flattened.sol\":20139:20154  block.timestamp */\n      timestamp\n        /* \"SmartAuctionEthKipu_flattened.sol\":20139:20164  block.timestamp < endTime */\n      lt\n        /* \"SmartAuctionEthKipu_flattened.sol\":20131:20181  require(block.timestamp < endTime, \"Time expired\") */\n      tag_200\n      jumpi\n      mload(0x40)\n      0x08c379a000000000000000000000000000000000000000000000000000000000\n      dup2\n      mstore\n      0x04\n      add\n      tag_201\n      swap1\n      tag_202\n      jump\t// in\n    tag_201:\n      mload(0x40)\n      dup1\n      swap2\n      sub\n      swap1\n      revert\n    tag_200:\n        /* \"SmartAuctionEthKipu_flattened.sol\":2530:2551  _nonReentrantBefore() */\n      tag_204\n        /* \"SmartAuctionEthKipu_flattened.sol\":2530:2549  _nonReentrantBefore */\n      tag_179\n        /* \"SmartAuctionEthKipu_flattened.sol\":2530:2551  _nonReentrantBefore() */\n      jump\t// in\n    tag_204:\n        /* \"SmartAuctionEthKipu_flattened.sol\":8805:8824  _requireNotPaused() */\n      tag_206\n        /* \"SmartAuctionEthKipu_flattened.sol\":8805:8822  _requireNotPaused */\n      tag_207\n        /* \"SmartAuctionEthKipu_flattened.sol\":8805:8824  _requireNotPaused() */\n      jump\t// in\n    tag_206:\n        /* \"SmartAuctionEthKipu_flattened.sol\":22275:22276  0 */\n      0x00\n        /* \"SmartAuctionEthKipu_flattened.sol\":22263:22272  msg.value */\n      callvalue\n        /* \"SmartAuctionEthKipu_flattened.sol\":22263:22276  msg.value > 0 */\n      gt\n        /* \"SmartAuctionEthKipu_flattened.sol\":22255:22289  require(msg.value > 0, \"Zero bid\") */\n      tag_209\n      jumpi\n      mload(0x40)\n      0x08c379a000000000000000000000000000000000000000000000000000000000\n      dup2\n      mstore\n      0x04\n      add\n      tag_210\n      swap1\n      tag_211\n      jump\t// in\n    tag_210:\n      mload(0x40)\n      dup1\n      swap2\n      sub\n      swap1\n      revert\n    tag_209:\n        /* \"SmartAuctionEthKipu_flattened.sol\":22308:22324  uint newTotalBid */\n      0x00\n        /* \"SmartAuctionEthKipu_flattened.sol\":22350:22359  msg.value */\n      callvalue\n        /* \"SmartAuctionEthKipu_flattened.sol\":22327:22335  deposits */\n      0x09\n        /* \"SmartAuctionEthKipu_flattened.sol\":22327:22347  deposits[msg.sender] */\n      0x00\n        /* \"SmartAuctionEthKipu_flattened.sol\":22336:22346  msg.sender */\n      caller\n        /* \"SmartAuctionEthKipu_flattened.sol\":22327:22347  deposits[msg.sender] */\n      0xffffffffffffffffffffffffffffffffffffffff\n      and\n      0xffffffffffffffffffffffffffffffffffffffff\n      and\n      dup2\n      mstore\n      0x20\n      add\n      swap1\n      dup2\n      mstore\n      0x20\n      add\n      0x00\n      keccak256\n      sload\n        /* \"SmartAuctionEthKipu_flattened.sol\":22327:22359  deposits[msg.sender] + msg.value */\n      tag_212\n      swap2\n      swap1\n      tag_187\n      jump\t// in\n    tag_212:\n        /* \"SmartAuctionEthKipu_flattened.sol\":22308:22359  uint newTotalBid = deposits[msg.sender] + msg.value */\n      swap1\n      pop\n        /* \"SmartAuctionEthKipu_flattened.sol\":22369:22385  uint minRequired */\n      0x00\n        /* \"SmartAuctionEthKipu_flattened.sol\":22402:22403  0 */\n      0x00\n        /* \"SmartAuctionEthKipu_flattened.sol\":22388:22398  highestBid */\n      sload(0x04)\n        /* \"SmartAuctionEthKipu_flattened.sol\":22388:22403  highestBid == 0 */\n      eq\n        /* \"SmartAuctionEthKipu_flattened.sol\":22388:22452  highestBid == 0 ? 0 : (highestBid * MIN_INCREMENT_PERCENT) / 100 */\n      tag_213\n      jumpi\n        /* \"SmartAuctionEthKipu_flattened.sol\":22449:22452  100 */\n      0x64\n        /* \"SmartAuctionEthKipu_flattened.sol\":18286:18289  105 */\n      0x69\n        /* \"SmartAuctionEthKipu_flattened.sol\":22411:22421  highestBid */\n      sload(0x04)\n        /* \"SmartAuctionEthKipu_flattened.sol\":22411:22445  highestBid * MIN_INCREMENT_PERCENT */\n      tag_214\n      swap2\n      swap1\n      tag_215\n      jump\t// in\n    tag_214:\n        /* \"SmartAuctionEthKipu_flattened.sol\":22410:22452  (highestBid * MIN_INCREMENT_PERCENT) / 100 */\n      tag_216\n      swap2\n      swap1\n      tag_217\n      jump\t// in\n    tag_216:\n        /* \"SmartAuctionEthKipu_flattened.sol\":22388:22452  highestBid == 0 ? 0 : (highestBid * MIN_INCREMENT_PERCENT) / 100 */\n      jump(tag_218)\n    tag_213:\n        /* \"SmartAuctionEthKipu_flattened.sol\":22406:22407  0 */\n      0x00\n        /* \"SmartAuctionEthKipu_flattened.sol\":22388:22452  highestBid == 0 ? 0 : (highestBid * MIN_INCREMENT_PERCENT) / 100 */\n    tag_218:\n        /* \"SmartAuctionEthKipu_flattened.sol\":22369:22452  uint minRequired = highestBid == 0 ? 0 : (highestBid * MIN_INCREMENT_PERCENT) / 100 */\n      swap1\n      pop\n        /* \"SmartAuctionEthKipu_flattened.sol\":22484:22495  minRequired */\n      dup1\n        /* \"SmartAuctionEthKipu_flattened.sol\":22470:22481  newTotalBid */\n      dup3\n        /* \"SmartAuctionEthKipu_flattened.sol\":22470:22495  newTotalBid > minRequired */\n      gt\n        /* \"SmartAuctionEthKipu_flattened.sol\":22462:22511  require(newTotalBid > minRequired, \"Bid too low\") */\n      tag_219\n      jumpi\n      mload(0x40)\n      0x08c379a000000000000000000000000000000000000000000000000000000000\n      dup2\n      mstore\n      0x04\n      add\n      tag_220\n      swap1\n      tag_221\n      jump\t// in\n    tag_220:\n      mload(0x40)\n      dup1\n      swap2\n      sub\n      swap1\n      revert\n    tag_219:\n        /* \"SmartAuctionEthKipu_flattened.sol\":22571:22580  msg.value */\n      callvalue\n        /* \"SmartAuctionEthKipu_flattened.sol\":22547:22555  deposits */\n      0x09\n        /* \"SmartAuctionEthKipu_flattened.sol\":22547:22567  deposits[msg.sender] */\n      0x00\n        /* \"SmartAuctionEthKipu_flattened.sol\":22556:22566  msg.sender */\n      caller\n        /* \"SmartAuctionEthKipu_flattened.sol\":22547:22567  deposits[msg.sender] */\n      0xffffffffffffffffffffffffffffffffffffffff\n      and\n      0xffffffffffffffffffffffffffffffffffffffff\n      and\n      dup2\n      mstore\n      0x20\n      add\n      swap1\n      dup2\n      mstore\n      0x20\n      add\n      0x00\n      keccak256\n      0x00\n        /* \"SmartAuctionEthKipu_flattened.sol\":22547:22580  deposits[msg.sender] += msg.value */\n      dup3\n      dup3\n      sload\n      tag_222\n      swap2\n      swap1\n      tag_187\n      jump\t// in\n    tag_222:\n      swap3\n      pop\n      pop\n      dup2\n      swap1\n      sstore\n      pop\n        /* \"SmartAuctionEthKipu_flattened.sol\":22590:22596  offers */\n      0x08\n        /* \"SmartAuctionEthKipu_flattened.sol\":22602:22647  Offer(msg.sender, msg.value, block.timestamp) */\n      mload(0x40)\n      dup1\n      0x60\n      add\n      0x40\n      mstore\n      dup1\n        /* \"SmartAuctionEthKipu_flattened.sol\":22608:22618  msg.sender */\n      caller\n        /* \"SmartAuctionEthKipu_flattened.sol\":22602:22647  Offer(msg.sender, msg.value, block.timestamp) */\n      0xffffffffffffffffffffffffffffffffffffffff\n      and\n      dup2\n      mstore\n      0x20\n      add\n        /* \"SmartAuctionEthKipu_flattened.sol\":22620:22629  msg.value */\n      callvalue\n        /* \"SmartAuctionEthKipu_flattened.sol\":22602:22647  Offer(msg.sender, msg.value, block.timestamp) */\n      dup2\n      mstore\n      0x20\n      add\n        /* \"SmartAuctionEthKipu_flattened.sol\":22631:22646  block.timestamp */\n      timestamp\n        /* \"SmartAuctionEthKipu_flattened.sol\":22602:22647  Offer(msg.sender, msg.value, block.timestamp) */\n      dup2\n      mstore\n      pop\n        /* \"SmartAuctionEthKipu_flattened.sol\":22590:22648  offers.push(Offer(msg.sender, msg.value, block.timestamp)) */\n      swap1\n      dup1\n      0x01\n      dup2\n      sload\n      add\n      dup1\n      dup3\n      sstore\n      dup1\n      swap2\n      pop\n      pop\n      0x01\n      swap1\n      sub\n      swap1\n      0x00\n      mstore\n      keccak256(0x00, 0x20)\n      swap1\n      0x03\n      mul\n      add\n      0x00\n      swap1\n      swap2\n      swap1\n      swap2\n      swap1\n      swap2\n      pop\n      0x00\n      dup3\n      add\n      mload\n      dup2\n      0x00\n      add\n      exp(0x0100, 0x00)\n      dup2\n      sload\n      dup2\n      0xffffffffffffffffffffffffffffffffffffffff\n      mul\n      not\n      and\n      swap1\n      dup4\n      0xffffffffffffffffffffffffffffffffffffffff\n      and\n      mul\n      or\n      swap1\n      sstore\n      pop\n      0x20\n      dup3\n      add\n      mload\n      dup2\n      0x01\n      add\n      sstore\n      0x40\n      dup3\n      add\n      mload\n      dup2\n      0x02\n      add\n      sstore\n      pop\n      pop\n        /* \"SmartAuctionEthKipu_flattened.sol\":22703:22704  1 */\n      0x01\n        /* \"SmartAuctionEthKipu_flattened.sol\":22687:22693  offers */\n      0x08\n        /* \"SmartAuctionEthKipu_flattened.sol\":22687:22700  offers.length */\n      dup1\n      sload\n      swap1\n      pop\n        /* \"SmartAuctionEthKipu_flattened.sol\":22687:22704  offers.length - 1 */\n      tag_224\n      swap2\n      swap1\n      tag_225\n      jump\t// in\n    tag_224:\n        /* \"SmartAuctionEthKipu_flattened.sol\":22658:22672  lastOfferIndex */\n      0x0a\n        /* \"SmartAuctionEthKipu_flattened.sol\":22658:22684  lastOfferIndex[msg.sender] */\n      0x00\n        /* \"SmartAuctionEthKipu_flattened.sol\":22673:22683  msg.sender */\n      caller\n        /* \"SmartAuctionEthKipu_flattened.sol\":22658:22684  lastOfferIndex[msg.sender] */\n      0xffffffffffffffffffffffffffffffffffffffff\n      and\n      0xffffffffffffffffffffffffffffffffffffffff\n      and\n      dup2\n      mstore\n      0x20\n      add\n      swap1\n      dup2\n      mstore\n      0x20\n      add\n      0x00\n      keccak256\n        /* \"SmartAuctionEthKipu_flattened.sol\":22658:22704  lastOfferIndex[msg.sender] = offers.length - 1 */\n      dup2\n      swap1\n      sstore\n      pop\n        /* \"SmartAuctionEthKipu_flattened.sol\":22727:22738  newTotalBid */\n      dup2\n        /* \"SmartAuctionEthKipu_flattened.sol\":22714:22724  highestBid */\n      0x04\n        /* \"SmartAuctionEthKipu_flattened.sol\":22714:22738  highestBid = newTotalBid */\n      dup2\n      swap1\n      sstore\n      pop\n        /* \"SmartAuctionEthKipu_flattened.sol\":22764:22774  msg.sender */\n      caller\n        /* \"SmartAuctionEthKipu_flattened.sol\":22748:22761  highestBidder */\n      0x03\n      0x00\n        /* \"SmartAuctionEthKipu_flattened.sol\":22748:22774  highestBidder = msg.sender */\n      0x0100\n      exp\n      dup2\n      sload\n      dup2\n      0xffffffffffffffffffffffffffffffffffffffff\n      mul\n      not\n      and\n      swap1\n      dup4\n      0xffffffffffffffffffffffffffffffffffffffff\n      and\n      mul\n      or\n      swap1\n      sstore\n      pop\n        /* \"SmartAuctionEthKipu_flattened.sol\":18534:18537  600 */\n      0x0258\n        /* \"SmartAuctionEthKipu_flattened.sol\":22835:22850  block.timestamp */\n      timestamp\n        /* \"SmartAuctionEthKipu_flattened.sol\":22825:22832  endTime */\n      sload(0x06)\n        /* \"SmartAuctionEthKipu_flattened.sol\":22825:22850  endTime - block.timestamp */\n      tag_226\n      swap2\n      swap1\n      tag_225\n      jump\t// in\n    tag_226:\n        /* \"SmartAuctionEthKipu_flattened.sol\":22825:22870  endTime - block.timestamp <= EXTENSION_WINDOW */\n      gt\n        /* \"SmartAuctionEthKipu_flattened.sol\":22821:22939  if (endTime - block.timestamp <= EXTENSION_WINDOW) {... */\n      tag_227\n      jumpi\n        /* \"SmartAuctionEthKipu_flattened.sol\":18409:18412  600 */\n      0x0258\n        /* \"SmartAuctionEthKipu_flattened.sol\":22896:22911  block.timestamp */\n      timestamp\n        /* \"SmartAuctionEthKipu_flattened.sol\":22896:22928  block.timestamp + EXTENSION_TIME */\n      tag_228\n      swap2\n      swap1\n      tag_187\n      jump\t// in\n    tag_228:\n        /* \"SmartAuctionEthKipu_flattened.sol\":22886:22893  endTime */\n      0x06\n        /* \"SmartAuctionEthKipu_flattened.sol\":22886:22928  endTime = block.timestamp + EXTENSION_TIME */\n      dup2\n      swap1\n      sstore\n      pop\n        /* \"SmartAuctionEthKipu_flattened.sol\":22821:22939  if (endTime - block.timestamp <= EXTENSION_WINDOW) {... */\n    tag_227:\n        /* \"SmartAuctionEthKipu_flattened.sol\":22963:22973  msg.sender */\n      caller\n        /* \"SmartAuctionEthKipu_flattened.sol\":22954:22987  NewOffer(msg.sender, newTotalBid) */\n      0xffffffffffffffffffffffffffffffffffffffff\n      and\n      0x058d619527549e88853c641ebcec23205e5df61592e3908275721b5ad490113f\n        /* \"SmartAuctionEthKipu_flattened.sol\":22975:22986  newTotalBid */\n      dup4\n        /* \"SmartAuctionEthKipu_flattened.sol\":22954:22987  NewOffer(msg.sender, newTotalBid) */\n      mload(0x40)\n      tag_229\n      swap2\n      swap1\n      tag_67\n      jump\t// in\n    tag_229:\n      mload(0x40)\n      dup1\n      swap2\n      sub\n      swap1\n      log2\n        /* \"SmartAuctionEthKipu_flattened.sol\":22245:22994  {... */\n      pop\n      pop\n        /* \"SmartAuctionEthKipu_flattened.sol\":2572:2592  _nonReentrantAfter() */\n      tag_230\n        /* \"SmartAuctionEthKipu_flattened.sol\":2572:2590  _nonReentrantAfter */\n      tag_192\n        /* \"SmartAuctionEthKipu_flattened.sol\":2572:2592  _nonReentrantAfter() */\n      jump\t// in\n    tag_230:\n        /* \"SmartAuctionEthKipu_flattened.sol\":22170:22994  function bid() external payable onlyWhileActive nonReentrant whenNotPaused {... */\n      jump\t// out\n        /* \"SmartAuctionEthKipu_flattened.sol\":18019:18038  uint public endTime */\n    tag_65:\n      sload(0x06)\n      dup2\n      jump\t// out\n        /* \"SmartAuctionEthKipu_flattened.sol\":23139:23577  function partialWithdrawExcess() public onlyWhileActive nonReentrant {... */\n    tag_70:\n        /* \"SmartAuctionEthKipu_flattened.sol\":20036:20041  ended */\n      0x07\n      0x00\n      swap1\n      sload\n      swap1\n      0x0100\n      exp\n      swap1\n      div\n      0xff\n      and\n        /* \"SmartAuctionEthKipu_flattened.sol\":20035:20041  !ended */\n      iszero\n        /* \"SmartAuctionEthKipu_flattened.sol\":20027:20059  require(!ended, \"Auction ended\") */\n      tag_232\n      jumpi\n      mload(0x40)\n      0x08c379a000000000000000000000000000000000000000000000000000000000\n      dup2\n      mstore\n      0x04\n      add\n      tag_233\n      swap1\n      tag_196\n      jump\t// in\n    tag_233:\n      mload(0x40)\n      dup1\n      swap2\n      sub\n      swap1\n      revert\n    tag_232:\n        /* \"SmartAuctionEthKipu_flattened.sol\":20096:20105  startTime */\n      sload(0x05)\n        /* \"SmartAuctionEthKipu_flattened.sol\":20077:20092  block.timestamp */\n      timestamp\n        /* \"SmartAuctionEthKipu_flattened.sol\":20077:20105  block.timestamp >= startTime */\n      lt\n      iszero\n        /* \"SmartAuctionEthKipu_flattened.sol\":20069:20121  require(block.timestamp >= startTime, \"Not started\") */\n      tag_234\n      jumpi\n      mload(0x40)\n      0x08c379a000000000000000000000000000000000000000000000000000000000\n      dup2\n      mstore\n      0x04\n      add\n      tag_235\n      swap1\n      tag_199\n      jump\t// in\n    tag_235:\n      mload(0x40)\n      dup1\n      swap2\n      sub\n      swap1\n      revert\n    tag_234:\n        /* \"SmartAuctionEthKipu_flattened.sol\":20157:20164  endTime */\n      sload(0x06)\n        /* \"SmartAuctionEthKipu_flattened.sol\":20139:20154  block.timestamp */\n      timestamp\n        /* \"SmartAuctionEthKipu_flattened.sol\":20139:20164  block.timestamp < endTime */\n      lt\n        /* \"SmartAuctionEthKipu_flattened.sol\":20131:20181  require(block.timestamp < endTime, \"Time expired\") */\n      tag_236\n      jumpi\n      mload(0x40)\n      0x08c379a000000000000000000000000000000000000000000000000000000000\n      dup2\n      mstore\n      0x04\n      add\n      tag_237\n      swap1\n      tag_202\n      jump\t// in\n    tag_237:\n      mload(0x40)\n      dup1\n      swap2\n      sub\n      swap1\n      revert\n    tag_236:\n        /* \"SmartAuctionEthKipu_flattened.sol\":2530:2551  _nonReentrantBefore() */\n      tag_239\n        /* \"SmartAuctionEthKipu_flattened.sol\":2530:2549  _nonReentrantBefore */\n      tag_179\n        /* \"SmartAuctionEthKipu_flattened.sol\":2530:2551  _nonReentrantBefore() */\n      jump\t// in\n    tag_239:\n        /* \"SmartAuctionEthKipu_flattened.sol\":23240:23253  highestBidder */\n      0x03\n      0x00\n      swap1\n      sload\n      swap1\n      0x0100\n      exp\n      swap1\n      div\n      0xffffffffffffffffffffffffffffffffffffffff\n      and\n        /* \"SmartAuctionEthKipu_flattened.sol\":23226:23253  msg.sender != highestBidder */\n      0xffffffffffffffffffffffffffffffffffffffff\n      and\n        /* \"SmartAuctionEthKipu_flattened.sol\":23226:23236  msg.sender */\n      caller\n        /* \"SmartAuctionEthKipu_flattened.sol\":23226:23253  msg.sender != highestBidder */\n      0xffffffffffffffffffffffffffffffffffffffff\n      and\n      sub\n        /* \"SmartAuctionEthKipu_flattened.sol\":23218:23280  require(msg.sender != highestBidder, \"Winner cannot withdraw\") */\n      tag_241\n      jumpi\n      mload(0x40)\n      0x08c379a000000000000000000000000000000000000000000000000000000000\n      dup2\n      mstore\n      0x04\n      add\n      tag_242\n      swap1\n      tag_176\n      jump\t// in\n    tag_242:\n      mload(0x40)\n      dup1\n      swap2\n      sub\n      swap1\n      revert\n    tag_241:\n        /* \"SmartAuctionEthKipu_flattened.sol\":23299:23316  uint totalDeposit */\n      0x00\n        /* \"SmartAuctionEthKipu_flattened.sol\":23319:23327  deposits */\n      0x09\n        /* \"SmartAuctionEthKipu_flattened.sol\":23319:23339  deposits[msg.sender] */\n      0x00\n        /* \"SmartAuctionEthKipu_flattened.sol\":23328:23338  msg.sender */\n      caller\n        /* \"SmartAuctionEthKipu_flattened.sol\":23319:23339  deposits[msg.sender] */\n      0xffffffffffffffffffffffffffffffffffffffff\n      and\n      0xffffffffffffffffffffffffffffffffffffffff\n      and\n      dup2\n      mstore\n      0x20\n      add\n      swap1\n      dup2\n      mstore\n      0x20\n      add\n      0x00\n      keccak256\n      sload\n        /* \"SmartAuctionEthKipu_flattened.sol\":23299:23339  uint totalDeposit = deposits[msg.sender] */\n      swap1\n      pop\n        /* \"SmartAuctionEthKipu_flattened.sol\":23372:23373  0 */\n      0x00\n        /* \"SmartAuctionEthKipu_flattened.sol\":23357:23369  totalDeposit */\n      dup2\n        /* \"SmartAuctionEthKipu_flattened.sol\":23357:23373  totalDeposit > 0 */\n      gt\n        /* \"SmartAuctionEthKipu_flattened.sol\":23349:23386  require(totalDeposit > 0, \"No funds\") */\n      tag_243\n      jumpi\n      mload(0x40)\n      0x08c379a000000000000000000000000000000000000000000000000000000000\n      dup2\n      mstore\n      0x04\n      add\n      tag_244\n      swap1\n      tag_183\n      jump\t// in\n    tag_244:\n      mload(0x40)\n      dup1\n      swap2\n      sub\n      swap1\n      revert\n    tag_243:\n        /* \"SmartAuctionEthKipu_flattened.sol\":23451:23452  0 */\n      0x00\n        /* \"SmartAuctionEthKipu_flattened.sol\":23428:23436  deposits */\n      0x09\n        /* \"SmartAuctionEthKipu_flattened.sol\":23428:23448  deposits[msg.sender] */\n      0x00\n        /* \"SmartAuctionEthKipu_flattened.sol\":23437:23447  msg.sender */\n      caller\n        /* \"SmartAuctionEthKipu_flattened.sol\":23428:23448  deposits[msg.sender] */\n      0xffffffffffffffffffffffffffffffffffffffff\n      and\n      0xffffffffffffffffffffffffffffffffffffffff\n      and\n      dup2\n      mstore\n      0x20\n      add\n      swap1\n      dup2\n      mstore\n      0x20\n      add\n      0x00\n      keccak256\n        /* \"SmartAuctionEthKipu_flattened.sol\":23428:23452  deposits[msg.sender] = 0 */\n      dup2\n      swap1\n      sstore\n      pop\n        /* \"SmartAuctionEthKipu_flattened.sol\":23471:23519  _safeTransfer(payable(msg.sender), totalDeposit) */\n      tag_245\n        /* \"SmartAuctionEthKipu_flattened.sol\":23493:23503  msg.sender */\n      caller\n        /* \"SmartAuctionEthKipu_flattened.sol\":23506:23518  totalDeposit */\n      dup3\n        /* \"SmartAuctionEthKipu_flattened.sol\":23471:23484  _safeTransfer */\n      tag_189\n        /* \"SmartAuctionEthKipu_flattened.sol\":23471:23519  _safeTransfer(payable(msg.sender), totalDeposit) */\n      jump\t// in\n    tag_245:\n        /* \"SmartAuctionEthKipu_flattened.sol\":23545:23555  msg.sender */\n      caller\n        /* \"SmartAuctionEthKipu_flattened.sol\":23534:23570  Withdrawal(msg.sender, totalDeposit) */\n      0xffffffffffffffffffffffffffffffffffffffff\n      and\n      0x7fcf532c15f0a6db0bd6d0e038bea71d30d808c7d98cb3bf7268a95bf5081b65\n        /* \"SmartAuctionEthKipu_flattened.sol\":23557:23569  totalDeposit */\n      dup3\n        /* \"SmartAuctionEthKipu_flattened.sol\":23534:23570  Withdrawal(msg.sender, totalDeposit) */\n      mload(0x40)\n      tag_246\n      swap2\n      swap1\n      tag_67\n      jump\t// in\n    tag_246:\n      mload(0x40)\n      dup1\n      swap2\n      sub\n      swap1\n      log2\n        /* \"SmartAuctionEthKipu_flattened.sol\":23208:23577  {... */\n      pop\n        /* \"SmartAuctionEthKipu_flattened.sol\":2572:2592  _nonReentrantAfter() */\n      tag_247\n        /* \"SmartAuctionEthKipu_flattened.sol\":2572:2590  _nonReentrantAfter */\n      tag_192\n        /* \"SmartAuctionEthKipu_flattened.sol\":2572:2592  _nonReentrantAfter() */\n      jump\t// in\n    tag_247:\n        /* \"SmartAuctionEthKipu_flattened.sol\":23139:23577  function partialWithdrawExcess() public onlyWhileActive nonReentrant {... */\n      jump\t// out\n        /* \"SmartAuctionEthKipu_flattened.sol\":27541:27606  function unpause() external onlyOwner {... */\n    tag_73:\n        /* \"SmartAuctionEthKipu_flattened.sol\":5907:5920  _checkOwner() */\n      tag_249\n        /* \"SmartAuctionEthKipu_flattened.sol\":5907:5918  _checkOwner */\n      tag_250\n        /* \"SmartAuctionEthKipu_flattened.sol\":5907:5920  _checkOwner() */\n      jump\t// in\n    tag_249:\n        /* \"SmartAuctionEthKipu_flattened.sol\":27589:27599  _unpause() */\n      tag_252\n        /* \"SmartAuctionEthKipu_flattened.sol\":27589:27597  _unpause */\n      tag_253\n        /* \"SmartAuctionEthKipu_flattened.sol\":27589:27599  _unpause() */\n      jump\t// in\n    tag_252:\n        /* \"SmartAuctionEthKipu_flattened.sol\":27541:27606  function unpause() external onlyOwner {... */\n      jump\t// out\n        /* \"SmartAuctionEthKipu_flattened.sol\":26761:26971  function withdrawFees() external onlySeller nonReentrant {... */\n    tag_76:\n        /* \"SmartAuctionEthKipu_flattened.sol\":20448:20454  seller */\n      0x02\n      0x00\n      swap1\n      sload\n      swap1\n      0x0100\n      exp\n      swap1\n      div\n      0xffffffffffffffffffffffffffffffffffffffff\n      and\n        /* \"SmartAuctionEthKipu_flattened.sol\":20434:20454  msg.sender == seller */\n      0xffffffffffffffffffffffffffffffffffffffff\n      and\n        /* \"SmartAuctionEthKipu_flattened.sol\":20434:20444  msg.sender */\n      caller\n        /* \"SmartAuctionEthKipu_flattened.sol\":20434:20454  msg.sender == seller */\n      0xffffffffffffffffffffffffffffffffffffffff\n      and\n      eq\n        /* \"SmartAuctionEthKipu_flattened.sol\":20426:20469  require(msg.sender == seller, \"Not seller\") */\n      tag_255\n      jumpi\n      mload(0x40)\n      0x08c379a000000000000000000000000000000000000000000000000000000000\n      dup2\n      mstore\n      0x04\n      add\n      tag_256\n      swap1\n      tag_257\n      jump\t// in\n    tag_256:\n      mload(0x40)\n      dup1\n      swap2\n      sub\n      swap1\n      revert\n    tag_255:\n        /* \"SmartAuctionEthKipu_flattened.sol\":2530:2551  _nonReentrantBefore() */\n      tag_259\n        /* \"SmartAuctionEthKipu_flattened.sol\":2530:2549  _nonReentrantBefore */\n      tag_179\n        /* \"SmartAuctionEthKipu_flattened.sol\":2530:2551  _nonReentrantBefore() */\n      jump\t// in\n    tag_259:\n        /* \"SmartAuctionEthKipu_flattened.sol\":26828:26837  uint fees */\n      0x00\n        /* \"SmartAuctionEthKipu_flattened.sol\":26840:26853  collectedFees */\n      sload(0x0b)\n        /* \"SmartAuctionEthKipu_flattened.sol\":26828:26853  uint fees = collectedFees */\n      swap1\n      pop\n        /* \"SmartAuctionEthKipu_flattened.sol\":26878:26879  0 */\n      0x00\n        /* \"SmartAuctionEthKipu_flattened.sol\":26871:26875  fees */\n      dup2\n        /* \"SmartAuctionEthKipu_flattened.sol\":26871:26879  fees > 0 */\n      gt\n        /* \"SmartAuctionEthKipu_flattened.sol\":26863:26891  require(fees > 0, \"No fees\") */\n      tag_261\n      jumpi\n      mload(0x40)\n      0x08c379a000000000000000000000000000000000000000000000000000000000\n      dup2\n      mstore\n      0x04\n      add\n      tag_262\n      swap1\n      tag_263\n      jump\t// in\n    tag_262:\n      mload(0x40)\n      dup1\n      swap2\n      sub\n      swap1\n      revert\n    tag_261:\n        /* \"SmartAuctionEthKipu_flattened.sol\":26926:26927  0 */\n      0x00\n        /* \"SmartAuctionEthKipu_flattened.sol\":26910:26923  collectedFees */\n      0x0b\n        /* \"SmartAuctionEthKipu_flattened.sol\":26910:26927  collectedFees = 0 */\n      dup2\n      swap1\n      sstore\n      pop\n        /* \"SmartAuctionEthKipu_flattened.sol\":26937:26964  _safeTransfer(seller, fees) */\n      tag_264\n        /* \"SmartAuctionEthKipu_flattened.sol\":26951:26957  seller */\n      0x02\n      0x00\n      swap1\n      sload\n      swap1\n      0x0100\n      exp\n      swap1\n      div\n      0xffffffffffffffffffffffffffffffffffffffff\n      and\n        /* \"SmartAuctionEthKipu_flattened.sol\":26959:26963  fees */\n      dup3\n        /* \"SmartAuctionEthKipu_flattened.sol\":26937:26950  _safeTransfer */\n      tag_189\n        /* \"SmartAuctionEthKipu_flattened.sol\":26937:26964  _safeTransfer(seller, fees) */\n      jump\t// in\n    tag_264:\n        /* \"SmartAuctionEthKipu_flattened.sol\":26818:26971  {... */\n      pop\n        /* \"SmartAuctionEthKipu_flattened.sol\":2572:2592  _nonReentrantAfter() */\n      tag_265\n        /* \"SmartAuctionEthKipu_flattened.sol\":2572:2590  _nonReentrantAfter */\n      tag_192\n        /* \"SmartAuctionEthKipu_flattened.sol\":2572:2592  _nonReentrantAfter() */\n      jump\t// in\n    tag_265:\n        /* \"SmartAuctionEthKipu_flattened.sol\":26761:26971  function withdrawFees() external onlySeller nonReentrant {... */\n      jump\t// out\n        /* \"SmartAuctionEthKipu_flattened.sol\":18612:18655  uint public constant REFUND_FEE_PERCENT = 2 */\n    tag_79:\n        /* \"SmartAuctionEthKipu_flattened.sol\":18654:18655  2 */\n      0x02\n        /* \"SmartAuctionEthKipu_flattened.sol\":18612:18655  uint public constant REFUND_FEE_PERCENT = 2 */\n      dup2\n      jump\t// out\n        /* \"SmartAuctionEthKipu_flattened.sol\":24011:24100  function showOffers() public view returns (Offer[] memory) {... */\n    tag_83:\n        /* \"SmartAuctionEthKipu_flattened.sol\":24054:24068  Offer[] memory */\n      0x60\n        /* \"SmartAuctionEthKipu_flattened.sol\":24087:24093  offers */\n      0x08\n        /* \"SmartAuctionEthKipu_flattened.sol\":24080:24093  return offers */\n      dup1\n      sload\n      dup1\n      0x20\n      mul\n      0x20\n      add\n      mload(0x40)\n      swap1\n      dup2\n      add\n      0x40\n      mstore\n      dup1\n      swap3\n      swap2\n      swap1\n      dup2\n      dup2\n      mstore\n      0x20\n      add\n      0x00\n      swap1\n    tag_267:\n      dup3\n      dup3\n      lt\n      iszero\n      tag_268\n      jumpi\n      dup4\n      dup3\n      swap1\n      0x00\n      mstore\n      keccak256(0x00, 0x20)\n      swap1\n      0x03\n      mul\n      add\n      mload(0x40)\n      dup1\n      0x60\n      add\n      0x40\n      mstore\n      swap1\n      dup2\n      0x00\n      dup3\n      add\n      0x00\n      swap1\n      sload\n      swap1\n      0x0100\n      exp\n      swap1\n      div\n      0xffffffffffffffffffffffffffffffffffffffff\n      and\n      0xffffffffffffffffffffffffffffffffffffffff\n      and\n      0xffffffffffffffffffffffffffffffffffffffff\n      and\n      dup2\n      mstore\n      0x20\n      add\n      0x01\n      dup3\n      add\n      sload\n      dup2\n      mstore\n      0x20\n      add\n      0x02\n      dup3\n      add\n      sload\n      dup2\n      mstore\n      pop\n      pop\n      dup2\n      mstore\n      0x20\n      add\n      swap1\n      0x01\n      add\n      swap1\n      jump(tag_267)\n    tag_268:\n      pop\n      pop\n      pop\n      pop\n      swap1\n      pop\n        /* \"SmartAuctionEthKipu_flattened.sol\":24011:24100  function showOffers() public view returns (Offer[] memory) {... */\n      swap1\n      jump\t// out\n        /* \"SmartAuctionEthKipu_flattened.sol\":18371:18412  uint public constant EXTENSION_TIME = 600 */\n    tag_88:\n        /* \"SmartAuctionEthKipu_flattened.sol\":18409:18412  600 */\n      0x0258\n        /* \"SmartAuctionEthKipu_flattened.sol\":18371:18412  uint public constant EXTENSION_TIME = 600 */\n      dup2\n      jump\t// out\n        /* \"SmartAuctionEthKipu_flattened.sol\":9181:9265  function paused() public view virtual returns (bool) {... */\n    tag_92:\n        /* \"SmartAuctionEthKipu_flattened.sol\":9228:9232  bool */\n      0x00\n        /* \"SmartAuctionEthKipu_flattened.sol\":9251:9258  _paused */\n      0x01\n      0x14\n      swap1\n      sload\n      swap1\n      0x0100\n      exp\n      swap1\n      div\n      0xff\n      and\n        /* \"SmartAuctionEthKipu_flattened.sol\":9244:9258  return _paused */\n      swap1\n      pop\n        /* \"SmartAuctionEthKipu_flattened.sol\":9181:9265  function paused() public view virtual returns (bool) {... */\n      swap1\n      jump\t// out\n        /* \"SmartAuctionEthKipu_flattened.sol\":18241:18289  uint public constant MIN_INCREMENT_PERCENT = 105 */\n    tag_96:\n        /* \"SmartAuctionEthKipu_flattened.sol\":18286:18289  105 */\n      0x69\n        /* \"SmartAuctionEthKipu_flattened.sol\":18241:18289  uint public constant MIN_INCREMENT_PERCENT = 105 */\n      dup2\n      jump\t// out\n        /* \"SmartAuctionEthKipu_flattened.sol\":6669:6770  function renounceOwnership() public virtual onlyOwner {... */\n    tag_100:\n        /* \"SmartAuctionEthKipu_flattened.sol\":5907:5920  _checkOwner() */\n      tag_272\n        /* \"SmartAuctionEthKipu_flattened.sol\":5907:5918  _checkOwner */\n      tag_250\n        /* \"SmartAuctionEthKipu_flattened.sol\":5907:5920  _checkOwner() */\n      jump\t// in\n    tag_272:\n        /* \"SmartAuctionEthKipu_flattened.sol\":6733:6763  _transferOwnership(address(0)) */\n      tag_274\n        /* \"SmartAuctionEthKipu_flattened.sol\":6760:6761  0 */\n      0x00\n        /* \"SmartAuctionEthKipu_flattened.sol\":6733:6751  _transferOwnership */\n      tag_275\n        /* \"SmartAuctionEthKipu_flattened.sol\":6733:6763  _transferOwnership(address(0)) */\n      jump\t// in\n    tag_274:\n        /* \"SmartAuctionEthKipu_flattened.sol\":6669:6770  function renounceOwnership() public virtual onlyOwner {... */\n      jump\t// out\n        /* \"SmartAuctionEthKipu_flattened.sol\":17933:17954  uint public startTime */\n    tag_103:\n      sload(0x05)\n      dup2\n      jump\t// out\n        /* \"SmartAuctionEthKipu_flattened.sol\":18494:18537  uint public constant EXTENSION_WINDOW = 600 */\n    tag_107:\n        /* \"SmartAuctionEthKipu_flattened.sol\":18534:18537  600 */\n      0x0258\n        /* \"SmartAuctionEthKipu_flattened.sol\":18494:18537  uint public constant EXTENSION_WINDOW = 600 */\n      dup2\n      jump\t// out\n        /* \"SmartAuctionEthKipu_flattened.sol\":27393:27454  function pause() external onlyOwner {... */\n    tag_111:\n        /* \"SmartAuctionEthKipu_flattened.sol\":5907:5920  _checkOwner() */\n      tag_277\n        /* \"SmartAuctionEthKipu_flattened.sol\":5907:5918  _checkOwner */\n      tag_250\n        /* \"SmartAuctionEthKipu_flattened.sol\":5907:5920  _checkOwner() */\n      jump\t// in\n    tag_277:\n        /* \"SmartAuctionEthKipu_flattened.sol\":27439:27447  _pause() */\n      tag_279\n        /* \"SmartAuctionEthKipu_flattened.sol\":27439:27445  _pause */\n      tag_280\n        /* \"SmartAuctionEthKipu_flattened.sol\":27439:27447  _pause() */\n      jump\t// in\n    tag_279:\n        /* \"SmartAuctionEthKipu_flattened.sol\":27393:27454  function pause() external onlyOwner {... */\n      jump\t// out\n        /* \"SmartAuctionEthKipu_flattened.sol\":18902:18923  Offer[] public offers */\n    tag_116:\n      0x08\n      dup2\n      dup2\n      sload\n      dup2\n      lt\n      tag_281\n      jumpi\n      0x00\n      dup1\n      revert\n    tag_281:\n      swap1\n      0x00\n      mstore\n      keccak256(0x00, 0x20)\n      swap1\n      0x03\n      mul\n      add\n      0x00\n      swap2\n      pop\n      swap1\n      pop\n      dup1\n      0x00\n      add\n      0x00\n      swap1\n      sload\n      swap1\n      0x0100\n      exp\n      swap1\n      div\n      0xffffffffffffffffffffffffffffffffffffffff\n      and\n      swap1\n      dup1\n      0x01\n      add\n      sload\n      swap1\n      dup1\n      0x02\n      add\n      sload\n      swap1\n      pop\n      dup4\n      jump\t// out\n        /* \"SmartAuctionEthKipu_flattened.sol\":6014:6099  function owner() public view virtual returns (address) {... */\n    tag_121:\n        /* \"SmartAuctionEthKipu_flattened.sol\":6060:6067  address */\n      0x00\n        /* \"SmartAuctionEthKipu_flattened.sol\":6086:6092  _owner */\n      0x01\n      0x00\n      swap1\n      sload\n      swap1\n      0x0100\n      exp\n      swap1\n      div\n      0xffffffffffffffffffffffffffffffffffffffff\n      and\n        /* \"SmartAuctionEthKipu_flattened.sol\":6079:6092  return _owner */\n      swap1\n      pop\n        /* \"SmartAuctionEthKipu_flattened.sol\":6014:6099  function owner() public view virtual returns (address) {... */\n      swap1\n      jump\t// out\n        /* \"SmartAuctionEthKipu_flattened.sol\":28035:28143  function getLastOfferIndex() external view returns (uint) {... */\n    tag_126:\n        /* \"SmartAuctionEthKipu_flattened.sol\":28087:28091  uint */\n      0x00\n        /* \"SmartAuctionEthKipu_flattened.sol\":28110:28124  lastOfferIndex */\n      0x0a\n        /* \"SmartAuctionEthKipu_flattened.sol\":28110:28136  lastOfferIndex[msg.sender] */\n      0x00\n        /* \"SmartAuctionEthKipu_flattened.sol\":28125:28135  msg.sender */\n      caller\n        /* \"SmartAuctionEthKipu_flattened.sol\":28110:28136  lastOfferIndex[msg.sender] */\n      0xffffffffffffffffffffffffffffffffffffffff\n      and\n      0xffffffffffffffffffffffffffffffffffffffff\n      and\n      dup2\n      mstore\n      0x20\n      add\n      swap1\n      dup2\n      mstore\n      0x20\n      add\n      0x00\n      keccak256\n      sload\n        /* \"SmartAuctionEthKipu_flattened.sol\":28103:28136  return lastOfferIndex[msg.sender] */\n      swap1\n      pop\n        /* \"SmartAuctionEthKipu_flattened.sol\":28035:28143  function getLastOfferIndex() external view returns (uint) {... */\n      swap1\n      jump\t// out\n        /* \"SmartAuctionEthKipu_flattened.sol\":17796:17824  address public highestBidder */\n    tag_130:\n      0x03\n      0x00\n      swap1\n      sload\n      swap1\n      0x0100\n      exp\n      swap1\n      div\n      0xffffffffffffffffffffffffffffffffffffffff\n      and\n      dup2\n      jump\t// out\n        /* \"SmartAuctionEthKipu_flattened.sol\":23753:23888  function showWinner() public view onlyAfterEnd returns(address winner, uint amount) {... */\n    tag_134:\n        /* \"SmartAuctionEthKipu_flattened.sol\":23808:23822  address winner */\n      0x00\n        /* \"SmartAuctionEthKipu_flattened.sol\":23824:23835  uint amount */\n      0x00\n        /* \"SmartAuctionEthKipu_flattened.sol\":20307:20314  endTime */\n      sload(0x06)\n        /* \"SmartAuctionEthKipu_flattened.sol\":20288:20303  block.timestamp */\n      timestamp\n        /* \"SmartAuctionEthKipu_flattened.sol\":20288:20314  block.timestamp >= endTime */\n      lt\n      iszero\n        /* \"SmartAuctionEthKipu_flattened.sol\":20288:20323  block.timestamp >= endTime || ended */\n      dup1\n      tag_286\n      jumpi\n      pop\n        /* \"SmartAuctionEthKipu_flattened.sol\":20318:20323  ended */\n      0x07\n      0x00\n      swap1\n      sload\n      swap1\n      0x0100\n      exp\n      swap1\n      div\n      0xff\n      and\n        /* \"SmartAuctionEthKipu_flattened.sol\":20288:20323  block.timestamp >= endTime || ended */\n    tag_286:\n        /* \"SmartAuctionEthKipu_flattened.sol\":20280:20337  require(block.timestamp >= endTime || ended, \"Not ended\") */\n      tag_287\n      jumpi\n      mload(0x40)\n      0x08c379a000000000000000000000000000000000000000000000000000000000\n      dup2\n      mstore\n      0x04\n      add\n      tag_288\n      swap1\n      tag_172\n      jump\t// in\n    tag_288:\n      mload(0x40)\n      dup1\n      swap2\n      sub\n      swap1\n      revert\n    tag_287:\n        /* \"SmartAuctionEthKipu_flattened.sol\":23855:23868  highestBidder */\n      0x03\n      0x00\n      swap1\n      sload\n      swap1\n      0x0100\n      exp\n      swap1\n      div\n      0xffffffffffffffffffffffffffffffffffffffff\n      and\n        /* \"SmartAuctionEthKipu_flattened.sol\":23870:23880  highestBid */\n      sload(0x04)\n        /* \"SmartAuctionEthKipu_flattened.sol\":23847:23881  return (highestBidder, highestBid) */\n      swap2\n      pop\n      swap2\n      pop\n        /* \"SmartAuctionEthKipu_flattened.sol\":23753:23888  function showWinner() public view onlyAfterEnd returns(address winner, uint amount) {... */\n      swap1\n      swap2\n      jump\t// out\n        /* \"SmartAuctionEthKipu_flattened.sol\":24193:24277  function numOffers() public view returns(uint) {... */\n    tag_139:\n        /* \"SmartAuctionEthKipu_flattened.sol\":24234:24238  uint */\n      0x00\n        /* \"SmartAuctionEthKipu_flattened.sol\":24257:24263  offers */\n      0x08\n        /* \"SmartAuctionEthKipu_flattened.sol\":24257:24270  offers.length */\n      dup1\n      sload\n      swap1\n      pop\n        /* \"SmartAuctionEthKipu_flattened.sol\":24250:24270  return offers.length */\n      swap1\n      pop\n        /* \"SmartAuctionEthKipu_flattened.sol\":24193:24277  function numOffers() public view returns(uint) {... */\n      swap1\n      jump\t// out\n        /* \"SmartAuctionEthKipu_flattened.sol\":27792:27897  function getCollectedFees() external view onlySeller returns (uint) {... */\n    tag_143:\n        /* \"SmartAuctionEthKipu_flattened.sol\":27854:27858  uint */\n      0x00\n        /* \"SmartAuctionEthKipu_flattened.sol\":20448:20454  seller */\n      0x02\n      0x00\n      swap1\n      sload\n      swap1\n      0x0100\n      exp\n      swap1\n      div\n      0xffffffffffffffffffffffffffffffffffffffff\n      and\n        /* \"SmartAuctionEthKipu_flattened.sol\":20434:20454  msg.sender == seller */\n      0xffffffffffffffffffffffffffffffffffffffff\n      and\n        /* \"SmartAuctionEthKipu_flattened.sol\":20434:20444  msg.sender */\n      caller\n        /* \"SmartAuctionEthKipu_flattened.sol\":20434:20454  msg.sender == seller */\n      0xffffffffffffffffffffffffffffffffffffffff\n      and\n      eq\n        /* \"SmartAuctionEthKipu_flattened.sol\":20426:20469  require(msg.sender == seller, \"Not seller\") */\n      tag_292\n      jumpi\n      mload(0x40)\n      0x08c379a000000000000000000000000000000000000000000000000000000000\n      dup2\n      mstore\n      0x04\n      add\n      tag_293\n      swap1\n      tag_257\n      jump\t// in\n    tag_293:\n      mload(0x40)\n      dup1\n      swap2\n      sub\n      swap1\n      revert\n    tag_292:\n        /* \"SmartAuctionEthKipu_flattened.sol\":27877:27890  collectedFees */\n      sload(0x0b)\n        /* \"SmartAuctionEthKipu_flattened.sol\":27870:27890  return collectedFees */\n      swap1\n      pop\n        /* \"SmartAuctionEthKipu_flattened.sol\":27792:27897  function getCollectedFees() external view onlySeller returns (uint) {... */\n      swap1\n      jump\t// out\n        /* \"SmartAuctionEthKipu_flattened.sol\":17865:17887  uint public highestBid */\n    tag_147:\n      sload(0x04)\n      dup2\n      jump\t// out\n        /* \"SmartAuctionEthKipu_flattened.sol\":27071:27312  function emergencyWithdraw() external onlyOwner {... */\n    tag_151:\n        /* \"SmartAuctionEthKipu_flattened.sol\":5907:5920  _checkOwner() */\n      tag_296\n        /* \"SmartAuctionEthKipu_flattened.sol\":5907:5918  _checkOwner */\n      tag_250\n        /* \"SmartAuctionEthKipu_flattened.sol\":5907:5920  _checkOwner() */\n      jump\t// in\n    tag_296:\n        /* \"SmartAuctionEthKipu_flattened.sol\":27137:27142  ended */\n      0x07\n      0x00\n      swap1\n      sload\n      swap1\n      0x0100\n      exp\n      swap1\n      div\n      0xff\n      and\n        /* \"SmartAuctionEthKipu_flattened.sol\":27129:27161  require(ended, \"Auction active\") */\n      tag_298\n      jumpi\n      mload(0x40)\n      0x08c379a000000000000000000000000000000000000000000000000000000000\n      dup2\n      mstore\n      0x04\n      add\n      tag_299\n      swap1\n      tag_300\n      jump\t// in\n    tag_299:\n      mload(0x40)\n      dup1\n      swap2\n      sub\n      swap1\n      revert\n    tag_298:\n        /* \"SmartAuctionEthKipu_flattened.sol\":27180:27192  uint balance */\n      0x00\n        /* \"SmartAuctionEthKipu_flattened.sol\":27195:27216  address(this).balance */\n      selfbalance\n        /* \"SmartAuctionEthKipu_flattened.sol\":27180:27216  uint balance = address(this).balance */\n      swap1\n      pop\n        /* \"SmartAuctionEthKipu_flattened.sol\":27244:27245  0 */\n      0x00\n        /* \"SmartAuctionEthKipu_flattened.sol\":27234:27241  balance */\n      dup2\n        /* \"SmartAuctionEthKipu_flattened.sol\":27234:27245  balance > 0 */\n      gt\n        /* \"SmartAuctionEthKipu_flattened.sol\":27226:27256  require(balance > 0, \"No ETH\") */\n      tag_301\n      jumpi\n      mload(0x40)\n      0x08c379a000000000000000000000000000000000000000000000000000000000\n      dup2\n      mstore\n      0x04\n      add\n      tag_302\n      swap1\n      tag_303\n      jump\t// in\n    tag_302:\n      mload(0x40)\n      dup1\n      swap2\n      sub\n      swap1\n      revert\n    tag_301:\n        /* \"SmartAuctionEthKipu_flattened.sol\":27275:27305  _safeTransfer(seller, balance) */\n      tag_304\n        /* \"SmartAuctionEthKipu_flattened.sol\":27289:27295  seller */\n      0x02\n      0x00\n      swap1\n      sload\n      swap1\n      0x0100\n      exp\n      swap1\n      div\n      0xffffffffffffffffffffffffffffffffffffffff\n      and\n        /* \"SmartAuctionEthKipu_flattened.sol\":27297:27304  balance */\n      dup3\n        /* \"SmartAuctionEthKipu_flattened.sol\":27275:27288  _safeTransfer */\n      tag_189\n        /* \"SmartAuctionEthKipu_flattened.sol\":27275:27305  _safeTransfer(seller, balance) */\n      jump\t// in\n    tag_304:\n        /* \"SmartAuctionEthKipu_flattened.sol\":27119:27312  {... */\n      pop\n        /* \"SmartAuctionEthKipu_flattened.sol\":27071:27312  function emergencyWithdraw() external onlyOwner {... */\n      jump\t// out\n        /* \"SmartAuctionEthKipu_flattened.sol\":6919:7134  function transferOwnership(address newOwner) public virtual onlyOwner {... */\n    tag_156:\n        /* \"SmartAuctionEthKipu_flattened.sol\":5907:5920  _checkOwner() */\n      tag_306\n        /* \"SmartAuctionEthKipu_flattened.sol\":5907:5918  _checkOwner */\n      tag_250\n        /* \"SmartAuctionEthKipu_flattened.sol\":5907:5920  _checkOwner() */\n      jump\t// in\n    tag_306:\n        /* \"SmartAuctionEthKipu_flattened.sol\":7023:7024  0 */\n      0x00\n        /* \"SmartAuctionEthKipu_flattened.sol\":7003:7025  newOwner == address(0) */\n      0xffffffffffffffffffffffffffffffffffffffff\n      and\n        /* \"SmartAuctionEthKipu_flattened.sol\":7003:7011  newOwner */\n      dup2\n        /* \"SmartAuctionEthKipu_flattened.sol\":7003:7025  newOwner == address(0) */\n      0xffffffffffffffffffffffffffffffffffffffff\n      and\n      sub\n        /* \"SmartAuctionEthKipu_flattened.sol\":6999:7090  if (newOwner == address(0)) {... */\n      tag_308\n      jumpi\n        /* \"SmartAuctionEthKipu_flattened.sol\":7076:7077  0 */\n      0x00\n        /* \"SmartAuctionEthKipu_flattened.sol\":7048:7079  OwnableInvalidOwner(address(0)) */\n      mload(0x40)\n      0x1e4fbdf700000000000000000000000000000000000000000000000000000000\n      dup2\n      mstore\n      0x04\n      add\n      tag_309\n      swap2\n      swap1\n      tag_123\n      jump\t// in\n    tag_309:\n      mload(0x40)\n      dup1\n      swap2\n      sub\n      swap1\n      revert\n        /* \"SmartAuctionEthKipu_flattened.sol\":6999:7090  if (newOwner == address(0)) {... */\n    tag_308:\n        /* \"SmartAuctionEthKipu_flattened.sol\":7099:7127  _transferOwnership(newOwner) */\n      tag_310\n        /* \"SmartAuctionEthKipu_flattened.sol\":7118:7126  newOwner */\n      dup2\n        /* \"SmartAuctionEthKipu_flattened.sol\":7099:7117  _transferOwnership */\n      tag_275\n        /* \"SmartAuctionEthKipu_flattened.sol\":7099:7127  _transferOwnership(newOwner) */\n      jump\t// in\n    tag_310:\n        /* \"SmartAuctionEthKipu_flattened.sol\":6919:7134  function transferOwnership(address newOwner) public virtual onlyOwner {... */\n      pop\n      jump\t// out\n        /* \"SmartAuctionEthKipu_flattened.sol\":25522:26653  function distributeRefunds() external onlyOwner onlyAfterEnd nonReentrant {... */\n    tag_159:\n        /* \"SmartAuctionEthKipu_flattened.sol\":5907:5920  _checkOwner() */\n      tag_312\n        /* \"SmartAuctionEthKipu_flattened.sol\":5907:5918  _checkOwner */\n      tag_250\n        /* \"SmartAuctionEthKipu_flattened.sol\":5907:5920  _checkOwner() */\n      jump\t// in\n    tag_312:\n        /* \"SmartAuctionEthKipu_flattened.sol\":20307:20314  endTime */\n      sload(0x06)\n        /* \"SmartAuctionEthKipu_flattened.sol\":20288:20303  block.timestamp */\n      timestamp\n        /* \"SmartAuctionEthKipu_flattened.sol\":20288:20314  block.timestamp >= endTime */\n      lt\n      iszero\n        /* \"SmartAuctionEthKipu_flattened.sol\":20288:20323  block.timestamp >= endTime || ended */\n      dup1\n      tag_314\n      jumpi\n      pop\n        /* \"SmartAuctionEthKipu_flattened.sol\":20318:20323  ended */\n      0x07\n      0x00\n      swap1\n      sload\n      swap1\n      0x0100\n      exp\n      swap1\n      div\n      0xff\n      and\n        /* \"SmartAuctionEthKipu_flattened.sol\":20288:20323  block.timestamp >= endTime || ended */\n    tag_314:\n        /* \"SmartAuctionEthKipu_flattened.sol\":20280:20337  require(block.timestamp >= endTime || ended, \"Not ended\") */\n      tag_315\n      jumpi\n      mload(0x40)\n      0x08c379a000000000000000000000000000000000000000000000000000000000\n      dup2\n      mstore\n      0x04\n      add\n      tag_316\n      swap1\n      tag_172\n      jump\t// in\n    tag_316:\n      mload(0x40)\n      dup1\n      swap2\n      sub\n      swap1\n      revert\n    tag_315:\n        /* \"SmartAuctionEthKipu_flattened.sol\":2530:2551  _nonReentrantBefore() */\n      tag_318\n        /* \"SmartAuctionEthKipu_flattened.sol\":2530:2549  _nonReentrantBefore */\n      tag_179\n        /* \"SmartAuctionEthKipu_flattened.sol\":2530:2551  _nonReentrantBefore() */\n      jump\t// in\n    tag_318:\n        /* \"SmartAuctionEthKipu_flattened.sol\":25614:25619  ended */\n      0x07\n      0x00\n      swap1\n      sload\n      swap1\n      0x0100\n      exp\n      swap1\n      div\n      0xff\n      and\n        /* \"SmartAuctionEthKipu_flattened.sol\":25606:25641  require(ended, \"Auction not ended\") */\n      tag_320\n      jumpi\n      mload(0x40)\n      0x08c379a000000000000000000000000000000000000000000000000000000000\n      dup2\n      mstore\n      0x04\n      add\n      tag_321\n      swap1\n      tag_322\n      jump\t// in\n    tag_321:\n      mload(0x40)\n      dup1\n      swap2\n      sub\n      swap1\n      revert\n    tag_320:\n        /* \"SmartAuctionEthKipu_flattened.sol\":25721:25738  uint offersLength */\n      0x00\n        /* \"SmartAuctionEthKipu_flattened.sol\":25741:25747  offers */\n      0x08\n        /* \"SmartAuctionEthKipu_flattened.sol\":25741:25754  offers.length */\n      dup1\n      sload\n      swap1\n      pop\n        /* \"SmartAuctionEthKipu_flattened.sol\":25721:25754  uint offersLength = offers.length */\n      swap1\n      pop\n        /* \"SmartAuctionEthKipu_flattened.sol\":25764:25785  address currentBidder */\n      0x00\n        /* \"SmartAuctionEthKipu_flattened.sol\":25795:25814  uint currentDeposit */\n      0x00\n        /* \"SmartAuctionEthKipu_flattened.sol\":25824:25832  uint fee */\n      0x00\n        /* \"SmartAuctionEthKipu_flattened.sol\":25842:25853  uint refund */\n      0x00\n        /* \"SmartAuctionEthKipu_flattened.sol\":25877:25883  uint i */\n      0x00\n        /* \"SmartAuctionEthKipu_flattened.sol\":25886:25887  0 */\n      0x00\n        /* \"SmartAuctionEthKipu_flattened.sol\":25877:25887  uint i = 0 */\n      swap1\n      pop\n        /* \"SmartAuctionEthKipu_flattened.sol\":25872:26647  for (uint i = 0; i < offersLength; i++) {... */\n    tag_323:\n        /* \"SmartAuctionEthKipu_flattened.sol\":25893:25905  offersLength */\n      dup6\n        /* \"SmartAuctionEthKipu_flattened.sol\":25889:25890  i */\n      dup2\n        /* \"SmartAuctionEthKipu_flattened.sol\":25889:25905  i < offersLength */\n      lt\n        /* \"SmartAuctionEthKipu_flattened.sol\":25872:26647  for (uint i = 0; i < offersLength; i++) {... */\n      iszero\n      tag_324\n      jumpi\n        /* \"SmartAuctionEthKipu_flattened.sol\":25942:25948  offers */\n      0x08\n        /* \"SmartAuctionEthKipu_flattened.sol\":25949:25950  i */\n      dup2\n        /* \"SmartAuctionEthKipu_flattened.sol\":25942:25951  offers[i] */\n      dup2\n      sload\n      dup2\n      lt\n      tag_326\n      jumpi\n      tag_327\n      tag_328\n      jump\t// in\n    tag_327:\n    tag_326:\n      swap1\n      0x00\n      mstore\n      keccak256(0x00, 0x20)\n      swap1\n      0x03\n      mul\n      add\n        /* \"SmartAuctionEthKipu_flattened.sol\":25942:25958  offers[i].bidder */\n      0x00\n      add\n      0x00\n      swap1\n      sload\n      swap1\n      0x0100\n      exp\n      swap1\n      div\n      0xffffffffffffffffffffffffffffffffffffffff\n      and\n        /* \"SmartAuctionEthKipu_flattened.sol\":25926:25958  currentBidder = offers[i].bidder */\n      swap5\n      pop\n        /* \"SmartAuctionEthKipu_flattened.sol\":26050:26063  highestBidder */\n      0x03\n      0x00\n      swap1\n      sload\n      swap1\n      0x0100\n      exp\n      swap1\n      div\n      0xffffffffffffffffffffffffffffffffffffffff\n      and\n        /* \"SmartAuctionEthKipu_flattened.sol\":26033:26063  currentBidder == highestBidder */\n      0xffffffffffffffffffffffffffffffffffffffff\n      and\n        /* \"SmartAuctionEthKipu_flattened.sol\":26033:26046  currentBidder */\n      dup6\n        /* \"SmartAuctionEthKipu_flattened.sol\":26033:26063  currentBidder == highestBidder */\n      0xffffffffffffffffffffffffffffffffffffffff\n      and\n      sub\n        /* \"SmartAuctionEthKipu_flattened.sol\":26029:26073  if (currentBidder == highestBidder) continue */\n      iszero\n        /* \"SmartAuctionEthKipu_flattened.sol\":26065:26073  continue */\n      tag_325\n        /* \"SmartAuctionEthKipu_flattened.sol\":26029:26073  if (currentBidder == highestBidder) continue */\n      jumpi\n        /* \"SmartAuctionEthKipu_flattened.sol\":26117:26125  deposits */\n      0x09\n        /* \"SmartAuctionEthKipu_flattened.sol\":26117:26140  deposits[currentBidder] */\n      0x00\n        /* \"SmartAuctionEthKipu_flattened.sol\":26126:26139  currentBidder */\n      dup7\n        /* \"SmartAuctionEthKipu_flattened.sol\":26117:26140  deposits[currentBidder] */\n      0xffffffffffffffffffffffffffffffffffffffff\n      and\n      0xffffffffffffffffffffffffffffffffffffffff\n      and\n      dup2\n      mstore\n      0x20\n      add\n      swap1\n      dup2\n      mstore\n      0x20\n      add\n      0x00\n      keccak256\n      sload\n        /* \"SmartAuctionEthKipu_flattened.sol\":26100:26140  currentDeposit = deposits[currentBidder] */\n      swap4\n      pop\n        /* \"SmartAuctionEthKipu_flattened.sol\":26176:26177  0 */\n      0x00\n        /* \"SmartAuctionEthKipu_flattened.sol\":26158:26172  currentDeposit */\n      dup5\n        /* \"SmartAuctionEthKipu_flattened.sol\":26158:26177  currentDeposit == 0 */\n      sub\n        /* \"SmartAuctionEthKipu_flattened.sol\":26154:26187  if (currentDeposit == 0) continue */\n      iszero\n        /* \"SmartAuctionEthKipu_flattened.sol\":26179:26187  continue */\n      tag_325\n        /* \"SmartAuctionEthKipu_flattened.sol\":26154:26187  if (currentDeposit == 0) continue */\n      jumpi\n        /* \"SmartAuctionEthKipu_flattened.sol\":26301:26304  100 */\n      0x64\n        /* \"SmartAuctionEthKipu_flattened.sol\":18654:18655  2 */\n      0x02\n        /* \"SmartAuctionEthKipu_flattened.sol\":26262:26276  currentDeposit */\n      dup6\n        /* \"SmartAuctionEthKipu_flattened.sol\":26262:26297  currentDeposit * REFUND_FEE_PERCENT */\n      tag_332\n      swap2\n      swap1\n      tag_215\n      jump\t// in\n    tag_332:\n        /* \"SmartAuctionEthKipu_flattened.sol\":26261:26304  (currentDeposit * REFUND_FEE_PERCENT) / 100 */\n      tag_333\n      swap2\n      swap1\n      tag_217\n      jump\t// in\n    tag_333:\n        /* \"SmartAuctionEthKipu_flattened.sol\":26255:26304  fee = (currentDeposit * REFUND_FEE_PERCENT) / 100 */\n      swap3\n      pop\n        /* \"SmartAuctionEthKipu_flattened.sol\":26344:26347  fee */\n      dup3\n        /* \"SmartAuctionEthKipu_flattened.sol\":26327:26341  currentDeposit */\n      dup5\n        /* \"SmartAuctionEthKipu_flattened.sol\":26327:26347  currentDeposit - fee */\n      tag_334\n      swap2\n      swap1\n      tag_225\n      jump\t// in\n    tag_334:\n        /* \"SmartAuctionEthKipu_flattened.sol\":26318:26347  refund = currentDeposit - fee */\n      swap2\n      pop\n        /* \"SmartAuctionEthKipu_flattened.sol\":26446:26447  0 */\n      0x00\n        /* \"SmartAuctionEthKipu_flattened.sol\":26420:26428  deposits */\n      0x09\n        /* \"SmartAuctionEthKipu_flattened.sol\":26420:26443  deposits[currentBidder] */\n      0x00\n        /* \"SmartAuctionEthKipu_flattened.sol\":26429:26442  currentBidder */\n      dup8\n        /* \"SmartAuctionEthKipu_flattened.sol\":26420:26443  deposits[currentBidder] */\n      0xffffffffffffffffffffffffffffffffffffffff\n      and\n      0xffffffffffffffffffffffffffffffffffffffff\n      and\n      dup2\n      mstore\n      0x20\n      add\n      swap1\n      dup2\n      mstore\n      0x20\n      add\n      0x00\n      keccak256\n        /* \"SmartAuctionEthKipu_flattened.sol\":26420:26447  deposits[currentBidder] = 0 */\n      dup2\n      swap1\n      sstore\n      pop\n        /* \"SmartAuctionEthKipu_flattened.sol\":26478:26481  fee */\n      dup3\n        /* \"SmartAuctionEthKipu_flattened.sol\":26461:26474  collectedFees */\n      0x0b\n      0x00\n        /* \"SmartAuctionEthKipu_flattened.sol\":26461:26481  collectedFees += fee */\n      dup3\n      dup3\n      sload\n      tag_335\n      swap2\n      swap1\n      tag_187\n      jump\t// in\n    tag_335:\n      swap3\n      pop\n      pop\n      dup2\n      swap1\n      sstore\n      pop\n        /* \"SmartAuctionEthKipu_flattened.sol\":26539:26584  _safeTransfer(payable(currentBidder), refund) */\n      tag_336\n        /* \"SmartAuctionEthKipu_flattened.sol\":26561:26574  currentBidder */\n      dup6\n        /* \"SmartAuctionEthKipu_flattened.sol\":26577:26583  refund */\n      dup4\n        /* \"SmartAuctionEthKipu_flattened.sol\":26539:26552  _safeTransfer */\n      tag_189\n        /* \"SmartAuctionEthKipu_flattened.sol\":26539:26584  _safeTransfer(payable(currentBidder), refund) */\n      jump\t// in\n    tag_336:\n        /* \"SmartAuctionEthKipu_flattened.sol\":26614:26627  currentBidder */\n      dup5\n        /* \"SmartAuctionEthKipu_flattened.sol\":26603:26636  Withdrawal(currentBidder, refund) */\n      0xffffffffffffffffffffffffffffffffffffffff\n      and\n      0x7fcf532c15f0a6db0bd6d0e038bea71d30d808c7d98cb3bf7268a95bf5081b65\n        /* \"SmartAuctionEthKipu_flattened.sol\":26629:26635  refund */\n      dup4\n        /* \"SmartAuctionEthKipu_flattened.sol\":26603:26636  Withdrawal(currentBidder, refund) */\n      mload(0x40)\n      tag_337\n      swap2\n      swap1\n      tag_67\n      jump\t// in\n    tag_337:\n      mload(0x40)\n      dup1\n      swap2\n      sub\n      swap1\n      log2\n        /* \"SmartAuctionEthKipu_flattened.sol\":25872:26647  for (uint i = 0; i < offersLength; i++) {... */\n    tag_325:\n        /* \"SmartAuctionEthKipu_flattened.sol\":25907:25910  i++ */\n      dup1\n      dup1\n      0x01\n      add\n      swap2\n      pop\n      pop\n        /* \"SmartAuctionEthKipu_flattened.sol\":25872:26647  for (uint i = 0; i < offersLength; i++) {... */\n      jump(tag_323)\n    tag_324:\n      pop\n        /* \"SmartAuctionEthKipu_flattened.sol\":25596:26653  {... */\n      pop\n      pop\n      pop\n      pop\n      pop\n        /* \"SmartAuctionEthKipu_flattened.sol\":2572:2592  _nonReentrantAfter() */\n      tag_338\n        /* \"SmartAuctionEthKipu_flattened.sol\":2572:2590  _nonReentrantAfter */\n      tag_192\n        /* \"SmartAuctionEthKipu_flattened.sol\":2572:2592  _nonReentrantAfter() */\n      jump\t// in\n    tag_338:\n        /* \"SmartAuctionEthKipu_flattened.sol\":25522:26653  function distributeRefunds() external onlyOwner onlyAfterEnd nonReentrant {... */\n      jump\t// out\n        /* \"SmartAuctionEthKipu_flattened.sol\":18988:19028  mapping(address => uint) public deposits */\n    tag_163:\n      mstore(0x20, 0x09)\n      dup1\n      0x00\n      mstore\n      keccak256(0x00, 0x40)\n      0x00\n      swap2\n      pop\n      swap1\n      pop\n      sload\n      dup2\n      jump\t// out\n        /* \"SmartAuctionEthKipu_flattened.sol\":24991:25370  function endAuction() public onlyAfterEnd nonReentrant {... */\n    tag_167:\n        /* \"SmartAuctionEthKipu_flattened.sol\":20307:20314  endTime */\n      sload(0x06)\n        /* \"SmartAuctionEthKipu_flattened.sol\":20288:20303  block.timestamp */\n      timestamp\n        /* \"SmartAuctionEthKipu_flattened.sol\":20288:20314  block.timestamp >= endTime */\n      lt\n      iszero\n        /* \"SmartAuctionEthKipu_flattened.sol\":20288:20323  block.timestamp >= endTime || ended */\n      dup1\n      tag_340\n      jumpi\n      pop\n        /* \"SmartAuctionEthKipu_flattened.sol\":20318:20323  ended */\n      0x07\n      0x00\n      swap1\n      sload\n      swap1\n      0x0100\n      exp\n      swap1\n      div\n      0xff\n      and\n        /* \"SmartAuctionEthKipu_flattened.sol\":20288:20323  block.timestamp >= endTime || ended */\n    tag_340:\n        /* \"SmartAuctionEthKipu_flattened.sol\":20280:20337  require(block.timestamp >= endTime || ended, \"Not ended\") */\n      tag_341\n      jumpi\n      mload(0x40)\n      0x08c379a000000000000000000000000000000000000000000000000000000000\n      dup2\n      mstore\n      0x04\n      add\n      tag_342\n      swap1\n      tag_172\n      jump\t// in\n    tag_342:\n      mload(0x40)\n      dup1\n      swap2\n      sub\n      swap1\n      revert\n    tag_341:\n        /* \"SmartAuctionEthKipu_flattened.sol\":2530:2551  _nonReentrantBefore() */\n      tag_344\n        /* \"SmartAuctionEthKipu_flattened.sol\":2530:2549  _nonReentrantBefore */\n      tag_179\n        /* \"SmartAuctionEthKipu_flattened.sol\":2530:2551  _nonReentrantBefore() */\n      jump\t// in\n    tag_344:\n        /* \"SmartAuctionEthKipu_flattened.sol\":25065:25070  ended */\n      0x07\n      0x00\n      swap1\n      sload\n      swap1\n      0x0100\n      exp\n      swap1\n      div\n      0xff\n      and\n        /* \"SmartAuctionEthKipu_flattened.sol\":25064:25070  !ended */\n      iszero\n        /* \"SmartAuctionEthKipu_flattened.sol\":25056:25088  require(!ended, \"Already ended\") */\n      tag_346\n      jumpi\n      mload(0x40)\n      0x08c379a000000000000000000000000000000000000000000000000000000000\n      dup2\n      mstore\n      0x04\n      add\n      tag_347\n      swap1\n      tag_348\n      jump\t// in\n    tag_347:\n      mload(0x40)\n      dup1\n      swap2\n      sub\n      swap1\n      revert\n    tag_346:\n        /* \"SmartAuctionEthKipu_flattened.sol\":25115:25119  true */\n      0x01\n        /* \"SmartAuctionEthKipu_flattened.sol\":25107:25112  ended */\n      0x07\n      0x00\n        /* \"SmartAuctionEthKipu_flattened.sol\":25107:25119  ended = true */\n      0x0100\n      exp\n      dup2\n      sload\n      dup2\n      0xff\n      mul\n      not\n      and\n      swap1\n      dup4\n      iszero\n      iszero\n      mul\n      or\n      swap1\n      sstore\n      pop\n        /* \"SmartAuctionEthKipu_flattened.sol\":25147:25160  highestBidder */\n      0x03\n      0x00\n      swap1\n      sload\n      swap1\n      0x0100\n      exp\n      swap1\n      div\n      0xffffffffffffffffffffffffffffffffffffffff\n      and\n        /* \"SmartAuctionEthKipu_flattened.sol\":25134:25173  AuctionEnded(highestBidder, highestBid) */\n      0xffffffffffffffffffffffffffffffffffffffff\n      and\n      0xdaec4582d5d9595688c8c98545fdd1c696d41c6aeaeb636737e84ed2f5c00eda\n        /* \"SmartAuctionEthKipu_flattened.sol\":25162:25172  highestBid */\n      sload(0x04)\n        /* \"SmartAuctionEthKipu_flattened.sol\":25134:25173  AuctionEnded(highestBidder, highestBid) */\n      mload(0x40)\n      tag_349\n      swap2\n      swap1\n      tag_67\n      jump\t// in\n    tag_349:\n      mload(0x40)\n      dup1\n      swap2\n      sub\n      swap1\n      log2\n        /* \"SmartAuctionEthKipu_flattened.sol\":25201:25202  0 */\n      0x00\n        /* \"SmartAuctionEthKipu_flattened.sol\":25188:25198  highestBid */\n      sload(0x04)\n        /* \"SmartAuctionEthKipu_flattened.sol\":25188:25202  highestBid > 0 */\n      gt\n        /* \"SmartAuctionEthKipu_flattened.sol\":25184:25364  if (highestBid > 0) {... */\n      iszero\n      tag_350\n      jumpi\n        /* \"SmartAuctionEthKipu_flattened.sol\":25218:25236  uint winningAmount */\n      0x00\n        /* \"SmartAuctionEthKipu_flattened.sol\":25239:25247  deposits */\n      0x09\n        /* \"SmartAuctionEthKipu_flattened.sol\":25239:25262  deposits[highestBidder] */\n      0x00\n        /* \"SmartAuctionEthKipu_flattened.sol\":25248:25261  highestBidder */\n      0x03\n      0x00\n      swap1\n      sload\n      swap1\n      0x0100\n      exp\n      swap1\n      div\n      0xffffffffffffffffffffffffffffffffffffffff\n      and\n        /* \"SmartAuctionEthKipu_flattened.sol\":25239:25262  deposits[highestBidder] */\n      0xffffffffffffffffffffffffffffffffffffffff\n      and\n      0xffffffffffffffffffffffffffffffffffffffff\n      and\n      dup2\n      mstore\n      0x20\n      add\n      swap1\n      dup2\n      mstore\n      0x20\n      add\n      0x00\n      keccak256\n      sload\n        /* \"SmartAuctionEthKipu_flattened.sol\":25218:25262  uint winningAmount = deposits[highestBidder] */\n      swap1\n      pop\n        /* \"SmartAuctionEthKipu_flattened.sol\":25302:25303  0 */\n      0x00\n        /* \"SmartAuctionEthKipu_flattened.sol\":25276:25284  deposits */\n      0x09\n        /* \"SmartAuctionEthKipu_flattened.sol\":25276:25299  deposits[highestBidder] */\n      0x00\n        /* \"SmartAuctionEthKipu_flattened.sol\":25285:25298  highestBidder */\n      0x03\n      0x00\n      swap1\n      sload\n      swap1\n      0x0100\n      exp\n      swap1\n      div\n      0xffffffffffffffffffffffffffffffffffffffff\n      and\n        /* \"SmartAuctionEthKipu_flattened.sol\":25276:25299  deposits[highestBidder] */\n      0xffffffffffffffffffffffffffffffffffffffff\n      and\n      0xffffffffffffffffffffffffffffffffffffffff\n      and\n      dup2\n      mstore\n      0x20\n      add\n      swap1\n      dup2\n      mstore\n      0x20\n      add\n      0x00\n      keccak256\n        /* \"SmartAuctionEthKipu_flattened.sol\":25276:25303  deposits[highestBidder] = 0 */\n      dup2\n      swap1\n      sstore\n      pop\n        /* \"SmartAuctionEthKipu_flattened.sol\":25317:25353  _safeTransfer(seller, winningAmount) */\n      tag_351\n        /* \"SmartAuctionEthKipu_flattened.sol\":25331:25337  seller */\n      0x02\n      0x00\n      swap1\n      sload\n      swap1\n      0x0100\n      exp\n      swap1\n      div\n      0xffffffffffffffffffffffffffffffffffffffff\n      and\n        /* \"SmartAuctionEthKipu_flattened.sol\":25339:25352  winningAmount */\n      dup3\n        /* \"SmartAuctionEthKipu_flattened.sol\":25317:25330  _safeTransfer */\n      tag_189\n        /* \"SmartAuctionEthKipu_flattened.sol\":25317:25353  _safeTransfer(seller, winningAmount) */\n      jump\t// in\n    tag_351:\n        /* \"SmartAuctionEthKipu_flattened.sol\":25204:25364  {... */\n      pop\n        /* \"SmartAuctionEthKipu_flattened.sol\":25184:25364  if (highestBid > 0) {... */\n    tag_350:\n        /* \"SmartAuctionEthKipu_flattened.sol\":2572:2592  _nonReentrantAfter() */\n      tag_352\n        /* \"SmartAuctionEthKipu_flattened.sol\":2572:2590  _nonReentrantAfter */\n      tag_192\n        /* \"SmartAuctionEthKipu_flattened.sol\":2572:2592  _nonReentrantAfter() */\n      jump\t// in\n    tag_352:\n        /* \"SmartAuctionEthKipu_flattened.sol\":24991:25370  function endAuction() public onlyAfterEnd nonReentrant {... */\n      jump\t// out\n        /* \"SmartAuctionEthKipu_flattened.sol\":2605:2912  function _nonReentrantBefore() private {... */\n    tag_179:\n        /* \"SmartAuctionEthKipu_flattened.sol\":1929:1930  2 */\n      0x02\n        /* \"SmartAuctionEthKipu_flattened.sol\":2732:2739  _status */\n      sload(0x00)\n        /* \"SmartAuctionEthKipu_flattened.sol\":2732:2750  _status == ENTERED */\n      sub\n        /* \"SmartAuctionEthKipu_flattened.sol\":2728:2814  if (_status == ENTERED) {... */\n      tag_354\n      jumpi\n        /* \"SmartAuctionEthKipu_flattened.sol\":2773:2803  ReentrancyGuardReentrantCall() */\n      mload(0x40)\n      0x3ee5aeb500000000000000000000000000000000000000000000000000000000\n      dup2\n      mstore\n      0x04\n      add\n      mload(0x40)\n      dup1\n      swap2\n      sub\n      swap1\n      revert\n        /* \"SmartAuctionEthKipu_flattened.sol\":2728:2814  if (_status == ENTERED) {... */\n    tag_354:\n        /* \"SmartAuctionEthKipu_flattened.sol\":1929:1930  2 */\n      0x02\n        /* \"SmartAuctionEthKipu_flattened.sol\":2888:2895  _status */\n      0x00\n        /* \"SmartAuctionEthKipu_flattened.sol\":2888:2905  _status = ENTERED */\n      dup2\n      swap1\n      sstore\n      pop\n        /* \"SmartAuctionEthKipu_flattened.sol\":2605:2912  function _nonReentrantBefore() private {... */\n      jump\t// out\n        /* \"SmartAuctionEthKipu_flattened.sol\":21752:21922  function _calculateFee(uint amount) private pure returns (uint fee, uint refund) {... */\n    tag_185:\n        /* \"SmartAuctionEthKipu_flattened.sol\":21810:21818  uint fee */\n      0x00\n        /* \"SmartAuctionEthKipu_flattened.sol\":21820:21831  uint refund */\n      0x00\n        /* \"SmartAuctionEthKipu_flattened.sol\":21881:21884  100 */\n      0x64\n        /* \"SmartAuctionEthKipu_flattened.sol\":18654:18655  2 */\n      0x02\n        /* \"SmartAuctionEthKipu_flattened.sol\":21850:21856  amount */\n      dup5\n        /* \"SmartAuctionEthKipu_flattened.sol\":21850:21877  amount * REFUND_FEE_PERCENT */\n      tag_356\n      swap2\n      swap1\n      tag_215\n      jump\t// in\n    tag_356:\n        /* \"SmartAuctionEthKipu_flattened.sol\":21849:21884  (amount * REFUND_FEE_PERCENT) / 100 */\n      tag_357\n      swap2\n      swap1\n      tag_217\n      jump\t// in\n    tag_357:\n        /* \"SmartAuctionEthKipu_flattened.sol\":21843:21884  fee = (amount * REFUND_FEE_PERCENT) / 100 */\n      swap2\n      pop\n        /* \"SmartAuctionEthKipu_flattened.sol\":21912:21915  fee */\n      dup2\n        /* \"SmartAuctionEthKipu_flattened.sol\":21903:21909  amount */\n      dup4\n        /* \"SmartAuctionEthKipu_flattened.sol\":21903:21915  amount - fee */\n      tag_358\n      swap2\n      swap1\n      tag_225\n      jump\t// in\n    tag_358:\n        /* \"SmartAuctionEthKipu_flattened.sol\":21894:21915  refund = amount - fee */\n      swap1\n      pop\n        /* \"SmartAuctionEthKipu_flattened.sol\":21752:21922  function _calculateFee(uint amount) private pure returns (uint fee, uint refund) {... */\n      swap2\n      pop\n      swap2\n      jump\t// out\n        /* \"SmartAuctionEthKipu_flattened.sol\":21483:21584  function _safeTransfer(address payable to, uint amount) private {... */\n    tag_189:\n        /* \"SmartAuctionEthKipu_flattened.sol\":21557:21577  to.sendValue(amount) */\n      tag_360\n        /* \"SmartAuctionEthKipu_flattened.sol\":21570:21576  amount */\n      dup2\n        /* \"SmartAuctionEthKipu_flattened.sol\":21557:21559  to */\n      dup4\n        /* \"SmartAuctionEthKipu_flattened.sol\":21557:21569  to.sendValue */\n      0xffffffffffffffffffffffffffffffffffffffff\n      and\n      tag_361\n      swap1\n        /* \"SmartAuctionEthKipu_flattened.sol\":21557:21577  to.sendValue(amount) */\n      swap2\n      swap1\n      0xffffffff\n      and\n      jump\t// in\n    tag_360:\n        /* \"SmartAuctionEthKipu_flattened.sol\":21483:21584  function _safeTransfer(address payable to, uint amount) private {... */\n      pop\n      pop\n      jump\t// out\n        /* \"SmartAuctionEthKipu_flattened.sol\":2918:3126  function _nonReentrantAfter() private {... */\n    tag_192:\n        /* \"SmartAuctionEthKipu_flattened.sol\":1887:1888  1 */\n      0x01\n        /* \"SmartAuctionEthKipu_flattened.sol\":3098:3105  _status */\n      0x00\n        /* \"SmartAuctionEthKipu_flattened.sol\":3098:3119  _status = NOT_ENTERED */\n      dup2\n      swap1\n      sstore\n      pop\n        /* \"SmartAuctionEthKipu_flattened.sol\":2918:3126  function _nonReentrantAfter() private {... */\n      jump\t// out\n        /* \"SmartAuctionEthKipu_flattened.sol\":9333:9461  function _requireNotPaused() internal view virtual {... */\n    tag_207:\n        /* \"SmartAuctionEthKipu_flattened.sol\":9398:9406  paused() */\n      tag_364\n        /* \"SmartAuctionEthKipu_flattened.sol\":9398:9404  paused */\n      tag_92\n        /* \"SmartAuctionEthKipu_flattened.sol\":9398:9406  paused() */\n      jump\t// in\n    tag_364:\n        /* \"SmartAuctionEthKipu_flattened.sol\":9394:9455  if (paused()) {... */\n      iszero\n      tag_365\n      jumpi\n        /* \"SmartAuctionEthKipu_flattened.sol\":9429:9444  EnforcedPause() */\n      mload(0x40)\n      0xd93c066500000000000000000000000000000000000000000000000000000000\n      dup2\n      mstore\n      0x04\n      add\n      mload(0x40)\n      dup1\n      swap2\n      sub\n      swap1\n      revert\n        /* \"SmartAuctionEthKipu_flattened.sol\":9394:9455  if (paused()) {... */\n    tag_365:\n        /* \"SmartAuctionEthKipu_flattened.sol\":9333:9461  function _requireNotPaused() internal view virtual {... */\n      jump\t// out\n        /* \"SmartAuctionEthKipu_flattened.sol\":6172:6334  function _checkOwner() internal view virtual {... */\n    tag_250:\n        /* \"SmartAuctionEthKipu_flattened.sol\":6242:6254  _msgSender() */\n      tag_367\n        /* \"SmartAuctionEthKipu_flattened.sol\":6242:6252  _msgSender */\n      tag_368\n        /* \"SmartAuctionEthKipu_flattened.sol\":6242:6254  _msgSender() */\n      jump\t// in\n    tag_367:\n        /* \"SmartAuctionEthKipu_flattened.sol\":6231:6254  owner() != _msgSender() */\n      0xffffffffffffffffffffffffffffffffffffffff\n      and\n        /* \"SmartAuctionEthKipu_flattened.sol\":6231:6238  owner() */\n      tag_369\n        /* \"SmartAuctionEthKipu_flattened.sol\":6231:6236  owner */\n      tag_121\n        /* \"SmartAuctionEthKipu_flattened.sol\":6231:6238  owner() */\n      jump\t// in\n    tag_369:\n        /* \"SmartAuctionEthKipu_flattened.sol\":6231:6254  owner() != _msgSender() */\n      0xffffffffffffffffffffffffffffffffffffffff\n      and\n      eq\n        /* \"SmartAuctionEthKipu_flattened.sol\":6227:6328  if (owner() != _msgSender()) {... */\n      tag_370\n      jumpi\n        /* \"SmartAuctionEthKipu_flattened.sol\":6304:6316  _msgSender() */\n      tag_371\n        /* \"SmartAuctionEthKipu_flattened.sol\":6304:6314  _msgSender */\n      tag_368\n        /* \"SmartAuctionEthKipu_flattened.sol\":6304:6316  _msgSender() */\n      jump\t// in\n    tag_371:\n        /* \"SmartAuctionEthKipu_flattened.sol\":6277:6317  OwnableUnauthorizedAccount(_msgSender()) */\n      mload(0x40)\n      0x118cdaa700000000000000000000000000000000000000000000000000000000\n      dup2\n      mstore\n      0x04\n      add\n      tag_372\n      swap2\n      swap1\n      tag_123\n      jump\t// in\n    tag_372:\n      mload(0x40)\n      dup1\n      swap2\n      sub\n      swap1\n      revert\n        /* \"SmartAuctionEthKipu_flattened.sol\":6227:6328  if (owner() != _msgSender()) {... */\n    tag_370:\n        /* \"SmartAuctionEthKipu_flattened.sol\":6172:6334  function _checkOwner() internal view virtual {... */\n      jump\t// out\n        /* \"SmartAuctionEthKipu_flattened.sol\":10041:10158  function _unpause() internal virtual whenPaused {... */\n    tag_253:\n        /* \"SmartAuctionEthKipu_flattened.sol\":9052:9068  _requirePaused() */\n      tag_374\n        /* \"SmartAuctionEthKipu_flattened.sol\":9052:9066  _requirePaused */\n      tag_375\n        /* \"SmartAuctionEthKipu_flattened.sol\":9052:9068  _requirePaused() */\n      jump\t// in\n    tag_374:\n        /* \"SmartAuctionEthKipu_flattened.sol\":10109:10114  false */\n      0x00\n        /* \"SmartAuctionEthKipu_flattened.sol\":10099:10106  _paused */\n      0x01\n      0x14\n        /* \"SmartAuctionEthKipu_flattened.sol\":10099:10114  _paused = false */\n      0x0100\n      exp\n      dup2\n      sload\n      dup2\n      0xff\n      mul\n      not\n      and\n      swap1\n      dup4\n      iszero\n      iszero\n      mul\n      or\n      swap1\n      sstore\n      pop\n        /* \"SmartAuctionEthKipu_flattened.sol\":10129:10151  Unpaused(_msgSender()) */\n      0x5db9ee0a495bf2e6ff9c91a7834c1ba4fdd244a5e8aa4e537bd38aeae4b073aa\n        /* \"SmartAuctionEthKipu_flattened.sol\":10138:10150  _msgSender() */\n      tag_377\n        /* \"SmartAuctionEthKipu_flattened.sol\":10138:10148  _msgSender */\n      tag_368\n        /* \"SmartAuctionEthKipu_flattened.sol\":10138:10150  _msgSender() */\n      jump\t// in\n    tag_377:\n        /* \"SmartAuctionEthKipu_flattened.sol\":10129:10151  Unpaused(_msgSender()) */\n      mload(0x40)\n      tag_378\n      swap2\n      swap1\n      tag_123\n      jump\t// in\n    tag_378:\n      mload(0x40)\n      dup1\n      swap2\n      sub\n      swap1\n      log1\n        /* \"SmartAuctionEthKipu_flattened.sol\":10041:10158  function _unpause() internal virtual whenPaused {... */\n      jump\t// out\n        /* \"SmartAuctionEthKipu_flattened.sol\":7288:7475  function _transferOwnership(address newOwner) internal virtual {... */\n    tag_275:\n        /* \"SmartAuctionEthKipu_flattened.sol\":7361:7377  address oldOwner */\n      0x00\n        /* \"SmartAuctionEthKipu_flattened.sol\":7380:7386  _owner */\n      0x01\n      0x00\n      swap1\n      sload\n      swap1\n      0x0100\n      exp\n      swap1\n      div\n      0xffffffffffffffffffffffffffffffffffffffff\n      and\n        /* \"SmartAuctionEthKipu_flattened.sol\":7361:7386  address oldOwner = _owner */\n      swap1\n      pop\n        /* \"SmartAuctionEthKipu_flattened.sol\":7405:7413  newOwner */\n      dup2\n        /* \"SmartAuctionEthKipu_flattened.sol\":7396:7402  _owner */\n      0x01\n      0x00\n        /* \"SmartAuctionEthKipu_flattened.sol\":7396:7413  _owner = newOwner */\n      0x0100\n      exp\n      dup2\n      sload\n      dup2\n      0xffffffffffffffffffffffffffffffffffffffff\n      mul\n      not\n      and\n      swap1\n      dup4\n      0xffffffffffffffffffffffffffffffffffffffff\n      and\n      mul\n      or\n      swap1\n      sstore\n      pop\n        /* \"SmartAuctionEthKipu_flattened.sol\":7459:7467  newOwner */\n      dup2\n        /* \"SmartAuctionEthKipu_flattened.sol\":7428:7468  OwnershipTransferred(oldOwner, newOwner) */\n      0xffffffffffffffffffffffffffffffffffffffff\n      and\n        /* \"SmartAuctionEthKipu_flattened.sol\":7449:7457  oldOwner */\n      dup2\n        /* \"SmartAuctionEthKipu_flattened.sol\":7428:7468  OwnershipTransferred(oldOwner, newOwner) */\n      0xffffffffffffffffffffffffffffffffffffffff\n      and\n      0x8be0079c531659141344cd1fd0a4f28419497f9722a3daafe3b4186f6b6457e0\n      mload(0x40)\n      mload(0x40)\n      dup1\n      swap2\n      sub\n      swap1\n      log3\n        /* \"SmartAuctionEthKipu_flattened.sol\":7351:7475  {... */\n      pop\n        /* \"SmartAuctionEthKipu_flattened.sol\":7288:7475  function _transferOwnership(address newOwner) internal virtual {... */\n      pop\n      jump\t// out\n        /* \"SmartAuctionEthKipu_flattened.sol\":9794:9909  function _pause() internal virtual whenNotPaused {... */\n    tag_280:\n        /* \"SmartAuctionEthKipu_flattened.sol\":8805:8824  _requireNotPaused() */\n      tag_381\n        /* \"SmartAuctionEthKipu_flattened.sol\":8805:8822  _requireNotPaused */\n      tag_207\n        /* \"SmartAuctionEthKipu_flattened.sol\":8805:8824  _requireNotPaused() */\n      jump\t// in\n    tag_381:\n        /* \"SmartAuctionEthKipu_flattened.sol\":9863:9867  true */\n      0x01\n        /* \"SmartAuctionEthKipu_flattened.sol\":9853:9860  _paused */\n      dup1\n      0x14\n        /* \"SmartAuctionEthKipu_flattened.sol\":9853:9867  _paused = true */\n      0x0100\n      exp\n      dup2\n      sload\n      dup2\n      0xff\n      mul\n      not\n      and\n      swap1\n      dup4\n      iszero\n      iszero\n      mul\n      or\n      swap1\n      sstore\n      pop\n        /* \"SmartAuctionEthKipu_flattened.sol\":9882:9902  Paused(_msgSender()) */\n      0x62e78cea01bee320cd4e420270b5ea74000d11b0c9f74754ebdbfc544b05a258\n        /* \"SmartAuctionEthKipu_flattened.sol\":9889:9901  _msgSender() */\n      tag_383\n        /* \"SmartAuctionEthKipu_flattened.sol\":9889:9899  _msgSender */\n      tag_368\n        /* \"SmartAuctionEthKipu_flattened.sol\":9889:9901  _msgSender() */\n      jump\t// in\n    tag_383:\n        /* \"SmartAuctionEthKipu_flattened.sol\":9882:9902  Paused(_msgSender()) */\n      mload(0x40)\n      tag_384\n      swap2\n      swap1\n      tag_123\n      jump\t// in\n    tag_384:\n      mload(0x40)\n      dup1\n      swap2\n      sub\n      swap1\n      log1\n        /* \"SmartAuctionEthKipu_flattened.sol\":9794:9909  function _pause() internal virtual whenNotPaused {... */\n      jump\t// out\n        /* \"SmartAuctionEthKipu_flattened.sol\":12353:12718  function sendValue(address payable recipient, uint256 amount) internal {... */\n    tag_361:\n        /* \"SmartAuctionEthKipu_flattened.sol\":12462:12468  amount */\n      dup1\n        /* \"SmartAuctionEthKipu_flattened.sol\":12438:12459  address(this).balance */\n      selfbalance\n        /* \"SmartAuctionEthKipu_flattened.sol\":12438:12468  address(this).balance < amount */\n      lt\n        /* \"SmartAuctionEthKipu_flattened.sol\":12434:12559  if (address(this).balance < amount) {... */\n      iszero\n      tag_386\n      jumpi\n        /* \"SmartAuctionEthKipu_flattened.sol\":12518:12539  address(this).balance */\n      selfbalance\n        /* \"SmartAuctionEthKipu_flattened.sol\":12541:12547  amount */\n      dup2\n        /* \"SmartAuctionEthKipu_flattened.sol\":12491:12548  Errors.InsufficientBalance(address(this).balance, amount) */\n      mload(0x40)\n      0xcf47918100000000000000000000000000000000000000000000000000000000\n      dup2\n      mstore\n      0x04\n      add\n      tag_387\n      swap3\n      swap2\n      swap1\n      tag_388\n      jump\t// in\n    tag_387:\n      mload(0x40)\n      dup1\n      swap2\n      sub\n      swap1\n      revert\n        /* \"SmartAuctionEthKipu_flattened.sol\":12434:12559  if (address(this).balance < amount) {... */\n    tag_386:\n        /* \"SmartAuctionEthKipu_flattened.sol\":12570:12582  bool success */\n      0x00\n        /* \"SmartAuctionEthKipu_flattened.sol\":12584:12607  bytes memory returndata */\n      0x00\n        /* \"SmartAuctionEthKipu_flattened.sol\":12611:12620  recipient */\n      dup4\n        /* \"SmartAuctionEthKipu_flattened.sol\":12611:12625  recipient.call */\n      0xffffffffffffffffffffffffffffffffffffffff\n      and\n        /* \"SmartAuctionEthKipu_flattened.sol\":12633:12639  amount */\n      dup4\n        /* \"SmartAuctionEthKipu_flattened.sol\":12611:12644  recipient.call{value: amount}(\"\") */\n      mload(0x40)\n      tag_389\n      swap1\n      tag_390\n      jump\t// in\n    tag_389:\n      0x00\n      mload(0x40)\n      dup1\n      dup4\n      sub\n      dup2\n      dup6\n      dup8\n      gas\n      call\n      swap3\n      pop\n      pop\n      pop\n      returndatasize\n      dup1\n      0x00\n      dup2\n      eq\n      tag_393\n      jumpi\n      mload(0x40)\n      swap2\n      pop\n      and(add(returndatasize, 0x3f), not(0x1f))\n      dup3\n      add\n      0x40\n      mstore\n      returndatasize\n      dup3\n      mstore\n      returndatasize\n      0x00\n      0x20\n      dup5\n      add\n      returndatacopy\n      jump(tag_392)\n    tag_393:\n      0x60\n      swap2\n      pop\n    tag_392:\n      pop\n        /* \"SmartAuctionEthKipu_flattened.sol\":12569:12644  (bool success, bytes memory returndata) = recipient.call{value: amount}(\"\") */\n      swap2\n      pop\n      swap2\n      pop\n        /* \"SmartAuctionEthKipu_flattened.sol\":12659:12666  success */\n      dup2\n        /* \"SmartAuctionEthKipu_flattened.sol\":12654:12712  if (!success) {... */\n      tag_394\n      jumpi\n        /* \"SmartAuctionEthKipu_flattened.sol\":12682:12701  _revert(returndata) */\n      tag_395\n        /* \"SmartAuctionEthKipu_flattened.sol\":12690:12700  returndata */\n      dup2\n        /* \"SmartAuctionEthKipu_flattened.sol\":12682:12689  _revert */\n      tag_396\n        /* \"SmartAuctionEthKipu_flattened.sol\":12682:12701  _revert(returndata) */\n      jump\t// in\n    tag_395:\n        /* \"SmartAuctionEthKipu_flattened.sol\":12654:12712  if (!success) {... */\n    tag_394:\n        /* \"SmartAuctionEthKipu_flattened.sol\":12424:12718  {... */\n      pop\n      pop\n        /* \"SmartAuctionEthKipu_flattened.sol\":12353:12718  function sendValue(address payable recipient, uint256 amount) internal {... */\n      pop\n      pop\n      jump\t// out\n        /* \"SmartAuctionEthKipu_flattened.sol\":4092:4188  function _msgSender() internal view virtual returns (address) {... */\n    tag_368:\n        /* \"SmartAuctionEthKipu_flattened.sol\":4145:4152  address */\n      0x00\n        /* \"SmartAuctionEthKipu_flattened.sol\":4171:4181  msg.sender */\n      caller\n        /* \"SmartAuctionEthKipu_flattened.sol\":4164:4181  return msg.sender */\n      swap1\n      pop\n        /* \"SmartAuctionEthKipu_flattened.sol\":4092:4188  function _msgSender() internal view virtual returns (address) {... */\n      swap1\n      jump\t// out\n        /* \"SmartAuctionEthKipu_flattened.sol\":9533:9659  function _requirePaused() internal view virtual {... */\n    tag_375:\n        /* \"SmartAuctionEthKipu_flattened.sol\":9596:9604  paused() */\n      tag_399\n        /* \"SmartAuctionEthKipu_flattened.sol\":9596:9602  paused */\n      tag_92\n        /* \"SmartAuctionEthKipu_flattened.sol\":9596:9604  paused() */\n      jump\t// in\n    tag_399:\n        /* \"SmartAuctionEthKipu_flattened.sol\":9591:9653  if (!paused()) {... */\n      tag_400\n      jumpi\n        /* \"SmartAuctionEthKipu_flattened.sol\":9627:9642  ExpectedPause() */\n      mload(0x40)\n      0x8dfc202b00000000000000000000000000000000000000000000000000000000\n      dup2\n      mstore\n      0x04\n      add\n      mload(0x40)\n      dup1\n      swap2\n      sub\n      swap1\n      revert\n        /* \"SmartAuctionEthKipu_flattened.sol\":9591:9653  if (!paused()) {... */\n    tag_400:\n        /* \"SmartAuctionEthKipu_flattened.sol\":9533:9659  function _requirePaused() internal view virtual {... */\n      jump\t// out\n        /* \"SmartAuctionEthKipu_flattened.sol\":16622:17109  function _revert(bytes memory returndata) private pure {... */\n    tag_396:\n        /* \"SmartAuctionEthKipu_flattened.sol\":16773:16774  0 */\n      0x00\n        /* \"SmartAuctionEthKipu_flattened.sol\":16753:16763  returndata */\n      dup2\n        /* \"SmartAuctionEthKipu_flattened.sol\":16753:16770  returndata.length */\n      mload\n        /* \"SmartAuctionEthKipu_flattened.sol\":16753:16774  returndata.length > 0 */\n      gt\n        /* \"SmartAuctionEthKipu_flattened.sol\":16749:17103  if (returndata.length > 0) {... */\n      iszero\n      tag_402\n      jumpi\n        /* \"SmartAuctionEthKipu_flattened.sol\":16950:16960  returndata */\n      dup1\n        /* \"SmartAuctionEthKipu_flattened.sol\":16944:16961  mload(returndata) */\n      mload\n        /* \"SmartAuctionEthKipu_flattened.sol\":17006:17021  returndata_size */\n      dup1\n        /* \"SmartAuctionEthKipu_flattened.sol\":16993:17003  returndata */\n      dup3\n        /* \"SmartAuctionEthKipu_flattened.sol\":16989:16991  32 */\n      0x20\n        /* \"SmartAuctionEthKipu_flattened.sol\":16985:17004  add(32, returndata) */\n      add\n        /* \"SmartAuctionEthKipu_flattened.sol\":16978:17022  revert(add(32, returndata), returndata_size) */\n      revert\n        /* \"SmartAuctionEthKipu_flattened.sol\":16749:17103  if (returndata.length > 0) {... */\n    tag_402:\n        /* \"SmartAuctionEthKipu_flattened.sol\":17073:17092  Errors.FailedCall() */\n      mload(0x40)\n      0xd6bda27500000000000000000000000000000000000000000000000000000000\n      dup2\n      mstore\n      0x04\n      add\n      mload(0x40)\n      dup1\n      swap2\n      sub\n      swap1\n      revert\n        /* \"#utility.yul\":7:176   */\n    tag_404:\n        /* \"#utility.yul\":91:102   */\n      0x00\n        /* \"#utility.yul\":125:131   */\n      dup3\n        /* \"#utility.yul\":120:123   */\n      dup3\n        /* \"#utility.yul\":113:132   */\n      mstore\n        /* \"#utility.yul\":165:169   */\n      0x20\n        /* \"#utility.yul\":160:163   */\n      dup3\n        /* \"#utility.yul\":156:170   */\n      add\n        /* \"#utility.yul\":141:170   */\n      swap1\n      pop\n        /* \"#utility.yul\":7:176   */\n      swap3\n      swap2\n      pop\n      pop\n      jump\t// out\n        /* \"#utility.yul\":182:341   */\n    tag_405:\n        /* \"#utility.yul\":322:333   */\n      0x5573652062696428290000000000000000000000000000000000000000000000\n        /* \"#utility.yul\":318:319   */\n      0x00\n        /* \"#utility.yul\":310:316   */\n      dup3\n        /* \"#utility.yul\":306:320   */\n      add\n        /* \"#utility.yul\":299:334   */\n      mstore\n        /* \"#utility.yul\":182:341   */\n      pop\n      jump\t// out\n        /* \"#utility.yul\":347:712   */\n    tag_406:\n        /* \"#utility.yul\":489:492   */\n      0x00\n        /* \"#utility.yul\":510:576   */\n      tag_471\n        /* \"#utility.yul\":574:575   */\n      0x09\n        /* \"#utility.yul\":569:572   */\n      dup4\n        /* \"#utility.yul\":510:576   */\n      tag_404\n      jump\t// in\n    tag_471:\n        /* \"#utility.yul\":503:576   */\n      swap2\n      pop\n        /* \"#utility.yul\":585:678   */\n      tag_472\n        /* \"#utility.yul\":674:677   */\n      dup3\n        /* \"#utility.yul\":585:678   */\n      tag_405\n      jump\t// in\n    tag_472:\n        /* \"#utility.yul\":703:705   */\n      0x20\n        /* \"#utility.yul\":698:701   */\n      dup3\n        /* \"#utility.yul\":694:706   */\n      add\n        /* \"#utility.yul\":687:706   */\n      swap1\n      pop\n        /* \"#utility.yul\":347:712   */\n      swap2\n      swap1\n      pop\n      jump\t// out\n        /* \"#utility.yul\":718:1137   */\n    tag_43:\n        /* \"#utility.yul\":884:888   */\n      0x00\n        /* \"#utility.yul\":922:924   */\n      0x20\n        /* \"#utility.yul\":911:920   */\n      dup3\n        /* \"#utility.yul\":907:925   */\n      add\n        /* \"#utility.yul\":899:925   */\n      swap1\n      pop\n        /* \"#utility.yul\":971:980   */\n      dup2\n        /* \"#utility.yul\":965:969   */\n      dup2\n        /* \"#utility.yul\":961:981   */\n      sub\n        /* \"#utility.yul\":957:958   */\n      0x00\n        /* \"#utility.yul\":946:955   */\n      dup4\n        /* \"#utility.yul\":942:959   */\n      add\n        /* \"#utility.yul\":935:982   */\n      mstore\n        /* \"#utility.yul\":999:1130   */\n      tag_474\n        /* \"#utility.yul\":1125:1129   */\n      dup2\n        /* \"#utility.yul\":999:1130   */\n      tag_406\n      jump\t// in\n    tag_474:\n        /* \"#utility.yul\":991:1130   */\n      swap1\n      pop\n        /* \"#utility.yul\":718:1137   */\n      swap2\n      swap1\n      pop\n      jump\t// out\n        /* \"#utility.yul\":1143:1305   */\n    tag_407:\n        /* \"#utility.yul\":1283:1297   */\n      0x496e76616c69642063616c6c0000000000000000000000000000000000000000\n        /* \"#utility.yul\":1279:1280   */\n      0x00\n        /* \"#utility.yul\":1271:1277   */\n      dup3\n        /* \"#utility.yul\":1267:1281   */\n      add\n        /* \"#utility.yul\":1260:1298   */\n      mstore\n        /* \"#utility.yul\":1143:1305   */\n      pop\n      jump\t// out\n        /* \"#utility.yul\":1311:1677   */\n    tag_408:\n        /* \"#utility.yul\":1453:1456   */\n      0x00\n        /* \"#utility.yul\":1474:1541   */\n      tag_477\n        /* \"#utility.yul\":1538:1540   */\n      0x0c\n        /* \"#utility.yul\":1533:1536   */\n      dup4\n        /* \"#utility.yul\":1474:1541   */\n      tag_404\n      jump\t// in\n    tag_477:\n        /* \"#utility.yul\":1467:1541   */\n      swap2\n      pop\n        /* \"#utility.yul\":1550:1643   */\n      tag_478\n        /* \"#utility.yul\":1639:1642   */\n      dup3\n        /* \"#utility.yul\":1550:1643   */\n      tag_407\n      jump\t// in\n    tag_478:\n        /* \"#utility.yul\":1668:1670   */\n      0x20\n        /* \"#utility.yul\":1663:1666   */\n      dup3\n        /* \"#utility.yul\":1659:1671   */\n      add\n        /* \"#utility.yul\":1652:1671   */\n      swap1\n      pop\n        /* \"#utility.yul\":1311:1677   */\n      swap2\n      swap1\n      pop\n      jump\t// out\n        /* \"#utility.yul\":1683:2102   */\n    tag_47:\n        /* \"#utility.yul\":1849:1853   */\n      0x00\n        /* \"#utility.yul\":1887:1889   */\n      0x20\n        /* \"#utility.yul\":1876:1885   */\n      dup3\n        /* \"#utility.yul\":1872:1890   */\n      add\n        /* \"#utility.yul\":1864:1890   */\n      swap1\n      pop\n        /* \"#utility.yul\":1936:1945   */\n      dup2\n        /* \"#utility.yul\":1930:1934   */\n      dup2\n        /* \"#utility.yul\":1926:1946   */\n      sub\n        /* \"#utility.yul\":1922:1923   */\n      0x00\n        /* \"#utility.yul\":1911:1920   */\n      dup4\n        /* \"#utility.yul\":1907:1924   */\n      add\n        /* \"#utility.yul\":1900:1947   */\n      mstore\n        /* \"#utility.yul\":1964:2095   */\n      tag_480\n        /* \"#utility.yul\":2090:2094   */\n      dup2\n        /* \"#utility.yul\":1964:2095   */\n      tag_408\n      jump\t// in\n    tag_480:\n        /* \"#utility.yul\":1956:2095   */\n      swap1\n      pop\n        /* \"#utility.yul\":1683:2102   */\n      swap2\n      swap1\n      pop\n      jump\t// out\n        /* \"#utility.yul\":2108:2234   */\n    tag_409:\n        /* \"#utility.yul\":2145:2152   */\n      0x00\n        /* \"#utility.yul\":2185:2227   */\n      0xffffffffffffffffffffffffffffffffffffffff\n        /* \"#utility.yul\":2178:2183   */\n      dup3\n        /* \"#utility.yul\":2174:2228   */\n      and\n        /* \"#utility.yul\":2163:2228   */\n      swap1\n      pop\n        /* \"#utility.yul\":2108:2234   */\n      swap2\n      swap1\n      pop\n      jump\t// out\n        /* \"#utility.yul\":2240:2344   */\n    tag_410:\n        /* \"#utility.yul\":2285:2292   */\n      0x00\n        /* \"#utility.yul\":2314:2338   */\n      tag_483\n        /* \"#utility.yul\":2332:2337   */\n      dup3\n        /* \"#utility.yul\":2314:2338   */\n      tag_409\n      jump\t// in\n    tag_483:\n        /* \"#utility.yul\":2303:2338   */\n      swap1\n      pop\n        /* \"#utility.yul\":2240:2344   */\n      swap2\n      swap1\n      pop\n      jump\t// out\n        /* \"#utility.yul\":2350:2492   */\n    tag_411:\n        /* \"#utility.yul\":2453:2485   */\n      tag_485\n        /* \"#utility.yul\":2479:2484   */\n      dup2\n        /* \"#utility.yul\":2453:2485   */\n      tag_410\n      jump\t// in\n    tag_485:\n        /* \"#utility.yul\":2448:2451   */\n      dup3\n        /* \"#utility.yul\":2441:2486   */\n      mstore\n        /* \"#utility.yul\":2350:2492   */\n      pop\n      pop\n      jump\t// out\n        /* \"#utility.yul\":2498:2752   */\n    tag_52:\n        /* \"#utility.yul\":2607:2611   */\n      0x00\n        /* \"#utility.yul\":2645:2647   */\n      0x20\n        /* \"#utility.yul\":2634:2643   */\n      dup3\n        /* \"#utility.yul\":2630:2648   */\n      add\n        /* \"#utility.yul\":2622:2648   */\n      swap1\n      pop\n        /* \"#utility.yul\":2658:2745   */\n      tag_487\n        /* \"#utility.yul\":2742:2743   */\n      0x00\n        /* \"#utility.yul\":2731:2740   */\n      dup4\n        /* \"#utility.yul\":2727:2744   */\n      add\n        /* \"#utility.yul\":2718:2724   */\n      dup5\n        /* \"#utility.yul\":2658:2745   */\n      tag_411\n      jump\t// in\n    tag_487:\n        /* \"#utility.yul\":2498:2752   */\n      swap3\n      swap2\n      pop\n      pop\n      jump\t// out\n        /* \"#utility.yul\":2758:2848   */\n    tag_412:\n        /* \"#utility.yul\":2792:2799   */\n      0x00\n        /* \"#utility.yul\":2835:2840   */\n      dup2\n        /* \"#utility.yul\":2828:2841   */\n      iszero\n        /* \"#utility.yul\":2821:2842   */\n      iszero\n        /* \"#utility.yul\":2810:2842   */\n      swap1\n      pop\n        /* \"#utility.yul\":2758:2848   */\n      swap2\n      swap1\n      pop\n      jump\t// out\n        /* \"#utility.yul\":2854:2963   */\n    tag_413:\n        /* \"#utility.yul\":2935:2956   */\n      tag_490\n        /* \"#utility.yul\":2950:2955   */\n      dup2\n        /* \"#utility.yul\":2935:2956   */\n      tag_412\n      jump\t// in\n    tag_490:\n        /* \"#utility.yul\":2930:2933   */\n      dup3\n        /* \"#utility.yul\":2923:2957   */\n      mstore\n        /* \"#utility.yul\":2854:2963   */\n      pop\n      pop\n      jump\t// out\n        /* \"#utility.yul\":2969:3179   */\n    tag_60:\n        /* \"#utility.yul\":3056:3060   */\n      0x00\n        /* \"#utility.yul\":3094:3096   */\n      0x20\n        /* \"#utility.yul\":3083:3092   */\n      dup3\n        /* \"#utility.yul\":3079:3097   */\n      add\n        /* \"#utility.yul\":3071:3097   */\n      swap1\n      pop\n        /* \"#utility.yul\":3107:3172   */\n      tag_492\n        /* \"#utility.yul\":3169:3170   */\n      0x00\n        /* \"#utility.yul\":3158:3167   */\n      dup4\n        /* \"#utility.yul\":3154:3171   */\n      add\n        /* \"#utility.yul\":3145:3151   */\n      dup5\n        /* \"#utility.yul\":3107:3172   */\n      tag_413\n      jump\t// in\n    tag_492:\n        /* \"#utility.yul\":2969:3179   */\n      swap3\n      swap2\n      pop\n      pop\n      jump\t// out\n        /* \"#utility.yul\":3185:3262   */\n    tag_414:\n        /* \"#utility.yul\":3222:3229   */\n      0x00\n        /* \"#utility.yul\":3251:3256   */\n      dup2\n        /* \"#utility.yul\":3240:3256   */\n      swap1\n      pop\n        /* \"#utility.yul\":3185:3262   */\n      swap2\n      swap1\n      pop\n      jump\t// out\n        /* \"#utility.yul\":3268:3386   */\n    tag_415:\n        /* \"#utility.yul\":3355:3379   */\n      tag_495\n        /* \"#utility.yul\":3373:3378   */\n      dup2\n        /* \"#utility.yul\":3355:3379   */\n      tag_414\n      jump\t// in\n    tag_495:\n        /* \"#utility.yul\":3350:3353   */\n      dup3\n        /* \"#utility.yul\":3343:3380   */\n      mstore\n        /* \"#utility.yul\":3268:3386   */\n      pop\n      pop\n      jump\t// out\n        /* \"#utility.yul\":3392:3614   */\n    tag_67:\n        /* \"#utility.yul\":3485:3489   */\n      0x00\n        /* \"#utility.yul\":3523:3525   */\n      0x20\n        /* \"#utility.yul\":3512:3521   */\n      dup3\n        /* \"#utility.yul\":3508:3526   */\n      add\n        /* \"#utility.yul\":3500:3526   */\n      swap1\n      pop\n        /* \"#utility.yul\":3536:3607   */\n      tag_497\n        /* \"#utility.yul\":3604:3605   */\n      0x00\n        /* \"#utility.yul\":3593:3602   */\n      dup4\n        /* \"#utility.yul\":3589:3606   */\n      add\n        /* \"#utility.yul\":3580:3586   */\n      dup5\n        /* \"#utility.yul\":3536:3607   */\n      tag_415\n      jump\t// in\n    tag_497:\n        /* \"#utility.yul\":3392:3614   */\n      swap3\n      swap2\n      pop\n      pop\n      jump\t// out\n        /* \"#utility.yul\":3620:3756   */\n    tag_416:\n        /* \"#utility.yul\":3709:3715   */\n      0x00\n        /* \"#utility.yul\":3743:3748   */\n      dup2\n        /* \"#utility.yul\":3737:3749   */\n      mload\n        /* \"#utility.yul\":3727:3749   */\n      swap1\n      pop\n        /* \"#utility.yul\":3620:3756   */\n      swap2\n      swap1\n      pop\n      jump\t// out\n        /* \"#utility.yul\":3762:3968   */\n    tag_417:\n        /* \"#utility.yul\":3883:3894   */\n      0x00\n        /* \"#utility.yul\":3917:3923   */\n      dup3\n        /* \"#utility.yul\":3912:3915   */\n      dup3\n        /* \"#utility.yul\":3905:3924   */\n      mstore\n        /* \"#utility.yul\":3957:3961   */\n      0x20\n        /* \"#utility.yul\":3952:3955   */\n      dup3\n        /* \"#utility.yul\":3948:3962   */\n      add\n        /* \"#utility.yul\":3933:3962   */\n      swap1\n      pop\n        /* \"#utility.yul\":3762:3968   */\n      swap3\n      swap2\n      pop\n      pop\n      jump\t// out\n        /* \"#utility.yul\":3974:4128   */\n    tag_418:\n        /* \"#utility.yul\":4063:4067   */\n      0x00\n        /* \"#utility.yul\":4086:4089   */\n      dup2\n        /* \"#utility.yul\":4078:4089   */\n      swap1\n      pop\n        /* \"#utility.yul\":4116:4120   */\n      0x20\n        /* \"#utility.yul\":4111:4114   */\n      dup3\n        /* \"#utility.yul\":4107:4121   */\n      add\n        /* \"#utility.yul\":4099:4121   */\n      swap1\n      pop\n        /* \"#utility.yul\":3974:4128   */\n      swap2\n      swap1\n      pop\n      jump\t// out\n        /* \"#utility.yul\":4134:4230   */\n    tag_419:\n        /* \"#utility.yul\":4171:4178   */\n      0x00\n        /* \"#utility.yul\":4200:4224   */\n      tag_502\n        /* \"#utility.yul\":4218:4223   */\n      dup3\n        /* \"#utility.yul\":4200:4224   */\n      tag_409\n      jump\t// in\n    tag_502:\n        /* \"#utility.yul\":4189:4224   */\n      swap1\n      pop\n        /* \"#utility.yul\":4134:4230   */\n      swap2\n      swap1\n      pop\n      jump\t// out\n        /* \"#utility.yul\":4236:4344   */\n    tag_420:\n        /* \"#utility.yul\":4313:4337   */\n      tag_504\n        /* \"#utility.yul\":4331:4336   */\n      dup2\n        /* \"#utility.yul\":4313:4337   */\n      tag_419\n      jump\t// in\n    tag_504:\n        /* \"#utility.yul\":4308:4311   */\n      dup3\n        /* \"#utility.yul\":4301:4338   */\n      mstore\n        /* \"#utility.yul\":4236:4344   */\n      pop\n      pop\n      jump\t// out\n        /* \"#utility.yul\":4350:4458   */\n    tag_421:\n        /* \"#utility.yul\":4427:4451   */\n      tag_506\n        /* \"#utility.yul\":4445:4450   */\n      dup2\n        /* \"#utility.yul\":4427:4451   */\n      tag_414\n      jump\t// in\n    tag_506:\n        /* \"#utility.yul\":4422:4425   */\n      dup3\n        /* \"#utility.yul\":4415:4452   */\n      mstore\n        /* \"#utility.yul\":4350:4458   */\n      pop\n      pop\n      jump\t// out\n        /* \"#utility.yul\":4540:5214   */\n    tag_422:\n        /* \"#utility.yul\":4671:4675   */\n      0x60\n        /* \"#utility.yul\":4666:4669   */\n      dup3\n        /* \"#utility.yul\":4662:4676   */\n      add\n        /* \"#utility.yul\":4760:4764   */\n      0x00\n        /* \"#utility.yul\":4753:4758   */\n      dup3\n        /* \"#utility.yul\":4749:4765   */\n      add\n        /* \"#utility.yul\":4743:4766   */\n      mload\n        /* \"#utility.yul\":4779:4842   */\n      tag_508\n        /* \"#utility.yul\":4836:4840   */\n      0x00\n        /* \"#utility.yul\":4831:4834   */\n      dup6\n        /* \"#utility.yul\":4827:4841   */\n      add\n        /* \"#utility.yul\":4813:4825   */\n      dup3\n        /* \"#utility.yul\":4779:4842   */\n      tag_420\n      jump\t// in\n    tag_508:\n        /* \"#utility.yul\":4686:4852   */\n      pop\n        /* \"#utility.yul\":4936:4940   */\n      0x20\n        /* \"#utility.yul\":4929:4934   */\n      dup3\n        /* \"#utility.yul\":4925:4941   */\n      add\n        /* \"#utility.yul\":4919:4942   */\n      mload\n        /* \"#utility.yul\":4955:5018   */\n      tag_509\n        /* \"#utility.yul\":5012:5016   */\n      0x20\n        /* \"#utility.yul\":5007:5010   */\n      dup6\n        /* \"#utility.yul\":5003:5017   */\n      add\n        /* \"#utility.yul\":4989:5001   */\n      dup3\n        /* \"#utility.yul\":4955:5018   */\n      tag_421\n      jump\t// in\n    tag_509:\n        /* \"#utility.yul\":4862:5028   */\n      pop\n        /* \"#utility.yul\":5115:5119   */\n      0x40\n        /* \"#utility.yul\":5108:5113   */\n      dup3\n        /* \"#utility.yul\":5104:5120   */\n      add\n        /* \"#utility.yul\":5098:5121   */\n      mload\n        /* \"#utility.yul\":5134:5197   */\n      tag_510\n        /* \"#utility.yul\":5191:5195   */\n      0x40\n        /* \"#utility.yul\":5186:5189   */\n      dup6\n        /* \"#utility.yul\":5182:5196   */\n      add\n        /* \"#utility.yul\":5168:5180   */\n      dup3\n        /* \"#utility.yul\":5134:5197   */\n      tag_421\n      jump\t// in\n    tag_510:\n        /* \"#utility.yul\":5038:5207   */\n      pop\n        /* \"#utility.yul\":4640:5214   */\n      pop\n        /* \"#utility.yul\":4540:5214   */\n      pop\n      pop\n      jump\t// out\n        /* \"#utility.yul\":5220:5487   */\n    tag_423:\n        /* \"#utility.yul\":5333:5343   */\n      0x00\n        /* \"#utility.yul\":5354:5444   */\n      tag_512\n        /* \"#utility.yul\":5440:5443   */\n      dup4\n        /* \"#utility.yul\":5432:5438   */\n      dup4\n        /* \"#utility.yul\":5354:5444   */\n      tag_422\n      jump\t// in\n    tag_512:\n        /* \"#utility.yul\":5476:5480   */\n      0x60\n        /* \"#utility.yul\":5471:5474   */\n      dup4\n        /* \"#utility.yul\":5467:5481   */\n      add\n        /* \"#utility.yul\":5453:5481   */\n      swap1\n      pop\n        /* \"#utility.yul\":5220:5487   */\n      swap3\n      swap2\n      pop\n      pop\n      jump\t// out\n        /* \"#utility.yul\":5493:5628   */\n    tag_424:\n        /* \"#utility.yul\":5585:5589   */\n      0x00\n        /* \"#utility.yul\":5617:5621   */\n      0x20\n        /* \"#utility.yul\":5612:5615   */\n      dup3\n        /* \"#utility.yul\":5608:5622   */\n      add\n        /* \"#utility.yul\":5600:5622   */\n      swap1\n      pop\n        /* \"#utility.yul\":5493:5628   */\n      swap2\n      swap1\n      pop\n      jump\t// out\n        /* \"#utility.yul\":5714:6622   */\n    tag_425:\n        /* \"#utility.yul\":5877:5880   */\n      0x00\n        /* \"#utility.yul\":5906:5982   */\n      tag_515\n        /* \"#utility.yul\":5976:5981   */\n      dup3\n        /* \"#utility.yul\":5906:5982   */\n      tag_416\n      jump\t// in\n    tag_515:\n        /* \"#utility.yul\":5998:6106   */\n      tag_516\n        /* \"#utility.yul\":6099:6105   */\n      dup2\n        /* \"#utility.yul\":6094:6097   */\n      dup6\n        /* \"#utility.yul\":5998:6106   */\n      tag_417\n      jump\t// in\n    tag_516:\n        /* \"#utility.yul\":5991:6106   */\n      swap4\n      pop\n        /* \"#utility.yul\":6130:6208   */\n      tag_517\n        /* \"#utility.yul\":6202:6207   */\n      dup4\n        /* \"#utility.yul\":6130:6208   */\n      tag_418\n      jump\t// in\n    tag_517:\n        /* \"#utility.yul\":6231:6238   */\n      dup1\n        /* \"#utility.yul\":6262:6263   */\n      0x00\n        /* \"#utility.yul\":6247:6597   */\n    tag_518:\n        /* \"#utility.yul\":6272:6278   */\n      dup4\n        /* \"#utility.yul\":6269:6270   */\n      dup2\n        /* \"#utility.yul\":6266:6279   */\n      lt\n        /* \"#utility.yul\":6247:6597   */\n      iszero\n      tag_520\n      jumpi\n        /* \"#utility.yul\":6348:6354   */\n      dup2\n        /* \"#utility.yul\":6342:6355   */\n      mload\n        /* \"#utility.yul\":6375:6482   */\n      tag_521\n        /* \"#utility.yul\":6478:6481   */\n      dup9\n        /* \"#utility.yul\":6463:6476   */\n      dup3\n        /* \"#utility.yul\":6375:6482   */\n      tag_423\n      jump\t// in\n    tag_521:\n        /* \"#utility.yul\":6368:6482   */\n      swap8\n      pop\n        /* \"#utility.yul\":6505:6587   */\n      tag_522\n        /* \"#utility.yul\":6580:6586   */\n      dup4\n        /* \"#utility.yul\":6505:6587   */\n      tag_424\n      jump\t// in\n    tag_522:\n        /* \"#utility.yul\":6495:6587   */\n      swap3\n      pop\n        /* \"#utility.yul\":6307:6597   */\n      pop\n        /* \"#utility.yul\":6294:6295   */\n      0x01\n        /* \"#utility.yul\":6291:6292   */\n      dup2\n        /* \"#utility.yul\":6287:6296   */\n      add\n        /* \"#utility.yul\":6282:6296   */\n      swap1\n      pop\n        /* \"#utility.yul\":6247:6597   */\n      jump(tag_518)\n    tag_520:\n        /* \"#utility.yul\":6251:6265   */\n      pop\n        /* \"#utility.yul\":6613:6616   */\n      dup6\n        /* \"#utility.yul\":6606:6616   */\n      swap4\n      pop\n        /* \"#utility.yul\":5882:6622   */\n      pop\n      pop\n      pop\n        /* \"#utility.yul\":5714:6622   */\n      swap3\n      swap2\n      pop\n      pop\n      jump\t// out\n        /* \"#utility.yul\":6628:7089   */\n    tag_85:\n        /* \"#utility.yul\":6815:6819   */\n      0x00\n        /* \"#utility.yul\":6853:6855   */\n      0x20\n        /* \"#utility.yul\":6842:6851   */\n      dup3\n        /* \"#utility.yul\":6838:6856   */\n      add\n        /* \"#utility.yul\":6830:6856   */\n      swap1\n      pop\n        /* \"#utility.yul\":6902:6911   */\n      dup2\n        /* \"#utility.yul\":6896:6900   */\n      dup2\n        /* \"#utility.yul\":6892:6912   */\n      sub\n        /* \"#utility.yul\":6888:6889   */\n      0x00\n        /* \"#utility.yul\":6877:6886   */\n      dup4\n        /* \"#utility.yul\":6873:6890   */\n      add\n        /* \"#utility.yul\":6866:6913   */\n      mstore\n        /* \"#utility.yul\":6930:7082   */\n      tag_524\n        /* \"#utility.yul\":7077:7081   */\n      dup2\n        /* \"#utility.yul\":7068:7074   */\n      dup5\n        /* \"#utility.yul\":6930:7082   */\n      tag_425\n      jump\t// in\n    tag_524:\n        /* \"#utility.yul\":6922:7082   */\n      swap1\n      pop\n        /* \"#utility.yul\":6628:7089   */\n      swap3\n      swap2\n      pop\n      pop\n      jump\t// out\n        /* \"#utility.yul\":7176:7293   */\n    tag_427:\n        /* \"#utility.yul\":7285:7286   */\n      0x00\n        /* \"#utility.yul\":7282:7283   */\n      0x00\n        /* \"#utility.yul\":7275:7287   */\n      revert\n        /* \"#utility.yul\":7422:7544   */\n    tag_429:\n        /* \"#utility.yul\":7495:7519   */\n      tag_529\n        /* \"#utility.yul\":7513:7518   */\n      dup2\n        /* \"#utility.yul\":7495:7519   */\n      tag_414\n      jump\t// in\n    tag_529:\n        /* \"#utility.yul\":7488:7493   */\n      dup2\n        /* \"#utility.yul\":7485:7520   */\n      eq\n        /* \"#utility.yul\":7475:7538   */\n      tag_530\n      jumpi\n        /* \"#utility.yul\":7534:7535   */\n      0x00\n        /* \"#utility.yul\":7531:7532   */\n      0x00\n        /* \"#utility.yul\":7524:7536   */\n      revert\n        /* \"#utility.yul\":7475:7538   */\n    tag_530:\n        /* \"#utility.yul\":7422:7544   */\n      pop\n      jump\t// out\n        /* \"#utility.yul\":7550:7689   */\n    tag_430:\n        /* \"#utility.yul\":7596:7601   */\n      0x00\n        /* \"#utility.yul\":7634:7640   */\n      dup2\n        /* \"#utility.yul\":7621:7641   */\n      calldataload\n        /* \"#utility.yul\":7612:7641   */\n      swap1\n      pop\n        /* \"#utility.yul\":7650:7683   */\n      tag_532\n        /* \"#utility.yul\":7677:7682   */\n      dup2\n        /* \"#utility.yul\":7650:7683   */\n      tag_429\n      jump\t// in\n    tag_532:\n        /* \"#utility.yul\":7550:7689   */\n      swap3\n      swap2\n      pop\n      pop\n      jump\t// out\n        /* \"#utility.yul\":7695:8024   */\n    tag_115:\n        /* \"#utility.yul\":7754:7760   */\n      0x00\n        /* \"#utility.yul\":7803:7805   */\n      0x20\n        /* \"#utility.yul\":7791:7800   */\n      dup3\n        /* \"#utility.yul\":7782:7789   */\n      dup5\n        /* \"#utility.yul\":7778:7801   */\n      sub\n        /* \"#utility.yul\":7774:7806   */\n      slt\n        /* \"#utility.yul\":7771:7890   */\n      iszero\n      tag_534\n      jumpi\n        /* \"#utility.yul\":7809:7888   */\n      tag_535\n      tag_427\n      jump\t// in\n    tag_535:\n        /* \"#utility.yul\":7771:7890   */\n    tag_534:\n        /* \"#utility.yul\":7929:7930   */\n      0x00\n        /* \"#utility.yul\":7954:8007   */\n      tag_536\n        /* \"#utility.yul\":7999:8006   */\n      dup5\n        /* \"#utility.yul\":7990:7996   */\n      dup3\n        /* \"#utility.yul\":7979:7988   */\n      dup6\n        /* \"#utility.yul\":7975:7997   */\n      add\n        /* \"#utility.yul\":7954:8007   */\n      tag_430\n      jump\t// in\n    tag_536:\n        /* \"#utility.yul\":7944:8007   */\n      swap2\n      pop\n        /* \"#utility.yul\":7900:8017   */\n      pop\n        /* \"#utility.yul\":7695:8024   */\n      swap3\n      swap2\n      pop\n      pop\n      jump\t// out\n        /* \"#utility.yul\":8030:8148   */\n    tag_431:\n        /* \"#utility.yul\":8117:8141   */\n      tag_538\n        /* \"#utility.yul\":8135:8140   */\n      dup2\n        /* \"#utility.yul\":8117:8141   */\n      tag_419\n      jump\t// in\n    tag_538:\n        /* \"#utility.yul\":8112:8115   */\n      dup3\n        /* \"#utility.yul\":8105:8142   */\n      mstore\n        /* \"#utility.yul\":8030:8148   */\n      pop\n      pop\n      jump\t// out\n        /* \"#utility.yul\":8154:8596   */\n    tag_118:\n        /* \"#utility.yul\":8303:8307   */\n      0x00\n        /* \"#utility.yul\":8341:8343   */\n      0x60\n        /* \"#utility.yul\":8330:8339   */\n      dup3\n        /* \"#utility.yul\":8326:8344   */\n      add\n        /* \"#utility.yul\":8318:8344   */\n      swap1\n      pop\n        /* \"#utility.yul\":8354:8425   */\n      tag_540\n        /* \"#utility.yul\":8422:8423   */\n      0x00\n        /* \"#utility.yul\":8411:8420   */\n      dup4\n        /* \"#utility.yul\":8407:8424   */\n      add\n        /* \"#utility.yul\":8398:8404   */\n      dup7\n        /* \"#utility.yul\":8354:8425   */\n      tag_431\n      jump\t// in\n    tag_540:\n        /* \"#utility.yul\":8435:8507   */\n      tag_541\n        /* \"#utility.yul\":8503:8505   */\n      0x20\n        /* \"#utility.yul\":8492:8501   */\n      dup4\n        /* \"#utility.yul\":8488:8506   */\n      add\n        /* \"#utility.yul\":8479:8485   */\n      dup6\n        /* \"#utility.yul\":8435:8507   */\n      tag_415\n      jump\t// in\n    tag_541:\n        /* \"#utility.yul\":8517:8589   */\n      tag_542\n        /* \"#utility.yul\":8585:8587   */\n      0x40\n        /* \"#utility.yul\":8574:8583   */\n      dup4\n        /* \"#utility.yul\":8570:8588   */\n      add\n        /* \"#utility.yul\":8561:8567   */\n      dup5\n        /* \"#utility.yul\":8517:8589   */\n      tag_415\n      jump\t// in\n    tag_542:\n        /* \"#utility.yul\":8154:8596   */\n      swap5\n      swap4\n      pop\n      pop\n      pop\n      pop\n      jump\t// out\n        /* \"#utility.yul\":8602:8824   */\n    tag_123:\n        /* \"#utility.yul\":8695:8699   */\n      0x00\n        /* \"#utility.yul\":8733:8735   */\n      0x20\n        /* \"#utility.yul\":8722:8731   */\n      dup3\n        /* \"#utility.yul\":8718:8736   */\n      add\n        /* \"#utility.yul\":8710:8736   */\n      swap1\n      pop\n        /* \"#utility.yul\":8746:8817   */\n      tag_544\n        /* \"#utility.yul\":8814:8815   */\n      0x00\n        /* \"#utility.yul\":8803:8812   */\n      dup4\n        /* \"#utility.yul\":8799:8816   */\n      add\n        /* \"#utility.yul\":8790:8796   */\n      dup5\n        /* \"#utility.yul\":8746:8817   */\n      tag_431\n      jump\t// in\n    tag_544:\n        /* \"#utility.yul\":8602:8824   */\n      swap3\n      swap2\n      pop\n      pop\n      jump\t// out\n        /* \"#utility.yul\":8830:9162   */\n    tag_136:\n        /* \"#utility.yul\":8951:8955   */\n      0x00\n        /* \"#utility.yul\":8989:8991   */\n      0x40\n        /* \"#utility.yul\":8978:8987   */\n      dup3\n        /* \"#utility.yul\":8974:8992   */\n      add\n        /* \"#utility.yul\":8966:8992   */\n      swap1\n      pop\n        /* \"#utility.yul\":9002:9073   */\n      tag_546\n        /* \"#utility.yul\":9070:9071   */\n      0x00\n        /* \"#utility.yul\":9059:9068   */\n      dup4\n        /* \"#utility.yul\":9055:9072   */\n      add\n        /* \"#utility.yul\":9046:9052   */\n      dup6\n        /* \"#utility.yul\":9002:9073   */\n      tag_431\n      jump\t// in\n    tag_546:\n        /* \"#utility.yul\":9083:9155   */\n      tag_547\n        /* \"#utility.yul\":9151:9153   */\n      0x20\n        /* \"#utility.yul\":9140:9149   */\n      dup4\n        /* \"#utility.yul\":9136:9154   */\n      add\n        /* \"#utility.yul\":9127:9133   */\n      dup5\n        /* \"#utility.yul\":9083:9155   */\n      tag_415\n      jump\t// in\n    tag_547:\n        /* \"#utility.yul\":8830:9162   */\n      swap4\n      swap3\n      pop\n      pop\n      pop\n      jump\t// out\n        /* \"#utility.yul\":9168:9290   */\n    tag_432:\n        /* \"#utility.yul\":9241:9265   */\n      tag_549\n        /* \"#utility.yul\":9259:9264   */\n      dup2\n        /* \"#utility.yul\":9241:9265   */\n      tag_419\n      jump\t// in\n    tag_549:\n        /* \"#utility.yul\":9234:9239   */\n      dup2\n        /* \"#utility.yul\":9231:9266   */\n      eq\n        /* \"#utility.yul\":9221:9284   */\n      tag_550\n      jumpi\n        /* \"#utility.yul\":9280:9281   */\n      0x00\n        /* \"#utility.yul\":9277:9278   */\n      0x00\n        /* \"#utility.yul\":9270:9282   */\n      revert\n        /* \"#utility.yul\":9221:9284   */\n    tag_550:\n        /* \"#utility.yul\":9168:9290   */\n      pop\n      jump\t// out\n        /* \"#utility.yul\":9296:9435   */\n    tag_433:\n        /* \"#utility.yul\":9342:9347   */\n      0x00\n        /* \"#utility.yul\":9380:9386   */\n      dup2\n        /* \"#utility.yul\":9367:9387   */\n      calldataload\n        /* \"#utility.yul\":9358:9387   */\n      swap1\n      pop\n        /* \"#utility.yul\":9396:9429   */\n      tag_552\n        /* \"#utility.yul\":9423:9428   */\n      dup2\n        /* \"#utility.yul\":9396:9429   */\n      tag_432\n      jump\t// in\n    tag_552:\n        /* \"#utility.yul\":9296:9435   */\n      swap3\n      swap2\n      pop\n      pop\n      jump\t// out\n        /* \"#utility.yul\":9441:9770   */\n    tag_155:\n        /* \"#utility.yul\":9500:9506   */\n      0x00\n        /* \"#utility.yul\":9549:9551   */\n      0x20\n        /* \"#utility.yul\":9537:9546   */\n      dup3\n        /* \"#utility.yul\":9528:9535   */\n      dup5\n        /* \"#utility.yul\":9524:9547   */\n      sub\n        /* \"#utility.yul\":9520:9552   */\n      slt\n        /* \"#utility.yul\":9517:9636   */\n      iszero\n      tag_554\n      jumpi\n        /* \"#utility.yul\":9555:9634   */\n      tag_555\n      tag_427\n      jump\t// in\n    tag_555:\n        /* \"#utility.yul\":9517:9636   */\n    tag_554:\n        /* \"#utility.yul\":9675:9676   */\n      0x00\n        /* \"#utility.yul\":9700:9753   */\n      tag_556\n        /* \"#utility.yul\":9745:9752   */\n      dup5\n        /* \"#utility.yul\":9736:9742   */\n      dup3\n        /* \"#utility.yul\":9725:9734   */\n      dup6\n        /* \"#utility.yul\":9721:9743   */\n      add\n        /* \"#utility.yul\":9700:9753   */\n      tag_433\n      jump\t// in\n    tag_556:\n        /* \"#utility.yul\":9690:9753   */\n      swap2\n      pop\n        /* \"#utility.yul\":9646:9763   */\n      pop\n        /* \"#utility.yul\":9441:9770   */\n      swap3\n      swap2\n      pop\n      pop\n      jump\t// out\n        /* \"#utility.yul\":9776:9935   */\n    tag_434:\n        /* \"#utility.yul\":9916:9927   */\n      0x4e6f7420656e6465640000000000000000000000000000000000000000000000\n        /* \"#utility.yul\":9912:9913   */\n      0x00\n        /* \"#utility.yul\":9904:9910   */\n      dup3\n        /* \"#utility.yul\":9900:9914   */\n      add\n        /* \"#utility.yul\":9893:9928   */\n      mstore\n        /* \"#utility.yul\":9776:9935   */\n      pop\n      jump\t// out\n        /* \"#utility.yul\":9941:10306   */\n    tag_435:\n        /* \"#utility.yul\":10083:10086   */\n      0x00\n        /* \"#utility.yul\":10104:10170   */\n      tag_559\n        /* \"#utility.yul\":10168:10169   */\n      0x09\n        /* \"#utility.yul\":10163:10166   */\n      dup4\n        /* \"#utility.yul\":10104:10170   */\n      tag_404\n      jump\t// in\n    tag_559:\n        /* \"#utility.yul\":10097:10170   */\n      swap2\n      pop\n        /* \"#utility.yul\":10179:10272   */\n      tag_560\n        /* \"#utility.yul\":10268:10271   */\n      dup3\n        /* \"#utility.yul\":10179:10272   */\n      tag_434\n      jump\t// in\n    tag_560:\n        /* \"#utility.yul\":10297:10299   */\n      0x20\n        /* \"#utility.yul\":10292:10295   */\n      dup3\n        /* \"#utility.yul\":10288:10300   */\n      add\n        /* \"#utility.yul\":10281:10300   */\n      swap1\n      pop\n        /* \"#utility.yul\":9941:10306   */\n      swap2\n      swap1\n      pop\n      jump\t// out\n        /* \"#utility.yul\":10312:10731   */\n    tag_172:\n        /* \"#utility.yul\":10478:10482   */\n      0x00\n        /* \"#utility.yul\":10516:10518   */\n      0x20\n        /* \"#utility.yul\":10505:10514   */\n      dup3\n        /* \"#utility.yul\":10501:10519   */\n      add\n        /* \"#utility.yul\":10493:10519   */\n      swap1\n      pop\n        /* \"#utility.yul\":10565:10574   */\n      dup2\n        /* \"#utility.yul\":10559:10563   */\n      dup2\n        /* \"#utility.yul\":10555:10575   */\n      sub\n        /* \"#utility.yul\":10551:10552   */\n      0x00\n        /* \"#utility.yul\":10540:10549   */\n      dup4\n        /* \"#utility.yul\":10536:10553   */\n      add\n        /* \"#utility.yul\":10529:10576   */\n      mstore\n        /* \"#utility.yul\":10593:10724   */\n      tag_562\n        /* \"#utility.yul\":10719:10723   */\n      dup2\n        /* \"#utility.yul\":10593:10724   */\n      tag_435\n      jump\t// in\n    tag_562:\n        /* \"#utility.yul\":10585:10724   */\n      swap1\n      pop\n        /* \"#utility.yul\":10312:10731   */\n      swap2\n      swap1\n      pop\n      jump\t// out\n        /* \"#utility.yul\":10737:10909   */\n    tag_436:\n        /* \"#utility.yul\":10877:10901   */\n      0x57696e6e65722063616e6e6f7420776974686472617700000000000000000000\n        /* \"#utility.yul\":10873:10874   */\n      0x00\n        /* \"#utility.yul\":10865:10871   */\n      dup3\n        /* \"#utility.yul\":10861:10875   */\n      add\n        /* \"#utility.yul\":10854:10902   */\n      mstore\n        /* \"#utility.yul\":10737:10909   */\n      pop\n      jump\t// out\n        /* \"#utility.yul\":10915:11281   */\n    tag_437:\n        /* \"#utility.yul\":11057:11060   */\n      0x00\n        /* \"#utility.yul\":11078:11145   */\n      tag_565\n        /* \"#utility.yul\":11142:11144   */\n      0x16\n        /* \"#utility.yul\":11137:11140   */\n      dup4\n        /* \"#utility.yul\":11078:11145   */\n      tag_404\n      jump\t// in\n    tag_565:\n        /* \"#utility.yul\":11071:11145   */\n      swap2\n      pop\n        /* \"#utility.yul\":11154:11247   */\n      tag_566\n        /* \"#utility.yul\":11243:11246   */\n      dup3\n        /* \"#utility.yul\":11154:11247   */\n      tag_436\n      jump\t// in\n    tag_566:\n        /* \"#utility.yul\":11272:11274   */\n      0x20\n        /* \"#utility.yul\":11267:11270   */\n      dup3\n        /* \"#utility.yul\":11263:11275   */\n      add\n        /* \"#utility.yul\":11256:11275   */\n      swap1\n      pop\n        /* \"#utility.yul\":10915:11281   */\n      swap2\n      swap1\n      pop\n      jump\t// out\n        /* \"#utility.yul\":11287:11706   */\n    tag_176:\n        /* \"#utility.yul\":11453:11457   */\n      0x00\n        /* \"#utility.yul\":11491:11493   */\n      0x20\n        /* \"#utility.yul\":11480:11489   */\n      dup3\n        /* \"#utility.yul\":11476:11494   */\n      add\n        /* \"#utility.yul\":11468:11494   */\n      swap1\n      pop\n        /* \"#utility.yul\":11540:11549   */\n      dup2\n        /* \"#utility.yul\":11534:11538   */\n      dup2\n        /* \"#utility.yul\":11530:11550   */\n      sub\n        /* \"#utility.yul\":11526:11527   */\n      0x00\n        /* \"#utility.yul\":11515:11524   */\n      dup4\n        /* \"#utility.yul\":11511:11528   */\n      add\n        /* \"#utility.yul\":11504:11551   */\n      mstore\n        /* \"#utility.yul\":11568:11699   */\n      tag_568\n        /* \"#utility.yul\":11694:11698   */\n      dup2\n        /* \"#utility.yul\":11568:11699   */\n      tag_437\n      jump\t// in\n    tag_568:\n        /* \"#utility.yul\":11560:11699   */\n      swap1\n      pop\n        /* \"#utility.yul\":11287:11706   */\n      swap2\n      swap1\n      pop\n      jump\t// out\n        /* \"#utility.yul\":11712:11870   */\n    tag_438:\n        /* \"#utility.yul\":11852:11862   */\n      0x4e6f2066756e6473000000000000000000000000000000000000000000000000\n        /* \"#utility.yul\":11848:11849   */\n      0x00\n        /* \"#utility.yul\":11840:11846   */\n      dup3\n        /* \"#utility.yul\":11836:11850   */\n      add\n        /* \"#utility.yul\":11829:11863   */\n      mstore\n        /* \"#utility.yul\":11712:11870   */\n      pop\n      jump\t// out\n        /* \"#utility.yul\":11876:12241   */\n    tag_439:\n        /* \"#utility.yul\":12018:12021   */\n      0x00\n        /* \"#utility.yul\":12039:12105   */\n      tag_571\n        /* \"#utility.yul\":12103:12104   */\n      0x08\n        /* \"#utility.yul\":12098:12101   */\n      dup4\n        /* \"#utility.yul\":12039:12105   */\n      tag_404\n      jump\t// in\n    tag_571:\n        /* \"#utility.yul\":12032:12105   */\n      swap2\n      pop\n        /* \"#utility.yul\":12114:12207   */\n      tag_572\n        /* \"#utility.yul\":12203:12206   */\n      dup3\n        /* \"#utility.yul\":12114:12207   */\n      tag_438\n      jump\t// in\n    tag_572:\n        /* \"#utility.yul\":12232:12234   */\n      0x20\n        /* \"#utility.yul\":12227:12230   */\n      dup3\n        /* \"#utility.yul\":12223:12235   */\n      add\n        /* \"#utility.yul\":12216:12235   */\n      swap1\n      pop\n        /* \"#utility.yul\":11876:12241   */\n      swap2\n      swap1\n      pop\n      jump\t// out\n        /* \"#utility.yul\":12247:12666   */\n    tag_183:\n        /* \"#utility.yul\":12413:12417   */\n      0x00\n        /* \"#utility.yul\":12451:12453   */\n      0x20\n        /* \"#utility.yul\":12440:12449   */\n      dup3\n        /* \"#utility.yul\":12436:12454   */\n      add\n        /* \"#utility.yul\":12428:12454   */\n      swap1\n      pop\n        /* \"#utility.yul\":12500:12509   */\n      dup2\n        /* \"#utility.yul\":12494:12498   */\n      dup2\n        /* \"#utility.yul\":12490:12510   */\n      sub\n        /* \"#utility.yul\":12486:12487   */\n      0x00\n        /* \"#utility.yul\":12475:12484   */\n      dup4\n        /* \"#utility.yul\":12471:12488   */\n      add\n        /* \"#utility.yul\":12464:12511   */\n      mstore\n        /* \"#utility.yul\":12528:12659   */\n      tag_574\n        /* \"#utility.yul\":12654:12658   */\n      dup2\n        /* \"#utility.yul\":12528:12659   */\n      tag_439\n      jump\t// in\n    tag_574:\n        /* \"#utility.yul\":12520:12659   */\n      swap1\n      pop\n        /* \"#utility.yul\":12247:12666   */\n      swap2\n      swap1\n      pop\n      jump\t// out\n        /* \"#utility.yul\":12672:12852   */\n    tag_440:\n        /* \"#utility.yul\":12720:12797   */\n      0x4e487b7100000000000000000000000000000000000000000000000000000000\n        /* \"#utility.yul\":12717:12718   */\n      0x00\n        /* \"#utility.yul\":12710:12798   */\n      mstore\n        /* \"#utility.yul\":12817:12821   */\n      0x11\n        /* \"#utility.yul\":12814:12815   */\n      0x04\n        /* \"#utility.yul\":12807:12822   */\n      mstore\n        /* \"#utility.yul\":12841:12845   */\n      0x24\n        /* \"#utility.yul\":12838:12839   */\n      0x00\n        /* \"#utility.yul\":12831:12846   */\n      revert\n        /* \"#utility.yul\":12858:13049   */\n    tag_187:\n        /* \"#utility.yul\":12898:12901   */\n      0x00\n        /* \"#utility.yul\":12917:12937   */\n      tag_577\n        /* \"#utility.yul\":12935:12936   */\n      dup3\n        /* \"#utility.yul\":12917:12937   */\n      tag_414\n      jump\t// in\n    tag_577:\n        /* \"#utility.yul\":12912:12937   */\n      swap2\n      pop\n        /* \"#utility.yul\":12951:12971   */\n      tag_578\n        /* \"#utility.yul\":12969:12970   */\n      dup4\n        /* \"#utility.yul\":12951:12971   */\n      tag_414\n      jump\t// in\n    tag_578:\n        /* \"#utility.yul\":12946:12971   */\n      swap3\n      pop\n        /* \"#utility.yul\":12994:12995   */\n      dup3\n        /* \"#utility.yul\":12991:12992   */\n      dup3\n        /* \"#utility.yul\":12987:12996   */\n      add\n        /* \"#utility.yul\":12980:12996   */\n      swap1\n      pop\n        /* \"#utility.yul\":13015:13018   */\n      dup1\n        /* \"#utility.yul\":13012:13013   */\n      dup3\n        /* \"#utility.yul\":13009:13019   */\n      gt\n        /* \"#utility.yul\":13006:13042   */\n      iszero\n      tag_579\n      jumpi\n        /* \"#utility.yul\":13022:13040   */\n      tag_580\n      tag_440\n      jump\t// in\n    tag_580:\n        /* \"#utility.yul\":13006:13042   */\n    tag_579:\n        /* \"#utility.yul\":12858:13049   */\n      swap3\n      swap2\n      pop\n      pop\n      jump\t// out\n        /* \"#utility.yul\":13055:13218   */\n    tag_441:\n        /* \"#utility.yul\":13195:13210   */\n      0x41756374696f6e20656e64656400000000000000000000000000000000000000\n        /* \"#utility.yul\":13191:13192   */\n      0x00\n        /* \"#utility.yul\":13183:13189   */\n      dup3\n        /* \"#utility.yul\":13179:13193   */\n      add\n        /* \"#utility.yul\":13172:13211   */\n      mstore\n        /* \"#utility.yul\":13055:13218   */\n      pop\n      jump\t// out\n        /* \"#utility.yul\":13224:13590   */\n    tag_442:\n        /* \"#utility.yul\":13366:13369   */\n      0x00\n        /* \"#utility.yul\":13387:13454   */\n      tag_583\n        /* \"#utility.yul\":13451:13453   */\n      0x0d\n        /* \"#utility.yul\":13446:13449   */\n      dup4\n        /* \"#utility.yul\":13387:13454   */\n      tag_404\n      jump\t// in\n    tag_583:\n        /* \"#utility.yul\":13380:13454   */\n      swap2\n      pop\n        /* \"#utility.yul\":13463:13556   */\n      tag_584\n        /* \"#utility.yul\":13552:13555   */\n      dup3\n        /* \"#utility.yul\":13463:13556   */\n      tag_441\n      jump\t// in\n    tag_584:\n        /* \"#utility.yul\":13581:13583   */\n      0x20\n        /* \"#utility.yul\":13576:13579   */\n      dup3\n        /* \"#utility.yul\":13572:13584   */\n      add\n        /* \"#utility.yul\":13565:13584   */\n      swap1\n      pop\n        /* \"#utility.yul\":13224:13590   */\n      swap2\n      swap1\n      pop\n      jump\t// out\n        /* \"#utility.yul\":13596:14015   */\n    tag_196:\n        /* \"#utility.yul\":13762:13766   */\n      0x00\n        /* \"#utility.yul\":13800:13802   */\n      0x20\n        /* \"#utility.yul\":13789:13798   */\n      dup3\n        /* \"#utility.yul\":13785:13803   */\n      add\n        /* \"#utility.yul\":13777:13803   */\n      swap1\n      pop\n        /* \"#utility.yul\":13849:13858   */\n      dup2\n        /* \"#utility.yul\":13843:13847   */\n      dup2\n        /* \"#utility.yul\":13839:13859   */\n      sub\n        /* \"#utility.yul\":13835:13836   */\n      0x00\n        /* \"#utility.yul\":13824:13833   */\n      dup4\n        /* \"#utility.yul\":13820:13837   */\n      add\n        /* \"#utility.yul\":13813:13860   */\n      mstore\n        /* \"#utility.yul\":13877:14008   */\n      tag_586\n        /* \"#utility.yul\":14003:14007   */\n      dup2\n        /* \"#utility.yul\":13877:14008   */\n      tag_442\n      jump\t// in\n    tag_586:\n        /* \"#utility.yul\":13869:14008   */\n      swap1\n      pop\n        /* \"#utility.yul\":13596:14015   */\n      swap2\n      swap1\n      pop\n      jump\t// out\n        /* \"#utility.yul\":14021:14182   */\n    tag_443:\n        /* \"#utility.yul\":14161:14174   */\n      0x4e6f742073746172746564000000000000000000000000000000000000000000\n        /* \"#utility.yul\":14157:14158   */\n      0x00\n        /* \"#utility.yul\":14149:14155   */\n      dup3\n        /* \"#utility.yul\":14145:14159   */\n      add\n        /* \"#utility.yul\":14138:14175   */\n      mstore\n        /* \"#utility.yul\":14021:14182   */\n      pop\n      jump\t// out\n        /* \"#utility.yul\":14188:14554   */\n    tag_444:\n        /* \"#utility.yul\":14330:14333   */\n      0x00\n        /* \"#utility.yul\":14351:14418   */\n      tag_589\n        /* \"#utility.yul\":14415:14417   */\n      0x0b\n        /* \"#utility.yul\":14410:14413   */\n      dup4\n        /* \"#utility.yul\":14351:14418   */\n      tag_404\n      jump\t// in\n    tag_589:\n        /* \"#utility.yul\":14344:14418   */\n      swap2\n      pop\n        /* \"#utility.yul\":14427:14520   */\n      tag_590\n        /* \"#utility.yul\":14516:14519   */\n      dup3\n        /* \"#utility.yul\":14427:14520   */\n      tag_443\n      jump\t// in\n    tag_590:\n        /* \"#utility.yul\":14545:14547   */\n      0x20\n        /* \"#utility.yul\":14540:14543   */\n      dup3\n        /* \"#utility.yul\":14536:14548   */\n      add\n        /* \"#utility.yul\":14529:14548   */\n      swap1\n      pop\n        /* \"#utility.yul\":14188:14554   */\n      swap2\n      swap1\n      pop\n      jump\t// out\n        /* \"#utility.yul\":14560:14979   */\n    tag_199:\n        /* \"#utility.yul\":14726:14730   */\n      0x00\n        /* \"#utility.yul\":14764:14766   */\n      0x20\n        /* \"#utility.yul\":14753:14762   */\n      dup3\n        /* \"#utility.yul\":14749:14767   */\n      add\n        /* \"#utility.yul\":14741:14767   */\n      swap1\n      pop\n        /* \"#utility.yul\":14813:14822   */\n      dup2\n        /* \"#utility.yul\":14807:14811   */\n      dup2\n        /* \"#utility.yul\":14803:14823   */\n      sub\n        /* \"#utility.yul\":14799:14800   */\n      0x00\n        /* \"#utility.yul\":14788:14797   */\n      dup4\n        /* \"#utility.yul\":14784:14801   */\n      add\n        /* \"#utility.yul\":14777:14824   */\n      mstore\n        /* \"#utility.yul\":14841:14972   */\n      tag_592\n        /* \"#utility.yul\":14967:14971   */\n      dup2\n        /* \"#utility.yul\":14841:14972   */\n      tag_444\n      jump\t// in\n    tag_592:\n        /* \"#utility.yul\":14833:14972   */\n      swap1\n      pop\n        /* \"#utility.yul\":14560:14979   */\n      swap2\n      swap1\n      pop\n      jump\t// out\n        /* \"#utility.yul\":14985:15147   */\n    tag_445:\n        /* \"#utility.yul\":15125:15139   */\n      0x54696d6520657870697265640000000000000000000000000000000000000000\n        /* \"#utility.yul\":15121:15122   */\n      0x00\n        /* \"#utility.yul\":15113:15119   */\n      dup3\n        /* \"#utility.yul\":15109:15123   */\n      add\n        /* \"#utility.yul\":15102:15140   */\n      mstore\n        /* \"#utility.yul\":14985:15147   */\n      pop\n      jump\t// out\n        /* \"#utility.yul\":15153:15519   */\n    tag_446:\n        /* \"#utility.yul\":15295:15298   */\n      0x00\n        /* \"#utility.yul\":15316:15383   */\n      tag_595\n        /* \"#utility.yul\":15380:15382   */\n      0x0c\n        /* \"#utility.yul\":15375:15378   */\n      dup4\n        /* \"#utility.yul\":15316:15383   */\n      tag_404\n      jump\t// in\n    tag_595:\n        /* \"#utility.yul\":15309:15383   */\n      swap2\n      pop\n        /* \"#utility.yul\":15392:15485   */\n      tag_596\n        /* \"#utility.yul\":15481:15484   */\n      dup3\n        /* \"#utility.yul\":15392:15485   */\n      tag_445\n      jump\t// in\n    tag_596:\n        /* \"#utility.yul\":15510:15512   */\n      0x20\n        /* \"#utility.yul\":15505:15508   */\n      dup3\n        /* \"#utility.yul\":15501:15513   */\n      add\n        /* \"#utility.yul\":15494:15513   */\n      swap1\n      pop\n        /* \"#utility.yul\":15153:15519   */\n      swap2\n      swap1\n      pop\n      jump\t// out\n        /* \"#utility.yul\":15525:15944   */\n    tag_202:\n        /* \"#utility.yul\":15691:15695   */\n      0x00\n        /* \"#utility.yul\":15729:15731   */\n      0x20\n        /* \"#utility.yul\":15718:15727   */\n      dup3\n        /* \"#utility.yul\":15714:15732   */\n      add\n        /* \"#utility.yul\":15706:15732   */\n      swap1\n      pop\n        /* \"#utility.yul\":15778:15787   */\n      dup2\n        /* \"#utility.yul\":15772:15776   */\n      dup2\n        /* \"#utility.yul\":15768:15788   */\n      sub\n        /* \"#utility.yul\":15764:15765   */\n      0x00\n        /* \"#utility.yul\":15753:15762   */\n      dup4\n        /* \"#utility.yul\":15749:15766   */\n      add\n        /* \"#utility.yul\":15742:15789   */\n      mstore\n        /* \"#utility.yul\":15806:15937   */\n      tag_598\n        /* \"#utility.yul\":15932:15936   */\n      dup2\n        /* \"#utility.yul\":15806:15937   */\n      tag_446\n      jump\t// in\n    tag_598:\n        /* \"#utility.yul\":15798:15937   */\n      swap1\n      pop\n        /* \"#utility.yul\":15525:15944   */\n      swap2\n      swap1\n      pop\n      jump\t// out\n        /* \"#utility.yul\":15950:16108   */\n    tag_447:\n        /* \"#utility.yul\":16090:16100   */\n      0x5a65726f20626964000000000000000000000000000000000000000000000000\n        /* \"#utility.yul\":16086:16087   */\n      0x00\n        /* \"#utility.yul\":16078:16084   */\n      dup3\n        /* \"#utility.yul\":16074:16088   */\n      add\n        /* \"#utility.yul\":16067:16101   */\n      mstore\n        /* \"#utility.yul\":15950:16108   */\n      pop\n      jump\t// out\n        /* \"#utility.yul\":16114:16479   */\n    tag_448:\n        /* \"#utility.yul\":16256:16259   */\n      0x00\n        /* \"#utility.yul\":16277:16343   */\n      tag_601\n        /* \"#utility.yul\":16341:16342   */\n      0x08\n        /* \"#utility.yul\":16336:16339   */\n      dup4\n        /* \"#utility.yul\":16277:16343   */\n      tag_404\n      jump\t// in\n    tag_601:\n        /* \"#utility.yul\":16270:16343   */\n      swap2\n      pop\n        /* \"#utility.yul\":16352:16445   */\n      tag_602\n        /* \"#utility.yul\":16441:16444   */\n      dup3\n        /* \"#utility.yul\":16352:16445   */\n      tag_447\n      jump\t// in\n    tag_602:\n        /* \"#utility.yul\":16470:16472   */\n      0x20\n        /* \"#utility.yul\":16465:16468   */\n      dup3\n        /* \"#utility.yul\":16461:16473   */\n      add\n        /* \"#utility.yul\":16454:16473   */\n      swap1\n      pop\n        /* \"#utility.yul\":16114:16479   */\n      swap2\n      swap1\n      pop\n      jump\t// out\n        /* \"#utility.yul\":16485:16904   */\n    tag_211:\n        /* \"#utility.yul\":16651:16655   */\n      0x00\n        /* \"#utility.yul\":16689:16691   */\n      0x20\n        /* \"#utility.yul\":16678:16687   */\n      dup3\n        /* \"#utility.yul\":16674:16692   */\n      add\n        /* \"#utility.yul\":16666:16692   */\n      swap1\n      pop\n        /* \"#utility.yul\":16738:16747   */\n      dup2\n        /* \"#utility.yul\":16732:16736   */\n      dup2\n        /* \"#utility.yul\":16728:16748   */\n      sub\n        /* \"#utility.yul\":16724:16725   */\n      0x00\n        /* \"#utility.yul\":16713:16722   */\n      dup4\n        /* \"#utility.yul\":16709:16726   */\n      add\n        /* \"#utility.yul\":16702:16749   */\n      mstore\n        /* \"#utility.yul\":16766:16897   */\n      tag_604\n        /* \"#utility.yul\":16892:16896   */\n      dup2\n        /* \"#utility.yul\":16766:16897   */\n      tag_448\n      jump\t// in\n    tag_604:\n        /* \"#utility.yul\":16758:16897   */\n      swap1\n      pop\n        /* \"#utility.yul\":16485:16904   */\n      swap2\n      swap1\n      pop\n      jump\t// out\n        /* \"#utility.yul\":16910:17320   */\n    tag_215:\n        /* \"#utility.yul\":16950:16957   */\n      0x00\n        /* \"#utility.yul\":16973:16993   */\n      tag_606\n        /* \"#utility.yul\":16991:16992   */\n      dup3\n        /* \"#utility.yul\":16973:16993   */\n      tag_414\n      jump\t// in\n    tag_606:\n        /* \"#utility.yul\":16968:16993   */\n      swap2\n      pop\n        /* \"#utility.yul\":17007:17027   */\n      tag_607\n        /* \"#utility.yul\":17025:17026   */\n      dup4\n        /* \"#utility.yul\":17007:17027   */\n      tag_414\n      jump\t// in\n    tag_607:\n        /* \"#utility.yul\":17002:17027   */\n      swap3\n      pop\n        /* \"#utility.yul\":17062:17063   */\n      dup3\n        /* \"#utility.yul\":17059:17060   */\n      dup3\n        /* \"#utility.yul\":17055:17064   */\n      mul\n        /* \"#utility.yul\":17084:17114   */\n      tag_608\n        /* \"#utility.yul\":17102:17113   */\n      dup2\n        /* \"#utility.yul\":17084:17114   */\n      tag_414\n      jump\t// in\n    tag_608:\n        /* \"#utility.yul\":17073:17114   */\n      swap2\n      pop\n        /* \"#utility.yul\":17263:17264   */\n      dup3\n        /* \"#utility.yul\":17254:17261   */\n      dup3\n        /* \"#utility.yul\":17250:17265   */\n      div\n        /* \"#utility.yul\":17247:17248   */\n      dup5\n        /* \"#utility.yul\":17244:17266   */\n      eq\n        /* \"#utility.yul\":17224:17225   */\n      dup4\n        /* \"#utility.yul\":17217:17226   */\n      iszero\n        /* \"#utility.yul\":17197:17280   */\n      or\n        /* \"#utility.yul\":17174:17313   */\n      tag_609\n      jumpi\n        /* \"#utility.yul\":17293:17311   */\n      tag_610\n      tag_440\n      jump\t// in\n    tag_610:\n        /* \"#utility.yul\":17174:17313   */\n    tag_609:\n        /* \"#utility.yul\":16958:17320   */\n      pop\n        /* \"#utility.yul\":16910:17320   */\n      swap3\n      swap2\n      pop\n      pop\n      jump\t// out\n        /* \"#utility.yul\":17326:17506   */\n    tag_449:\n        /* \"#utility.yul\":17374:17451   */\n      0x4e487b7100000000000000000000000000000000000000000000000000000000\n        /* \"#utility.yul\":17371:17372   */\n      0x00\n        /* \"#utility.yul\":17364:17452   */\n      mstore\n        /* \"#utility.yul\":17471:17475   */\n      0x12\n        /* \"#utility.yul\":17468:17469   */\n      0x04\n        /* \"#utility.yul\":17461:17476   */\n      mstore\n        /* \"#utility.yul\":17495:17499   */\n      0x24\n        /* \"#utility.yul\":17492:17493   */\n      0x00\n        /* \"#utility.yul\":17485:17500   */\n      revert\n        /* \"#utility.yul\":17512:17697   */\n    tag_217:\n        /* \"#utility.yul\":17552:17553   */\n      0x00\n        /* \"#utility.yul\":17569:17589   */\n      tag_613\n        /* \"#utility.yul\":17587:17588   */\n      dup3\n        /* \"#utility.yul\":17569:17589   */\n      tag_414\n      jump\t// in\n    tag_613:\n        /* \"#utility.yul\":17564:17589   */\n      swap2\n      pop\n        /* \"#utility.yul\":17603:17623   */\n      tag_614\n        /* \"#utility.yul\":17621:17622   */\n      dup4\n        /* \"#utility.yul\":17603:17623   */\n      tag_414\n      jump\t// in\n    tag_614:\n        /* \"#utility.yul\":17598:17623   */\n      swap3\n      pop\n        /* \"#utility.yul\":17642:17643   */\n      dup3\n        /* \"#utility.yul\":17632:17667   */\n      tag_615\n      jumpi\n        /* \"#utility.yul\":17647:17665   */\n      tag_616\n      tag_449\n      jump\t// in\n    tag_616:\n        /* \"#utility.yul\":17632:17667   */\n    tag_615:\n        /* \"#utility.yul\":17689:17690   */\n      dup3\n        /* \"#utility.yul\":17686:17687   */\n      dup3\n        /* \"#utility.yul\":17682:17691   */\n      div\n        /* \"#utility.yul\":17677:17691   */\n      swap1\n      pop\n        /* \"#utility.yul\":17512:17697   */\n      swap3\n      swap2\n      pop\n      pop\n      jump\t// out\n        /* \"#utility.yul\":17703:17864   */\n    tag_450:\n        /* \"#utility.yul\":17843:17856   */\n      0x42696420746f6f206c6f77000000000000000000000000000000000000000000\n        /* \"#utility.yul\":17839:17840   */\n      0x00\n        /* \"#utility.yul\":17831:17837   */\n      dup3\n        /* \"#utility.yul\":17827:17841   */\n      add\n        /* \"#utility.yul\":17820:17857   */\n      mstore\n        /* \"#utility.yul\":17703:17864   */\n      pop\n      jump\t// out\n        /* \"#utility.yul\":17870:18236   */\n    tag_451:\n        /* \"#utility.yul\":18012:18015   */\n      0x00\n        /* \"#utility.yul\":18033:18100   */\n      tag_619\n        /* \"#utility.yul\":18097:18099   */\n      0x0b\n        /* \"#utility.yul\":18092:18095   */\n      dup4\n        /* \"#utility.yul\":18033:18100   */\n      tag_404\n      jump\t// in\n    tag_619:\n        /* \"#utility.yul\":18026:18100   */\n      swap2\n      pop\n        /* \"#utility.yul\":18109:18202   */\n      tag_620\n        /* \"#utility.yul\":18198:18201   */\n      dup3\n        /* \"#utility.yul\":18109:18202   */\n      tag_450\n      jump\t// in\n    tag_620:\n        /* \"#utility.yul\":18227:18229   */\n      0x20\n        /* \"#utility.yul\":18222:18225   */\n      dup3\n        /* \"#utility.yul\":18218:18230   */\n      add\n        /* \"#utility.yul\":18211:18230   */\n      swap1\n      pop\n        /* \"#utility.yul\":17870:18236   */\n      swap2\n      swap1\n      pop\n      jump\t// out\n        /* \"#utility.yul\":18242:18661   */\n    tag_221:\n        /* \"#utility.yul\":18408:18412   */\n      0x00\n        /* \"#utility.yul\":18446:18448   */\n      0x20\n        /* \"#utility.yul\":18435:18444   */\n      dup3\n        /* \"#utility.yul\":18431:18449   */\n      add\n        /* \"#utility.yul\":18423:18449   */\n      swap1\n      pop\n        /* \"#utility.yul\":18495:18504   */\n      dup2\n        /* \"#utility.yul\":18489:18493   */\n      dup2\n        /* \"#utility.yul\":18485:18505   */\n      sub\n        /* \"#utility.yul\":18481:18482   */\n      0x00\n        /* \"#utility.yul\":18470:18479   */\n      dup4\n        /* \"#utility.yul\":18466:18483   */\n      add\n        /* \"#utility.yul\":18459:18506   */\n      mstore\n        /* \"#utility.yul\":18523:18654   */\n      tag_622\n        /* \"#utility.yul\":18649:18653   */\n      dup2\n        /* \"#utility.yul\":18523:18654   */\n      tag_451\n      jump\t// in\n    tag_622:\n        /* \"#utility.yul\":18515:18654   */\n      swap1\n      pop\n        /* \"#utility.yul\":18242:18661   */\n      swap2\n      swap1\n      pop\n      jump\t// out\n        /* \"#utility.yul\":18667:18861   */\n    tag_225:\n        /* \"#utility.yul\":18707:18711   */\n      0x00\n        /* \"#utility.yul\":18727:18747   */\n      tag_624\n        /* \"#utility.yul\":18745:18746   */\n      dup3\n        /* \"#utility.yul\":18727:18747   */\n      tag_414\n      jump\t// in\n    tag_624:\n        /* \"#utility.yul\":18722:18747   */\n      swap2\n      pop\n        /* \"#utility.yul\":18761:18781   */\n      tag_625\n        /* \"#utility.yul\":18779:18780   */\n      dup4\n        /* \"#utility.yul\":18761:18781   */\n      tag_414\n      jump\t// in\n    tag_625:\n        /* \"#utility.yul\":18756:18781   */\n      swap3\n      pop\n        /* \"#utility.yul\":18805:18806   */\n      dup3\n        /* \"#utility.yul\":18802:18803   */\n      dup3\n        /* \"#utility.yul\":18798:18807   */\n      sub\n        /* \"#utility.yul\":18790:18807   */\n      swap1\n      pop\n        /* \"#utility.yul\":18829:18830   */\n      dup2\n        /* \"#utility.yul\":18823:18827   */\n      dup2\n        /* \"#utility.yul\":18820:18831   */\n      gt\n        /* \"#utility.yul\":18817:18854   */\n      iszero\n      tag_626\n      jumpi\n        /* \"#utility.yul\":18834:18852   */\n      tag_627\n      tag_440\n      jump\t// in\n    tag_627:\n        /* \"#utility.yul\":18817:18854   */\n    tag_626:\n        /* \"#utility.yul\":18667:18861   */\n      swap3\n      swap2\n      pop\n      pop\n      jump\t// out\n        /* \"#utility.yul\":18867:19027   */\n    tag_452:\n        /* \"#utility.yul\":19007:19019   */\n      0x4e6f742073656c6c657200000000000000000000000000000000000000000000\n        /* \"#utility.yul\":19003:19004   */\n      0x00\n        /* \"#utility.yul\":18995:19001   */\n      dup3\n        /* \"#utility.yul\":18991:19005   */\n      add\n        /* \"#utility.yul\":18984:19020   */\n      mstore\n        /* \"#utility.yul\":18867:19027   */\n      pop\n      jump\t// out\n        /* \"#utility.yul\":19033:19399   */\n    tag_453:\n        /* \"#utility.yul\":19175:19178   */\n      0x00\n        /* \"#utility.yul\":19196:19263   */\n      tag_630\n        /* \"#utility.yul\":19260:19262   */\n      0x0a\n        /* \"#utility.yul\":19255:19258   */\n      dup4\n        /* \"#utility.yul\":19196:19263   */\n      tag_404\n      jump\t// in\n    tag_630:\n        /* \"#utility.yul\":19189:19263   */\n      swap2\n      pop\n        /* \"#utility.yul\":19272:19365   */\n      tag_631\n        /* \"#utility.yul\":19361:19364   */\n      dup3\n        /* \"#utility.yul\":19272:19365   */\n      tag_452\n      jump\t// in\n    tag_631:\n        /* \"#utility.yul\":19390:19392   */\n      0x20\n        /* \"#utility.yul\":19385:19388   */\n      dup3\n        /* \"#utility.yul\":19381:19393   */\n      add\n        /* \"#utility.yul\":19374:19393   */\n      swap1\n      pop\n        /* \"#utility.yul\":19033:19399   */\n      swap2\n      swap1\n      pop\n      jump\t// out\n        /* \"#utility.yul\":19405:19824   */\n    tag_257:\n        /* \"#utility.yul\":19571:19575   */\n      0x00\n        /* \"#utility.yul\":19609:19611   */\n      0x20\n        /* \"#utility.yul\":19598:19607   */\n      dup3\n        /* \"#utility.yul\":19594:19612   */\n      add\n        /* \"#utility.yul\":19586:19612   */\n      swap1\n      pop\n        /* \"#utility.yul\":19658:19667   */\n      dup2\n        /* \"#utility.yul\":19652:19656   */\n      dup2\n        /* \"#utility.yul\":19648:19668   */\n      sub\n        /* \"#utility.yul\":19644:19645   */\n      0x00\n        /* \"#utility.yul\":19633:19642   */\n      dup4\n        /* \"#utility.yul\":19629:19646   */\n      add\n        /* \"#utility.yul\":19622:19669   */\n      mstore\n        /* \"#utility.yul\":19686:19817   */\n      tag_633\n        /* \"#utility.yul\":19812:19816   */\n      dup2\n        /* \"#utility.yul\":19686:19817   */\n      tag_453\n      jump\t// in\n    tag_633:\n        /* \"#utility.yul\":19678:19817   */\n      swap1\n      pop\n        /* \"#utility.yul\":19405:19824   */\n      swap2\n      swap1\n      pop\n      jump\t// out\n        /* \"#utility.yul\":19830:19987   */\n    tag_454:\n        /* \"#utility.yul\":19970:19979   */\n      0x4e6f206665657300000000000000000000000000000000000000000000000000\n        /* \"#utility.yul\":19966:19967   */\n      0x00\n        /* \"#utility.yul\":19958:19964   */\n      dup3\n        /* \"#utility.yul\":19954:19968   */\n      add\n        /* \"#utility.yul\":19947:19980   */\n      mstore\n        /* \"#utility.yul\":19830:19987   */\n      pop\n      jump\t// out\n        /* \"#utility.yul\":19993:20358   */\n    tag_455:\n        /* \"#utility.yul\":20135:20138   */\n      0x00\n        /* \"#utility.yul\":20156:20222   */\n      tag_636\n        /* \"#utility.yul\":20220:20221   */\n      0x07\n        /* \"#utility.yul\":20215:20218   */\n      dup4\n        /* \"#utility.yul\":20156:20222   */\n      tag_404\n      jump\t// in\n    tag_636:\n        /* \"#utility.yul\":20149:20222   */\n      swap2\n      pop\n        /* \"#utility.yul\":20231:20324   */\n      tag_637\n        /* \"#utility.yul\":20320:20323   */\n      dup3\n        /* \"#utility.yul\":20231:20324   */\n      tag_454\n      jump\t// in\n    tag_637:\n        /* \"#utility.yul\":20349:20351   */\n      0x20\n        /* \"#utility.yul\":20344:20347   */\n      dup3\n        /* \"#utility.yul\":20340:20352   */\n      add\n        /* \"#utility.yul\":20333:20352   */\n      swap1\n      pop\n        /* \"#utility.yul\":19993:20358   */\n      swap2\n      swap1\n      pop\n      jump\t// out\n        /* \"#utility.yul\":20364:20783   */\n    tag_263:\n        /* \"#utility.yul\":20530:20534   */\n      0x00\n        /* \"#utility.yul\":20568:20570   */\n      0x20\n        /* \"#utility.yul\":20557:20566   */\n      dup3\n        /* \"#utility.yul\":20553:20571   */\n      add\n        /* \"#utility.yul\":20545:20571   */\n      swap1\n      pop\n        /* \"#utility.yul\":20617:20626   */\n      dup2\n        /* \"#utility.yul\":20611:20615   */\n      dup2\n        /* \"#utility.yul\":20607:20627   */\n      sub\n        /* \"#utility.yul\":20603:20604   */\n      0x00\n        /* \"#utility.yul\":20592:20601   */\n      dup4\n        /* \"#utility.yul\":20588:20605   */\n      add\n        /* \"#utility.yul\":20581:20628   */\n      mstore\n        /* \"#utility.yul\":20645:20776   */\n      tag_639\n        /* \"#utility.yul\":20771:20775   */\n      dup2\n        /* \"#utility.yul\":20645:20776   */\n      tag_455\n      jump\t// in\n    tag_639:\n        /* \"#utility.yul\":20637:20776   */\n      swap1\n      pop\n        /* \"#utility.yul\":20364:20783   */\n      swap2\n      swap1\n      pop\n      jump\t// out\n        /* \"#utility.yul\":20789:20953   */\n    tag_456:\n        /* \"#utility.yul\":20929:20945   */\n      0x41756374696f6e20616374697665000000000000000000000000000000000000\n        /* \"#utility.yul\":20925:20926   */\n      0x00\n        /* \"#utility.yul\":20917:20923   */\n      dup3\n        /* \"#utility.yul\":20913:20927   */\n      add\n        /* \"#utility.yul\":20906:20946   */\n      mstore\n        /* \"#utility.yul\":20789:20953   */\n      pop\n      jump\t// out\n        /* \"#utility.yul\":20959:21325   */\n    tag_457:\n        /* \"#utility.yul\":21101:21104   */\n      0x00\n        /* \"#utility.yul\":21122:21189   */\n      tag_642\n        /* \"#utility.yul\":21186:21188   */\n      0x0e\n        /* \"#utility.yul\":21181:21184   */\n      dup4\n        /* \"#utility.yul\":21122:21189   */\n      tag_404\n      jump\t// in\n    tag_642:\n        /* \"#utility.yul\":21115:21189   */\n      swap2\n      pop\n        /* \"#utility.yul\":21198:21291   */\n      tag_643\n        /* \"#utility.yul\":21287:21290   */\n      dup3\n        /* \"#utility.yul\":21198:21291   */\n      tag_456\n      jump\t// in\n    tag_643:\n        /* \"#utility.yul\":21316:21318   */\n      0x20\n        /* \"#utility.yul\":21311:21314   */\n      dup3\n        /* \"#utility.yul\":21307:21319   */\n      add\n        /* \"#utility.yul\":21300:21319   */\n      swap1\n      pop\n        /* \"#utility.yul\":20959:21325   */\n      swap2\n      swap1\n      pop\n      jump\t// out\n        /* \"#utility.yul\":21331:21750   */\n    tag_300:\n        /* \"#utility.yul\":21497:21501   */\n      0x00\n        /* \"#utility.yul\":21535:21537   */\n      0x20\n        /* \"#utility.yul\":21524:21533   */\n      dup3\n        /* \"#utility.yul\":21520:21538   */\n      add\n        /* \"#utility.yul\":21512:21538   */\n      swap1\n      pop\n        /* \"#utility.yul\":21584:21593   */\n      dup2\n        /* \"#utility.yul\":21578:21582   */\n      dup2\n        /* \"#utility.yul\":21574:21594   */\n      sub\n        /* \"#utility.yul\":21570:21571   */\n      0x00\n        /* \"#utility.yul\":21559:21568   */\n      dup4\n        /* \"#utility.yul\":21555:21572   */\n      add\n        /* \"#utility.yul\":21548:21595   */\n      mstore\n        /* \"#utility.yul\":21612:21743   */\n      tag_645\n        /* \"#utility.yul\":21738:21742   */\n      dup2\n        /* \"#utility.yul\":21612:21743   */\n      tag_457\n      jump\t// in\n    tag_645:\n        /* \"#utility.yul\":21604:21743   */\n      swap1\n      pop\n        /* \"#utility.yul\":21331:21750   */\n      swap2\n      swap1\n      pop\n      jump\t// out\n        /* \"#utility.yul\":21756:21912   */\n    tag_458:\n        /* \"#utility.yul\":21896:21904   */\n      0x4e6f204554480000000000000000000000000000000000000000000000000000\n        /* \"#utility.yul\":21892:21893   */\n      0x00\n        /* \"#utility.yul\":21884:21890   */\n      dup3\n        /* \"#utility.yul\":21880:21894   */\n      add\n        /* \"#utility.yul\":21873:21905   */\n      mstore\n        /* \"#utility.yul\":21756:21912   */\n      pop\n      jump\t// out\n        /* \"#utility.yul\":21918:22283   */\n    tag_459:\n        /* \"#utility.yul\":22060:22063   */\n      0x00\n        /* \"#utility.yul\":22081:22147   */\n      tag_648\n        /* \"#utility.yul\":22145:22146   */\n      0x06\n        /* \"#utility.yul\":22140:22143   */\n      dup4\n        /* \"#utility.yul\":22081:22147   */\n      tag_404\n      jump\t// in\n    tag_648:\n        /* \"#utility.yul\":22074:22147   */\n      swap2\n      pop\n        /* \"#utility.yul\":22156:22249   */\n      tag_649\n        /* \"#utility.yul\":22245:22248   */\n      dup3\n        /* \"#utility.yul\":22156:22249   */\n      tag_458\n      jump\t// in\n    tag_649:\n        /* \"#utility.yul\":22274:22276   */\n      0x20\n        /* \"#utility.yul\":22269:22272   */\n      dup3\n        /* \"#utility.yul\":22265:22277   */\n      add\n        /* \"#utility.yul\":22258:22277   */\n      swap1\n      pop\n        /* \"#utility.yul\":21918:22283   */\n      swap2\n      swap1\n      pop\n      jump\t// out\n        /* \"#utility.yul\":22289:22708   */\n    tag_303:\n        /* \"#utility.yul\":22455:22459   */\n      0x00\n        /* \"#utility.yul\":22493:22495   */\n      0x20\n        /* \"#utility.yul\":22482:22491   */\n      dup3\n        /* \"#utility.yul\":22478:22496   */\n      add\n        /* \"#utility.yul\":22470:22496   */\n      swap1\n      pop\n        /* \"#utility.yul\":22542:22551   */\n      dup2\n        /* \"#utility.yul\":22536:22540   */\n      dup2\n        /* \"#utility.yul\":22532:22552   */\n      sub\n        /* \"#utility.yul\":22528:22529   */\n      0x00\n        /* \"#utility.yul\":22517:22526   */\n      dup4\n        /* \"#utility.yul\":22513:22530   */\n      add\n        /* \"#utility.yul\":22506:22553   */\n      mstore\n        /* \"#utility.yul\":22570:22701   */\n      tag_651\n        /* \"#utility.yul\":22696:22700   */\n      dup2\n        /* \"#utility.yul\":22570:22701   */\n      tag_459\n      jump\t// in\n    tag_651:\n        /* \"#utility.yul\":22562:22701   */\n      swap1\n      pop\n        /* \"#utility.yul\":22289:22708   */\n      swap2\n      swap1\n      pop\n      jump\t// out\n        /* \"#utility.yul\":22714:22881   */\n    tag_460:\n        /* \"#utility.yul\":22854:22873   */\n      0x41756374696f6e206e6f7420656e646564000000000000000000000000000000\n        /* \"#utility.yul\":22850:22851   */\n      0x00\n        /* \"#utility.yul\":22842:22848   */\n      dup3\n        /* \"#utility.yul\":22838:22852   */\n      add\n        /* \"#utility.yul\":22831:22874   */\n      mstore\n        /* \"#utility.yul\":22714:22881   */\n      pop\n      jump\t// out\n        /* \"#utility.yul\":22887:23253   */\n    tag_461:\n        /* \"#utility.yul\":23029:23032   */\n      0x00\n        /* \"#utility.yul\":23050:23117   */\n      tag_654\n        /* \"#utility.yul\":23114:23116   */\n      0x11\n        /* \"#utility.yul\":23109:23112   */\n      dup4\n        /* \"#utility.yul\":23050:23117   */\n      tag_404\n      jump\t// in\n    tag_654:\n        /* \"#utility.yul\":23043:23117   */\n      swap2\n      pop\n        /* \"#utility.yul\":23126:23219   */\n      tag_655\n        /* \"#utility.yul\":23215:23218   */\n      dup3\n        /* \"#utility.yul\":23126:23219   */\n      tag_460\n      jump\t// in\n    tag_655:\n        /* \"#utility.yul\":23244:23246   */\n      0x20\n        /* \"#utility.yul\":23239:23242   */\n      dup3\n        /* \"#utility.yul\":23235:23247   */\n      add\n        /* \"#utility.yul\":23228:23247   */\n      swap1\n      pop\n        /* \"#utility.yul\":22887:23253   */\n      swap2\n      swap1\n      pop\n      jump\t// out\n        /* \"#utility.yul\":23259:23678   */\n    tag_322:\n        /* \"#utility.yul\":23425:23429   */\n      0x00\n        /* \"#utility.yul\":23463:23465   */\n      0x20\n        /* \"#utility.yul\":23452:23461   */\n      dup3\n        /* \"#utility.yul\":23448:23466   */\n      add\n        /* \"#utility.yul\":23440:23466   */\n      swap1\n      pop\n        /* \"#utility.yul\":23512:23521   */\n      dup2\n        /* \"#utility.yul\":23506:23510   */\n      dup2\n        /* \"#utility.yul\":23502:23522   */\n      sub\n        /* \"#utility.yul\":23498:23499   */\n      0x00\n        /* \"#utility.yul\":23487:23496   */\n      dup4\n        /* \"#utility.yul\":23483:23500   */\n      add\n        /* \"#utility.yul\":23476:23523   */\n      mstore\n        /* \"#utility.yul\":23540:23671   */\n      tag_657\n        /* \"#utility.yul\":23666:23670   */\n      dup2\n        /* \"#utility.yul\":23540:23671   */\n      tag_461\n      jump\t// in\n    tag_657:\n        /* \"#utility.yul\":23532:23671   */\n      swap1\n      pop\n        /* \"#utility.yul\":23259:23678   */\n      swap2\n      swap1\n      pop\n      jump\t// out\n        /* \"#utility.yul\":23684:23864   */\n    tag_328:\n        /* \"#utility.yul\":23732:23809   */\n      0x4e487b7100000000000000000000000000000000000000000000000000000000\n        /* \"#utility.yul\":23729:23730   */\n      0x00\n        /* \"#utility.yul\":23722:23810   */\n      mstore\n        /* \"#utility.yul\":23829:23833   */\n      0x32\n        /* \"#utility.yul\":23826:23827   */\n      0x04\n        /* \"#utility.yul\":23819:23834   */\n      mstore\n        /* \"#utility.yul\":23853:23857   */\n      0x24\n        /* \"#utility.yul\":23850:23851   */\n      0x00\n        /* \"#utility.yul\":23843:23858   */\n      revert\n        /* \"#utility.yul\":23870:24033   */\n    tag_462:\n        /* \"#utility.yul\":24010:24025   */\n      0x416c726561647920656e64656400000000000000000000000000000000000000\n        /* \"#utility.yul\":24006:24007   */\n      0x00\n        /* \"#utility.yul\":23998:24004   */\n      dup3\n        /* \"#utility.yul\":23994:24008   */\n      add\n        /* \"#utility.yul\":23987:24026   */\n      mstore\n        /* \"#utility.yul\":23870:24033   */\n      pop\n      jump\t// out\n        /* \"#utility.yul\":24039:24405   */\n    tag_463:\n        /* \"#utility.yul\":24181:24184   */\n      0x00\n        /* \"#utility.yul\":24202:24269   */\n      tag_661\n        /* \"#utility.yul\":24266:24268   */\n      0x0d\n        /* \"#utility.yul\":24261:24264   */\n      dup4\n        /* \"#utility.yul\":24202:24269   */\n      tag_404\n      jump\t// in\n    tag_661:\n        /* \"#utility.yul\":24195:24269   */\n      swap2\n      pop\n        /* \"#utility.yul\":24278:24371   */\n      tag_662\n        /* \"#utility.yul\":24367:24370   */\n      dup3\n        /* \"#utility.yul\":24278:24371   */\n      tag_462\n      jump\t// in\n    tag_662:\n        /* \"#utility.yul\":24396:24398   */\n      0x20\n        /* \"#utility.yul\":24391:24394   */\n      dup3\n        /* \"#utility.yul\":24387:24399   */\n      add\n        /* \"#utility.yul\":24380:24399   */\n      swap1\n      pop\n        /* \"#utility.yul\":24039:24405   */\n      swap2\n      swap1\n      pop\n      jump\t// out\n        /* \"#utility.yul\":24411:24830   */\n    tag_348:\n        /* \"#utility.yul\":24577:24581   */\n      0x00\n        /* \"#utility.yul\":24615:24617   */\n      0x20\n        /* \"#utility.yul\":24604:24613   */\n      dup3\n        /* \"#utility.yul\":24600:24618   */\n      add\n        /* \"#utility.yul\":24592:24618   */\n      swap1\n      pop\n        /* \"#utility.yul\":24664:24673   */\n      dup2\n        /* \"#utility.yul\":24658:24662   */\n      dup2\n        /* \"#utility.yul\":24654:24674   */\n      sub\n        /* \"#utility.yul\":24650:24651   */\n      0x00\n        /* \"#utility.yul\":24639:24648   */\n      dup4\n        /* \"#utility.yul\":24635:24652   */\n      add\n        /* \"#utility.yul\":24628:24675   */\n      mstore\n        /* \"#utility.yul\":24692:24823   */\n      tag_664\n        /* \"#utility.yul\":24818:24822   */\n      dup2\n        /* \"#utility.yul\":24692:24823   */\n      tag_463\n      jump\t// in\n    tag_664:\n        /* \"#utility.yul\":24684:24823   */\n      swap1\n      pop\n        /* \"#utility.yul\":24411:24830   */\n      swap2\n      swap1\n      pop\n      jump\t// out\n        /* \"#utility.yul\":24836:25168   */\n    tag_388:\n        /* \"#utility.yul\":24957:24961   */\n      0x00\n        /* \"#utility.yul\":24995:24997   */\n      0x40\n        /* \"#utility.yul\":24984:24993   */\n      dup3\n        /* \"#utility.yul\":24980:24998   */\n      add\n        /* \"#utility.yul\":24972:24998   */\n      swap1\n      pop\n        /* \"#utility.yul\":25008:25079   */\n      tag_666\n        /* \"#utility.yul\":25076:25077   */\n      0x00\n        /* \"#utility.yul\":25065:25074   */\n      dup4\n        /* \"#utility.yul\":25061:25078   */\n      add\n        /* \"#utility.yul\":25052:25058   */\n      dup6\n        /* \"#utility.yul\":25008:25079   */\n      tag_415\n      jump\t// in\n    tag_666:\n        /* \"#utility.yul\":25089:25161   */\n      tag_667\n        /* \"#utility.yul\":25157:25159   */\n      0x20\n        /* \"#utility.yul\":25146:25155   */\n      dup4\n        /* \"#utility.yul\":25142:25160   */\n      add\n        /* \"#utility.yul\":25133:25139   */\n      dup5\n        /* \"#utility.yul\":25089:25161   */\n      tag_415\n      jump\t// in\n    tag_667:\n        /* \"#utility.yul\":24836:25168   */\n      swap4\n      swap3\n      pop\n      pop\n      pop\n      jump\t// out\n        /* \"#utility.yul\":25174:25321   */\n    tag_464:\n        /* \"#utility.yul\":25275:25286   */\n      0x00\n        /* \"#utility.yul\":25312:25315   */\n      dup2\n        /* \"#utility.yul\":25297:25315   */\n      swap1\n      pop\n        /* \"#utility.yul\":25174:25321   */\n      swap3\n      swap2\n      pop\n      pop\n      jump\t// out\n        /* \"#utility.yul\":25327:25441   */\n    tag_465:\n      pop\n      jump\t// out\n        /* \"#utility.yul\":25447:25845   */\n    tag_466:\n        /* \"#utility.yul\":25606:25609   */\n      0x00\n        /* \"#utility.yul\":25627:25710   */\n      tag_671\n        /* \"#utility.yul\":25708:25709   */\n      0x00\n        /* \"#utility.yul\":25703:25706   */\n      dup4\n        /* \"#utility.yul\":25627:25710   */\n      tag_464\n      jump\t// in\n    tag_671:\n        /* \"#utility.yul\":25620:25710   */\n      swap2\n      pop\n        /* \"#utility.yul\":25719:25812   */\n      tag_672\n        /* \"#utility.yul\":25808:25811   */\n      dup3\n        /* \"#utility.yul\":25719:25812   */\n      tag_465\n      jump\t// in\n    tag_672:\n        /* \"#utility.yul\":25837:25838   */\n      0x00\n        /* \"#utility.yul\":25832:25835   */\n      dup3\n        /* \"#utility.yul\":25828:25839   */\n      add\n        /* \"#utility.yul\":25821:25839   */\n      swap1\n      pop\n        /* \"#utility.yul\":25447:25845   */\n      swap2\n      swap1\n      pop\n      jump\t// out\n        /* \"#utility.yul\":25851:26230   */\n    tag_390:\n        /* \"#utility.yul\":26035:26038   */\n      0x00\n        /* \"#utility.yul\":26057:26204   */\n      tag_674\n        /* \"#utility.yul\":26200:26203   */\n      dup3\n        /* \"#utility.yul\":26057:26204   */\n      tag_466\n      jump\t// in\n    tag_674:\n        /* \"#utility.yul\":26050:26204   */\n      swap2\n      pop\n        /* \"#utility.yul\":26221:26224   */\n      dup2\n        /* \"#utility.yul\":26214:26224   */\n      swap1\n      pop\n        /* \"#utility.yul\":25851:26230   */\n      swap2\n      swap1\n      pop\n      jump\t// out\n\n    auxdata: 0xa26469706673582212205e26d3ef436b35fa762f46d97b55dce47332219a3dd641c2d53f36d53ed0096e64736f6c634300081e0033\n}\n",
				"bytecode": {
					"linkReferences": {},
					"object": "608060405234801561000f575f5ffd5b50604051612fce380380612fce833981810160405281019061003191906102e8565b3360015f819055505f73ffffffffffffffffffffffffffffffffffffffff168173ffffffffffffffffffffffffffffffffffffffff16036100a9575f6040517f1e4fbdf70000000000000000000000000000000000000000000000000000000081526004016100a09190610365565b60405180910390fd5b6100b8816101ee60201b60201c565b505f81116100fb576040517f08c379a00000000000000000000000000000000000000000000000000000000081526004016100f2906103d8565b60405180910390fd5b42821161013d576040517f08c379a000000000000000000000000000000000000000000000000000000000815260040161013490610440565b60405180910390fd5b61a8c0811115610182576040517f08c379a0000000000000000000000000000000000000000000000000000000008152600401610179906104a8565b60405180910390fd5b3360025f6101000a81548173ffffffffffffffffffffffffffffffffffffffff021916908373ffffffffffffffffffffffffffffffffffffffff16021790555081600581905550603c816101d691906104f3565b826101e19190610534565b6006819055505050610567565b5f60015f9054906101000a900473ffffffffffffffffffffffffffffffffffffffff1690508160015f6101000a81548173ffffffffffffffffffffffffffffffffffffffff021916908373ffffffffffffffffffffffffffffffffffffffff1602179055508173ffffffffffffffffffffffffffffffffffffffff168173ffffffffffffffffffffffffffffffffffffffff167f8be0079c531659141344cd1fd0a4f28419497f9722a3daafe3b4186f6b6457e060405160405180910390a35050565b5f5ffd5b5f819050919050565b6102c7816102b5565b81146102d1575f5ffd5b50565b5f815190506102e2816102be565b92915050565b5f5f604083850312156102fe576102fd6102b1565b5b5f61030b858286016102d4565b925050602061031c858286016102d4565b9150509250929050565b5f73ffffffffffffffffffffffffffffffffffffffff82169050919050565b5f61034f82610326565b9050919050565b61035f81610345565b82525050565b5f6020820190506103785f830184610356565b92915050565b5f82825260208201905092915050565b7f496e76616c6964206475726174696f6e000000000000000000000000000000005f82015250565b5f6103c260108361037e565b91506103cd8261038e565b602082019050919050565b5f6020820190508181035f8301526103ef816103b6565b9050919050565b7f496e76616c6964207374617274000000000000000000000000000000000000005f82015250565b5f61042a600d8361037e565b9150610435826103f6565b602082019050919050565b5f6020820190508181035f8301526104578161041e565b9050919050565b7f546f6f206c6f6e670000000000000000000000000000000000000000000000005f82015250565b5f61049260088361037e565b915061049d8261045e565b602082019050919050565b5f6020820190508181035f8301526104bf81610486565b9050919050565b7f4e487b71000000000000000000000000000000000000000000000000000000005f52601160045260245ffd5b5f6104fd826102b5565b9150610508836102b5565b9250828202610516816102b5565b9150828204841483151761052d5761052c6104c6565b5b5092915050565b5f61053e826102b5565b9150610549836102b5565b9250828201905080821115610561576105606104c6565b5b92915050565b612a5a806105745f395ff3fe6080604052600436106101d0575f3560e01c80637eb79d5d116100f6578063cc6bee5411610094578063f2fde38b11610063578063f2fde38b146105f8578063f4668c6c14610620578063fc7e286d14610636578063fe67a54b1461067257610210565b8063cc6bee5414610564578063d54a8d181461058e578063d57bde79146105b8578063db2e21bc146105e257610210565b80638da5cb5b116100d05780638da5cb5b146104bb5780638f9cfe70146104e557806391f901571461050f578063b7e032641461053957610210565b80637eb79d5d1461043d5780638456cb59146104675780638a72ea6a1461047d57610210565b8063476343ee1161016e5780635c975abb1161013d5780635c975abb146103a9578063654e4685146103d3578063715018a6146103fd57806378e979251461041357610210565b8063476343ee146103155780635230a4c31461032b578063534823bf146103555780635681104a1461037f57610210565b80631998aeef116101aa5780631998aeef146102b55780633197cbb6146102bf57806336c2780b146102e95780633f4ba83a146102ff57610210565b806308551a531461024b578063117df0881461027557806312fa6feb1461028b57610210565b36610210576040517f08c379a000000000000000000000000000000000000000000000000000000000815260040161020790611f03565b60405180910390fd5b6040517f08c379a000000000000000000000000000000000000000000000000000000000815260040161024290611f6b565b60405180910390fd5b348015610256575f5ffd5b5061025f610688565b60405161026c9190611fc8565b60405180910390f35b348015610280575f5ffd5b506102896106ad565b005b348015610296575f5ffd5b5061029f6108f0565b6040516102ac9190611ffb565b60405180910390f35b6102bd610902565b005b3480156102ca575f5ffd5b506102d3610d0d565b6040516102e0919061202c565b60405180910390f35b3480156102f4575f5ffd5b506102fd610d13565b005b34801561030a575f5ffd5b50610313610faa565b005b348015610320575f5ffd5b50610329610fbc565b005b348015610336575f5ffd5b5061033f6110d8565b60405161034c919061202c565b60405180910390f35b348015610360575f5ffd5b506103696110dd565b604051610376919061215c565b60405180910390f35b34801561038a575f5ffd5b506103936111a1565b6040516103a0919061202c565b60405180910390f35b3480156103b4575f5ffd5b506103bd6111a7565b6040516103ca9190611ffb565b60405180910390f35b3480156103de575f5ffd5b506103e76111bd565b6040516103f4919061202c565b60405180910390f35b348015610408575f5ffd5b506104116111c2565b005b34801561041e575f5ffd5b506104276111d5565b604051610434919061202c565b60405180910390f35b348015610448575f5ffd5b506104516111db565b60405161045e919061202c565b60405180910390f35b348015610472575f5ffd5b5061047b6111e1565b005b348015610488575f5ffd5b506104a3600480360381019061049e91906121aa565b6111f3565b6040516104b2939291906121e4565b60405180910390f35b3480156104c6575f5ffd5b506104cf611247565b6040516104dc9190612219565b60405180910390f35b3480156104f0575f5ffd5b506104f961126f565b604051610506919061202c565b60405180910390f35b34801561051a575f5ffd5b506105236112b3565b6040516105309190612219565b60405180910390f35b348015610544575f5ffd5b5061054d6112d8565b60405161055b929190612232565b60405180910390f35b34801561056f575f5ffd5b50610578611362565b604051610585919061202c565b60405180910390f35b348015610599575f5ffd5b506105a261136e565b6040516105af919061202c565b60405180910390f35b3480156105c3575f5ffd5b506105cc611406565b6040516105d9919061202c565b60405180910390f35b3480156105ed575f5ffd5b506105f661140c565b005b348015610603575f5ffd5b5061061e60048036038101906106199190612283565b6114d6565b005b34801561062b575f5ffd5b5061063461155a565b005b348015610641575f5ffd5b5061065c60048036038101906106579190612283565b611807565b604051610669919061202c565b60405180910390f35b34801561067d575f5ffd5b5061068661181c565b005b60025f9054906101000a900473ffffffffffffffffffffffffffffffffffffffff1681565b600654421015806106c9575060075f9054906101000a900460ff165b610708576040517f08c379a00000000000000000000000000000000000000000000000000000000081526004016106ff906122f8565b60405180910390fd5b60035f9054906101000a900473ffffffffffffffffffffffffffffffffffffffff1673ffffffffffffffffffffffffffffffffffffffff163373ffffffffffffffffffffffffffffffffffffffff1603610797576040517f08c379a000000000000000000000000000000000000000000000000000000000815260040161078e90612360565b60405180910390fd5b61079f611a5f565b5f60095f3373ffffffffffffffffffffffffffffffffffffffff1673ffffffffffffffffffffffffffffffffffffffff1681526020019081526020015f205490505f8111610822576040517f08c379a0000000000000000000000000000000000000000000000000000000008152600401610819906123c8565b60405180910390fd5b5f60095f3373ffffffffffffffffffffffffffffffffffffffff1673ffffffffffffffffffffffffffffffffffffffff1681526020019081526020015f20819055505f5f61086f83611aa3565b9150915081600b5f8282546108849190612413565b925050819055506108953382611ad3565b3373ffffffffffffffffffffffffffffffffffffffff167f7fcf532c15f0a6db0bd6d0e038bea71d30d808c7d98cb3bf7268a95bf5081b65826040516108db919061202c565b60405180910390a25050506108ee611b00565b565b60075f9054906101000a900460ff1681565b60075f9054906101000a900460ff1615610951576040517f08c379a000000000000000000000000000000000000000000000000000000000815260040161094890612490565b60405180910390fd5b600554421015610996576040517f08c379a000000000000000000000000000000000000000000000000000000000815260040161098d906124f8565b60405180910390fd5b60065442106109da576040517f08c379a00000000000000000000000000000000000000000000000000000000081526004016109d190612560565b60405180910390fd5b6109e2611a5f565b6109ea611b09565b5f3411610a2c576040517f08c379a0000000000000000000000000000000000000000000000000000000008152600401610a23906125c8565b60405180910390fd5b5f3460095f3373ffffffffffffffffffffffffffffffffffffffff1673ffffffffffffffffffffffffffffffffffffffff1681526020019081526020015f2054610a769190612413565b90505f5f60045414610aa25760646069600454610a9391906125e6565b610a9d9190612654565b610aa4565b5f5b9050808211610ae8576040517f08c379a0000000000000000000000000000000000000000000000000000000008152600401610adf906126ce565b60405180910390fd5b3460095f3373ffffffffffffffffffffffffffffffffffffffff1673ffffffffffffffffffffffffffffffffffffffff1681526020019081526020015f205f828254610b349190612413565b92505081905550600860405180606001604052803373ffffffffffffffffffffffffffffffffffffffff16815260200134815260200142815250908060018154018082558091505060019003905f5260205f2090600302015f909190919091505f820151815f015f6101000a81548173ffffffffffffffffffffffffffffffffffffffff021916908373ffffffffffffffffffffffffffffffffffffffff160217905550602082015181600101556040820151816002015550506001600880549050610c0091906126ec565b600a5f3373ffffffffffffffffffffffffffffffffffffffff1673ffffffffffffffffffffffffffffffffffffffff1681526020019081526020015f2081905550816004819055503360035f6101000a81548173ffffffffffffffffffffffffffffffffffffffff021916908373ffffffffffffffffffffffffffffffffffffffff16021790555061025842600654610c9991906126ec565b11610cb35761025842610cac9190612413565b6006819055505b3373ffffffffffffffffffffffffffffffffffffffff167f058d619527549e88853c641ebcec23205e5df61592e3908275721b5ad490113f83604051610cf9919061202c565b60405180910390a25050610d0b611b00565b565b60065481565b60075f9054906101000a900460ff1615610d62576040517f08c379a0000000000000000000000000000000000000000000000000000000008152600401610d5990612490565b60405180910390fd5b600554421015610da7576040517f08c379a0000000000000000000000000000000000000000000000000000000008152600401610d9e906124f8565b60405180910390fd5b6006544210610deb576040517f08c379a0000000000000000000000000000000000000000000000000000000008152600401610de290612560565b60405180910390fd5b610df3611a5f565b60035f9054906101000a900473ffffffffffffffffffffffffffffffffffffffff1673ffffffffffffffffffffffffffffffffffffffff163373ffffffffffffffffffffffffffffffffffffffff1603610e82576040517f08c379a0000000000000000000000000000000000000000000000000000000008152600401610e7990612360565b60405180910390fd5b5f60095f3373ffffffffffffffffffffffffffffffffffffffff1673ffffffffffffffffffffffffffffffffffffffff1681526020019081526020015f205490505f8111610f05576040517f08c379a0000000000000000000000000000000000000000000000000000000008152600401610efc906123c8565b60405180910390fd5b5f60095f3373ffffffffffffffffffffffffffffffffffffffff1673ffffffffffffffffffffffffffffffffffffffff1681526020019081526020015f2081905550610f513382611ad3565b3373ffffffffffffffffffffffffffffffffffffffff167f7fcf532c15f0a6db0bd6d0e038bea71d30d808c7d98cb3bf7268a95bf5081b6582604051610f97919061202c565b60405180910390a250610fa8611b00565b565b610fb2611b4a565b610fba611bd1565b565b60025f9054906101000a900473ffffffffffffffffffffffffffffffffffffffff1673ffffffffffffffffffffffffffffffffffffffff163373ffffffffffffffffffffffffffffffffffffffff161461104b576040517f08c379a000000000000000000000000000000000000000000000000000000000815260040161104290612769565b60405180910390fd5b611053611a5f565b5f600b5490505f811161109b576040517f08c379a0000000000000000000000000000000000000000000000000000000008152600401611092906127d1565b60405180910390fd5b5f600b819055506110cd60025f9054906101000a900473ffffffffffffffffffffffffffffffffffffffff1682611ad3565b506110d6611b00565b565b600281565b60606008805480602002602001604051908101604052809291908181526020015f905b82821015611198578382905f5260205f2090600302016040518060600160405290815f82015f9054906101000a900473ffffffffffffffffffffffffffffffffffffffff1673ffffffffffffffffffffffffffffffffffffffff1673ffffffffffffffffffffffffffffffffffffffff1681526020016001820154815260200160028201548152505081526020019060010190611100565b50505050905090565b61025881565b5f600160149054906101000a900460ff16905090565b606981565b6111ca611b4a565b6111d35f611c33565b565b60055481565b61025881565b6111e9611b4a565b6111f1611cf6565b565b60088181548110611202575f80fd5b905f5260205f2090600302015f91509050805f015f9054906101000a900473ffffffffffffffffffffffffffffffffffffffff16908060010154908060020154905083565b5f60015f9054906101000a900473ffffffffffffffffffffffffffffffffffffffff16905090565b5f600a5f3373ffffffffffffffffffffffffffffffffffffffff1673ffffffffffffffffffffffffffffffffffffffff1681526020019081526020015f2054905090565b60035f9054906101000a900473ffffffffffffffffffffffffffffffffffffffff1681565b5f5f600654421015806112f6575060075f9054906101000a900460ff165b611335576040517f08c379a000000000000000000000000000000000000000000000000000000000815260040161132c906122f8565b60405180910390fd5b60035f9054906101000a900473ffffffffffffffffffffffffffffffffffffffff16600454915091509091565b5f600880549050905090565b5f60025f9054906101000a900473ffffffffffffffffffffffffffffffffffffffff1673ffffffffffffffffffffffffffffffffffffffff163373ffffffffffffffffffffffffffffffffffffffff16146113fe576040517f08c379a00000000000000000000000000000000000000000000000000000000081526004016113f590612769565b60405180910390fd5b600b54905090565b60045481565b611414611b4a565b60075f9054906101000a900460ff16611462576040517f08c379a000000000000000000000000000000000000000000000000000000000815260040161145990612839565b60405180910390fd5b5f4790505f81116114a8576040517f08c379a000000000000000000000000000000000000000000000000000000000815260040161149f906128a1565b60405180910390fd5b6114d360025f9054906101000a900473ffffffffffffffffffffffffffffffffffffffff1682611ad3565b50565b6114de611b4a565b5f73ffffffffffffffffffffffffffffffffffffffff168173ffffffffffffffffffffffffffffffffffffffff160361154e575f6040517f1e4fbdf70000000000000000000000000000000000000000000000000000000081526004016115459190612219565b60405180910390fd5b61155781611c33565b50565b611562611b4a565b6006544210158061157e575060075f9054906101000a900460ff165b6115bd576040517f08c379a00000000000000000000000000000000000000000000000000000000081526004016115b4906122f8565b60405180910390fd5b6115c5611a5f565b60075f9054906101000a900460ff16611613576040517f08c379a000000000000000000000000000000000000000000000000000000000815260040161160a90612909565b60405180910390fd5b5f60088054905090505f5f5f5f5f5f90505b858110156117f7576008818154811061164157611640612927565b5b905f5260205f2090600302015f015f9054906101000a900473ffffffffffffffffffffffffffffffffffffffff16945060035f9054906101000a900473ffffffffffffffffffffffffffffffffffffffff1673ffffffffffffffffffffffffffffffffffffffff168573ffffffffffffffffffffffffffffffffffffffff1603156117ea5760095f8673ffffffffffffffffffffffffffffffffffffffff1673ffffffffffffffffffffffffffffffffffffffff1681526020019081526020015f205493505f8403156117ea57606460028561171d91906125e6565b6117279190612654565b9250828461173591906126ec565b91505f60095f8773ffffffffffffffffffffffffffffffffffffffff1673ffffffffffffffffffffffffffffffffffffffff1681526020019081526020015f208190555082600b5f82825461178a9190612413565b9250508190555061179b8583611ad3565b8473ffffffffffffffffffffffffffffffffffffffff167f7fcf532c15f0a6db0bd6d0e038bea71d30d808c7d98cb3bf7268a95bf5081b65836040516117e1919061202c565b60405180910390a25b8080600101915050611625565b505050505050611805611b00565b565b6009602052805f5260405f205f915090505481565b60065442101580611838575060075f9054906101000a900460ff165b611877576040517f08c379a000000000000000000000000000000000000000000000000000000000815260040161186e906122f8565b60405180910390fd5b61187f611a5f565b60075f9054906101000a900460ff16156118ce576040517f08c379a00000000000000000000000000000000000000000000000000000000081526004016118c59061299e565b60405180910390fd5b600160075f6101000a81548160ff02191690831515021790555060035f9054906101000a900473ffffffffffffffffffffffffffffffffffffffff1673ffffffffffffffffffffffffffffffffffffffff167fdaec4582d5d9595688c8c98545fdd1c696d41c6aeaeb636737e84ed2f5c00eda600454604051611951919061202c565b60405180910390a25f6004541115611a55575f60095f60035f9054906101000a900473ffffffffffffffffffffffffffffffffffffffff1673ffffffffffffffffffffffffffffffffffffffff1673ffffffffffffffffffffffffffffffffffffffff1681526020019081526020015f205490505f60095f60035f9054906101000a900473ffffffffffffffffffffffffffffffffffffffff1673ffffffffffffffffffffffffffffffffffffffff1673ffffffffffffffffffffffffffffffffffffffff1681526020019081526020015f2081905550611a5360025f9054906101000a900473ffffffffffffffffffffffffffffffffffffffff1682611ad3565b505b611a5d611b00565b565b60025f5403611a9a576040517f3ee5aeb500000000000000000000000000000000000000000000000000000000815260040160405180910390fd5b60025f81905550565b5f5f6064600284611ab491906125e6565b611abe9190612654565b91508183611acc91906126ec565b9050915091565b611afc818373ffffffffffffffffffffffffffffffffffffffff16611d5890919063ffffffff16565b5050565b60015f81905550565b611b116111a7565b15611b48576040517fd93c066500000000000000000000000000000000000000000000000000000000815260040160405180910390fd5b565b611b52611e1e565b73ffffffffffffffffffffffffffffffffffffffff16611b70611247565b73ffffffffffffffffffffffffffffffffffffffff1614611bcf57611b93611e1e565b6040517f118cdaa7000000000000000000000000000000000000000000000000000000008152600401611bc69190612219565b60405180910390fd5b565b611bd9611e25565b5f600160146101000a81548160ff0219169083151502179055507f5db9ee0a495bf2e6ff9c91a7834c1ba4fdd244a5e8aa4e537bd38aeae4b073aa611c1c611e1e565b604051611c299190612219565b60405180910390a1565b5f60015f9054906101000a900473ffffffffffffffffffffffffffffffffffffffff1690508160015f6101000a81548173ffffffffffffffffffffffffffffffffffffffff021916908373ffffffffffffffffffffffffffffffffffffffff1602179055508173ffffffffffffffffffffffffffffffffffffffff168173ffffffffffffffffffffffffffffffffffffffff167f8be0079c531659141344cd1fd0a4f28419497f9722a3daafe3b4186f6b6457e060405160405180910390a35050565b611cfe611b09565b60018060146101000a81548160ff0219169083151502179055507f62e78cea01bee320cd4e420270b5ea74000d11b0c9f74754ebdbfc544b05a258611d41611e1e565b604051611d4e9190612219565b60405180910390a1565b80471015611d9f5747816040517fcf479181000000000000000000000000000000000000000000000000000000008152600401611d969291906129bc565b60405180910390fd5b5f5f8373ffffffffffffffffffffffffffffffffffffffff1683604051611dc590612a10565b5f6040518083038185875af1925050503d805f8114611dff576040519150601f19603f3d011682016040523d82523d5f602084013e611e04565b606091505b509150915081611e1857611e1781611e65565b5b50505050565b5f33905090565b611e2d6111a7565b611e63576040517f8dfc202b00000000000000000000000000000000000000000000000000000000815260040160405180910390fd5b565b5f81511115611e775780518082602001fd5b6040517fd6bda27500000000000000000000000000000000000000000000000000000000815260040160405180910390fd5b5f82825260208201905092915050565b7f55736520626964282900000000000000000000000000000000000000000000005f82015250565b5f611eed600983611ea9565b9150611ef882611eb9565b602082019050919050565b5f6020820190508181035f830152611f1a81611ee1565b9050919050565b7f496e76616c69642063616c6c00000000000000000000000000000000000000005f82015250565b5f611f55600c83611ea9565b9150611f6082611f21565b602082019050919050565b5f6020820190508181035f830152611f8281611f49565b9050919050565b5f73ffffffffffffffffffffffffffffffffffffffff82169050919050565b5f611fb282611f89565b9050919050565b611fc281611fa8565b82525050565b5f602082019050611fdb5f830184611fb9565b92915050565b5f8115159050919050565b611ff581611fe1565b82525050565b5f60208201905061200e5f830184611fec565b92915050565b5f819050919050565b61202681612014565b82525050565b5f60208201905061203f5f83018461201d565b92915050565b5f81519050919050565b5f82825260208201905092915050565b5f819050602082019050919050565b5f61207882611f89565b9050919050565b6120888161206e565b82525050565b61209781612014565b82525050565b606082015f8201516120b15f85018261207f565b5060208201516120c4602085018261208e565b5060408201516120d7604085018261208e565b50505050565b5f6120e8838361209d565b60608301905092915050565b5f602082019050919050565b5f61210a82612045565b612114818561204f565b935061211f8361205f565b805f5b8381101561214f57815161213688826120dd565b9750612141836120f4565b925050600181019050612122565b5085935050505092915050565b5f6020820190508181035f8301526121748184612100565b905092915050565b5f5ffd5b61218981612014565b8114612193575f5ffd5b50565b5f813590506121a481612180565b92915050565b5f602082840312156121bf576121be61217c565b5b5f6121cc84828501612196565b91505092915050565b6121de8161206e565b82525050565b5f6060820190506121f75f8301866121d5565b612204602083018561201d565b612211604083018461201d565b949350505050565b5f60208201905061222c5f8301846121d5565b92915050565b5f6040820190506122455f8301856121d5565b612252602083018461201d565b9392505050565b6122628161206e565b811461226c575f5ffd5b50565b5f8135905061227d81612259565b92915050565b5f602082840312156122985761229761217c565b5b5f6122a58482850161226f565b91505092915050565b7f4e6f7420656e64656400000000000000000000000000000000000000000000005f82015250565b5f6122e2600983611ea9565b91506122ed826122ae565b602082019050919050565b5f6020820190508181035f83015261230f816122d6565b9050919050565b7f57696e6e65722063616e6e6f74207769746864726177000000000000000000005f82015250565b5f61234a601683611ea9565b915061235582612316565b602082019050919050565b5f6020820190508181035f8301526123778161233e565b9050919050565b7f4e6f2066756e64730000000000000000000000000000000000000000000000005f82015250565b5f6123b2600883611ea9565b91506123bd8261237e565b602082019050919050565b5f6020820190508181035f8301526123df816123a6565b9050919050565b7f4e487b71000000000000000000000000000000000000000000000000000000005f52601160045260245ffd5b5f61241d82612014565b915061242883612014565b92508282019050808211156124405761243f6123e6565b5b92915050565b7f41756374696f6e20656e646564000000000000000000000000000000000000005f82015250565b5f61247a600d83611ea9565b915061248582612446565b602082019050919050565b5f6020820190508181035f8301526124a78161246e565b9050919050565b7f4e6f7420737461727465640000000000000000000000000000000000000000005f82015250565b5f6124e2600b83611ea9565b91506124ed826124ae565b602082019050919050565b5f6020820190508181035f83015261250f816124d6565b9050919050565b7f54696d65206578706972656400000000000000000000000000000000000000005f82015250565b5f61254a600c83611ea9565b915061255582612516565b602082019050919050565b5f6020820190508181035f8301526125778161253e565b9050919050565b7f5a65726f206269640000000000000000000000000000000000000000000000005f82015250565b5f6125b2600883611ea9565b91506125bd8261257e565b602082019050919050565b5f6020820190508181035f8301526125df816125a6565b9050919050565b5f6125f082612014565b91506125fb83612014565b925082820261260981612014565b915082820484148315176126205761261f6123e6565b5b5092915050565b7f4e487b71000000000000000000000000000000000000000000000000000000005f52601260045260245ffd5b5f61265e82612014565b915061266983612014565b92508261267957612678612627565b5b828204905092915050565b7f42696420746f6f206c6f770000000000000000000000000000000000000000005f82015250565b5f6126b8600b83611ea9565b91506126c382612684565b602082019050919050565b5f6020820190508181035f8301526126e5816126ac565b9050919050565b5f6126f682612014565b915061270183612014565b9250828203905081811115612719576127186123e6565b5b92915050565b7f4e6f742073656c6c6572000000000000000000000000000000000000000000005f82015250565b5f612753600a83611ea9565b915061275e8261271f565b602082019050919050565b5f6020820190508181035f83015261278081612747565b9050919050565b7f4e6f2066656573000000000000000000000000000000000000000000000000005f82015250565b5f6127bb600783611ea9565b91506127c682612787565b602082019050919050565b5f6020820190508181035f8301526127e8816127af565b9050919050565b7f41756374696f6e206163746976650000000000000000000000000000000000005f82015250565b5f612823600e83611ea9565b915061282e826127ef565b602082019050919050565b5f6020820190508181035f83015261285081612817565b9050919050565b7f4e6f2045544800000000000000000000000000000000000000000000000000005f82015250565b5f61288b600683611ea9565b915061289682612857565b602082019050919050565b5f6020820190508181035f8301526128b88161287f565b9050919050565b7f41756374696f6e206e6f7420656e6465640000000000000000000000000000005f82015250565b5f6128f3601183611ea9565b91506128fe826128bf565b602082019050919050565b5f6020820190508181035f830152612920816128e7565b9050919050565b7f4e487b71000000000000000000000000000000000000000000000000000000005f52603260045260245ffd5b7f416c726561647920656e646564000000000000000000000000000000000000005f82015250565b5f612988600d83611ea9565b915061299382612954565b602082019050919050565b5f6020820190508181035f8301526129b58161297c565b9050919050565b5f6040820190506129cf5f83018561201d565b6129dc602083018461201d565b9392505050565b5f81905092915050565b50565b5f6129fb5f836129e3565b9150612a06826129ed565b5f82019050919050565b5f612a1a826129f0565b915081905091905056fea26469706673582212205e26d3ef436b35fa762f46d97b55dce47332219a3dd641c2d53f36d53ed0096e64736f6c634300081e0033",
					"opcodes": "PUSH1 0x80 PUSH1 0x40 MSTORE CALLVALUE DUP1 ISZERO PUSH2 0xF JUMPI PUSH0 PUSH0 REVERT JUMPDEST POP PUSH1 0x40 MLOAD PUSH2 0x2FCE CODESIZE SUB DUP1 PUSH2 0x2FCE DUP4 CODECOPY DUP2 DUP2 ADD PUSH1 0x40 MSTORE DUP2 ADD SWAP1 PUSH2 0x31 SWAP2 SWAP1 PUSH2 0x2E8 JUMP JUMPDEST CALLER PUSH1 0x1 PUSH0 DUP2 SWAP1 SSTORE POP PUSH0 PUSH20 0xFFFFFFFFFFFFFFFFFFFFFFFFFFFFFFFFFFFFFFFF AND DUP2 PUSH20 0xFFFFFFFFFFFFFFFFFFFFFFFFFFFFFFFFFFFFFFFF AND SUB PUSH2 0xA9 JUMPI PUSH0 PUSH1 0x40 MLOAD PUSH32 0x1E4FBDF700000000000000000000000000000000000000000000000000000000 DUP2 MSTORE PUSH1 0x4 ADD PUSH2 0xA0 SWAP2 SWAP1 PUSH2 0x365 JUMP JUMPDEST PUSH1 0x40 MLOAD DUP1 SWAP2 SUB SWAP1 REVERT JUMPDEST PUSH2 0xB8 DUP2 PUSH2 0x1EE PUSH1 0x20 SHL PUSH1 0x20 SHR JUMP JUMPDEST POP PUSH0 DUP2 GT PUSH2 0xFB JUMPI PUSH1 0x40 MLOAD PUSH32 0x8C379A000000000000000000000000000000000000000000000000000000000 DUP2 MSTORE PUSH1 0x4 ADD PUSH2 0xF2 SWAP1 PUSH2 0x3D8 JUMP JUMPDEST PUSH1 0x40 MLOAD DUP1 SWAP2 SUB SWAP1 REVERT JUMPDEST TIMESTAMP DUP3 GT PUSH2 0x13D JUMPI PUSH1 0x40 MLOAD PUSH32 0x8C379A000000000000000000000000000000000000000000000000000000000 DUP2 MSTORE PUSH1 0x4 ADD PUSH2 0x134 SWAP1 PUSH2 0x440 JUMP JUMPDEST PUSH1 0x40 MLOAD DUP1 SWAP2 SUB SWAP1 REVERT JUMPDEST PUSH2 0xA8C0 DUP2 GT ISZERO PUSH2 0x182 JUMPI PUSH1 0x40 MLOAD PUSH32 0x8C379A000000000000000000000000000000000000000000000000000000000 DUP2 MSTORE PUSH1 0x4 ADD PUSH2 0x179 SWAP1 PUSH2 0x4A8 JUMP JUMPDEST PUSH1 0x40 MLOAD DUP1 SWAP2 SUB SWAP1 REVERT JUMPDEST CALLER PUSH1 0x2 PUSH0 PUSH2 0x100 EXP DUP2 SLOAD DUP2 PUSH20 0xFFFFFFFFFFFFFFFFFFFFFFFFFFFFFFFFFFFFFFFF MUL NOT AND SWAP1 DUP4 PUSH20 0xFFFFFFFFFFFFFFFFFFFFFFFFFFFFFFFFFFFFFFFF AND MUL OR SWAP1 SSTORE POP DUP2 PUSH1 0x5 DUP2 SWAP1 SSTORE POP PUSH1 0x3C DUP2 PUSH2 0x1D6 SWAP2 SWAP1 PUSH2 0x4F3 JUMP JUMPDEST DUP3 PUSH2 0x1E1 SWAP2 SWAP1 PUSH2 0x534 JUMP JUMPDEST PUSH1 0x6 DUP2 SWAP1 SSTORE POP POP POP PUSH2 0x567 JUMP JUMPDEST PUSH0 PUSH1 0x1 PUSH0 SWAP1 SLOAD SWAP1 PUSH2 0x100 EXP SWAP1 DIV PUSH20 0xFFFFFFFFFFFFFFFFFFFFFFFFFFFFFFFFFFFFFFFF AND SWAP1 POP DUP2 PUSH1 0x1 PUSH0 PUSH2 0x100 EXP DUP2 SLOAD DUP2 PUSH20 0xFFFFFFFFFFFFFFFFFFFFFFFFFFFFFFFFFFFFFFFF MUL NOT AND SWAP1 DUP4 PUSH20 0xFFFFFFFFFFFFFFFFFFFFFFFFFFFFFFFFFFFFFFFF AND MUL OR SWAP1 SSTORE POP DUP2 PUSH20 0xFFFFFFFFFFFFFFFFFFFFFFFFFFFFFFFFFFFFFFFF AND DUP2 PUSH20 0xFFFFFFFFFFFFFFFFFFFFFFFFFFFFFFFFFFFFFFFF AND PUSH32 0x8BE0079C531659141344CD1FD0A4F28419497F9722A3DAAFE3B4186F6B6457E0 PUSH1 0x40 MLOAD PUSH1 0x40 MLOAD DUP1 SWAP2 SUB SWAP1 LOG3 POP POP JUMP JUMPDEST PUSH0 PUSH0 REVERT JUMPDEST PUSH0 DUP2 SWAP1 POP SWAP2 SWAP1 POP JUMP JUMPDEST PUSH2 0x2C7 DUP2 PUSH2 0x2B5 JUMP JUMPDEST DUP2 EQ PUSH2 0x2D1 JUMPI PUSH0 PUSH0 REVERT JUMPDEST POP JUMP JUMPDEST PUSH0 DUP2 MLOAD SWAP1 POP PUSH2 0x2E2 DUP2 PUSH2 0x2BE JUMP JUMPDEST SWAP3 SWAP2 POP POP JUMP JUMPDEST PUSH0 PUSH0 PUSH1 0x40 DUP4 DUP6 SUB SLT ISZERO PUSH2 0x2FE JUMPI PUSH2 0x2FD PUSH2 0x2B1 JUMP JUMPDEST JUMPDEST PUSH0 PUSH2 0x30B DUP6 DUP3 DUP7 ADD PUSH2 0x2D4 JUMP JUMPDEST SWAP3 POP POP PUSH1 0x20 PUSH2 0x31C DUP6 DUP3 DUP7 ADD PUSH2 0x2D4 JUMP JUMPDEST SWAP2 POP POP SWAP3 POP SWAP3 SWAP1 POP JUMP JUMPDEST PUSH0 PUSH20 0xFFFFFFFFFFFFFFFFFFFFFFFFFFFFFFFFFFFFFFFF DUP3 AND SWAP1 POP SWAP2 SWAP1 POP JUMP JUMPDEST PUSH0 PUSH2 0x34F DUP3 PUSH2 0x326 JUMP JUMPDEST SWAP1 POP SWAP2 SWAP1 POP JUMP JUMPDEST PUSH2 0x35F DUP2 PUSH2 0x345 JUMP JUMPDEST DUP3 MSTORE POP POP JUMP JUMPDEST PUSH0 PUSH1 0x20 DUP3 ADD SWAP1 POP PUSH2 0x378 PUSH0 DUP4 ADD DUP5 PUSH2 0x356 JUMP JUMPDEST SWAP3 SWAP2 POP POP JUMP JUMPDEST PUSH0 DUP3 DUP3 MSTORE PUSH1 0x20 DUP3 ADD SWAP1 POP SWAP3 SWAP2 POP POP JUMP JUMPDEST PUSH32 0x496E76616C6964206475726174696F6E00000000000000000000000000000000 PUSH0 DUP3 ADD MSTORE POP JUMP JUMPDEST PUSH0 PUSH2 0x3C2 PUSH1 0x10 DUP4 PUSH2 0x37E JUMP JUMPDEST SWAP2 POP PUSH2 0x3CD DUP3 PUSH2 0x38E JUMP JUMPDEST PUSH1 0x20 DUP3 ADD SWAP1 POP SWAP2 SWAP1 POP JUMP JUMPDEST PUSH0 PUSH1 0x20 DUP3 ADD SWAP1 POP DUP2 DUP2 SUB PUSH0 DUP4 ADD MSTORE PUSH2 0x3EF DUP2 PUSH2 0x3B6 JUMP JUMPDEST SWAP1 POP SWAP2 SWAP1 POP JUMP JUMPDEST PUSH32 0x496E76616C696420737461727400000000000000000000000000000000000000 PUSH0 DUP3 ADD MSTORE POP JUMP JUMPDEST PUSH0 PUSH2 0x42A PUSH1 0xD DUP4 PUSH2 0x37E JUMP JUMPDEST SWAP2 POP PUSH2 0x435 DUP3 PUSH2 0x3F6 JUMP JUMPDEST PUSH1 0x20 DUP3 ADD SWAP1 POP SWAP2 SWAP1 POP JUMP JUMPDEST PUSH0 PUSH1 0x20 DUP3 ADD SWAP1 POP DUP2 DUP2 SUB PUSH0 DUP4 ADD MSTORE PUSH2 0x457 DUP2 PUSH2 0x41E JUMP JUMPDEST SWAP1 POP SWAP2 SWAP1 POP JUMP JUMPDEST PUSH32 0x546F6F206C6F6E67000000000000000000000000000000000000000000000000 PUSH0 DUP3 ADD MSTORE POP JUMP JUMPDEST PUSH0 PUSH2 0x492 PUSH1 0x8 DUP4 PUSH2 0x37E JUMP JUMPDEST SWAP2 POP PUSH2 0x49D DUP3 PUSH2 0x45E JUMP JUMPDEST PUSH1 0x20 DUP3 ADD SWAP1 POP SWAP2 SWAP1 POP JUMP JUMPDEST PUSH0 PUSH1 0x20 DUP3 ADD SWAP1 POP DUP2 DUP2 SUB PUSH0 DUP4 ADD MSTORE PUSH2 0x4BF DUP2 PUSH2 0x486 JUMP JUMPDEST SWAP1 POP SWAP2 SWAP1 POP JUMP JUMPDEST PUSH32 0x4E487B7100000000000000000000000000000000000000000000000000000000 PUSH0 MSTORE PUSH1 0x11 PUSH1 0x4 MSTORE PUSH1 0x24 PUSH0 REVERT JUMPDEST PUSH0 PUSH2 0x4FD DUP3 PUSH2 0x2B5 JUMP JUMPDEST SWAP2 POP PUSH2 0x508 DUP4 PUSH2 0x2B5 JUMP JUMPDEST SWAP3 POP DUP3 DUP3 MUL PUSH2 0x516 DUP2 PUSH2 0x2B5 JUMP JUMPDEST SWAP2 POP DUP3 DUP3 DIV DUP5 EQ DUP4 ISZERO OR PUSH2 0x52D JUMPI PUSH2 0x52C PUSH2 0x4C6 JUMP JUMPDEST JUMPDEST POP SWAP3 SWAP2 POP POP JUMP JUMPDEST PUSH0 PUSH2 0x53E DUP3 PUSH2 0x2B5 JUMP JUMPDEST SWAP2 POP PUSH2 0x549 DUP4 PUSH2 0x2B5 JUMP JUMPDEST SWAP3 POP DUP3 DUP3 ADD SWAP1 POP DUP1 DUP3 GT ISZERO PUSH2 0x561 JUMPI PUSH2 0x560 PUSH2 0x4C6 JUMP JUMPDEST JUMPDEST SWAP3 SWAP2 POP POP JUMP JUMPDEST PUSH2 0x2A5A DUP1 PUSH2 0x574 PUSH0 CODECOPY PUSH0 RETURN INVALID PUSH1 0x80 PUSH1 0x40 MSTORE PUSH1 0x4 CALLDATASIZE LT PUSH2 0x1D0 JUMPI PUSH0 CALLDATALOAD PUSH1 0xE0 SHR DUP1 PUSH4 0x7EB79D5D GT PUSH2 0xF6 JUMPI DUP1 PUSH4 0xCC6BEE54 GT PUSH2 0x94 JUMPI DUP1 PUSH4 0xF2FDE38B GT PUSH2 0x63 JUMPI DUP1 PUSH4 0xF2FDE38B EQ PUSH2 0x5F8 JUMPI DUP1 PUSH4 0xF4668C6C EQ PUSH2 0x620 JUMPI DUP1 PUSH4 0xFC7E286D EQ PUSH2 0x636 JUMPI DUP1 PUSH4 0xFE67A54B EQ PUSH2 0x672 JUMPI PUSH2 0x210 JUMP JUMPDEST DUP1 PUSH4 0xCC6BEE54 EQ PUSH2 0x564 JUMPI DUP1 PUSH4 0xD54A8D18 EQ PUSH2 0x58E JUMPI DUP1 PUSH4 0xD57BDE79 EQ PUSH2 0x5B8 JUMPI DUP1 PUSH4 0xDB2E21BC EQ PUSH2 0x5E2 JUMPI PUSH2 0x210 JUMP JUMPDEST DUP1 PUSH4 0x8DA5CB5B GT PUSH2 0xD0 JUMPI DUP1 PUSH4 0x8DA5CB5B EQ PUSH2 0x4BB JUMPI DUP1 PUSH4 0x8F9CFE70 EQ PUSH2 0x4E5 JUMPI DUP1 PUSH4 0x91F90157 EQ PUSH2 0x50F JUMPI DUP1 PUSH4 0xB7E03264 EQ PUSH2 0x539 JUMPI PUSH2 0x210 JUMP JUMPDEST DUP1 PUSH4 0x7EB79D5D EQ PUSH2 0x43D JUMPI DUP1 PUSH4 0x8456CB59 EQ PUSH2 0x467 JUMPI DUP1 PUSH4 0x8A72EA6A EQ PUSH2 0x47D JUMPI PUSH2 0x210 JUMP JUMPDEST DUP1 PUSH4 0x476343EE GT PUSH2 0x16E JUMPI DUP1 PUSH4 0x5C975ABB GT PUSH2 0x13D JUMPI DUP1 PUSH4 0x5C975ABB EQ PUSH2 0x3A9 JUMPI DUP1 PUSH4 0x654E4685 EQ PUSH2 0x3D3 JUMPI DUP1 PUSH4 0x715018A6 EQ PUSH2 0x3FD JUMPI DUP1 PUSH4 0x78E97925 EQ PUSH2 0x413 JUMPI PUSH2 0x210 JUMP JUMPDEST DUP1 PUSH4 0x476343EE EQ PUSH2 0x315 JUMPI DUP1 PUSH4 0x5230A4C3 EQ PUSH2 0x32B JUMPI DUP1 PUSH4 0x534823BF EQ PUSH2 0x355 JUMPI DUP1 PUSH4 0x5681104A EQ PUSH2 0x37F JUMPI PUSH2 0x210 JUMP JUMPDEST DUP1 PUSH4 0x1998AEEF GT PUSH2 0x1AA JUMPI DUP1 PUSH4 0x1998AEEF EQ PUSH2 0x2B5 JUMPI DUP1 PUSH4 0x3197CBB6 EQ PUSH2 0x2BF JUMPI DUP1 PUSH4 0x36C2780B EQ PUSH2 0x2E9 JUMPI DUP1 PUSH4 0x3F4BA83A EQ PUSH2 0x2FF JUMPI PUSH2 0x210 JUMP JUMPDEST DUP1 PUSH4 0x8551A53 EQ PUSH2 0x24B JUMPI DUP1 PUSH4 0x117DF088 EQ PUSH2 0x275 JUMPI DUP1 PUSH4 0x12FA6FEB EQ PUSH2 0x28B JUMPI PUSH2 0x210 JUMP JUMPDEST CALLDATASIZE PUSH2 0x210 JUMPI PUSH1 0x40 MLOAD PUSH32 0x8C379A000000000000000000000000000000000000000000000000000000000 DUP2 MSTORE PUSH1 0x4 ADD PUSH2 0x207 SWAP1 PUSH2 0x1F03 JUMP JUMPDEST PUSH1 0x40 MLOAD DUP1 SWAP2 SUB SWAP1 REVERT JUMPDEST PUSH1 0x40 MLOAD PUSH32 0x8C379A000000000000000000000000000000000000000000000000000000000 DUP2 MSTORE PUSH1 0x4 ADD PUSH2 0x242 SWAP1 PUSH2 0x1F6B JUMP JUMPDEST PUSH1 0x40 MLOAD DUP1 SWAP2 SUB SWAP1 REVERT JUMPDEST CALLVALUE DUP1 ISZERO PUSH2 0x256 JUMPI PUSH0 PUSH0 REVERT JUMPDEST POP PUSH2 0x25F PUSH2 0x688 JUMP JUMPDEST PUSH1 0x40 MLOAD PUSH2 0x26C SWAP2 SWAP1 PUSH2 0x1FC8 JUMP JUMPDEST PUSH1 0x40 MLOAD DUP1 SWAP2 SUB SWAP1 RETURN JUMPDEST CALLVALUE DUP1 ISZERO PUSH2 0x280 JUMPI PUSH0 PUSH0 REVERT JUMPDEST POP PUSH2 0x289 PUSH2 0x6AD JUMP JUMPDEST STOP JUMPDEST CALLVALUE DUP1 ISZERO PUSH2 0x296 JUMPI PUSH0 PUSH0 REVERT JUMPDEST POP PUSH2 0x29F PUSH2 0x8F0 JUMP JUMPDEST PUSH1 0x40 MLOAD PUSH2 0x2AC SWAP2 SWAP1 PUSH2 0x1FFB JUMP JUMPDEST PUSH1 0x40 MLOAD DUP1 SWAP2 SUB SWAP1 RETURN JUMPDEST PUSH2 0x2BD PUSH2 0x902 JUMP JUMPDEST STOP JUMPDEST CALLVALUE DUP1 ISZERO PUSH2 0x2CA JUMPI PUSH0 PUSH0 REVERT JUMPDEST POP PUSH2 0x2D3 PUSH2 0xD0D JUMP JUMPDEST PUSH1 0x40 MLOAD PUSH2 0x2E0 SWAP2 SWAP1 PUSH2 0x202C JUMP JUMPDEST PUSH1 0x40 MLOAD DUP1 SWAP2 SUB SWAP1 RETURN JUMPDEST CALLVALUE DUP1 ISZERO PUSH2 0x2F4 JUMPI PUSH0 PUSH0 REVERT JUMPDEST POP PUSH2 0x2FD PUSH2 0xD13 JUMP JUMPDEST STOP JUMPDEST CALLVALUE DUP1 ISZERO PUSH2 0x30A JUMPI PUSH0 PUSH0 REVERT JUMPDEST POP PUSH2 0x313 PUSH2 0xFAA JUMP JUMPDEST STOP JUMPDEST CALLVALUE DUP1 ISZERO PUSH2 0x320 JUMPI PUSH0 PUSH0 REVERT JUMPDEST POP PUSH2 0x329 PUSH2 0xFBC JUMP JUMPDEST STOP JUMPDEST CALLVALUE DUP1 ISZERO PUSH2 0x336 JUMPI PUSH0 PUSH0 REVERT JUMPDEST POP PUSH2 0x33F PUSH2 0x10D8 JUMP JUMPDEST PUSH1 0x40 MLOAD PUSH2 0x34C SWAP2 SWAP1 PUSH2 0x202C JUMP JUMPDEST PUSH1 0x40 MLOAD DUP1 SWAP2 SUB SWAP1 RETURN JUMPDEST CALLVALUE DUP1 ISZERO PUSH2 0x360 JUMPI PUSH0 PUSH0 REVERT JUMPDEST POP PUSH2 0x369 PUSH2 0x10DD JUMP JUMPDEST PUSH1 0x40 MLOAD PUSH2 0x376 SWAP2 SWAP1 PUSH2 0x215C JUMP JUMPDEST PUSH1 0x40 MLOAD DUP1 SWAP2 SUB SWAP1 RETURN JUMPDEST CALLVALUE DUP1 ISZERO PUSH2 0x38A JUMPI PUSH0 PUSH0 REVERT JUMPDEST POP PUSH2 0x393 PUSH2 0x11A1 JUMP JUMPDEST PUSH1 0x40 MLOAD PUSH2 0x3A0 SWAP2 SWAP1 PUSH2 0x202C JUMP JUMPDEST PUSH1 0x40 MLOAD DUP1 SWAP2 SUB SWAP1 RETURN JUMPDEST CALLVALUE DUP1 ISZERO PUSH2 0x3B4 JUMPI PUSH0 PUSH0 REVERT JUMPDEST POP PUSH2 0x3BD PUSH2 0x11A7 JUMP JUMPDEST PUSH1 0x40 MLOAD PUSH2 0x3CA SWAP2 SWAP1 PUSH2 0x1FFB JUMP JUMPDEST PUSH1 0x40 MLOAD DUP1 SWAP2 SUB SWAP1 RETURN JUMPDEST CALLVALUE DUP1 ISZERO PUSH2 0x3DE JUMPI PUSH0 PUSH0 REVERT JUMPDEST POP PUSH2 0x3E7 PUSH2 0x11BD JUMP JUMPDEST PUSH1 0x40 MLOAD PUSH2 0x3F4 SWAP2 SWAP1 PUSH2 0x202C JUMP JUMPDEST PUSH1 0x40 MLOAD DUP1 SWAP2 SUB SWAP1 RETURN JUMPDEST CALLVALUE DUP1 ISZERO PUSH2 0x408 JUMPI PUSH0 PUSH0 REVERT JUMPDEST POP PUSH2 0x411 PUSH2 0x11C2 JUMP JUMPDEST STOP JUMPDEST CALLVALUE DUP1 ISZERO PUSH2 0x41E JUMPI PUSH0 PUSH0 REVERT JUMPDEST POP PUSH2 0x427 PUSH2 0x11D5 JUMP JUMPDEST PUSH1 0x40 MLOAD PUSH2 0x434 SWAP2 SWAP1 PUSH2 0x202C JUMP JUMPDEST PUSH1 0x40 MLOAD DUP1 SWAP2 SUB SWAP1 RETURN JUMPDEST CALLVALUE DUP1 ISZERO PUSH2 0x448 JUMPI PUSH0 PUSH0 REVERT JUMPDEST POP PUSH2 0x451 PUSH2 0x11DB JUMP JUMPDEST PUSH1 0x40 MLOAD PUSH2 0x45E SWAP2 SWAP1 PUSH2 0x202C JUMP JUMPDEST PUSH1 0x40 MLOAD DUP1 SWAP2 SUB SWAP1 RETURN JUMPDEST CALLVALUE DUP1 ISZERO PUSH2 0x472 JUMPI PUSH0 PUSH0 REVERT JUMPDEST POP PUSH2 0x47B PUSH2 0x11E1 JUMP JUMPDEST STOP JUMPDEST CALLVALUE DUP1 ISZERO PUSH2 0x488 JUMPI PUSH0 PUSH0 REVERT JUMPDEST POP PUSH2 0x4A3 PUSH1 0x4 DUP1 CALLDATASIZE SUB DUP2 ADD SWAP1 PUSH2 0x49E SWAP2 SWAP1 PUSH2 0x21AA JUMP JUMPDEST PUSH2 0x11F3 JUMP JUMPDEST PUSH1 0x40 MLOAD PUSH2 0x4B2 SWAP4 SWAP3 SWAP2 SWAP1 PUSH2 0x21E4 JUMP JUMPDEST PUSH1 0x40 MLOAD DUP1 SWAP2 SUB SWAP1 RETURN JUMPDEST CALLVALUE DUP1 ISZERO PUSH2 0x4C6 JUMPI PUSH0 PUSH0 REVERT JUMPDEST POP PUSH2 0x4CF PUSH2 0x1247 JUMP JUMPDEST PUSH1 0x40 MLOAD PUSH2 0x4DC SWAP2 SWAP1 PUSH2 0x2219 JUMP JUMPDEST PUSH1 0x40 MLOAD DUP1 SWAP2 SUB SWAP1 RETURN JUMPDEST CALLVALUE DUP1 ISZERO PUSH2 0x4F0 JUMPI PUSH0 PUSH0 REVERT JUMPDEST POP PUSH2 0x4F9 PUSH2 0x126F JUMP JUMPDEST PUSH1 0x40 MLOAD PUSH2 0x506 SWAP2 SWAP1 PUSH2 0x202C JUMP JUMPDEST PUSH1 0x40 MLOAD DUP1 SWAP2 SUB SWAP1 RETURN JUMPDEST CALLVALUE DUP1 ISZERO PUSH2 0x51A JUMPI PUSH0 PUSH0 REVERT JUMPDEST POP PUSH2 0x523 PUSH2 0x12B3 JUMP JUMPDEST PUSH1 0x40 MLOAD PUSH2 0x530 SWAP2 SWAP1 PUSH2 0x2219 JUMP JUMPDEST PUSH1 0x40 MLOAD DUP1 SWAP2 SUB SWAP1 RETURN JUMPDEST CALLVALUE DUP1 ISZERO PUSH2 0x544 JUMPI PUSH0 PUSH0 REVERT JUMPDEST POP PUSH2 0x54D PUSH2 0x12D8 JUMP JUMPDEST PUSH1 0x40 MLOAD PUSH2 0x55B SWAP3 SWAP2 SWAP1 PUSH2 0x2232 JUMP JUMPDEST PUSH1 0x40 MLOAD DUP1 SWAP2 SUB SWAP1 RETURN JUMPDEST CALLVALUE DUP1 ISZERO PUSH2 0x56F JUMPI PUSH0 PUSH0 REVERT JUMPDEST POP PUSH2 0x578 PUSH2 0x1362 JUMP JUMPDEST PUSH1 0x40 MLOAD PUSH2 0x585 SWAP2 SWAP1 PUSH2 0x202C JUMP JUMPDEST PUSH1 0x40 MLOAD DUP1 SWAP2 SUB SWAP1 RETURN JUMPDEST CALLVALUE DUP1 ISZERO PUSH2 0x599 JUMPI PUSH0 PUSH0 REVERT JUMPDEST POP PUSH2 0x5A2 PUSH2 0x136E JUMP JUMPDEST PUSH1 0x40 MLOAD PUSH2 0x5AF SWAP2 SWAP1 PUSH2 0x202C JUMP JUMPDEST PUSH1 0x40 MLOAD DUP1 SWAP2 SUB SWAP1 RETURN JUMPDEST CALLVALUE DUP1 ISZERO PUSH2 0x5C3 JUMPI PUSH0 PUSH0 REVERT JUMPDEST POP PUSH2 0x5CC PUSH2 0x1406 JUMP JUMPDEST PUSH1 0x40 MLOAD PUSH2 0x5D9 SWAP2 SWAP1 PUSH2 0x202C JUMP JUMPDEST PUSH1 0x40 MLOAD DUP1 SWAP2 SUB SWAP1 RETURN JUMPDEST CALLVALUE DUP1 ISZERO PUSH2 0x5ED JUMPI PUSH0 PUSH0 REVERT JUMPDEST POP PUSH2 0x5F6 PUSH2 0x140C JUMP JUMPDEST STOP JUMPDEST CALLVALUE DUP1 ISZERO PUSH2 0x603 JUMPI PUSH0 PUSH0 REVERT JUMPDEST POP PUSH2 0x61E PUSH1 0x4 DUP1 CALLDATASIZE SUB DUP2 ADD SWAP1 PUSH2 0x619 SWAP2 SWAP1 PUSH2 0x2283 JUMP JUMPDEST PUSH2 0x14D6 JUMP JUMPDEST STOP JUMPDEST CALLVALUE DUP1 ISZERO PUSH2 0x62B JUMPI PUSH0 PUSH0 REVERT JUMPDEST POP PUSH2 0x634 PUSH2 0x155A JUMP JUMPDEST STOP JUMPDEST CALLVALUE DUP1 ISZERO PUSH2 0x641 JUMPI PUSH0 PUSH0 REVERT JUMPDEST POP PUSH2 0x65C PUSH1 0x4 DUP1 CALLDATASIZE SUB DUP2 ADD SWAP1 PUSH2 0x657 SWAP2 SWAP1 PUSH2 0x2283 JUMP JUMPDEST PUSH2 0x1807 JUMP JUMPDEST PUSH1 0x40 MLOAD PUSH2 0x669 SWAP2 SWAP1 PUSH2 0x202C JUMP JUMPDEST PUSH1 0x40 MLOAD DUP1 SWAP2 SUB SWAP1 RETURN JUMPDEST CALLVALUE DUP1 ISZERO PUSH2 0x67D JUMPI PUSH0 PUSH0 REVERT JUMPDEST POP PUSH2 0x686 PUSH2 0x181C JUMP JUMPDEST STOP JUMPDEST PUSH1 0x2 PUSH0 SWAP1 SLOAD SWAP1 PUSH2 0x100 EXP SWAP1 DIV PUSH20 0xFFFFFFFFFFFFFFFFFFFFFFFFFFFFFFFFFFFFFFFF AND DUP2 JUMP JUMPDEST PUSH1 0x6 SLOAD TIMESTAMP LT ISZERO DUP1 PUSH2 0x6C9 JUMPI POP PUSH1 0x7 PUSH0 SWAP1 SLOAD SWAP1 PUSH2 0x100 EXP SWAP1 DIV PUSH1 0xFF AND JUMPDEST PUSH2 0x708 JUMPI PUSH1 0x40 MLOAD PUSH32 0x8C379A000000000000000000000000000000000000000000000000000000000 DUP2 MSTORE PUSH1 0x4 ADD PUSH2 0x6FF SWAP1 PUSH2 0x22F8 JUMP JUMPDEST PUSH1 0x40 MLOAD DUP1 SWAP2 SUB SWAP1 REVERT JUMPDEST PUSH1 0x3 PUSH0 SWAP1 SLOAD SWAP1 PUSH2 0x100 EXP SWAP1 DIV PUSH20 0xFFFFFFFFFFFFFFFFFFFFFFFFFFFFFFFFFFFFFFFF AND PUSH20 0xFFFFFFFFFFFFFFFFFFFFFFFFFFFFFFFFFFFFFFFF AND CALLER PUSH20 0xFFFFFFFFFFFFFFFFFFFFFFFFFFFFFFFFFFFFFFFF AND SUB PUSH2 0x797 JUMPI PUSH1 0x40 MLOAD PUSH32 0x8C379A000000000000000000000000000000000000000000000000000000000 DUP2 MSTORE PUSH1 0x4 ADD PUSH2 0x78E SWAP1 PUSH2 0x2360 JUMP JUMPDEST PUSH1 0x40 MLOAD DUP1 SWAP2 SUB SWAP1 REVERT JUMPDEST PUSH2 0x79F PUSH2 0x1A5F JUMP JUMPDEST PUSH0 PUSH1 0x9 PUSH0 CALLER PUSH20 0xFFFFFFFFFFFFFFFFFFFFFFFFFFFFFFFFFFFFFFFF AND PUSH20 0xFFFFFFFFFFFFFFFFFFFFFFFFFFFFFFFFFFFFFFFF AND DUP2 MSTORE PUSH1 0x20 ADD SWAP1 DUP2 MSTORE PUSH1 0x20 ADD PUSH0 KECCAK256 SLOAD SWAP1 POP PUSH0 DUP2 GT PUSH2 0x822 JUMPI PUSH1 0x40 MLOAD PUSH32 0x8C379A000000000000000000000000000000000000000000000000000000000 DUP2 MSTORE PUSH1 0x4 ADD PUSH2 0x819 SWAP1 PUSH2 0x23C8 JUMP JUMPDEST PUSH1 0x40 MLOAD DUP1 SWAP2 SUB SWAP1 REVERT JUMPDEST PUSH0 PUSH1 0x9 PUSH0 CALLER PUSH20 0xFFFFFFFFFFFFFFFFFFFFFFFFFFFFFFFFFFFFFFFF AND PUSH20 0xFFFFFFFFFFFFFFFFFFFFFFFFFFFFFFFFFFFFFFFF AND DUP2 MSTORE PUSH1 0x20 ADD SWAP1 DUP2 MSTORE PUSH1 0x20 ADD PUSH0 KECCAK256 DUP2 SWAP1 SSTORE POP PUSH0 PUSH0 PUSH2 0x86F DUP4 PUSH2 0x1AA3 JUMP JUMPDEST SWAP2 POP SWAP2 POP DUP2 PUSH1 0xB PUSH0 DUP3 DUP3 SLOAD PUSH2 0x884 SWAP2 SWAP1 PUSH2 0x2413 JUMP JUMPDEST SWAP3 POP POP DUP2 SWAP1 SSTORE POP PUSH2 0x895 CALLER DUP3 PUSH2 0x1AD3 JUMP JUMPDEST CALLER PUSH20 0xFFFFFFFFFFFFFFFFFFFFFFFFFFFFFFFFFFFFFFFF AND PUSH32 0x7FCF532C15F0A6DB0BD6D0E038BEA71D30D808C7D98CB3BF7268A95BF5081B65 DUP3 PUSH1 0x40 MLOAD PUSH2 0x8DB SWAP2 SWAP1 PUSH2 0x202C JUMP JUMPDEST PUSH1 0x40 MLOAD DUP1 SWAP2 SUB SWAP1 LOG2 POP POP POP PUSH2 0x8EE PUSH2 0x1B00 JUMP JUMPDEST JUMP JUMPDEST PUSH1 0x7 PUSH0 SWAP1 SLOAD SWAP1 PUSH2 0x100 EXP SWAP1 DIV PUSH1 0xFF AND DUP2 JUMP JUMPDEST PUSH1 0x7 PUSH0 SWAP1 SLOAD SWAP1 PUSH2 0x100 EXP SWAP1 DIV PUSH1 0xFF AND ISZERO PUSH2 0x951 JUMPI PUSH1 0x40 MLOAD PUSH32 0x8C379A000000000000000000000000000000000000000000000000000000000 DUP2 MSTORE PUSH1 0x4 ADD PUSH2 0x948 SWAP1 PUSH2 0x2490 JUMP JUMPDEST PUSH1 0x40 MLOAD DUP1 SWAP2 SUB SWAP1 REVERT JUMPDEST PUSH1 0x5 SLOAD TIMESTAMP LT ISZERO PUSH2 0x996 JUMPI PUSH1 0x40 MLOAD PUSH32 0x8C379A000000000000000000000000000000000000000000000000000000000 DUP2 MSTORE PUSH1 0x4 ADD PUSH2 0x98D SWAP1 PUSH2 0x24F8 JUMP JUMPDEST PUSH1 0x40 MLOAD DUP1 SWAP2 SUB SWAP1 REVERT JUMPDEST PUSH1 0x6 SLOAD TIMESTAMP LT PUSH2 0x9DA JUMPI PUSH1 0x40 MLOAD PUSH32 0x8C379A000000000000000000000000000000000000000000000000000000000 DUP2 MSTORE PUSH1 0x4 ADD PUSH2 0x9D1 SWAP1 PUSH2 0x2560 JUMP JUMPDEST PUSH1 0x40 MLOAD DUP1 SWAP2 SUB SWAP1 REVERT JUMPDEST PUSH2 0x9E2 PUSH2 0x1A5F JUMP JUMPDEST PUSH2 0x9EA PUSH2 0x1B09 JUMP JUMPDEST PUSH0 CALLVALUE GT PUSH2 0xA2C JUMPI PUSH1 0x40 MLOAD PUSH32 0x8C379A000000000000000000000000000000000000000000000000000000000 DUP2 MSTORE PUSH1 0x4 ADD PUSH2 0xA23 SWAP1 PUSH2 0x25C8 JUMP JUMPDEST PUSH1 0x40 MLOAD DUP1 SWAP2 SUB SWAP1 REVERT JUMPDEST PUSH0 CALLVALUE PUSH1 0x9 PUSH0 CALLER PUSH20 0xFFFFFFFFFFFFFFFFFFFFFFFFFFFFFFFFFFFFFFFF AND PUSH20 0xFFFFFFFFFFFFFFFFFFFFFFFFFFFFFFFFFFFFFFFF AND DUP2 MSTORE PUSH1 0x20 ADD SWAP1 DUP2 MSTORE PUSH1 0x20 ADD PUSH0 KECCAK256 SLOAD PUSH2 0xA76 SWAP2 SWAP1 PUSH2 0x2413 JUMP JUMPDEST SWAP1 POP PUSH0 PUSH0 PUSH1 0x4 SLOAD EQ PUSH2 0xAA2 JUMPI PUSH1 0x64 PUSH1 0x69 PUSH1 0x4 SLOAD PUSH2 0xA93 SWAP2 SWAP1 PUSH2 0x25E6 JUMP JUMPDEST PUSH2 0xA9D SWAP2 SWAP1 PUSH2 0x2654 JUMP JUMPDEST PUSH2 0xAA4 JUMP JUMPDEST PUSH0 JUMPDEST SWAP1 POP DUP1 DUP3 GT PUSH2 0xAE8 JUMPI PUSH1 0x40 MLOAD PUSH32 0x8C379A000000000000000000000000000000000000000000000000000000000 DUP2 MSTORE PUSH1 0x4 ADD PUSH2 0xADF SWAP1 PUSH2 0x26CE JUMP JUMPDEST PUSH1 0x40 MLOAD DUP1 SWAP2 SUB SWAP1 REVERT JUMPDEST CALLVALUE PUSH1 0x9 PUSH0 CALLER PUSH20 0xFFFFFFFFFFFFFFFFFFFFFFFFFFFFFFFFFFFFFFFF AND PUSH20 0xFFFFFFFFFFFFFFFFFFFFFFFFFFFFFFFFFFFFFFFF AND DUP2 MSTORE PUSH1 0x20 ADD SWAP1 DUP2 MSTORE PUSH1 0x20 ADD PUSH0 KECCAK256 PUSH0 DUP3 DUP3 SLOAD PUSH2 0xB34 SWAP2 SWAP1 PUSH2 0x2413 JUMP JUMPDEST SWAP3 POP POP DUP2 SWAP1 SSTORE POP PUSH1 0x8 PUSH1 0x40 MLOAD DUP1 PUSH1 0x60 ADD PUSH1 0x40 MSTORE DUP1 CALLER PUSH20 0xFFFFFFFFFFFFFFFFFFFFFFFFFFFFFFFFFFFFFFFF AND DUP2 MSTORE PUSH1 0x20 ADD CALLVALUE DUP2 MSTORE PUSH1 0x20 ADD TIMESTAMP DUP2 MSTORE POP SWAP1 DUP1 PUSH1 0x1 DUP2 SLOAD ADD DUP1 DUP3 SSTORE DUP1 SWAP2 POP POP PUSH1 0x1 SWAP1 SUB SWAP1 PUSH0 MSTORE PUSH1 0x20 PUSH0 KECCAK256 SWAP1 PUSH1 0x3 MUL ADD PUSH0 SWAP1 SWAP2 SWAP1 SWAP2 SWAP1 SWAP2 POP PUSH0 DUP3 ADD MLOAD DUP2 PUSH0 ADD PUSH0 PUSH2 0x100 EXP DUP2 SLOAD DUP2 PUSH20 0xFFFFFFFFFFFFFFFFFFFFFFFFFFFFFFFFFFFFFFFF MUL NOT AND SWAP1 DUP4 PUSH20 0xFFFFFFFFFFFFFFFFFFFFFFFFFFFFFFFFFFFFFFFF AND MUL OR SWAP1 SSTORE POP PUSH1 0x20 DUP3 ADD MLOAD DUP2 PUSH1 0x1 ADD SSTORE PUSH1 0x40 DUP3 ADD MLOAD DUP2 PUSH1 0x2 ADD SSTORE POP POP PUSH1 0x1 PUSH1 0x8 DUP1 SLOAD SWAP1 POP PUSH2 0xC00 SWAP2 SWAP1 PUSH2 0x26EC JUMP JUMPDEST PUSH1 0xA PUSH0 CALLER PUSH20 0xFFFFFFFFFFFFFFFFFFFFFFFFFFFFFFFFFFFFFFFF AND PUSH20 0xFFFFFFFFFFFFFFFFFFFFFFFFFFFFFFFFFFFFFFFF AND DUP2 MSTORE PUSH1 0x20 ADD SWAP1 DUP2 MSTORE PUSH1 0x20 ADD PUSH0 KECCAK256 DUP2 SWAP1 SSTORE POP DUP2 PUSH1 0x4 DUP2 SWAP1 SSTORE POP CALLER PUSH1 0x3 PUSH0 PUSH2 0x100 EXP DUP2 SLOAD DUP2 PUSH20 0xFFFFFFFFFFFFFFFFFFFFFFFFFFFFFFFFFFFFFFFF MUL NOT AND SWAP1 DUP4 PUSH20 0xFFFFFFFFFFFFFFFFFFFFFFFFFFFFFFFFFFFFFFFF AND MUL OR SWAP1 SSTORE POP PUSH2 0x258 TIMESTAMP PUSH1 0x6 SLOAD PUSH2 0xC99 SWAP2 SWAP1 PUSH2 0x26EC JUMP JUMPDEST GT PUSH2 0xCB3 JUMPI PUSH2 0x258 TIMESTAMP PUSH2 0xCAC SWAP2 SWAP1 PUSH2 0x2413 JUMP JUMPDEST PUSH1 0x6 DUP2 SWAP1 SSTORE POP JUMPDEST CALLER PUSH20 0xFFFFFFFFFFFFFFFFFFFFFFFFFFFFFFFFFFFFFFFF AND PUSH32 0x58D619527549E88853C641EBCEC23205E5DF61592E3908275721B5AD490113F DUP4 PUSH1 0x40 MLOAD PUSH2 0xCF9 SWAP2 SWAP1 PUSH2 0x202C JUMP JUMPDEST PUSH1 0x40 MLOAD DUP1 SWAP2 SUB SWAP1 LOG2 POP POP PUSH2 0xD0B PUSH2 0x1B00 JUMP JUMPDEST JUMP JUMPDEST PUSH1 0x6 SLOAD DUP2 JUMP JUMPDEST PUSH1 0x7 PUSH0 SWAP1 SLOAD SWAP1 PUSH2 0x100 EXP SWAP1 DIV PUSH1 0xFF AND ISZERO PUSH2 0xD62 JUMPI PUSH1 0x40 MLOAD PUSH32 0x8C379A000000000000000000000000000000000000000000000000000000000 DUP2 MSTORE PUSH1 0x4 ADD PUSH2 0xD59 SWAP1 PUSH2 0x2490 JUMP JUMPDEST PUSH1 0x40 MLOAD DUP1 SWAP2 SUB SWAP1 REVERT JUMPDEST PUSH1 0x5 SLOAD TIMESTAMP LT ISZERO PUSH2 0xDA7 JUMPI PUSH1 0x40 MLOAD PUSH32 0x8C379A000000000000000000000000000000000000000000000000000000000 DUP2 MSTORE PUSH1 0x4 ADD PUSH2 0xD9E SWAP1 PUSH2 0x24F8 JUMP JUMPDEST PUSH1 0x40 MLOAD DUP1 SWAP2 SUB SWAP1 REVERT JUMPDEST PUSH1 0x6 SLOAD TIMESTAMP LT PUSH2 0xDEB JUMPI PUSH1 0x40 MLOAD PUSH32 0x8C379A000000000000000000000000000000000000000000000000000000000 DUP2 MSTORE PUSH1 0x4 ADD PUSH2 0xDE2 SWAP1 PUSH2 0x2560 JUMP JUMPDEST PUSH1 0x40 MLOAD DUP1 SWAP2 SUB SWAP1 REVERT JUMPDEST PUSH2 0xDF3 PUSH2 0x1A5F JUMP JUMPDEST PUSH1 0x3 PUSH0 SWAP1 SLOAD SWAP1 PUSH2 0x100 EXP SWAP1 DIV PUSH20 0xFFFFFFFFFFFFFFFFFFFFFFFFFFFFFFFFFFFFFFFF AND PUSH20 0xFFFFFFFFFFFFFFFFFFFFFFFFFFFFFFFFFFFFFFFF AND CALLER PUSH20 0xFFFFFFFFFFFFFFFFFFFFFFFFFFFFFFFFFFFFFFFF AND SUB PUSH2 0xE82 JUMPI PUSH1 0x40 MLOAD PUSH32 0x8C379A000000000000000000000000000000000000000000000000000000000 DUP2 MSTORE PUSH1 0x4 ADD PUSH2 0xE79 SWAP1 PUSH2 0x2360 JUMP JUMPDEST PUSH1 0x40 MLOAD DUP1 SWAP2 SUB SWAP1 REVERT JUMPDEST PUSH0 PUSH1 0x9 PUSH0 CALLER PUSH20 0xFFFFFFFFFFFFFFFFFFFFFFFFFFFFFFFFFFFFFFFF AND PUSH20 0xFFFFFFFFFFFFFFFFFFFFFFFFFFFFFFFFFFFFFFFF AND DUP2 MSTORE PUSH1 0x20 ADD SWAP1 DUP2 MSTORE PUSH1 0x20 ADD PUSH0 KECCAK256 SLOAD SWAP1 POP PUSH0 DUP2 GT PUSH2 0xF05 JUMPI PUSH1 0x40 MLOAD PUSH32 0x8C379A000000000000000000000000000000000000000000000000000000000 DUP2 MSTORE PUSH1 0x4 ADD PUSH2 0xEFC SWAP1 PUSH2 0x23C8 JUMP JUMPDEST PUSH1 0x40 MLOAD DUP1 SWAP2 SUB SWAP1 REVERT JUMPDEST PUSH0 PUSH1 0x9 PUSH0 CALLER PUSH20 0xFFFFFFFFFFFFFFFFFFFFFFFFFFFFFFFFFFFFFFFF AND PUSH20 0xFFFFFFFFFFFFFFFFFFFFFFFFFFFFFFFFFFFFFFFF AND DUP2 MSTORE PUSH1 0x20 ADD SWAP1 DUP2 MSTORE PUSH1 0x20 ADD PUSH0 KECCAK256 DUP2 SWAP1 SSTORE POP PUSH2 0xF51 CALLER DUP3 PUSH2 0x1AD3 JUMP JUMPDEST CALLER PUSH20 0xFFFFFFFFFFFFFFFFFFFFFFFFFFFFFFFFFFFFFFFF AND PUSH32 0x7FCF532C15F0A6DB0BD6D0E038BEA71D30D808C7D98CB3BF7268A95BF5081B65 DUP3 PUSH1 0x40 MLOAD PUSH2 0xF97 SWAP2 SWAP1 PUSH2 0x202C JUMP JUMPDEST PUSH1 0x40 MLOAD DUP1 SWAP2 SUB SWAP1 LOG2 POP PUSH2 0xFA8 PUSH2 0x1B00 JUMP JUMPDEST JUMP JUMPDEST PUSH2 0xFB2 PUSH2 0x1B4A JUMP JUMPDEST PUSH2 0xFBA PUSH2 0x1BD1 JUMP JUMPDEST JUMP JUMPDEST PUSH1 0x2 PUSH0 SWAP1 SLOAD SWAP1 PUSH2 0x100 EXP SWAP1 DIV PUSH20 0xFFFFFFFFFFFFFFFFFFFFFFFFFFFFFFFFFFFFFFFF AND PUSH20 0xFFFFFFFFFFFFFFFFFFFFFFFFFFFFFFFFFFFFFFFF AND CALLER PUSH20 0xFFFFFFFFFFFFFFFFFFFFFFFFFFFFFFFFFFFFFFFF AND EQ PUSH2 0x104B JUMPI PUSH1 0x40 MLOAD PUSH32 0x8C379A000000000000000000000000000000000000000000000000000000000 DUP2 MSTORE PUSH1 0x4 ADD PUSH2 0x1042 SWAP1 PUSH2 0x2769 JUMP JUMPDEST PUSH1 0x40 MLOAD DUP1 SWAP2 SUB SWAP1 REVERT JUMPDEST PUSH2 0x1053 PUSH2 0x1A5F JUMP JUMPDEST PUSH0 PUSH1 0xB SLOAD SWAP1 POP PUSH0 DUP2 GT PUSH2 0x109B JUMPI PUSH1 0x40 MLOAD PUSH32 0x8C379A000000000000000000000000000000000000000000000000000000000 DUP2 MSTORE PUSH1 0x4 ADD PUSH2 0x1092 SWAP1 PUSH2 0x27D1 JUMP JUMPDEST PUSH1 0x40 MLOAD DUP1 SWAP2 SUB SWAP1 REVERT JUMPDEST PUSH0 PUSH1 0xB DUP2 SWAP1 SSTORE POP PUSH2 0x10CD PUSH1 0x2 PUSH0 SWAP1 SLOAD SWAP1 PUSH2 0x100 EXP SWAP1 DIV PUSH20 0xFFFFFFFFFFFFFFFFFFFFFFFFFFFFFFFFFFFFFFFF AND DUP3 PUSH2 0x1AD3 JUMP JUMPDEST POP PUSH2 0x10D6 PUSH2 0x1B00 JUMP JUMPDEST JUMP JUMPDEST PUSH1 0x2 DUP2 JUMP JUMPDEST PUSH1 0x60 PUSH1 0x8 DUP1 SLOAD DUP1 PUSH1 0x20 MUL PUSH1 0x20 ADD PUSH1 0x40 MLOAD SWAP1 DUP2 ADD PUSH1 0x40 MSTORE DUP1 SWAP3 SWAP2 SWAP1 DUP2 DUP2 MSTORE PUSH1 0x20 ADD PUSH0 SWAP1 JUMPDEST DUP3 DUP3 LT ISZERO PUSH2 0x1198 JUMPI DUP4 DUP3 SWAP1 PUSH0 MSTORE PUSH1 0x20 PUSH0 KECCAK256 SWAP1 PUSH1 0x3 MUL ADD PUSH1 0x40 MLOAD DUP1 PUSH1 0x60 ADD PUSH1 0x40 MSTORE SWAP1 DUP2 PUSH0 DUP3 ADD PUSH0 SWAP1 SLOAD SWAP1 PUSH2 0x100 EXP SWAP1 DIV PUSH20 0xFFFFFFFFFFFFFFFFFFFFFFFFFFFFFFFFFFFFFFFF AND PUSH20 0xFFFFFFFFFFFFFFFFFFFFFFFFFFFFFFFFFFFFFFFF AND PUSH20 0xFFFFFFFFFFFFFFFFFFFFFFFFFFFFFFFFFFFFFFFF AND DUP2 MSTORE PUSH1 0x20 ADD PUSH1 0x1 DUP3 ADD SLOAD DUP2 MSTORE PUSH1 0x20 ADD PUSH1 0x2 DUP3 ADD SLOAD DUP2 MSTORE POP POP DUP2 MSTORE PUSH1 0x20 ADD SWAP1 PUSH1 0x1 ADD SWAP1 PUSH2 0x1100 JUMP JUMPDEST POP POP POP POP SWAP1 POP SWAP1 JUMP JUMPDEST PUSH2 0x258 DUP2 JUMP JUMPDEST PUSH0 PUSH1 0x1 PUSH1 0x14 SWAP1 SLOAD SWAP1 PUSH2 0x100 EXP SWAP1 DIV PUSH1 0xFF AND SWAP1 POP SWAP1 JUMP JUMPDEST PUSH1 0x69 DUP2 JUMP JUMPDEST PUSH2 0x11CA PUSH2 0x1B4A JUMP JUMPDEST PUSH2 0x11D3 PUSH0 PUSH2 0x1C33 JUMP JUMPDEST JUMP JUMPDEST PUSH1 0x5 SLOAD DUP2 JUMP JUMPDEST PUSH2 0x258 DUP2 JUMP JUMPDEST PUSH2 0x11E9 PUSH2 0x1B4A JUMP JUMPDEST PUSH2 0x11F1 PUSH2 0x1CF6 JUMP JUMPDEST JUMP JUMPDEST PUSH1 0x8 DUP2 DUP2 SLOAD DUP2 LT PUSH2 0x1202 JUMPI PUSH0 DUP1 REVERT JUMPDEST SWAP1 PUSH0 MSTORE PUSH1 0x20 PUSH0 KECCAK256 SWAP1 PUSH1 0x3 MUL ADD PUSH0 SWAP2 POP SWAP1 POP DUP1 PUSH0 ADD PUSH0 SWAP1 SLOAD SWAP1 PUSH2 0x100 EXP SWAP1 DIV PUSH20 0xFFFFFFFFFFFFFFFFFFFFFFFFFFFFFFFFFFFFFFFF AND SWAP1 DUP1 PUSH1 0x1 ADD SLOAD SWAP1 DUP1 PUSH1 0x2 ADD SLOAD SWAP1 POP DUP4 JUMP JUMPDEST PUSH0 PUSH1 0x1 PUSH0 SWAP1 SLOAD SWAP1 PUSH2 0x100 EXP SWAP1 DIV PUSH20 0xFFFFFFFFFFFFFFFFFFFFFFFFFFFFFFFFFFFFFFFF AND SWAP1 POP SWAP1 JUMP JUMPDEST PUSH0 PUSH1 0xA PUSH0 CALLER PUSH20 0xFFFFFFFFFFFFFFFFFFFFFFFFFFFFFFFFFFFFFFFF AND PUSH20 0xFFFFFFFFFFFFFFFFFFFFFFFFFFFFFFFFFFFFFFFF AND DUP2 MSTORE PUSH1 0x20 ADD SWAP1 DUP2 MSTORE PUSH1 0x20 ADD PUSH0 KECCAK256 SLOAD SWAP1 POP SWAP1 JUMP JUMPDEST PUSH1 0x3 PUSH0 SWAP1 SLOAD SWAP1 PUSH2 0x100 EXP SWAP1 DIV PUSH20 0xFFFFFFFFFFFFFFFFFFFFFFFFFFFFFFFFFFFFFFFF AND DUP2 JUMP JUMPDEST PUSH0 PUSH0 PUSH1 0x6 SLOAD TIMESTAMP LT ISZERO DUP1 PUSH2 0x12F6 JUMPI POP PUSH1 0x7 PUSH0 SWAP1 SLOAD SWAP1 PUSH2 0x100 EXP SWAP1 DIV PUSH1 0xFF AND JUMPDEST PUSH2 0x1335 JUMPI PUSH1 0x40 MLOAD PUSH32 0x8C379A000000000000000000000000000000000000000000000000000000000 DUP2 MSTORE PUSH1 0x4 ADD PUSH2 0x132C SWAP1 PUSH2 0x22F8 JUMP JUMPDEST PUSH1 0x40 MLOAD DUP1 SWAP2 SUB SWAP1 REVERT JUMPDEST PUSH1 0x3 PUSH0 SWAP1 SLOAD SWAP1 PUSH2 0x100 EXP SWAP1 DIV PUSH20 0xFFFFFFFFFFFFFFFFFFFFFFFFFFFFFFFFFFFFFFFF AND PUSH1 0x4 SLOAD SWAP2 POP SWAP2 POP SWAP1 SWAP2 JUMP JUMPDEST PUSH0 PUSH1 0x8 DUP1 SLOAD SWAP1 POP SWAP1 POP SWAP1 JUMP JUMPDEST PUSH0 PUSH1 0x2 PUSH0 SWAP1 SLOAD SWAP1 PUSH2 0x100 EXP SWAP1 DIV PUSH20 0xFFFFFFFFFFFFFFFFFFFFFFFFFFFFFFFFFFFFFFFF AND PUSH20 0xFFFFFFFFFFFFFFFFFFFFFFFFFFFFFFFFFFFFFFFF AND CALLER PUSH20 0xFFFFFFFFFFFFFFFFFFFFFFFFFFFFFFFFFFFFFFFF AND EQ PUSH2 0x13FE JUMPI PUSH1 0x40 MLOAD PUSH32 0x8C379A000000000000000000000000000000000000000000000000000000000 DUP2 MSTORE PUSH1 0x4 ADD PUSH2 0x13F5 SWAP1 PUSH2 0x2769 JUMP JUMPDEST PUSH1 0x40 MLOAD DUP1 SWAP2 SUB SWAP1 REVERT JUMPDEST PUSH1 0xB SLOAD SWAP1 POP SWAP1 JUMP JUMPDEST PUSH1 0x4 SLOAD DUP2 JUMP JUMPDEST PUSH2 0x1414 PUSH2 0x1B4A JUMP JUMPDEST PUSH1 0x7 PUSH0 SWAP1 SLOAD SWAP1 PUSH2 0x100 EXP SWAP1 DIV PUSH1 0xFF AND PUSH2 0x1462 JUMPI PUSH1 0x40 MLOAD PUSH32 0x8C379A000000000000000000000000000000000000000000000000000000000 DUP2 MSTORE PUSH1 0x4 ADD PUSH2 0x1459 SWAP1 PUSH2 0x2839 JUMP JUMPDEST PUSH1 0x40 MLOAD DUP1 SWAP2 SUB SWAP1 REVERT JUMPDEST PUSH0 SELFBALANCE SWAP1 POP PUSH0 DUP2 GT PUSH2 0x14A8 JUMPI PUSH1 0x40 MLOAD PUSH32 0x8C379A000000000000000000000000000000000000000000000000000000000 DUP2 MSTORE PUSH1 0x4 ADD PUSH2 0x149F SWAP1 PUSH2 0x28A1 JUMP JUMPDEST PUSH1 0x40 MLOAD DUP1 SWAP2 SUB SWAP1 REVERT JUMPDEST PUSH2 0x14D3 PUSH1 0x2 PUSH0 SWAP1 SLOAD SWAP1 PUSH2 0x100 EXP SWAP1 DIV PUSH20 0xFFFFFFFFFFFFFFFFFFFFFFFFFFFFFFFFFFFFFFFF AND DUP3 PUSH2 0x1AD3 JUMP JUMPDEST POP JUMP JUMPDEST PUSH2 0x14DE PUSH2 0x1B4A JUMP JUMPDEST PUSH0 PUSH20 0xFFFFFFFFFFFFFFFFFFFFFFFFFFFFFFFFFFFFFFFF AND DUP2 PUSH20 0xFFFFFFFFFFFFFFFFFFFFFFFFFFFFFFFFFFFFFFFF AND SUB PUSH2 0x154E JUMPI PUSH0 PUSH1 0x40 MLOAD PUSH32 0x1E4FBDF700000000000000000000000000000000000000000000000000000000 DUP2 MSTORE PUSH1 0x4 ADD PUSH2 0x1545 SWAP2 SWAP1 PUSH2 0x2219 JUMP JUMPDEST PUSH1 0x40 MLOAD DUP1 SWAP2 SUB SWAP1 REVERT JUMPDEST PUSH2 0x1557 DUP2 PUSH2 0x1C33 JUMP JUMPDEST POP JUMP JUMPDEST PUSH2 0x1562 PUSH2 0x1B4A JUMP JUMPDEST PUSH1 0x6 SLOAD TIMESTAMP LT ISZERO DUP1 PUSH2 0x157E JUMPI POP PUSH1 0x7 PUSH0 SWAP1 SLOAD SWAP1 PUSH2 0x100 EXP SWAP1 DIV PUSH1 0xFF AND JUMPDEST PUSH2 0x15BD JUMPI PUSH1 0x40 MLOAD PUSH32 0x8C379A000000000000000000000000000000000000000000000000000000000 DUP2 MSTORE PUSH1 0x4 ADD PUSH2 0x15B4 SWAP1 PUSH2 0x22F8 JUMP JUMPDEST PUSH1 0x40 MLOAD DUP1 SWAP2 SUB SWAP1 REVERT JUMPDEST PUSH2 0x15C5 PUSH2 0x1A5F JUMP JUMPDEST PUSH1 0x7 PUSH0 SWAP1 SLOAD SWAP1 PUSH2 0x100 EXP SWAP1 DIV PUSH1 0xFF AND PUSH2 0x1613 JUMPI PUSH1 0x40 MLOAD PUSH32 0x8C379A000000000000000000000000000000000000000000000000000000000 DUP2 MSTORE PUSH1 0x4 ADD PUSH2 0x160A SWAP1 PUSH2 0x2909 JUMP JUMPDEST PUSH1 0x40 MLOAD DUP1 SWAP2 SUB SWAP1 REVERT JUMPDEST PUSH0 PUSH1 0x8 DUP1 SLOAD SWAP1 POP SWAP1 POP PUSH0 PUSH0 PUSH0 PUSH0 PUSH0 PUSH0 SWAP1 POP JUMPDEST DUP6 DUP2 LT ISZERO PUSH2 0x17F7 JUMPI PUSH1 0x8 DUP2 DUP2 SLOAD DUP2 LT PUSH2 0x1641 JUMPI PUSH2 0x1640 PUSH2 0x2927 JUMP JUMPDEST JUMPDEST SWAP1 PUSH0 MSTORE PUSH1 0x20 PUSH0 KECCAK256 SWAP1 PUSH1 0x3 MUL ADD PUSH0 ADD PUSH0 SWAP1 SLOAD SWAP1 PUSH2 0x100 EXP SWAP1 DIV PUSH20 0xFFFFFFFFFFFFFFFFFFFFFFFFFFFFFFFFFFFFFFFF AND SWAP5 POP PUSH1 0x3 PUSH0 SWAP1 SLOAD SWAP1 PUSH2 0x100 EXP SWAP1 DIV PUSH20 0xFFFFFFFFFFFFFFFFFFFFFFFFFFFFFFFFFFFFFFFF AND PUSH20 0xFFFFFFFFFFFFFFFFFFFFFFFFFFFFFFFFFFFFFFFF AND DUP6 PUSH20 0xFFFFFFFFFFFFFFFFFFFFFFFFFFFFFFFFFFFFFFFF AND SUB ISZERO PUSH2 0x17EA JUMPI PUSH1 0x9 PUSH0 DUP7 PUSH20 0xFFFFFFFFFFFFFFFFFFFFFFFFFFFFFFFFFFFFFFFF AND PUSH20 0xFFFFFFFFFFFFFFFFFFFFFFFFFFFFFFFFFFFFFFFF AND DUP2 MSTORE PUSH1 0x20 ADD SWAP1 DUP2 MSTORE PUSH1 0x20 ADD PUSH0 KECCAK256 SLOAD SWAP4 POP PUSH0 DUP5 SUB ISZERO PUSH2 0x17EA JUMPI PUSH1 0x64 PUSH1 0x2 DUP6 PUSH2 0x171D SWAP2 SWAP1 PUSH2 0x25E6 JUMP JUMPDEST PUSH2 0x1727 SWAP2 SWAP1 PUSH2 0x2654 JUMP JUMPDEST SWAP3 POP DUP3 DUP5 PUSH2 0x1735 SWAP2 SWAP1 PUSH2 0x26EC JUMP JUMPDEST SWAP2 POP PUSH0 PUSH1 0x9 PUSH0 DUP8 PUSH20 0xFFFFFFFFFFFFFFFFFFFFFFFFFFFFFFFFFFFFFFFF AND PUSH20 0xFFFFFFFFFFFFFFFFFFFFFFFFFFFFFFFFFFFFFFFF AND DUP2 MSTORE PUSH1 0x20 ADD SWAP1 DUP2 MSTORE PUSH1 0x20 ADD PUSH0 KECCAK256 DUP2 SWAP1 SSTORE POP DUP3 PUSH1 0xB PUSH0 DUP3 DUP3 SLOAD PUSH2 0x178A SWAP2 SWAP1 PUSH2 0x2413 JUMP JUMPDEST SWAP3 POP POP DUP2 SWAP1 SSTORE POP PUSH2 0x179B DUP6 DUP4 PUSH2 0x1AD3 JUMP JUMPDEST DUP5 PUSH20 0xFFFFFFFFFFFFFFFFFFFFFFFFFFFFFFFFFFFFFFFF AND PUSH32 0x7FCF532C15F0A6DB0BD6D0E038BEA71D30D808C7D98CB3BF7268A95BF5081B65 DUP4 PUSH1 0x40 MLOAD PUSH2 0x17E1 SWAP2 SWAP1 PUSH2 0x202C JUMP JUMPDEST PUSH1 0x40 MLOAD DUP1 SWAP2 SUB SWAP1 LOG2 JUMPDEST DUP1 DUP1 PUSH1 0x1 ADD SWAP2 POP POP PUSH2 0x1625 JUMP JUMPDEST POP POP POP POP POP POP PUSH2 0x1805 PUSH2 0x1B00 JUMP JUMPDEST JUMP JUMPDEST PUSH1 0x9 PUSH1 0x20 MSTORE DUP1 PUSH0 MSTORE PUSH1 0x40 PUSH0 KECCAK256 PUSH0 SWAP2 POP SWAP1 POP SLOAD DUP2 JUMP JUMPDEST PUSH1 0x6 SLOAD TIMESTAMP LT ISZERO DUP1 PUSH2 0x1838 JUMPI POP PUSH1 0x7 PUSH0 SWAP1 SLOAD SWAP1 PUSH2 0x100 EXP SWAP1 DIV PUSH1 0xFF AND JUMPDEST PUSH2 0x1877 JUMPI PUSH1 0x40 MLOAD PUSH32 0x8C379A000000000000000000000000000000000000000000000000000000000 DUP2 MSTORE PUSH1 0x4 ADD PUSH2 0x186E SWAP1 PUSH2 0x22F8 JUMP JUMPDEST PUSH1 0x40 MLOAD DUP1 SWAP2 SUB SWAP1 REVERT JUMPDEST PUSH2 0x187F PUSH2 0x1A5F JUMP JUMPDEST PUSH1 0x7 PUSH0 SWAP1 SLOAD SWAP1 PUSH2 0x100 EXP SWAP1 DIV PUSH1 0xFF AND ISZERO PUSH2 0x18CE JUMPI PUSH1 0x40 MLOAD PUSH32 0x8C379A000000000000000000000000000000000000000000000000000000000 DUP2 MSTORE PUSH1 0x4 ADD PUSH2 0x18C5 SWAP1 PUSH2 0x299E JUMP JUMPDEST PUSH1 0x40 MLOAD DUP1 SWAP2 SUB SWAP1 REVERT JUMPDEST PUSH1 0x1 PUSH1 0x7 PUSH0 PUSH2 0x100 EXP DUP2 SLOAD DUP2 PUSH1 0xFF MUL NOT AND SWAP1 DUP4 ISZERO ISZERO MUL OR SWAP1 SSTORE POP PUSH1 0x3 PUSH0 SWAP1 SLOAD SWAP1 PUSH2 0x100 EXP SWAP1 DIV PUSH20 0xFFFFFFFFFFFFFFFFFFFFFFFFFFFFFFFFFFFFFFFF AND PUSH20 0xFFFFFFFFFFFFFFFFFFFFFFFFFFFFFFFFFFFFFFFF AND PUSH32 0xDAEC4582D5D9595688C8C98545FDD1C696D41C6AEAEB636737E84ED2F5C00EDA PUSH1 0x4 SLOAD PUSH1 0x40 MLOAD PUSH2 0x1951 SWAP2 SWAP1 PUSH2 0x202C JUMP JUMPDEST PUSH1 0x40 MLOAD DUP1 SWAP2 SUB SWAP1 LOG2 PUSH0 PUSH1 0x4 SLOAD GT ISZERO PUSH2 0x1A55 JUMPI PUSH0 PUSH1 0x9 PUSH0 PUSH1 0x3 PUSH0 SWAP1 SLOAD SWAP1 PUSH2 0x100 EXP SWAP1 DIV PUSH20 0xFFFFFFFFFFFFFFFFFFFFFFFFFFFFFFFFFFFFFFFF AND PUSH20 0xFFFFFFFFFFFFFFFFFFFFFFFFFFFFFFFFFFFFFFFF AND PUSH20 0xFFFFFFFFFFFFFFFFFFFFFFFFFFFFFFFFFFFFFFFF AND DUP2 MSTORE PUSH1 0x20 ADD SWAP1 DUP2 MSTORE PUSH1 0x20 ADD PUSH0 KECCAK256 SLOAD SWAP1 POP PUSH0 PUSH1 0x9 PUSH0 PUSH1 0x3 PUSH0 SWAP1 SLOAD SWAP1 PUSH2 0x100 EXP SWAP1 DIV PUSH20 0xFFFFFFFFFFFFFFFFFFFFFFFFFFFFFFFFFFFFFFFF AND PUSH20 0xFFFFFFFFFFFFFFFFFFFFFFFFFFFFFFFFFFFFFFFF AND PUSH20 0xFFFFFFFFFFFFFFFFFFFFFFFFFFFFFFFFFFFFFFFF AND DUP2 MSTORE PUSH1 0x20 ADD SWAP1 DUP2 MSTORE PUSH1 0x20 ADD PUSH0 KECCAK256 DUP2 SWAP1 SSTORE POP PUSH2 0x1A53 PUSH1 0x2 PUSH0 SWAP1 SLOAD SWAP1 PUSH2 0x100 EXP SWAP1 DIV PUSH20 0xFFFFFFFFFFFFFFFFFFFFFFFFFFFFFFFFFFFFFFFF AND DUP3 PUSH2 0x1AD3 JUMP JUMPDEST POP JUMPDEST PUSH2 0x1A5D PUSH2 0x1B00 JUMP JUMPDEST JUMP JUMPDEST PUSH1 0x2 PUSH0 SLOAD SUB PUSH2 0x1A9A JUMPI PUSH1 0x40 MLOAD PUSH32 0x3EE5AEB500000000000000000000000000000000000000000000000000000000 DUP2 MSTORE PUSH1 0x4 ADD PUSH1 0x40 MLOAD DUP1 SWAP2 SUB SWAP1 REVERT JUMPDEST PUSH1 0x2 PUSH0 DUP2 SWAP1 SSTORE POP JUMP JUMPDEST PUSH0 PUSH0 PUSH1 0x64 PUSH1 0x2 DUP5 PUSH2 0x1AB4 SWAP2 SWAP1 PUSH2 0x25E6 JUMP JUMPDEST PUSH2 0x1ABE SWAP2 SWAP1 PUSH2 0x2654 JUMP JUMPDEST SWAP2 POP DUP2 DUP4 PUSH2 0x1ACC SWAP2 SWAP1 PUSH2 0x26EC JUMP JUMPDEST SWAP1 POP SWAP2 POP SWAP2 JUMP JUMPDEST PUSH2 0x1AFC DUP2 DUP4 PUSH20 0xFFFFFFFFFFFFFFFFFFFFFFFFFFFFFFFFFFFFFFFF AND PUSH2 0x1D58 SWAP1 SWAP2 SWAP1 PUSH4 0xFFFFFFFF AND JUMP JUMPDEST POP POP JUMP JUMPDEST PUSH1 0x1 PUSH0 DUP2 SWAP1 SSTORE POP JUMP JUMPDEST PUSH2 0x1B11 PUSH2 0x11A7 JUMP JUMPDEST ISZERO PUSH2 0x1B48 JUMPI PUSH1 0x40 MLOAD PUSH32 0xD93C066500000000000000000000000000000000000000000000000000000000 DUP2 MSTORE PUSH1 0x4 ADD PUSH1 0x40 MLOAD DUP1 SWAP2 SUB SWAP1 REVERT JUMPDEST JUMP JUMPDEST PUSH2 0x1B52 PUSH2 0x1E1E JUMP JUMPDEST PUSH20 0xFFFFFFFFFFFFFFFFFFFFFFFFFFFFFFFFFFFFFFFF AND PUSH2 0x1B70 PUSH2 0x1247 JUMP JUMPDEST PUSH20 0xFFFFFFFFFFFFFFFFFFFFFFFFFFFFFFFFFFFFFFFF AND EQ PUSH2 0x1BCF JUMPI PUSH2 0x1B93 PUSH2 0x1E1E JUMP JUMPDEST PUSH1 0x40 MLOAD PUSH32 0x118CDAA700000000000000000000000000000000000000000000000000000000 DUP2 MSTORE PUSH1 0x4 ADD PUSH2 0x1BC6 SWAP2 SWAP1 PUSH2 0x2219 JUMP JUMPDEST PUSH1 0x40 MLOAD DUP1 SWAP2 SUB SWAP1 REVERT JUMPDEST JUMP JUMPDEST PUSH2 0x1BD9 PUSH2 0x1E25 JUMP JUMPDEST PUSH0 PUSH1 0x1 PUSH1 0x14 PUSH2 0x100 EXP DUP2 SLOAD DUP2 PUSH1 0xFF MUL NOT AND SWAP1 DUP4 ISZERO ISZERO MUL OR SWAP1 SSTORE POP PUSH32 0x5DB9EE0A495BF2E6FF9C91A7834C1BA4FDD244A5E8AA4E537BD38AEAE4B073AA PUSH2 0x1C1C PUSH2 0x1E1E JUMP JUMPDEST PUSH1 0x40 MLOAD PUSH2 0x1C29 SWAP2 SWAP1 PUSH2 0x2219 JUMP JUMPDEST PUSH1 0x40 MLOAD DUP1 SWAP2 SUB SWAP1 LOG1 JUMP JUMPDEST PUSH0 PUSH1 0x1 PUSH0 SWAP1 SLOAD SWAP1 PUSH2 0x100 EXP SWAP1 DIV PUSH20 0xFFFFFFFFFFFFFFFFFFFFFFFFFFFFFFFFFFFFFFFF AND SWAP1 POP DUP2 PUSH1 0x1 PUSH0 PUSH2 0x100 EXP DUP2 SLOAD DUP2 PUSH20 0xFFFFFFFFFFFFFFFFFFFFFFFFFFFFFFFFFFFFFFFF MUL NOT AND SWAP1 DUP4 PUSH20 0xFFFFFFFFFFFFFFFFFFFFFFFFFFFFFFFFFFFFFFFF AND MUL OR SWAP1 SSTORE POP DUP2 PUSH20 0xFFFFFFFFFFFFFFFFFFFFFFFFFFFFFFFFFFFFFFFF AND DUP2 PUSH20 0xFFFFFFFFFFFFFFFFFFFFFFFFFFFFFFFFFFFFFFFF AND PUSH32 0x8BE0079C531659141344CD1FD0A4F28419497F9722A3DAAFE3B4186F6B6457E0 PUSH1 0x40 MLOAD PUSH1 0x40 MLOAD DUP1 SWAP2 SUB SWAP1 LOG3 POP POP JUMP JUMPDEST PUSH2 0x1CFE PUSH2 0x1B09 JUMP JUMPDEST PUSH1 0x1 DUP1 PUSH1 0x14 PUSH2 0x100 EXP DUP2 SLOAD DUP2 PUSH1 0xFF MUL NOT AND SWAP1 DUP4 ISZERO ISZERO MUL OR SWAP1 SSTORE POP PUSH32 0x62E78CEA01BEE320CD4E420270B5EA74000D11B0C9F74754EBDBFC544B05A258 PUSH2 0x1D41 PUSH2 0x1E1E JUMP JUMPDEST PUSH1 0x40 MLOAD PUSH2 0x1D4E SWAP2 SWAP1 PUSH2 0x2219 JUMP JUMPDEST PUSH1 0x40 MLOAD DUP1 SWAP2 SUB SWAP1 LOG1 JUMP JUMPDEST DUP1 SELFBALANCE LT ISZERO PUSH2 0x1D9F JUMPI SELFBALANCE DUP2 PUSH1 0x40 MLOAD PUSH32 0xCF47918100000000000000000000000000000000000000000000000000000000 DUP2 MSTORE PUSH1 0x4 ADD PUSH2 0x1D96 SWAP3 SWAP2 SWAP1 PUSH2 0x29BC JUMP JUMPDEST PUSH1 0x40 MLOAD DUP1 SWAP2 SUB SWAP1 REVERT JUMPDEST PUSH0 PUSH0 DUP4 PUSH20 0xFFFFFFFFFFFFFFFFFFFFFFFFFFFFFFFFFFFFFFFF AND DUP4 PUSH1 0x40 MLOAD PUSH2 0x1DC5 SWAP1 PUSH2 0x2A10 JUMP JUMPDEST PUSH0 PUSH1 0x40 MLOAD DUP1 DUP4 SUB DUP2 DUP6 DUP8 GAS CALL SWAP3 POP POP POP RETURNDATASIZE DUP1 PUSH0 DUP2 EQ PUSH2 0x1DFF JUMPI PUSH1 0x40 MLOAD SWAP2 POP PUSH1 0x1F NOT PUSH1 0x3F RETURNDATASIZE ADD AND DUP3 ADD PUSH1 0x40 MSTORE RETURNDATASIZE DUP3 MSTORE RETURNDATASIZE PUSH0 PUSH1 0x20 DUP5 ADD RETURNDATACOPY PUSH2 0x1E04 JUMP JUMPDEST PUSH1 0x60 SWAP2 POP JUMPDEST POP SWAP2 POP SWAP2 POP DUP2 PUSH2 0x1E18 JUMPI PUSH2 0x1E17 DUP2 PUSH2 0x1E65 JUMP JUMPDEST JUMPDEST POP POP POP POP JUMP JUMPDEST PUSH0 CALLER SWAP1 POP SWAP1 JUMP JUMPDEST PUSH2 0x1E2D PUSH2 0x11A7 JUMP JUMPDEST PUSH2 0x1E63 JUMPI PUSH1 0x40 MLOAD PUSH32 0x8DFC202B00000000000000000000000000000000000000000000000000000000 DUP2 MSTORE PUSH1 0x4 ADD PUSH1 0x40 MLOAD DUP1 SWAP2 SUB SWAP1 REVERT JUMPDEST JUMP JUMPDEST PUSH0 DUP2 MLOAD GT ISZERO PUSH2 0x1E77 JUMPI DUP1 MLOAD DUP1 DUP3 PUSH1 0x20 ADD REVERT JUMPDEST PUSH1 0x40 MLOAD PUSH32 0xD6BDA27500000000000000000000000000000000000000000000000000000000 DUP2 MSTORE PUSH1 0x4 ADD PUSH1 0x40 MLOAD DUP1 SWAP2 SUB SWAP1 REVERT JUMPDEST PUSH0 DUP3 DUP3 MSTORE PUSH1 0x20 DUP3 ADD SWAP1 POP SWAP3 SWAP2 POP POP JUMP JUMPDEST PUSH32 0x5573652062696428290000000000000000000000000000000000000000000000 PUSH0 DUP3 ADD MSTORE POP JUMP JUMPDEST PUSH0 PUSH2 0x1EED PUSH1 0x9 DUP4 PUSH2 0x1EA9 JUMP JUMPDEST SWAP2 POP PUSH2 0x1EF8 DUP3 PUSH2 0x1EB9 JUMP JUMPDEST PUSH1 0x20 DUP3 ADD SWAP1 POP SWAP2 SWAP1 POP JUMP JUMPDEST PUSH0 PUSH1 0x20 DUP3 ADD SWAP1 POP DUP2 DUP2 SUB PUSH0 DUP4 ADD MSTORE PUSH2 0x1F1A DUP2 PUSH2 0x1EE1 JUMP JUMPDEST SWAP1 POP SWAP2 SWAP1 POP JUMP JUMPDEST PUSH32 0x496E76616C69642063616C6C0000000000000000000000000000000000000000 PUSH0 DUP3 ADD MSTORE POP JUMP JUMPDEST PUSH0 PUSH2 0x1F55 PUSH1 0xC DUP4 PUSH2 0x1EA9 JUMP JUMPDEST SWAP2 POP PUSH2 0x1F60 DUP3 PUSH2 0x1F21 JUMP JUMPDEST PUSH1 0x20 DUP3 ADD SWAP1 POP SWAP2 SWAP1 POP JUMP JUMPDEST PUSH0 PUSH1 0x20 DUP3 ADD SWAP1 POP DUP2 DUP2 SUB PUSH0 DUP4 ADD MSTORE PUSH2 0x1F82 DUP2 PUSH2 0x1F49 JUMP JUMPDEST SWAP1 POP SWAP2 SWAP1 POP JUMP JUMPDEST PUSH0 PUSH20 0xFFFFFFFFFFFFFFFFFFFFFFFFFFFFFFFFFFFFFFFF DUP3 AND SWAP1 POP SWAP2 SWAP1 POP JUMP JUMPDEST PUSH0 PUSH2 0x1FB2 DUP3 PUSH2 0x1F89 JUMP JUMPDEST SWAP1 POP SWAP2 SWAP1 POP JUMP JUMPDEST PUSH2 0x1FC2 DUP2 PUSH2 0x1FA8 JUMP JUMPDEST DUP3 MSTORE POP POP JUMP JUMPDEST PUSH0 PUSH1 0x20 DUP3 ADD SWAP1 POP PUSH2 0x1FDB PUSH0 DUP4 ADD DUP5 PUSH2 0x1FB9 JUMP JUMPDEST SWAP3 SWAP2 POP POP JUMP JUMPDEST PUSH0 DUP2 ISZERO ISZERO SWAP1 POP SWAP2 SWAP1 POP JUMP JUMPDEST PUSH2 0x1FF5 DUP2 PUSH2 0x1FE1 JUMP JUMPDEST DUP3 MSTORE POP POP JUMP JUMPDEST PUSH0 PUSH1 0x20 DUP3 ADD SWAP1 POP PUSH2 0x200E PUSH0 DUP4 ADD DUP5 PUSH2 0x1FEC JUMP JUMPDEST SWAP3 SWAP2 POP POP JUMP JUMPDEST PUSH0 DUP2 SWAP1 POP SWAP2 SWAP1 POP JUMP JUMPDEST PUSH2 0x2026 DUP2 PUSH2 0x2014 JUMP JUMPDEST DUP3 MSTORE POP POP JUMP JUMPDEST PUSH0 PUSH1 0x20 DUP3 ADD SWAP1 POP PUSH2 0x203F PUSH0 DUP4 ADD DUP5 PUSH2 0x201D JUMP JUMPDEST SWAP3 SWAP2 POP POP JUMP JUMPDEST PUSH0 DUP2 MLOAD SWAP1 POP SWAP2 SWAP1 POP JUMP JUMPDEST PUSH0 DUP3 DUP3 MSTORE PUSH1 0x20 DUP3 ADD SWAP1 POP SWAP3 SWAP2 POP POP JUMP JUMPDEST PUSH0 DUP2 SWAP1 POP PUSH1 0x20 DUP3 ADD SWAP1 POP SWAP2 SWAP1 POP JUMP JUMPDEST PUSH0 PUSH2 0x2078 DUP3 PUSH2 0x1F89 JUMP JUMPDEST SWAP1 POP SWAP2 SWAP1 POP JUMP JUMPDEST PUSH2 0x2088 DUP2 PUSH2 0x206E JUMP JUMPDEST DUP3 MSTORE POP POP JUMP JUMPDEST PUSH2 0x2097 DUP2 PUSH2 0x2014 JUMP JUMPDEST DUP3 MSTORE POP POP JUMP JUMPDEST PUSH1 0x60 DUP3 ADD PUSH0 DUP3 ADD MLOAD PUSH2 0x20B1 PUSH0 DUP6 ADD DUP3 PUSH2 0x207F JUMP JUMPDEST POP PUSH1 0x20 DUP3 ADD MLOAD PUSH2 0x20C4 PUSH1 0x20 DUP6 ADD DUP3 PUSH2 0x208E JUMP JUMPDEST POP PUSH1 0x40 DUP3 ADD MLOAD PUSH2 0x20D7 PUSH1 0x40 DUP6 ADD DUP3 PUSH2 0x208E JUMP JUMPDEST POP POP POP POP JUMP JUMPDEST PUSH0 PUSH2 0x20E8 DUP4 DUP4 PUSH2 0x209D JUMP JUMPDEST PUSH1 0x60 DUP4 ADD SWAP1 POP SWAP3 SWAP2 POP POP JUMP JUMPDEST PUSH0 PUSH1 0x20 DUP3 ADD SWAP1 POP SWAP2 SWAP1 POP JUMP JUMPDEST PUSH0 PUSH2 0x210A DUP3 PUSH2 0x2045 JUMP JUMPDEST PUSH2 0x2114 DUP2 DUP6 PUSH2 0x204F JUMP JUMPDEST SWAP4 POP PUSH2 0x211F DUP4 PUSH2 0x205F JUMP JUMPDEST DUP1 PUSH0 JUMPDEST DUP4 DUP2 LT ISZERO PUSH2 0x214F JUMPI DUP2 MLOAD PUSH2 0x2136 DUP9 DUP3 PUSH2 0x20DD JUMP JUMPDEST SWAP8 POP PUSH2 0x2141 DUP4 PUSH2 0x20F4 JUMP JUMPDEST SWAP3 POP POP PUSH1 0x1 DUP2 ADD SWAP1 POP PUSH2 0x2122 JUMP JUMPDEST POP DUP6 SWAP4 POP POP POP POP SWAP3 SWAP2 POP POP JUMP JUMPDEST PUSH0 PUSH1 0x20 DUP3 ADD SWAP1 POP DUP2 DUP2 SUB PUSH0 DUP4 ADD MSTORE PUSH2 0x2174 DUP2 DUP5 PUSH2 0x2100 JUMP JUMPDEST SWAP1 POP SWAP3 SWAP2 POP POP JUMP JUMPDEST PUSH0 PUSH0 REVERT JUMPDEST PUSH2 0x2189 DUP2 PUSH2 0x2014 JUMP JUMPDEST DUP2 EQ PUSH2 0x2193 JUMPI PUSH0 PUSH0 REVERT JUMPDEST POP JUMP JUMPDEST PUSH0 DUP2 CALLDATALOAD SWAP1 POP PUSH2 0x21A4 DUP2 PUSH2 0x2180 JUMP JUMPDEST SWAP3 SWAP2 POP POP JUMP JUMPDEST PUSH0 PUSH1 0x20 DUP3 DUP5 SUB SLT ISZERO PUSH2 0x21BF JUMPI PUSH2 0x21BE PUSH2 0x217C JUMP JUMPDEST JUMPDEST PUSH0 PUSH2 0x21CC DUP5 DUP3 DUP6 ADD PUSH2 0x2196 JUMP JUMPDEST SWAP2 POP POP SWAP3 SWAP2 POP POP JUMP JUMPDEST PUSH2 0x21DE DUP2 PUSH2 0x206E JUMP JUMPDEST DUP3 MSTORE POP POP JUMP JUMPDEST PUSH0 PUSH1 0x60 DUP3 ADD SWAP1 POP PUSH2 0x21F7 PUSH0 DUP4 ADD DUP7 PUSH2 0x21D5 JUMP JUMPDEST PUSH2 0x2204 PUSH1 0x20 DUP4 ADD DUP6 PUSH2 0x201D JUMP JUMPDEST PUSH2 0x2211 PUSH1 0x40 DUP4 ADD DUP5 PUSH2 0x201D JUMP JUMPDEST SWAP5 SWAP4 POP POP POP POP JUMP JUMPDEST PUSH0 PUSH1 0x20 DUP3 ADD SWAP1 POP PUSH2 0x222C PUSH0 DUP4 ADD DUP5 PUSH2 0x21D5 JUMP JUMPDEST SWAP3 SWAP2 POP POP JUMP JUMPDEST PUSH0 PUSH1 0x40 DUP3 ADD SWAP1 POP PUSH2 0x2245 PUSH0 DUP4 ADD DUP6 PUSH2 0x21D5 JUMP JUMPDEST PUSH2 0x2252 PUSH1 0x20 DUP4 ADD DUP5 PUSH2 0x201D JUMP JUMPDEST SWAP4 SWAP3 POP POP POP JUMP JUMPDEST PUSH2 0x2262 DUP2 PUSH2 0x206E JUMP JUMPDEST DUP2 EQ PUSH2 0x226C JUMPI PUSH0 PUSH0 REVERT JUMPDEST POP JUMP JUMPDEST PUSH0 DUP2 CALLDATALOAD SWAP1 POP PUSH2 0x227D DUP2 PUSH2 0x2259 JUMP JUMPDEST SWAP3 SWAP2 POP POP JUMP JUMPDEST PUSH0 PUSH1 0x20 DUP3 DUP5 SUB SLT ISZERO PUSH2 0x2298 JUMPI PUSH2 0x2297 PUSH2 0x217C JUMP JUMPDEST JUMPDEST PUSH0 PUSH2 0x22A5 DUP5 DUP3 DUP6 ADD PUSH2 0x226F JUMP JUMPDEST SWAP2 POP POP SWAP3 SWAP2 POP POP JUMP JUMPDEST PUSH32 0x4E6F7420656E6465640000000000000000000000000000000000000000000000 PUSH0 DUP3 ADD MSTORE POP JUMP JUMPDEST PUSH0 PUSH2 0x22E2 PUSH1 0x9 DUP4 PUSH2 0x1EA9 JUMP JUMPDEST SWAP2 POP PUSH2 0x22ED DUP3 PUSH2 0x22AE JUMP JUMPDEST PUSH1 0x20 DUP3 ADD SWAP1 POP SWAP2 SWAP1 POP JUMP JUMPDEST PUSH0 PUSH1 0x20 DUP3 ADD SWAP1 POP DUP2 DUP2 SUB PUSH0 DUP4 ADD MSTORE PUSH2 0x230F DUP2 PUSH2 0x22D6 JUMP JUMPDEST SWAP1 POP SWAP2 SWAP1 POP JUMP JUMPDEST PUSH32 0x57696E6E65722063616E6E6F7420776974686472617700000000000000000000 PUSH0 DUP3 ADD MSTORE POP JUMP JUMPDEST PUSH0 PUSH2 0x234A PUSH1 0x16 DUP4 PUSH2 0x1EA9 JUMP JUMPDEST SWAP2 POP PUSH2 0x2355 DUP3 PUSH2 0x2316 JUMP JUMPDEST PUSH1 0x20 DUP3 ADD SWAP1 POP SWAP2 SWAP1 POP JUMP JUMPDEST PUSH0 PUSH1 0x20 DUP3 ADD SWAP1 POP DUP2 DUP2 SUB PUSH0 DUP4 ADD MSTORE PUSH2 0x2377 DUP2 PUSH2 0x233E JUMP JUMPDEST SWAP1 POP SWAP2 SWAP1 POP JUMP JUMPDEST PUSH32 0x4E6F2066756E6473000000000000000000000000000000000000000000000000 PUSH0 DUP3 ADD MSTORE POP JUMP JUMPDEST PUSH0 PUSH2 0x23B2 PUSH1 0x8 DUP4 PUSH2 0x1EA9 JUMP JUMPDEST SWAP2 POP PUSH2 0x23BD DUP3 PUSH2 0x237E JUMP JUMPDEST PUSH1 0x20 DUP3 ADD SWAP1 POP SWAP2 SWAP1 POP JUMP JUMPDEST PUSH0 PUSH1 0x20 DUP3 ADD SWAP1 POP DUP2 DUP2 SUB PUSH0 DUP4 ADD MSTORE PUSH2 0x23DF DUP2 PUSH2 0x23A6 JUMP JUMPDEST SWAP1 POP SWAP2 SWAP1 POP JUMP JUMPDEST PUSH32 0x4E487B7100000000000000000000000000000000000000000000000000000000 PUSH0 MSTORE PUSH1 0x11 PUSH1 0x4 MSTORE PUSH1 0x24 PUSH0 REVERT JUMPDEST PUSH0 PUSH2 0x241D DUP3 PUSH2 0x2014 JUMP JUMPDEST SWAP2 POP PUSH2 0x2428 DUP4 PUSH2 0x2014 JUMP JUMPDEST SWAP3 POP DUP3 DUP3 ADD SWAP1 POP DUP1 DUP3 GT ISZERO PUSH2 0x2440 JUMPI PUSH2 0x243F PUSH2 0x23E6 JUMP JUMPDEST JUMPDEST SWAP3 SWAP2 POP POP JUMP JUMPDEST PUSH32 0x41756374696F6E20656E64656400000000000000000000000000000000000000 PUSH0 DUP3 ADD MSTORE POP JUMP JUMPDEST PUSH0 PUSH2 0x247A PUSH1 0xD DUP4 PUSH2 0x1EA9 JUMP JUMPDEST SWAP2 POP PUSH2 0x2485 DUP3 PUSH2 0x2446 JUMP JUMPDEST PUSH1 0x20 DUP3 ADD SWAP1 POP SWAP2 SWAP1 POP JUMP JUMPDEST PUSH0 PUSH1 0x20 DUP3 ADD SWAP1 POP DUP2 DUP2 SUB PUSH0 DUP4 ADD MSTORE PUSH2 0x24A7 DUP2 PUSH2 0x246E JUMP JUMPDEST SWAP1 POP SWAP2 SWAP1 POP JUMP JUMPDEST PUSH32 0x4E6F742073746172746564000000000000000000000000000000000000000000 PUSH0 DUP3 ADD MSTORE POP JUMP JUMPDEST PUSH0 PUSH2 0x24E2 PUSH1 0xB DUP4 PUSH2 0x1EA9 JUMP JUMPDEST SWAP2 POP PUSH2 0x24ED DUP3 PUSH2 0x24AE JUMP JUMPDEST PUSH1 0x20 DUP3 ADD SWAP1 POP SWAP2 SWAP1 POP JUMP JUMPDEST PUSH0 PUSH1 0x20 DUP3 ADD SWAP1 POP DUP2 DUP2 SUB PUSH0 DUP4 ADD MSTORE PUSH2 0x250F DUP2 PUSH2 0x24D6 JUMP JUMPDEST SWAP1 POP SWAP2 SWAP1 POP JUMP JUMPDEST PUSH32 0x54696D6520657870697265640000000000000000000000000000000000000000 PUSH0 DUP3 ADD MSTORE POP JUMP JUMPDEST PUSH0 PUSH2 0x254A PUSH1 0xC DUP4 PUSH2 0x1EA9 JUMP JUMPDEST SWAP2 POP PUSH2 0x2555 DUP3 PUSH2 0x2516 JUMP JUMPDEST PUSH1 0x20 DUP3 ADD SWAP1 POP SWAP2 SWAP1 POP JUMP JUMPDEST PUSH0 PUSH1 0x20 DUP3 ADD SWAP1 POP DUP2 DUP2 SUB PUSH0 DUP4 ADD MSTORE PUSH2 0x2577 DUP2 PUSH2 0x253E JUMP JUMPDEST SWAP1 POP SWAP2 SWAP1 POP JUMP JUMPDEST PUSH32 0x5A65726F20626964000000000000000000000000000000000000000000000000 PUSH0 DUP3 ADD MSTORE POP JUMP JUMPDEST PUSH0 PUSH2 0x25B2 PUSH1 0x8 DUP4 PUSH2 0x1EA9 JUMP JUMPDEST SWAP2 POP PUSH2 0x25BD DUP3 PUSH2 0x257E JUMP JUMPDEST PUSH1 0x20 DUP3 ADD SWAP1 POP SWAP2 SWAP1 POP JUMP JUMPDEST PUSH0 PUSH1 0x20 DUP3 ADD SWAP1 POP DUP2 DUP2 SUB PUSH0 DUP4 ADD MSTORE PUSH2 0x25DF DUP2 PUSH2 0x25A6 JUMP JUMPDEST SWAP1 POP SWAP2 SWAP1 POP JUMP JUMPDEST PUSH0 PUSH2 0x25F0 DUP3 PUSH2 0x2014 JUMP JUMPDEST SWAP2 POP PUSH2 0x25FB DUP4 PUSH2 0x2014 JUMP JUMPDEST SWAP3 POP DUP3 DUP3 MUL PUSH2 0x2609 DUP2 PUSH2 0x2014 JUMP JUMPDEST SWAP2 POP DUP3 DUP3 DIV DUP5 EQ DUP4 ISZERO OR PUSH2 0x2620 JUMPI PUSH2 0x261F PUSH2 0x23E6 JUMP JUMPDEST JUMPDEST POP SWAP3 SWAP2 POP POP JUMP JUMPDEST PUSH32 0x4E487B7100000000000000000000000000000000000000000000000000000000 PUSH0 MSTORE PUSH1 0x12 PUSH1 0x4 MSTORE PUSH1 0x24 PUSH0 REVERT JUMPDEST PUSH0 PUSH2 0x265E DUP3 PUSH2 0x2014 JUMP JUMPDEST SWAP2 POP PUSH2 0x2669 DUP4 PUSH2 0x2014 JUMP JUMPDEST SWAP3 POP DUP3 PUSH2 0x2679 JUMPI PUSH2 0x2678 PUSH2 0x2627 JUMP JUMPDEST JUMPDEST DUP3 DUP3 DIV SWAP1 POP SWAP3 SWAP2 POP POP JUMP JUMPDEST PUSH32 0x42696420746F6F206C6F77000000000000000000000000000000000000000000 PUSH0 DUP3 ADD MSTORE POP JUMP JUMPDEST PUSH0 PUSH2 0x26B8 PUSH1 0xB DUP4 PUSH2 0x1EA9 JUMP JUMPDEST SWAP2 POP PUSH2 0x26C3 DUP3 PUSH2 0x2684 JUMP JUMPDEST PUSH1 0x20 DUP3 ADD SWAP1 POP SWAP2 SWAP1 POP JUMP JUMPDEST PUSH0 PUSH1 0x20 DUP3 ADD SWAP1 POP DUP2 DUP2 SUB PUSH0 DUP4 ADD MSTORE PUSH2 0x26E5 DUP2 PUSH2 0x26AC JUMP JUMPDEST SWAP1 POP SWAP2 SWAP1 POP JUMP JUMPDEST PUSH0 PUSH2 0x26F6 DUP3 PUSH2 0x2014 JUMP JUMPDEST SWAP2 POP PUSH2 0x2701 DUP4 PUSH2 0x2014 JUMP JUMPDEST SWAP3 POP DUP3 DUP3 SUB SWAP1 POP DUP2 DUP2 GT ISZERO PUSH2 0x2719 JUMPI PUSH2 0x2718 PUSH2 0x23E6 JUMP JUMPDEST JUMPDEST SWAP3 SWAP2 POP POP JUMP JUMPDEST PUSH32 0x4E6F742073656C6C657200000000000000000000000000000000000000000000 PUSH0 DUP3 ADD MSTORE POP JUMP JUMPDEST PUSH0 PUSH2 0x2753 PUSH1 0xA DUP4 PUSH2 0x1EA9 JUMP JUMPDEST SWAP2 POP PUSH2 0x275E DUP3 PUSH2 0x271F JUMP JUMPDEST PUSH1 0x20 DUP3 ADD SWAP1 POP SWAP2 SWAP1 POP JUMP JUMPDEST PUSH0 PUSH1 0x20 DUP3 ADD SWAP1 POP DUP2 DUP2 SUB PUSH0 DUP4 ADD MSTORE PUSH2 0x2780 DUP2 PUSH2 0x2747 JUMP JUMPDEST SWAP1 POP SWAP2 SWAP1 POP JUMP JUMPDEST PUSH32 0x4E6F206665657300000000000000000000000000000000000000000000000000 PUSH0 DUP3 ADD MSTORE POP JUMP JUMPDEST PUSH0 PUSH2 0x27BB PUSH1 0x7 DUP4 PUSH2 0x1EA9 JUMP JUMPDEST SWAP2 POP PUSH2 0x27C6 DUP3 PUSH2 0x2787 JUMP JUMPDEST PUSH1 0x20 DUP3 ADD SWAP1 POP SWAP2 SWAP1 POP JUMP JUMPDEST PUSH0 PUSH1 0x20 DUP3 ADD SWAP1 POP DUP2 DUP2 SUB PUSH0 DUP4 ADD MSTORE PUSH2 0x27E8 DUP2 PUSH2 0x27AF JUMP JUMPDEST SWAP1 POP SWAP2 SWAP1 POP JUMP JUMPDEST PUSH32 0x41756374696F6E20616374697665000000000000000000000000000000000000 PUSH0 DUP3 ADD MSTORE POP JUMP JUMPDEST PUSH0 PUSH2 0x2823 PUSH1 0xE DUP4 PUSH2 0x1EA9 JUMP JUMPDEST SWAP2 POP PUSH2 0x282E DUP3 PUSH2 0x27EF JUMP JUMPDEST PUSH1 0x20 DUP3 ADD SWAP1 POP SWAP2 SWAP1 POP JUMP JUMPDEST PUSH0 PUSH1 0x20 DUP3 ADD SWAP1 POP DUP2 DUP2 SUB PUSH0 DUP4 ADD MSTORE PUSH2 0x2850 DUP2 PUSH2 0x2817 JUMP JUMPDEST SWAP1 POP SWAP2 SWAP1 POP JUMP JUMPDEST PUSH32 0x4E6F204554480000000000000000000000000000000000000000000000000000 PUSH0 DUP3 ADD MSTORE POP JUMP JUMPDEST PUSH0 PUSH2 0x288B PUSH1 0x6 DUP4 PUSH2 0x1EA9 JUMP JUMPDEST SWAP2 POP PUSH2 0x2896 DUP3 PUSH2 0x2857 JUMP JUMPDEST PUSH1 0x20 DUP3 ADD SWAP1 POP SWAP2 SWAP1 POP JUMP JUMPDEST PUSH0 PUSH1 0x20 DUP3 ADD SWAP1 POP DUP2 DUP2 SUB PUSH0 DUP4 ADD MSTORE PUSH2 0x28B8 DUP2 PUSH2 0x287F JUMP JUMPDEST SWAP1 POP SWAP2 SWAP1 POP JUMP JUMPDEST PUSH32 0x41756374696F6E206E6F7420656E646564000000000000000000000000000000 PUSH0 DUP3 ADD MSTORE POP JUMP JUMPDEST PUSH0 PUSH2 0x28F3 PUSH1 0x11 DUP4 PUSH2 0x1EA9 JUMP JUMPDEST SWAP2 POP PUSH2 0x28FE DUP3 PUSH2 0x28BF JUMP JUMPDEST PUSH1 0x20 DUP3 ADD SWAP1 POP SWAP2 SWAP1 POP JUMP JUMPDEST PUSH0 PUSH1 0x20 DUP3 ADD SWAP1 POP DUP2 DUP2 SUB PUSH0 DUP4 ADD MSTORE PUSH2 0x2920 DUP2 PUSH2 0x28E7 JUMP JUMPDEST SWAP1 POP SWAP2 SWAP1 POP JUMP JUMPDEST PUSH32 0x4E487B7100000000000000000000000000000000000000000000000000000000 PUSH0 MSTORE PUSH1 0x32 PUSH1 0x4 MSTORE PUSH1 0x24 PUSH0 REVERT JUMPDEST PUSH32 0x416C726561647920656E64656400000000000000000000000000000000000000 PUSH0 DUP3 ADD MSTORE POP JUMP JUMPDEST PUSH0 PUSH2 0x2988 PUSH1 0xD DUP4 PUSH2 0x1EA9 JUMP JUMPDEST SWAP2 POP PUSH2 0x2993 DUP3 PUSH2 0x2954 JUMP JUMPDEST PUSH1 0x20 DUP3 ADD SWAP1 POP SWAP2 SWAP1 POP JUMP JUMPDEST PUSH0 PUSH1 0x20 DUP3 ADD SWAP1 POP DUP2 DUP2 SUB PUSH0 DUP4 ADD MSTORE PUSH2 0x29B5 DUP2 PUSH2 0x297C JUMP JUMPDEST SWAP1 POP SWAP2 SWAP1 POP JUMP JUMPDEST PUSH0 PUSH1 0x40 DUP3 ADD SWAP1 POP PUSH2 0x29CF PUSH0 DUP4 ADD DUP6 PUSH2 0x201D JUMP JUMPDEST PUSH2 0x29DC PUSH1 0x20 DUP4 ADD DUP5 PUSH2 0x201D JUMP JUMPDEST SWAP4 SWAP3 POP POP POP JUMP JUMPDEST PUSH0 DUP2 SWAP1 POP SWAP3 SWAP2 POP POP JUMP JUMPDEST POP JUMP JUMPDEST PUSH0 PUSH2 0x29FB PUSH0 DUP4 PUSH2 0x29E3 JUMP JUMPDEST SWAP2 POP PUSH2 0x2A06 DUP3 PUSH2 0x29ED JUMP JUMPDEST PUSH0 DUP3 ADD SWAP1 POP SWAP2 SWAP1 POP JUMP JUMPDEST PUSH0 PUSH2 0x2A1A DUP3 PUSH2 0x29F0 JUMP JUMPDEST SWAP2 POP DUP2 SWAP1 POP SWAP2 SWAP1 POP JUMP INVALID LOG2 PUSH5 0x6970667358 0x22 SLT KECCAK256 MCOPY 0x26 0xD3 0xEF NUMBER PUSH12 0x35FA762F46D97B55DCE47332 0x21 SWAP11 RETURNDATASIZE 0xD6 COINBASE 0xC2 0xD5 EXTCODEHASH CALLDATASIZE 0xD5 RETURNDATACOPY 0xD0 MULMOD PUSH15 0x64736F6C634300081E003300000000 "
				},
				"gasEstimates": {
					"creation": {
						"codeDepositCost": "2168400",
						"executionCost": "infinite",
						"totalCost": "infinite"
					},
					"external": {
						"": "491",
						"EXTENSION_TIME()": "437",
						"EXTENSION_WINDOW()": "371",
						"MIN_INCREMENT_PERCENT()": "392",
						"REFUND_FEE_PERCENT()": "393",
						"bid()": "infinite",
						"deposits(address)": "2890",
						"distributeRefunds()": "infinite",
						"emergencyWithdraw()": "infinite",
						"endAuction()": "infinite",
						"endTime()": "2493",
						"ended()": "2557",
						"getCollectedFees()": "4668",
						"getLastOfferIndex()": "2586",
						"highestBid()": "2514",
						"highestBidder()": "2597",
						"numOffers()": "2485",
						"offers(uint256)": "infinite",
						"owner()": "2560",
						"partialWithdrawExcess()": "infinite",
						"pause()": "infinite",
						"paused()": "2569",
						"renounceOwnership()": "infinite",
						"seller()": "2555",
						"showOffers()": "infinite",
						"showWinner()": "9120",
						"startTime()": "2536",
						"transferOwnership(address)": "infinite",
						"unpause()": "infinite",
						"withdrawDeposit()": "infinite",
						"withdrawFees()": "infinite"
					},
					"internal": {
						"_calculateFee(uint256)": "infinite",
						"_safeTransfer(address payable,uint256)": "infinite"
					}
				},
				"methodIdentifiers": {
					"EXTENSION_TIME()": "5681104a",
					"EXTENSION_WINDOW()": "7eb79d5d",
					"MIN_INCREMENT_PERCENT()": "654e4685",
					"REFUND_FEE_PERCENT()": "5230a4c3",
					"bid()": "1998aeef",
					"deposits(address)": "fc7e286d",
					"distributeRefunds()": "f4668c6c",
					"emergencyWithdraw()": "db2e21bc",
					"endAuction()": "fe67a54b",
					"endTime()": "3197cbb6",
					"ended()": "12fa6feb",
					"getCollectedFees()": "d54a8d18",
					"getLastOfferIndex()": "8f9cfe70",
					"highestBid()": "d57bde79",
					"highestBidder()": "91f90157",
					"numOffers()": "cc6bee54",
					"offers(uint256)": "8a72ea6a",
					"owner()": "8da5cb5b",
					"partialWithdrawExcess()": "36c2780b",
					"pause()": "8456cb59",
					"paused()": "5c975abb",
					"renounceOwnership()": "715018a6",
					"seller()": "08551a53",
					"showOffers()": "534823bf",
					"showWinner()": "b7e03264",
					"startTime()": "78e97925",
					"transferOwnership(address)": "f2fde38b",
					"unpause()": "3f4ba83a",
					"withdrawDeposit()": "117df088",
					"withdrawFees()": "476343ee"
				}
			},
			"storageLayout": {
				"storage": [
					{
						"astId": 10,
						"contract": "SmartAuctionEthKipu_flattened.sol:SmartAuctionEthKipu",
						"label": "_status",
						"offset": 0,
						"slot": "0",
						"type": "t_uint256"
					},
					{
						"astId": 103,
						"contract": "SmartAuctionEthKipu_flattened.sol:SmartAuctionEthKipu",
						"label": "_owner",
						"offset": 0,
						"slot": "1",
						"type": "t_address"
					},
					{
						"astId": 248,
						"contract": "SmartAuctionEthKipu_flattened.sol:SmartAuctionEthKipu",
						"label": "_paused",
						"offset": 20,
						"slot": "1",
						"type": "t_bool"
					},
					{
						"astId": 639,
						"contract": "SmartAuctionEthKipu_flattened.sol:SmartAuctionEthKipu",
						"label": "seller",
						"offset": 0,
						"slot": "2",
						"type": "t_address_payable"
					},
					{
						"astId": 642,
						"contract": "SmartAuctionEthKipu_flattened.sol:SmartAuctionEthKipu",
						"label": "highestBidder",
						"offset": 0,
						"slot": "3",
						"type": "t_address"
					},
					{
						"astId": 645,
						"contract": "SmartAuctionEthKipu_flattened.sol:SmartAuctionEthKipu",
						"label": "highestBid",
						"offset": 0,
						"slot": "4",
						"type": "t_uint256"
					},
					{
						"astId": 648,
						"contract": "SmartAuctionEthKipu_flattened.sol:SmartAuctionEthKipu",
						"label": "startTime",
						"offset": 0,
						"slot": "5",
						"type": "t_uint256"
					},
					{
						"astId": 651,
						"contract": "SmartAuctionEthKipu_flattened.sol:SmartAuctionEthKipu",
						"label": "endTime",
						"offset": 0,
						"slot": "6",
						"type": "t_uint256"
					},
					{
						"astId": 654,
						"contract": "SmartAuctionEthKipu_flattened.sol:SmartAuctionEthKipu",
						"label": "ended",
						"offset": 0,
						"slot": "7",
						"type": "t_bool"
					},
					{
						"astId": 683,
						"contract": "SmartAuctionEthKipu_flattened.sol:SmartAuctionEthKipu",
						"label": "offers",
						"offset": 0,
						"slot": "8",
						"type": "t_array(t_struct(Offer)678_storage)dyn_storage"
					},
					{
						"astId": 688,
						"contract": "SmartAuctionEthKipu_flattened.sol:SmartAuctionEthKipu",
						"label": "deposits",
						"offset": 0,
						"slot": "9",
						"type": "t_mapping(t_address,t_uint256)"
					},
					{
						"astId": 693,
						"contract": "SmartAuctionEthKipu_flattened.sol:SmartAuctionEthKipu",
						"label": "lastOfferIndex",
						"offset": 0,
						"slot": "10",
						"type": "t_mapping(t_address,t_uint256)"
					},
					{
						"astId": 696,
						"contract": "SmartAuctionEthKipu_flattened.sol:SmartAuctionEthKipu",
						"label": "collectedFees",
						"offset": 0,
						"slot": "11",
						"type": "t_uint256"
					}
				],
				"types": {
					"t_address": {
						"encoding": "inplace",
						"label": "address",
						"numberOfBytes": "20"
					},
					"t_address_payable": {
						"encoding": "inplace",
						"label": "address payable",
						"numberOfBytes": "20"
					},
					"t_array(t_struct(Offer)678_storage)dyn_storage": {
						"base": "t_struct(Offer)678_storage",
						"encoding": "dynamic_array",
						"label": "struct SmartAuctionEthKipu.Offer[]",
						"numberOfBytes": "32"
					},
					"t_bool": {
						"encoding": "inplace",
						"label": "bool",
						"numberOfBytes": "1"
					},
					"t_mapping(t_address,t_uint256)": {
						"encoding": "mapping",
						"key": "t_address",
						"label": "mapping(address => uint256)",
						"numberOfBytes": "32",
						"value": "t_uint256"
					},
					"t_struct(Offer)678_storage": {
						"encoding": "inplace",
						"label": "struct SmartAuctionEthKipu.Offer",
						"members": [
							{
								"astId": 673,
								"contract": "SmartAuctionEthKipu_flattened.sol:SmartAuctionEthKipu",
								"label": "bidder",
								"offset": 0,
								"slot": "0",
								"type": "t_address"
							},
							{
								"astId": 675,
								"contract": "SmartAuctionEthKipu_flattened.sol:SmartAuctionEthKipu",
								"label": "amount",
								"offset": 0,
								"slot": "1",
								"type": "t_uint256"
							},
							{
								"astId": 677,
								"contract": "SmartAuctionEthKipu_flattened.sol:SmartAuctionEthKipu",
								"label": "timestamp",
								"offset": 0,
								"slot": "2",
								"type": "t_uint256"
							}
						],
						"numberOfBytes": "96"
					},
					"t_uint256": {
						"encoding": "inplace",
						"label": "uint256",
						"numberOfBytes": "32"
					}
				}
			},
			"userdoc": {
				"events": {
					"AuctionEnded(address,uint256)": {
						"notice": "Emitted when auction ends"
					},
					"NewOffer(address,uint256)": {
						"notice": "Emitted when new valid offer received"
					},
					"Withdrawal(address,uint256)": {
						"notice": "Emitted on withdrawal"
					}
				},
				"kind": "user",
				"methods": {
					"EXTENSION_TIME()": {
						"notice": "Time (seconds) for auction extension (10 min = 600 seconds)"
					},
					"EXTENSION_WINDOW()": {
						"notice": "Time window before end when extensions allowed (10 minutes)"
					},
					"MIN_INCREMENT_PERCENT()": {
						"notice": "Minimum percentage increment required for new bids (5% = 105)"
					},
					"REFUND_FEE_PERCENT()": {
						"notice": "Commission fee percentage taken from refund (2% = 2)"
					},
					"bid()": {
						"notice": "Place new bid. Must be 5% higher than previous bid during auction time"
					},
					"constructor": {
						"notice": "Initializes auction"
					},
					"deposits(address)": {
						"notice": "Tracks total deposits for each participant"
					},
					"distributeRefunds()": {
						"notice": "MANDATORY: Owner distributes ETH to non-winning offers using loop"
					},
					"emergencyWithdraw()": {
						"notice": "Emergency ETH recovery function"
					},
					"endAuction()": {
						"notice": "Ends auction and transfers winning bid to seller"
					},
					"endTime()": {
						"notice": "End time (timestamp, dynamically extended)"
					},
					"ended()": {
						"notice": "Auction active flag"
					},
					"getCollectedFees()": {
						"notice": "Returns collected fees"
					},
					"getLastOfferIndex()": {
						"notice": "Returns last offer index for caller"
					},
					"highestBid()": {
						"notice": "Highest bid amount"
					},
					"highestBidder()": {
						"notice": "Address of the current highest bidder"
					},
					"numOffers()": {
						"notice": "Returns current number of offers"
					},
					"offers(uint256)": {
						"notice": "Array of all offers"
					},
					"partialWithdrawExcess()": {
						"notice": "Partial withdrawal of excess funds while auction active"
					},
					"pause()": {
						"notice": "Emergency pause function"
					},
					"seller()": {
						"notice": "Address of the auction creator/seller"
					},
					"showOffers()": {
						"notice": "Returns list of all offers"
					},
					"showWinner()": {
						"notice": "Show current winner and bid amount"
					},
					"startTime()": {
						"notice": "Start time (timestamp) "
					},
					"unpause()": {
						"notice": "Emergency unpause function  "
					},
					"withdrawDeposit()": {
						"notice": "Withdraws funds for non-winning bidders after auction ends"
					},
					"withdrawFees()": {
						"notice": "Allows seller to withdraw collected fees"
					}
				},
				"notice": "Implements auction with 5% minimum increment, refund with 2% fee, and dynamic end time extension",
				"version": 1
			}
		}
	}
}