{
	"SmartAuctionEthKipu.sol": {
		"SmartAuctionEthKipu": {
			"abi": [
				{
					"inputs": [
						{
							"internalType": "uint256",
							"name": "_startTime",
							"type": "uint256"
						},
						{
							"internalType": "uint256",
							"name": "_durationMinutes",
							"type": "uint256"
						}
					],
					"stateMutability": "nonpayable",
					"type": "constructor"
				},
				{
					"inputs": [],
					"name": "EnforcedPause",
					"type": "error"
				},
				{
					"inputs": [],
					"name": "ExpectedPause",
					"type": "error"
				},
				{
					"inputs": [],
					"name": "FailedCall",
					"type": "error"
				},
				{
					"inputs": [
						{
							"internalType": "uint256",
							"name": "balance",
							"type": "uint256"
						},
						{
							"internalType": "uint256",
							"name": "needed",
							"type": "uint256"
						}
					],
					"name": "InsufficientBalance",
					"type": "error"
				},
				{
					"inputs": [
						{
							"internalType": "address",
							"name": "owner",
							"type": "address"
						}
					],
					"name": "OwnableInvalidOwner",
					"type": "error"
				},
				{
					"inputs": [
						{
							"internalType": "address",
							"name": "account",
							"type": "address"
						}
					],
					"name": "OwnableUnauthorizedAccount",
					"type": "error"
				},
				{
					"inputs": [],
					"name": "ReentrancyGuardReentrantCall",
					"type": "error"
				},
				{
					"anonymous": false,
					"inputs": [
						{
							"indexed": true,
							"internalType": "address",
							"name": "winner",
							"type": "address"
						},
						{
							"indexed": false,
							"internalType": "uint256",
							"name": "amount",
							"type": "uint256"
						}
					],
					"name": "AuctionEnded",
					"type": "event"
				},
				{
					"anonymous": false,
					"inputs": [
						{
							"indexed": true,
							"internalType": "address",
							"name": "bidder",
							"type": "address"
						},
						{
							"indexed": false,
							"internalType": "uint256",
							"name": "amount",
							"type": "uint256"
						}
					],
					"name": "NewOffer",
					"type": "event"
				},
				{
					"anonymous": false,
					"inputs": [
						{
							"indexed": true,
							"internalType": "address",
							"name": "previousOwner",
							"type": "address"
						},
						{
							"indexed": true,
							"internalType": "address",
							"name": "newOwner",
							"type": "address"
						}
					],
					"name": "OwnershipTransferred",
					"type": "event"
				},
				{
					"anonymous": false,
					"inputs": [
						{
							"indexed": false,
							"internalType": "address",
							"name": "account",
							"type": "address"
						}
					],
					"name": "Paused",
					"type": "event"
				},
				{
					"anonymous": false,
					"inputs": [
						{
							"indexed": false,
							"internalType": "address",
							"name": "account",
							"type": "address"
						}
					],
					"name": "Unpaused",
					"type": "event"
				},
				{
					"anonymous": false,
					"inputs": [
						{
							"indexed": true,
							"internalType": "address",
							"name": "bidder",
							"type": "address"
						},
						{
							"indexed": false,
							"internalType": "uint256",
							"name": "amount",
							"type": "uint256"
						}
					],
					"name": "Withdrawal",
					"type": "event"
				},
				{
					"stateMutability": "payable",
					"type": "fallback"
				},
				{
					"inputs": [],
					"name": "EXTENSION_TIME",
					"outputs": [
						{
							"internalType": "uint256",
							"name": "",
							"type": "uint256"
						}
					],
					"stateMutability": "view",
					"type": "function"
				},
				{
					"inputs": [],
					"name": "EXTENSION_WINDOW",
					"outputs": [
						{
							"internalType": "uint256",
							"name": "",
							"type": "uint256"
						}
					],
					"stateMutability": "view",
					"type": "function"
				},
				{
					"inputs": [],
					"name": "MIN_INCREMENT_PERCENT",
					"outputs": [
						{
							"internalType": "uint256",
							"name": "",
							"type": "uint256"
						}
					],
					"stateMutability": "view",
					"type": "function"
				},
				{
					"inputs": [],
					"name": "REFUND_FEE_PERCENT",
					"outputs": [
						{
							"internalType": "uint256",
							"name": "",
							"type": "uint256"
						}
					],
					"stateMutability": "view",
					"type": "function"
				},
				{
					"inputs": [],
					"name": "bid",
					"outputs": [],
					"stateMutability": "payable",
					"type": "function"
				},
				{
					"inputs": [
						{
							"internalType": "address",
							"name": "",
							"type": "address"
						}
					],
					"name": "deposits",
					"outputs": [
						{
							"internalType": "uint256",
							"name": "",
							"type": "uint256"
						}
					],
					"stateMutability": "view",
					"type": "function"
				},
				{
					"inputs": [],
					"name": "emergencyEndAuction",
					"outputs": [],
					"stateMutability": "nonpayable",
					"type": "function"
				},
				{
					"inputs": [],
					"name": "endAuction",
					"outputs": [],
					"stateMutability": "nonpayable",
					"type": "function"
				},
				{
					"inputs": [],
					"name": "endTime",
					"outputs": [
						{
							"internalType": "uint256",
							"name": "",
							"type": "uint256"
						}
					],
					"stateMutability": "view",
					"type": "function"
				},
				{
					"inputs": [],
					"name": "ended",
					"outputs": [
						{
							"internalType": "bool",
							"name": "",
							"type": "bool"
						}
					],
					"stateMutability": "view",
					"type": "function"
				},
				{
					"inputs": [],
					"name": "getCollectedFees",
					"outputs": [
						{
							"internalType": "uint256",
							"name": "",
							"type": "uint256"
						}
					],
					"stateMutability": "view",
					"type": "function"
				},
				{
					"inputs": [],
					"name": "getLastOfferIndex",
					"outputs": [
						{
							"internalType": "uint256",
							"name": "",
							"type": "uint256"
						}
					],
					"stateMutability": "view",
					"type": "function"
				},
				{
					"inputs": [],
					"name": "highestBid",
					"outputs": [
						{
							"internalType": "uint256",
							"name": "",
							"type": "uint256"
						}
					],
					"stateMutability": "view",
					"type": "function"
				},
				{
					"inputs": [],
					"name": "highestBidder",
					"outputs": [
						{
							"internalType": "address",
							"name": "",
							"type": "address"
						}
					],
					"stateMutability": "view",
					"type": "function"
				},
				{
					"inputs": [],
					"name": "numOffers",
					"outputs": [
						{
							"internalType": "uint256",
							"name": "",
							"type": "uint256"
						}
					],
					"stateMutability": "view",
					"type": "function"
				},
				{
					"inputs": [
						{
							"internalType": "uint256",
							"name": "",
							"type": "uint256"
						}
					],
					"name": "offers",
					"outputs": [
						{
							"internalType": "address",
							"name": "bidder",
							"type": "address"
						},
						{
							"internalType": "uint256",
							"name": "amount",
							"type": "uint256"
						},
						{
							"internalType": "uint256",
							"name": "timestamp",
							"type": "uint256"
						}
					],
					"stateMutability": "view",
					"type": "function"
				},
				{
					"inputs": [],
					"name": "owner",
					"outputs": [
						{
							"internalType": "address",
							"name": "",
							"type": "address"
						}
					],
					"stateMutability": "view",
					"type": "function"
				},
				{
					"inputs": [],
					"name": "partialWithdrawExcess",
					"outputs": [],
					"stateMutability": "nonpayable",
					"type": "function"
				},
				{
					"inputs": [],
					"name": "pause",
					"outputs": [],
					"stateMutability": "nonpayable",
					"type": "function"
				},
				{
					"inputs": [],
					"name": "paused",
					"outputs": [
						{
							"internalType": "bool",
							"name": "",
							"type": "bool"
						}
					],
					"stateMutability": "view",
					"type": "function"
				},
				{
					"inputs": [],
					"name": "renounceOwnership",
					"outputs": [],
					"stateMutability": "nonpayable",
					"type": "function"
				},
				{
					"inputs": [],
					"name": "seller",
					"outputs": [
						{
							"internalType": "address payable",
							"name": "",
							"type": "address"
						}
					],
					"stateMutability": "view",
					"type": "function"
				},
				{
					"inputs": [],
					"name": "showOffers",
					"outputs": [
						{
							"components": [
								{
									"internalType": "address",
									"name": "bidder",
									"type": "address"
								},
								{
									"internalType": "uint256",
									"name": "amount",
									"type": "uint256"
								},
								{
									"internalType": "uint256",
									"name": "timestamp",
									"type": "uint256"
								}
							],
							"internalType": "struct SmartAuctionEthKipu.Offer[]",
							"name": "",
							"type": "tuple[]"
						}
					],
					"stateMutability": "view",
					"type": "function"
				},
				{
					"inputs": [],
					"name": "showWinner",
					"outputs": [
						{
							"internalType": "address",
							"name": "winner",
							"type": "address"
						},
						{
							"internalType": "uint256",
							"name": "amount",
							"type": "uint256"
						}
					],
					"stateMutability": "view",
					"type": "function"
				},
				{
					"inputs": [],
					"name": "startTime",
					"outputs": [
						{
							"internalType": "uint256",
							"name": "",
							"type": "uint256"
						}
					],
					"stateMutability": "view",
					"type": "function"
				},
				{
					"inputs": [
						{
							"internalType": "address",
							"name": "newOwner",
							"type": "address"
						}
					],
					"name": "transferOwnership",
					"outputs": [],
					"stateMutability": "nonpayable",
					"type": "function"
				},
				{
					"inputs": [],
					"name": "unpause",
					"outputs": [],
					"stateMutability": "nonpayable",
					"type": "function"
				},
				{
					"inputs": [],
					"name": "withdrawDeposit",
					"outputs": [],
					"stateMutability": "nonpayable",
					"type": "function"
				},
				{
					"inputs": [],
					"name": "withdrawFees",
					"outputs": [],
					"stateMutability": "nonpayable",
					"type": "function"
				},
				{
					"stateMutability": "payable",
					"type": "receive"
				}
			],
			"devdoc": {
				"author": "Feerdus95",
				"details": "Bids are in wei. Handles Ether only, rewards must be delivered separately.",
				"errors": {
					"EnforcedPause()": [
						{
							"details": "The operation failed because the contract is paused."
						}
					],
					"ExpectedPause()": [
						{
							"details": "The operation failed because the contract is not paused."
						}
					],
					"FailedCall()": [
						{
							"details": "A call to an address target failed. The target may have reverted."
						}
					],
					"InsufficientBalance(uint256,uint256)": [
						{
							"details": "The ETH balance of the account is not enough to perform the operation."
						}
					],
					"OwnableInvalidOwner(address)": [
						{
							"details": "The owner is not a valid owner account. (eg. `address(0)`)"
						}
					],
					"OwnableUnauthorizedAccount(address)": [
						{
							"details": "The caller account is not authorized to perform an operation."
						}
					],
					"ReentrancyGuardReentrantCall()": [
						{
							"details": "Unauthorized reentrant call."
						}
					]
				},
				"events": {
					"AuctionEnded(address,uint256)": {
						"params": {
							"amount": "The winning bid amount",
							"winner": "The address of the winner"
						}
					},
					"NewOffer(address,uint256)": {
						"params": {
							"amount": "The amount of the offer",
							"bidder": "The address of the participant who made the offer"
						}
					},
					"Paused(address)": {
						"details": "Emitted when the pause is triggered by `account`."
					},
					"Unpaused(address)": {
						"details": "Emitted when the pause is lifted by `account`."
					},
					"Withdrawal(address,uint256)": {
						"params": {
							"amount": "The amount withdrawn",
							"bidder": "The address of the participant withdrawing"
						}
					}
				},
				"kind": "dev",
				"methods": {
					"constructor": {
						"params": {
							"_durationMinutes": "Auction duration in minutes",
							"_startTime": "The start timestamp"
						}
					},
					"owner()": {
						"details": "Returns the address of the current owner."
					},
					"paused()": {
						"details": "Returns true if the contract is paused, and false otherwise."
					},
					"renounceOwnership()": {
						"details": "Leaves the contract without owner. It will not be possible to call `onlyOwner` functions. Can only be called by the current owner. NOTE: Renouncing ownership will leave the contract without an owner, thereby disabling any functionality that is only available to the owner."
					},
					"showOffers()": {
						"returns": {
							"_0": "Array of Offer structs"
						}
					},
					"showWinner()": {
						"returns": {
							"amount": "Winning bid",
							"winner": "Winner address"
						}
					},
					"transferOwnership(address)": {
						"details": "Transfers ownership of the contract to a new account (`newOwner`). Can only be called by the current owner."
					}
				},
				"title": "Advanced Auction Contract with Dynamic Extension and Partial Refunds",
				"version": 1
			},
			"evm": {
				"assembly": "    /* \"SmartAuctionEthKipu.sol\":589:10396  contract SmartAuctionEthKipu is ReentrancyGuard, Ownable, Pausable {... */\n  mstore(0x40, 0x80)\n    /* \"SmartAuctionEthKipu.sol\":4541:4998  constructor(uint _startTime, uint _durationMinutes) Ownable(msg.sender) {... */\n  callvalue\n  dup1\n  iszero\n  tag_1\n  jumpi\n  revert(0x00, 0x00)\ntag_1:\n  pop\n  mload(0x40)\n  sub(codesize, bytecodeSize)\n  dup1\n  bytecodeSize\n  dup4\n  codecopy\n  dup2\n  dup2\n  add\n  0x40\n  mstore\n  dup2\n  add\n  swap1\n  tag_2\n  swap2\n  swap1\n  tag_3\n  jump\t// in\ntag_2:\n    /* \"SmartAuctionEthKipu.sol\":4601:4611  msg.sender */\n  caller\n    /* \"@openzeppelin/contracts/utils/ReentrancyGuard.sol\":1857:1858  1 */\n  0x01\n    /* \"@openzeppelin/contracts/utils/ReentrancyGuard.sol\":2061:2068  _status */\n  0x00\n    /* \"@openzeppelin/contracts/utils/ReentrancyGuard.sol\":2061:2082  _status = NOT_ENTERED */\n  dup2\n  swap1\n  sstore\n  pop\n    /* \"@openzeppelin/contracts/access/Ownable.sol\":1297:1298  0 */\n  0x00\n    /* \"@openzeppelin/contracts/access/Ownable.sol\":1273:1299  initialOwner == address(0) */\n  0xffffffffffffffffffffffffffffffffffffffff\n  and\n    /* \"@openzeppelin/contracts/access/Ownable.sol\":1273:1285  initialOwner */\n  dup2\n    /* \"@openzeppelin/contracts/access/Ownable.sol\":1273:1299  initialOwner == address(0) */\n  0xffffffffffffffffffffffffffffffffffffffff\n  and\n  sub\n    /* \"@openzeppelin/contracts/access/Ownable.sol\":1269:1364  if (initialOwner == address(0)) {... */\n  tag_9\n  jumpi\n    /* \"@openzeppelin/contracts/access/Ownable.sol\":1350:1351  0 */\n  0x00\n    /* \"@openzeppelin/contracts/access/Ownable.sol\":1322:1353  OwnableInvalidOwner(address(0)) */\n  mload(0x40)\n  0x1e4fbdf700000000000000000000000000000000000000000000000000000000\n  dup2\n  mstore\n  0x04\n  add\n  tag_10\n  swap2\n  swap1\n  tag_11\n  jump\t// in\ntag_10:\n  mload(0x40)\n  dup1\n  swap2\n  sub\n  swap1\n  revert\n    /* \"@openzeppelin/contracts/access/Ownable.sol\":1269:1364  if (initialOwner == address(0)) {... */\ntag_9:\n    /* \"@openzeppelin/contracts/access/Ownable.sol\":1373:1405  _transferOwnership(initialOwner) */\n  tag_12\n    /* \"@openzeppelin/contracts/access/Ownable.sol\":1392:1404  initialOwner */\n  dup2\n    /* \"@openzeppelin/contracts/access/Ownable.sol\":1373:1391  _transferOwnership */\n  shl(0x20, tag_13)\n    /* \"@openzeppelin/contracts/access/Ownable.sol\":1373:1405  _transferOwnership(initialOwner) */\n  0x20\n  shr\n  jump\t// in\ntag_12:\n    /* \"@openzeppelin/contracts/access/Ownable.sol\":1225:1412  constructor(address initialOwner) {... */\n  pop\n    /* \"SmartAuctionEthKipu.sol\":4651:4652  0 */\n  0x00\n    /* \"SmartAuctionEthKipu.sol\":4632:4648  _durationMinutes */\n  dup2\n    /* \"SmartAuctionEthKipu.sol\":4632:4652  _durationMinutes > 0 */\n  gt\n    /* \"SmartAuctionEthKipu.sol\":4624:4691  require(_durationMinutes > 0, \"Duration must be greater than zero\") */\n  tag_15\n  jumpi\n  mload(0x40)\n  0x08c379a000000000000000000000000000000000000000000000000000000000\n  dup2\n  mstore\n  0x04\n  add\n  tag_16\n  swap1\n  tag_17\n  jump\t// in\ntag_16:\n  mload(0x40)\n  dup1\n  swap2\n  sub\n  swap1\n  revert\ntag_15:\n    /* \"SmartAuctionEthKipu.sol\":4723:4738  block.timestamp */\n  timestamp\n    /* \"SmartAuctionEthKipu.sol\":4710:4720  _startTime */\n  dup3\n    /* \"SmartAuctionEthKipu.sol\":4710:4738  _startTime > block.timestamp */\n  gt\n    /* \"SmartAuctionEthKipu.sol\":4702:4771  require(_startTime > block.timestamp, \"Start time must be in future\") */\n  tag_18\n  jumpi\n  mload(0x40)\n  0x08c379a000000000000000000000000000000000000000000000000000000000\n  dup2\n  mstore\n  0x04\n  add\n  tag_19\n  swap1\n  tag_20\n  jump\t// in\ntag_19:\n  mload(0x40)\n  dup1\n  swap2\n  sub\n  swap1\n  revert\ntag_18:\n    /* \"SmartAuctionEthKipu.sol\":4810:4822  30 * 24 * 60 */\n  0xa8c0\n    /* \"SmartAuctionEthKipu.sol\":4790:4806  _durationMinutes */\n  dup2\n    /* \"SmartAuctionEthKipu.sol\":4790:4822  _durationMinutes <= 30 * 24 * 60 */\n  gt\n  iszero\n    /* \"SmartAuctionEthKipu.sol\":4782:4844  require(_durationMinutes <= 30 * 24 * 60, \"Duration too long\") */\n  tag_21\n  jumpi\n  mload(0x40)\n  0x08c379a000000000000000000000000000000000000000000000000000000000\n  dup2\n  mstore\n  0x04\n  add\n  tag_22\n  swap1\n  tag_23\n  jump\t// in\ntag_22:\n  mload(0x40)\n  dup1\n  swap2\n  sub\n  swap1\n  revert\ntag_21:\n    /* \"SmartAuctionEthKipu.sol\":4882:4892  msg.sender */\n  caller\n    /* \"SmartAuctionEthKipu.sol\":4865:4871  seller */\n  0x02\n  0x00\n    /* \"SmartAuctionEthKipu.sol\":4865:4893  seller = payable(msg.sender) */\n  0x0100\n  exp\n  dup2\n  sload\n  dup2\n  0xffffffffffffffffffffffffffffffffffffffff\n  mul\n  not\n  and\n  swap1\n  dup4\n  0xffffffffffffffffffffffffffffffffffffffff\n  and\n  mul\n  or\n  swap1\n  sstore\n  pop\n    /* \"SmartAuctionEthKipu.sol\":4916:4926  _startTime */\n  dup2\n    /* \"SmartAuctionEthKipu.sol\":4904:4913  startTime */\n  0x05\n    /* \"SmartAuctionEthKipu.sol\":4904:4926  startTime = _startTime */\n  dup2\n  swap1\n  sstore\n  pop\n    /* \"SmartAuctionEthKipu.sol\":4980:4989  1 minutes */\n  0x3c\n    /* \"SmartAuctionEthKipu.sol\":4961:4977  _durationMinutes */\n  dup2\n    /* \"SmartAuctionEthKipu.sol\":4961:4989  _durationMinutes * 1 minutes */\n  tag_24\n  swap2\n  swap1\n  tag_25\n  jump\t// in\ntag_24:\n    /* \"SmartAuctionEthKipu.sol\":4947:4957  _startTime */\n  dup3\n    /* \"SmartAuctionEthKipu.sol\":4947:4990  _startTime + (_durationMinutes * 1 minutes) */\n  tag_26\n  swap2\n  swap1\n  tag_27\n  jump\t// in\ntag_26:\n    /* \"SmartAuctionEthKipu.sol\":4937:4944  endTime */\n  0x06\n    /* \"SmartAuctionEthKipu.sol\":4937:4990  endTime = _startTime + (_durationMinutes * 1 minutes) */\n  dup2\n  swap1\n  sstore\n  pop\n    /* \"SmartAuctionEthKipu.sol\":4541:4998  constructor(uint _startTime, uint _durationMinutes) Ownable(msg.sender) {... */\n  pop\n  pop\n    /* \"SmartAuctionEthKipu.sol\":589:10396  contract SmartAuctionEthKipu is ReentrancyGuard, Ownable, Pausable {... */\n  jump(tag_28)\n    /* \"@openzeppelin/contracts/access/Ownable.sol\":2912:3099  function _transferOwnership(address newOwner) internal virtual {... */\ntag_13:\n    /* \"@openzeppelin/contracts/access/Ownable.sol\":2985:3001  address oldOwner */\n  0x00\n    /* \"@openzeppelin/contracts/access/Ownable.sol\":3004:3010  _owner */\n  0x01\n  0x00\n  swap1\n  sload\n  swap1\n  0x0100\n  exp\n  swap1\n  div\n  0xffffffffffffffffffffffffffffffffffffffff\n  and\n    /* \"@openzeppelin/contracts/access/Ownable.sol\":2985:3010  address oldOwner = _owner */\n  swap1\n  pop\n    /* \"@openzeppelin/contracts/access/Ownable.sol\":3029:3037  newOwner */\n  dup2\n    /* \"@openzeppelin/contracts/access/Ownable.sol\":3020:3026  _owner */\n  0x01\n  0x00\n    /* \"@openzeppelin/contracts/access/Ownable.sol\":3020:3037  _owner = newOwner */\n  0x0100\n  exp\n  dup2\n  sload\n  dup2\n  0xffffffffffffffffffffffffffffffffffffffff\n  mul\n  not\n  and\n  swap1\n  dup4\n  0xffffffffffffffffffffffffffffffffffffffff\n  and\n  mul\n  or\n  swap1\n  sstore\n  pop\n    /* \"@openzeppelin/contracts/access/Ownable.sol\":3083:3091  newOwner */\n  dup2\n    /* \"@openzeppelin/contracts/access/Ownable.sol\":3052:3092  OwnershipTransferred(oldOwner, newOwner) */\n  0xffffffffffffffffffffffffffffffffffffffff\n  and\n    /* \"@openzeppelin/contracts/access/Ownable.sol\":3073:3081  oldOwner */\n  dup2\n    /* \"@openzeppelin/contracts/access/Ownable.sol\":3052:3092  OwnershipTransferred(oldOwner, newOwner) */\n  0xffffffffffffffffffffffffffffffffffffffff\n  and\n  0x8be0079c531659141344cd1fd0a4f28419497f9722a3daafe3b4186f6b6457e0\n  mload(0x40)\n  mload(0x40)\n  dup1\n  swap2\n  sub\n  swap1\n  log3\n    /* \"@openzeppelin/contracts/access/Ownable.sol\":2975:3099  {... */\n  pop\n    /* \"@openzeppelin/contracts/access/Ownable.sol\":2912:3099  function _transferOwnership(address newOwner) internal virtual {... */\n  pop\n  jump\t// out\n    /* \"#utility.yul\":88:205   */\ntag_31:\n    /* \"#utility.yul\":197:198   */\n  0x00\n    /* \"#utility.yul\":194:195   */\n  0x00\n    /* \"#utility.yul\":187:199   */\n  revert\n    /* \"#utility.yul\":334:411   */\ntag_33:\n    /* \"#utility.yul\":371:378   */\n  0x00\n    /* \"#utility.yul\":400:405   */\n  dup2\n    /* \"#utility.yul\":389:405   */\n  swap1\n  pop\n    /* \"#utility.yul\":334:411   */\n  swap2\n  swap1\n  pop\n  jump\t// out\n    /* \"#utility.yul\":417:539   */\ntag_34:\n    /* \"#utility.yul\":490:514   */\n  tag_53\n    /* \"#utility.yul\":508:513   */\n  dup2\n    /* \"#utility.yul\":490:514   */\n  tag_33\n  jump\t// in\ntag_53:\n    /* \"#utility.yul\":483:488   */\n  dup2\n    /* \"#utility.yul\":480:515   */\n  eq\n    /* \"#utility.yul\":470:533   */\n  tag_54\n  jumpi\n    /* \"#utility.yul\":529:530   */\n  0x00\n    /* \"#utility.yul\":526:527   */\n  0x00\n    /* \"#utility.yul\":519:531   */\n  revert\n    /* \"#utility.yul\":470:533   */\ntag_54:\n    /* \"#utility.yul\":417:539   */\n  pop\n  jump\t// out\n    /* \"#utility.yul\":545:688   */\ntag_35:\n    /* \"#utility.yul\":602:607   */\n  0x00\n    /* \"#utility.yul\":633:639   */\n  dup2\n    /* \"#utility.yul\":627:640   */\n  mload\n    /* \"#utility.yul\":618:640   */\n  swap1\n  pop\n    /* \"#utility.yul\":649:682   */\n  tag_56\n    /* \"#utility.yul\":676:681   */\n  dup2\n    /* \"#utility.yul\":649:682   */\n  tag_34\n  jump\t// in\ntag_56:\n    /* \"#utility.yul\":545:688   */\n  swap3\n  swap2\n  pop\n  pop\n  jump\t// out\n    /* \"#utility.yul\":694:1201   */\ntag_3:\n    /* \"#utility.yul\":773:779   */\n  0x00\n    /* \"#utility.yul\":781:787   */\n  0x00\n    /* \"#utility.yul\":830:832   */\n  0x40\n    /* \"#utility.yul\":818:827   */\n  dup4\n    /* \"#utility.yul\":809:816   */\n  dup6\n    /* \"#utility.yul\":805:828   */\n  sub\n    /* \"#utility.yul\":801:833   */\n  slt\n    /* \"#utility.yul\":798:917   */\n  iszero\n  tag_58\n  jumpi\n    /* \"#utility.yul\":836:915   */\n  tag_59\n  tag_31\n  jump\t// in\ntag_59:\n    /* \"#utility.yul\":798:917   */\ntag_58:\n    /* \"#utility.yul\":956:957   */\n  0x00\n    /* \"#utility.yul\":981:1045   */\n  tag_60\n    /* \"#utility.yul\":1037:1044   */\n  dup6\n    /* \"#utility.yul\":1028:1034   */\n  dup3\n    /* \"#utility.yul\":1017:1026   */\n  dup7\n    /* \"#utility.yul\":1013:1035   */\n  add\n    /* \"#utility.yul\":981:1045   */\n  tag_35\n  jump\t// in\ntag_60:\n    /* \"#utility.yul\":971:1045   */\n  swap3\n  pop\n    /* \"#utility.yul\":927:1055   */\n  pop\n    /* \"#utility.yul\":1094:1096   */\n  0x20\n    /* \"#utility.yul\":1120:1184   */\n  tag_61\n    /* \"#utility.yul\":1176:1183   */\n  dup6\n    /* \"#utility.yul\":1167:1173   */\n  dup3\n    /* \"#utility.yul\":1156:1165   */\n  dup7\n    /* \"#utility.yul\":1152:1174   */\n  add\n    /* \"#utility.yul\":1120:1184   */\n  tag_35\n  jump\t// in\ntag_61:\n    /* \"#utility.yul\":1110:1184   */\n  swap2\n  pop\n    /* \"#utility.yul\":1065:1194   */\n  pop\n    /* \"#utility.yul\":694:1201   */\n  swap3\n  pop\n  swap3\n  swap1\n  pop\n  jump\t// out\n    /* \"#utility.yul\":1207:1333   */\ntag_36:\n    /* \"#utility.yul\":1244:1251   */\n  0x00\n    /* \"#utility.yul\":1284:1326   */\n  0xffffffffffffffffffffffffffffffffffffffff\n    /* \"#utility.yul\":1277:1282   */\n  dup3\n    /* \"#utility.yul\":1273:1327   */\n  and\n    /* \"#utility.yul\":1262:1327   */\n  swap1\n  pop\n    /* \"#utility.yul\":1207:1333   */\n  swap2\n  swap1\n  pop\n  jump\t// out\n    /* \"#utility.yul\":1339:1435   */\ntag_37:\n    /* \"#utility.yul\":1376:1383   */\n  0x00\n    /* \"#utility.yul\":1405:1429   */\n  tag_64\n    /* \"#utility.yul\":1423:1428   */\n  dup3\n    /* \"#utility.yul\":1405:1429   */\n  tag_36\n  jump\t// in\ntag_64:\n    /* \"#utility.yul\":1394:1429   */\n  swap1\n  pop\n    /* \"#utility.yul\":1339:1435   */\n  swap2\n  swap1\n  pop\n  jump\t// out\n    /* \"#utility.yul\":1441:1559   */\ntag_38:\n    /* \"#utility.yul\":1528:1552   */\n  tag_66\n    /* \"#utility.yul\":1546:1551   */\n  dup2\n    /* \"#utility.yul\":1528:1552   */\n  tag_37\n  jump\t// in\ntag_66:\n    /* \"#utility.yul\":1523:1526   */\n  dup3\n    /* \"#utility.yul\":1516:1553   */\n  mstore\n    /* \"#utility.yul\":1441:1559   */\n  pop\n  pop\n  jump\t// out\n    /* \"#utility.yul\":1565:1787   */\ntag_11:\n    /* \"#utility.yul\":1658:1662   */\n  0x00\n    /* \"#utility.yul\":1696:1698   */\n  0x20\n    /* \"#utility.yul\":1685:1694   */\n  dup3\n    /* \"#utility.yul\":1681:1699   */\n  add\n    /* \"#utility.yul\":1673:1699   */\n  swap1\n  pop\n    /* \"#utility.yul\":1709:1780   */\n  tag_68\n    /* \"#utility.yul\":1777:1778   */\n  0x00\n    /* \"#utility.yul\":1766:1775   */\n  dup4\n    /* \"#utility.yul\":1762:1779   */\n  add\n    /* \"#utility.yul\":1753:1759   */\n  dup5\n    /* \"#utility.yul\":1709:1780   */\n  tag_38\n  jump\t// in\ntag_68:\n    /* \"#utility.yul\":1565:1787   */\n  swap3\n  swap2\n  pop\n  pop\n  jump\t// out\n    /* \"#utility.yul\":1793:1962   */\ntag_39:\n    /* \"#utility.yul\":1877:1888   */\n  0x00\n    /* \"#utility.yul\":1911:1917   */\n  dup3\n    /* \"#utility.yul\":1906:1909   */\n  dup3\n    /* \"#utility.yul\":1899:1918   */\n  mstore\n    /* \"#utility.yul\":1951:1955   */\n  0x20\n    /* \"#utility.yul\":1946:1949   */\n  dup3\n    /* \"#utility.yul\":1942:1956   */\n  add\n    /* \"#utility.yul\":1927:1956   */\n  swap1\n  pop\n    /* \"#utility.yul\":1793:1962   */\n  swap3\n  swap2\n  pop\n  pop\n  jump\t// out\n    /* \"#utility.yul\":1968:2189   */\ntag_40:\n    /* \"#utility.yul\":2108:2142   */\n  0x4475726174696f6e206d7573742062652067726561746572207468616e207a65\n    /* \"#utility.yul\":2104:2105   */\n  0x00\n    /* \"#utility.yul\":2096:2102   */\n  dup3\n    /* \"#utility.yul\":2092:2106   */\n  add\n    /* \"#utility.yul\":2085:2143   */\n  mstore\n    /* \"#utility.yul\":2177:2181   */\n  0x726f000000000000000000000000000000000000000000000000000000000000\n    /* \"#utility.yul\":2172:2174   */\n  0x20\n    /* \"#utility.yul\":2164:2170   */\n  dup3\n    /* \"#utility.yul\":2160:2175   */\n  add\n    /* \"#utility.yul\":2153:2182   */\n  mstore\n    /* \"#utility.yul\":1968:2189   */\n  pop\n  jump\t// out\n    /* \"#utility.yul\":2195:2561   */\ntag_41:\n    /* \"#utility.yul\":2337:2340   */\n  0x00\n    /* \"#utility.yul\":2358:2425   */\n  tag_72\n    /* \"#utility.yul\":2422:2424   */\n  0x22\n    /* \"#utility.yul\":2417:2420   */\n  dup4\n    /* \"#utility.yul\":2358:2425   */\n  tag_39\n  jump\t// in\ntag_72:\n    /* \"#utility.yul\":2351:2425   */\n  swap2\n  pop\n    /* \"#utility.yul\":2434:2527   */\n  tag_73\n    /* \"#utility.yul\":2523:2526   */\n  dup3\n    /* \"#utility.yul\":2434:2527   */\n  tag_40\n  jump\t// in\ntag_73:\n    /* \"#utility.yul\":2552:2554   */\n  0x40\n    /* \"#utility.yul\":2547:2550   */\n  dup3\n    /* \"#utility.yul\":2543:2555   */\n  add\n    /* \"#utility.yul\":2536:2555   */\n  swap1\n  pop\n    /* \"#utility.yul\":2195:2561   */\n  swap2\n  swap1\n  pop\n  jump\t// out\n    /* \"#utility.yul\":2567:2986   */\ntag_17:\n    /* \"#utility.yul\":2733:2737   */\n  0x00\n    /* \"#utility.yul\":2771:2773   */\n  0x20\n    /* \"#utility.yul\":2760:2769   */\n  dup3\n    /* \"#utility.yul\":2756:2774   */\n  add\n    /* \"#utility.yul\":2748:2774   */\n  swap1\n  pop\n    /* \"#utility.yul\":2820:2829   */\n  dup2\n    /* \"#utility.yul\":2814:2818   */\n  dup2\n    /* \"#utility.yul\":2810:2830   */\n  sub\n    /* \"#utility.yul\":2806:2807   */\n  0x00\n    /* \"#utility.yul\":2795:2804   */\n  dup4\n    /* \"#utility.yul\":2791:2808   */\n  add\n    /* \"#utility.yul\":2784:2831   */\n  mstore\n    /* \"#utility.yul\":2848:2979   */\n  tag_75\n    /* \"#utility.yul\":2974:2978   */\n  dup2\n    /* \"#utility.yul\":2848:2979   */\n  tag_41\n  jump\t// in\ntag_75:\n    /* \"#utility.yul\":2840:2979   */\n  swap1\n  pop\n    /* \"#utility.yul\":2567:2986   */\n  swap2\n  swap1\n  pop\n  jump\t// out\n    /* \"#utility.yul\":2992:3170   */\ntag_42:\n    /* \"#utility.yul\":3132:3162   */\n  0x53746172742074696d65206d75737420626520696e2066757475726500000000\n    /* \"#utility.yul\":3128:3129   */\n  0x00\n    /* \"#utility.yul\":3120:3126   */\n  dup3\n    /* \"#utility.yul\":3116:3130   */\n  add\n    /* \"#utility.yul\":3109:3163   */\n  mstore\n    /* \"#utility.yul\":2992:3170   */\n  pop\n  jump\t// out\n    /* \"#utility.yul\":3176:3542   */\ntag_43:\n    /* \"#utility.yul\":3318:3321   */\n  0x00\n    /* \"#utility.yul\":3339:3406   */\n  tag_78\n    /* \"#utility.yul\":3403:3405   */\n  0x1c\n    /* \"#utility.yul\":3398:3401   */\n  dup4\n    /* \"#utility.yul\":3339:3406   */\n  tag_39\n  jump\t// in\ntag_78:\n    /* \"#utility.yul\":3332:3406   */\n  swap2\n  pop\n    /* \"#utility.yul\":3415:3508   */\n  tag_79\n    /* \"#utility.yul\":3504:3507   */\n  dup3\n    /* \"#utility.yul\":3415:3508   */\n  tag_42\n  jump\t// in\ntag_79:\n    /* \"#utility.yul\":3533:3535   */\n  0x20\n    /* \"#utility.yul\":3528:3531   */\n  dup3\n    /* \"#utility.yul\":3524:3536   */\n  add\n    /* \"#utility.yul\":3517:3536   */\n  swap1\n  pop\n    /* \"#utility.yul\":3176:3542   */\n  swap2\n  swap1\n  pop\n  jump\t// out\n    /* \"#utility.yul\":3548:3967   */\ntag_20:\n    /* \"#utility.yul\":3714:3718   */\n  0x00\n    /* \"#utility.yul\":3752:3754   */\n  0x20\n    /* \"#utility.yul\":3741:3750   */\n  dup3\n    /* \"#utility.yul\":3737:3755   */\n  add\n    /* \"#utility.yul\":3729:3755   */\n  swap1\n  pop\n    /* \"#utility.yul\":3801:3810   */\n  dup2\n    /* \"#utility.yul\":3795:3799   */\n  dup2\n    /* \"#utility.yul\":3791:3811   */\n  sub\n    /* \"#utility.yul\":3787:3788   */\n  0x00\n    /* \"#utility.yul\":3776:3785   */\n  dup4\n    /* \"#utility.yul\":3772:3789   */\n  add\n    /* \"#utility.yul\":3765:3812   */\n  mstore\n    /* \"#utility.yul\":3829:3960   */\n  tag_81\n    /* \"#utility.yul\":3955:3959   */\n  dup2\n    /* \"#utility.yul\":3829:3960   */\n  tag_43\n  jump\t// in\ntag_81:\n    /* \"#utility.yul\":3821:3960   */\n  swap1\n  pop\n    /* \"#utility.yul\":3548:3967   */\n  swap2\n  swap1\n  pop\n  jump\t// out\n    /* \"#utility.yul\":3973:4140   */\ntag_44:\n    /* \"#utility.yul\":4113:4132   */\n  0x4475726174696f6e20746f6f206c6f6e67000000000000000000000000000000\n    /* \"#utility.yul\":4109:4110   */\n  0x00\n    /* \"#utility.yul\":4101:4107   */\n  dup3\n    /* \"#utility.yul\":4097:4111   */\n  add\n    /* \"#utility.yul\":4090:4133   */\n  mstore\n    /* \"#utility.yul\":3973:4140   */\n  pop\n  jump\t// out\n    /* \"#utility.yul\":4146:4512   */\ntag_45:\n    /* \"#utility.yul\":4288:4291   */\n  0x00\n    /* \"#utility.yul\":4309:4376   */\n  tag_84\n    /* \"#utility.yul\":4373:4375   */\n  0x11\n    /* \"#utility.yul\":4368:4371   */\n  dup4\n    /* \"#utility.yul\":4309:4376   */\n  tag_39\n  jump\t// in\ntag_84:\n    /* \"#utility.yul\":4302:4376   */\n  swap2\n  pop\n    /* \"#utility.yul\":4385:4478   */\n  tag_85\n    /* \"#utility.yul\":4474:4477   */\n  dup3\n    /* \"#utility.yul\":4385:4478   */\n  tag_44\n  jump\t// in\ntag_85:\n    /* \"#utility.yul\":4503:4505   */\n  0x20\n    /* \"#utility.yul\":4498:4501   */\n  dup3\n    /* \"#utility.yul\":4494:4506   */\n  add\n    /* \"#utility.yul\":4487:4506   */\n  swap1\n  pop\n    /* \"#utility.yul\":4146:4512   */\n  swap2\n  swap1\n  pop\n  jump\t// out\n    /* \"#utility.yul\":4518:4937   */\ntag_23:\n    /* \"#utility.yul\":4684:4688   */\n  0x00\n    /* \"#utility.yul\":4722:4724   */\n  0x20\n    /* \"#utility.yul\":4711:4720   */\n  dup3\n    /* \"#utility.yul\":4707:4725   */\n  add\n    /* \"#utility.yul\":4699:4725   */\n  swap1\n  pop\n    /* \"#utility.yul\":4771:4780   */\n  dup2\n    /* \"#utility.yul\":4765:4769   */\n  dup2\n    /* \"#utility.yul\":4761:4781   */\n  sub\n    /* \"#utility.yul\":4757:4758   */\n  0x00\n    /* \"#utility.yul\":4746:4755   */\n  dup4\n    /* \"#utility.yul\":4742:4759   */\n  add\n    /* \"#utility.yul\":4735:4782   */\n  mstore\n    /* \"#utility.yul\":4799:4930   */\n  tag_87\n    /* \"#utility.yul\":4925:4929   */\n  dup2\n    /* \"#utility.yul\":4799:4930   */\n  tag_45\n  jump\t// in\ntag_87:\n    /* \"#utility.yul\":4791:4930   */\n  swap1\n  pop\n    /* \"#utility.yul\":4518:4937   */\n  swap2\n  swap1\n  pop\n  jump\t// out\n    /* \"#utility.yul\":4943:5123   */\ntag_46:\n    /* \"#utility.yul\":4991:5068   */\n  0x4e487b7100000000000000000000000000000000000000000000000000000000\n    /* \"#utility.yul\":4988:4989   */\n  0x00\n    /* \"#utility.yul\":4981:5069   */\n  mstore\n    /* \"#utility.yul\":5088:5092   */\n  0x11\n    /* \"#utility.yul\":5085:5086   */\n  0x04\n    /* \"#utility.yul\":5078:5093   */\n  mstore\n    /* \"#utility.yul\":5112:5116   */\n  0x24\n    /* \"#utility.yul\":5109:5110   */\n  0x00\n    /* \"#utility.yul\":5102:5117   */\n  revert\n    /* \"#utility.yul\":5129:5539   */\ntag_25:\n    /* \"#utility.yul\":5169:5176   */\n  0x00\n    /* \"#utility.yul\":5192:5212   */\n  tag_90\n    /* \"#utility.yul\":5210:5211   */\n  dup3\n    /* \"#utility.yul\":5192:5212   */\n  tag_33\n  jump\t// in\ntag_90:\n    /* \"#utility.yul\":5187:5212   */\n  swap2\n  pop\n    /* \"#utility.yul\":5226:5246   */\n  tag_91\n    /* \"#utility.yul\":5244:5245   */\n  dup4\n    /* \"#utility.yul\":5226:5246   */\n  tag_33\n  jump\t// in\ntag_91:\n    /* \"#utility.yul\":5221:5246   */\n  swap3\n  pop\n    /* \"#utility.yul\":5281:5282   */\n  dup3\n    /* \"#utility.yul\":5278:5279   */\n  dup3\n    /* \"#utility.yul\":5274:5283   */\n  mul\n    /* \"#utility.yul\":5303:5333   */\n  tag_92\n    /* \"#utility.yul\":5321:5332   */\n  dup2\n    /* \"#utility.yul\":5303:5333   */\n  tag_33\n  jump\t// in\ntag_92:\n    /* \"#utility.yul\":5292:5333   */\n  swap2\n  pop\n    /* \"#utility.yul\":5482:5483   */\n  dup3\n    /* \"#utility.yul\":5473:5480   */\n  dup3\n    /* \"#utility.yul\":5469:5484   */\n  div\n    /* \"#utility.yul\":5466:5467   */\n  dup5\n    /* \"#utility.yul\":5463:5485   */\n  eq\n    /* \"#utility.yul\":5443:5444   */\n  dup4\n    /* \"#utility.yul\":5436:5445   */\n  iszero\n    /* \"#utility.yul\":5416:5499   */\n  or\n    /* \"#utility.yul\":5393:5532   */\n  tag_93\n  jumpi\n    /* \"#utility.yul\":5512:5530   */\n  tag_94\n  tag_46\n  jump\t// in\ntag_94:\n    /* \"#utility.yul\":5393:5532   */\ntag_93:\n    /* \"#utility.yul\":5177:5539   */\n  pop\n    /* \"#utility.yul\":5129:5539   */\n  swap3\n  swap2\n  pop\n  pop\n  jump\t// out\n    /* \"#utility.yul\":5545:5736   */\ntag_27:\n    /* \"#utility.yul\":5585:5588   */\n  0x00\n    /* \"#utility.yul\":5604:5624   */\n  tag_96\n    /* \"#utility.yul\":5622:5623   */\n  dup3\n    /* \"#utility.yul\":5604:5624   */\n  tag_33\n  jump\t// in\ntag_96:\n    /* \"#utility.yul\":5599:5624   */\n  swap2\n  pop\n    /* \"#utility.yul\":5638:5658   */\n  tag_97\n    /* \"#utility.yul\":5656:5657   */\n  dup4\n    /* \"#utility.yul\":5638:5658   */\n  tag_33\n  jump\t// in\ntag_97:\n    /* \"#utility.yul\":5633:5658   */\n  swap3\n  pop\n    /* \"#utility.yul\":5681:5682   */\n  dup3\n    /* \"#utility.yul\":5678:5679   */\n  dup3\n    /* \"#utility.yul\":5674:5683   */\n  add\n    /* \"#utility.yul\":5667:5683   */\n  swap1\n  pop\n    /* \"#utility.yul\":5702:5705   */\n  dup1\n    /* \"#utility.yul\":5699:5700   */\n  dup3\n    /* \"#utility.yul\":5696:5706   */\n  gt\n    /* \"#utility.yul\":5693:5729   */\n  iszero\n  tag_98\n  jumpi\n    /* \"#utility.yul\":5709:5727   */\n  tag_99\n  tag_46\n  jump\t// in\ntag_99:\n    /* \"#utility.yul\":5693:5729   */\ntag_98:\n    /* \"#utility.yul\":5545:5736   */\n  swap3\n  swap2\n  pop\n  pop\n  jump\t// out\n    /* \"SmartAuctionEthKipu.sol\":589:10396  contract SmartAuctionEthKipu is ReentrancyGuard, Ownable, Pausable {... */\ntag_28:\n  dataSize(sub_0)\n  dup1\n  dataOffset(sub_0)\n  0x00\n  codecopy\n  0x00\n  return\nstop\n\nsub_0: assembly {\n        /* \"SmartAuctionEthKipu.sol\":589:10396  contract SmartAuctionEthKipu is ReentrancyGuard, Ownable, Pausable {... */\n      mstore(0x40, 0x80)\n      jumpi(tag_1, lt(calldatasize, 0x04))\n      shr(0xe0, calldataload(0x00))\n      dup1\n      0x78e97925\n      gt\n      tag_32\n      jumpi\n      dup1\n      0xb7e03264\n      gt\n      tag_33\n      jumpi\n      dup1\n      0xf25c1e3b\n      gt\n      tag_34\n      jumpi\n      dup1\n      0xf25c1e3b\n      eq\n      tag_28\n      jumpi\n      dup1\n      0xf2fde38b\n      eq\n      tag_29\n      jumpi\n      dup1\n      0xfc7e286d\n      eq\n      tag_30\n      jumpi\n      dup1\n      0xfe67a54b\n      eq\n      tag_31\n      jumpi\n      jump(tag_2)\n    tag_34:\n      dup1\n      0xb7e03264\n      eq\n      tag_24\n      jumpi\n      dup1\n      0xcc6bee54\n      eq\n      tag_25\n      jumpi\n      dup1\n      0xd54a8d18\n      eq\n      tag_26\n      jumpi\n      dup1\n      0xd57bde79\n      eq\n      tag_27\n      jumpi\n      jump(tag_2)\n    tag_33:\n      dup1\n      0x8a72ea6a\n      gt\n      tag_35\n      jumpi\n      dup1\n      0x8a72ea6a\n      eq\n      tag_20\n      jumpi\n      dup1\n      0x8da5cb5b\n      eq\n      tag_21\n      jumpi\n      dup1\n      0x8f9cfe70\n      eq\n      tag_22\n      jumpi\n      dup1\n      0x91f90157\n      eq\n      tag_23\n      jumpi\n      jump(tag_2)\n    tag_35:\n      dup1\n      0x78e97925\n      eq\n      tag_17\n      jumpi\n      dup1\n      0x7eb79d5d\n      eq\n      tag_18\n      jumpi\n      dup1\n      0x8456cb59\n      eq\n      tag_19\n      jumpi\n      jump(tag_2)\n    tag_32:\n      dup1\n      0x476343ee\n      gt\n      tag_36\n      jumpi\n      dup1\n      0x5681104a\n      gt\n      tag_37\n      jumpi\n      dup1\n      0x5681104a\n      eq\n      tag_13\n      jumpi\n      dup1\n      0x5c975abb\n      eq\n      tag_14\n      jumpi\n      dup1\n      0x654e4685\n      eq\n      tag_15\n      jumpi\n      dup1\n      0x715018a6\n      eq\n      tag_16\n      jumpi\n      jump(tag_2)\n    tag_37:\n      dup1\n      0x476343ee\n      eq\n      tag_10\n      jumpi\n      dup1\n      0x5230a4c3\n      eq\n      tag_11\n      jumpi\n      dup1\n      0x534823bf\n      eq\n      tag_12\n      jumpi\n      jump(tag_2)\n    tag_36:\n      dup1\n      0x1998aeef\n      gt\n      tag_38\n      jumpi\n      dup1\n      0x1998aeef\n      eq\n      tag_6\n      jumpi\n      dup1\n      0x3197cbb6\n      eq\n      tag_7\n      jumpi\n      dup1\n      0x36c2780b\n      eq\n      tag_8\n      jumpi\n      dup1\n      0x3f4ba83a\n      eq\n      tag_9\n      jumpi\n      jump(tag_2)\n    tag_38:\n      dup1\n      0x08551a53\n      eq\n      tag_3\n      jumpi\n      dup1\n      0x117df088\n      eq\n      tag_4\n      jumpi\n      dup1\n      0x12fa6feb\n      eq\n      tag_5\n      jumpi\n      jump(tag_2)\n    tag_1:\n      jumpi(tag_2, calldatasize)\n        /* \"SmartAuctionEthKipu.sol\":10226:10281  revert(\"Please use the bid() function to participate.\") */\n      mload(0x40)\n      0x08c379a000000000000000000000000000000000000000000000000000000000\n      dup2\n      mstore\n      0x04\n      add\n      tag_41\n      swap1\n      tag_42\n      jump\t// in\n    tag_41:\n      mload(0x40)\n      dup1\n      swap2\n      sub\n      swap1\n      revert\n        /* \"SmartAuctionEthKipu.sol\":589:10396  contract SmartAuctionEthKipu is ReentrancyGuard, Ownable, Pausable {... */\n    tag_2:\n        /* \"SmartAuctionEthKipu.sol\":10336:10385  revert(\"Invalid call. Use the correct function.\") */\n      mload(0x40)\n      0x08c379a000000000000000000000000000000000000000000000000000000000\n      dup2\n      mstore\n      0x04\n      add\n      tag_45\n      swap1\n      tag_46\n      jump\t// in\n    tag_45:\n      mload(0x40)\n      dup1\n      swap2\n      sub\n      swap1\n      revert\n        /* \"SmartAuctionEthKipu.sol\":760:789  address payable public seller */\n    tag_3:\n      callvalue\n      dup1\n      iszero\n      tag_47\n      jumpi\n      revert(0x00, 0x00)\n    tag_47:\n      pop\n      tag_48\n      tag_49\n      jump\t// in\n    tag_48:\n      mload(0x40)\n      tag_50\n      swap2\n      swap1\n      tag_51\n      jump\t// in\n    tag_50:\n      mload(0x40)\n      dup1\n      swap2\n      sub\n      swap1\n      return\n        /* \"SmartAuctionEthKipu.sol\":6975:7579  function withdrawDeposit() public onlyAfterEnd onlyNotWinner nonReentrant {... */\n    tag_4:\n      callvalue\n      dup1\n      iszero\n      tag_52\n      jumpi\n      revert(0x00, 0x00)\n    tag_52:\n      pop\n      tag_53\n      tag_54\n      jump\t// in\n    tag_53:\n      stop\n        /* \"SmartAuctionEthKipu.sol\":1728:1745  bool public ended */\n    tag_5:\n      callvalue\n      dup1\n      iszero\n      tag_55\n      jumpi\n      revert(0x00, 0x00)\n    tag_55:\n      pop\n      tag_56\n      tag_57\n      jump\t// in\n    tag_56:\n      mload(0x40)\n      tag_58\n      swap2\n      swap1\n      tag_59\n      jump\t// in\n    tag_58:\n      mload(0x40)\n      dup1\n      swap2\n      sub\n      swap1\n      return\n        /* \"SmartAuctionEthKipu.sol\":5175:6262  function bid() external payable onlyWhileActive nonReentrant whenNotPaused {... */\n    tag_6:\n      tag_60\n      tag_61\n      jump\t// in\n    tag_60:\n      stop\n        /* \"SmartAuctionEthKipu.sol\":1088:1107  uint public endTime */\n    tag_7:\n      callvalue\n      dup1\n      iszero\n      tag_62\n      jumpi\n      revert(0x00, 0x00)\n    tag_62:\n      pop\n      tag_63\n      tag_64\n      jump\t// in\n    tag_63:\n      mload(0x40)\n      tag_65\n      swap2\n      swap1\n      tag_66\n      jump\t// in\n    tag_65:\n      mload(0x40)\n      dup1\n      swap2\n      sub\n      swap1\n      return\n        /* \"SmartAuctionEthKipu.sol\":7675:8220  function partialWithdrawExcess() public onlyWhileActive nonReentrant {... */\n    tag_8:\n      callvalue\n      dup1\n      iszero\n      tag_67\n      jumpi\n      revert(0x00, 0x00)\n    tag_67:\n      pop\n      tag_68\n      tag_69\n      jump\t// in\n    tag_68:\n      stop\n        /* \"SmartAuctionEthKipu.sol\":9368:9435  function unpause() external onlyOwner {... */\n    tag_9:\n      callvalue\n      dup1\n      iszero\n      tag_70\n      jumpi\n      revert(0x00, 0x00)\n    tag_70:\n      pop\n      tag_71\n      tag_72\n      jump\t// in\n    tag_71:\n      stop\n        /* \"SmartAuctionEthKipu.sol\":8837:9075  function withdrawFees() external onlySeller nonReentrant {... */\n    tag_10:\n      callvalue\n      dup1\n      iszero\n      tag_73\n      jumpi\n      revert(0x00, 0x00)\n    tag_73:\n      pop\n      tag_74\n      tag_75\n      jump\t// in\n    tag_74:\n      stop\n        /* \"SmartAuctionEthKipu.sol\":1639:1682  uint public constant REFUND_FEE_PERCENT = 2 */\n    tag_11:\n      callvalue\n      dup1\n      iszero\n      tag_76\n      jumpi\n      revert(0x00, 0x00)\n    tag_76:\n      pop\n      tag_77\n      tag_78\n      jump\t// in\n    tag_77:\n      mload(0x40)\n      tag_79\n      swap2\n      swap1\n      tag_66\n      jump\t// in\n    tag_79:\n      mload(0x40)\n      dup1\n      swap2\n      sub\n      swap1\n      return\n        /* \"SmartAuctionEthKipu.sol\":6651:6742  function showOffers() public view returns (Offer[] memory) {... */\n    tag_12:\n      callvalue\n      dup1\n      iszero\n      tag_80\n      jumpi\n      revert(0x00, 0x00)\n    tag_80:\n      pop\n      tag_81\n      tag_82\n      jump\t// in\n    tag_81:\n      mload(0x40)\n      tag_83\n      swap2\n      swap1\n      tag_84\n      jump\t// in\n    tag_83:\n      mload(0x40)\n      dup1\n      swap2\n      sub\n      swap1\n      return\n        /* \"SmartAuctionEthKipu.sol\":1372:1413  uint public constant EXTENSION_TIME = 600 */\n    tag_13:\n      callvalue\n      dup1\n      iszero\n      tag_85\n      jumpi\n      revert(0x00, 0x00)\n    tag_85:\n      pop\n      tag_86\n      tag_87\n      jump\t// in\n    tag_86:\n      mload(0x40)\n      tag_88\n      swap2\n      swap1\n      tag_66\n      jump\t// in\n    tag_88:\n      mload(0x40)\n      dup1\n      swap2\n      sub\n      swap1\n      return\n        /* \"@openzeppelin/contracts/utils/Pausable.sol\":1726:1810  function paused() public view virtual returns (bool) {... */\n    tag_14:\n      callvalue\n      dup1\n      iszero\n      tag_89\n      jumpi\n      revert(0x00, 0x00)\n    tag_89:\n      pop\n      tag_90\n      tag_91\n      jump\t// in\n    tag_90:\n      mload(0x40)\n      tag_92\n      swap2\n      swap1\n      tag_59\n      jump\t// in\n    tag_92:\n      mload(0x40)\n      dup1\n      swap2\n      sub\n      swap1\n      return\n        /* \"SmartAuctionEthKipu.sol\":1201:1249  uint public constant MIN_INCREMENT_PERCENT = 105 */\n    tag_15:\n      callvalue\n      dup1\n      iszero\n      tag_93\n      jumpi\n      revert(0x00, 0x00)\n    tag_93:\n      pop\n      tag_94\n      tag_95\n      jump\t// in\n    tag_94:\n      mload(0x40)\n      tag_96\n      swap2\n      swap1\n      tag_66\n      jump\t// in\n    tag_96:\n      mload(0x40)\n      dup1\n      swap2\n      sub\n      swap1\n      return\n        /* \"@openzeppelin/contracts/access/Ownable.sol\":2293:2394  function renounceOwnership() public virtual onlyOwner {... */\n    tag_16:\n      callvalue\n      dup1\n      iszero\n      tag_97\n      jumpi\n      revert(0x00, 0x00)\n    tag_97:\n      pop\n      tag_98\n      tag_99\n      jump\t// in\n    tag_98:\n      stop\n        /* \"SmartAuctionEthKipu.sol\":998:1019  uint public startTime */\n    tag_17:\n      callvalue\n      dup1\n      iszero\n      tag_100\n      jumpi\n      revert(0x00, 0x00)\n    tag_100:\n      pop\n      tag_101\n      tag_102\n      jump\t// in\n    tag_101:\n      mload(0x40)\n      tag_103\n      swap2\n      swap1\n      tag_66\n      jump\t// in\n    tag_103:\n      mload(0x40)\n      dup1\n      swap2\n      sub\n      swap1\n      return\n        /* \"SmartAuctionEthKipu.sol\":1507:1550  uint public constant EXTENSION_WINDOW = 600 */\n    tag_18:\n      callvalue\n      dup1\n      iszero\n      tag_104\n      jumpi\n      revert(0x00, 0x00)\n    tag_104:\n      pop\n      tag_105\n      tag_106\n      jump\t// in\n    tag_105:\n      mload(0x40)\n      tag_107\n      swap2\n      swap1\n      tag_66\n      jump\t// in\n    tag_107:\n      mload(0x40)\n      dup1\n      swap2\n      sub\n      swap1\n      return\n        /* \"SmartAuctionEthKipu.sol\":9240:9303  function pause() external onlyOwner {... */\n    tag_19:\n      callvalue\n      dup1\n      iszero\n      tag_108\n      jumpi\n      revert(0x00, 0x00)\n    tag_108:\n      pop\n      tag_109\n      tag_110\n      jump\t// in\n    tag_109:\n      stop\n        /* \"SmartAuctionEthKipu.sol\":1898:1919  Offer[] public offers */\n    tag_20:\n      callvalue\n      dup1\n      iszero\n      tag_111\n      jumpi\n      revert(0x00, 0x00)\n    tag_111:\n      pop\n      tag_112\n      0x04\n      dup1\n      calldatasize\n      sub\n      dup2\n      add\n      swap1\n      tag_113\n      swap2\n      swap1\n      tag_114\n      jump\t// in\n    tag_113:\n      tag_115\n      jump\t// in\n    tag_112:\n      mload(0x40)\n      tag_116\n      swap4\n      swap3\n      swap2\n      swap1\n      tag_117\n      jump\t// in\n    tag_116:\n      mload(0x40)\n      dup1\n      swap2\n      sub\n      swap1\n      return\n        /* \"@openzeppelin/contracts/access/Ownable.sol\":1638:1723  function owner() public view virtual returns (address) {... */\n    tag_21:\n      callvalue\n      dup1\n      iszero\n      tag_118\n      jumpi\n      revert(0x00, 0x00)\n    tag_118:\n      pop\n      tag_119\n      tag_120\n      jump\t// in\n    tag_119:\n      mload(0x40)\n      tag_121\n      swap2\n      swap1\n      tag_122\n      jump\t// in\n    tag_121:\n      mload(0x40)\n      dup1\n      swap2\n      sub\n      swap1\n      return\n        /* \"SmartAuctionEthKipu.sol\":10002:10112  function getLastOfferIndex() external view returns (uint) {... */\n    tag_22:\n      callvalue\n      dup1\n      iszero\n      tag_123\n      jumpi\n      revert(0x00, 0x00)\n    tag_123:\n      pop\n      tag_124\n      tag_125\n      jump\t// in\n    tag_124:\n      mload(0x40)\n      tag_126\n      swap2\n      swap1\n      tag_66\n      jump\t// in\n    tag_126:\n      mload(0x40)\n      dup1\n      swap2\n      sub\n      swap1\n      return\n        /* \"SmartAuctionEthKipu.sol\":853:881  address public highestBidder */\n    tag_23:\n      callvalue\n      dup1\n      iszero\n      tag_127\n      jumpi\n      revert(0x00, 0x00)\n    tag_127:\n      pop\n      tag_128\n      tag_129\n      jump\t// in\n    tag_128:\n      mload(0x40)\n      tag_130\n      swap2\n      swap1\n      tag_122\n      jump\t// in\n    tag_130:\n      mload(0x40)\n      dup1\n      swap2\n      sub\n      swap1\n      return\n        /* \"SmartAuctionEthKipu.sol\":6401:6538  function showWinner() public view onlyAfterEnd returns(address winner, uint amount) {... */\n    tag_24:\n      callvalue\n      dup1\n      iszero\n      tag_131\n      jumpi\n      revert(0x00, 0x00)\n    tag_131:\n      pop\n      tag_132\n      tag_133\n      jump\t// in\n    tag_132:\n      mload(0x40)\n      tag_134\n      swap3\n      swap2\n      swap1\n      tag_135\n      jump\t// in\n    tag_134:\n      mload(0x40)\n      dup1\n      swap2\n      sub\n      swap1\n      return\n        /* \"SmartAuctionEthKipu.sol\":6804:6890  function numOffers() public view returns(uint) {... */\n    tag_25:\n      callvalue\n      dup1\n      iszero\n      tag_136\n      jumpi\n      revert(0x00, 0x00)\n    tag_136:\n      pop\n      tag_137\n      tag_138\n      jump\t// in\n    tag_137:\n      mload(0x40)\n      tag_139\n      swap2\n      swap1\n      tag_66\n      jump\t// in\n    tag_139:\n      mload(0x40)\n      dup1\n      swap2\n      sub\n      swap1\n      return\n        /* \"SmartAuctionEthKipu.sol\":9834:9941  function getCollectedFees() external view onlySeller returns (uint) {... */\n    tag_26:\n      callvalue\n      dup1\n      iszero\n      tag_140\n      jumpi\n      revert(0x00, 0x00)\n    tag_140:\n      pop\n      tag_141\n      tag_142\n      jump\t// in\n    tag_141:\n      mload(0x40)\n      tag_143\n      swap2\n      swap1\n      tag_66\n      jump\t// in\n    tag_143:\n      mload(0x40)\n      dup1\n      swap2\n      sub\n      swap1\n      return\n        /* \"SmartAuctionEthKipu.sol\":926:948  uint public highestBid */\n    tag_27:\n      callvalue\n      dup1\n      iszero\n      tag_144\n      jumpi\n      revert(0x00, 0x00)\n    tag_144:\n      pop\n      tag_145\n      tag_146\n      jump\t// in\n    tag_145:\n      mload(0x40)\n      tag_147\n      swap2\n      swap1\n      tag_66\n      jump\t// in\n    tag_147:\n      mload(0x40)\n      dup1\n      swap2\n      sub\n      swap1\n      return\n        /* \"SmartAuctionEthKipu.sol\":9495:9674  function emergencyEndAuction() external onlyOwner {... */\n    tag_28:\n      callvalue\n      dup1\n      iszero\n      tag_148\n      jumpi\n      revert(0x00, 0x00)\n    tag_148:\n      pop\n      tag_149\n      tag_150\n      jump\t// in\n    tag_149:\n      stop\n        /* \"@openzeppelin/contracts/access/Ownable.sol\":2543:2758  function transferOwnership(address newOwner) public virtual onlyOwner {... */\n    tag_29:\n      callvalue\n      dup1\n      iszero\n      tag_151\n      jumpi\n      revert(0x00, 0x00)\n    tag_151:\n      pop\n      tag_152\n      0x04\n      dup1\n      calldatasize\n      sub\n      dup2\n      add\n      swap1\n      tag_153\n      swap2\n      swap1\n      tag_154\n      jump\t// in\n    tag_153:\n      tag_155\n      jump\t// in\n    tag_152:\n      stop\n        /* \"SmartAuctionEthKipu.sol\":2017:2057  mapping(address => uint) public deposits */\n    tag_30:\n      callvalue\n      dup1\n      iszero\n      tag_156\n      jumpi\n      revert(0x00, 0x00)\n    tag_156:\n      pop\n      tag_157\n      0x04\n      dup1\n      calldatasize\n      sub\n      dup2\n      add\n      swap1\n      tag_158\n      swap2\n      swap1\n      tag_154\n      jump\t// in\n    tag_158:\n      tag_159\n      jump\t// in\n    tag_157:\n      mload(0x40)\n      tag_160\n      swap2\n      swap1\n      tag_66\n      jump\t// in\n    tag_160:\n      mload(0x40)\n      dup1\n      swap2\n      sub\n      swap1\n      return\n        /* \"SmartAuctionEthKipu.sol\":8316:8758  function endAuction() public onlyAfterEnd nonReentrant {... */\n    tag_31:\n      callvalue\n      dup1\n      iszero\n      tag_161\n      jumpi\n      revert(0x00, 0x00)\n    tag_161:\n      pop\n      tag_162\n      tag_163\n      jump\t// in\n    tag_162:\n      stop\n        /* \"SmartAuctionEthKipu.sol\":760:789  address payable public seller */\n    tag_49:\n      0x02\n      0x00\n      swap1\n      sload\n      swap1\n      0x0100\n      exp\n      swap1\n      div\n      0xffffffffffffffffffffffffffffffffffffffff\n      and\n      dup2\n      jump\t// out\n        /* \"SmartAuctionEthKipu.sol\":6975:7579  function withdrawDeposit() public onlyAfterEnd onlyNotWinner nonReentrant {... */\n    tag_54:\n        /* \"SmartAuctionEthKipu.sol\":3417:3424  endTime */\n      sload(0x06)\n        /* \"SmartAuctionEthKipu.sol\":3398:3413  block.timestamp */\n      timestamp\n        /* \"SmartAuctionEthKipu.sol\":3398:3424  block.timestamp >= endTime */\n      lt\n      iszero\n        /* \"SmartAuctionEthKipu.sol\":3398:3433  block.timestamp >= endTime || ended */\n      dup1\n      tag_165\n      jumpi\n      pop\n        /* \"SmartAuctionEthKipu.sol\":3428:3433  ended */\n      0x07\n      0x00\n      swap1\n      sload\n      swap1\n      0x0100\n      exp\n      swap1\n      div\n      0xff\n      and\n        /* \"SmartAuctionEthKipu.sol\":3398:3433  block.timestamp >= endTime || ended */\n    tag_165:\n        /* \"SmartAuctionEthKipu.sol\":3390:3459  require(block.timestamp >= endTime || ended, \"Auction not yet ended\") */\n      tag_166\n      jumpi\n      mload(0x40)\n      0x08c379a000000000000000000000000000000000000000000000000000000000\n      dup2\n      mstore\n      0x04\n      add\n      tag_167\n      swap1\n      tag_168\n      jump\t// in\n    tag_167:\n      mload(0x40)\n      dup1\n      swap2\n      sub\n      swap1\n      revert\n    tag_166:\n        /* \"SmartAuctionEthKipu.sol\":3746:3759  highestBidder */\n      0x03\n      0x00\n      swap1\n      sload\n      swap1\n      0x0100\n      exp\n      swap1\n      div\n      0xffffffffffffffffffffffffffffffffffffffff\n      and\n        /* \"SmartAuctionEthKipu.sol\":3732:3759  msg.sender != highestBidder */\n      0xffffffffffffffffffffffffffffffffffffffff\n      and\n        /* \"SmartAuctionEthKipu.sol\":3732:3742  msg.sender */\n      caller\n        /* \"SmartAuctionEthKipu.sol\":3732:3759  msg.sender != highestBidder */\n      0xffffffffffffffffffffffffffffffffffffffff\n      and\n      sub\n        /* \"SmartAuctionEthKipu.sol\":3724:3793  require(msg.sender != highestBidder, \"Winner cannot withdraw refund\") */\n      tag_170\n      jumpi\n      mload(0x40)\n      0x08c379a000000000000000000000000000000000000000000000000000000000\n      dup2\n      mstore\n      0x04\n      add\n      tag_171\n      swap1\n      tag_172\n      jump\t// in\n    tag_171:\n      mload(0x40)\n      dup1\n      swap2\n      sub\n      swap1\n      revert\n    tag_170:\n        /* \"@openzeppelin/contracts/utils/ReentrancyGuard.sol\":2500:2521  _nonReentrantBefore() */\n      tag_174\n        /* \"@openzeppelin/contracts/utils/ReentrancyGuard.sol\":2500:2519  _nonReentrantBefore */\n      tag_175\n        /* \"@openzeppelin/contracts/utils/ReentrancyGuard.sol\":2500:2521  _nonReentrantBefore() */\n      jump\t// in\n    tag_174:\n        /* \"SmartAuctionEthKipu.sol\":7060:7078  uint totalToReturn */\n      0x00\n        /* \"SmartAuctionEthKipu.sol\":7081:7089  deposits */\n      0x09\n        /* \"SmartAuctionEthKipu.sol\":7081:7101  deposits[msg.sender] */\n      0x00\n        /* \"SmartAuctionEthKipu.sol\":7090:7100  msg.sender */\n      caller\n        /* \"SmartAuctionEthKipu.sol\":7081:7101  deposits[msg.sender] */\n      0xffffffffffffffffffffffffffffffffffffffff\n      and\n      0xffffffffffffffffffffffffffffffffffffffff\n      and\n      dup2\n      mstore\n      0x20\n      add\n      swap1\n      dup2\n      mstore\n      0x20\n      add\n      0x00\n      keccak256\n      sload\n        /* \"SmartAuctionEthKipu.sol\":7060:7101  uint totalToReturn = deposits[msg.sender] */\n      swap1\n      pop\n        /* \"SmartAuctionEthKipu.sol\":7136:7137  0 */\n      0x00\n        /* \"SmartAuctionEthKipu.sol\":7120:7133  totalToReturn */\n      dup2\n        /* \"SmartAuctionEthKipu.sol\":7120:7137  totalToReturn > 0 */\n      gt\n        /* \"SmartAuctionEthKipu.sol\":7112:7162  require(totalToReturn > 0, \"No funds to withdraw\") */\n      tag_177\n      jumpi\n      mload(0x40)\n      0x08c379a000000000000000000000000000000000000000000000000000000000\n      dup2\n      mstore\n      0x04\n      add\n      tag_178\n      swap1\n      tag_179\n      jump\t// in\n    tag_178:\n      mload(0x40)\n      dup1\n      swap2\n      sub\n      swap1\n      revert\n    tag_177:\n        /* \"SmartAuctionEthKipu.sol\":7238:7239  0 */\n      0x00\n        /* \"SmartAuctionEthKipu.sol\":7215:7223  deposits */\n      0x09\n        /* \"SmartAuctionEthKipu.sol\":7215:7235  deposits[msg.sender] */\n      0x00\n        /* \"SmartAuctionEthKipu.sol\":7224:7234  msg.sender */\n      caller\n        /* \"SmartAuctionEthKipu.sol\":7215:7235  deposits[msg.sender] */\n      0xffffffffffffffffffffffffffffffffffffffff\n      and\n      0xffffffffffffffffffffffffffffffffffffffff\n      and\n      dup2\n      mstore\n      0x20\n      add\n      swap1\n      dup2\n      mstore\n      0x20\n      add\n      0x00\n      keccak256\n        /* \"SmartAuctionEthKipu.sol\":7215:7239  deposits[msg.sender] = 0 */\n      dup2\n      swap1\n      sstore\n      pop\n        /* \"SmartAuctionEthKipu.sol\":7319:7327  uint fee */\n      0x00\n        /* \"SmartAuctionEthKipu.sol\":7329:7340  uint refund */\n      0x00\n        /* \"SmartAuctionEthKipu.sol\":7344:7372  _calculateFee(totalToReturn) */\n      tag_180\n        /* \"SmartAuctionEthKipu.sol\":7358:7371  totalToReturn */\n      dup4\n        /* \"SmartAuctionEthKipu.sol\":7344:7357  _calculateFee */\n      tag_181\n        /* \"SmartAuctionEthKipu.sol\":7344:7372  _calculateFee(totalToReturn) */\n      jump\t// in\n    tag_180:\n        /* \"SmartAuctionEthKipu.sol\":7318:7372  (uint fee, uint refund) = _calculateFee(totalToReturn) */\n      swap2\n      pop\n      swap2\n      pop\n        /* \"SmartAuctionEthKipu.sol\":7400:7403  fee */\n      dup2\n        /* \"SmartAuctionEthKipu.sol\":7383:7396  collectedFees */\n      0x0b\n      0x00\n        /* \"SmartAuctionEthKipu.sol\":7383:7403  collectedFees += fee */\n      dup3\n      dup3\n      sload\n      tag_182\n      swap2\n      swap1\n      tag_183\n      jump\t// in\n    tag_182:\n      swap3\n      pop\n      pop\n      dup2\n      swap1\n      sstore\n      pop\n        /* \"SmartAuctionEthKipu.sol\":7481:7523  _safeTransfer(payable(msg.sender), refund) */\n      tag_184\n        /* \"SmartAuctionEthKipu.sol\":7503:7513  msg.sender */\n      caller\n        /* \"SmartAuctionEthKipu.sol\":7516:7522  refund */\n      dup3\n        /* \"SmartAuctionEthKipu.sol\":7481:7494  _safeTransfer */\n      tag_185\n        /* \"SmartAuctionEthKipu.sol\":7481:7523  _safeTransfer(payable(msg.sender), refund) */\n      jump\t// in\n    tag_184:\n        /* \"SmartAuctionEthKipu.sol\":7552:7562  msg.sender */\n      caller\n        /* \"SmartAuctionEthKipu.sol\":7541:7571  Withdrawal(msg.sender, refund) */\n      0xffffffffffffffffffffffffffffffffffffffff\n      and\n      0x7fcf532c15f0a6db0bd6d0e038bea71d30d808c7d98cb3bf7268a95bf5081b65\n        /* \"SmartAuctionEthKipu.sol\":7564:7570  refund */\n      dup3\n        /* \"SmartAuctionEthKipu.sol\":7541:7571  Withdrawal(msg.sender, refund) */\n      mload(0x40)\n      tag_186\n      swap2\n      swap1\n      tag_66\n      jump\t// in\n    tag_186:\n      mload(0x40)\n      dup1\n      swap2\n      sub\n      swap1\n      log2\n        /* \"SmartAuctionEthKipu.sol\":7049:7579  {... */\n      pop\n      pop\n      pop\n        /* \"@openzeppelin/contracts/utils/ReentrancyGuard.sol\":2542:2562  _nonReentrantAfter() */\n      tag_187\n        /* \"@openzeppelin/contracts/utils/ReentrancyGuard.sol\":2542:2560  _nonReentrantAfter */\n      tag_188\n        /* \"@openzeppelin/contracts/utils/ReentrancyGuard.sol\":2542:2562  _nonReentrantAfter() */\n      jump\t// in\n    tag_187:\n        /* \"SmartAuctionEthKipu.sol\":6975:7579  function withdrawDeposit() public onlyAfterEnd onlyNotWinner nonReentrant {... */\n      jump\t// out\n        /* \"SmartAuctionEthKipu.sol\":1728:1745  bool public ended */\n    tag_57:\n      0x07\n      0x00\n      swap1\n      sload\n      swap1\n      0x0100\n      exp\n      swap1\n      div\n      0xff\n      and\n      dup2\n      jump\t// out\n        /* \"SmartAuctionEthKipu.sol\":5175:6262  function bid() external payable onlyWhileActive nonReentrant whenNotPaused {... */\n    tag_61:\n        /* \"SmartAuctionEthKipu.sol\":3193:3198  ended */\n      0x07\n      0x00\n      swap1\n      sload\n      swap1\n      0x0100\n      exp\n      swap1\n      div\n      0xff\n      and\n        /* \"SmartAuctionEthKipu.sol\":3192:3198  !ended */\n      iszero\n        /* \"SmartAuctionEthKipu.sol\":3192:3230  !ended && block.timestamp >= startTime */\n      dup1\n      iszero\n      tag_190\n      jumpi\n      pop\n        /* \"SmartAuctionEthKipu.sol\":3221:3230  startTime */\n      sload(0x05)\n        /* \"SmartAuctionEthKipu.sol\":3202:3217  block.timestamp */\n      timestamp\n        /* \"SmartAuctionEthKipu.sol\":3202:3230  block.timestamp >= startTime */\n      lt\n      iszero\n        /* \"SmartAuctionEthKipu.sol\":3192:3230  !ended && block.timestamp >= startTime */\n    tag_190:\n        /* \"SmartAuctionEthKipu.sol\":3192:3259  !ended && block.timestamp >= startTime && block.timestamp < endTime */\n      dup1\n      iszero\n      tag_191\n      jumpi\n      pop\n        /* \"SmartAuctionEthKipu.sol\":3252:3259  endTime */\n      sload(0x06)\n        /* \"SmartAuctionEthKipu.sol\":3234:3249  block.timestamp */\n      timestamp\n        /* \"SmartAuctionEthKipu.sol\":3234:3259  block.timestamp < endTime */\n      lt\n        /* \"SmartAuctionEthKipu.sol\":3192:3259  !ended && block.timestamp >= startTime && block.timestamp < endTime */\n    tag_191:\n        /* \"SmartAuctionEthKipu.sol\":3184:3285  require(!ended && block.timestamp >= startTime && block.timestamp < endTime, \"Auction is not active\") */\n      tag_192\n      jumpi\n      mload(0x40)\n      0x08c379a000000000000000000000000000000000000000000000000000000000\n      dup2\n      mstore\n      0x04\n      add\n      tag_193\n      swap1\n      tag_194\n      jump\t// in\n    tag_193:\n      mload(0x40)\n      dup1\n      swap2\n      sub\n      swap1\n      revert\n    tag_192:\n        /* \"@openzeppelin/contracts/utils/ReentrancyGuard.sol\":2500:2521  _nonReentrantBefore() */\n      tag_196\n        /* \"@openzeppelin/contracts/utils/ReentrancyGuard.sol\":2500:2519  _nonReentrantBefore */\n      tag_175\n        /* \"@openzeppelin/contracts/utils/ReentrancyGuard.sol\":2500:2521  _nonReentrantBefore() */\n      jump\t// in\n    tag_196:\n        /* \"@openzeppelin/contracts/utils/Pausable.sol\":1350:1369  _requireNotPaused() */\n      tag_198\n        /* \"@openzeppelin/contracts/utils/Pausable.sol\":1350:1367  _requireNotPaused */\n      tag_199\n        /* \"@openzeppelin/contracts/utils/Pausable.sol\":1350:1369  _requireNotPaused() */\n      jump\t// in\n    tag_198:\n        /* \"SmartAuctionEthKipu.sol\":5281:5282  0 */\n      0x00\n        /* \"SmartAuctionEthKipu.sol\":5269:5278  msg.value */\n      callvalue\n        /* \"SmartAuctionEthKipu.sol\":5269:5282  msg.value > 0 */\n      gt\n        /* \"SmartAuctionEthKipu.sol\":5261:5313  require(msg.value > 0, \"Bid must be greater than 0\") */\n      tag_201\n      jumpi\n      mload(0x40)\n      0x08c379a000000000000000000000000000000000000000000000000000000000\n      dup2\n      mstore\n      0x04\n      add\n      tag_202\n      swap1\n      tag_203\n      jump\t// in\n    tag_202:\n      mload(0x40)\n      dup1\n      swap2\n      sub\n      swap1\n      revert\n    tag_201:\n        /* \"SmartAuctionEthKipu.sol\":5386:5402  uint newTotalBid */\n      0x00\n        /* \"SmartAuctionEthKipu.sol\":5428:5437  msg.value */\n      callvalue\n        /* \"SmartAuctionEthKipu.sol\":5405:5413  deposits */\n      0x09\n        /* \"SmartAuctionEthKipu.sol\":5405:5425  deposits[msg.sender] */\n      0x00\n        /* \"SmartAuctionEthKipu.sol\":5414:5424  msg.sender */\n      caller\n        /* \"SmartAuctionEthKipu.sol\":5405:5425  deposits[msg.sender] */\n      0xffffffffffffffffffffffffffffffffffffffff\n      and\n      0xffffffffffffffffffffffffffffffffffffffff\n      and\n      dup2\n      mstore\n      0x20\n      add\n      swap1\n      dup2\n      mstore\n      0x20\n      add\n      0x00\n      keccak256\n      sload\n        /* \"SmartAuctionEthKipu.sol\":5405:5437  deposits[msg.sender] + msg.value */\n      tag_204\n      swap2\n      swap1\n      tag_183\n      jump\t// in\n    tag_204:\n        /* \"SmartAuctionEthKipu.sol\":5386:5437  uint newTotalBid = deposits[msg.sender] + msg.value */\n      swap1\n      pop\n        /* \"SmartAuctionEthKipu.sol\":5448:5464  uint minRequired */\n      0x00\n        /* \"SmartAuctionEthKipu.sol\":5481:5482  0 */\n      0x00\n        /* \"SmartAuctionEthKipu.sol\":5467:5477  highestBid */\n      sload(0x04)\n        /* \"SmartAuctionEthKipu.sol\":5467:5482  highestBid == 0 */\n      eq\n        /* \"SmartAuctionEthKipu.sol\":5467:5531  highestBid == 0 ? 0 : (highestBid * MIN_INCREMENT_PERCENT) / 100 */\n      tag_205\n      jumpi\n        /* \"SmartAuctionEthKipu.sol\":5528:5531  100 */\n      0x64\n        /* \"SmartAuctionEthKipu.sol\":1246:1249  105 */\n      0x69\n        /* \"SmartAuctionEthKipu.sol\":5490:5500  highestBid */\n      sload(0x04)\n        /* \"SmartAuctionEthKipu.sol\":5490:5524  highestBid * MIN_INCREMENT_PERCENT */\n      tag_206\n      swap2\n      swap1\n      tag_207\n      jump\t// in\n    tag_206:\n        /* \"SmartAuctionEthKipu.sol\":5489:5531  (highestBid * MIN_INCREMENT_PERCENT) / 100 */\n      tag_208\n      swap2\n      swap1\n      tag_209\n      jump\t// in\n    tag_208:\n        /* \"SmartAuctionEthKipu.sol\":5467:5531  highestBid == 0 ? 0 : (highestBid * MIN_INCREMENT_PERCENT) / 100 */\n      jump(tag_210)\n    tag_205:\n        /* \"SmartAuctionEthKipu.sol\":5485:5486  0 */\n      0x00\n        /* \"SmartAuctionEthKipu.sol\":5467:5531  highestBid == 0 ? 0 : (highestBid * MIN_INCREMENT_PERCENT) / 100 */\n    tag_210:\n        /* \"SmartAuctionEthKipu.sol\":5448:5531  uint minRequired = highestBid == 0 ? 0 : (highestBid * MIN_INCREMENT_PERCENT) / 100 */\n      swap1\n      pop\n        /* \"SmartAuctionEthKipu.sol\":5574:5585  minRequired */\n      dup1\n        /* \"SmartAuctionEthKipu.sol\":5560:5571  newTotalBid */\n      dup3\n        /* \"SmartAuctionEthKipu.sol\":5560:5585  newTotalBid > minRequired */\n      gt\n        /* \"SmartAuctionEthKipu.sol\":5552:5637  require(newTotalBid > minRequired, \"Bid must be at least 5% higher than highest bid\") */\n      tag_211\n      jumpi\n      mload(0x40)\n      0x08c379a000000000000000000000000000000000000000000000000000000000\n      dup2\n      mstore\n      0x04\n      add\n      tag_212\n      swap1\n      tag_213\n      jump\t// in\n    tag_212:\n      mload(0x40)\n      dup1\n      swap2\n      sub\n      swap1\n      revert\n    tag_211:\n        /* \"SmartAuctionEthKipu.sol\":5711:5720  msg.value */\n      callvalue\n        /* \"SmartAuctionEthKipu.sol\":5687:5695  deposits */\n      0x09\n        /* \"SmartAuctionEthKipu.sol\":5687:5707  deposits[msg.sender] */\n      0x00\n        /* \"SmartAuctionEthKipu.sol\":5696:5706  msg.sender */\n      caller\n        /* \"SmartAuctionEthKipu.sol\":5687:5707  deposits[msg.sender] */\n      0xffffffffffffffffffffffffffffffffffffffff\n      and\n      0xffffffffffffffffffffffffffffffffffffffff\n      and\n      dup2\n      mstore\n      0x20\n      add\n      swap1\n      dup2\n      mstore\n      0x20\n      add\n      0x00\n      keccak256\n      0x00\n        /* \"SmartAuctionEthKipu.sol\":5687:5720  deposits[msg.sender] += msg.value */\n      dup3\n      dup3\n      sload\n      tag_214\n      swap2\n      swap1\n      tag_183\n      jump\t// in\n    tag_214:\n      swap3\n      pop\n      pop\n      dup2\n      swap1\n      sstore\n      pop\n        /* \"SmartAuctionEthKipu.sol\":5758:5764  offers */\n      0x08\n        /* \"SmartAuctionEthKipu.sol\":5770:5815  Offer(msg.sender, msg.value, block.timestamp) */\n      mload(0x40)\n      dup1\n      0x60\n      add\n      0x40\n      mstore\n      dup1\n        /* \"SmartAuctionEthKipu.sol\":5776:5786  msg.sender */\n      caller\n        /* \"SmartAuctionEthKipu.sol\":5770:5815  Offer(msg.sender, msg.value, block.timestamp) */\n      0xffffffffffffffffffffffffffffffffffffffff\n      and\n      dup2\n      mstore\n      0x20\n      add\n        /* \"SmartAuctionEthKipu.sol\":5788:5797  msg.value */\n      callvalue\n        /* \"SmartAuctionEthKipu.sol\":5770:5815  Offer(msg.sender, msg.value, block.timestamp) */\n      dup2\n      mstore\n      0x20\n      add\n        /* \"SmartAuctionEthKipu.sol\":5799:5814  block.timestamp */\n      timestamp\n        /* \"SmartAuctionEthKipu.sol\":5770:5815  Offer(msg.sender, msg.value, block.timestamp) */\n      dup2\n      mstore\n      pop\n        /* \"SmartAuctionEthKipu.sol\":5758:5816  offers.push(Offer(msg.sender, msg.value, block.timestamp)) */\n      swap1\n      dup1\n      0x01\n      dup2\n      sload\n      add\n      dup1\n      dup3\n      sstore\n      dup1\n      swap2\n      pop\n      pop\n      0x01\n      swap1\n      sub\n      swap1\n      0x00\n      mstore\n      keccak256(0x00, 0x20)\n      swap1\n      0x03\n      mul\n      add\n      0x00\n      swap1\n      swap2\n      swap1\n      swap2\n      swap1\n      swap2\n      pop\n      0x00\n      dup3\n      add\n      mload\n      dup2\n      0x00\n      add\n      exp(0x0100, 0x00)\n      dup2\n      sload\n      dup2\n      0xffffffffffffffffffffffffffffffffffffffff\n      mul\n      not\n      and\n      swap1\n      dup4\n      0xffffffffffffffffffffffffffffffffffffffff\n      and\n      mul\n      or\n      swap1\n      sstore\n      pop\n      0x20\n      dup3\n      add\n      mload\n      dup2\n      0x01\n      add\n      sstore\n      0x40\n      dup3\n      add\n      mload\n      dup2\n      0x02\n      add\n      sstore\n      pop\n      pop\n        /* \"SmartAuctionEthKipu.sol\":5872:5873  1 */\n      0x01\n        /* \"SmartAuctionEthKipu.sol\":5856:5862  offers */\n      0x08\n        /* \"SmartAuctionEthKipu.sol\":5856:5869  offers.length */\n      dup1\n      sload\n      swap1\n      pop\n        /* \"SmartAuctionEthKipu.sol\":5856:5873  offers.length - 1 */\n      tag_216\n      swap2\n      swap1\n      tag_217\n      jump\t// in\n    tag_216:\n        /* \"SmartAuctionEthKipu.sol\":5827:5841  lastOfferIndex */\n      0x0a\n        /* \"SmartAuctionEthKipu.sol\":5827:5853  lastOfferIndex[msg.sender] */\n      0x00\n        /* \"SmartAuctionEthKipu.sol\":5842:5852  msg.sender */\n      caller\n        /* \"SmartAuctionEthKipu.sol\":5827:5853  lastOfferIndex[msg.sender] */\n      0xffffffffffffffffffffffffffffffffffffffff\n      and\n      0xffffffffffffffffffffffffffffffffffffffff\n      and\n      dup2\n      mstore\n      0x20\n      add\n      swap1\n      dup2\n      mstore\n      0x20\n      add\n      0x00\n      keccak256\n        /* \"SmartAuctionEthKipu.sol\":5827:5873  lastOfferIndex[msg.sender] = offers.length - 1 */\n      dup2\n      swap1\n      sstore\n      pop\n        /* \"SmartAuctionEthKipu.sol\":5960:5971  newTotalBid */\n      dup2\n        /* \"SmartAuctionEthKipu.sol\":5947:5957  highestBid */\n      0x04\n        /* \"SmartAuctionEthKipu.sol\":5947:5971  highestBid = newTotalBid */\n      dup2\n      swap1\n      sstore\n      pop\n        /* \"SmartAuctionEthKipu.sol\":5998:6008  msg.sender */\n      caller\n        /* \"SmartAuctionEthKipu.sol\":5982:5995  highestBidder */\n      0x03\n      0x00\n        /* \"SmartAuctionEthKipu.sol\":5982:6008  highestBidder = msg.sender */\n      0x0100\n      exp\n      dup2\n      sload\n      dup2\n      0xffffffffffffffffffffffffffffffffffffffff\n      mul\n      not\n      and\n      swap1\n      dup4\n      0xffffffffffffffffffffffffffffffffffffffff\n      and\n      mul\n      or\n      swap1\n      sstore\n      pop\n        /* \"SmartAuctionEthKipu.sol\":1547:1550  600 */\n      0x0258\n        /* \"SmartAuctionEthKipu.sol\":6098:6113  block.timestamp */\n      timestamp\n        /* \"SmartAuctionEthKipu.sol\":6088:6095  endTime */\n      sload(0x06)\n        /* \"SmartAuctionEthKipu.sol\":6088:6113  endTime - block.timestamp */\n      tag_218\n      swap2\n      swap1\n      tag_217\n      jump\t// in\n    tag_218:\n        /* \"SmartAuctionEthKipu.sol\":6088:6133  endTime - block.timestamp <= EXTENSION_WINDOW */\n      gt\n        /* \"SmartAuctionEthKipu.sol\":6084:6204  if (endTime - block.timestamp <= EXTENSION_WINDOW) {... */\n      tag_219\n      jumpi\n        /* \"SmartAuctionEthKipu.sol\":1410:1413  600 */\n      0x0258\n        /* \"SmartAuctionEthKipu.sol\":6160:6175  block.timestamp */\n      timestamp\n        /* \"SmartAuctionEthKipu.sol\":6160:6192  block.timestamp + EXTENSION_TIME */\n      tag_220\n      swap2\n      swap1\n      tag_183\n      jump\t// in\n    tag_220:\n        /* \"SmartAuctionEthKipu.sol\":6150:6157  endTime */\n      0x06\n        /* \"SmartAuctionEthKipu.sol\":6150:6192  endTime = block.timestamp + EXTENSION_TIME */\n      dup2\n      swap1\n      sstore\n      pop\n        /* \"SmartAuctionEthKipu.sol\":6084:6204  if (endTime - block.timestamp <= EXTENSION_WINDOW) {... */\n    tag_219:\n        /* \"SmartAuctionEthKipu.sol\":6230:6240  msg.sender */\n      caller\n        /* \"SmartAuctionEthKipu.sol\":6221:6254  NewOffer(msg.sender, newTotalBid) */\n      0xffffffffffffffffffffffffffffffffffffffff\n      and\n      0x058d619527549e88853c641ebcec23205e5df61592e3908275721b5ad490113f\n        /* \"SmartAuctionEthKipu.sol\":6242:6253  newTotalBid */\n      dup4\n        /* \"SmartAuctionEthKipu.sol\":6221:6254  NewOffer(msg.sender, newTotalBid) */\n      mload(0x40)\n      tag_221\n      swap2\n      swap1\n      tag_66\n      jump\t// in\n    tag_221:\n      mload(0x40)\n      dup1\n      swap2\n      sub\n      swap1\n      log2\n        /* \"SmartAuctionEthKipu.sol\":5250:6262  {... */\n      pop\n      pop\n        /* \"@openzeppelin/contracts/utils/ReentrancyGuard.sol\":2542:2562  _nonReentrantAfter() */\n      tag_222\n        /* \"@openzeppelin/contracts/utils/ReentrancyGuard.sol\":2542:2560  _nonReentrantAfter */\n      tag_188\n        /* \"@openzeppelin/contracts/utils/ReentrancyGuard.sol\":2542:2562  _nonReentrantAfter() */\n      jump\t// in\n    tag_222:\n        /* \"SmartAuctionEthKipu.sol\":5175:6262  function bid() external payable onlyWhileActive nonReentrant whenNotPaused {... */\n      jump\t// out\n        /* \"SmartAuctionEthKipu.sol\":1088:1107  uint public endTime */\n    tag_64:\n      sload(0x06)\n      dup2\n      jump\t// out\n        /* \"SmartAuctionEthKipu.sol\":7675:8220  function partialWithdrawExcess() public onlyWhileActive nonReentrant {... */\n    tag_69:\n        /* \"SmartAuctionEthKipu.sol\":3193:3198  ended */\n      0x07\n      0x00\n      swap1\n      sload\n      swap1\n      0x0100\n      exp\n      swap1\n      div\n      0xff\n      and\n        /* \"SmartAuctionEthKipu.sol\":3192:3198  !ended */\n      iszero\n        /* \"SmartAuctionEthKipu.sol\":3192:3230  !ended && block.timestamp >= startTime */\n      dup1\n      iszero\n      tag_224\n      jumpi\n      pop\n        /* \"SmartAuctionEthKipu.sol\":3221:3230  startTime */\n      sload(0x05)\n        /* \"SmartAuctionEthKipu.sol\":3202:3217  block.timestamp */\n      timestamp\n        /* \"SmartAuctionEthKipu.sol\":3202:3230  block.timestamp >= startTime */\n      lt\n      iszero\n        /* \"SmartAuctionEthKipu.sol\":3192:3230  !ended && block.timestamp >= startTime */\n    tag_224:\n        /* \"SmartAuctionEthKipu.sol\":3192:3259  !ended && block.timestamp >= startTime && block.timestamp < endTime */\n      dup1\n      iszero\n      tag_225\n      jumpi\n      pop\n        /* \"SmartAuctionEthKipu.sol\":3252:3259  endTime */\n      sload(0x06)\n        /* \"SmartAuctionEthKipu.sol\":3234:3249  block.timestamp */\n      timestamp\n        /* \"SmartAuctionEthKipu.sol\":3234:3259  block.timestamp < endTime */\n      lt\n        /* \"SmartAuctionEthKipu.sol\":3192:3259  !ended && block.timestamp >= startTime && block.timestamp < endTime */\n    tag_225:\n        /* \"SmartAuctionEthKipu.sol\":3184:3285  require(!ended && block.timestamp >= startTime && block.timestamp < endTime, \"Auction is not active\") */\n      tag_226\n      jumpi\n      mload(0x40)\n      0x08c379a000000000000000000000000000000000000000000000000000000000\n      dup2\n      mstore\n      0x04\n      add\n      tag_227\n      swap1\n      tag_194\n      jump\t// in\n    tag_227:\n      mload(0x40)\n      dup1\n      swap2\n      sub\n      swap1\n      revert\n    tag_226:\n        /* \"@openzeppelin/contracts/utils/ReentrancyGuard.sol\":2500:2521  _nonReentrantBefore() */\n      tag_229\n        /* \"@openzeppelin/contracts/utils/ReentrancyGuard.sol\":2500:2519  _nonReentrantBefore */\n      tag_175\n        /* \"@openzeppelin/contracts/utils/ReentrancyGuard.sol\":2500:2521  _nonReentrantBefore() */\n      jump\t// in\n    tag_229:\n        /* \"SmartAuctionEthKipu.sol\":7777:7790  highestBidder */\n      0x03\n      0x00\n      swap1\n      sload\n      swap1\n      0x0100\n      exp\n      swap1\n      div\n      0xffffffffffffffffffffffffffffffffffffffff\n      and\n        /* \"SmartAuctionEthKipu.sol\":7763:7790  msg.sender != highestBidder */\n      0xffffffffffffffffffffffffffffffffffffffff\n      and\n        /* \"SmartAuctionEthKipu.sol\":7763:7773  msg.sender */\n      caller\n        /* \"SmartAuctionEthKipu.sol\":7763:7790  msg.sender != highestBidder */\n      0xffffffffffffffffffffffffffffffffffffffff\n      and\n      sub\n        /* \"SmartAuctionEthKipu.sol\":7755:7833  require(msg.sender != highestBidder, \"Current highest bidder cannot withdraw\") */\n      tag_231\n      jumpi\n      mload(0x40)\n      0x08c379a000000000000000000000000000000000000000000000000000000000\n      dup2\n      mstore\n      0x04\n      add\n      tag_232\n      swap1\n      tag_233\n      jump\t// in\n    tag_232:\n      mload(0x40)\n      dup1\n      swap2\n      sub\n      swap1\n      revert\n    tag_231:\n        /* \"SmartAuctionEthKipu.sol\":7854:7871  uint totalDeposit */\n      0x00\n        /* \"SmartAuctionEthKipu.sol\":7874:7882  deposits */\n      0x09\n        /* \"SmartAuctionEthKipu.sol\":7874:7894  deposits[msg.sender] */\n      0x00\n        /* \"SmartAuctionEthKipu.sol\":7883:7893  msg.sender */\n      caller\n        /* \"SmartAuctionEthKipu.sol\":7874:7894  deposits[msg.sender] */\n      0xffffffffffffffffffffffffffffffffffffffff\n      and\n      0xffffffffffffffffffffffffffffffffffffffff\n      and\n      dup2\n      mstore\n      0x20\n      add\n      swap1\n      dup2\n      mstore\n      0x20\n      add\n      0x00\n      keccak256\n      sload\n        /* \"SmartAuctionEthKipu.sol\":7854:7894  uint totalDeposit = deposits[msg.sender] */\n      swap1\n      pop\n        /* \"SmartAuctionEthKipu.sol\":7928:7929  0 */\n      0x00\n        /* \"SmartAuctionEthKipu.sol\":7913:7925  totalDeposit */\n      dup2\n        /* \"SmartAuctionEthKipu.sol\":7913:7929  totalDeposit > 0 */\n      gt\n        /* \"SmartAuctionEthKipu.sol\":7905:7961  require(totalDeposit > 0, \"No excess funds to withdraw\") */\n      tag_234\n      jumpi\n      mload(0x40)\n      0x08c379a000000000000000000000000000000000000000000000000000000000\n      dup2\n      mstore\n      0x04\n      add\n      tag_235\n      swap1\n      tag_236\n      jump\t// in\n    tag_235:\n      mload(0x40)\n      dup1\n      swap2\n      sub\n      swap1\n      revert\n    tag_234:\n        /* \"SmartAuctionEthKipu.sol\":8023:8024  0 */\n      0x00\n        /* \"SmartAuctionEthKipu.sol\":8000:8008  deposits */\n      0x09\n        /* \"SmartAuctionEthKipu.sol\":8000:8020  deposits[msg.sender] */\n      0x00\n        /* \"SmartAuctionEthKipu.sol\":8009:8019  msg.sender */\n      caller\n        /* \"SmartAuctionEthKipu.sol\":8000:8020  deposits[msg.sender] */\n      0xffffffffffffffffffffffffffffffffffffffff\n      and\n      0xffffffffffffffffffffffffffffffffffffffff\n      and\n      dup2\n      mstore\n      0x20\n      add\n      swap1\n      dup2\n      mstore\n      0x20\n      add\n      0x00\n      keccak256\n        /* \"SmartAuctionEthKipu.sol\":8000:8024  deposits[msg.sender] = 0 */\n      dup2\n      swap1\n      sstore\n      pop\n        /* \"SmartAuctionEthKipu.sol\":8102:8150  _safeTransfer(payable(msg.sender), totalDeposit) */\n      tag_237\n        /* \"SmartAuctionEthKipu.sol\":8124:8134  msg.sender */\n      caller\n        /* \"SmartAuctionEthKipu.sol\":8137:8149  totalDeposit */\n      dup3\n        /* \"SmartAuctionEthKipu.sol\":8102:8115  _safeTransfer */\n      tag_185\n        /* \"SmartAuctionEthKipu.sol\":8102:8150  _safeTransfer(payable(msg.sender), totalDeposit) */\n      jump\t// in\n    tag_237:\n        /* \"SmartAuctionEthKipu.sol\":8187:8197  msg.sender */\n      caller\n        /* \"SmartAuctionEthKipu.sol\":8176:8212  Withdrawal(msg.sender, totalDeposit) */\n      0xffffffffffffffffffffffffffffffffffffffff\n      and\n      0x7fcf532c15f0a6db0bd6d0e038bea71d30d808c7d98cb3bf7268a95bf5081b65\n        /* \"SmartAuctionEthKipu.sol\":8199:8211  totalDeposit */\n      dup3\n        /* \"SmartAuctionEthKipu.sol\":8176:8212  Withdrawal(msg.sender, totalDeposit) */\n      mload(0x40)\n      tag_238\n      swap2\n      swap1\n      tag_66\n      jump\t// in\n    tag_238:\n      mload(0x40)\n      dup1\n      swap2\n      sub\n      swap1\n      log2\n        /* \"SmartAuctionEthKipu.sol\":7744:8220  {... */\n      pop\n        /* \"@openzeppelin/contracts/utils/ReentrancyGuard.sol\":2542:2562  _nonReentrantAfter() */\n      tag_239\n        /* \"@openzeppelin/contracts/utils/ReentrancyGuard.sol\":2542:2560  _nonReentrantAfter */\n      tag_188\n        /* \"@openzeppelin/contracts/utils/ReentrancyGuard.sol\":2542:2562  _nonReentrantAfter() */\n      jump\t// in\n    tag_239:\n        /* \"SmartAuctionEthKipu.sol\":7675:8220  function partialWithdrawExcess() public onlyWhileActive nonReentrant {... */\n      jump\t// out\n        /* \"SmartAuctionEthKipu.sol\":9368:9435  function unpause() external onlyOwner {... */\n    tag_72:\n        /* \"@openzeppelin/contracts/access/Ownable.sol\":1531:1544  _checkOwner() */\n      tag_241\n        /* \"@openzeppelin/contracts/access/Ownable.sol\":1531:1542  _checkOwner */\n      tag_242\n        /* \"@openzeppelin/contracts/access/Ownable.sol\":1531:1544  _checkOwner() */\n      jump\t// in\n    tag_241:\n        /* \"SmartAuctionEthKipu.sol\":9417:9427  _unpause() */\n      tag_244\n        /* \"SmartAuctionEthKipu.sol\":9417:9425  _unpause */\n      tag_245\n        /* \"SmartAuctionEthKipu.sol\":9417:9427  _unpause() */\n      jump\t// in\n    tag_244:\n        /* \"SmartAuctionEthKipu.sol\":9368:9435  function unpause() external onlyOwner {... */\n      jump\t// out\n        /* \"SmartAuctionEthKipu.sol\":8837:9075  function withdrawFees() external onlySeller nonReentrant {... */\n    tag_75:\n        /* \"SmartAuctionEthKipu.sol\":3576:3582  seller */\n      0x02\n      0x00\n      swap1\n      sload\n      swap1\n      0x0100\n      exp\n      swap1\n      div\n      0xffffffffffffffffffffffffffffffffffffffff\n      and\n        /* \"SmartAuctionEthKipu.sol\":3562:3582  msg.sender == seller */\n      0xffffffffffffffffffffffffffffffffffffffff\n      and\n        /* \"SmartAuctionEthKipu.sol\":3562:3572  msg.sender */\n      caller\n        /* \"SmartAuctionEthKipu.sol\":3562:3582  msg.sender == seller */\n      0xffffffffffffffffffffffffffffffffffffffff\n      and\n      eq\n        /* \"SmartAuctionEthKipu.sol\":3554:3607  require(msg.sender == seller, \"Only seller can call\") */\n      tag_247\n      jumpi\n      mload(0x40)\n      0x08c379a000000000000000000000000000000000000000000000000000000000\n      dup2\n      mstore\n      0x04\n      add\n      tag_248\n      swap1\n      tag_249\n      jump\t// in\n    tag_248:\n      mload(0x40)\n      dup1\n      swap2\n      sub\n      swap1\n      revert\n    tag_247:\n        /* \"@openzeppelin/contracts/utils/ReentrancyGuard.sol\":2500:2521  _nonReentrantBefore() */\n      tag_251\n        /* \"@openzeppelin/contracts/utils/ReentrancyGuard.sol\":2500:2519  _nonReentrantBefore */\n      tag_175\n        /* \"@openzeppelin/contracts/utils/ReentrancyGuard.sol\":2500:2521  _nonReentrantBefore() */\n      jump\t// in\n    tag_251:\n        /* \"SmartAuctionEthKipu.sol\":8905:8914  uint fees */\n      0x00\n        /* \"SmartAuctionEthKipu.sol\":8917:8930  collectedFees */\n      sload(0x0b)\n        /* \"SmartAuctionEthKipu.sol\":8905:8930  uint fees = collectedFees */\n      swap1\n      pop\n        /* \"SmartAuctionEthKipu.sol\":8956:8957  0 */\n      0x00\n        /* \"SmartAuctionEthKipu.sol\":8949:8953  fees */\n      dup2\n        /* \"SmartAuctionEthKipu.sol\":8949:8957  fees > 0 */\n      gt\n        /* \"SmartAuctionEthKipu.sol\":8941:8981  require(fees > 0, \"No fees to withdraw\") */\n      tag_253\n      jumpi\n      mload(0x40)\n      0x08c379a000000000000000000000000000000000000000000000000000000000\n      dup2\n      mstore\n      0x04\n      add\n      tag_254\n      swap1\n      tag_255\n      jump\t// in\n    tag_254:\n      mload(0x40)\n      dup1\n      swap2\n      sub\n      swap1\n      revert\n    tag_253:\n        /* \"SmartAuctionEthKipu.sol\":9018:9019  0 */\n      0x00\n        /* \"SmartAuctionEthKipu.sol\":9002:9015  collectedFees */\n      0x0b\n        /* \"SmartAuctionEthKipu.sol\":9002:9019  collectedFees = 0 */\n      dup2\n      swap1\n      sstore\n      pop\n        /* \"SmartAuctionEthKipu.sol\":9040:9067  _safeTransfer(seller, fees) */\n      tag_256\n        /* \"SmartAuctionEthKipu.sol\":9054:9060  seller */\n      0x02\n      0x00\n      swap1\n      sload\n      swap1\n      0x0100\n      exp\n      swap1\n      div\n      0xffffffffffffffffffffffffffffffffffffffff\n      and\n        /* \"SmartAuctionEthKipu.sol\":9062:9066  fees */\n      dup3\n        /* \"SmartAuctionEthKipu.sol\":9040:9053  _safeTransfer */\n      tag_185\n        /* \"SmartAuctionEthKipu.sol\":9040:9067  _safeTransfer(seller, fees) */\n      jump\t// in\n    tag_256:\n        /* \"SmartAuctionEthKipu.sol\":8894:9075  {... */\n      pop\n        /* \"@openzeppelin/contracts/utils/ReentrancyGuard.sol\":2542:2562  _nonReentrantAfter() */\n      tag_257\n        /* \"@openzeppelin/contracts/utils/ReentrancyGuard.sol\":2542:2560  _nonReentrantAfter */\n      tag_188\n        /* \"@openzeppelin/contracts/utils/ReentrancyGuard.sol\":2542:2562  _nonReentrantAfter() */\n      jump\t// in\n    tag_257:\n        /* \"SmartAuctionEthKipu.sol\":8837:9075  function withdrawFees() external onlySeller nonReentrant {... */\n      jump\t// out\n        /* \"SmartAuctionEthKipu.sol\":1639:1682  uint public constant REFUND_FEE_PERCENT = 2 */\n    tag_78:\n        /* \"SmartAuctionEthKipu.sol\":1681:1682  2 */\n      0x02\n        /* \"SmartAuctionEthKipu.sol\":1639:1682  uint public constant REFUND_FEE_PERCENT = 2 */\n      dup2\n      jump\t// out\n        /* \"SmartAuctionEthKipu.sol\":6651:6742  function showOffers() public view returns (Offer[] memory) {... */\n    tag_82:\n        /* \"SmartAuctionEthKipu.sol\":6694:6708  Offer[] memory */\n      0x60\n        /* \"SmartAuctionEthKipu.sol\":6728:6734  offers */\n      0x08\n        /* \"SmartAuctionEthKipu.sol\":6721:6734  return offers */\n      dup1\n      sload\n      dup1\n      0x20\n      mul\n      0x20\n      add\n      mload(0x40)\n      swap1\n      dup2\n      add\n      0x40\n      mstore\n      dup1\n      swap3\n      swap2\n      swap1\n      dup2\n      dup2\n      mstore\n      0x20\n      add\n      0x00\n      swap1\n    tag_259:\n      dup3\n      dup3\n      lt\n      iszero\n      tag_260\n      jumpi\n      dup4\n      dup3\n      swap1\n      0x00\n      mstore\n      keccak256(0x00, 0x20)\n      swap1\n      0x03\n      mul\n      add\n      mload(0x40)\n      dup1\n      0x60\n      add\n      0x40\n      mstore\n      swap1\n      dup2\n      0x00\n      dup3\n      add\n      0x00\n      swap1\n      sload\n      swap1\n      0x0100\n      exp\n      swap1\n      div\n      0xffffffffffffffffffffffffffffffffffffffff\n      and\n      0xffffffffffffffffffffffffffffffffffffffff\n      and\n      0xffffffffffffffffffffffffffffffffffffffff\n      and\n      dup2\n      mstore\n      0x20\n      add\n      0x01\n      dup3\n      add\n      sload\n      dup2\n      mstore\n      0x20\n      add\n      0x02\n      dup3\n      add\n      sload\n      dup2\n      mstore\n      pop\n      pop\n      dup2\n      mstore\n      0x20\n      add\n      swap1\n      0x01\n      add\n      swap1\n      jump(tag_259)\n    tag_260:\n      pop\n      pop\n      pop\n      pop\n      swap1\n      pop\n        /* \"SmartAuctionEthKipu.sol\":6651:6742  function showOffers() public view returns (Offer[] memory) {... */\n      swap1\n      jump\t// out\n        /* \"SmartAuctionEthKipu.sol\":1372:1413  uint public constant EXTENSION_TIME = 600 */\n    tag_87:\n        /* \"SmartAuctionEthKipu.sol\":1410:1413  600 */\n      0x0258\n        /* \"SmartAuctionEthKipu.sol\":1372:1413  uint public constant EXTENSION_TIME = 600 */\n      dup2\n      jump\t// out\n        /* \"@openzeppelin/contracts/utils/Pausable.sol\":1726:1810  function paused() public view virtual returns (bool) {... */\n    tag_91:\n        /* \"@openzeppelin/contracts/utils/Pausable.sol\":1773:1777  bool */\n      0x00\n        /* \"@openzeppelin/contracts/utils/Pausable.sol\":1796:1803  _paused */\n      0x01\n      0x14\n      swap1\n      sload\n      swap1\n      0x0100\n      exp\n      swap1\n      div\n      0xff\n      and\n        /* \"@openzeppelin/contracts/utils/Pausable.sol\":1789:1803  return _paused */\n      swap1\n      pop\n        /* \"@openzeppelin/contracts/utils/Pausable.sol\":1726:1810  function paused() public view virtual returns (bool) {... */\n      swap1\n      jump\t// out\n        /* \"SmartAuctionEthKipu.sol\":1201:1249  uint public constant MIN_INCREMENT_PERCENT = 105 */\n    tag_95:\n        /* \"SmartAuctionEthKipu.sol\":1246:1249  105 */\n      0x69\n        /* \"SmartAuctionEthKipu.sol\":1201:1249  uint public constant MIN_INCREMENT_PERCENT = 105 */\n      dup2\n      jump\t// out\n        /* \"@openzeppelin/contracts/access/Ownable.sol\":2293:2394  function renounceOwnership() public virtual onlyOwner {... */\n    tag_99:\n        /* \"@openzeppelin/contracts/access/Ownable.sol\":1531:1544  _checkOwner() */\n      tag_264\n        /* \"@openzeppelin/contracts/access/Ownable.sol\":1531:1542  _checkOwner */\n      tag_242\n        /* \"@openzeppelin/contracts/access/Ownable.sol\":1531:1544  _checkOwner() */\n      jump\t// in\n    tag_264:\n        /* \"@openzeppelin/contracts/access/Ownable.sol\":2357:2387  _transferOwnership(address(0)) */\n      tag_266\n        /* \"@openzeppelin/contracts/access/Ownable.sol\":2384:2385  0 */\n      0x00\n        /* \"@openzeppelin/contracts/access/Ownable.sol\":2357:2375  _transferOwnership */\n      tag_267\n        /* \"@openzeppelin/contracts/access/Ownable.sol\":2357:2387  _transferOwnership(address(0)) */\n      jump\t// in\n    tag_266:\n        /* \"@openzeppelin/contracts/access/Ownable.sol\":2293:2394  function renounceOwnership() public virtual onlyOwner {... */\n      jump\t// out\n        /* \"SmartAuctionEthKipu.sol\":998:1019  uint public startTime */\n    tag_102:\n      sload(0x05)\n      dup2\n      jump\t// out\n        /* \"SmartAuctionEthKipu.sol\":1507:1550  uint public constant EXTENSION_WINDOW = 600 */\n    tag_106:\n        /* \"SmartAuctionEthKipu.sol\":1547:1550  600 */\n      0x0258\n        /* \"SmartAuctionEthKipu.sol\":1507:1550  uint public constant EXTENSION_WINDOW = 600 */\n      dup2\n      jump\t// out\n        /* \"SmartAuctionEthKipu.sol\":9240:9303  function pause() external onlyOwner {... */\n    tag_110:\n        /* \"@openzeppelin/contracts/access/Ownable.sol\":1531:1544  _checkOwner() */\n      tag_269\n        /* \"@openzeppelin/contracts/access/Ownable.sol\":1531:1542  _checkOwner */\n      tag_242\n        /* \"@openzeppelin/contracts/access/Ownable.sol\":1531:1544  _checkOwner() */\n      jump\t// in\n    tag_269:\n        /* \"SmartAuctionEthKipu.sol\":9287:9295  _pause() */\n      tag_271\n        /* \"SmartAuctionEthKipu.sol\":9287:9293  _pause */\n      tag_272\n        /* \"SmartAuctionEthKipu.sol\":9287:9295  _pause() */\n      jump\t// in\n    tag_271:\n        /* \"SmartAuctionEthKipu.sol\":9240:9303  function pause() external onlyOwner {... */\n      jump\t// out\n        /* \"SmartAuctionEthKipu.sol\":1898:1919  Offer[] public offers */\n    tag_115:\n      0x08\n      dup2\n      dup2\n      sload\n      dup2\n      lt\n      tag_273\n      jumpi\n      0x00\n      dup1\n      revert\n    tag_273:\n      swap1\n      0x00\n      mstore\n      keccak256(0x00, 0x20)\n      swap1\n      0x03\n      mul\n      add\n      0x00\n      swap2\n      pop\n      swap1\n      pop\n      dup1\n      0x00\n      add\n      0x00\n      swap1\n      sload\n      swap1\n      0x0100\n      exp\n      swap1\n      div\n      0xffffffffffffffffffffffffffffffffffffffff\n      and\n      swap1\n      dup1\n      0x01\n      add\n      sload\n      swap1\n      dup1\n      0x02\n      add\n      sload\n      swap1\n      pop\n      dup4\n      jump\t// out\n        /* \"@openzeppelin/contracts/access/Ownable.sol\":1638:1723  function owner() public view virtual returns (address) {... */\n    tag_120:\n        /* \"@openzeppelin/contracts/access/Ownable.sol\":1684:1691  address */\n      0x00\n        /* \"@openzeppelin/contracts/access/Ownable.sol\":1710:1716  _owner */\n      0x01\n      0x00\n      swap1\n      sload\n      swap1\n      0x0100\n      exp\n      swap1\n      div\n      0xffffffffffffffffffffffffffffffffffffffff\n      and\n        /* \"@openzeppelin/contracts/access/Ownable.sol\":1703:1716  return _owner */\n      swap1\n      pop\n        /* \"@openzeppelin/contracts/access/Ownable.sol\":1638:1723  function owner() public view virtual returns (address) {... */\n      swap1\n      jump\t// out\n        /* \"SmartAuctionEthKipu.sol\":10002:10112  function getLastOfferIndex() external view returns (uint) {... */\n    tag_125:\n        /* \"SmartAuctionEthKipu.sol\":10054:10058  uint */\n      0x00\n        /* \"SmartAuctionEthKipu.sol\":10078:10092  lastOfferIndex */\n      0x0a\n        /* \"SmartAuctionEthKipu.sol\":10078:10104  lastOfferIndex[msg.sender] */\n      0x00\n        /* \"SmartAuctionEthKipu.sol\":10093:10103  msg.sender */\n      caller\n        /* \"SmartAuctionEthKipu.sol\":10078:10104  lastOfferIndex[msg.sender] */\n      0xffffffffffffffffffffffffffffffffffffffff\n      and\n      0xffffffffffffffffffffffffffffffffffffffff\n      and\n      dup2\n      mstore\n      0x20\n      add\n      swap1\n      dup2\n      mstore\n      0x20\n      add\n      0x00\n      keccak256\n      sload\n        /* \"SmartAuctionEthKipu.sol\":10071:10104  return lastOfferIndex[msg.sender] */\n      swap1\n      pop\n        /* \"SmartAuctionEthKipu.sol\":10002:10112  function getLastOfferIndex() external view returns (uint) {... */\n      swap1\n      jump\t// out\n        /* \"SmartAuctionEthKipu.sol\":853:881  address public highestBidder */\n    tag_129:\n      0x03\n      0x00\n      swap1\n      sload\n      swap1\n      0x0100\n      exp\n      swap1\n      div\n      0xffffffffffffffffffffffffffffffffffffffff\n      and\n      dup2\n      jump\t// out\n        /* \"SmartAuctionEthKipu.sol\":6401:6538  function showWinner() public view onlyAfterEnd returns(address winner, uint amount) {... */\n    tag_133:\n        /* \"SmartAuctionEthKipu.sol\":6456:6470  address winner */\n      0x00\n        /* \"SmartAuctionEthKipu.sol\":6472:6483  uint amount */\n      0x00\n        /* \"SmartAuctionEthKipu.sol\":3417:3424  endTime */\n      sload(0x06)\n        /* \"SmartAuctionEthKipu.sol\":3398:3413  block.timestamp */\n      timestamp\n        /* \"SmartAuctionEthKipu.sol\":3398:3424  block.timestamp >= endTime */\n      lt\n      iszero\n        /* \"SmartAuctionEthKipu.sol\":3398:3433  block.timestamp >= endTime || ended */\n      dup1\n      tag_278\n      jumpi\n      pop\n        /* \"SmartAuctionEthKipu.sol\":3428:3433  ended */\n      0x07\n      0x00\n      swap1\n      sload\n      swap1\n      0x0100\n      exp\n      swap1\n      div\n      0xff\n      and\n        /* \"SmartAuctionEthKipu.sol\":3398:3433  block.timestamp >= endTime || ended */\n    tag_278:\n        /* \"SmartAuctionEthKipu.sol\":3390:3459  require(block.timestamp >= endTime || ended, \"Auction not yet ended\") */\n      tag_279\n      jumpi\n      mload(0x40)\n      0x08c379a000000000000000000000000000000000000000000000000000000000\n      dup2\n      mstore\n      0x04\n      add\n      tag_280\n      swap1\n      tag_168\n      jump\t// in\n    tag_280:\n      mload(0x40)\n      dup1\n      swap2\n      sub\n      swap1\n      revert\n    tag_279:\n        /* \"SmartAuctionEthKipu.sol\":6504:6517  highestBidder */\n      0x03\n      0x00\n      swap1\n      sload\n      swap1\n      0x0100\n      exp\n      swap1\n      div\n      0xffffffffffffffffffffffffffffffffffffffff\n      and\n        /* \"SmartAuctionEthKipu.sol\":6519:6529  highestBid */\n      sload(0x04)\n        /* \"SmartAuctionEthKipu.sol\":6496:6530  return (highestBidder, highestBid) */\n      swap2\n      pop\n      swap2\n      pop\n        /* \"SmartAuctionEthKipu.sol\":6401:6538  function showWinner() public view onlyAfterEnd returns(address winner, uint amount) {... */\n      swap1\n      swap2\n      jump\t// out\n        /* \"SmartAuctionEthKipu.sol\":6804:6890  function numOffers() public view returns(uint) {... */\n    tag_138:\n        /* \"SmartAuctionEthKipu.sol\":6845:6849  uint */\n      0x00\n        /* \"SmartAuctionEthKipu.sol\":6869:6875  offers */\n      0x08\n        /* \"SmartAuctionEthKipu.sol\":6869:6882  offers.length */\n      dup1\n      sload\n      swap1\n      pop\n        /* \"SmartAuctionEthKipu.sol\":6862:6882  return offers.length */\n      swap1\n      pop\n        /* \"SmartAuctionEthKipu.sol\":6804:6890  function numOffers() public view returns(uint) {... */\n      swap1\n      jump\t// out\n        /* \"SmartAuctionEthKipu.sol\":9834:9941  function getCollectedFees() external view onlySeller returns (uint) {... */\n    tag_142:\n        /* \"SmartAuctionEthKipu.sol\":9896:9900  uint */\n      0x00\n        /* \"SmartAuctionEthKipu.sol\":3576:3582  seller */\n      0x02\n      0x00\n      swap1\n      sload\n      swap1\n      0x0100\n      exp\n      swap1\n      div\n      0xffffffffffffffffffffffffffffffffffffffff\n      and\n        /* \"SmartAuctionEthKipu.sol\":3562:3582  msg.sender == seller */\n      0xffffffffffffffffffffffffffffffffffffffff\n      and\n        /* \"SmartAuctionEthKipu.sol\":3562:3572  msg.sender */\n      caller\n        /* \"SmartAuctionEthKipu.sol\":3562:3582  msg.sender == seller */\n      0xffffffffffffffffffffffffffffffffffffffff\n      and\n      eq\n        /* \"SmartAuctionEthKipu.sol\":3554:3607  require(msg.sender == seller, \"Only seller can call\") */\n      tag_284\n      jumpi\n      mload(0x40)\n      0x08c379a000000000000000000000000000000000000000000000000000000000\n      dup2\n      mstore\n      0x04\n      add\n      tag_285\n      swap1\n      tag_249\n      jump\t// in\n    tag_285:\n      mload(0x40)\n      dup1\n      swap2\n      sub\n      swap1\n      revert\n    tag_284:\n        /* \"SmartAuctionEthKipu.sol\":9920:9933  collectedFees */\n      sload(0x0b)\n        /* \"SmartAuctionEthKipu.sol\":9913:9933  return collectedFees */\n      swap1\n      pop\n        /* \"SmartAuctionEthKipu.sol\":9834:9941  function getCollectedFees() external view onlySeller returns (uint) {... */\n      swap1\n      jump\t// out\n        /* \"SmartAuctionEthKipu.sol\":926:948  uint public highestBid */\n    tag_146:\n      sload(0x04)\n      dup2\n      jump\t// out\n        /* \"SmartAuctionEthKipu.sol\":9495:9674  function emergencyEndAuction() external onlyOwner {... */\n    tag_150:\n        /* \"@openzeppelin/contracts/access/Ownable.sol\":1531:1544  _checkOwner() */\n      tag_288\n        /* \"@openzeppelin/contracts/access/Ownable.sol\":1531:1542  _checkOwner */\n      tag_242\n        /* \"@openzeppelin/contracts/access/Ownable.sol\":1531:1544  _checkOwner() */\n      jump\t// in\n    tag_288:\n        /* \"SmartAuctionEthKipu.sol\":9565:9570  ended */\n      0x07\n      0x00\n      swap1\n      sload\n      swap1\n      0x0100\n      exp\n      swap1\n      div\n      0xff\n      and\n        /* \"SmartAuctionEthKipu.sol\":9564:9570  !ended */\n      iszero\n        /* \"SmartAuctionEthKipu.sol\":9556:9588  require(!ended, \"Already ended\") */\n      tag_290\n      jumpi\n      mload(0x40)\n      0x08c379a000000000000000000000000000000000000000000000000000000000\n      dup2\n      mstore\n      0x04\n      add\n      tag_291\n      swap1\n      tag_292\n      jump\t// in\n    tag_291:\n      mload(0x40)\n      dup1\n      swap2\n      sub\n      swap1\n      revert\n    tag_290:\n        /* \"SmartAuctionEthKipu.sol\":9607:9611  true */\n      0x01\n        /* \"SmartAuctionEthKipu.sol\":9599:9604  ended */\n      0x07\n      0x00\n        /* \"SmartAuctionEthKipu.sol\":9599:9611  ended = true */\n      0x0100\n      exp\n      dup2\n      sload\n      dup2\n      0xff\n      mul\n      not\n      and\n      swap1\n      dup4\n      iszero\n      iszero\n      mul\n      or\n      swap1\n      sstore\n      pop\n        /* \"SmartAuctionEthKipu.sol\":9640:9653  highestBidder */\n      0x03\n      0x00\n      swap1\n      sload\n      swap1\n      0x0100\n      exp\n      swap1\n      div\n      0xffffffffffffffffffffffffffffffffffffffff\n      and\n        /* \"SmartAuctionEthKipu.sol\":9627:9666  AuctionEnded(highestBidder, highestBid) */\n      0xffffffffffffffffffffffffffffffffffffffff\n      and\n      0xdaec4582d5d9595688c8c98545fdd1c696d41c6aeaeb636737e84ed2f5c00eda\n        /* \"SmartAuctionEthKipu.sol\":9655:9665  highestBid */\n      sload(0x04)\n        /* \"SmartAuctionEthKipu.sol\":9627:9666  AuctionEnded(highestBidder, highestBid) */\n      mload(0x40)\n      tag_293\n      swap2\n      swap1\n      tag_66\n      jump\t// in\n    tag_293:\n      mload(0x40)\n      dup1\n      swap2\n      sub\n      swap1\n      log2\n        /* \"SmartAuctionEthKipu.sol\":9495:9674  function emergencyEndAuction() external onlyOwner {... */\n      jump\t// out\n        /* \"@openzeppelin/contracts/access/Ownable.sol\":2543:2758  function transferOwnership(address newOwner) public virtual onlyOwner {... */\n    tag_155:\n        /* \"@openzeppelin/contracts/access/Ownable.sol\":1531:1544  _checkOwner() */\n      tag_295\n        /* \"@openzeppelin/contracts/access/Ownable.sol\":1531:1542  _checkOwner */\n      tag_242\n        /* \"@openzeppelin/contracts/access/Ownable.sol\":1531:1544  _checkOwner() */\n      jump\t// in\n    tag_295:\n        /* \"@openzeppelin/contracts/access/Ownable.sol\":2647:2648  0 */\n      0x00\n        /* \"@openzeppelin/contracts/access/Ownable.sol\":2627:2649  newOwner == address(0) */\n      0xffffffffffffffffffffffffffffffffffffffff\n      and\n        /* \"@openzeppelin/contracts/access/Ownable.sol\":2627:2635  newOwner */\n      dup2\n        /* \"@openzeppelin/contracts/access/Ownable.sol\":2627:2649  newOwner == address(0) */\n      0xffffffffffffffffffffffffffffffffffffffff\n      and\n      sub\n        /* \"@openzeppelin/contracts/access/Ownable.sol\":2623:2714  if (newOwner == address(0)) {... */\n      tag_297\n      jumpi\n        /* \"@openzeppelin/contracts/access/Ownable.sol\":2700:2701  0 */\n      0x00\n        /* \"@openzeppelin/contracts/access/Ownable.sol\":2672:2703  OwnableInvalidOwner(address(0)) */\n      mload(0x40)\n      0x1e4fbdf700000000000000000000000000000000000000000000000000000000\n      dup2\n      mstore\n      0x04\n      add\n      tag_298\n      swap2\n      swap1\n      tag_122\n      jump\t// in\n    tag_298:\n      mload(0x40)\n      dup1\n      swap2\n      sub\n      swap1\n      revert\n        /* \"@openzeppelin/contracts/access/Ownable.sol\":2623:2714  if (newOwner == address(0)) {... */\n    tag_297:\n        /* \"@openzeppelin/contracts/access/Ownable.sol\":2723:2751  _transferOwnership(newOwner) */\n      tag_299\n        /* \"@openzeppelin/contracts/access/Ownable.sol\":2742:2750  newOwner */\n      dup2\n        /* \"@openzeppelin/contracts/access/Ownable.sol\":2723:2741  _transferOwnership */\n      tag_267\n        /* \"@openzeppelin/contracts/access/Ownable.sol\":2723:2751  _transferOwnership(newOwner) */\n      jump\t// in\n    tag_299:\n        /* \"@openzeppelin/contracts/access/Ownable.sol\":2543:2758  function transferOwnership(address newOwner) public virtual onlyOwner {... */\n      pop\n      jump\t// out\n        /* \"SmartAuctionEthKipu.sol\":2017:2057  mapping(address => uint) public deposits */\n    tag_159:\n      mstore(0x20, 0x09)\n      dup1\n      0x00\n      mstore\n      keccak256(0x00, 0x40)\n      0x00\n      swap2\n      pop\n      swap1\n      pop\n      sload\n      dup2\n      jump\t// out\n        /* \"SmartAuctionEthKipu.sol\":8316:8758  function endAuction() public onlyAfterEnd nonReentrant {... */\n    tag_163:\n        /* \"SmartAuctionEthKipu.sol\":3417:3424  endTime */\n      sload(0x06)\n        /* \"SmartAuctionEthKipu.sol\":3398:3413  block.timestamp */\n      timestamp\n        /* \"SmartAuctionEthKipu.sol\":3398:3424  block.timestamp >= endTime */\n      lt\n      iszero\n        /* \"SmartAuctionEthKipu.sol\":3398:3433  block.timestamp >= endTime || ended */\n      dup1\n      tag_301\n      jumpi\n      pop\n        /* \"SmartAuctionEthKipu.sol\":3428:3433  ended */\n      0x07\n      0x00\n      swap1\n      sload\n      swap1\n      0x0100\n      exp\n      swap1\n      div\n      0xff\n      and\n        /* \"SmartAuctionEthKipu.sol\":3398:3433  block.timestamp >= endTime || ended */\n    tag_301:\n        /* \"SmartAuctionEthKipu.sol\":3390:3459  require(block.timestamp >= endTime || ended, \"Auction not yet ended\") */\n      tag_302\n      jumpi\n      mload(0x40)\n      0x08c379a000000000000000000000000000000000000000000000000000000000\n      dup2\n      mstore\n      0x04\n      add\n      tag_303\n      swap1\n      tag_168\n      jump\t// in\n    tag_303:\n      mload(0x40)\n      dup1\n      swap2\n      sub\n      swap1\n      revert\n    tag_302:\n        /* \"@openzeppelin/contracts/utils/ReentrancyGuard.sol\":2500:2521  _nonReentrantBefore() */\n      tag_305\n        /* \"@openzeppelin/contracts/utils/ReentrancyGuard.sol\":2500:2519  _nonReentrantBefore */\n      tag_175\n        /* \"@openzeppelin/contracts/utils/ReentrancyGuard.sol\":2500:2521  _nonReentrantBefore() */\n      jump\t// in\n    tag_305:\n        /* \"SmartAuctionEthKipu.sol\":8391:8396  ended */\n      0x07\n      0x00\n      swap1\n      sload\n      swap1\n      0x0100\n      exp\n      swap1\n      div\n      0xff\n      and\n        /* \"SmartAuctionEthKipu.sol\":8390:8396  !ended */\n      iszero\n        /* \"SmartAuctionEthKipu.sol\":8382:8414  require(!ended, \"Already ended\") */\n      tag_307\n      jumpi\n      mload(0x40)\n      0x08c379a000000000000000000000000000000000000000000000000000000000\n      dup2\n      mstore\n      0x04\n      add\n      tag_308\n      swap1\n      tag_292\n      jump\t// in\n    tag_308:\n      mload(0x40)\n      dup1\n      swap2\n      sub\n      swap1\n      revert\n    tag_307:\n        /* \"SmartAuctionEthKipu.sol\":8433:8437  true */\n      0x01\n        /* \"SmartAuctionEthKipu.sol\":8425:8430  ended */\n      0x07\n      0x00\n        /* \"SmartAuctionEthKipu.sol\":8425:8437  ended = true */\n      0x0100\n      exp\n      dup2\n      sload\n      dup2\n      0xff\n      mul\n      not\n      and\n      swap1\n      dup4\n      iszero\n      iszero\n      mul\n      or\n      swap1\n      sstore\n      pop\n        /* \"SmartAuctionEthKipu.sol\":8466:8479  highestBidder */\n      0x03\n      0x00\n      swap1\n      sload\n      swap1\n      0x0100\n      exp\n      swap1\n      div\n      0xffffffffffffffffffffffffffffffffffffffff\n      and\n        /* \"SmartAuctionEthKipu.sol\":8453:8492  AuctionEnded(highestBidder, highestBid) */\n      0xffffffffffffffffffffffffffffffffffffffff\n      and\n      0xdaec4582d5d9595688c8c98545fdd1c696d41c6aeaeb636737e84ed2f5c00eda\n        /* \"SmartAuctionEthKipu.sol\":8481:8491  highestBid */\n      sload(0x04)\n        /* \"SmartAuctionEthKipu.sol\":8453:8492  AuctionEnded(highestBidder, highestBid) */\n      mload(0x40)\n      tag_309\n      swap2\n      swap1\n      tag_66\n      jump\t// in\n    tag_309:\n      mload(0x40)\n      dup1\n      swap2\n      sub\n      swap1\n      log2\n        /* \"SmartAuctionEthKipu.sol\":8570:8571  0 */\n      0x00\n        /* \"SmartAuctionEthKipu.sol\":8557:8567  highestBid */\n      sload(0x04)\n        /* \"SmartAuctionEthKipu.sol\":8557:8571  highestBid > 0 */\n      gt\n        /* \"SmartAuctionEthKipu.sol\":8553:8751  if (highestBid > 0) {... */\n      iszero\n      tag_310\n      jumpi\n        /* \"SmartAuctionEthKipu.sol\":8588:8606  uint winningAmount */\n      0x00\n        /* \"SmartAuctionEthKipu.sol\":8609:8617  deposits */\n      0x09\n        /* \"SmartAuctionEthKipu.sol\":8609:8632  deposits[highestBidder] */\n      0x00\n        /* \"SmartAuctionEthKipu.sol\":8618:8631  highestBidder */\n      0x03\n      0x00\n      swap1\n      sload\n      swap1\n      0x0100\n      exp\n      swap1\n      div\n      0xffffffffffffffffffffffffffffffffffffffff\n      and\n        /* \"SmartAuctionEthKipu.sol\":8609:8632  deposits[highestBidder] */\n      0xffffffffffffffffffffffffffffffffffffffff\n      and\n      0xffffffffffffffffffffffffffffffffffffffff\n      and\n      dup2\n      mstore\n      0x20\n      add\n      swap1\n      dup2\n      mstore\n      0x20\n      add\n      0x00\n      keccak256\n      sload\n        /* \"SmartAuctionEthKipu.sol\":8588:8632  uint winningAmount = deposits[highestBidder] */\n      swap1\n      pop\n        /* \"SmartAuctionEthKipu.sol\":8673:8674  0 */\n      0x00\n        /* \"SmartAuctionEthKipu.sol\":8647:8655  deposits */\n      0x09\n        /* \"SmartAuctionEthKipu.sol\":8647:8670  deposits[highestBidder] */\n      0x00\n        /* \"SmartAuctionEthKipu.sol\":8656:8669  highestBidder */\n      0x03\n      0x00\n      swap1\n      sload\n      swap1\n      0x0100\n      exp\n      swap1\n      div\n      0xffffffffffffffffffffffffffffffffffffffff\n      and\n        /* \"SmartAuctionEthKipu.sol\":8647:8670  deposits[highestBidder] */\n      0xffffffffffffffffffffffffffffffffffffffff\n      and\n      0xffffffffffffffffffffffffffffffffffffffff\n      and\n      dup2\n      mstore\n      0x20\n      add\n      swap1\n      dup2\n      mstore\n      0x20\n      add\n      0x00\n      keccak256\n        /* \"SmartAuctionEthKipu.sol\":8647:8674  deposits[highestBidder] = 0 */\n      dup2\n      swap1\n      sstore\n      pop\n        /* \"SmartAuctionEthKipu.sol\":8703:8739  _safeTransfer(seller, winningAmount) */\n      tag_311\n        /* \"SmartAuctionEthKipu.sol\":8717:8723  seller */\n      0x02\n      0x00\n      swap1\n      sload\n      swap1\n      0x0100\n      exp\n      swap1\n      div\n      0xffffffffffffffffffffffffffffffffffffffff\n      and\n        /* \"SmartAuctionEthKipu.sol\":8725:8738  winningAmount */\n      dup3\n        /* \"SmartAuctionEthKipu.sol\":8703:8716  _safeTransfer */\n      tag_185\n        /* \"SmartAuctionEthKipu.sol\":8703:8739  _safeTransfer(seller, winningAmount) */\n      jump\t// in\n    tag_311:\n        /* \"SmartAuctionEthKipu.sol\":8573:8751  {... */\n      pop\n        /* \"SmartAuctionEthKipu.sol\":8553:8751  if (highestBid > 0) {... */\n    tag_310:\n        /* \"@openzeppelin/contracts/utils/ReentrancyGuard.sol\":2542:2562  _nonReentrantAfter() */\n      tag_312\n        /* \"@openzeppelin/contracts/utils/ReentrancyGuard.sol\":2542:2560  _nonReentrantAfter */\n      tag_188\n        /* \"@openzeppelin/contracts/utils/ReentrancyGuard.sol\":2542:2562  _nonReentrantAfter() */\n      jump\t// in\n    tag_312:\n        /* \"SmartAuctionEthKipu.sol\":8316:8758  function endAuction() public onlyAfterEnd nonReentrant {... */\n      jump\t// out\n        /* \"@openzeppelin/contracts/utils/ReentrancyGuard.sol\":2575:2882  function _nonReentrantBefore() private {... */\n    tag_175:\n        /* \"@openzeppelin/contracts/utils/ReentrancyGuard.sol\":1899:1900  2 */\n      0x02\n        /* \"@openzeppelin/contracts/utils/ReentrancyGuard.sol\":2702:2709  _status */\n      sload(0x00)\n        /* \"@openzeppelin/contracts/utils/ReentrancyGuard.sol\":2702:2720  _status == ENTERED */\n      sub\n        /* \"@openzeppelin/contracts/utils/ReentrancyGuard.sol\":2698:2784  if (_status == ENTERED) {... */\n      tag_314\n      jumpi\n        /* \"@openzeppelin/contracts/utils/ReentrancyGuard.sol\":2743:2773  ReentrancyGuardReentrantCall() */\n      mload(0x40)\n      0x3ee5aeb500000000000000000000000000000000000000000000000000000000\n      dup2\n      mstore\n      0x04\n      add\n      mload(0x40)\n      dup1\n      swap2\n      sub\n      swap1\n      revert\n        /* \"@openzeppelin/contracts/utils/ReentrancyGuard.sol\":2698:2784  if (_status == ENTERED) {... */\n    tag_314:\n        /* \"@openzeppelin/contracts/utils/ReentrancyGuard.sol\":1899:1900  2 */\n      0x02\n        /* \"@openzeppelin/contracts/utils/ReentrancyGuard.sol\":2858:2865  _status */\n      0x00\n        /* \"@openzeppelin/contracts/utils/ReentrancyGuard.sol\":2858:2875  _status = ENTERED */\n      dup2\n      swap1\n      sstore\n      pop\n        /* \"@openzeppelin/contracts/utils/ReentrancyGuard.sol\":2575:2882  function _nonReentrantBefore() private {... */\n      jump\t// out\n        /* \"SmartAuctionEthKipu.sol\":4149:4322  function _calculateFee(uint amount) private pure returns (uint fee, uint refund) {... */\n    tag_181:\n        /* \"SmartAuctionEthKipu.sol\":4207:4215  uint fee */\n      0x00\n        /* \"SmartAuctionEthKipu.sol\":4217:4228  uint refund */\n      0x00\n        /* \"SmartAuctionEthKipu.sol\":4279:4282  100 */\n      0x64\n        /* \"SmartAuctionEthKipu.sol\":1681:1682  2 */\n      0x02\n        /* \"SmartAuctionEthKipu.sol\":4248:4254  amount */\n      dup5\n        /* \"SmartAuctionEthKipu.sol\":4248:4275  amount * REFUND_FEE_PERCENT */\n      tag_316\n      swap2\n      swap1\n      tag_207\n      jump\t// in\n    tag_316:\n        /* \"SmartAuctionEthKipu.sol\":4247:4282  (amount * REFUND_FEE_PERCENT) / 100 */\n      tag_317\n      swap2\n      swap1\n      tag_209\n      jump\t// in\n    tag_317:\n        /* \"SmartAuctionEthKipu.sol\":4241:4282  fee = (amount * REFUND_FEE_PERCENT) / 100 */\n      swap2\n      pop\n        /* \"SmartAuctionEthKipu.sol\":4311:4314  fee */\n      dup2\n        /* \"SmartAuctionEthKipu.sol\":4302:4308  amount */\n      dup4\n        /* \"SmartAuctionEthKipu.sol\":4302:4314  amount - fee */\n      tag_318\n      swap2\n      swap1\n      tag_217\n      jump\t// in\n    tag_318:\n        /* \"SmartAuctionEthKipu.sol\":4293:4314  refund = amount - fee */\n      swap1\n      pop\n        /* \"SmartAuctionEthKipu.sol\":4149:4322  function _calculateFee(uint amount) private pure returns (uint fee, uint refund) {... */\n      swap2\n      pop\n      swap2\n      jump\t// out\n        /* \"SmartAuctionEthKipu.sol\":3988:4091  function _safeTransfer(address payable to, uint amount) private {... */\n    tag_185:\n        /* \"SmartAuctionEthKipu.sol\":4063:4083  to.sendValue(amount) */\n      tag_320\n        /* \"SmartAuctionEthKipu.sol\":4076:4082  amount */\n      dup2\n        /* \"SmartAuctionEthKipu.sol\":4063:4065  to */\n      dup4\n        /* \"SmartAuctionEthKipu.sol\":4063:4075  to.sendValue */\n      0xffffffffffffffffffffffffffffffffffffffff\n      and\n      tag_321\n      swap1\n        /* \"SmartAuctionEthKipu.sol\":4063:4083  to.sendValue(amount) */\n      swap2\n      swap1\n      0xffffffff\n      and\n      jump\t// in\n    tag_320:\n        /* \"SmartAuctionEthKipu.sol\":3988:4091  function _safeTransfer(address payable to, uint amount) private {... */\n      pop\n      pop\n      jump\t// out\n        /* \"@openzeppelin/contracts/utils/ReentrancyGuard.sol\":2888:3096  function _nonReentrantAfter() private {... */\n    tag_188:\n        /* \"@openzeppelin/contracts/utils/ReentrancyGuard.sol\":1857:1858  1 */\n      0x01\n        /* \"@openzeppelin/contracts/utils/ReentrancyGuard.sol\":3068:3075  _status */\n      0x00\n        /* \"@openzeppelin/contracts/utils/ReentrancyGuard.sol\":3068:3089  _status = NOT_ENTERED */\n      dup2\n      swap1\n      sstore\n      pop\n        /* \"@openzeppelin/contracts/utils/ReentrancyGuard.sol\":2888:3096  function _nonReentrantAfter() private {... */\n      jump\t// out\n        /* \"@openzeppelin/contracts/utils/Pausable.sol\":1878:2006  function _requireNotPaused() internal view virtual {... */\n    tag_199:\n        /* \"@openzeppelin/contracts/utils/Pausable.sol\":1943:1951  paused() */\n      tag_324\n        /* \"@openzeppelin/contracts/utils/Pausable.sol\":1943:1949  paused */\n      tag_91\n        /* \"@openzeppelin/contracts/utils/Pausable.sol\":1943:1951  paused() */\n      jump\t// in\n    tag_324:\n        /* \"@openzeppelin/contracts/utils/Pausable.sol\":1939:2000  if (paused()) {... */\n      iszero\n      tag_325\n      jumpi\n        /* \"@openzeppelin/contracts/utils/Pausable.sol\":1974:1989  EnforcedPause() */\n      mload(0x40)\n      0xd93c066500000000000000000000000000000000000000000000000000000000\n      dup2\n      mstore\n      0x04\n      add\n      mload(0x40)\n      dup1\n      swap2\n      sub\n      swap1\n      revert\n        /* \"@openzeppelin/contracts/utils/Pausable.sol\":1939:2000  if (paused()) {... */\n    tag_325:\n        /* \"@openzeppelin/contracts/utils/Pausable.sol\":1878:2006  function _requireNotPaused() internal view virtual {... */\n      jump\t// out\n        /* \"@openzeppelin/contracts/access/Ownable.sol\":1796:1958  function _checkOwner() internal view virtual {... */\n    tag_242:\n        /* \"@openzeppelin/contracts/access/Ownable.sol\":1866:1878  _msgSender() */\n      tag_327\n        /* \"@openzeppelin/contracts/access/Ownable.sol\":1866:1876  _msgSender */\n      tag_328\n        /* \"@openzeppelin/contracts/access/Ownable.sol\":1866:1878  _msgSender() */\n      jump\t// in\n    tag_327:\n        /* \"@openzeppelin/contracts/access/Ownable.sol\":1855:1878  owner() != _msgSender() */\n      0xffffffffffffffffffffffffffffffffffffffff\n      and\n        /* \"@openzeppelin/contracts/access/Ownable.sol\":1855:1862  owner() */\n      tag_329\n        /* \"@openzeppelin/contracts/access/Ownable.sol\":1855:1860  owner */\n      tag_120\n        /* \"@openzeppelin/contracts/access/Ownable.sol\":1855:1862  owner() */\n      jump\t// in\n    tag_329:\n        /* \"@openzeppelin/contracts/access/Ownable.sol\":1855:1878  owner() != _msgSender() */\n      0xffffffffffffffffffffffffffffffffffffffff\n      and\n      eq\n        /* \"@openzeppelin/contracts/access/Ownable.sol\":1851:1952  if (owner() != _msgSender()) {... */\n      tag_330\n      jumpi\n        /* \"@openzeppelin/contracts/access/Ownable.sol\":1928:1940  _msgSender() */\n      tag_331\n        /* \"@openzeppelin/contracts/access/Ownable.sol\":1928:1938  _msgSender */\n      tag_328\n        /* \"@openzeppelin/contracts/access/Ownable.sol\":1928:1940  _msgSender() */\n      jump\t// in\n    tag_331:\n        /* \"@openzeppelin/contracts/access/Ownable.sol\":1901:1941  OwnableUnauthorizedAccount(_msgSender()) */\n      mload(0x40)\n      0x118cdaa700000000000000000000000000000000000000000000000000000000\n      dup2\n      mstore\n      0x04\n      add\n      tag_332\n      swap2\n      swap1\n      tag_122\n      jump\t// in\n    tag_332:\n      mload(0x40)\n      dup1\n      swap2\n      sub\n      swap1\n      revert\n        /* \"@openzeppelin/contracts/access/Ownable.sol\":1851:1952  if (owner() != _msgSender()) {... */\n    tag_330:\n        /* \"@openzeppelin/contracts/access/Ownable.sol\":1796:1958  function _checkOwner() internal view virtual {... */\n      jump\t// out\n        /* \"@openzeppelin/contracts/utils/Pausable.sol\":2586:2703  function _unpause() internal virtual whenPaused {... */\n    tag_245:\n        /* \"@openzeppelin/contracts/utils/Pausable.sol\":1597:1613  _requirePaused() */\n      tag_334\n        /* \"@openzeppelin/contracts/utils/Pausable.sol\":1597:1611  _requirePaused */\n      tag_335\n        /* \"@openzeppelin/contracts/utils/Pausable.sol\":1597:1613  _requirePaused() */\n      jump\t// in\n    tag_334:\n        /* \"@openzeppelin/contracts/utils/Pausable.sol\":2654:2659  false */\n      0x00\n        /* \"@openzeppelin/contracts/utils/Pausable.sol\":2644:2651  _paused */\n      0x01\n      0x14\n        /* \"@openzeppelin/contracts/utils/Pausable.sol\":2644:2659  _paused = false */\n      0x0100\n      exp\n      dup2\n      sload\n      dup2\n      0xff\n      mul\n      not\n      and\n      swap1\n      dup4\n      iszero\n      iszero\n      mul\n      or\n      swap1\n      sstore\n      pop\n        /* \"@openzeppelin/contracts/utils/Pausable.sol\":2674:2696  Unpaused(_msgSender()) */\n      0x5db9ee0a495bf2e6ff9c91a7834c1ba4fdd244a5e8aa4e537bd38aeae4b073aa\n        /* \"@openzeppelin/contracts/utils/Pausable.sol\":2683:2695  _msgSender() */\n      tag_337\n        /* \"@openzeppelin/contracts/utils/Pausable.sol\":2683:2693  _msgSender */\n      tag_328\n        /* \"@openzeppelin/contracts/utils/Pausable.sol\":2683:2695  _msgSender() */\n      jump\t// in\n    tag_337:\n        /* \"@openzeppelin/contracts/utils/Pausable.sol\":2674:2696  Unpaused(_msgSender()) */\n      mload(0x40)\n      tag_338\n      swap2\n      swap1\n      tag_122\n      jump\t// in\n    tag_338:\n      mload(0x40)\n      dup1\n      swap2\n      sub\n      swap1\n      log1\n        /* \"@openzeppelin/contracts/utils/Pausable.sol\":2586:2703  function _unpause() internal virtual whenPaused {... */\n      jump\t// out\n        /* \"@openzeppelin/contracts/access/Ownable.sol\":2912:3099  function _transferOwnership(address newOwner) internal virtual {... */\n    tag_267:\n        /* \"@openzeppelin/contracts/access/Ownable.sol\":2985:3001  address oldOwner */\n      0x00\n        /* \"@openzeppelin/contracts/access/Ownable.sol\":3004:3010  _owner */\n      0x01\n      0x00\n      swap1\n      sload\n      swap1\n      0x0100\n      exp\n      swap1\n      div\n      0xffffffffffffffffffffffffffffffffffffffff\n      and\n        /* \"@openzeppelin/contracts/access/Ownable.sol\":2985:3010  address oldOwner = _owner */\n      swap1\n      pop\n        /* \"@openzeppelin/contracts/access/Ownable.sol\":3029:3037  newOwner */\n      dup2\n        /* \"@openzeppelin/contracts/access/Ownable.sol\":3020:3026  _owner */\n      0x01\n      0x00\n        /* \"@openzeppelin/contracts/access/Ownable.sol\":3020:3037  _owner = newOwner */\n      0x0100\n      exp\n      dup2\n      sload\n      dup2\n      0xffffffffffffffffffffffffffffffffffffffff\n      mul\n      not\n      and\n      swap1\n      dup4\n      0xffffffffffffffffffffffffffffffffffffffff\n      and\n      mul\n      or\n      swap1\n      sstore\n      pop\n        /* \"@openzeppelin/contracts/access/Ownable.sol\":3083:3091  newOwner */\n      dup2\n        /* \"@openzeppelin/contracts/access/Ownable.sol\":3052:3092  OwnershipTransferred(oldOwner, newOwner) */\n      0xffffffffffffffffffffffffffffffffffffffff\n      and\n        /* \"@openzeppelin/contracts/access/Ownable.sol\":3073:3081  oldOwner */\n      dup2\n        /* \"@openzeppelin/contracts/access/Ownable.sol\":3052:3092  OwnershipTransferred(oldOwner, newOwner) */\n      0xffffffffffffffffffffffffffffffffffffffff\n      and\n      0x8be0079c531659141344cd1fd0a4f28419497f9722a3daafe3b4186f6b6457e0\n      mload(0x40)\n      mload(0x40)\n      dup1\n      swap2\n      sub\n      swap1\n      log3\n        /* \"@openzeppelin/contracts/access/Ownable.sol\":2975:3099  {... */\n      pop\n        /* \"@openzeppelin/contracts/access/Ownable.sol\":2912:3099  function _transferOwnership(address newOwner) internal virtual {... */\n      pop\n      jump\t// out\n        /* \"@openzeppelin/contracts/utils/Pausable.sol\":2339:2454  function _pause() internal virtual whenNotPaused {... */\n    tag_272:\n        /* \"@openzeppelin/contracts/utils/Pausable.sol\":1350:1369  _requireNotPaused() */\n      tag_341\n        /* \"@openzeppelin/contracts/utils/Pausable.sol\":1350:1367  _requireNotPaused */\n      tag_199\n        /* \"@openzeppelin/contracts/utils/Pausable.sol\":1350:1369  _requireNotPaused() */\n      jump\t// in\n    tag_341:\n        /* \"@openzeppelin/contracts/utils/Pausable.sol\":2408:2412  true */\n      0x01\n        /* \"@openzeppelin/contracts/utils/Pausable.sol\":2398:2405  _paused */\n      dup1\n      0x14\n        /* \"@openzeppelin/contracts/utils/Pausable.sol\":2398:2412  _paused = true */\n      0x0100\n      exp\n      dup2\n      sload\n      dup2\n      0xff\n      mul\n      not\n      and\n      swap1\n      dup4\n      iszero\n      iszero\n      mul\n      or\n      swap1\n      sstore\n      pop\n        /* \"@openzeppelin/contracts/utils/Pausable.sol\":2427:2447  Paused(_msgSender()) */\n      0x62e78cea01bee320cd4e420270b5ea74000d11b0c9f74754ebdbfc544b05a258\n        /* \"@openzeppelin/contracts/utils/Pausable.sol\":2434:2446  _msgSender() */\n      tag_343\n        /* \"@openzeppelin/contracts/utils/Pausable.sol\":2434:2444  _msgSender */\n      tag_328\n        /* \"@openzeppelin/contracts/utils/Pausable.sol\":2434:2446  _msgSender() */\n      jump\t// in\n    tag_343:\n        /* \"@openzeppelin/contracts/utils/Pausable.sol\":2427:2447  Paused(_msgSender()) */\n      mload(0x40)\n      tag_344\n      swap2\n      swap1\n      tag_122\n      jump\t// in\n    tag_344:\n      mload(0x40)\n      dup1\n      swap2\n      sub\n      swap1\n      log1\n        /* \"@openzeppelin/contracts/utils/Pausable.sol\":2339:2454  function _pause() internal virtual whenNotPaused {... */\n      jump\t// out\n        /* \"@openzeppelin/contracts/utils/Address.sol\":1290:1655  function sendValue(address payable recipient, uint256 amount) internal {... */\n    tag_321:\n        /* \"@openzeppelin/contracts/utils/Address.sol\":1399:1405  amount */\n      dup1\n        /* \"@openzeppelin/contracts/utils/Address.sol\":1375:1396  address(this).balance */\n      selfbalance\n        /* \"@openzeppelin/contracts/utils/Address.sol\":1375:1405  address(this).balance < amount */\n      lt\n        /* \"@openzeppelin/contracts/utils/Address.sol\":1371:1496  if (address(this).balance < amount) {... */\n      iszero\n      tag_346\n      jumpi\n        /* \"@openzeppelin/contracts/utils/Address.sol\":1455:1476  address(this).balance */\n      selfbalance\n        /* \"@openzeppelin/contracts/utils/Address.sol\":1478:1484  amount */\n      dup2\n        /* \"@openzeppelin/contracts/utils/Address.sol\":1428:1485  Errors.InsufficientBalance(address(this).balance, amount) */\n      mload(0x40)\n      0xcf47918100000000000000000000000000000000000000000000000000000000\n      dup2\n      mstore\n      0x04\n      add\n      tag_347\n      swap3\n      swap2\n      swap1\n      tag_348\n      jump\t// in\n    tag_347:\n      mload(0x40)\n      dup1\n      swap2\n      sub\n      swap1\n      revert\n        /* \"@openzeppelin/contracts/utils/Address.sol\":1371:1496  if (address(this).balance < amount) {... */\n    tag_346:\n        /* \"@openzeppelin/contracts/utils/Address.sol\":1507:1519  bool success */\n      0x00\n        /* \"@openzeppelin/contracts/utils/Address.sol\":1521:1544  bytes memory returndata */\n      0x00\n        /* \"@openzeppelin/contracts/utils/Address.sol\":1548:1557  recipient */\n      dup4\n        /* \"@openzeppelin/contracts/utils/Address.sol\":1548:1562  recipient.call */\n      0xffffffffffffffffffffffffffffffffffffffff\n      and\n        /* \"@openzeppelin/contracts/utils/Address.sol\":1570:1576  amount */\n      dup4\n        /* \"@openzeppelin/contracts/utils/Address.sol\":1548:1581  recipient.call{value: amount}(\"\") */\n      mload(0x40)\n      tag_349\n      swap1\n      tag_350\n      jump\t// in\n    tag_349:\n      0x00\n      mload(0x40)\n      dup1\n      dup4\n      sub\n      dup2\n      dup6\n      dup8\n      gas\n      call\n      swap3\n      pop\n      pop\n      pop\n      returndatasize\n      dup1\n      0x00\n      dup2\n      eq\n      tag_353\n      jumpi\n      mload(0x40)\n      swap2\n      pop\n      and(add(returndatasize, 0x3f), not(0x1f))\n      dup3\n      add\n      0x40\n      mstore\n      returndatasize\n      dup3\n      mstore\n      returndatasize\n      0x00\n      0x20\n      dup5\n      add\n      returndatacopy\n      jump(tag_352)\n    tag_353:\n      0x60\n      swap2\n      pop\n    tag_352:\n      pop\n        /* \"@openzeppelin/contracts/utils/Address.sol\":1506:1581  (bool success, bytes memory returndata) = recipient.call{value: amount}(\"\") */\n      swap2\n      pop\n      swap2\n      pop\n        /* \"@openzeppelin/contracts/utils/Address.sol\":1596:1603  success */\n      dup2\n        /* \"@openzeppelin/contracts/utils/Address.sol\":1591:1649  if (!success) {... */\n      tag_354\n      jumpi\n        /* \"@openzeppelin/contracts/utils/Address.sol\":1619:1638  _revert(returndata) */\n      tag_355\n        /* \"@openzeppelin/contracts/utils/Address.sol\":1627:1637  returndata */\n      dup2\n        /* \"@openzeppelin/contracts/utils/Address.sol\":1619:1626  _revert */\n      tag_356\n        /* \"@openzeppelin/contracts/utils/Address.sol\":1619:1638  _revert(returndata) */\n      jump\t// in\n    tag_355:\n        /* \"@openzeppelin/contracts/utils/Address.sol\":1591:1649  if (!success) {... */\n    tag_354:\n        /* \"@openzeppelin/contracts/utils/Address.sol\":1361:1655  {... */\n      pop\n      pop\n        /* \"@openzeppelin/contracts/utils/Address.sol\":1290:1655  function sendValue(address payable recipient, uint256 amount) internal {... */\n      pop\n      pop\n      jump\t// out\n        /* \"@openzeppelin/contracts/utils/Context.sol\":656:752  function _msgSender() internal view virtual returns (address) {... */\n    tag_328:\n        /* \"@openzeppelin/contracts/utils/Context.sol\":709:716  address */\n      0x00\n        /* \"@openzeppelin/contracts/utils/Context.sol\":735:745  msg.sender */\n      caller\n        /* \"@openzeppelin/contracts/utils/Context.sol\":728:745  return msg.sender */\n      swap1\n      pop\n        /* \"@openzeppelin/contracts/utils/Context.sol\":656:752  function _msgSender() internal view virtual returns (address) {... */\n      swap1\n      jump\t// out\n        /* \"@openzeppelin/contracts/utils/Pausable.sol\":2078:2204  function _requirePaused() internal view virtual {... */\n    tag_335:\n        /* \"@openzeppelin/contracts/utils/Pausable.sol\":2141:2149  paused() */\n      tag_359\n        /* \"@openzeppelin/contracts/utils/Pausable.sol\":2141:2147  paused */\n      tag_91\n        /* \"@openzeppelin/contracts/utils/Pausable.sol\":2141:2149  paused() */\n      jump\t// in\n    tag_359:\n        /* \"@openzeppelin/contracts/utils/Pausable.sol\":2136:2198  if (!paused()) {... */\n      tag_360\n      jumpi\n        /* \"@openzeppelin/contracts/utils/Pausable.sol\":2172:2187  ExpectedPause() */\n      mload(0x40)\n      0x8dfc202b00000000000000000000000000000000000000000000000000000000\n      dup2\n      mstore\n      0x04\n      add\n      mload(0x40)\n      dup1\n      swap2\n      sub\n      swap1\n      revert\n        /* \"@openzeppelin/contracts/utils/Pausable.sol\":2136:2198  if (!paused()) {... */\n    tag_360:\n        /* \"@openzeppelin/contracts/utils/Pausable.sol\":2078:2204  function _requirePaused() internal view virtual {... */\n      jump\t// out\n        /* \"@openzeppelin/contracts/utils/Address.sol\":5559:6046  function _revert(bytes memory returndata) private pure {... */\n    tag_356:\n        /* \"@openzeppelin/contracts/utils/Address.sol\":5710:5711  0 */\n      0x00\n        /* \"@openzeppelin/contracts/utils/Address.sol\":5690:5700  returndata */\n      dup2\n        /* \"@openzeppelin/contracts/utils/Address.sol\":5690:5707  returndata.length */\n      mload\n        /* \"@openzeppelin/contracts/utils/Address.sol\":5690:5711  returndata.length > 0 */\n      gt\n        /* \"@openzeppelin/contracts/utils/Address.sol\":5686:6040  if (returndata.length > 0) {... */\n      iszero\n      tag_362\n      jumpi\n        /* \"@openzeppelin/contracts/utils/Address.sol\":5887:5897  returndata */\n      dup1\n        /* \"@openzeppelin/contracts/utils/Address.sol\":5881:5898  mload(returndata) */\n      mload\n        /* \"@openzeppelin/contracts/utils/Address.sol\":5943:5958  returndata_size */\n      dup1\n        /* \"@openzeppelin/contracts/utils/Address.sol\":5930:5940  returndata */\n      dup3\n        /* \"@openzeppelin/contracts/utils/Address.sol\":5926:5928  32 */\n      0x20\n        /* \"@openzeppelin/contracts/utils/Address.sol\":5922:5941  add(32, returndata) */\n      add\n        /* \"@openzeppelin/contracts/utils/Address.sol\":5915:5959  revert(add(32, returndata), returndata_size) */\n      revert\n        /* \"@openzeppelin/contracts/utils/Address.sol\":5686:6040  if (returndata.length > 0) {... */\n    tag_362:\n        /* \"@openzeppelin/contracts/utils/Address.sol\":6010:6029  Errors.FailedCall() */\n      mload(0x40)\n      0xd6bda27500000000000000000000000000000000000000000000000000000000\n      dup2\n      mstore\n      0x04\n      add\n      mload(0x40)\n      dup1\n      swap2\n      sub\n      swap1\n      revert\n        /* \"#utility.yul\":7:176   */\n    tag_364:\n        /* \"#utility.yul\":91:102   */\n      0x00\n        /* \"#utility.yul\":125:131   */\n      dup3\n        /* \"#utility.yul\":120:123   */\n      dup3\n        /* \"#utility.yul\":113:132   */\n      mstore\n        /* \"#utility.yul\":165:169   */\n      0x20\n        /* \"#utility.yul\":160:163   */\n      dup3\n        /* \"#utility.yul\":156:170   */\n      add\n        /* \"#utility.yul\":141:170   */\n      swap1\n      pop\n        /* \"#utility.yul\":7:176   */\n      swap3\n      swap2\n      pop\n      pop\n      jump\t// out\n        /* \"#utility.yul\":182:414   */\n    tag_365:\n        /* \"#utility.yul\":322:356   */\n      0x506c6561736520757365207468652062696428292066756e6374696f6e20746f\n        /* \"#utility.yul\":318:319   */\n      0x00\n        /* \"#utility.yul\":310:316   */\n      dup3\n        /* \"#utility.yul\":306:320   */\n      add\n        /* \"#utility.yul\":299:357   */\n      mstore\n        /* \"#utility.yul\":391:406   */\n      0x2070617274696369706174652e00000000000000000000000000000000000000\n        /* \"#utility.yul\":386:388   */\n      0x20\n        /* \"#utility.yul\":378:384   */\n      dup3\n        /* \"#utility.yul\":374:389   */\n      add\n        /* \"#utility.yul\":367:407   */\n      mstore\n        /* \"#utility.yul\":182:414   */\n      pop\n      jump\t// out\n        /* \"#utility.yul\":420:786   */\n    tag_366:\n        /* \"#utility.yul\":562:565   */\n      0x00\n        /* \"#utility.yul\":583:650   */\n      tag_425\n        /* \"#utility.yul\":647:649   */\n      0x2d\n        /* \"#utility.yul\":642:645   */\n      dup4\n        /* \"#utility.yul\":583:650   */\n      tag_364\n      jump\t// in\n    tag_425:\n        /* \"#utility.yul\":576:650   */\n      swap2\n      pop\n        /* \"#utility.yul\":659:752   */\n      tag_426\n        /* \"#utility.yul\":748:751   */\n      dup3\n        /* \"#utility.yul\":659:752   */\n      tag_365\n      jump\t// in\n    tag_426:\n        /* \"#utility.yul\":777:779   */\n      0x40\n        /* \"#utility.yul\":772:775   */\n      dup3\n        /* \"#utility.yul\":768:780   */\n      add\n        /* \"#utility.yul\":761:780   */\n      swap1\n      pop\n        /* \"#utility.yul\":420:786   */\n      swap2\n      swap1\n      pop\n      jump\t// out\n        /* \"#utility.yul\":792:1211   */\n    tag_42:\n        /* \"#utility.yul\":958:962   */\n      0x00\n        /* \"#utility.yul\":996:998   */\n      0x20\n        /* \"#utility.yul\":985:994   */\n      dup3\n        /* \"#utility.yul\":981:999   */\n      add\n        /* \"#utility.yul\":973:999   */\n      swap1\n      pop\n        /* \"#utility.yul\":1045:1054   */\n      dup2\n        /* \"#utility.yul\":1039:1043   */\n      dup2\n        /* \"#utility.yul\":1035:1055   */\n      sub\n        /* \"#utility.yul\":1031:1032   */\n      0x00\n        /* \"#utility.yul\":1020:1029   */\n      dup4\n        /* \"#utility.yul\":1016:1033   */\n      add\n        /* \"#utility.yul\":1009:1056   */\n      mstore\n        /* \"#utility.yul\":1073:1204   */\n      tag_428\n        /* \"#utility.yul\":1199:1203   */\n      dup2\n        /* \"#utility.yul\":1073:1204   */\n      tag_366\n      jump\t// in\n    tag_428:\n        /* \"#utility.yul\":1065:1204   */\n      swap1\n      pop\n        /* \"#utility.yul\":792:1211   */\n      swap2\n      swap1\n      pop\n      jump\t// out\n        /* \"#utility.yul\":1217:1443   */\n    tag_367:\n        /* \"#utility.yul\":1357:1391   */\n      0x496e76616c69642063616c6c2e205573652074686520636f7272656374206675\n        /* \"#utility.yul\":1353:1354   */\n      0x00\n        /* \"#utility.yul\":1345:1351   */\n      dup3\n        /* \"#utility.yul\":1341:1355   */\n      add\n        /* \"#utility.yul\":1334:1392   */\n      mstore\n        /* \"#utility.yul\":1426:1435   */\n      0x6e6374696f6e2e00000000000000000000000000000000000000000000000000\n        /* \"#utility.yul\":1421:1423   */\n      0x20\n        /* \"#utility.yul\":1413:1419   */\n      dup3\n        /* \"#utility.yul\":1409:1424   */\n      add\n        /* \"#utility.yul\":1402:1436   */\n      mstore\n        /* \"#utility.yul\":1217:1443   */\n      pop\n      jump\t// out\n        /* \"#utility.yul\":1449:1815   */\n    tag_368:\n        /* \"#utility.yul\":1591:1594   */\n      0x00\n        /* \"#utility.yul\":1612:1679   */\n      tag_431\n        /* \"#utility.yul\":1676:1678   */\n      0x27\n        /* \"#utility.yul\":1671:1674   */\n      dup4\n        /* \"#utility.yul\":1612:1679   */\n      tag_364\n      jump\t// in\n    tag_431:\n        /* \"#utility.yul\":1605:1679   */\n      swap2\n      pop\n        /* \"#utility.yul\":1688:1781   */\n      tag_432\n        /* \"#utility.yul\":1777:1780   */\n      dup3\n        /* \"#utility.yul\":1688:1781   */\n      tag_367\n      jump\t// in\n    tag_432:\n        /* \"#utility.yul\":1806:1808   */\n      0x40\n        /* \"#utility.yul\":1801:1804   */\n      dup3\n        /* \"#utility.yul\":1797:1809   */\n      add\n        /* \"#utility.yul\":1790:1809   */\n      swap1\n      pop\n        /* \"#utility.yul\":1449:1815   */\n      swap2\n      swap1\n      pop\n      jump\t// out\n        /* \"#utility.yul\":1821:2240   */\n    tag_46:\n        /* \"#utility.yul\":1987:1991   */\n      0x00\n        /* \"#utility.yul\":2025:2027   */\n      0x20\n        /* \"#utility.yul\":2014:2023   */\n      dup3\n        /* \"#utility.yul\":2010:2028   */\n      add\n        /* \"#utility.yul\":2002:2028   */\n      swap1\n      pop\n        /* \"#utility.yul\":2074:2083   */\n      dup2\n        /* \"#utility.yul\":2068:2072   */\n      dup2\n        /* \"#utility.yul\":2064:2084   */\n      sub\n        /* \"#utility.yul\":2060:2061   */\n      0x00\n        /* \"#utility.yul\":2049:2058   */\n      dup4\n        /* \"#utility.yul\":2045:2062   */\n      add\n        /* \"#utility.yul\":2038:2085   */\n      mstore\n        /* \"#utility.yul\":2102:2233   */\n      tag_434\n        /* \"#utility.yul\":2228:2232   */\n      dup2\n        /* \"#utility.yul\":2102:2233   */\n      tag_368\n      jump\t// in\n    tag_434:\n        /* \"#utility.yul\":2094:2233   */\n      swap1\n      pop\n        /* \"#utility.yul\":1821:2240   */\n      swap2\n      swap1\n      pop\n      jump\t// out\n        /* \"#utility.yul\":2246:2372   */\n    tag_369:\n        /* \"#utility.yul\":2283:2290   */\n      0x00\n        /* \"#utility.yul\":2323:2365   */\n      0xffffffffffffffffffffffffffffffffffffffff\n        /* \"#utility.yul\":2316:2321   */\n      dup3\n        /* \"#utility.yul\":2312:2366   */\n      and\n        /* \"#utility.yul\":2301:2366   */\n      swap1\n      pop\n        /* \"#utility.yul\":2246:2372   */\n      swap2\n      swap1\n      pop\n      jump\t// out\n        /* \"#utility.yul\":2378:2482   */\n    tag_370:\n        /* \"#utility.yul\":2423:2430   */\n      0x00\n        /* \"#utility.yul\":2452:2476   */\n      tag_437\n        /* \"#utility.yul\":2470:2475   */\n      dup3\n        /* \"#utility.yul\":2452:2476   */\n      tag_369\n      jump\t// in\n    tag_437:\n        /* \"#utility.yul\":2441:2476   */\n      swap1\n      pop\n        /* \"#utility.yul\":2378:2482   */\n      swap2\n      swap1\n      pop\n      jump\t// out\n        /* \"#utility.yul\":2488:2630   */\n    tag_371:\n        /* \"#utility.yul\":2591:2623   */\n      tag_439\n        /* \"#utility.yul\":2617:2622   */\n      dup2\n        /* \"#utility.yul\":2591:2623   */\n      tag_370\n      jump\t// in\n    tag_439:\n        /* \"#utility.yul\":2586:2589   */\n      dup3\n        /* \"#utility.yul\":2579:2624   */\n      mstore\n        /* \"#utility.yul\":2488:2630   */\n      pop\n      pop\n      jump\t// out\n        /* \"#utility.yul\":2636:2890   */\n    tag_51:\n        /* \"#utility.yul\":2745:2749   */\n      0x00\n        /* \"#utility.yul\":2783:2785   */\n      0x20\n        /* \"#utility.yul\":2772:2781   */\n      dup3\n        /* \"#utility.yul\":2768:2786   */\n      add\n        /* \"#utility.yul\":2760:2786   */\n      swap1\n      pop\n        /* \"#utility.yul\":2796:2883   */\n      tag_441\n        /* \"#utility.yul\":2880:2881   */\n      0x00\n        /* \"#utility.yul\":2869:2878   */\n      dup4\n        /* \"#utility.yul\":2865:2882   */\n      add\n        /* \"#utility.yul\":2856:2862   */\n      dup5\n        /* \"#utility.yul\":2796:2883   */\n      tag_371\n      jump\t// in\n    tag_441:\n        /* \"#utility.yul\":2636:2890   */\n      swap3\n      swap2\n      pop\n      pop\n      jump\t// out\n        /* \"#utility.yul\":2896:2986   */\n    tag_372:\n        /* \"#utility.yul\":2930:2937   */\n      0x00\n        /* \"#utility.yul\":2973:2978   */\n      dup2\n        /* \"#utility.yul\":2966:2979   */\n      iszero\n        /* \"#utility.yul\":2959:2980   */\n      iszero\n        /* \"#utility.yul\":2948:2980   */\n      swap1\n      pop\n        /* \"#utility.yul\":2896:2986   */\n      swap2\n      swap1\n      pop\n      jump\t// out\n        /* \"#utility.yul\":2992:3101   */\n    tag_373:\n        /* \"#utility.yul\":3073:3094   */\n      tag_444\n        /* \"#utility.yul\":3088:3093   */\n      dup2\n        /* \"#utility.yul\":3073:3094   */\n      tag_372\n      jump\t// in\n    tag_444:\n        /* \"#utility.yul\":3068:3071   */\n      dup3\n        /* \"#utility.yul\":3061:3095   */\n      mstore\n        /* \"#utility.yul\":2992:3101   */\n      pop\n      pop\n      jump\t// out\n        /* \"#utility.yul\":3107:3317   */\n    tag_59:\n        /* \"#utility.yul\":3194:3198   */\n      0x00\n        /* \"#utility.yul\":3232:3234   */\n      0x20\n        /* \"#utility.yul\":3221:3230   */\n      dup3\n        /* \"#utility.yul\":3217:3235   */\n      add\n        /* \"#utility.yul\":3209:3235   */\n      swap1\n      pop\n        /* \"#utility.yul\":3245:3310   */\n      tag_446\n        /* \"#utility.yul\":3307:3308   */\n      0x00\n        /* \"#utility.yul\":3296:3305   */\n      dup4\n        /* \"#utility.yul\":3292:3309   */\n      add\n        /* \"#utility.yul\":3283:3289   */\n      dup5\n        /* \"#utility.yul\":3245:3310   */\n      tag_373\n      jump\t// in\n    tag_446:\n        /* \"#utility.yul\":3107:3317   */\n      swap3\n      swap2\n      pop\n      pop\n      jump\t// out\n        /* \"#utility.yul\":3323:3400   */\n    tag_374:\n        /* \"#utility.yul\":3360:3367   */\n      0x00\n        /* \"#utility.yul\":3389:3394   */\n      dup2\n        /* \"#utility.yul\":3378:3394   */\n      swap1\n      pop\n        /* \"#utility.yul\":3323:3400   */\n      swap2\n      swap1\n      pop\n      jump\t// out\n        /* \"#utility.yul\":3406:3524   */\n    tag_375:\n        /* \"#utility.yul\":3493:3517   */\n      tag_449\n        /* \"#utility.yul\":3511:3516   */\n      dup2\n        /* \"#utility.yul\":3493:3517   */\n      tag_374\n      jump\t// in\n    tag_449:\n        /* \"#utility.yul\":3488:3491   */\n      dup3\n        /* \"#utility.yul\":3481:3518   */\n      mstore\n        /* \"#utility.yul\":3406:3524   */\n      pop\n      pop\n      jump\t// out\n        /* \"#utility.yul\":3530:3752   */\n    tag_66:\n        /* \"#utility.yul\":3623:3627   */\n      0x00\n        /* \"#utility.yul\":3661:3663   */\n      0x20\n        /* \"#utility.yul\":3650:3659   */\n      dup3\n        /* \"#utility.yul\":3646:3664   */\n      add\n        /* \"#utility.yul\":3638:3664   */\n      swap1\n      pop\n        /* \"#utility.yul\":3674:3745   */\n      tag_451\n        /* \"#utility.yul\":3742:3743   */\n      0x00\n        /* \"#utility.yul\":3731:3740   */\n      dup4\n        /* \"#utility.yul\":3727:3744   */\n      add\n        /* \"#utility.yul\":3718:3724   */\n      dup5\n        /* \"#utility.yul\":3674:3745   */\n      tag_375\n      jump\t// in\n    tag_451:\n        /* \"#utility.yul\":3530:3752   */\n      swap3\n      swap2\n      pop\n      pop\n      jump\t// out\n        /* \"#utility.yul\":3758:3894   */\n    tag_376:\n        /* \"#utility.yul\":3847:3853   */\n      0x00\n        /* \"#utility.yul\":3881:3886   */\n      dup2\n        /* \"#utility.yul\":3875:3887   */\n      mload\n        /* \"#utility.yul\":3865:3887   */\n      swap1\n      pop\n        /* \"#utility.yul\":3758:3894   */\n      swap2\n      swap1\n      pop\n      jump\t// out\n        /* \"#utility.yul\":3900:4106   */\n    tag_377:\n        /* \"#utility.yul\":4021:4032   */\n      0x00\n        /* \"#utility.yul\":4055:4061   */\n      dup3\n        /* \"#utility.yul\":4050:4053   */\n      dup3\n        /* \"#utility.yul\":4043:4062   */\n      mstore\n        /* \"#utility.yul\":4095:4099   */\n      0x20\n        /* \"#utility.yul\":4090:4093   */\n      dup3\n        /* \"#utility.yul\":4086:4100   */\n      add\n        /* \"#utility.yul\":4071:4100   */\n      swap1\n      pop\n        /* \"#utility.yul\":3900:4106   */\n      swap3\n      swap2\n      pop\n      pop\n      jump\t// out\n        /* \"#utility.yul\":4112:4266   */\n    tag_378:\n        /* \"#utility.yul\":4201:4205   */\n      0x00\n        /* \"#utility.yul\":4224:4227   */\n      dup2\n        /* \"#utility.yul\":4216:4227   */\n      swap1\n      pop\n        /* \"#utility.yul\":4254:4258   */\n      0x20\n        /* \"#utility.yul\":4249:4252   */\n      dup3\n        /* \"#utility.yul\":4245:4259   */\n      add\n        /* \"#utility.yul\":4237:4259   */\n      swap1\n      pop\n        /* \"#utility.yul\":4112:4266   */\n      swap2\n      swap1\n      pop\n      jump\t// out\n        /* \"#utility.yul\":4272:4368   */\n    tag_379:\n        /* \"#utility.yul\":4309:4316   */\n      0x00\n        /* \"#utility.yul\":4338:4362   */\n      tag_456\n        /* \"#utility.yul\":4356:4361   */\n      dup3\n        /* \"#utility.yul\":4338:4362   */\n      tag_369\n      jump\t// in\n    tag_456:\n        /* \"#utility.yul\":4327:4362   */\n      swap1\n      pop\n        /* \"#utility.yul\":4272:4368   */\n      swap2\n      swap1\n      pop\n      jump\t// out\n        /* \"#utility.yul\":4374:4482   */\n    tag_380:\n        /* \"#utility.yul\":4451:4475   */\n      tag_458\n        /* \"#utility.yul\":4469:4474   */\n      dup2\n        /* \"#utility.yul\":4451:4475   */\n      tag_379\n      jump\t// in\n    tag_458:\n        /* \"#utility.yul\":4446:4449   */\n      dup3\n        /* \"#utility.yul\":4439:4476   */\n      mstore\n        /* \"#utility.yul\":4374:4482   */\n      pop\n      pop\n      jump\t// out\n        /* \"#utility.yul\":4488:4596   */\n    tag_381:\n        /* \"#utility.yul\":4565:4589   */\n      tag_460\n        /* \"#utility.yul\":4583:4588   */\n      dup2\n        /* \"#utility.yul\":4565:4589   */\n      tag_374\n      jump\t// in\n    tag_460:\n        /* \"#utility.yul\":4560:4563   */\n      dup3\n        /* \"#utility.yul\":4553:4590   */\n      mstore\n        /* \"#utility.yul\":4488:4596   */\n      pop\n      pop\n      jump\t// out\n        /* \"#utility.yul\":4678:5352   */\n    tag_382:\n        /* \"#utility.yul\":4809:4813   */\n      0x60\n        /* \"#utility.yul\":4804:4807   */\n      dup3\n        /* \"#utility.yul\":4800:4814   */\n      add\n        /* \"#utility.yul\":4898:4902   */\n      0x00\n        /* \"#utility.yul\":4891:4896   */\n      dup3\n        /* \"#utility.yul\":4887:4903   */\n      add\n        /* \"#utility.yul\":4881:4904   */\n      mload\n        /* \"#utility.yul\":4917:4980   */\n      tag_462\n        /* \"#utility.yul\":4974:4978   */\n      0x00\n        /* \"#utility.yul\":4969:4972   */\n      dup6\n        /* \"#utility.yul\":4965:4979   */\n      add\n        /* \"#utility.yul\":4951:4963   */\n      dup3\n        /* \"#utility.yul\":4917:4980   */\n      tag_380\n      jump\t// in\n    tag_462:\n        /* \"#utility.yul\":4824:4990   */\n      pop\n        /* \"#utility.yul\":5074:5078   */\n      0x20\n        /* \"#utility.yul\":5067:5072   */\n      dup3\n        /* \"#utility.yul\":5063:5079   */\n      add\n        /* \"#utility.yul\":5057:5080   */\n      mload\n        /* \"#utility.yul\":5093:5156   */\n      tag_463\n        /* \"#utility.yul\":5150:5154   */\n      0x20\n        /* \"#utility.yul\":5145:5148   */\n      dup6\n        /* \"#utility.yul\":5141:5155   */\n      add\n        /* \"#utility.yul\":5127:5139   */\n      dup3\n        /* \"#utility.yul\":5093:5156   */\n      tag_381\n      jump\t// in\n    tag_463:\n        /* \"#utility.yul\":5000:5166   */\n      pop\n        /* \"#utility.yul\":5253:5257   */\n      0x40\n        /* \"#utility.yul\":5246:5251   */\n      dup3\n        /* \"#utility.yul\":5242:5258   */\n      add\n        /* \"#utility.yul\":5236:5259   */\n      mload\n        /* \"#utility.yul\":5272:5335   */\n      tag_464\n        /* \"#utility.yul\":5329:5333   */\n      0x40\n        /* \"#utility.yul\":5324:5327   */\n      dup6\n        /* \"#utility.yul\":5320:5334   */\n      add\n        /* \"#utility.yul\":5306:5318   */\n      dup3\n        /* \"#utility.yul\":5272:5335   */\n      tag_381\n      jump\t// in\n    tag_464:\n        /* \"#utility.yul\":5176:5345   */\n      pop\n        /* \"#utility.yul\":4778:5352   */\n      pop\n        /* \"#utility.yul\":4678:5352   */\n      pop\n      pop\n      jump\t// out\n        /* \"#utility.yul\":5358:5625   */\n    tag_383:\n        /* \"#utility.yul\":5471:5481   */\n      0x00\n        /* \"#utility.yul\":5492:5582   */\n      tag_466\n        /* \"#utility.yul\":5578:5581   */\n      dup4\n        /* \"#utility.yul\":5570:5576   */\n      dup4\n        /* \"#utility.yul\":5492:5582   */\n      tag_382\n      jump\t// in\n    tag_466:\n        /* \"#utility.yul\":5614:5618   */\n      0x60\n        /* \"#utility.yul\":5609:5612   */\n      dup4\n        /* \"#utility.yul\":5605:5619   */\n      add\n        /* \"#utility.yul\":5591:5619   */\n      swap1\n      pop\n        /* \"#utility.yul\":5358:5625   */\n      swap3\n      swap2\n      pop\n      pop\n      jump\t// out\n        /* \"#utility.yul\":5631:5766   */\n    tag_384:\n        /* \"#utility.yul\":5723:5727   */\n      0x00\n        /* \"#utility.yul\":5755:5759   */\n      0x20\n        /* \"#utility.yul\":5750:5753   */\n      dup3\n        /* \"#utility.yul\":5746:5760   */\n      add\n        /* \"#utility.yul\":5738:5760   */\n      swap1\n      pop\n        /* \"#utility.yul\":5631:5766   */\n      swap2\n      swap1\n      pop\n      jump\t// out\n        /* \"#utility.yul\":5852:6760   */\n    tag_385:\n        /* \"#utility.yul\":6015:6018   */\n      0x00\n        /* \"#utility.yul\":6044:6120   */\n      tag_469\n        /* \"#utility.yul\":6114:6119   */\n      dup3\n        /* \"#utility.yul\":6044:6120   */\n      tag_376\n      jump\t// in\n    tag_469:\n        /* \"#utility.yul\":6136:6244   */\n      tag_470\n        /* \"#utility.yul\":6237:6243   */\n      dup2\n        /* \"#utility.yul\":6232:6235   */\n      dup6\n        /* \"#utility.yul\":6136:6244   */\n      tag_377\n      jump\t// in\n    tag_470:\n        /* \"#utility.yul\":6129:6244   */\n      swap4\n      pop\n        /* \"#utility.yul\":6268:6346   */\n      tag_471\n        /* \"#utility.yul\":6340:6345   */\n      dup4\n        /* \"#utility.yul\":6268:6346   */\n      tag_378\n      jump\t// in\n    tag_471:\n        /* \"#utility.yul\":6369:6376   */\n      dup1\n        /* \"#utility.yul\":6400:6401   */\n      0x00\n        /* \"#utility.yul\":6385:6735   */\n    tag_472:\n        /* \"#utility.yul\":6410:6416   */\n      dup4\n        /* \"#utility.yul\":6407:6408   */\n      dup2\n        /* \"#utility.yul\":6404:6417   */\n      lt\n        /* \"#utility.yul\":6385:6735   */\n      iszero\n      tag_474\n      jumpi\n        /* \"#utility.yul\":6486:6492   */\n      dup2\n        /* \"#utility.yul\":6480:6493   */\n      mload\n        /* \"#utility.yul\":6513:6620   */\n      tag_475\n        /* \"#utility.yul\":6616:6619   */\n      dup9\n        /* \"#utility.yul\":6601:6614   */\n      dup3\n        /* \"#utility.yul\":6513:6620   */\n      tag_383\n      jump\t// in\n    tag_475:\n        /* \"#utility.yul\":6506:6620   */\n      swap8\n      pop\n        /* \"#utility.yul\":6643:6725   */\n      tag_476\n        /* \"#utility.yul\":6718:6724   */\n      dup4\n        /* \"#utility.yul\":6643:6725   */\n      tag_384\n      jump\t// in\n    tag_476:\n        /* \"#utility.yul\":6633:6725   */\n      swap3\n      pop\n        /* \"#utility.yul\":6445:6735   */\n      pop\n        /* \"#utility.yul\":6432:6433   */\n      0x01\n        /* \"#utility.yul\":6429:6430   */\n      dup2\n        /* \"#utility.yul\":6425:6434   */\n      add\n        /* \"#utility.yul\":6420:6434   */\n      swap1\n      pop\n        /* \"#utility.yul\":6385:6735   */\n      jump(tag_472)\n    tag_474:\n        /* \"#utility.yul\":6389:6403   */\n      pop\n        /* \"#utility.yul\":6751:6754   */\n      dup6\n        /* \"#utility.yul\":6744:6754   */\n      swap4\n      pop\n        /* \"#utility.yul\":6020:6760   */\n      pop\n      pop\n      pop\n        /* \"#utility.yul\":5852:6760   */\n      swap3\n      swap2\n      pop\n      pop\n      jump\t// out\n        /* \"#utility.yul\":6766:7227   */\n    tag_84:\n        /* \"#utility.yul\":6953:6957   */\n      0x00\n        /* \"#utility.yul\":6991:6993   */\n      0x20\n        /* \"#utility.yul\":6980:6989   */\n      dup3\n        /* \"#utility.yul\":6976:6994   */\n      add\n        /* \"#utility.yul\":6968:6994   */\n      swap1\n      pop\n        /* \"#utility.yul\":7040:7049   */\n      dup2\n        /* \"#utility.yul\":7034:7038   */\n      dup2\n        /* \"#utility.yul\":7030:7050   */\n      sub\n        /* \"#utility.yul\":7026:7027   */\n      0x00\n        /* \"#utility.yul\":7015:7024   */\n      dup4\n        /* \"#utility.yul\":7011:7028   */\n      add\n        /* \"#utility.yul\":7004:7051   */\n      mstore\n        /* \"#utility.yul\":7068:7220   */\n      tag_478\n        /* \"#utility.yul\":7215:7219   */\n      dup2\n        /* \"#utility.yul\":7206:7212   */\n      dup5\n        /* \"#utility.yul\":7068:7220   */\n      tag_385\n      jump\t// in\n    tag_478:\n        /* \"#utility.yul\":7060:7220   */\n      swap1\n      pop\n        /* \"#utility.yul\":6766:7227   */\n      swap3\n      swap2\n      pop\n      pop\n      jump\t// out\n        /* \"#utility.yul\":7314:7431   */\n    tag_387:\n        /* \"#utility.yul\":7423:7424   */\n      0x00\n        /* \"#utility.yul\":7420:7421   */\n      0x00\n        /* \"#utility.yul\":7413:7425   */\n      revert\n        /* \"#utility.yul\":7560:7682   */\n    tag_389:\n        /* \"#utility.yul\":7633:7657   */\n      tag_483\n        /* \"#utility.yul\":7651:7656   */\n      dup2\n        /* \"#utility.yul\":7633:7657   */\n      tag_374\n      jump\t// in\n    tag_483:\n        /* \"#utility.yul\":7626:7631   */\n      dup2\n        /* \"#utility.yul\":7623:7658   */\n      eq\n        /* \"#utility.yul\":7613:7676   */\n      tag_484\n      jumpi\n        /* \"#utility.yul\":7672:7673   */\n      0x00\n        /* \"#utility.yul\":7669:7670   */\n      0x00\n        /* \"#utility.yul\":7662:7674   */\n      revert\n        /* \"#utility.yul\":7613:7676   */\n    tag_484:\n        /* \"#utility.yul\":7560:7682   */\n      pop\n      jump\t// out\n        /* \"#utility.yul\":7688:7827   */\n    tag_390:\n        /* \"#utility.yul\":7734:7739   */\n      0x00\n        /* \"#utility.yul\":7772:7778   */\n      dup2\n        /* \"#utility.yul\":7759:7779   */\n      calldataload\n        /* \"#utility.yul\":7750:7779   */\n      swap1\n      pop\n        /* \"#utility.yul\":7788:7821   */\n      tag_486\n        /* \"#utility.yul\":7815:7820   */\n      dup2\n        /* \"#utility.yul\":7788:7821   */\n      tag_389\n      jump\t// in\n    tag_486:\n        /* \"#utility.yul\":7688:7827   */\n      swap3\n      swap2\n      pop\n      pop\n      jump\t// out\n        /* \"#utility.yul\":7833:8162   */\n    tag_114:\n        /* \"#utility.yul\":7892:7898   */\n      0x00\n        /* \"#utility.yul\":7941:7943   */\n      0x20\n        /* \"#utility.yul\":7929:7938   */\n      dup3\n        /* \"#utility.yul\":7920:7927   */\n      dup5\n        /* \"#utility.yul\":7916:7939   */\n      sub\n        /* \"#utility.yul\":7912:7944   */\n      slt\n        /* \"#utility.yul\":7909:8028   */\n      iszero\n      tag_488\n      jumpi\n        /* \"#utility.yul\":7947:8026   */\n      tag_489\n      tag_387\n      jump\t// in\n    tag_489:\n        /* \"#utility.yul\":7909:8028   */\n    tag_488:\n        /* \"#utility.yul\":8067:8068   */\n      0x00\n        /* \"#utility.yul\":8092:8145   */\n      tag_490\n        /* \"#utility.yul\":8137:8144   */\n      dup5\n        /* \"#utility.yul\":8128:8134   */\n      dup3\n        /* \"#utility.yul\":8117:8126   */\n      dup6\n        /* \"#utility.yul\":8113:8135   */\n      add\n        /* \"#utility.yul\":8092:8145   */\n      tag_390\n      jump\t// in\n    tag_490:\n        /* \"#utility.yul\":8082:8145   */\n      swap2\n      pop\n        /* \"#utility.yul\":8038:8155   */\n      pop\n        /* \"#utility.yul\":7833:8162   */\n      swap3\n      swap2\n      pop\n      pop\n      jump\t// out\n        /* \"#utility.yul\":8168:8286   */\n    tag_391:\n        /* \"#utility.yul\":8255:8279   */\n      tag_492\n        /* \"#utility.yul\":8273:8278   */\n      dup2\n        /* \"#utility.yul\":8255:8279   */\n      tag_379\n      jump\t// in\n    tag_492:\n        /* \"#utility.yul\":8250:8253   */\n      dup3\n        /* \"#utility.yul\":8243:8280   */\n      mstore\n        /* \"#utility.yul\":8168:8286   */\n      pop\n      pop\n      jump\t// out\n        /* \"#utility.yul\":8292:8734   */\n    tag_117:\n        /* \"#utility.yul\":8441:8445   */\n      0x00\n        /* \"#utility.yul\":8479:8481   */\n      0x60\n        /* \"#utility.yul\":8468:8477   */\n      dup3\n        /* \"#utility.yul\":8464:8482   */\n      add\n        /* \"#utility.yul\":8456:8482   */\n      swap1\n      pop\n        /* \"#utility.yul\":8492:8563   */\n      tag_494\n        /* \"#utility.yul\":8560:8561   */\n      0x00\n        /* \"#utility.yul\":8549:8558   */\n      dup4\n        /* \"#utility.yul\":8545:8562   */\n      add\n        /* \"#utility.yul\":8536:8542   */\n      dup7\n        /* \"#utility.yul\":8492:8563   */\n      tag_391\n      jump\t// in\n    tag_494:\n        /* \"#utility.yul\":8573:8645   */\n      tag_495\n        /* \"#utility.yul\":8641:8643   */\n      0x20\n        /* \"#utility.yul\":8630:8639   */\n      dup4\n        /* \"#utility.yul\":8626:8644   */\n      add\n        /* \"#utility.yul\":8617:8623   */\n      dup6\n        /* \"#utility.yul\":8573:8645   */\n      tag_375\n      jump\t// in\n    tag_495:\n        /* \"#utility.yul\":8655:8727   */\n      tag_496\n        /* \"#utility.yul\":8723:8725   */\n      0x40\n        /* \"#utility.yul\":8712:8721   */\n      dup4\n        /* \"#utility.yul\":8708:8726   */\n      add\n        /* \"#utility.yul\":8699:8705   */\n      dup5\n        /* \"#utility.yul\":8655:8727   */\n      tag_375\n      jump\t// in\n    tag_496:\n        /* \"#utility.yul\":8292:8734   */\n      swap5\n      swap4\n      pop\n      pop\n      pop\n      pop\n      jump\t// out\n        /* \"#utility.yul\":8740:8962   */\n    tag_122:\n        /* \"#utility.yul\":8833:8837   */\n      0x00\n        /* \"#utility.yul\":8871:8873   */\n      0x20\n        /* \"#utility.yul\":8860:8869   */\n      dup3\n        /* \"#utility.yul\":8856:8874   */\n      add\n        /* \"#utility.yul\":8848:8874   */\n      swap1\n      pop\n        /* \"#utility.yul\":8884:8955   */\n      tag_498\n        /* \"#utility.yul\":8952:8953   */\n      0x00\n        /* \"#utility.yul\":8941:8950   */\n      dup4\n        /* \"#utility.yul\":8937:8954   */\n      add\n        /* \"#utility.yul\":8928:8934   */\n      dup5\n        /* \"#utility.yul\":8884:8955   */\n      tag_391\n      jump\t// in\n    tag_498:\n        /* \"#utility.yul\":8740:8962   */\n      swap3\n      swap2\n      pop\n      pop\n      jump\t// out\n        /* \"#utility.yul\":8968:9300   */\n    tag_135:\n        /* \"#utility.yul\":9089:9093   */\n      0x00\n        /* \"#utility.yul\":9127:9129   */\n      0x40\n        /* \"#utility.yul\":9116:9125   */\n      dup3\n        /* \"#utility.yul\":9112:9130   */\n      add\n        /* \"#utility.yul\":9104:9130   */\n      swap1\n      pop\n        /* \"#utility.yul\":9140:9211   */\n      tag_500\n        /* \"#utility.yul\":9208:9209   */\n      0x00\n        /* \"#utility.yul\":9197:9206   */\n      dup4\n        /* \"#utility.yul\":9193:9210   */\n      add\n        /* \"#utility.yul\":9184:9190   */\n      dup6\n        /* \"#utility.yul\":9140:9211   */\n      tag_391\n      jump\t// in\n    tag_500:\n        /* \"#utility.yul\":9221:9293   */\n      tag_501\n        /* \"#utility.yul\":9289:9291   */\n      0x20\n        /* \"#utility.yul\":9278:9287   */\n      dup4\n        /* \"#utility.yul\":9274:9292   */\n      add\n        /* \"#utility.yul\":9265:9271   */\n      dup5\n        /* \"#utility.yul\":9221:9293   */\n      tag_375\n      jump\t// in\n    tag_501:\n        /* \"#utility.yul\":8968:9300   */\n      swap4\n      swap3\n      pop\n      pop\n      pop\n      jump\t// out\n        /* \"#utility.yul\":9306:9428   */\n    tag_392:\n        /* \"#utility.yul\":9379:9403   */\n      tag_503\n        /* \"#utility.yul\":9397:9402   */\n      dup2\n        /* \"#utility.yul\":9379:9403   */\n      tag_379\n      jump\t// in\n    tag_503:\n        /* \"#utility.yul\":9372:9377   */\n      dup2\n        /* \"#utility.yul\":9369:9404   */\n      eq\n        /* \"#utility.yul\":9359:9422   */\n      tag_504\n      jumpi\n        /* \"#utility.yul\":9418:9419   */\n      0x00\n        /* \"#utility.yul\":9415:9416   */\n      0x00\n        /* \"#utility.yul\":9408:9420   */\n      revert\n        /* \"#utility.yul\":9359:9422   */\n    tag_504:\n        /* \"#utility.yul\":9306:9428   */\n      pop\n      jump\t// out\n        /* \"#utility.yul\":9434:9573   */\n    tag_393:\n        /* \"#utility.yul\":9480:9485   */\n      0x00\n        /* \"#utility.yul\":9518:9524   */\n      dup2\n        /* \"#utility.yul\":9505:9525   */\n      calldataload\n        /* \"#utility.yul\":9496:9525   */\n      swap1\n      pop\n        /* \"#utility.yul\":9534:9567   */\n      tag_506\n        /* \"#utility.yul\":9561:9566   */\n      dup2\n        /* \"#utility.yul\":9534:9567   */\n      tag_392\n      jump\t// in\n    tag_506:\n        /* \"#utility.yul\":9434:9573   */\n      swap3\n      swap2\n      pop\n      pop\n      jump\t// out\n        /* \"#utility.yul\":9579:9908   */\n    tag_154:\n        /* \"#utility.yul\":9638:9644   */\n      0x00\n        /* \"#utility.yul\":9687:9689   */\n      0x20\n        /* \"#utility.yul\":9675:9684   */\n      dup3\n        /* \"#utility.yul\":9666:9673   */\n      dup5\n        /* \"#utility.yul\":9662:9685   */\n      sub\n        /* \"#utility.yul\":9658:9690   */\n      slt\n        /* \"#utility.yul\":9655:9774   */\n      iszero\n      tag_508\n      jumpi\n        /* \"#utility.yul\":9693:9772   */\n      tag_509\n      tag_387\n      jump\t// in\n    tag_509:\n        /* \"#utility.yul\":9655:9774   */\n    tag_508:\n        /* \"#utility.yul\":9813:9814   */\n      0x00\n        /* \"#utility.yul\":9838:9891   */\n      tag_510\n        /* \"#utility.yul\":9883:9890   */\n      dup5\n        /* \"#utility.yul\":9874:9880   */\n      dup3\n        /* \"#utility.yul\":9863:9872   */\n      dup6\n        /* \"#utility.yul\":9859:9881   */\n      add\n        /* \"#utility.yul\":9838:9891   */\n      tag_393\n      jump\t// in\n    tag_510:\n        /* \"#utility.yul\":9828:9891   */\n      swap2\n      pop\n        /* \"#utility.yul\":9784:9901   */\n      pop\n        /* \"#utility.yul\":9579:9908   */\n      swap3\n      swap2\n      pop\n      pop\n      jump\t// out\n        /* \"#utility.yul\":9914:10085   */\n    tag_394:\n        /* \"#utility.yul\":10054:10077   */\n      0x41756374696f6e206e6f742079657420656e6465640000000000000000000000\n        /* \"#utility.yul\":10050:10051   */\n      0x00\n        /* \"#utility.yul\":10042:10048   */\n      dup3\n        /* \"#utility.yul\":10038:10052   */\n      add\n        /* \"#utility.yul\":10031:10078   */\n      mstore\n        /* \"#utility.yul\":9914:10085   */\n      pop\n      jump\t// out\n        /* \"#utility.yul\":10091:10457   */\n    tag_395:\n        /* \"#utility.yul\":10233:10236   */\n      0x00\n        /* \"#utility.yul\":10254:10321   */\n      tag_513\n        /* \"#utility.yul\":10318:10320   */\n      0x15\n        /* \"#utility.yul\":10313:10316   */\n      dup4\n        /* \"#utility.yul\":10254:10321   */\n      tag_364\n      jump\t// in\n    tag_513:\n        /* \"#utility.yul\":10247:10321   */\n      swap2\n      pop\n        /* \"#utility.yul\":10330:10423   */\n      tag_514\n        /* \"#utility.yul\":10419:10422   */\n      dup3\n        /* \"#utility.yul\":10330:10423   */\n      tag_394\n      jump\t// in\n    tag_514:\n        /* \"#utility.yul\":10448:10450   */\n      0x20\n        /* \"#utility.yul\":10443:10446   */\n      dup3\n        /* \"#utility.yul\":10439:10451   */\n      add\n        /* \"#utility.yul\":10432:10451   */\n      swap1\n      pop\n        /* \"#utility.yul\":10091:10457   */\n      swap2\n      swap1\n      pop\n      jump\t// out\n        /* \"#utility.yul\":10463:10882   */\n    tag_168:\n        /* \"#utility.yul\":10629:10633   */\n      0x00\n        /* \"#utility.yul\":10667:10669   */\n      0x20\n        /* \"#utility.yul\":10656:10665   */\n      dup3\n        /* \"#utility.yul\":10652:10670   */\n      add\n        /* \"#utility.yul\":10644:10670   */\n      swap1\n      pop\n        /* \"#utility.yul\":10716:10725   */\n      dup2\n        /* \"#utility.yul\":10710:10714   */\n      dup2\n        /* \"#utility.yul\":10706:10726   */\n      sub\n        /* \"#utility.yul\":10702:10703   */\n      0x00\n        /* \"#utility.yul\":10691:10700   */\n      dup4\n        /* \"#utility.yul\":10687:10704   */\n      add\n        /* \"#utility.yul\":10680:10727   */\n      mstore\n        /* \"#utility.yul\":10744:10875   */\n      tag_516\n        /* \"#utility.yul\":10870:10874   */\n      dup2\n        /* \"#utility.yul\":10744:10875   */\n      tag_395\n      jump\t// in\n    tag_516:\n        /* \"#utility.yul\":10736:10875   */\n      swap1\n      pop\n        /* \"#utility.yul\":10463:10882   */\n      swap2\n      swap1\n      pop\n      jump\t// out\n        /* \"#utility.yul\":10888:11067   */\n    tag_396:\n        /* \"#utility.yul\":11028:11059   */\n      0x57696e6e65722063616e6e6f7420776974686472617720726566756e64000000\n        /* \"#utility.yul\":11024:11025   */\n      0x00\n        /* \"#utility.yul\":11016:11022   */\n      dup3\n        /* \"#utility.yul\":11012:11026   */\n      add\n        /* \"#utility.yul\":11005:11060   */\n      mstore\n        /* \"#utility.yul\":10888:11067   */\n      pop\n      jump\t// out\n        /* \"#utility.yul\":11073:11439   */\n    tag_397:\n        /* \"#utility.yul\":11215:11218   */\n      0x00\n        /* \"#utility.yul\":11236:11303   */\n      tag_519\n        /* \"#utility.yul\":11300:11302   */\n      0x1d\n        /* \"#utility.yul\":11295:11298   */\n      dup4\n        /* \"#utility.yul\":11236:11303   */\n      tag_364\n      jump\t// in\n    tag_519:\n        /* \"#utility.yul\":11229:11303   */\n      swap2\n      pop\n        /* \"#utility.yul\":11312:11405   */\n      tag_520\n        /* \"#utility.yul\":11401:11404   */\n      dup3\n        /* \"#utility.yul\":11312:11405   */\n      tag_396\n      jump\t// in\n    tag_520:\n        /* \"#utility.yul\":11430:11432   */\n      0x20\n        /* \"#utility.yul\":11425:11428   */\n      dup3\n        /* \"#utility.yul\":11421:11433   */\n      add\n        /* \"#utility.yul\":11414:11433   */\n      swap1\n      pop\n        /* \"#utility.yul\":11073:11439   */\n      swap2\n      swap1\n      pop\n      jump\t// out\n        /* \"#utility.yul\":11445:11864   */\n    tag_172:\n        /* \"#utility.yul\":11611:11615   */\n      0x00\n        /* \"#utility.yul\":11649:11651   */\n      0x20\n        /* \"#utility.yul\":11638:11647   */\n      dup3\n        /* \"#utility.yul\":11634:11652   */\n      add\n        /* \"#utility.yul\":11626:11652   */\n      swap1\n      pop\n        /* \"#utility.yul\":11698:11707   */\n      dup2\n        /* \"#utility.yul\":11692:11696   */\n      dup2\n        /* \"#utility.yul\":11688:11708   */\n      sub\n        /* \"#utility.yul\":11684:11685   */\n      0x00\n        /* \"#utility.yul\":11673:11682   */\n      dup4\n        /* \"#utility.yul\":11669:11686   */\n      add\n        /* \"#utility.yul\":11662:11709   */\n      mstore\n        /* \"#utility.yul\":11726:11857   */\n      tag_522\n        /* \"#utility.yul\":11852:11856   */\n      dup2\n        /* \"#utility.yul\":11726:11857   */\n      tag_397\n      jump\t// in\n    tag_522:\n        /* \"#utility.yul\":11718:11857   */\n      swap1\n      pop\n        /* \"#utility.yul\":11445:11864   */\n      swap2\n      swap1\n      pop\n      jump\t// out\n        /* \"#utility.yul\":11870:12040   */\n    tag_398:\n        /* \"#utility.yul\":12010:12032   */\n      0x4e6f2066756e647320746f207769746864726177000000000000000000000000\n        /* \"#utility.yul\":12006:12007   */\n      0x00\n        /* \"#utility.yul\":11998:12004   */\n      dup3\n        /* \"#utility.yul\":11994:12008   */\n      add\n        /* \"#utility.yul\":11987:12033   */\n      mstore\n        /* \"#utility.yul\":11870:12040   */\n      pop\n      jump\t// out\n        /* \"#utility.yul\":12046:12412   */\n    tag_399:\n        /* \"#utility.yul\":12188:12191   */\n      0x00\n        /* \"#utility.yul\":12209:12276   */\n      tag_525\n        /* \"#utility.yul\":12273:12275   */\n      0x14\n        /* \"#utility.yul\":12268:12271   */\n      dup4\n        /* \"#utility.yul\":12209:12276   */\n      tag_364\n      jump\t// in\n    tag_525:\n        /* \"#utility.yul\":12202:12276   */\n      swap2\n      pop\n        /* \"#utility.yul\":12285:12378   */\n      tag_526\n        /* \"#utility.yul\":12374:12377   */\n      dup3\n        /* \"#utility.yul\":12285:12378   */\n      tag_398\n      jump\t// in\n    tag_526:\n        /* \"#utility.yul\":12403:12405   */\n      0x20\n        /* \"#utility.yul\":12398:12401   */\n      dup3\n        /* \"#utility.yul\":12394:12406   */\n      add\n        /* \"#utility.yul\":12387:12406   */\n      swap1\n      pop\n        /* \"#utility.yul\":12046:12412   */\n      swap2\n      swap1\n      pop\n      jump\t// out\n        /* \"#utility.yul\":12418:12837   */\n    tag_179:\n        /* \"#utility.yul\":12584:12588   */\n      0x00\n        /* \"#utility.yul\":12622:12624   */\n      0x20\n        /* \"#utility.yul\":12611:12620   */\n      dup3\n        /* \"#utility.yul\":12607:12625   */\n      add\n        /* \"#utility.yul\":12599:12625   */\n      swap1\n      pop\n        /* \"#utility.yul\":12671:12680   */\n      dup2\n        /* \"#utility.yul\":12665:12669   */\n      dup2\n        /* \"#utility.yul\":12661:12681   */\n      sub\n        /* \"#utility.yul\":12657:12658   */\n      0x00\n        /* \"#utility.yul\":12646:12655   */\n      dup4\n        /* \"#utility.yul\":12642:12659   */\n      add\n        /* \"#utility.yul\":12635:12682   */\n      mstore\n        /* \"#utility.yul\":12699:12830   */\n      tag_528\n        /* \"#utility.yul\":12825:12829   */\n      dup2\n        /* \"#utility.yul\":12699:12830   */\n      tag_399\n      jump\t// in\n    tag_528:\n        /* \"#utility.yul\":12691:12830   */\n      swap1\n      pop\n        /* \"#utility.yul\":12418:12837   */\n      swap2\n      swap1\n      pop\n      jump\t// out\n        /* \"#utility.yul\":12843:13023   */\n    tag_400:\n        /* \"#utility.yul\":12891:12968   */\n      0x4e487b7100000000000000000000000000000000000000000000000000000000\n        /* \"#utility.yul\":12888:12889   */\n      0x00\n        /* \"#utility.yul\":12881:12969   */\n      mstore\n        /* \"#utility.yul\":12988:12992   */\n      0x11\n        /* \"#utility.yul\":12985:12986   */\n      0x04\n        /* \"#utility.yul\":12978:12993   */\n      mstore\n        /* \"#utility.yul\":13012:13016   */\n      0x24\n        /* \"#utility.yul\":13009:13010   */\n      0x00\n        /* \"#utility.yul\":13002:13017   */\n      revert\n        /* \"#utility.yul\":13029:13220   */\n    tag_183:\n        /* \"#utility.yul\":13069:13072   */\n      0x00\n        /* \"#utility.yul\":13088:13108   */\n      tag_531\n        /* \"#utility.yul\":13106:13107   */\n      dup3\n        /* \"#utility.yul\":13088:13108   */\n      tag_374\n      jump\t// in\n    tag_531:\n        /* \"#utility.yul\":13083:13108   */\n      swap2\n      pop\n        /* \"#utility.yul\":13122:13142   */\n      tag_532\n        /* \"#utility.yul\":13140:13141   */\n      dup4\n        /* \"#utility.yul\":13122:13142   */\n      tag_374\n      jump\t// in\n    tag_532:\n        /* \"#utility.yul\":13117:13142   */\n      swap3\n      pop\n        /* \"#utility.yul\":13165:13166   */\n      dup3\n        /* \"#utility.yul\":13162:13163   */\n      dup3\n        /* \"#utility.yul\":13158:13167   */\n      add\n        /* \"#utility.yul\":13151:13167   */\n      swap1\n      pop\n        /* \"#utility.yul\":13186:13189   */\n      dup1\n        /* \"#utility.yul\":13183:13184   */\n      dup3\n        /* \"#utility.yul\":13180:13190   */\n      gt\n        /* \"#utility.yul\":13177:13213   */\n      iszero\n      tag_533\n      jumpi\n        /* \"#utility.yul\":13193:13211   */\n      tag_534\n      tag_400\n      jump\t// in\n    tag_534:\n        /* \"#utility.yul\":13177:13213   */\n    tag_533:\n        /* \"#utility.yul\":13029:13220   */\n      swap3\n      swap2\n      pop\n      pop\n      jump\t// out\n        /* \"#utility.yul\":13226:13397   */\n    tag_401:\n        /* \"#utility.yul\":13366:13389   */\n      0x41756374696f6e206973206e6f74206163746976650000000000000000000000\n        /* \"#utility.yul\":13362:13363   */\n      0x00\n        /* \"#utility.yul\":13354:13360   */\n      dup3\n        /* \"#utility.yul\":13350:13364   */\n      add\n        /* \"#utility.yul\":13343:13390   */\n      mstore\n        /* \"#utility.yul\":13226:13397   */\n      pop\n      jump\t// out\n        /* \"#utility.yul\":13403:13769   */\n    tag_402:\n        /* \"#utility.yul\":13545:13548   */\n      0x00\n        /* \"#utility.yul\":13566:13633   */\n      tag_537\n        /* \"#utility.yul\":13630:13632   */\n      0x15\n        /* \"#utility.yul\":13625:13628   */\n      dup4\n        /* \"#utility.yul\":13566:13633   */\n      tag_364\n      jump\t// in\n    tag_537:\n        /* \"#utility.yul\":13559:13633   */\n      swap2\n      pop\n        /* \"#utility.yul\":13642:13735   */\n      tag_538\n        /* \"#utility.yul\":13731:13734   */\n      dup3\n        /* \"#utility.yul\":13642:13735   */\n      tag_401\n      jump\t// in\n    tag_538:\n        /* \"#utility.yul\":13760:13762   */\n      0x20\n        /* \"#utility.yul\":13755:13758   */\n      dup3\n        /* \"#utility.yul\":13751:13763   */\n      add\n        /* \"#utility.yul\":13744:13763   */\n      swap1\n      pop\n        /* \"#utility.yul\":13403:13769   */\n      swap2\n      swap1\n      pop\n      jump\t// out\n        /* \"#utility.yul\":13775:14194   */\n    tag_194:\n        /* \"#utility.yul\":13941:13945   */\n      0x00\n        /* \"#utility.yul\":13979:13981   */\n      0x20\n        /* \"#utility.yul\":13968:13977   */\n      dup3\n        /* \"#utility.yul\":13964:13982   */\n      add\n        /* \"#utility.yul\":13956:13982   */\n      swap1\n      pop\n        /* \"#utility.yul\":14028:14037   */\n      dup2\n        /* \"#utility.yul\":14022:14026   */\n      dup2\n        /* \"#utility.yul\":14018:14038   */\n      sub\n        /* \"#utility.yul\":14014:14015   */\n      0x00\n        /* \"#utility.yul\":14003:14012   */\n      dup4\n        /* \"#utility.yul\":13999:14016   */\n      add\n        /* \"#utility.yul\":13992:14039   */\n      mstore\n        /* \"#utility.yul\":14056:14187   */\n      tag_540\n        /* \"#utility.yul\":14182:14186   */\n      dup2\n        /* \"#utility.yul\":14056:14187   */\n      tag_402\n      jump\t// in\n    tag_540:\n        /* \"#utility.yul\":14048:14187   */\n      swap1\n      pop\n        /* \"#utility.yul\":13775:14194   */\n      swap2\n      swap1\n      pop\n      jump\t// out\n        /* \"#utility.yul\":14200:14376   */\n    tag_403:\n        /* \"#utility.yul\":14340:14368   */\n      0x426964206d7573742062652067726561746572207468616e2030000000000000\n        /* \"#utility.yul\":14336:14337   */\n      0x00\n        /* \"#utility.yul\":14328:14334   */\n      dup3\n        /* \"#utility.yul\":14324:14338   */\n      add\n        /* \"#utility.yul\":14317:14369   */\n      mstore\n        /* \"#utility.yul\":14200:14376   */\n      pop\n      jump\t// out\n        /* \"#utility.yul\":14382:14748   */\n    tag_404:\n        /* \"#utility.yul\":14524:14527   */\n      0x00\n        /* \"#utility.yul\":14545:14612   */\n      tag_543\n        /* \"#utility.yul\":14609:14611   */\n      0x1a\n        /* \"#utility.yul\":14604:14607   */\n      dup4\n        /* \"#utility.yul\":14545:14612   */\n      tag_364\n      jump\t// in\n    tag_543:\n        /* \"#utility.yul\":14538:14612   */\n      swap2\n      pop\n        /* \"#utility.yul\":14621:14714   */\n      tag_544\n        /* \"#utility.yul\":14710:14713   */\n      dup3\n        /* \"#utility.yul\":14621:14714   */\n      tag_403\n      jump\t// in\n    tag_544:\n        /* \"#utility.yul\":14739:14741   */\n      0x20\n        /* \"#utility.yul\":14734:14737   */\n      dup3\n        /* \"#utility.yul\":14730:14742   */\n      add\n        /* \"#utility.yul\":14723:14742   */\n      swap1\n      pop\n        /* \"#utility.yul\":14382:14748   */\n      swap2\n      swap1\n      pop\n      jump\t// out\n        /* \"#utility.yul\":14754:15173   */\n    tag_203:\n        /* \"#utility.yul\":14920:14924   */\n      0x00\n        /* \"#utility.yul\":14958:14960   */\n      0x20\n        /* \"#utility.yul\":14947:14956   */\n      dup3\n        /* \"#utility.yul\":14943:14961   */\n      add\n        /* \"#utility.yul\":14935:14961   */\n      swap1\n      pop\n        /* \"#utility.yul\":15007:15016   */\n      dup2\n        /* \"#utility.yul\":15001:15005   */\n      dup2\n        /* \"#utility.yul\":14997:15017   */\n      sub\n        /* \"#utility.yul\":14993:14994   */\n      0x00\n        /* \"#utility.yul\":14982:14991   */\n      dup4\n        /* \"#utility.yul\":14978:14995   */\n      add\n        /* \"#utility.yul\":14971:15018   */\n      mstore\n        /* \"#utility.yul\":15035:15166   */\n      tag_546\n        /* \"#utility.yul\":15161:15165   */\n      dup2\n        /* \"#utility.yul\":15035:15166   */\n      tag_404\n      jump\t// in\n    tag_546:\n        /* \"#utility.yul\":15027:15166   */\n      swap1\n      pop\n        /* \"#utility.yul\":14754:15173   */\n      swap2\n      swap1\n      pop\n      jump\t// out\n        /* \"#utility.yul\":15179:15589   */\n    tag_207:\n        /* \"#utility.yul\":15219:15226   */\n      0x00\n        /* \"#utility.yul\":15242:15262   */\n      tag_548\n        /* \"#utility.yul\":15260:15261   */\n      dup3\n        /* \"#utility.yul\":15242:15262   */\n      tag_374\n      jump\t// in\n    tag_548:\n        /* \"#utility.yul\":15237:15262   */\n      swap2\n      pop\n        /* \"#utility.yul\":15276:15296   */\n      tag_549\n        /* \"#utility.yul\":15294:15295   */\n      dup4\n        /* \"#utility.yul\":15276:15296   */\n      tag_374\n      jump\t// in\n    tag_549:\n        /* \"#utility.yul\":15271:15296   */\n      swap3\n      pop\n        /* \"#utility.yul\":15331:15332   */\n      dup3\n        /* \"#utility.yul\":15328:15329   */\n      dup3\n        /* \"#utility.yul\":15324:15333   */\n      mul\n        /* \"#utility.yul\":15353:15383   */\n      tag_550\n        /* \"#utility.yul\":15371:15382   */\n      dup2\n        /* \"#utility.yul\":15353:15383   */\n      tag_374\n      jump\t// in\n    tag_550:\n        /* \"#utility.yul\":15342:15383   */\n      swap2\n      pop\n        /* \"#utility.yul\":15532:15533   */\n      dup3\n        /* \"#utility.yul\":15523:15530   */\n      dup3\n        /* \"#utility.yul\":15519:15534   */\n      div\n        /* \"#utility.yul\":15516:15517   */\n      dup5\n        /* \"#utility.yul\":15513:15535   */\n      eq\n        /* \"#utility.yul\":15493:15494   */\n      dup4\n        /* \"#utility.yul\":15486:15495   */\n      iszero\n        /* \"#utility.yul\":15466:15549   */\n      or\n        /* \"#utility.yul\":15443:15582   */\n      tag_551\n      jumpi\n        /* \"#utility.yul\":15562:15580   */\n      tag_552\n      tag_400\n      jump\t// in\n    tag_552:\n        /* \"#utility.yul\":15443:15582   */\n    tag_551:\n        /* \"#utility.yul\":15227:15589   */\n      pop\n        /* \"#utility.yul\":15179:15589   */\n      swap3\n      swap2\n      pop\n      pop\n      jump\t// out\n        /* \"#utility.yul\":15595:15775   */\n    tag_405:\n        /* \"#utility.yul\":15643:15720   */\n      0x4e487b7100000000000000000000000000000000000000000000000000000000\n        /* \"#utility.yul\":15640:15641   */\n      0x00\n        /* \"#utility.yul\":15633:15721   */\n      mstore\n        /* \"#utility.yul\":15740:15744   */\n      0x12\n        /* \"#utility.yul\":15737:15738   */\n      0x04\n        /* \"#utility.yul\":15730:15745   */\n      mstore\n        /* \"#utility.yul\":15764:15768   */\n      0x24\n        /* \"#utility.yul\":15761:15762   */\n      0x00\n        /* \"#utility.yul\":15754:15769   */\n      revert\n        /* \"#utility.yul\":15781:15966   */\n    tag_209:\n        /* \"#utility.yul\":15821:15822   */\n      0x00\n        /* \"#utility.yul\":15838:15858   */\n      tag_555\n        /* \"#utility.yul\":15856:15857   */\n      dup3\n        /* \"#utility.yul\":15838:15858   */\n      tag_374\n      jump\t// in\n    tag_555:\n        /* \"#utility.yul\":15833:15858   */\n      swap2\n      pop\n        /* \"#utility.yul\":15872:15892   */\n      tag_556\n        /* \"#utility.yul\":15890:15891   */\n      dup4\n        /* \"#utility.yul\":15872:15892   */\n      tag_374\n      jump\t// in\n    tag_556:\n        /* \"#utility.yul\":15867:15892   */\n      swap3\n      pop\n        /* \"#utility.yul\":15911:15912   */\n      dup3\n        /* \"#utility.yul\":15901:15936   */\n      tag_557\n      jumpi\n        /* \"#utility.yul\":15916:15934   */\n      tag_558\n      tag_405\n      jump\t// in\n    tag_558:\n        /* \"#utility.yul\":15901:15936   */\n    tag_557:\n        /* \"#utility.yul\":15958:15959   */\n      dup3\n        /* \"#utility.yul\":15955:15956   */\n      dup3\n        /* \"#utility.yul\":15951:15960   */\n      div\n        /* \"#utility.yul\":15946:15960   */\n      swap1\n      pop\n        /* \"#utility.yul\":15781:15966   */\n      swap3\n      swap2\n      pop\n      pop\n      jump\t// out\n        /* \"#utility.yul\":15972:16206   */\n    tag_406:\n        /* \"#utility.yul\":16112:16146   */\n      0x426964206d757374206265206174206c65617374203525206869676865722074\n        /* \"#utility.yul\":16108:16109   */\n      0x00\n        /* \"#utility.yul\":16100:16106   */\n      dup3\n        /* \"#utility.yul\":16096:16110   */\n      add\n        /* \"#utility.yul\":16089:16147   */\n      mstore\n        /* \"#utility.yul\":16181:16198   */\n      0x68616e2068696768657374206269640000000000000000000000000000000000\n        /* \"#utility.yul\":16176:16178   */\n      0x20\n        /* \"#utility.yul\":16168:16174   */\n      dup3\n        /* \"#utility.yul\":16164:16179   */\n      add\n        /* \"#utility.yul\":16157:16199   */\n      mstore\n        /* \"#utility.yul\":15972:16206   */\n      pop\n      jump\t// out\n        /* \"#utility.yul\":16212:16578   */\n    tag_407:\n        /* \"#utility.yul\":16354:16357   */\n      0x00\n        /* \"#utility.yul\":16375:16442   */\n      tag_561\n        /* \"#utility.yul\":16439:16441   */\n      0x2f\n        /* \"#utility.yul\":16434:16437   */\n      dup4\n        /* \"#utility.yul\":16375:16442   */\n      tag_364\n      jump\t// in\n    tag_561:\n        /* \"#utility.yul\":16368:16442   */\n      swap2\n      pop\n        /* \"#utility.yul\":16451:16544   */\n      tag_562\n        /* \"#utility.yul\":16540:16543   */\n      dup3\n        /* \"#utility.yul\":16451:16544   */\n      tag_406\n      jump\t// in\n    tag_562:\n        /* \"#utility.yul\":16569:16571   */\n      0x40\n        /* \"#utility.yul\":16564:16567   */\n      dup3\n        /* \"#utility.yul\":16560:16572   */\n      add\n        /* \"#utility.yul\":16553:16572   */\n      swap1\n      pop\n        /* \"#utility.yul\":16212:16578   */\n      swap2\n      swap1\n      pop\n      jump\t// out\n        /* \"#utility.yul\":16584:17003   */\n    tag_213:\n        /* \"#utility.yul\":16750:16754   */\n      0x00\n        /* \"#utility.yul\":16788:16790   */\n      0x20\n        /* \"#utility.yul\":16777:16786   */\n      dup3\n        /* \"#utility.yul\":16773:16791   */\n      add\n        /* \"#utility.yul\":16765:16791   */\n      swap1\n      pop\n        /* \"#utility.yul\":16837:16846   */\n      dup2\n        /* \"#utility.yul\":16831:16835   */\n      dup2\n        /* \"#utility.yul\":16827:16847   */\n      sub\n        /* \"#utility.yul\":16823:16824   */\n      0x00\n        /* \"#utility.yul\":16812:16821   */\n      dup4\n        /* \"#utility.yul\":16808:16825   */\n      add\n        /* \"#utility.yul\":16801:16848   */\n      mstore\n        /* \"#utility.yul\":16865:16996   */\n      tag_564\n        /* \"#utility.yul\":16991:16995   */\n      dup2\n        /* \"#utility.yul\":16865:16996   */\n      tag_407\n      jump\t// in\n    tag_564:\n        /* \"#utility.yul\":16857:16996   */\n      swap1\n      pop\n        /* \"#utility.yul\":16584:17003   */\n      swap2\n      swap1\n      pop\n      jump\t// out\n        /* \"#utility.yul\":17009:17203   */\n    tag_217:\n        /* \"#utility.yul\":17049:17053   */\n      0x00\n        /* \"#utility.yul\":17069:17089   */\n      tag_566\n        /* \"#utility.yul\":17087:17088   */\n      dup3\n        /* \"#utility.yul\":17069:17089   */\n      tag_374\n      jump\t// in\n    tag_566:\n        /* \"#utility.yul\":17064:17089   */\n      swap2\n      pop\n        /* \"#utility.yul\":17103:17123   */\n      tag_567\n        /* \"#utility.yul\":17121:17122   */\n      dup4\n        /* \"#utility.yul\":17103:17123   */\n      tag_374\n      jump\t// in\n    tag_567:\n        /* \"#utility.yul\":17098:17123   */\n      swap3\n      pop\n        /* \"#utility.yul\":17147:17148   */\n      dup3\n        /* \"#utility.yul\":17144:17145   */\n      dup3\n        /* \"#utility.yul\":17140:17149   */\n      sub\n        /* \"#utility.yul\":17132:17149   */\n      swap1\n      pop\n        /* \"#utility.yul\":17171:17172   */\n      dup2\n        /* \"#utility.yul\":17165:17169   */\n      dup2\n        /* \"#utility.yul\":17162:17173   */\n      gt\n        /* \"#utility.yul\":17159:17196   */\n      iszero\n      tag_568\n      jumpi\n        /* \"#utility.yul\":17176:17194   */\n      tag_569\n      tag_400\n      jump\t// in\n    tag_569:\n        /* \"#utility.yul\":17159:17196   */\n    tag_568:\n        /* \"#utility.yul\":17009:17203   */\n      swap3\n      swap2\n      pop\n      pop\n      jump\t// out\n        /* \"#utility.yul\":17209:17434   */\n    tag_408:\n        /* \"#utility.yul\":17349:17383   */\n      0x43757272656e742068696768657374206269646465722063616e6e6f74207769\n        /* \"#utility.yul\":17345:17346   */\n      0x00\n        /* \"#utility.yul\":17337:17343   */\n      dup3\n        /* \"#utility.yul\":17333:17347   */\n      add\n        /* \"#utility.yul\":17326:17384   */\n      mstore\n        /* \"#utility.yul\":17418:17426   */\n      0x7468647261770000000000000000000000000000000000000000000000000000\n        /* \"#utility.yul\":17413:17415   */\n      0x20\n        /* \"#utility.yul\":17405:17411   */\n      dup3\n        /* \"#utility.yul\":17401:17416   */\n      add\n        /* \"#utility.yul\":17394:17427   */\n      mstore\n        /* \"#utility.yul\":17209:17434   */\n      pop\n      jump\t// out\n        /* \"#utility.yul\":17440:17806   */\n    tag_409:\n        /* \"#utility.yul\":17582:17585   */\n      0x00\n        /* \"#utility.yul\":17603:17670   */\n      tag_572\n        /* \"#utility.yul\":17667:17669   */\n      0x26\n        /* \"#utility.yul\":17662:17665   */\n      dup4\n        /* \"#utility.yul\":17603:17670   */\n      tag_364\n      jump\t// in\n    tag_572:\n        /* \"#utility.yul\":17596:17670   */\n      swap2\n      pop\n        /* \"#utility.yul\":17679:17772   */\n      tag_573\n        /* \"#utility.yul\":17768:17771   */\n      dup3\n        /* \"#utility.yul\":17679:17772   */\n      tag_408\n      jump\t// in\n    tag_573:\n        /* \"#utility.yul\":17797:17799   */\n      0x40\n        /* \"#utility.yul\":17792:17795   */\n      dup3\n        /* \"#utility.yul\":17788:17800   */\n      add\n        /* \"#utility.yul\":17781:17800   */\n      swap1\n      pop\n        /* \"#utility.yul\":17440:17806   */\n      swap2\n      swap1\n      pop\n      jump\t// out\n        /* \"#utility.yul\":17812:18231   */\n    tag_233:\n        /* \"#utility.yul\":17978:17982   */\n      0x00\n        /* \"#utility.yul\":18016:18018   */\n      0x20\n        /* \"#utility.yul\":18005:18014   */\n      dup3\n        /* \"#utility.yul\":18001:18019   */\n      add\n        /* \"#utility.yul\":17993:18019   */\n      swap1\n      pop\n        /* \"#utility.yul\":18065:18074   */\n      dup2\n        /* \"#utility.yul\":18059:18063   */\n      dup2\n        /* \"#utility.yul\":18055:18075   */\n      sub\n        /* \"#utility.yul\":18051:18052   */\n      0x00\n        /* \"#utility.yul\":18040:18049   */\n      dup4\n        /* \"#utility.yul\":18036:18053   */\n      add\n        /* \"#utility.yul\":18029:18076   */\n      mstore\n        /* \"#utility.yul\":18093:18224   */\n      tag_575\n        /* \"#utility.yul\":18219:18223   */\n      dup2\n        /* \"#utility.yul\":18093:18224   */\n      tag_409\n      jump\t// in\n    tag_575:\n        /* \"#utility.yul\":18085:18224   */\n      swap1\n      pop\n        /* \"#utility.yul\":17812:18231   */\n      swap2\n      swap1\n      pop\n      jump\t// out\n        /* \"#utility.yul\":18237:18414   */\n    tag_410:\n        /* \"#utility.yul\":18377:18406   */\n      0x4e6f206578636573732066756e647320746f2077697468647261770000000000\n        /* \"#utility.yul\":18373:18374   */\n      0x00\n        /* \"#utility.yul\":18365:18371   */\n      dup3\n        /* \"#utility.yul\":18361:18375   */\n      add\n        /* \"#utility.yul\":18354:18407   */\n      mstore\n        /* \"#utility.yul\":18237:18414   */\n      pop\n      jump\t// out\n        /* \"#utility.yul\":18420:18786   */\n    tag_411:\n        /* \"#utility.yul\":18562:18565   */\n      0x00\n        /* \"#utility.yul\":18583:18650   */\n      tag_578\n        /* \"#utility.yul\":18647:18649   */\n      0x1b\n        /* \"#utility.yul\":18642:18645   */\n      dup4\n        /* \"#utility.yul\":18583:18650   */\n      tag_364\n      jump\t// in\n    tag_578:\n        /* \"#utility.yul\":18576:18650   */\n      swap2\n      pop\n        /* \"#utility.yul\":18659:18752   */\n      tag_579\n        /* \"#utility.yul\":18748:18751   */\n      dup3\n        /* \"#utility.yul\":18659:18752   */\n      tag_410\n      jump\t// in\n    tag_579:\n        /* \"#utility.yul\":18777:18779   */\n      0x20\n        /* \"#utility.yul\":18772:18775   */\n      dup3\n        /* \"#utility.yul\":18768:18780   */\n      add\n        /* \"#utility.yul\":18761:18780   */\n      swap1\n      pop\n        /* \"#utility.yul\":18420:18786   */\n      swap2\n      swap1\n      pop\n      jump\t// out\n        /* \"#utility.yul\":18792:19211   */\n    tag_236:\n        /* \"#utility.yul\":18958:18962   */\n      0x00\n        /* \"#utility.yul\":18996:18998   */\n      0x20\n        /* \"#utility.yul\":18985:18994   */\n      dup3\n        /* \"#utility.yul\":18981:18999   */\n      add\n        /* \"#utility.yul\":18973:18999   */\n      swap1\n      pop\n        /* \"#utility.yul\":19045:19054   */\n      dup2\n        /* \"#utility.yul\":19039:19043   */\n      dup2\n        /* \"#utility.yul\":19035:19055   */\n      sub\n        /* \"#utility.yul\":19031:19032   */\n      0x00\n        /* \"#utility.yul\":19020:19029   */\n      dup4\n        /* \"#utility.yul\":19016:19033   */\n      add\n        /* \"#utility.yul\":19009:19056   */\n      mstore\n        /* \"#utility.yul\":19073:19204   */\n      tag_581\n        /* \"#utility.yul\":19199:19203   */\n      dup2\n        /* \"#utility.yul\":19073:19204   */\n      tag_411\n      jump\t// in\n    tag_581:\n        /* \"#utility.yul\":19065:19204   */\n      swap1\n      pop\n        /* \"#utility.yul\":18792:19211   */\n      swap2\n      swap1\n      pop\n      jump\t// out\n        /* \"#utility.yul\":19217:19387   */\n    tag_412:\n        /* \"#utility.yul\":19357:19379   */\n      0x4f6e6c792073656c6c65722063616e2063616c6c000000000000000000000000\n        /* \"#utility.yul\":19353:19354   */\n      0x00\n        /* \"#utility.yul\":19345:19351   */\n      dup3\n        /* \"#utility.yul\":19341:19355   */\n      add\n        /* \"#utility.yul\":19334:19380   */\n      mstore\n        /* \"#utility.yul\":19217:19387   */\n      pop\n      jump\t// out\n        /* \"#utility.yul\":19393:19759   */\n    tag_413:\n        /* \"#utility.yul\":19535:19538   */\n      0x00\n        /* \"#utility.yul\":19556:19623   */\n      tag_584\n        /* \"#utility.yul\":19620:19622   */\n      0x14\n        /* \"#utility.yul\":19615:19618   */\n      dup4\n        /* \"#utility.yul\":19556:19623   */\n      tag_364\n      jump\t// in\n    tag_584:\n        /* \"#utility.yul\":19549:19623   */\n      swap2\n      pop\n        /* \"#utility.yul\":19632:19725   */\n      tag_585\n        /* \"#utility.yul\":19721:19724   */\n      dup3\n        /* \"#utility.yul\":19632:19725   */\n      tag_412\n      jump\t// in\n    tag_585:\n        /* \"#utility.yul\":19750:19752   */\n      0x20\n        /* \"#utility.yul\":19745:19748   */\n      dup3\n        /* \"#utility.yul\":19741:19753   */\n      add\n        /* \"#utility.yul\":19734:19753   */\n      swap1\n      pop\n        /* \"#utility.yul\":19393:19759   */\n      swap2\n      swap1\n      pop\n      jump\t// out\n        /* \"#utility.yul\":19765:20184   */\n    tag_249:\n        /* \"#utility.yul\":19931:19935   */\n      0x00\n        /* \"#utility.yul\":19969:19971   */\n      0x20\n        /* \"#utility.yul\":19958:19967   */\n      dup3\n        /* \"#utility.yul\":19954:19972   */\n      add\n        /* \"#utility.yul\":19946:19972   */\n      swap1\n      pop\n        /* \"#utility.yul\":20018:20027   */\n      dup2\n        /* \"#utility.yul\":20012:20016   */\n      dup2\n        /* \"#utility.yul\":20008:20028   */\n      sub\n        /* \"#utility.yul\":20004:20005   */\n      0x00\n        /* \"#utility.yul\":19993:20002   */\n      dup4\n        /* \"#utility.yul\":19989:20006   */\n      add\n        /* \"#utility.yul\":19982:20029   */\n      mstore\n        /* \"#utility.yul\":20046:20177   */\n      tag_587\n        /* \"#utility.yul\":20172:20176   */\n      dup2\n        /* \"#utility.yul\":20046:20177   */\n      tag_413\n      jump\t// in\n    tag_587:\n        /* \"#utility.yul\":20038:20177   */\n      swap1\n      pop\n        /* \"#utility.yul\":19765:20184   */\n      swap2\n      swap1\n      pop\n      jump\t// out\n        /* \"#utility.yul\":20190:20359   */\n    tag_414:\n        /* \"#utility.yul\":20330:20351   */\n      0x4e6f206665657320746f20776974686472617700000000000000000000000000\n        /* \"#utility.yul\":20326:20327   */\n      0x00\n        /* \"#utility.yul\":20318:20324   */\n      dup3\n        /* \"#utility.yul\":20314:20328   */\n      add\n        /* \"#utility.yul\":20307:20352   */\n      mstore\n        /* \"#utility.yul\":20190:20359   */\n      pop\n      jump\t// out\n        /* \"#utility.yul\":20365:20731   */\n    tag_415:\n        /* \"#utility.yul\":20507:20510   */\n      0x00\n        /* \"#utility.yul\":20528:20595   */\n      tag_590\n        /* \"#utility.yul\":20592:20594   */\n      0x13\n        /* \"#utility.yul\":20587:20590   */\n      dup4\n        /* \"#utility.yul\":20528:20595   */\n      tag_364\n      jump\t// in\n    tag_590:\n        /* \"#utility.yul\":20521:20595   */\n      swap2\n      pop\n        /* \"#utility.yul\":20604:20697   */\n      tag_591\n        /* \"#utility.yul\":20693:20696   */\n      dup3\n        /* \"#utility.yul\":20604:20697   */\n      tag_414\n      jump\t// in\n    tag_591:\n        /* \"#utility.yul\":20722:20724   */\n      0x20\n        /* \"#utility.yul\":20717:20720   */\n      dup3\n        /* \"#utility.yul\":20713:20725   */\n      add\n        /* \"#utility.yul\":20706:20725   */\n      swap1\n      pop\n        /* \"#utility.yul\":20365:20731   */\n      swap2\n      swap1\n      pop\n      jump\t// out\n        /* \"#utility.yul\":20737:21156   */\n    tag_255:\n        /* \"#utility.yul\":20903:20907   */\n      0x00\n        /* \"#utility.yul\":20941:20943   */\n      0x20\n        /* \"#utility.yul\":20930:20939   */\n      dup3\n        /* \"#utility.yul\":20926:20944   */\n      add\n        /* \"#utility.yul\":20918:20944   */\n      swap1\n      pop\n        /* \"#utility.yul\":20990:20999   */\n      dup2\n        /* \"#utility.yul\":20984:20988   */\n      dup2\n        /* \"#utility.yul\":20980:21000   */\n      sub\n        /* \"#utility.yul\":20976:20977   */\n      0x00\n        /* \"#utility.yul\":20965:20974   */\n      dup4\n        /* \"#utility.yul\":20961:20978   */\n      add\n        /* \"#utility.yul\":20954:21001   */\n      mstore\n        /* \"#utility.yul\":21018:21149   */\n      tag_593\n        /* \"#utility.yul\":21144:21148   */\n      dup2\n        /* \"#utility.yul\":21018:21149   */\n      tag_415\n      jump\t// in\n    tag_593:\n        /* \"#utility.yul\":21010:21149   */\n      swap1\n      pop\n        /* \"#utility.yul\":20737:21156   */\n      swap2\n      swap1\n      pop\n      jump\t// out\n        /* \"#utility.yul\":21162:21325   */\n    tag_416:\n        /* \"#utility.yul\":21302:21317   */\n      0x416c726561647920656e64656400000000000000000000000000000000000000\n        /* \"#utility.yul\":21298:21299   */\n      0x00\n        /* \"#utility.yul\":21290:21296   */\n      dup3\n        /* \"#utility.yul\":21286:21300   */\n      add\n        /* \"#utility.yul\":21279:21318   */\n      mstore\n        /* \"#utility.yul\":21162:21325   */\n      pop\n      jump\t// out\n        /* \"#utility.yul\":21331:21697   */\n    tag_417:\n        /* \"#utility.yul\":21473:21476   */\n      0x00\n        /* \"#utility.yul\":21494:21561   */\n      tag_596\n        /* \"#utility.yul\":21558:21560   */\n      0x0d\n        /* \"#utility.yul\":21553:21556   */\n      dup4\n        /* \"#utility.yul\":21494:21561   */\n      tag_364\n      jump\t// in\n    tag_596:\n        /* \"#utility.yul\":21487:21561   */\n      swap2\n      pop\n        /* \"#utility.yul\":21570:21663   */\n      tag_597\n        /* \"#utility.yul\":21659:21662   */\n      dup3\n        /* \"#utility.yul\":21570:21663   */\n      tag_416\n      jump\t// in\n    tag_597:\n        /* \"#utility.yul\":21688:21690   */\n      0x20\n        /* \"#utility.yul\":21683:21686   */\n      dup3\n        /* \"#utility.yul\":21679:21691   */\n      add\n        /* \"#utility.yul\":21672:21691   */\n      swap1\n      pop\n        /* \"#utility.yul\":21331:21697   */\n      swap2\n      swap1\n      pop\n      jump\t// out\n        /* \"#utility.yul\":21703:22122   */\n    tag_292:\n        /* \"#utility.yul\":21869:21873   */\n      0x00\n        /* \"#utility.yul\":21907:21909   */\n      0x20\n        /* \"#utility.yul\":21896:21905   */\n      dup3\n        /* \"#utility.yul\":21892:21910   */\n      add\n        /* \"#utility.yul\":21884:21910   */\n      swap1\n      pop\n        /* \"#utility.yul\":21956:21965   */\n      dup2\n        /* \"#utility.yul\":21950:21954   */\n      dup2\n        /* \"#utility.yul\":21946:21966   */\n      sub\n        /* \"#utility.yul\":21942:21943   */\n      0x00\n        /* \"#utility.yul\":21931:21940   */\n      dup4\n        /* \"#utility.yul\":21927:21944   */\n      add\n        /* \"#utility.yul\":21920:21967   */\n      mstore\n        /* \"#utility.yul\":21984:22115   */\n      tag_599\n        /* \"#utility.yul\":22110:22114   */\n      dup2\n        /* \"#utility.yul\":21984:22115   */\n      tag_417\n      jump\t// in\n    tag_599:\n        /* \"#utility.yul\":21976:22115   */\n      swap1\n      pop\n        /* \"#utility.yul\":21703:22122   */\n      swap2\n      swap1\n      pop\n      jump\t// out\n        /* \"#utility.yul\":22128:22460   */\n    tag_348:\n        /* \"#utility.yul\":22249:22253   */\n      0x00\n        /* \"#utility.yul\":22287:22289   */\n      0x40\n        /* \"#utility.yul\":22276:22285   */\n      dup3\n        /* \"#utility.yul\":22272:22290   */\n      add\n        /* \"#utility.yul\":22264:22290   */\n      swap1\n      pop\n        /* \"#utility.yul\":22300:22371   */\n      tag_601\n        /* \"#utility.yul\":22368:22369   */\n      0x00\n        /* \"#utility.yul\":22357:22366   */\n      dup4\n        /* \"#utility.yul\":22353:22370   */\n      add\n        /* \"#utility.yul\":22344:22350   */\n      dup6\n        /* \"#utility.yul\":22300:22371   */\n      tag_375\n      jump\t// in\n    tag_601:\n        /* \"#utility.yul\":22381:22453   */\n      tag_602\n        /* \"#utility.yul\":22449:22451   */\n      0x20\n        /* \"#utility.yul\":22438:22447   */\n      dup4\n        /* \"#utility.yul\":22434:22452   */\n      add\n        /* \"#utility.yul\":22425:22431   */\n      dup5\n        /* \"#utility.yul\":22381:22453   */\n      tag_375\n      jump\t// in\n    tag_602:\n        /* \"#utility.yul\":22128:22460   */\n      swap4\n      swap3\n      pop\n      pop\n      pop\n      jump\t// out\n        /* \"#utility.yul\":22466:22613   */\n    tag_418:\n        /* \"#utility.yul\":22567:22578   */\n      0x00\n        /* \"#utility.yul\":22604:22607   */\n      dup2\n        /* \"#utility.yul\":22589:22607   */\n      swap1\n      pop\n        /* \"#utility.yul\":22466:22613   */\n      swap3\n      swap2\n      pop\n      pop\n      jump\t// out\n        /* \"#utility.yul\":22619:22733   */\n    tag_419:\n      pop\n      jump\t// out\n        /* \"#utility.yul\":22739:23137   */\n    tag_420:\n        /* \"#utility.yul\":22898:22901   */\n      0x00\n        /* \"#utility.yul\":22919:23002   */\n      tag_606\n        /* \"#utility.yul\":23000:23001   */\n      0x00\n        /* \"#utility.yul\":22995:22998   */\n      dup4\n        /* \"#utility.yul\":22919:23002   */\n      tag_418\n      jump\t// in\n    tag_606:\n        /* \"#utility.yul\":22912:23002   */\n      swap2\n      pop\n        /* \"#utility.yul\":23011:23104   */\n      tag_607\n        /* \"#utility.yul\":23100:23103   */\n      dup3\n        /* \"#utility.yul\":23011:23104   */\n      tag_419\n      jump\t// in\n    tag_607:\n        /* \"#utility.yul\":23129:23130   */\n      0x00\n        /* \"#utility.yul\":23124:23127   */\n      dup3\n        /* \"#utility.yul\":23120:23131   */\n      add\n        /* \"#utility.yul\":23113:23131   */\n      swap1\n      pop\n        /* \"#utility.yul\":22739:23137   */\n      swap2\n      swap1\n      pop\n      jump\t// out\n        /* \"#utility.yul\":23143:23522   */\n    tag_350:\n        /* \"#utility.yul\":23327:23330   */\n      0x00\n        /* \"#utility.yul\":23349:23496   */\n      tag_609\n        /* \"#utility.yul\":23492:23495   */\n      dup3\n        /* \"#utility.yul\":23349:23496   */\n      tag_420\n      jump\t// in\n    tag_609:\n        /* \"#utility.yul\":23342:23496   */\n      swap2\n      pop\n        /* \"#utility.yul\":23513:23516   */\n      dup2\n        /* \"#utility.yul\":23506:23516   */\n      swap1\n      pop\n        /* \"#utility.yul\":23143:23522   */\n      swap2\n      swap1\n      pop\n      jump\t// out\n\n    auxdata: 0xa2646970667358221220139b20dc80219a3001268b72b7bf217dbf2aff927f43766f4a54bc4bab64ad9764736f6c634300081e0033\n}\n",
				"bytecode": {
					"linkReferences": {},
					"object": "608060405234801561000f575f5ffd5b50604051612b97380380612b97833981810160405281019061003191906102e8565b3360015f819055505f73ffffffffffffffffffffffffffffffffffffffff168173ffffffffffffffffffffffffffffffffffffffff16036100a9575f6040517f1e4fbdf70000000000000000000000000000000000000000000000000000000081526004016100a09190610365565b60405180910390fd5b6100b8816101ee60201b60201c565b505f81116100fb576040517f08c379a00000000000000000000000000000000000000000000000000000000081526004016100f2906103fe565b60405180910390fd5b42821161013d576040517f08c379a000000000000000000000000000000000000000000000000000000000815260040161013490610466565b60405180910390fd5b61a8c0811115610182576040517f08c379a0000000000000000000000000000000000000000000000000000000008152600401610179906104ce565b60405180910390fd5b3360025f6101000a81548173ffffffffffffffffffffffffffffffffffffffff021916908373ffffffffffffffffffffffffffffffffffffffff16021790555081600581905550603c816101d69190610519565b826101e1919061055a565b600681905550505061058d565b5f60015f9054906101000a900473ffffffffffffffffffffffffffffffffffffffff1690508160015f6101000a81548173ffffffffffffffffffffffffffffffffffffffff021916908373ffffffffffffffffffffffffffffffffffffffff1602179055508173ffffffffffffffffffffffffffffffffffffffff168173ffffffffffffffffffffffffffffffffffffffff167f8be0079c531659141344cd1fd0a4f28419497f9722a3daafe3b4186f6b6457e060405160405180910390a35050565b5f5ffd5b5f819050919050565b6102c7816102b5565b81146102d1575f5ffd5b50565b5f815190506102e2816102be565b92915050565b5f5f604083850312156102fe576102fd6102b1565b5b5f61030b858286016102d4565b925050602061031c858286016102d4565b9150509250929050565b5f73ffffffffffffffffffffffffffffffffffffffff82169050919050565b5f61034f82610326565b9050919050565b61035f81610345565b82525050565b5f6020820190506103785f830184610356565b92915050565b5f82825260208201905092915050565b7f4475726174696f6e206d7573742062652067726561746572207468616e207a655f8201527f726f000000000000000000000000000000000000000000000000000000000000602082015250565b5f6103e860228361037e565b91506103f38261038e565b604082019050919050565b5f6020820190508181035f830152610415816103dc565b9050919050565b7f53746172742074696d65206d75737420626520696e20667574757265000000005f82015250565b5f610450601c8361037e565b915061045b8261041c565b602082019050919050565b5f6020820190508181035f83015261047d81610444565b9050919050565b7f4475726174696f6e20746f6f206c6f6e670000000000000000000000000000005f82015250565b5f6104b860118361037e565b91506104c382610484565b602082019050919050565b5f6020820190508181035f8301526104e5816104ac565b9050919050565b7f4e487b71000000000000000000000000000000000000000000000000000000005f52601160045260245ffd5b5f610523826102b5565b915061052e836102b5565b925082820261053c816102b5565b91508282048414831517610553576105526104ec565b5b5092915050565b5f610564826102b5565b915061056f836102b5565b9250828201905080821115610587576105866104ec565b5b92915050565b6125fd8061059a5f395ff3fe6080604052600436106101c5575f3560e01c806378e97925116100f6578063b7e0326411610094578063f25c1e3b11610063578063f25c1e3b146105d7578063f2fde38b146105ed578063fc7e286d14610615578063fe67a54b1461065157610205565b8063b7e032641461052e578063cc6bee5414610559578063d54a8d1814610583578063d57bde79146105ad57610205565b80638a72ea6a116100d05780638a72ea6a146104725780638da5cb5b146104b05780638f9cfe70146104da57806391f901571461050457610205565b806378e97925146104085780637eb79d5d146104325780638456cb591461045c57610205565b8063476343ee116101635780635681104a1161013d5780635681104a146103745780635c975abb1461039e578063654e4685146103c8578063715018a6146103f257610205565b8063476343ee1461030a5780635230a4c314610320578063534823bf1461034a57610205565b80631998aeef1161019f5780631998aeef146102aa5780633197cbb6146102b457806336c2780b146102de5780633f4ba83a146102f457610205565b806308551a5314610240578063117df0881461026a57806312fa6feb1461028057610205565b36610205576040517f08c379a00000000000000000000000000000000000000000000000000000000081526004016101fc90611b99565b60405180910390fd5b6040517f08c379a000000000000000000000000000000000000000000000000000000000815260040161023790611c27565b60405180910390fd5b34801561024b575f5ffd5b50610254610667565b6040516102619190611c84565b60405180910390f35b348015610275575f5ffd5b5061027e61068c565b005b34801561028b575f5ffd5b506102946108cf565b6040516102a19190611cb7565b60405180910390f35b6102b26108e1565b005b3480156102bf575f5ffd5b506102c8610c7e565b6040516102d59190611ce8565b60405180910390f35b3480156102e9575f5ffd5b506102f2610c84565b005b3480156102ff575f5ffd5b50610308610ead565b005b348015610315575f5ffd5b5061031e610ebf565b005b34801561032b575f5ffd5b50610334610fdb565b6040516103419190611ce8565b60405180910390f35b348015610355575f5ffd5b5061035e610fe0565b60405161036b9190611e18565b60405180910390f35b34801561037f575f5ffd5b506103886110a4565b6040516103959190611ce8565b60405180910390f35b3480156103a9575f5ffd5b506103b26110aa565b6040516103bf9190611cb7565b60405180910390f35b3480156103d3575f5ffd5b506103dc6110c0565b6040516103e99190611ce8565b60405180910390f35b3480156103fd575f5ffd5b506104066110c5565b005b348015610413575f5ffd5b5061041c6110d8565b6040516104299190611ce8565b60405180910390f35b34801561043d575f5ffd5b506104466110de565b6040516104539190611ce8565b60405180910390f35b348015610467575f5ffd5b506104706110e4565b005b34801561047d575f5ffd5b5061049860048036038101906104939190611e66565b6110f6565b6040516104a793929190611ea0565b60405180910390f35b3480156104bb575f5ffd5b506104c461114a565b6040516104d19190611ed5565b60405180910390f35b3480156104e5575f5ffd5b506104ee611172565b6040516104fb9190611ce8565b60405180910390f35b34801561050f575f5ffd5b506105186111b6565b6040516105259190611ed5565b60405180910390f35b348015610539575f5ffd5b506105426111db565b604051610550929190611eee565b60405180910390f35b348015610564575f5ffd5b5061056d611265565b60405161057a9190611ce8565b60405180910390f35b34801561058e575f5ffd5b50610597611271565b6040516105a49190611ce8565b60405180910390f35b3480156105b8575f5ffd5b506105c1611309565b6040516105ce9190611ce8565b60405180910390f35b3480156105e2575f5ffd5b506105eb61130f565b005b3480156105f8575f5ffd5b50610613600480360381019061060e9190611f3f565b6113f3565b005b348015610620575f5ffd5b5061063b60048036038101906106369190611f3f565b611477565b6040516106489190611ce8565b60405180910390f35b34801561065c575f5ffd5b5061066561148c565b005b60025f9054906101000a900473ffffffffffffffffffffffffffffffffffffffff1681565b600654421015806106a8575060075f9054906101000a900460ff165b6106e7576040517f08c379a00000000000000000000000000000000000000000000000000000000081526004016106de90611fb4565b60405180910390fd5b60035f9054906101000a900473ffffffffffffffffffffffffffffffffffffffff1673ffffffffffffffffffffffffffffffffffffffff163373ffffffffffffffffffffffffffffffffffffffff1603610776576040517f08c379a000000000000000000000000000000000000000000000000000000000815260040161076d9061201c565b60405180910390fd5b61077e6116cf565b5f60095f3373ffffffffffffffffffffffffffffffffffffffff1673ffffffffffffffffffffffffffffffffffffffff1681526020019081526020015f205490505f8111610801576040517f08c379a00000000000000000000000000000000000000000000000000000000081526004016107f890612084565b60405180910390fd5b5f60095f3373ffffffffffffffffffffffffffffffffffffffff1673ffffffffffffffffffffffffffffffffffffffff1681526020019081526020015f20819055505f5f61084e83611713565b9150915081600b5f82825461086391906120cf565b925050819055506108743382611743565b3373ffffffffffffffffffffffffffffffffffffffff167f7fcf532c15f0a6db0bd6d0e038bea71d30d808c7d98cb3bf7268a95bf5081b65826040516108ba9190611ce8565b60405180910390a25050506108cd611770565b565b60075f9054906101000a900460ff1681565b60075f9054906101000a900460ff161580156108ff57506005544210155b801561090c575060065442105b61094b576040517f08c379a00000000000000000000000000000000000000000000000000000000081526004016109429061214c565b60405180910390fd5b6109536116cf565b61095b611779565b5f341161099d576040517f08c379a0000000000000000000000000000000000000000000000000000000008152600401610994906121b4565b60405180910390fd5b5f3460095f3373ffffffffffffffffffffffffffffffffffffffff1673ffffffffffffffffffffffffffffffffffffffff1681526020019081526020015f20546109e791906120cf565b90505f5f60045414610a135760646069600454610a0491906121d2565b610a0e9190612240565b610a15565b5f5b9050808211610a59576040517f08c379a0000000000000000000000000000000000000000000000000000000008152600401610a50906122e0565b60405180910390fd5b3460095f3373ffffffffffffffffffffffffffffffffffffffff1673ffffffffffffffffffffffffffffffffffffffff1681526020019081526020015f205f828254610aa591906120cf565b92505081905550600860405180606001604052803373ffffffffffffffffffffffffffffffffffffffff16815260200134815260200142815250908060018154018082558091505060019003905f5260205f2090600302015f909190919091505f820151815f015f6101000a81548173ffffffffffffffffffffffffffffffffffffffff021916908373ffffffffffffffffffffffffffffffffffffffff160217905550602082015181600101556040820151816002015550506001600880549050610b7191906122fe565b600a5f3373ffffffffffffffffffffffffffffffffffffffff1673ffffffffffffffffffffffffffffffffffffffff1681526020019081526020015f2081905550816004819055503360035f6101000a81548173ffffffffffffffffffffffffffffffffffffffff021916908373ffffffffffffffffffffffffffffffffffffffff16021790555061025842600654610c0a91906122fe565b11610c245761025842610c1d91906120cf565b6006819055505b3373ffffffffffffffffffffffffffffffffffffffff167f058d619527549e88853c641ebcec23205e5df61592e3908275721b5ad490113f83604051610c6a9190611ce8565b60405180910390a25050610c7c611770565b565b60065481565b60075f9054906101000a900460ff16158015610ca257506005544210155b8015610caf575060065442105b610cee576040517f08c379a0000000000000000000000000000000000000000000000000000000008152600401610ce59061214c565b60405180910390fd5b610cf66116cf565b60035f9054906101000a900473ffffffffffffffffffffffffffffffffffffffff1673ffffffffffffffffffffffffffffffffffffffff163373ffffffffffffffffffffffffffffffffffffffff1603610d85576040517f08c379a0000000000000000000000000000000000000000000000000000000008152600401610d7c906123a1565b60405180910390fd5b5f60095f3373ffffffffffffffffffffffffffffffffffffffff1673ffffffffffffffffffffffffffffffffffffffff1681526020019081526020015f205490505f8111610e08576040517f08c379a0000000000000000000000000000000000000000000000000000000008152600401610dff90612409565b60405180910390fd5b5f60095f3373ffffffffffffffffffffffffffffffffffffffff1673ffffffffffffffffffffffffffffffffffffffff1681526020019081526020015f2081905550610e543382611743565b3373ffffffffffffffffffffffffffffffffffffffff167f7fcf532c15f0a6db0bd6d0e038bea71d30d808c7d98cb3bf7268a95bf5081b6582604051610e9a9190611ce8565b60405180910390a250610eab611770565b565b610eb56117ba565b610ebd611841565b565b60025f9054906101000a900473ffffffffffffffffffffffffffffffffffffffff1673ffffffffffffffffffffffffffffffffffffffff163373ffffffffffffffffffffffffffffffffffffffff1614610f4e576040517f08c379a0000000000000000000000000000000000000000000000000000000008152600401610f4590612471565b60405180910390fd5b610f566116cf565b5f600b5490505f8111610f9e576040517f08c379a0000000000000000000000000000000000000000000000000000000008152600401610f95906124d9565b60405180910390fd5b5f600b81905550610fd060025f9054906101000a900473ffffffffffffffffffffffffffffffffffffffff1682611743565b50610fd9611770565b565b600281565b60606008805480602002602001604051908101604052809291908181526020015f905b8282101561109b578382905f5260205f2090600302016040518060600160405290815f82015f9054906101000a900473ffffffffffffffffffffffffffffffffffffffff1673ffffffffffffffffffffffffffffffffffffffff1673ffffffffffffffffffffffffffffffffffffffff1681526020016001820154815260200160028201548152505081526020019060010190611003565b50505050905090565b61025881565b5f600160149054906101000a900460ff16905090565b606981565b6110cd6117ba565b6110d65f6118a3565b565b60055481565b61025881565b6110ec6117ba565b6110f4611966565b565b60088181548110611105575f80fd5b905f5260205f2090600302015f91509050805f015f9054906101000a900473ffffffffffffffffffffffffffffffffffffffff16908060010154908060020154905083565b5f60015f9054906101000a900473ffffffffffffffffffffffffffffffffffffffff16905090565b5f600a5f3373ffffffffffffffffffffffffffffffffffffffff1673ffffffffffffffffffffffffffffffffffffffff1681526020019081526020015f2054905090565b60035f9054906101000a900473ffffffffffffffffffffffffffffffffffffffff1681565b5f5f600654421015806111f9575060075f9054906101000a900460ff165b611238576040517f08c379a000000000000000000000000000000000000000000000000000000000815260040161122f90611fb4565b60405180910390fd5b60035f9054906101000a900473ffffffffffffffffffffffffffffffffffffffff16600454915091509091565b5f600880549050905090565b5f60025f9054906101000a900473ffffffffffffffffffffffffffffffffffffffff1673ffffffffffffffffffffffffffffffffffffffff163373ffffffffffffffffffffffffffffffffffffffff1614611301576040517f08c379a00000000000000000000000000000000000000000000000000000000081526004016112f890612471565b60405180910390fd5b600b54905090565b60045481565b6113176117ba565b60075f9054906101000a900460ff1615611366576040517f08c379a000000000000000000000000000000000000000000000000000000000815260040161135d90612541565b60405180910390fd5b600160075f6101000a81548160ff02191690831515021790555060035f9054906101000a900473ffffffffffffffffffffffffffffffffffffffff1673ffffffffffffffffffffffffffffffffffffffff167fdaec4582d5d9595688c8c98545fdd1c696d41c6aeaeb636737e84ed2f5c00eda6004546040516113e99190611ce8565b60405180910390a2565b6113fb6117ba565b5f73ffffffffffffffffffffffffffffffffffffffff168173ffffffffffffffffffffffffffffffffffffffff160361146b575f6040517f1e4fbdf70000000000000000000000000000000000000000000000000000000081526004016114629190611ed5565b60405180910390fd5b611474816118a3565b50565b6009602052805f5260405f205f915090505481565b600654421015806114a8575060075f9054906101000a900460ff165b6114e7576040517f08c379a00000000000000000000000000000000000000000000000000000000081526004016114de90611fb4565b60405180910390fd5b6114ef6116cf565b60075f9054906101000a900460ff161561153e576040517f08c379a000000000000000000000000000000000000000000000000000000000815260040161153590612541565b60405180910390fd5b600160075f6101000a81548160ff02191690831515021790555060035f9054906101000a900473ffffffffffffffffffffffffffffffffffffffff1673ffffffffffffffffffffffffffffffffffffffff167fdaec4582d5d9595688c8c98545fdd1c696d41c6aeaeb636737e84ed2f5c00eda6004546040516115c19190611ce8565b60405180910390a25f60045411156116c5575f60095f60035f9054906101000a900473ffffffffffffffffffffffffffffffffffffffff1673ffffffffffffffffffffffffffffffffffffffff1673ffffffffffffffffffffffffffffffffffffffff1681526020019081526020015f205490505f60095f60035f9054906101000a900473ffffffffffffffffffffffffffffffffffffffff1673ffffffffffffffffffffffffffffffffffffffff1673ffffffffffffffffffffffffffffffffffffffff1681526020019081526020015f20819055506116c360025f9054906101000a900473ffffffffffffffffffffffffffffffffffffffff1682611743565b505b6116cd611770565b565b60025f540361170a576040517f3ee5aeb500000000000000000000000000000000000000000000000000000000815260040160405180910390fd5b60025f81905550565b5f5f606460028461172491906121d2565b61172e9190612240565b9150818361173c91906122fe565b9050915091565b61176c818373ffffffffffffffffffffffffffffffffffffffff166119c890919063ffffffff16565b5050565b60015f81905550565b6117816110aa565b156117b8576040517fd93c066500000000000000000000000000000000000000000000000000000000815260040160405180910390fd5b565b6117c2611a8e565b73ffffffffffffffffffffffffffffffffffffffff166117e061114a565b73ffffffffffffffffffffffffffffffffffffffff161461183f57611803611a8e565b6040517f118cdaa70000000000000000000000000000000000000000000000000000000081526004016118369190611ed5565b60405180910390fd5b565b611849611a95565b5f600160146101000a81548160ff0219169083151502179055507f5db9ee0a495bf2e6ff9c91a7834c1ba4fdd244a5e8aa4e537bd38aeae4b073aa61188c611a8e565b6040516118999190611ed5565b60405180910390a1565b5f60015f9054906101000a900473ffffffffffffffffffffffffffffffffffffffff1690508160015f6101000a81548173ffffffffffffffffffffffffffffffffffffffff021916908373ffffffffffffffffffffffffffffffffffffffff1602179055508173ffffffffffffffffffffffffffffffffffffffff168173ffffffffffffffffffffffffffffffffffffffff167f8be0079c531659141344cd1fd0a4f28419497f9722a3daafe3b4186f6b6457e060405160405180910390a35050565b61196e611779565b60018060146101000a81548160ff0219169083151502179055507f62e78cea01bee320cd4e420270b5ea74000d11b0c9f74754ebdbfc544b05a2586119b1611a8e565b6040516119be9190611ed5565b60405180910390a1565b80471015611a0f5747816040517fcf479181000000000000000000000000000000000000000000000000000000008152600401611a0692919061255f565b60405180910390fd5b5f5f8373ffffffffffffffffffffffffffffffffffffffff1683604051611a35906125b3565b5f6040518083038185875af1925050503d805f8114611a6f576040519150601f19603f3d011682016040523d82523d5f602084013e611a74565b606091505b509150915081611a8857611a8781611ad5565b5b50505050565b5f33905090565b611a9d6110aa565b611ad3576040517f8dfc202b00000000000000000000000000000000000000000000000000000000815260040160405180910390fd5b565b5f81511115611ae75780518082602001fd5b6040517fd6bda27500000000000000000000000000000000000000000000000000000000815260040160405180910390fd5b5f82825260208201905092915050565b7f506c6561736520757365207468652062696428292066756e6374696f6e20746f5f8201527f2070617274696369706174652e00000000000000000000000000000000000000602082015250565b5f611b83602d83611b19565b9150611b8e82611b29565b604082019050919050565b5f6020820190508181035f830152611bb081611b77565b9050919050565b7f496e76616c69642063616c6c2e205573652074686520636f72726563742066755f8201527f6e6374696f6e2e00000000000000000000000000000000000000000000000000602082015250565b5f611c11602783611b19565b9150611c1c82611bb7565b604082019050919050565b5f6020820190508181035f830152611c3e81611c05565b9050919050565b5f73ffffffffffffffffffffffffffffffffffffffff82169050919050565b5f611c6e82611c45565b9050919050565b611c7e81611c64565b82525050565b5f602082019050611c975f830184611c75565b92915050565b5f8115159050919050565b611cb181611c9d565b82525050565b5f602082019050611cca5f830184611ca8565b92915050565b5f819050919050565b611ce281611cd0565b82525050565b5f602082019050611cfb5f830184611cd9565b92915050565b5f81519050919050565b5f82825260208201905092915050565b5f819050602082019050919050565b5f611d3482611c45565b9050919050565b611d4481611d2a565b82525050565b611d5381611cd0565b82525050565b606082015f820151611d6d5f850182611d3b565b506020820151611d806020850182611d4a565b506040820151611d936040850182611d4a565b50505050565b5f611da48383611d59565b60608301905092915050565b5f602082019050919050565b5f611dc682611d01565b611dd08185611d0b565b9350611ddb83611d1b565b805f5b83811015611e0b578151611df28882611d99565b9750611dfd83611db0565b925050600181019050611dde565b5085935050505092915050565b5f6020820190508181035f830152611e308184611dbc565b905092915050565b5f5ffd5b611e4581611cd0565b8114611e4f575f5ffd5b50565b5f81359050611e6081611e3c565b92915050565b5f60208284031215611e7b57611e7a611e38565b5b5f611e8884828501611e52565b91505092915050565b611e9a81611d2a565b82525050565b5f606082019050611eb35f830186611e91565b611ec06020830185611cd9565b611ecd6040830184611cd9565b949350505050565b5f602082019050611ee85f830184611e91565b92915050565b5f604082019050611f015f830185611e91565b611f0e6020830184611cd9565b9392505050565b611f1e81611d2a565b8114611f28575f5ffd5b50565b5f81359050611f3981611f15565b92915050565b5f60208284031215611f5457611f53611e38565b5b5f611f6184828501611f2b565b91505092915050565b7f41756374696f6e206e6f742079657420656e64656400000000000000000000005f82015250565b5f611f9e601583611b19565b9150611fa982611f6a565b602082019050919050565b5f6020820190508181035f830152611fcb81611f92565b9050919050565b7f57696e6e65722063616e6e6f7420776974686472617720726566756e640000005f82015250565b5f612006601d83611b19565b915061201182611fd2565b602082019050919050565b5f6020820190508181035f83015261203381611ffa565b9050919050565b7f4e6f2066756e647320746f2077697468647261770000000000000000000000005f82015250565b5f61206e601483611b19565b91506120798261203a565b602082019050919050565b5f6020820190508181035f83015261209b81612062565b9050919050565b7f4e487b71000000000000000000000000000000000000000000000000000000005f52601160045260245ffd5b5f6120d982611cd0565b91506120e483611cd0565b92508282019050808211156120fc576120fb6120a2565b5b92915050565b7f41756374696f6e206973206e6f742061637469766500000000000000000000005f82015250565b5f612136601583611b19565b915061214182612102565b602082019050919050565b5f6020820190508181035f8301526121638161212a565b9050919050565b7f426964206d7573742062652067726561746572207468616e20300000000000005f82015250565b5f61219e601a83611b19565b91506121a98261216a565b602082019050919050565b5f6020820190508181035f8301526121cb81612192565b9050919050565b5f6121dc82611cd0565b91506121e783611cd0565b92508282026121f581611cd0565b9150828204841483151761220c5761220b6120a2565b5b5092915050565b7f4e487b71000000000000000000000000000000000000000000000000000000005f52601260045260245ffd5b5f61224a82611cd0565b915061225583611cd0565b92508261226557612264612213565b5b828204905092915050565b7f426964206d757374206265206174206c656173742035252068696768657220745f8201527f68616e2068696768657374206269640000000000000000000000000000000000602082015250565b5f6122ca602f83611b19565b91506122d582612270565b604082019050919050565b5f6020820190508181035f8301526122f7816122be565b9050919050565b5f61230882611cd0565b915061231383611cd0565b925082820390508181111561232b5761232a6120a2565b5b92915050565b7f43757272656e742068696768657374206269646465722063616e6e6f742077695f8201527f7468647261770000000000000000000000000000000000000000000000000000602082015250565b5f61238b602683611b19565b915061239682612331565b604082019050919050565b5f6020820190508181035f8301526123b88161237f565b9050919050565b7f4e6f206578636573732066756e647320746f20776974686472617700000000005f82015250565b5f6123f3601b83611b19565b91506123fe826123bf565b602082019050919050565b5f6020820190508181035f830152612420816123e7565b9050919050565b7f4f6e6c792073656c6c65722063616e2063616c6c0000000000000000000000005f82015250565b5f61245b601483611b19565b915061246682612427565b602082019050919050565b5f6020820190508181035f8301526124888161244f565b9050919050565b7f4e6f206665657320746f207769746864726177000000000000000000000000005f82015250565b5f6124c3601383611b19565b91506124ce8261248f565b602082019050919050565b5f6020820190508181035f8301526124f0816124b7565b9050919050565b7f416c726561647920656e646564000000000000000000000000000000000000005f82015250565b5f61252b600d83611b19565b9150612536826124f7565b602082019050919050565b5f6020820190508181035f8301526125588161251f565b9050919050565b5f6040820190506125725f830185611cd9565b61257f6020830184611cd9565b9392505050565b5f81905092915050565b50565b5f61259e5f83612586565b91506125a982612590565b5f82019050919050565b5f6125bd82612593565b915081905091905056fea2646970667358221220139b20dc80219a3001268b72b7bf217dbf2aff927f43766f4a54bc4bab64ad9764736f6c634300081e0033",
					"opcodes": "PUSH1 0x80 PUSH1 0x40 MSTORE CALLVALUE DUP1 ISZERO PUSH2 0xF JUMPI PUSH0 PUSH0 REVERT JUMPDEST POP PUSH1 0x40 MLOAD PUSH2 0x2B97 CODESIZE SUB DUP1 PUSH2 0x2B97 DUP4 CODECOPY DUP2 DUP2 ADD PUSH1 0x40 MSTORE DUP2 ADD SWAP1 PUSH2 0x31 SWAP2 SWAP1 PUSH2 0x2E8 JUMP JUMPDEST CALLER PUSH1 0x1 PUSH0 DUP2 SWAP1 SSTORE POP PUSH0 PUSH20 0xFFFFFFFFFFFFFFFFFFFFFFFFFFFFFFFFFFFFFFFF AND DUP2 PUSH20 0xFFFFFFFFFFFFFFFFFFFFFFFFFFFFFFFFFFFFFFFF AND SUB PUSH2 0xA9 JUMPI PUSH0 PUSH1 0x40 MLOAD PUSH32 0x1E4FBDF700000000000000000000000000000000000000000000000000000000 DUP2 MSTORE PUSH1 0x4 ADD PUSH2 0xA0 SWAP2 SWAP1 PUSH2 0x365 JUMP JUMPDEST PUSH1 0x40 MLOAD DUP1 SWAP2 SUB SWAP1 REVERT JUMPDEST PUSH2 0xB8 DUP2 PUSH2 0x1EE PUSH1 0x20 SHL PUSH1 0x20 SHR JUMP JUMPDEST POP PUSH0 DUP2 GT PUSH2 0xFB JUMPI PUSH1 0x40 MLOAD PUSH32 0x8C379A000000000000000000000000000000000000000000000000000000000 DUP2 MSTORE PUSH1 0x4 ADD PUSH2 0xF2 SWAP1 PUSH2 0x3FE JUMP JUMPDEST PUSH1 0x40 MLOAD DUP1 SWAP2 SUB SWAP1 REVERT JUMPDEST TIMESTAMP DUP3 GT PUSH2 0x13D JUMPI PUSH1 0x40 MLOAD PUSH32 0x8C379A000000000000000000000000000000000000000000000000000000000 DUP2 MSTORE PUSH1 0x4 ADD PUSH2 0x134 SWAP1 PUSH2 0x466 JUMP JUMPDEST PUSH1 0x40 MLOAD DUP1 SWAP2 SUB SWAP1 REVERT JUMPDEST PUSH2 0xA8C0 DUP2 GT ISZERO PUSH2 0x182 JUMPI PUSH1 0x40 MLOAD PUSH32 0x8C379A000000000000000000000000000000000000000000000000000000000 DUP2 MSTORE PUSH1 0x4 ADD PUSH2 0x179 SWAP1 PUSH2 0x4CE JUMP JUMPDEST PUSH1 0x40 MLOAD DUP1 SWAP2 SUB SWAP1 REVERT JUMPDEST CALLER PUSH1 0x2 PUSH0 PUSH2 0x100 EXP DUP2 SLOAD DUP2 PUSH20 0xFFFFFFFFFFFFFFFFFFFFFFFFFFFFFFFFFFFFFFFF MUL NOT AND SWAP1 DUP4 PUSH20 0xFFFFFFFFFFFFFFFFFFFFFFFFFFFFFFFFFFFFFFFF AND MUL OR SWAP1 SSTORE POP DUP2 PUSH1 0x5 DUP2 SWAP1 SSTORE POP PUSH1 0x3C DUP2 PUSH2 0x1D6 SWAP2 SWAP1 PUSH2 0x519 JUMP JUMPDEST DUP3 PUSH2 0x1E1 SWAP2 SWAP1 PUSH2 0x55A JUMP JUMPDEST PUSH1 0x6 DUP2 SWAP1 SSTORE POP POP POP PUSH2 0x58D JUMP JUMPDEST PUSH0 PUSH1 0x1 PUSH0 SWAP1 SLOAD SWAP1 PUSH2 0x100 EXP SWAP1 DIV PUSH20 0xFFFFFFFFFFFFFFFFFFFFFFFFFFFFFFFFFFFFFFFF AND SWAP1 POP DUP2 PUSH1 0x1 PUSH0 PUSH2 0x100 EXP DUP2 SLOAD DUP2 PUSH20 0xFFFFFFFFFFFFFFFFFFFFFFFFFFFFFFFFFFFFFFFF MUL NOT AND SWAP1 DUP4 PUSH20 0xFFFFFFFFFFFFFFFFFFFFFFFFFFFFFFFFFFFFFFFF AND MUL OR SWAP1 SSTORE POP DUP2 PUSH20 0xFFFFFFFFFFFFFFFFFFFFFFFFFFFFFFFFFFFFFFFF AND DUP2 PUSH20 0xFFFFFFFFFFFFFFFFFFFFFFFFFFFFFFFFFFFFFFFF AND PUSH32 0x8BE0079C531659141344CD1FD0A4F28419497F9722A3DAAFE3B4186F6B6457E0 PUSH1 0x40 MLOAD PUSH1 0x40 MLOAD DUP1 SWAP2 SUB SWAP1 LOG3 POP POP JUMP JUMPDEST PUSH0 PUSH0 REVERT JUMPDEST PUSH0 DUP2 SWAP1 POP SWAP2 SWAP1 POP JUMP JUMPDEST PUSH2 0x2C7 DUP2 PUSH2 0x2B5 JUMP JUMPDEST DUP2 EQ PUSH2 0x2D1 JUMPI PUSH0 PUSH0 REVERT JUMPDEST POP JUMP JUMPDEST PUSH0 DUP2 MLOAD SWAP1 POP PUSH2 0x2E2 DUP2 PUSH2 0x2BE JUMP JUMPDEST SWAP3 SWAP2 POP POP JUMP JUMPDEST PUSH0 PUSH0 PUSH1 0x40 DUP4 DUP6 SUB SLT ISZERO PUSH2 0x2FE JUMPI PUSH2 0x2FD PUSH2 0x2B1 JUMP JUMPDEST JUMPDEST PUSH0 PUSH2 0x30B DUP6 DUP3 DUP7 ADD PUSH2 0x2D4 JUMP JUMPDEST SWAP3 POP POP PUSH1 0x20 PUSH2 0x31C DUP6 DUP3 DUP7 ADD PUSH2 0x2D4 JUMP JUMPDEST SWAP2 POP POP SWAP3 POP SWAP3 SWAP1 POP JUMP JUMPDEST PUSH0 PUSH20 0xFFFFFFFFFFFFFFFFFFFFFFFFFFFFFFFFFFFFFFFF DUP3 AND SWAP1 POP SWAP2 SWAP1 POP JUMP JUMPDEST PUSH0 PUSH2 0x34F DUP3 PUSH2 0x326 JUMP JUMPDEST SWAP1 POP SWAP2 SWAP1 POP JUMP JUMPDEST PUSH2 0x35F DUP2 PUSH2 0x345 JUMP JUMPDEST DUP3 MSTORE POP POP JUMP JUMPDEST PUSH0 PUSH1 0x20 DUP3 ADD SWAP1 POP PUSH2 0x378 PUSH0 DUP4 ADD DUP5 PUSH2 0x356 JUMP JUMPDEST SWAP3 SWAP2 POP POP JUMP JUMPDEST PUSH0 DUP3 DUP3 MSTORE PUSH1 0x20 DUP3 ADD SWAP1 POP SWAP3 SWAP2 POP POP JUMP JUMPDEST PUSH32 0x4475726174696F6E206D7573742062652067726561746572207468616E207A65 PUSH0 DUP3 ADD MSTORE PUSH32 0x726F000000000000000000000000000000000000000000000000000000000000 PUSH1 0x20 DUP3 ADD MSTORE POP JUMP JUMPDEST PUSH0 PUSH2 0x3E8 PUSH1 0x22 DUP4 PUSH2 0x37E JUMP JUMPDEST SWAP2 POP PUSH2 0x3F3 DUP3 PUSH2 0x38E JUMP JUMPDEST PUSH1 0x40 DUP3 ADD SWAP1 POP SWAP2 SWAP1 POP JUMP JUMPDEST PUSH0 PUSH1 0x20 DUP3 ADD SWAP1 POP DUP2 DUP2 SUB PUSH0 DUP4 ADD MSTORE PUSH2 0x415 DUP2 PUSH2 0x3DC JUMP JUMPDEST SWAP1 POP SWAP2 SWAP1 POP JUMP JUMPDEST PUSH32 0x53746172742074696D65206D75737420626520696E2066757475726500000000 PUSH0 DUP3 ADD MSTORE POP JUMP JUMPDEST PUSH0 PUSH2 0x450 PUSH1 0x1C DUP4 PUSH2 0x37E JUMP JUMPDEST SWAP2 POP PUSH2 0x45B DUP3 PUSH2 0x41C JUMP JUMPDEST PUSH1 0x20 DUP3 ADD SWAP1 POP SWAP2 SWAP1 POP JUMP JUMPDEST PUSH0 PUSH1 0x20 DUP3 ADD SWAP1 POP DUP2 DUP2 SUB PUSH0 DUP4 ADD MSTORE PUSH2 0x47D DUP2 PUSH2 0x444 JUMP JUMPDEST SWAP1 POP SWAP2 SWAP1 POP JUMP JUMPDEST PUSH32 0x4475726174696F6E20746F6F206C6F6E67000000000000000000000000000000 PUSH0 DUP3 ADD MSTORE POP JUMP JUMPDEST PUSH0 PUSH2 0x4B8 PUSH1 0x11 DUP4 PUSH2 0x37E JUMP JUMPDEST SWAP2 POP PUSH2 0x4C3 DUP3 PUSH2 0x484 JUMP JUMPDEST PUSH1 0x20 DUP3 ADD SWAP1 POP SWAP2 SWAP1 POP JUMP JUMPDEST PUSH0 PUSH1 0x20 DUP3 ADD SWAP1 POP DUP2 DUP2 SUB PUSH0 DUP4 ADD MSTORE PUSH2 0x4E5 DUP2 PUSH2 0x4AC JUMP JUMPDEST SWAP1 POP SWAP2 SWAP1 POP JUMP JUMPDEST PUSH32 0x4E487B7100000000000000000000000000000000000000000000000000000000 PUSH0 MSTORE PUSH1 0x11 PUSH1 0x4 MSTORE PUSH1 0x24 PUSH0 REVERT JUMPDEST PUSH0 PUSH2 0x523 DUP3 PUSH2 0x2B5 JUMP JUMPDEST SWAP2 POP PUSH2 0x52E DUP4 PUSH2 0x2B5 JUMP JUMPDEST SWAP3 POP DUP3 DUP3 MUL PUSH2 0x53C DUP2 PUSH2 0x2B5 JUMP JUMPDEST SWAP2 POP DUP3 DUP3 DIV DUP5 EQ DUP4 ISZERO OR PUSH2 0x553 JUMPI PUSH2 0x552 PUSH2 0x4EC JUMP JUMPDEST JUMPDEST POP SWAP3 SWAP2 POP POP JUMP JUMPDEST PUSH0 PUSH2 0x564 DUP3 PUSH2 0x2B5 JUMP JUMPDEST SWAP2 POP PUSH2 0x56F DUP4 PUSH2 0x2B5 JUMP JUMPDEST SWAP3 POP DUP3 DUP3 ADD SWAP1 POP DUP1 DUP3 GT ISZERO PUSH2 0x587 JUMPI PUSH2 0x586 PUSH2 0x4EC JUMP JUMPDEST JUMPDEST SWAP3 SWAP2 POP POP JUMP JUMPDEST PUSH2 0x25FD DUP1 PUSH2 0x59A PUSH0 CODECOPY PUSH0 RETURN INVALID PUSH1 0x80 PUSH1 0x40 MSTORE PUSH1 0x4 CALLDATASIZE LT PUSH2 0x1C5 JUMPI PUSH0 CALLDATALOAD PUSH1 0xE0 SHR DUP1 PUSH4 0x78E97925 GT PUSH2 0xF6 JUMPI DUP1 PUSH4 0xB7E03264 GT PUSH2 0x94 JUMPI DUP1 PUSH4 0xF25C1E3B GT PUSH2 0x63 JUMPI DUP1 PUSH4 0xF25C1E3B EQ PUSH2 0x5D7 JUMPI DUP1 PUSH4 0xF2FDE38B EQ PUSH2 0x5ED JUMPI DUP1 PUSH4 0xFC7E286D EQ PUSH2 0x615 JUMPI DUP1 PUSH4 0xFE67A54B EQ PUSH2 0x651 JUMPI PUSH2 0x205 JUMP JUMPDEST DUP1 PUSH4 0xB7E03264 EQ PUSH2 0x52E JUMPI DUP1 PUSH4 0xCC6BEE54 EQ PUSH2 0x559 JUMPI DUP1 PUSH4 0xD54A8D18 EQ PUSH2 0x583 JUMPI DUP1 PUSH4 0xD57BDE79 EQ PUSH2 0x5AD JUMPI PUSH2 0x205 JUMP JUMPDEST DUP1 PUSH4 0x8A72EA6A GT PUSH2 0xD0 JUMPI DUP1 PUSH4 0x8A72EA6A EQ PUSH2 0x472 JUMPI DUP1 PUSH4 0x8DA5CB5B EQ PUSH2 0x4B0 JUMPI DUP1 PUSH4 0x8F9CFE70 EQ PUSH2 0x4DA JUMPI DUP1 PUSH4 0x91F90157 EQ PUSH2 0x504 JUMPI PUSH2 0x205 JUMP JUMPDEST DUP1 PUSH4 0x78E97925 EQ PUSH2 0x408 JUMPI DUP1 PUSH4 0x7EB79D5D EQ PUSH2 0x432 JUMPI DUP1 PUSH4 0x8456CB59 EQ PUSH2 0x45C JUMPI PUSH2 0x205 JUMP JUMPDEST DUP1 PUSH4 0x476343EE GT PUSH2 0x163 JUMPI DUP1 PUSH4 0x5681104A GT PUSH2 0x13D JUMPI DUP1 PUSH4 0x5681104A EQ PUSH2 0x374 JUMPI DUP1 PUSH4 0x5C975ABB EQ PUSH2 0x39E JUMPI DUP1 PUSH4 0x654E4685 EQ PUSH2 0x3C8 JUMPI DUP1 PUSH4 0x715018A6 EQ PUSH2 0x3F2 JUMPI PUSH2 0x205 JUMP JUMPDEST DUP1 PUSH4 0x476343EE EQ PUSH2 0x30A JUMPI DUP1 PUSH4 0x5230A4C3 EQ PUSH2 0x320 JUMPI DUP1 PUSH4 0x534823BF EQ PUSH2 0x34A JUMPI PUSH2 0x205 JUMP JUMPDEST DUP1 PUSH4 0x1998AEEF GT PUSH2 0x19F JUMPI DUP1 PUSH4 0x1998AEEF EQ PUSH2 0x2AA JUMPI DUP1 PUSH4 0x3197CBB6 EQ PUSH2 0x2B4 JUMPI DUP1 PUSH4 0x36C2780B EQ PUSH2 0x2DE JUMPI DUP1 PUSH4 0x3F4BA83A EQ PUSH2 0x2F4 JUMPI PUSH2 0x205 JUMP JUMPDEST DUP1 PUSH4 0x8551A53 EQ PUSH2 0x240 JUMPI DUP1 PUSH4 0x117DF088 EQ PUSH2 0x26A JUMPI DUP1 PUSH4 0x12FA6FEB EQ PUSH2 0x280 JUMPI PUSH2 0x205 JUMP JUMPDEST CALLDATASIZE PUSH2 0x205 JUMPI PUSH1 0x40 MLOAD PUSH32 0x8C379A000000000000000000000000000000000000000000000000000000000 DUP2 MSTORE PUSH1 0x4 ADD PUSH2 0x1FC SWAP1 PUSH2 0x1B99 JUMP JUMPDEST PUSH1 0x40 MLOAD DUP1 SWAP2 SUB SWAP1 REVERT JUMPDEST PUSH1 0x40 MLOAD PUSH32 0x8C379A000000000000000000000000000000000000000000000000000000000 DUP2 MSTORE PUSH1 0x4 ADD PUSH2 0x237 SWAP1 PUSH2 0x1C27 JUMP JUMPDEST PUSH1 0x40 MLOAD DUP1 SWAP2 SUB SWAP1 REVERT JUMPDEST CALLVALUE DUP1 ISZERO PUSH2 0x24B JUMPI PUSH0 PUSH0 REVERT JUMPDEST POP PUSH2 0x254 PUSH2 0x667 JUMP JUMPDEST PUSH1 0x40 MLOAD PUSH2 0x261 SWAP2 SWAP1 PUSH2 0x1C84 JUMP JUMPDEST PUSH1 0x40 MLOAD DUP1 SWAP2 SUB SWAP1 RETURN JUMPDEST CALLVALUE DUP1 ISZERO PUSH2 0x275 JUMPI PUSH0 PUSH0 REVERT JUMPDEST POP PUSH2 0x27E PUSH2 0x68C JUMP JUMPDEST STOP JUMPDEST CALLVALUE DUP1 ISZERO PUSH2 0x28B JUMPI PUSH0 PUSH0 REVERT JUMPDEST POP PUSH2 0x294 PUSH2 0x8CF JUMP JUMPDEST PUSH1 0x40 MLOAD PUSH2 0x2A1 SWAP2 SWAP1 PUSH2 0x1CB7 JUMP JUMPDEST PUSH1 0x40 MLOAD DUP1 SWAP2 SUB SWAP1 RETURN JUMPDEST PUSH2 0x2B2 PUSH2 0x8E1 JUMP JUMPDEST STOP JUMPDEST CALLVALUE DUP1 ISZERO PUSH2 0x2BF JUMPI PUSH0 PUSH0 REVERT JUMPDEST POP PUSH2 0x2C8 PUSH2 0xC7E JUMP JUMPDEST PUSH1 0x40 MLOAD PUSH2 0x2D5 SWAP2 SWAP1 PUSH2 0x1CE8 JUMP JUMPDEST PUSH1 0x40 MLOAD DUP1 SWAP2 SUB SWAP1 RETURN JUMPDEST CALLVALUE DUP1 ISZERO PUSH2 0x2E9 JUMPI PUSH0 PUSH0 REVERT JUMPDEST POP PUSH2 0x2F2 PUSH2 0xC84 JUMP JUMPDEST STOP JUMPDEST CALLVALUE DUP1 ISZERO PUSH2 0x2FF JUMPI PUSH0 PUSH0 REVERT JUMPDEST POP PUSH2 0x308 PUSH2 0xEAD JUMP JUMPDEST STOP JUMPDEST CALLVALUE DUP1 ISZERO PUSH2 0x315 JUMPI PUSH0 PUSH0 REVERT JUMPDEST POP PUSH2 0x31E PUSH2 0xEBF JUMP JUMPDEST STOP JUMPDEST CALLVALUE DUP1 ISZERO PUSH2 0x32B JUMPI PUSH0 PUSH0 REVERT JUMPDEST POP PUSH2 0x334 PUSH2 0xFDB JUMP JUMPDEST PUSH1 0x40 MLOAD PUSH2 0x341 SWAP2 SWAP1 PUSH2 0x1CE8 JUMP JUMPDEST PUSH1 0x40 MLOAD DUP1 SWAP2 SUB SWAP1 RETURN JUMPDEST CALLVALUE DUP1 ISZERO PUSH2 0x355 JUMPI PUSH0 PUSH0 REVERT JUMPDEST POP PUSH2 0x35E PUSH2 0xFE0 JUMP JUMPDEST PUSH1 0x40 MLOAD PUSH2 0x36B SWAP2 SWAP1 PUSH2 0x1E18 JUMP JUMPDEST PUSH1 0x40 MLOAD DUP1 SWAP2 SUB SWAP1 RETURN JUMPDEST CALLVALUE DUP1 ISZERO PUSH2 0x37F JUMPI PUSH0 PUSH0 REVERT JUMPDEST POP PUSH2 0x388 PUSH2 0x10A4 JUMP JUMPDEST PUSH1 0x40 MLOAD PUSH2 0x395 SWAP2 SWAP1 PUSH2 0x1CE8 JUMP JUMPDEST PUSH1 0x40 MLOAD DUP1 SWAP2 SUB SWAP1 RETURN JUMPDEST CALLVALUE DUP1 ISZERO PUSH2 0x3A9 JUMPI PUSH0 PUSH0 REVERT JUMPDEST POP PUSH2 0x3B2 PUSH2 0x10AA JUMP JUMPDEST PUSH1 0x40 MLOAD PUSH2 0x3BF SWAP2 SWAP1 PUSH2 0x1CB7 JUMP JUMPDEST PUSH1 0x40 MLOAD DUP1 SWAP2 SUB SWAP1 RETURN JUMPDEST CALLVALUE DUP1 ISZERO PUSH2 0x3D3 JUMPI PUSH0 PUSH0 REVERT JUMPDEST POP PUSH2 0x3DC PUSH2 0x10C0 JUMP JUMPDEST PUSH1 0x40 MLOAD PUSH2 0x3E9 SWAP2 SWAP1 PUSH2 0x1CE8 JUMP JUMPDEST PUSH1 0x40 MLOAD DUP1 SWAP2 SUB SWAP1 RETURN JUMPDEST CALLVALUE DUP1 ISZERO PUSH2 0x3FD JUMPI PUSH0 PUSH0 REVERT JUMPDEST POP PUSH2 0x406 PUSH2 0x10C5 JUMP JUMPDEST STOP JUMPDEST CALLVALUE DUP1 ISZERO PUSH2 0x413 JUMPI PUSH0 PUSH0 REVERT JUMPDEST POP PUSH2 0x41C PUSH2 0x10D8 JUMP JUMPDEST PUSH1 0x40 MLOAD PUSH2 0x429 SWAP2 SWAP1 PUSH2 0x1CE8 JUMP JUMPDEST PUSH1 0x40 MLOAD DUP1 SWAP2 SUB SWAP1 RETURN JUMPDEST CALLVALUE DUP1 ISZERO PUSH2 0x43D JUMPI PUSH0 PUSH0 REVERT JUMPDEST POP PUSH2 0x446 PUSH2 0x10DE JUMP JUMPDEST PUSH1 0x40 MLOAD PUSH2 0x453 SWAP2 SWAP1 PUSH2 0x1CE8 JUMP JUMPDEST PUSH1 0x40 MLOAD DUP1 SWAP2 SUB SWAP1 RETURN JUMPDEST CALLVALUE DUP1 ISZERO PUSH2 0x467 JUMPI PUSH0 PUSH0 REVERT JUMPDEST POP PUSH2 0x470 PUSH2 0x10E4 JUMP JUMPDEST STOP JUMPDEST CALLVALUE DUP1 ISZERO PUSH2 0x47D JUMPI PUSH0 PUSH0 REVERT JUMPDEST POP PUSH2 0x498 PUSH1 0x4 DUP1 CALLDATASIZE SUB DUP2 ADD SWAP1 PUSH2 0x493 SWAP2 SWAP1 PUSH2 0x1E66 JUMP JUMPDEST PUSH2 0x10F6 JUMP JUMPDEST PUSH1 0x40 MLOAD PUSH2 0x4A7 SWAP4 SWAP3 SWAP2 SWAP1 PUSH2 0x1EA0 JUMP JUMPDEST PUSH1 0x40 MLOAD DUP1 SWAP2 SUB SWAP1 RETURN JUMPDEST CALLVALUE DUP1 ISZERO PUSH2 0x4BB JUMPI PUSH0 PUSH0 REVERT JUMPDEST POP PUSH2 0x4C4 PUSH2 0x114A JUMP JUMPDEST PUSH1 0x40 MLOAD PUSH2 0x4D1 SWAP2 SWAP1 PUSH2 0x1ED5 JUMP JUMPDEST PUSH1 0x40 MLOAD DUP1 SWAP2 SUB SWAP1 RETURN JUMPDEST CALLVALUE DUP1 ISZERO PUSH2 0x4E5 JUMPI PUSH0 PUSH0 REVERT JUMPDEST POP PUSH2 0x4EE PUSH2 0x1172 JUMP JUMPDEST PUSH1 0x40 MLOAD PUSH2 0x4FB SWAP2 SWAP1 PUSH2 0x1CE8 JUMP JUMPDEST PUSH1 0x40 MLOAD DUP1 SWAP2 SUB SWAP1 RETURN JUMPDEST CALLVALUE DUP1 ISZERO PUSH2 0x50F JUMPI PUSH0 PUSH0 REVERT JUMPDEST POP PUSH2 0x518 PUSH2 0x11B6 JUMP JUMPDEST PUSH1 0x40 MLOAD PUSH2 0x525 SWAP2 SWAP1 PUSH2 0x1ED5 JUMP JUMPDEST PUSH1 0x40 MLOAD DUP1 SWAP2 SUB SWAP1 RETURN JUMPDEST CALLVALUE DUP1 ISZERO PUSH2 0x539 JUMPI PUSH0 PUSH0 REVERT JUMPDEST POP PUSH2 0x542 PUSH2 0x11DB JUMP JUMPDEST PUSH1 0x40 MLOAD PUSH2 0x550 SWAP3 SWAP2 SWAP1 PUSH2 0x1EEE JUMP JUMPDEST PUSH1 0x40 MLOAD DUP1 SWAP2 SUB SWAP1 RETURN JUMPDEST CALLVALUE DUP1 ISZERO PUSH2 0x564 JUMPI PUSH0 PUSH0 REVERT JUMPDEST POP PUSH2 0x56D PUSH2 0x1265 JUMP JUMPDEST PUSH1 0x40 MLOAD PUSH2 0x57A SWAP2 SWAP1 PUSH2 0x1CE8 JUMP JUMPDEST PUSH1 0x40 MLOAD DUP1 SWAP2 SUB SWAP1 RETURN JUMPDEST CALLVALUE DUP1 ISZERO PUSH2 0x58E JUMPI PUSH0 PUSH0 REVERT JUMPDEST POP PUSH2 0x597 PUSH2 0x1271 JUMP JUMPDEST PUSH1 0x40 MLOAD PUSH2 0x5A4 SWAP2 SWAP1 PUSH2 0x1CE8 JUMP JUMPDEST PUSH1 0x40 MLOAD DUP1 SWAP2 SUB SWAP1 RETURN JUMPDEST CALLVALUE DUP1 ISZERO PUSH2 0x5B8 JUMPI PUSH0 PUSH0 REVERT JUMPDEST POP PUSH2 0x5C1 PUSH2 0x1309 JUMP JUMPDEST PUSH1 0x40 MLOAD PUSH2 0x5CE SWAP2 SWAP1 PUSH2 0x1CE8 JUMP JUMPDEST PUSH1 0x40 MLOAD DUP1 SWAP2 SUB SWAP1 RETURN JUMPDEST CALLVALUE DUP1 ISZERO PUSH2 0x5E2 JUMPI PUSH0 PUSH0 REVERT JUMPDEST POP PUSH2 0x5EB PUSH2 0x130F JUMP JUMPDEST STOP JUMPDEST CALLVALUE DUP1 ISZERO PUSH2 0x5F8 JUMPI PUSH0 PUSH0 REVERT JUMPDEST POP PUSH2 0x613 PUSH1 0x4 DUP1 CALLDATASIZE SUB DUP2 ADD SWAP1 PUSH2 0x60E SWAP2 SWAP1 PUSH2 0x1F3F JUMP JUMPDEST PUSH2 0x13F3 JUMP JUMPDEST STOP JUMPDEST CALLVALUE DUP1 ISZERO PUSH2 0x620 JUMPI PUSH0 PUSH0 REVERT JUMPDEST POP PUSH2 0x63B PUSH1 0x4 DUP1 CALLDATASIZE SUB DUP2 ADD SWAP1 PUSH2 0x636 SWAP2 SWAP1 PUSH2 0x1F3F JUMP JUMPDEST PUSH2 0x1477 JUMP JUMPDEST PUSH1 0x40 MLOAD PUSH2 0x648 SWAP2 SWAP1 PUSH2 0x1CE8 JUMP JUMPDEST PUSH1 0x40 MLOAD DUP1 SWAP2 SUB SWAP1 RETURN JUMPDEST CALLVALUE DUP1 ISZERO PUSH2 0x65C JUMPI PUSH0 PUSH0 REVERT JUMPDEST POP PUSH2 0x665 PUSH2 0x148C JUMP JUMPDEST STOP JUMPDEST PUSH1 0x2 PUSH0 SWAP1 SLOAD SWAP1 PUSH2 0x100 EXP SWAP1 DIV PUSH20 0xFFFFFFFFFFFFFFFFFFFFFFFFFFFFFFFFFFFFFFFF AND DUP2 JUMP JUMPDEST PUSH1 0x6 SLOAD TIMESTAMP LT ISZERO DUP1 PUSH2 0x6A8 JUMPI POP PUSH1 0x7 PUSH0 SWAP1 SLOAD SWAP1 PUSH2 0x100 EXP SWAP1 DIV PUSH1 0xFF AND JUMPDEST PUSH2 0x6E7 JUMPI PUSH1 0x40 MLOAD PUSH32 0x8C379A000000000000000000000000000000000000000000000000000000000 DUP2 MSTORE PUSH1 0x4 ADD PUSH2 0x6DE SWAP1 PUSH2 0x1FB4 JUMP JUMPDEST PUSH1 0x40 MLOAD DUP1 SWAP2 SUB SWAP1 REVERT JUMPDEST PUSH1 0x3 PUSH0 SWAP1 SLOAD SWAP1 PUSH2 0x100 EXP SWAP1 DIV PUSH20 0xFFFFFFFFFFFFFFFFFFFFFFFFFFFFFFFFFFFFFFFF AND PUSH20 0xFFFFFFFFFFFFFFFFFFFFFFFFFFFFFFFFFFFFFFFF AND CALLER PUSH20 0xFFFFFFFFFFFFFFFFFFFFFFFFFFFFFFFFFFFFFFFF AND SUB PUSH2 0x776 JUMPI PUSH1 0x40 MLOAD PUSH32 0x8C379A000000000000000000000000000000000000000000000000000000000 DUP2 MSTORE PUSH1 0x4 ADD PUSH2 0x76D SWAP1 PUSH2 0x201C JUMP JUMPDEST PUSH1 0x40 MLOAD DUP1 SWAP2 SUB SWAP1 REVERT JUMPDEST PUSH2 0x77E PUSH2 0x16CF JUMP JUMPDEST PUSH0 PUSH1 0x9 PUSH0 CALLER PUSH20 0xFFFFFFFFFFFFFFFFFFFFFFFFFFFFFFFFFFFFFFFF AND PUSH20 0xFFFFFFFFFFFFFFFFFFFFFFFFFFFFFFFFFFFFFFFF AND DUP2 MSTORE PUSH1 0x20 ADD SWAP1 DUP2 MSTORE PUSH1 0x20 ADD PUSH0 KECCAK256 SLOAD SWAP1 POP PUSH0 DUP2 GT PUSH2 0x801 JUMPI PUSH1 0x40 MLOAD PUSH32 0x8C379A000000000000000000000000000000000000000000000000000000000 DUP2 MSTORE PUSH1 0x4 ADD PUSH2 0x7F8 SWAP1 PUSH2 0x2084 JUMP JUMPDEST PUSH1 0x40 MLOAD DUP1 SWAP2 SUB SWAP1 REVERT JUMPDEST PUSH0 PUSH1 0x9 PUSH0 CALLER PUSH20 0xFFFFFFFFFFFFFFFFFFFFFFFFFFFFFFFFFFFFFFFF AND PUSH20 0xFFFFFFFFFFFFFFFFFFFFFFFFFFFFFFFFFFFFFFFF AND DUP2 MSTORE PUSH1 0x20 ADD SWAP1 DUP2 MSTORE PUSH1 0x20 ADD PUSH0 KECCAK256 DUP2 SWAP1 SSTORE POP PUSH0 PUSH0 PUSH2 0x84E DUP4 PUSH2 0x1713 JUMP JUMPDEST SWAP2 POP SWAP2 POP DUP2 PUSH1 0xB PUSH0 DUP3 DUP3 SLOAD PUSH2 0x863 SWAP2 SWAP1 PUSH2 0x20CF JUMP JUMPDEST SWAP3 POP POP DUP2 SWAP1 SSTORE POP PUSH2 0x874 CALLER DUP3 PUSH2 0x1743 JUMP JUMPDEST CALLER PUSH20 0xFFFFFFFFFFFFFFFFFFFFFFFFFFFFFFFFFFFFFFFF AND PUSH32 0x7FCF532C15F0A6DB0BD6D0E038BEA71D30D808C7D98CB3BF7268A95BF5081B65 DUP3 PUSH1 0x40 MLOAD PUSH2 0x8BA SWAP2 SWAP1 PUSH2 0x1CE8 JUMP JUMPDEST PUSH1 0x40 MLOAD DUP1 SWAP2 SUB SWAP1 LOG2 POP POP POP PUSH2 0x8CD PUSH2 0x1770 JUMP JUMPDEST JUMP JUMPDEST PUSH1 0x7 PUSH0 SWAP1 SLOAD SWAP1 PUSH2 0x100 EXP SWAP1 DIV PUSH1 0xFF AND DUP2 JUMP JUMPDEST PUSH1 0x7 PUSH0 SWAP1 SLOAD SWAP1 PUSH2 0x100 EXP SWAP1 DIV PUSH1 0xFF AND ISZERO DUP1 ISZERO PUSH2 0x8FF JUMPI POP PUSH1 0x5 SLOAD TIMESTAMP LT ISZERO JUMPDEST DUP1 ISZERO PUSH2 0x90C JUMPI POP PUSH1 0x6 SLOAD TIMESTAMP LT JUMPDEST PUSH2 0x94B JUMPI PUSH1 0x40 MLOAD PUSH32 0x8C379A000000000000000000000000000000000000000000000000000000000 DUP2 MSTORE PUSH1 0x4 ADD PUSH2 0x942 SWAP1 PUSH2 0x214C JUMP JUMPDEST PUSH1 0x40 MLOAD DUP1 SWAP2 SUB SWAP1 REVERT JUMPDEST PUSH2 0x953 PUSH2 0x16CF JUMP JUMPDEST PUSH2 0x95B PUSH2 0x1779 JUMP JUMPDEST PUSH0 CALLVALUE GT PUSH2 0x99D JUMPI PUSH1 0x40 MLOAD PUSH32 0x8C379A000000000000000000000000000000000000000000000000000000000 DUP2 MSTORE PUSH1 0x4 ADD PUSH2 0x994 SWAP1 PUSH2 0x21B4 JUMP JUMPDEST PUSH1 0x40 MLOAD DUP1 SWAP2 SUB SWAP1 REVERT JUMPDEST PUSH0 CALLVALUE PUSH1 0x9 PUSH0 CALLER PUSH20 0xFFFFFFFFFFFFFFFFFFFFFFFFFFFFFFFFFFFFFFFF AND PUSH20 0xFFFFFFFFFFFFFFFFFFFFFFFFFFFFFFFFFFFFFFFF AND DUP2 MSTORE PUSH1 0x20 ADD SWAP1 DUP2 MSTORE PUSH1 0x20 ADD PUSH0 KECCAK256 SLOAD PUSH2 0x9E7 SWAP2 SWAP1 PUSH2 0x20CF JUMP JUMPDEST SWAP1 POP PUSH0 PUSH0 PUSH1 0x4 SLOAD EQ PUSH2 0xA13 JUMPI PUSH1 0x64 PUSH1 0x69 PUSH1 0x4 SLOAD PUSH2 0xA04 SWAP2 SWAP1 PUSH2 0x21D2 JUMP JUMPDEST PUSH2 0xA0E SWAP2 SWAP1 PUSH2 0x2240 JUMP JUMPDEST PUSH2 0xA15 JUMP JUMPDEST PUSH0 JUMPDEST SWAP1 POP DUP1 DUP3 GT PUSH2 0xA59 JUMPI PUSH1 0x40 MLOAD PUSH32 0x8C379A000000000000000000000000000000000000000000000000000000000 DUP2 MSTORE PUSH1 0x4 ADD PUSH2 0xA50 SWAP1 PUSH2 0x22E0 JUMP JUMPDEST PUSH1 0x40 MLOAD DUP1 SWAP2 SUB SWAP1 REVERT JUMPDEST CALLVALUE PUSH1 0x9 PUSH0 CALLER PUSH20 0xFFFFFFFFFFFFFFFFFFFFFFFFFFFFFFFFFFFFFFFF AND PUSH20 0xFFFFFFFFFFFFFFFFFFFFFFFFFFFFFFFFFFFFFFFF AND DUP2 MSTORE PUSH1 0x20 ADD SWAP1 DUP2 MSTORE PUSH1 0x20 ADD PUSH0 KECCAK256 PUSH0 DUP3 DUP3 SLOAD PUSH2 0xAA5 SWAP2 SWAP1 PUSH2 0x20CF JUMP JUMPDEST SWAP3 POP POP DUP2 SWAP1 SSTORE POP PUSH1 0x8 PUSH1 0x40 MLOAD DUP1 PUSH1 0x60 ADD PUSH1 0x40 MSTORE DUP1 CALLER PUSH20 0xFFFFFFFFFFFFFFFFFFFFFFFFFFFFFFFFFFFFFFFF AND DUP2 MSTORE PUSH1 0x20 ADD CALLVALUE DUP2 MSTORE PUSH1 0x20 ADD TIMESTAMP DUP2 MSTORE POP SWAP1 DUP1 PUSH1 0x1 DUP2 SLOAD ADD DUP1 DUP3 SSTORE DUP1 SWAP2 POP POP PUSH1 0x1 SWAP1 SUB SWAP1 PUSH0 MSTORE PUSH1 0x20 PUSH0 KECCAK256 SWAP1 PUSH1 0x3 MUL ADD PUSH0 SWAP1 SWAP2 SWAP1 SWAP2 SWAP1 SWAP2 POP PUSH0 DUP3 ADD MLOAD DUP2 PUSH0 ADD PUSH0 PUSH2 0x100 EXP DUP2 SLOAD DUP2 PUSH20 0xFFFFFFFFFFFFFFFFFFFFFFFFFFFFFFFFFFFFFFFF MUL NOT AND SWAP1 DUP4 PUSH20 0xFFFFFFFFFFFFFFFFFFFFFFFFFFFFFFFFFFFFFFFF AND MUL OR SWAP1 SSTORE POP PUSH1 0x20 DUP3 ADD MLOAD DUP2 PUSH1 0x1 ADD SSTORE PUSH1 0x40 DUP3 ADD MLOAD DUP2 PUSH1 0x2 ADD SSTORE POP POP PUSH1 0x1 PUSH1 0x8 DUP1 SLOAD SWAP1 POP PUSH2 0xB71 SWAP2 SWAP1 PUSH2 0x22FE JUMP JUMPDEST PUSH1 0xA PUSH0 CALLER PUSH20 0xFFFFFFFFFFFFFFFFFFFFFFFFFFFFFFFFFFFFFFFF AND PUSH20 0xFFFFFFFFFFFFFFFFFFFFFFFFFFFFFFFFFFFFFFFF AND DUP2 MSTORE PUSH1 0x20 ADD SWAP1 DUP2 MSTORE PUSH1 0x20 ADD PUSH0 KECCAK256 DUP2 SWAP1 SSTORE POP DUP2 PUSH1 0x4 DUP2 SWAP1 SSTORE POP CALLER PUSH1 0x3 PUSH0 PUSH2 0x100 EXP DUP2 SLOAD DUP2 PUSH20 0xFFFFFFFFFFFFFFFFFFFFFFFFFFFFFFFFFFFFFFFF MUL NOT AND SWAP1 DUP4 PUSH20 0xFFFFFFFFFFFFFFFFFFFFFFFFFFFFFFFFFFFFFFFF AND MUL OR SWAP1 SSTORE POP PUSH2 0x258 TIMESTAMP PUSH1 0x6 SLOAD PUSH2 0xC0A SWAP2 SWAP1 PUSH2 0x22FE JUMP JUMPDEST GT PUSH2 0xC24 JUMPI PUSH2 0x258 TIMESTAMP PUSH2 0xC1D SWAP2 SWAP1 PUSH2 0x20CF JUMP JUMPDEST PUSH1 0x6 DUP2 SWAP1 SSTORE POP JUMPDEST CALLER PUSH20 0xFFFFFFFFFFFFFFFFFFFFFFFFFFFFFFFFFFFFFFFF AND PUSH32 0x58D619527549E88853C641EBCEC23205E5DF61592E3908275721B5AD490113F DUP4 PUSH1 0x40 MLOAD PUSH2 0xC6A SWAP2 SWAP1 PUSH2 0x1CE8 JUMP JUMPDEST PUSH1 0x40 MLOAD DUP1 SWAP2 SUB SWAP1 LOG2 POP POP PUSH2 0xC7C PUSH2 0x1770 JUMP JUMPDEST JUMP JUMPDEST PUSH1 0x6 SLOAD DUP2 JUMP JUMPDEST PUSH1 0x7 PUSH0 SWAP1 SLOAD SWAP1 PUSH2 0x100 EXP SWAP1 DIV PUSH1 0xFF AND ISZERO DUP1 ISZERO PUSH2 0xCA2 JUMPI POP PUSH1 0x5 SLOAD TIMESTAMP LT ISZERO JUMPDEST DUP1 ISZERO PUSH2 0xCAF JUMPI POP PUSH1 0x6 SLOAD TIMESTAMP LT JUMPDEST PUSH2 0xCEE JUMPI PUSH1 0x40 MLOAD PUSH32 0x8C379A000000000000000000000000000000000000000000000000000000000 DUP2 MSTORE PUSH1 0x4 ADD PUSH2 0xCE5 SWAP1 PUSH2 0x214C JUMP JUMPDEST PUSH1 0x40 MLOAD DUP1 SWAP2 SUB SWAP1 REVERT JUMPDEST PUSH2 0xCF6 PUSH2 0x16CF JUMP JUMPDEST PUSH1 0x3 PUSH0 SWAP1 SLOAD SWAP1 PUSH2 0x100 EXP SWAP1 DIV PUSH20 0xFFFFFFFFFFFFFFFFFFFFFFFFFFFFFFFFFFFFFFFF AND PUSH20 0xFFFFFFFFFFFFFFFFFFFFFFFFFFFFFFFFFFFFFFFF AND CALLER PUSH20 0xFFFFFFFFFFFFFFFFFFFFFFFFFFFFFFFFFFFFFFFF AND SUB PUSH2 0xD85 JUMPI PUSH1 0x40 MLOAD PUSH32 0x8C379A000000000000000000000000000000000000000000000000000000000 DUP2 MSTORE PUSH1 0x4 ADD PUSH2 0xD7C SWAP1 PUSH2 0x23A1 JUMP JUMPDEST PUSH1 0x40 MLOAD DUP1 SWAP2 SUB SWAP1 REVERT JUMPDEST PUSH0 PUSH1 0x9 PUSH0 CALLER PUSH20 0xFFFFFFFFFFFFFFFFFFFFFFFFFFFFFFFFFFFFFFFF AND PUSH20 0xFFFFFFFFFFFFFFFFFFFFFFFFFFFFFFFFFFFFFFFF AND DUP2 MSTORE PUSH1 0x20 ADD SWAP1 DUP2 MSTORE PUSH1 0x20 ADD PUSH0 KECCAK256 SLOAD SWAP1 POP PUSH0 DUP2 GT PUSH2 0xE08 JUMPI PUSH1 0x40 MLOAD PUSH32 0x8C379A000000000000000000000000000000000000000000000000000000000 DUP2 MSTORE PUSH1 0x4 ADD PUSH2 0xDFF SWAP1 PUSH2 0x2409 JUMP JUMPDEST PUSH1 0x40 MLOAD DUP1 SWAP2 SUB SWAP1 REVERT JUMPDEST PUSH0 PUSH1 0x9 PUSH0 CALLER PUSH20 0xFFFFFFFFFFFFFFFFFFFFFFFFFFFFFFFFFFFFFFFF AND PUSH20 0xFFFFFFFFFFFFFFFFFFFFFFFFFFFFFFFFFFFFFFFF AND DUP2 MSTORE PUSH1 0x20 ADD SWAP1 DUP2 MSTORE PUSH1 0x20 ADD PUSH0 KECCAK256 DUP2 SWAP1 SSTORE POP PUSH2 0xE54 CALLER DUP3 PUSH2 0x1743 JUMP JUMPDEST CALLER PUSH20 0xFFFFFFFFFFFFFFFFFFFFFFFFFFFFFFFFFFFFFFFF AND PUSH32 0x7FCF532C15F0A6DB0BD6D0E038BEA71D30D808C7D98CB3BF7268A95BF5081B65 DUP3 PUSH1 0x40 MLOAD PUSH2 0xE9A SWAP2 SWAP1 PUSH2 0x1CE8 JUMP JUMPDEST PUSH1 0x40 MLOAD DUP1 SWAP2 SUB SWAP1 LOG2 POP PUSH2 0xEAB PUSH2 0x1770 JUMP JUMPDEST JUMP JUMPDEST PUSH2 0xEB5 PUSH2 0x17BA JUMP JUMPDEST PUSH2 0xEBD PUSH2 0x1841 JUMP JUMPDEST JUMP JUMPDEST PUSH1 0x2 PUSH0 SWAP1 SLOAD SWAP1 PUSH2 0x100 EXP SWAP1 DIV PUSH20 0xFFFFFFFFFFFFFFFFFFFFFFFFFFFFFFFFFFFFFFFF AND PUSH20 0xFFFFFFFFFFFFFFFFFFFFFFFFFFFFFFFFFFFFFFFF AND CALLER PUSH20 0xFFFFFFFFFFFFFFFFFFFFFFFFFFFFFFFFFFFFFFFF AND EQ PUSH2 0xF4E JUMPI PUSH1 0x40 MLOAD PUSH32 0x8C379A000000000000000000000000000000000000000000000000000000000 DUP2 MSTORE PUSH1 0x4 ADD PUSH2 0xF45 SWAP1 PUSH2 0x2471 JUMP JUMPDEST PUSH1 0x40 MLOAD DUP1 SWAP2 SUB SWAP1 REVERT JUMPDEST PUSH2 0xF56 PUSH2 0x16CF JUMP JUMPDEST PUSH0 PUSH1 0xB SLOAD SWAP1 POP PUSH0 DUP2 GT PUSH2 0xF9E JUMPI PUSH1 0x40 MLOAD PUSH32 0x8C379A000000000000000000000000000000000000000000000000000000000 DUP2 MSTORE PUSH1 0x4 ADD PUSH2 0xF95 SWAP1 PUSH2 0x24D9 JUMP JUMPDEST PUSH1 0x40 MLOAD DUP1 SWAP2 SUB SWAP1 REVERT JUMPDEST PUSH0 PUSH1 0xB DUP2 SWAP1 SSTORE POP PUSH2 0xFD0 PUSH1 0x2 PUSH0 SWAP1 SLOAD SWAP1 PUSH2 0x100 EXP SWAP1 DIV PUSH20 0xFFFFFFFFFFFFFFFFFFFFFFFFFFFFFFFFFFFFFFFF AND DUP3 PUSH2 0x1743 JUMP JUMPDEST POP PUSH2 0xFD9 PUSH2 0x1770 JUMP JUMPDEST JUMP JUMPDEST PUSH1 0x2 DUP2 JUMP JUMPDEST PUSH1 0x60 PUSH1 0x8 DUP1 SLOAD DUP1 PUSH1 0x20 MUL PUSH1 0x20 ADD PUSH1 0x40 MLOAD SWAP1 DUP2 ADD PUSH1 0x40 MSTORE DUP1 SWAP3 SWAP2 SWAP1 DUP2 DUP2 MSTORE PUSH1 0x20 ADD PUSH0 SWAP1 JUMPDEST DUP3 DUP3 LT ISZERO PUSH2 0x109B JUMPI DUP4 DUP3 SWAP1 PUSH0 MSTORE PUSH1 0x20 PUSH0 KECCAK256 SWAP1 PUSH1 0x3 MUL ADD PUSH1 0x40 MLOAD DUP1 PUSH1 0x60 ADD PUSH1 0x40 MSTORE SWAP1 DUP2 PUSH0 DUP3 ADD PUSH0 SWAP1 SLOAD SWAP1 PUSH2 0x100 EXP SWAP1 DIV PUSH20 0xFFFFFFFFFFFFFFFFFFFFFFFFFFFFFFFFFFFFFFFF AND PUSH20 0xFFFFFFFFFFFFFFFFFFFFFFFFFFFFFFFFFFFFFFFF AND PUSH20 0xFFFFFFFFFFFFFFFFFFFFFFFFFFFFFFFFFFFFFFFF AND DUP2 MSTORE PUSH1 0x20 ADD PUSH1 0x1 DUP3 ADD SLOAD DUP2 MSTORE PUSH1 0x20 ADD PUSH1 0x2 DUP3 ADD SLOAD DUP2 MSTORE POP POP DUP2 MSTORE PUSH1 0x20 ADD SWAP1 PUSH1 0x1 ADD SWAP1 PUSH2 0x1003 JUMP JUMPDEST POP POP POP POP SWAP1 POP SWAP1 JUMP JUMPDEST PUSH2 0x258 DUP2 JUMP JUMPDEST PUSH0 PUSH1 0x1 PUSH1 0x14 SWAP1 SLOAD SWAP1 PUSH2 0x100 EXP SWAP1 DIV PUSH1 0xFF AND SWAP1 POP SWAP1 JUMP JUMPDEST PUSH1 0x69 DUP2 JUMP JUMPDEST PUSH2 0x10CD PUSH2 0x17BA JUMP JUMPDEST PUSH2 0x10D6 PUSH0 PUSH2 0x18A3 JUMP JUMPDEST JUMP JUMPDEST PUSH1 0x5 SLOAD DUP2 JUMP JUMPDEST PUSH2 0x258 DUP2 JUMP JUMPDEST PUSH2 0x10EC PUSH2 0x17BA JUMP JUMPDEST PUSH2 0x10F4 PUSH2 0x1966 JUMP JUMPDEST JUMP JUMPDEST PUSH1 0x8 DUP2 DUP2 SLOAD DUP2 LT PUSH2 0x1105 JUMPI PUSH0 DUP1 REVERT JUMPDEST SWAP1 PUSH0 MSTORE PUSH1 0x20 PUSH0 KECCAK256 SWAP1 PUSH1 0x3 MUL ADD PUSH0 SWAP2 POP SWAP1 POP DUP1 PUSH0 ADD PUSH0 SWAP1 SLOAD SWAP1 PUSH2 0x100 EXP SWAP1 DIV PUSH20 0xFFFFFFFFFFFFFFFFFFFFFFFFFFFFFFFFFFFFFFFF AND SWAP1 DUP1 PUSH1 0x1 ADD SLOAD SWAP1 DUP1 PUSH1 0x2 ADD SLOAD SWAP1 POP DUP4 JUMP JUMPDEST PUSH0 PUSH1 0x1 PUSH0 SWAP1 SLOAD SWAP1 PUSH2 0x100 EXP SWAP1 DIV PUSH20 0xFFFFFFFFFFFFFFFFFFFFFFFFFFFFFFFFFFFFFFFF AND SWAP1 POP SWAP1 JUMP JUMPDEST PUSH0 PUSH1 0xA PUSH0 CALLER PUSH20 0xFFFFFFFFFFFFFFFFFFFFFFFFFFFFFFFFFFFFFFFF AND PUSH20 0xFFFFFFFFFFFFFFFFFFFFFFFFFFFFFFFFFFFFFFFF AND DUP2 MSTORE PUSH1 0x20 ADD SWAP1 DUP2 MSTORE PUSH1 0x20 ADD PUSH0 KECCAK256 SLOAD SWAP1 POP SWAP1 JUMP JUMPDEST PUSH1 0x3 PUSH0 SWAP1 SLOAD SWAP1 PUSH2 0x100 EXP SWAP1 DIV PUSH20 0xFFFFFFFFFFFFFFFFFFFFFFFFFFFFFFFFFFFFFFFF AND DUP2 JUMP JUMPDEST PUSH0 PUSH0 PUSH1 0x6 SLOAD TIMESTAMP LT ISZERO DUP1 PUSH2 0x11F9 JUMPI POP PUSH1 0x7 PUSH0 SWAP1 SLOAD SWAP1 PUSH2 0x100 EXP SWAP1 DIV PUSH1 0xFF AND JUMPDEST PUSH2 0x1238 JUMPI PUSH1 0x40 MLOAD PUSH32 0x8C379A000000000000000000000000000000000000000000000000000000000 DUP2 MSTORE PUSH1 0x4 ADD PUSH2 0x122F SWAP1 PUSH2 0x1FB4 JUMP JUMPDEST PUSH1 0x40 MLOAD DUP1 SWAP2 SUB SWAP1 REVERT JUMPDEST PUSH1 0x3 PUSH0 SWAP1 SLOAD SWAP1 PUSH2 0x100 EXP SWAP1 DIV PUSH20 0xFFFFFFFFFFFFFFFFFFFFFFFFFFFFFFFFFFFFFFFF AND PUSH1 0x4 SLOAD SWAP2 POP SWAP2 POP SWAP1 SWAP2 JUMP JUMPDEST PUSH0 PUSH1 0x8 DUP1 SLOAD SWAP1 POP SWAP1 POP SWAP1 JUMP JUMPDEST PUSH0 PUSH1 0x2 PUSH0 SWAP1 SLOAD SWAP1 PUSH2 0x100 EXP SWAP1 DIV PUSH20 0xFFFFFFFFFFFFFFFFFFFFFFFFFFFFFFFFFFFFFFFF AND PUSH20 0xFFFFFFFFFFFFFFFFFFFFFFFFFFFFFFFFFFFFFFFF AND CALLER PUSH20 0xFFFFFFFFFFFFFFFFFFFFFFFFFFFFFFFFFFFFFFFF AND EQ PUSH2 0x1301 JUMPI PUSH1 0x40 MLOAD PUSH32 0x8C379A000000000000000000000000000000000000000000000000000000000 DUP2 MSTORE PUSH1 0x4 ADD PUSH2 0x12F8 SWAP1 PUSH2 0x2471 JUMP JUMPDEST PUSH1 0x40 MLOAD DUP1 SWAP2 SUB SWAP1 REVERT JUMPDEST PUSH1 0xB SLOAD SWAP1 POP SWAP1 JUMP JUMPDEST PUSH1 0x4 SLOAD DUP2 JUMP JUMPDEST PUSH2 0x1317 PUSH2 0x17BA JUMP JUMPDEST PUSH1 0x7 PUSH0 SWAP1 SLOAD SWAP1 PUSH2 0x100 EXP SWAP1 DIV PUSH1 0xFF AND ISZERO PUSH2 0x1366 JUMPI PUSH1 0x40 MLOAD PUSH32 0x8C379A000000000000000000000000000000000000000000000000000000000 DUP2 MSTORE PUSH1 0x4 ADD PUSH2 0x135D SWAP1 PUSH2 0x2541 JUMP JUMPDEST PUSH1 0x40 MLOAD DUP1 SWAP2 SUB SWAP1 REVERT JUMPDEST PUSH1 0x1 PUSH1 0x7 PUSH0 PUSH2 0x100 EXP DUP2 SLOAD DUP2 PUSH1 0xFF MUL NOT AND SWAP1 DUP4 ISZERO ISZERO MUL OR SWAP1 SSTORE POP PUSH1 0x3 PUSH0 SWAP1 SLOAD SWAP1 PUSH2 0x100 EXP SWAP1 DIV PUSH20 0xFFFFFFFFFFFFFFFFFFFFFFFFFFFFFFFFFFFFFFFF AND PUSH20 0xFFFFFFFFFFFFFFFFFFFFFFFFFFFFFFFFFFFFFFFF AND PUSH32 0xDAEC4582D5D9595688C8C98545FDD1C696D41C6AEAEB636737E84ED2F5C00EDA PUSH1 0x4 SLOAD PUSH1 0x40 MLOAD PUSH2 0x13E9 SWAP2 SWAP1 PUSH2 0x1CE8 JUMP JUMPDEST PUSH1 0x40 MLOAD DUP1 SWAP2 SUB SWAP1 LOG2 JUMP JUMPDEST PUSH2 0x13FB PUSH2 0x17BA JUMP JUMPDEST PUSH0 PUSH20 0xFFFFFFFFFFFFFFFFFFFFFFFFFFFFFFFFFFFFFFFF AND DUP2 PUSH20 0xFFFFFFFFFFFFFFFFFFFFFFFFFFFFFFFFFFFFFFFF AND SUB PUSH2 0x146B JUMPI PUSH0 PUSH1 0x40 MLOAD PUSH32 0x1E4FBDF700000000000000000000000000000000000000000000000000000000 DUP2 MSTORE PUSH1 0x4 ADD PUSH2 0x1462 SWAP2 SWAP1 PUSH2 0x1ED5 JUMP JUMPDEST PUSH1 0x40 MLOAD DUP1 SWAP2 SUB SWAP1 REVERT JUMPDEST PUSH2 0x1474 DUP2 PUSH2 0x18A3 JUMP JUMPDEST POP JUMP JUMPDEST PUSH1 0x9 PUSH1 0x20 MSTORE DUP1 PUSH0 MSTORE PUSH1 0x40 PUSH0 KECCAK256 PUSH0 SWAP2 POP SWAP1 POP SLOAD DUP2 JUMP JUMPDEST PUSH1 0x6 SLOAD TIMESTAMP LT ISZERO DUP1 PUSH2 0x14A8 JUMPI POP PUSH1 0x7 PUSH0 SWAP1 SLOAD SWAP1 PUSH2 0x100 EXP SWAP1 DIV PUSH1 0xFF AND JUMPDEST PUSH2 0x14E7 JUMPI PUSH1 0x40 MLOAD PUSH32 0x8C379A000000000000000000000000000000000000000000000000000000000 DUP2 MSTORE PUSH1 0x4 ADD PUSH2 0x14DE SWAP1 PUSH2 0x1FB4 JUMP JUMPDEST PUSH1 0x40 MLOAD DUP1 SWAP2 SUB SWAP1 REVERT JUMPDEST PUSH2 0x14EF PUSH2 0x16CF JUMP JUMPDEST PUSH1 0x7 PUSH0 SWAP1 SLOAD SWAP1 PUSH2 0x100 EXP SWAP1 DIV PUSH1 0xFF AND ISZERO PUSH2 0x153E JUMPI PUSH1 0x40 MLOAD PUSH32 0x8C379A000000000000000000000000000000000000000000000000000000000 DUP2 MSTORE PUSH1 0x4 ADD PUSH2 0x1535 SWAP1 PUSH2 0x2541 JUMP JUMPDEST PUSH1 0x40 MLOAD DUP1 SWAP2 SUB SWAP1 REVERT JUMPDEST PUSH1 0x1 PUSH1 0x7 PUSH0 PUSH2 0x100 EXP DUP2 SLOAD DUP2 PUSH1 0xFF MUL NOT AND SWAP1 DUP4 ISZERO ISZERO MUL OR SWAP1 SSTORE POP PUSH1 0x3 PUSH0 SWAP1 SLOAD SWAP1 PUSH2 0x100 EXP SWAP1 DIV PUSH20 0xFFFFFFFFFFFFFFFFFFFFFFFFFFFFFFFFFFFFFFFF AND PUSH20 0xFFFFFFFFFFFFFFFFFFFFFFFFFFFFFFFFFFFFFFFF AND PUSH32 0xDAEC4582D5D9595688C8C98545FDD1C696D41C6AEAEB636737E84ED2F5C00EDA PUSH1 0x4 SLOAD PUSH1 0x40 MLOAD PUSH2 0x15C1 SWAP2 SWAP1 PUSH2 0x1CE8 JUMP JUMPDEST PUSH1 0x40 MLOAD DUP1 SWAP2 SUB SWAP1 LOG2 PUSH0 PUSH1 0x4 SLOAD GT ISZERO PUSH2 0x16C5 JUMPI PUSH0 PUSH1 0x9 PUSH0 PUSH1 0x3 PUSH0 SWAP1 SLOAD SWAP1 PUSH2 0x100 EXP SWAP1 DIV PUSH20 0xFFFFFFFFFFFFFFFFFFFFFFFFFFFFFFFFFFFFFFFF AND PUSH20 0xFFFFFFFFFFFFFFFFFFFFFFFFFFFFFFFFFFFFFFFF AND PUSH20 0xFFFFFFFFFFFFFFFFFFFFFFFFFFFFFFFFFFFFFFFF AND DUP2 MSTORE PUSH1 0x20 ADD SWAP1 DUP2 MSTORE PUSH1 0x20 ADD PUSH0 KECCAK256 SLOAD SWAP1 POP PUSH0 PUSH1 0x9 PUSH0 PUSH1 0x3 PUSH0 SWAP1 SLOAD SWAP1 PUSH2 0x100 EXP SWAP1 DIV PUSH20 0xFFFFFFFFFFFFFFFFFFFFFFFFFFFFFFFFFFFFFFFF AND PUSH20 0xFFFFFFFFFFFFFFFFFFFFFFFFFFFFFFFFFFFFFFFF AND PUSH20 0xFFFFFFFFFFFFFFFFFFFFFFFFFFFFFFFFFFFFFFFF AND DUP2 MSTORE PUSH1 0x20 ADD SWAP1 DUP2 MSTORE PUSH1 0x20 ADD PUSH0 KECCAK256 DUP2 SWAP1 SSTORE POP PUSH2 0x16C3 PUSH1 0x2 PUSH0 SWAP1 SLOAD SWAP1 PUSH2 0x100 EXP SWAP1 DIV PUSH20 0xFFFFFFFFFFFFFFFFFFFFFFFFFFFFFFFFFFFFFFFF AND DUP3 PUSH2 0x1743 JUMP JUMPDEST POP JUMPDEST PUSH2 0x16CD PUSH2 0x1770 JUMP JUMPDEST JUMP JUMPDEST PUSH1 0x2 PUSH0 SLOAD SUB PUSH2 0x170A JUMPI PUSH1 0x40 MLOAD PUSH32 0x3EE5AEB500000000000000000000000000000000000000000000000000000000 DUP2 MSTORE PUSH1 0x4 ADD PUSH1 0x40 MLOAD DUP1 SWAP2 SUB SWAP1 REVERT JUMPDEST PUSH1 0x2 PUSH0 DUP2 SWAP1 SSTORE POP JUMP JUMPDEST PUSH0 PUSH0 PUSH1 0x64 PUSH1 0x2 DUP5 PUSH2 0x1724 SWAP2 SWAP1 PUSH2 0x21D2 JUMP JUMPDEST PUSH2 0x172E SWAP2 SWAP1 PUSH2 0x2240 JUMP JUMPDEST SWAP2 POP DUP2 DUP4 PUSH2 0x173C SWAP2 SWAP1 PUSH2 0x22FE JUMP JUMPDEST SWAP1 POP SWAP2 POP SWAP2 JUMP JUMPDEST PUSH2 0x176C DUP2 DUP4 PUSH20 0xFFFFFFFFFFFFFFFFFFFFFFFFFFFFFFFFFFFFFFFF AND PUSH2 0x19C8 SWAP1 SWAP2 SWAP1 PUSH4 0xFFFFFFFF AND JUMP JUMPDEST POP POP JUMP JUMPDEST PUSH1 0x1 PUSH0 DUP2 SWAP1 SSTORE POP JUMP JUMPDEST PUSH2 0x1781 PUSH2 0x10AA JUMP JUMPDEST ISZERO PUSH2 0x17B8 JUMPI PUSH1 0x40 MLOAD PUSH32 0xD93C066500000000000000000000000000000000000000000000000000000000 DUP2 MSTORE PUSH1 0x4 ADD PUSH1 0x40 MLOAD DUP1 SWAP2 SUB SWAP1 REVERT JUMPDEST JUMP JUMPDEST PUSH2 0x17C2 PUSH2 0x1A8E JUMP JUMPDEST PUSH20 0xFFFFFFFFFFFFFFFFFFFFFFFFFFFFFFFFFFFFFFFF AND PUSH2 0x17E0 PUSH2 0x114A JUMP JUMPDEST PUSH20 0xFFFFFFFFFFFFFFFFFFFFFFFFFFFFFFFFFFFFFFFF AND EQ PUSH2 0x183F JUMPI PUSH2 0x1803 PUSH2 0x1A8E JUMP JUMPDEST PUSH1 0x40 MLOAD PUSH32 0x118CDAA700000000000000000000000000000000000000000000000000000000 DUP2 MSTORE PUSH1 0x4 ADD PUSH2 0x1836 SWAP2 SWAP1 PUSH2 0x1ED5 JUMP JUMPDEST PUSH1 0x40 MLOAD DUP1 SWAP2 SUB SWAP1 REVERT JUMPDEST JUMP JUMPDEST PUSH2 0x1849 PUSH2 0x1A95 JUMP JUMPDEST PUSH0 PUSH1 0x1 PUSH1 0x14 PUSH2 0x100 EXP DUP2 SLOAD DUP2 PUSH1 0xFF MUL NOT AND SWAP1 DUP4 ISZERO ISZERO MUL OR SWAP1 SSTORE POP PUSH32 0x5DB9EE0A495BF2E6FF9C91A7834C1BA4FDD244A5E8AA4E537BD38AEAE4B073AA PUSH2 0x188C PUSH2 0x1A8E JUMP JUMPDEST PUSH1 0x40 MLOAD PUSH2 0x1899 SWAP2 SWAP1 PUSH2 0x1ED5 JUMP JUMPDEST PUSH1 0x40 MLOAD DUP1 SWAP2 SUB SWAP1 LOG1 JUMP JUMPDEST PUSH0 PUSH1 0x1 PUSH0 SWAP1 SLOAD SWAP1 PUSH2 0x100 EXP SWAP1 DIV PUSH20 0xFFFFFFFFFFFFFFFFFFFFFFFFFFFFFFFFFFFFFFFF AND SWAP1 POP DUP2 PUSH1 0x1 PUSH0 PUSH2 0x100 EXP DUP2 SLOAD DUP2 PUSH20 0xFFFFFFFFFFFFFFFFFFFFFFFFFFFFFFFFFFFFFFFF MUL NOT AND SWAP1 DUP4 PUSH20 0xFFFFFFFFFFFFFFFFFFFFFFFFFFFFFFFFFFFFFFFF AND MUL OR SWAP1 SSTORE POP DUP2 PUSH20 0xFFFFFFFFFFFFFFFFFFFFFFFFFFFFFFFFFFFFFFFF AND DUP2 PUSH20 0xFFFFFFFFFFFFFFFFFFFFFFFFFFFFFFFFFFFFFFFF AND PUSH32 0x8BE0079C531659141344CD1FD0A4F28419497F9722A3DAAFE3B4186F6B6457E0 PUSH1 0x40 MLOAD PUSH1 0x40 MLOAD DUP1 SWAP2 SUB SWAP1 LOG3 POP POP JUMP JUMPDEST PUSH2 0x196E PUSH2 0x1779 JUMP JUMPDEST PUSH1 0x1 DUP1 PUSH1 0x14 PUSH2 0x100 EXP DUP2 SLOAD DUP2 PUSH1 0xFF MUL NOT AND SWAP1 DUP4 ISZERO ISZERO MUL OR SWAP1 SSTORE POP PUSH32 0x62E78CEA01BEE320CD4E420270B5EA74000D11B0C9F74754EBDBFC544B05A258 PUSH2 0x19B1 PUSH2 0x1A8E JUMP JUMPDEST PUSH1 0x40 MLOAD PUSH2 0x19BE SWAP2 SWAP1 PUSH2 0x1ED5 JUMP JUMPDEST PUSH1 0x40 MLOAD DUP1 SWAP2 SUB SWAP1 LOG1 JUMP JUMPDEST DUP1 SELFBALANCE LT ISZERO PUSH2 0x1A0F JUMPI SELFBALANCE DUP2 PUSH1 0x40 MLOAD PUSH32 0xCF47918100000000000000000000000000000000000000000000000000000000 DUP2 MSTORE PUSH1 0x4 ADD PUSH2 0x1A06 SWAP3 SWAP2 SWAP1 PUSH2 0x255F JUMP JUMPDEST PUSH1 0x40 MLOAD DUP1 SWAP2 SUB SWAP1 REVERT JUMPDEST PUSH0 PUSH0 DUP4 PUSH20 0xFFFFFFFFFFFFFFFFFFFFFFFFFFFFFFFFFFFFFFFF AND DUP4 PUSH1 0x40 MLOAD PUSH2 0x1A35 SWAP1 PUSH2 0x25B3 JUMP JUMPDEST PUSH0 PUSH1 0x40 MLOAD DUP1 DUP4 SUB DUP2 DUP6 DUP8 GAS CALL SWAP3 POP POP POP RETURNDATASIZE DUP1 PUSH0 DUP2 EQ PUSH2 0x1A6F JUMPI PUSH1 0x40 MLOAD SWAP2 POP PUSH1 0x1F NOT PUSH1 0x3F RETURNDATASIZE ADD AND DUP3 ADD PUSH1 0x40 MSTORE RETURNDATASIZE DUP3 MSTORE RETURNDATASIZE PUSH0 PUSH1 0x20 DUP5 ADD RETURNDATACOPY PUSH2 0x1A74 JUMP JUMPDEST PUSH1 0x60 SWAP2 POP JUMPDEST POP SWAP2 POP SWAP2 POP DUP2 PUSH2 0x1A88 JUMPI PUSH2 0x1A87 DUP2 PUSH2 0x1AD5 JUMP JUMPDEST JUMPDEST POP POP POP POP JUMP JUMPDEST PUSH0 CALLER SWAP1 POP SWAP1 JUMP JUMPDEST PUSH2 0x1A9D PUSH2 0x10AA JUMP JUMPDEST PUSH2 0x1AD3 JUMPI PUSH1 0x40 MLOAD PUSH32 0x8DFC202B00000000000000000000000000000000000000000000000000000000 DUP2 MSTORE PUSH1 0x4 ADD PUSH1 0x40 MLOAD DUP1 SWAP2 SUB SWAP1 REVERT JUMPDEST JUMP JUMPDEST PUSH0 DUP2 MLOAD GT ISZERO PUSH2 0x1AE7 JUMPI DUP1 MLOAD DUP1 DUP3 PUSH1 0x20 ADD REVERT JUMPDEST PUSH1 0x40 MLOAD PUSH32 0xD6BDA27500000000000000000000000000000000000000000000000000000000 DUP2 MSTORE PUSH1 0x4 ADD PUSH1 0x40 MLOAD DUP1 SWAP2 SUB SWAP1 REVERT JUMPDEST PUSH0 DUP3 DUP3 MSTORE PUSH1 0x20 DUP3 ADD SWAP1 POP SWAP3 SWAP2 POP POP JUMP JUMPDEST PUSH32 0x506C6561736520757365207468652062696428292066756E6374696F6E20746F PUSH0 DUP3 ADD MSTORE PUSH32 0x2070617274696369706174652E00000000000000000000000000000000000000 PUSH1 0x20 DUP3 ADD MSTORE POP JUMP JUMPDEST PUSH0 PUSH2 0x1B83 PUSH1 0x2D DUP4 PUSH2 0x1B19 JUMP JUMPDEST SWAP2 POP PUSH2 0x1B8E DUP3 PUSH2 0x1B29 JUMP JUMPDEST PUSH1 0x40 DUP3 ADD SWAP1 POP SWAP2 SWAP1 POP JUMP JUMPDEST PUSH0 PUSH1 0x20 DUP3 ADD SWAP1 POP DUP2 DUP2 SUB PUSH0 DUP4 ADD MSTORE PUSH2 0x1BB0 DUP2 PUSH2 0x1B77 JUMP JUMPDEST SWAP1 POP SWAP2 SWAP1 POP JUMP JUMPDEST PUSH32 0x496E76616C69642063616C6C2E205573652074686520636F7272656374206675 PUSH0 DUP3 ADD MSTORE PUSH32 0x6E6374696F6E2E00000000000000000000000000000000000000000000000000 PUSH1 0x20 DUP3 ADD MSTORE POP JUMP JUMPDEST PUSH0 PUSH2 0x1C11 PUSH1 0x27 DUP4 PUSH2 0x1B19 JUMP JUMPDEST SWAP2 POP PUSH2 0x1C1C DUP3 PUSH2 0x1BB7 JUMP JUMPDEST PUSH1 0x40 DUP3 ADD SWAP1 POP SWAP2 SWAP1 POP JUMP JUMPDEST PUSH0 PUSH1 0x20 DUP3 ADD SWAP1 POP DUP2 DUP2 SUB PUSH0 DUP4 ADD MSTORE PUSH2 0x1C3E DUP2 PUSH2 0x1C05 JUMP JUMPDEST SWAP1 POP SWAP2 SWAP1 POP JUMP JUMPDEST PUSH0 PUSH20 0xFFFFFFFFFFFFFFFFFFFFFFFFFFFFFFFFFFFFFFFF DUP3 AND SWAP1 POP SWAP2 SWAP1 POP JUMP JUMPDEST PUSH0 PUSH2 0x1C6E DUP3 PUSH2 0x1C45 JUMP JUMPDEST SWAP1 POP SWAP2 SWAP1 POP JUMP JUMPDEST PUSH2 0x1C7E DUP2 PUSH2 0x1C64 JUMP JUMPDEST DUP3 MSTORE POP POP JUMP JUMPDEST PUSH0 PUSH1 0x20 DUP3 ADD SWAP1 POP PUSH2 0x1C97 PUSH0 DUP4 ADD DUP5 PUSH2 0x1C75 JUMP JUMPDEST SWAP3 SWAP2 POP POP JUMP JUMPDEST PUSH0 DUP2 ISZERO ISZERO SWAP1 POP SWAP2 SWAP1 POP JUMP JUMPDEST PUSH2 0x1CB1 DUP2 PUSH2 0x1C9D JUMP JUMPDEST DUP3 MSTORE POP POP JUMP JUMPDEST PUSH0 PUSH1 0x20 DUP3 ADD SWAP1 POP PUSH2 0x1CCA PUSH0 DUP4 ADD DUP5 PUSH2 0x1CA8 JUMP JUMPDEST SWAP3 SWAP2 POP POP JUMP JUMPDEST PUSH0 DUP2 SWAP1 POP SWAP2 SWAP1 POP JUMP JUMPDEST PUSH2 0x1CE2 DUP2 PUSH2 0x1CD0 JUMP JUMPDEST DUP3 MSTORE POP POP JUMP JUMPDEST PUSH0 PUSH1 0x20 DUP3 ADD SWAP1 POP PUSH2 0x1CFB PUSH0 DUP4 ADD DUP5 PUSH2 0x1CD9 JUMP JUMPDEST SWAP3 SWAP2 POP POP JUMP JUMPDEST PUSH0 DUP2 MLOAD SWAP1 POP SWAP2 SWAP1 POP JUMP JUMPDEST PUSH0 DUP3 DUP3 MSTORE PUSH1 0x20 DUP3 ADD SWAP1 POP SWAP3 SWAP2 POP POP JUMP JUMPDEST PUSH0 DUP2 SWAP1 POP PUSH1 0x20 DUP3 ADD SWAP1 POP SWAP2 SWAP1 POP JUMP JUMPDEST PUSH0 PUSH2 0x1D34 DUP3 PUSH2 0x1C45 JUMP JUMPDEST SWAP1 POP SWAP2 SWAP1 POP JUMP JUMPDEST PUSH2 0x1D44 DUP2 PUSH2 0x1D2A JUMP JUMPDEST DUP3 MSTORE POP POP JUMP JUMPDEST PUSH2 0x1D53 DUP2 PUSH2 0x1CD0 JUMP JUMPDEST DUP3 MSTORE POP POP JUMP JUMPDEST PUSH1 0x60 DUP3 ADD PUSH0 DUP3 ADD MLOAD PUSH2 0x1D6D PUSH0 DUP6 ADD DUP3 PUSH2 0x1D3B JUMP JUMPDEST POP PUSH1 0x20 DUP3 ADD MLOAD PUSH2 0x1D80 PUSH1 0x20 DUP6 ADD DUP3 PUSH2 0x1D4A JUMP JUMPDEST POP PUSH1 0x40 DUP3 ADD MLOAD PUSH2 0x1D93 PUSH1 0x40 DUP6 ADD DUP3 PUSH2 0x1D4A JUMP JUMPDEST POP POP POP POP JUMP JUMPDEST PUSH0 PUSH2 0x1DA4 DUP4 DUP4 PUSH2 0x1D59 JUMP JUMPDEST PUSH1 0x60 DUP4 ADD SWAP1 POP SWAP3 SWAP2 POP POP JUMP JUMPDEST PUSH0 PUSH1 0x20 DUP3 ADD SWAP1 POP SWAP2 SWAP1 POP JUMP JUMPDEST PUSH0 PUSH2 0x1DC6 DUP3 PUSH2 0x1D01 JUMP JUMPDEST PUSH2 0x1DD0 DUP2 DUP6 PUSH2 0x1D0B JUMP JUMPDEST SWAP4 POP PUSH2 0x1DDB DUP4 PUSH2 0x1D1B JUMP JUMPDEST DUP1 PUSH0 JUMPDEST DUP4 DUP2 LT ISZERO PUSH2 0x1E0B JUMPI DUP2 MLOAD PUSH2 0x1DF2 DUP9 DUP3 PUSH2 0x1D99 JUMP JUMPDEST SWAP8 POP PUSH2 0x1DFD DUP4 PUSH2 0x1DB0 JUMP JUMPDEST SWAP3 POP POP PUSH1 0x1 DUP2 ADD SWAP1 POP PUSH2 0x1DDE JUMP JUMPDEST POP DUP6 SWAP4 POP POP POP POP SWAP3 SWAP2 POP POP JUMP JUMPDEST PUSH0 PUSH1 0x20 DUP3 ADD SWAP1 POP DUP2 DUP2 SUB PUSH0 DUP4 ADD MSTORE PUSH2 0x1E30 DUP2 DUP5 PUSH2 0x1DBC JUMP JUMPDEST SWAP1 POP SWAP3 SWAP2 POP POP JUMP JUMPDEST PUSH0 PUSH0 REVERT JUMPDEST PUSH2 0x1E45 DUP2 PUSH2 0x1CD0 JUMP JUMPDEST DUP2 EQ PUSH2 0x1E4F JUMPI PUSH0 PUSH0 REVERT JUMPDEST POP JUMP JUMPDEST PUSH0 DUP2 CALLDATALOAD SWAP1 POP PUSH2 0x1E60 DUP2 PUSH2 0x1E3C JUMP JUMPDEST SWAP3 SWAP2 POP POP JUMP JUMPDEST PUSH0 PUSH1 0x20 DUP3 DUP5 SUB SLT ISZERO PUSH2 0x1E7B JUMPI PUSH2 0x1E7A PUSH2 0x1E38 JUMP JUMPDEST JUMPDEST PUSH0 PUSH2 0x1E88 DUP5 DUP3 DUP6 ADD PUSH2 0x1E52 JUMP JUMPDEST SWAP2 POP POP SWAP3 SWAP2 POP POP JUMP JUMPDEST PUSH2 0x1E9A DUP2 PUSH2 0x1D2A JUMP JUMPDEST DUP3 MSTORE POP POP JUMP JUMPDEST PUSH0 PUSH1 0x60 DUP3 ADD SWAP1 POP PUSH2 0x1EB3 PUSH0 DUP4 ADD DUP7 PUSH2 0x1E91 JUMP JUMPDEST PUSH2 0x1EC0 PUSH1 0x20 DUP4 ADD DUP6 PUSH2 0x1CD9 JUMP JUMPDEST PUSH2 0x1ECD PUSH1 0x40 DUP4 ADD DUP5 PUSH2 0x1CD9 JUMP JUMPDEST SWAP5 SWAP4 POP POP POP POP JUMP JUMPDEST PUSH0 PUSH1 0x20 DUP3 ADD SWAP1 POP PUSH2 0x1EE8 PUSH0 DUP4 ADD DUP5 PUSH2 0x1E91 JUMP JUMPDEST SWAP3 SWAP2 POP POP JUMP JUMPDEST PUSH0 PUSH1 0x40 DUP3 ADD SWAP1 POP PUSH2 0x1F01 PUSH0 DUP4 ADD DUP6 PUSH2 0x1E91 JUMP JUMPDEST PUSH2 0x1F0E PUSH1 0x20 DUP4 ADD DUP5 PUSH2 0x1CD9 JUMP JUMPDEST SWAP4 SWAP3 POP POP POP JUMP JUMPDEST PUSH2 0x1F1E DUP2 PUSH2 0x1D2A JUMP JUMPDEST DUP2 EQ PUSH2 0x1F28 JUMPI PUSH0 PUSH0 REVERT JUMPDEST POP JUMP JUMPDEST PUSH0 DUP2 CALLDATALOAD SWAP1 POP PUSH2 0x1F39 DUP2 PUSH2 0x1F15 JUMP JUMPDEST SWAP3 SWAP2 POP POP JUMP JUMPDEST PUSH0 PUSH1 0x20 DUP3 DUP5 SUB SLT ISZERO PUSH2 0x1F54 JUMPI PUSH2 0x1F53 PUSH2 0x1E38 JUMP JUMPDEST JUMPDEST PUSH0 PUSH2 0x1F61 DUP5 DUP3 DUP6 ADD PUSH2 0x1F2B JUMP JUMPDEST SWAP2 POP POP SWAP3 SWAP2 POP POP JUMP JUMPDEST PUSH32 0x41756374696F6E206E6F742079657420656E6465640000000000000000000000 PUSH0 DUP3 ADD MSTORE POP JUMP JUMPDEST PUSH0 PUSH2 0x1F9E PUSH1 0x15 DUP4 PUSH2 0x1B19 JUMP JUMPDEST SWAP2 POP PUSH2 0x1FA9 DUP3 PUSH2 0x1F6A JUMP JUMPDEST PUSH1 0x20 DUP3 ADD SWAP1 POP SWAP2 SWAP1 POP JUMP JUMPDEST PUSH0 PUSH1 0x20 DUP3 ADD SWAP1 POP DUP2 DUP2 SUB PUSH0 DUP4 ADD MSTORE PUSH2 0x1FCB DUP2 PUSH2 0x1F92 JUMP JUMPDEST SWAP1 POP SWAP2 SWAP1 POP JUMP JUMPDEST PUSH32 0x57696E6E65722063616E6E6F7420776974686472617720726566756E64000000 PUSH0 DUP3 ADD MSTORE POP JUMP JUMPDEST PUSH0 PUSH2 0x2006 PUSH1 0x1D DUP4 PUSH2 0x1B19 JUMP JUMPDEST SWAP2 POP PUSH2 0x2011 DUP3 PUSH2 0x1FD2 JUMP JUMPDEST PUSH1 0x20 DUP3 ADD SWAP1 POP SWAP2 SWAP1 POP JUMP JUMPDEST PUSH0 PUSH1 0x20 DUP3 ADD SWAP1 POP DUP2 DUP2 SUB PUSH0 DUP4 ADD MSTORE PUSH2 0x2033 DUP2 PUSH2 0x1FFA JUMP JUMPDEST SWAP1 POP SWAP2 SWAP1 POP JUMP JUMPDEST PUSH32 0x4E6F2066756E647320746F207769746864726177000000000000000000000000 PUSH0 DUP3 ADD MSTORE POP JUMP JUMPDEST PUSH0 PUSH2 0x206E PUSH1 0x14 DUP4 PUSH2 0x1B19 JUMP JUMPDEST SWAP2 POP PUSH2 0x2079 DUP3 PUSH2 0x203A JUMP JUMPDEST PUSH1 0x20 DUP3 ADD SWAP1 POP SWAP2 SWAP1 POP JUMP JUMPDEST PUSH0 PUSH1 0x20 DUP3 ADD SWAP1 POP DUP2 DUP2 SUB PUSH0 DUP4 ADD MSTORE PUSH2 0x209B DUP2 PUSH2 0x2062 JUMP JUMPDEST SWAP1 POP SWAP2 SWAP1 POP JUMP JUMPDEST PUSH32 0x4E487B7100000000000000000000000000000000000000000000000000000000 PUSH0 MSTORE PUSH1 0x11 PUSH1 0x4 MSTORE PUSH1 0x24 PUSH0 REVERT JUMPDEST PUSH0 PUSH2 0x20D9 DUP3 PUSH2 0x1CD0 JUMP JUMPDEST SWAP2 POP PUSH2 0x20E4 DUP4 PUSH2 0x1CD0 JUMP JUMPDEST SWAP3 POP DUP3 DUP3 ADD SWAP1 POP DUP1 DUP3 GT ISZERO PUSH2 0x20FC JUMPI PUSH2 0x20FB PUSH2 0x20A2 JUMP JUMPDEST JUMPDEST SWAP3 SWAP2 POP POP JUMP JUMPDEST PUSH32 0x41756374696F6E206973206E6F74206163746976650000000000000000000000 PUSH0 DUP3 ADD MSTORE POP JUMP JUMPDEST PUSH0 PUSH2 0x2136 PUSH1 0x15 DUP4 PUSH2 0x1B19 JUMP JUMPDEST SWAP2 POP PUSH2 0x2141 DUP3 PUSH2 0x2102 JUMP JUMPDEST PUSH1 0x20 DUP3 ADD SWAP1 POP SWAP2 SWAP1 POP JUMP JUMPDEST PUSH0 PUSH1 0x20 DUP3 ADD SWAP1 POP DUP2 DUP2 SUB PUSH0 DUP4 ADD MSTORE PUSH2 0x2163 DUP2 PUSH2 0x212A JUMP JUMPDEST SWAP1 POP SWAP2 SWAP1 POP JUMP JUMPDEST PUSH32 0x426964206D7573742062652067726561746572207468616E2030000000000000 PUSH0 DUP3 ADD MSTORE POP JUMP JUMPDEST PUSH0 PUSH2 0x219E PUSH1 0x1A DUP4 PUSH2 0x1B19 JUMP JUMPDEST SWAP2 POP PUSH2 0x21A9 DUP3 PUSH2 0x216A JUMP JUMPDEST PUSH1 0x20 DUP3 ADD SWAP1 POP SWAP2 SWAP1 POP JUMP JUMPDEST PUSH0 PUSH1 0x20 DUP3 ADD SWAP1 POP DUP2 DUP2 SUB PUSH0 DUP4 ADD MSTORE PUSH2 0x21CB DUP2 PUSH2 0x2192 JUMP JUMPDEST SWAP1 POP SWAP2 SWAP1 POP JUMP JUMPDEST PUSH0 PUSH2 0x21DC DUP3 PUSH2 0x1CD0 JUMP JUMPDEST SWAP2 POP PUSH2 0x21E7 DUP4 PUSH2 0x1CD0 JUMP JUMPDEST SWAP3 POP DUP3 DUP3 MUL PUSH2 0x21F5 DUP2 PUSH2 0x1CD0 JUMP JUMPDEST SWAP2 POP DUP3 DUP3 DIV DUP5 EQ DUP4 ISZERO OR PUSH2 0x220C JUMPI PUSH2 0x220B PUSH2 0x20A2 JUMP JUMPDEST JUMPDEST POP SWAP3 SWAP2 POP POP JUMP JUMPDEST PUSH32 0x4E487B7100000000000000000000000000000000000000000000000000000000 PUSH0 MSTORE PUSH1 0x12 PUSH1 0x4 MSTORE PUSH1 0x24 PUSH0 REVERT JUMPDEST PUSH0 PUSH2 0x224A DUP3 PUSH2 0x1CD0 JUMP JUMPDEST SWAP2 POP PUSH2 0x2255 DUP4 PUSH2 0x1CD0 JUMP JUMPDEST SWAP3 POP DUP3 PUSH2 0x2265 JUMPI PUSH2 0x2264 PUSH2 0x2213 JUMP JUMPDEST JUMPDEST DUP3 DUP3 DIV SWAP1 POP SWAP3 SWAP2 POP POP JUMP JUMPDEST PUSH32 0x426964206D757374206265206174206C65617374203525206869676865722074 PUSH0 DUP3 ADD MSTORE PUSH32 0x68616E2068696768657374206269640000000000000000000000000000000000 PUSH1 0x20 DUP3 ADD MSTORE POP JUMP JUMPDEST PUSH0 PUSH2 0x22CA PUSH1 0x2F DUP4 PUSH2 0x1B19 JUMP JUMPDEST SWAP2 POP PUSH2 0x22D5 DUP3 PUSH2 0x2270 JUMP JUMPDEST PUSH1 0x40 DUP3 ADD SWAP1 POP SWAP2 SWAP1 POP JUMP JUMPDEST PUSH0 PUSH1 0x20 DUP3 ADD SWAP1 POP DUP2 DUP2 SUB PUSH0 DUP4 ADD MSTORE PUSH2 0x22F7 DUP2 PUSH2 0x22BE JUMP JUMPDEST SWAP1 POP SWAP2 SWAP1 POP JUMP JUMPDEST PUSH0 PUSH2 0x2308 DUP3 PUSH2 0x1CD0 JUMP JUMPDEST SWAP2 POP PUSH2 0x2313 DUP4 PUSH2 0x1CD0 JUMP JUMPDEST SWAP3 POP DUP3 DUP3 SUB SWAP1 POP DUP2 DUP2 GT ISZERO PUSH2 0x232B JUMPI PUSH2 0x232A PUSH2 0x20A2 JUMP JUMPDEST JUMPDEST SWAP3 SWAP2 POP POP JUMP JUMPDEST PUSH32 0x43757272656E742068696768657374206269646465722063616E6E6F74207769 PUSH0 DUP3 ADD MSTORE PUSH32 0x7468647261770000000000000000000000000000000000000000000000000000 PUSH1 0x20 DUP3 ADD MSTORE POP JUMP JUMPDEST PUSH0 PUSH2 0x238B PUSH1 0x26 DUP4 PUSH2 0x1B19 JUMP JUMPDEST SWAP2 POP PUSH2 0x2396 DUP3 PUSH2 0x2331 JUMP JUMPDEST PUSH1 0x40 DUP3 ADD SWAP1 POP SWAP2 SWAP1 POP JUMP JUMPDEST PUSH0 PUSH1 0x20 DUP3 ADD SWAP1 POP DUP2 DUP2 SUB PUSH0 DUP4 ADD MSTORE PUSH2 0x23B8 DUP2 PUSH2 0x237F JUMP JUMPDEST SWAP1 POP SWAP2 SWAP1 POP JUMP JUMPDEST PUSH32 0x4E6F206578636573732066756E647320746F2077697468647261770000000000 PUSH0 DUP3 ADD MSTORE POP JUMP JUMPDEST PUSH0 PUSH2 0x23F3 PUSH1 0x1B DUP4 PUSH2 0x1B19 JUMP JUMPDEST SWAP2 POP PUSH2 0x23FE DUP3 PUSH2 0x23BF JUMP JUMPDEST PUSH1 0x20 DUP3 ADD SWAP1 POP SWAP2 SWAP1 POP JUMP JUMPDEST PUSH0 PUSH1 0x20 DUP3 ADD SWAP1 POP DUP2 DUP2 SUB PUSH0 DUP4 ADD MSTORE PUSH2 0x2420 DUP2 PUSH2 0x23E7 JUMP JUMPDEST SWAP1 POP SWAP2 SWAP1 POP JUMP JUMPDEST PUSH32 0x4F6E6C792073656C6C65722063616E2063616C6C000000000000000000000000 PUSH0 DUP3 ADD MSTORE POP JUMP JUMPDEST PUSH0 PUSH2 0x245B PUSH1 0x14 DUP4 PUSH2 0x1B19 JUMP JUMPDEST SWAP2 POP PUSH2 0x2466 DUP3 PUSH2 0x2427 JUMP JUMPDEST PUSH1 0x20 DUP3 ADD SWAP1 POP SWAP2 SWAP1 POP JUMP JUMPDEST PUSH0 PUSH1 0x20 DUP3 ADD SWAP1 POP DUP2 DUP2 SUB PUSH0 DUP4 ADD MSTORE PUSH2 0x2488 DUP2 PUSH2 0x244F JUMP JUMPDEST SWAP1 POP SWAP2 SWAP1 POP JUMP JUMPDEST PUSH32 0x4E6F206665657320746F20776974686472617700000000000000000000000000 PUSH0 DUP3 ADD MSTORE POP JUMP JUMPDEST PUSH0 PUSH2 0x24C3 PUSH1 0x13 DUP4 PUSH2 0x1B19 JUMP JUMPDEST SWAP2 POP PUSH2 0x24CE DUP3 PUSH2 0x248F JUMP JUMPDEST PUSH1 0x20 DUP3 ADD SWAP1 POP SWAP2 SWAP1 POP JUMP JUMPDEST PUSH0 PUSH1 0x20 DUP3 ADD SWAP1 POP DUP2 DUP2 SUB PUSH0 DUP4 ADD MSTORE PUSH2 0x24F0 DUP2 PUSH2 0x24B7 JUMP JUMPDEST SWAP1 POP SWAP2 SWAP1 POP JUMP JUMPDEST PUSH32 0x416C726561647920656E64656400000000000000000000000000000000000000 PUSH0 DUP3 ADD MSTORE POP JUMP JUMPDEST PUSH0 PUSH2 0x252B PUSH1 0xD DUP4 PUSH2 0x1B19 JUMP JUMPDEST SWAP2 POP PUSH2 0x2536 DUP3 PUSH2 0x24F7 JUMP JUMPDEST PUSH1 0x20 DUP3 ADD SWAP1 POP SWAP2 SWAP1 POP JUMP JUMPDEST PUSH0 PUSH1 0x20 DUP3 ADD SWAP1 POP DUP2 DUP2 SUB PUSH0 DUP4 ADD MSTORE PUSH2 0x2558 DUP2 PUSH2 0x251F JUMP JUMPDEST SWAP1 POP SWAP2 SWAP1 POP JUMP JUMPDEST PUSH0 PUSH1 0x40 DUP3 ADD SWAP1 POP PUSH2 0x2572 PUSH0 DUP4 ADD DUP6 PUSH2 0x1CD9 JUMP JUMPDEST PUSH2 0x257F PUSH1 0x20 DUP4 ADD DUP5 PUSH2 0x1CD9 JUMP JUMPDEST SWAP4 SWAP3 POP POP POP JUMP JUMPDEST PUSH0 DUP2 SWAP1 POP SWAP3 SWAP2 POP POP JUMP JUMPDEST POP JUMP JUMPDEST PUSH0 PUSH2 0x259E PUSH0 DUP4 PUSH2 0x2586 JUMP JUMPDEST SWAP2 POP PUSH2 0x25A9 DUP3 PUSH2 0x2590 JUMP JUMPDEST PUSH0 DUP3 ADD SWAP1 POP SWAP2 SWAP1 POP JUMP JUMPDEST PUSH0 PUSH2 0x25BD DUP3 PUSH2 0x2593 JUMP JUMPDEST SWAP2 POP DUP2 SWAP1 POP SWAP2 SWAP1 POP JUMP INVALID LOG2 PUSH5 0x6970667358 0x22 SLT KECCAK256 SGT SWAP12 KECCAK256 0xDC DUP1 0x21 SWAP11 ADDRESS ADD 0x26 DUP12 PUSH19 0xB7BF217DBF2AFF927F43766F4A54BC4BAB64AD SWAP8 PUSH5 0x736F6C6343 STOP ADDMOD 0x1E STOP CALLER "
				},
				"gasEstimates": {
					"creation": {
						"codeDepositCost": "1945000",
						"executionCost": "infinite",
						"totalCost": "infinite"
					},
					"external": {
						"": "509",
						"EXTENSION_TIME()": "370",
						"EXTENSION_WINDOW()": "393",
						"MIN_INCREMENT_PERCENT()": "414",
						"REFUND_FEE_PERCENT()": "393",
						"bid()": "infinite",
						"deposits(address)": "2890",
						"emergencyEndAuction()": "infinite",
						"endAuction()": "infinite",
						"endTime()": "2493",
						"ended()": "2557",
						"getCollectedFees()": "4690",
						"getLastOfferIndex()": "2608",
						"highestBid()": "2536",
						"highestBidder()": "2619",
						"numOffers()": "2507",
						"offers(uint256)": "infinite",
						"owner()": "2582",
						"partialWithdrawExcess()": "infinite",
						"pause()": "infinite",
						"paused()": "2591",
						"renounceOwnership()": "infinite",
						"seller()": "2555",
						"showOffers()": "infinite",
						"showWinner()": "9054",
						"startTime()": "2471",
						"transferOwnership(address)": "infinite",
						"unpause()": "infinite",
						"withdrawDeposit()": "infinite",
						"withdrawFees()": "infinite"
					},
					"internal": {
						"_calculateFee(uint256)": "infinite",
						"_safeTransfer(address payable,uint256)": "infinite"
					}
				},
				"methodIdentifiers": {
					"EXTENSION_TIME()": "5681104a",
					"EXTENSION_WINDOW()": "7eb79d5d",
					"MIN_INCREMENT_PERCENT()": "654e4685",
					"REFUND_FEE_PERCENT()": "5230a4c3",
					"bid()": "1998aeef",
					"deposits(address)": "fc7e286d",
					"emergencyEndAuction()": "f25c1e3b",
					"endAuction()": "fe67a54b",
					"endTime()": "3197cbb6",
					"ended()": "12fa6feb",
					"getCollectedFees()": "d54a8d18",
					"getLastOfferIndex()": "8f9cfe70",
					"highestBid()": "d57bde79",
					"highestBidder()": "91f90157",
					"numOffers()": "cc6bee54",
					"offers(uint256)": "8a72ea6a",
					"owner()": "8da5cb5b",
					"partialWithdrawExcess()": "36c2780b",
					"pause()": "8456cb59",
					"paused()": "5c975abb",
					"renounceOwnership()": "715018a6",
					"seller()": "08551a53",
					"showOffers()": "534823bf",
					"showWinner()": "b7e03264",
					"startTime()": "78e97925",
					"transferOwnership(address)": "f2fde38b",
					"unpause()": "3f4ba83a",
					"withdrawDeposit()": "117df088",
					"withdrawFees()": "476343ee"
				}
			},
			"storageLayout": {
				"storage": [
					{
						"astId": 578,
						"contract": "SmartAuctionEthKipu.sol:SmartAuctionEthKipu",
						"label": "_status",
						"offset": 0,
						"slot": "0",
						"type": "t_uint256"
					},
					{
						"astId": 8,
						"contract": "SmartAuctionEthKipu.sol:SmartAuctionEthKipu",
						"label": "_owner",
						"offset": 0,
						"slot": "1",
						"type": "t_address"
					},
					{
						"astId": 468,
						"contract": "SmartAuctionEthKipu.sol:SmartAuctionEthKipu",
						"label": "_paused",
						"offset": 20,
						"slot": "1",
						"type": "t_bool"
					},
					{
						"astId": 655,
						"contract": "SmartAuctionEthKipu.sol:SmartAuctionEthKipu",
						"label": "seller",
						"offset": 0,
						"slot": "2",
						"type": "t_address_payable"
					},
					{
						"astId": 658,
						"contract": "SmartAuctionEthKipu.sol:SmartAuctionEthKipu",
						"label": "highestBidder",
						"offset": 0,
						"slot": "3",
						"type": "t_address"
					},
					{
						"astId": 661,
						"contract": "SmartAuctionEthKipu.sol:SmartAuctionEthKipu",
						"label": "highestBid",
						"offset": 0,
						"slot": "4",
						"type": "t_uint256"
					},
					{
						"astId": 664,
						"contract": "SmartAuctionEthKipu.sol:SmartAuctionEthKipu",
						"label": "startTime",
						"offset": 0,
						"slot": "5",
						"type": "t_uint256"
					},
					{
						"astId": 667,
						"contract": "SmartAuctionEthKipu.sol:SmartAuctionEthKipu",
						"label": "endTime",
						"offset": 0,
						"slot": "6",
						"type": "t_uint256"
					},
					{
						"astId": 686,
						"contract": "SmartAuctionEthKipu.sol:SmartAuctionEthKipu",
						"label": "ended",
						"offset": 0,
						"slot": "7",
						"type": "t_bool"
					},
					{
						"astId": 698,
						"contract": "SmartAuctionEthKipu.sol:SmartAuctionEthKipu",
						"label": "offers",
						"offset": 0,
						"slot": "8",
						"type": "t_array(t_struct(Offer)694_storage)dyn_storage"
					},
					{
						"astId": 703,
						"contract": "SmartAuctionEthKipu.sol:SmartAuctionEthKipu",
						"label": "deposits",
						"offset": 0,
						"slot": "9",
						"type": "t_mapping(t_address,t_uint256)"
					},
					{
						"astId": 708,
						"contract": "SmartAuctionEthKipu.sol:SmartAuctionEthKipu",
						"label": "lastOfferIndex",
						"offset": 0,
						"slot": "10",
						"type": "t_mapping(t_address,t_uint256)"
					},
					{
						"astId": 711,
						"contract": "SmartAuctionEthKipu.sol:SmartAuctionEthKipu",
						"label": "collectedFees",
						"offset": 0,
						"slot": "11",
						"type": "t_uint256"
					}
				],
				"types": {
					"t_address": {
						"encoding": "inplace",
						"label": "address",
						"numberOfBytes": "20"
					},
					"t_address_payable": {
						"encoding": "inplace",
						"label": "address payable",
						"numberOfBytes": "20"
					},
					"t_array(t_struct(Offer)694_storage)dyn_storage": {
						"base": "t_struct(Offer)694_storage",
						"encoding": "dynamic_array",
						"label": "struct SmartAuctionEthKipu.Offer[]",
						"numberOfBytes": "32"
					},
					"t_bool": {
						"encoding": "inplace",
						"label": "bool",
						"numberOfBytes": "1"
					},
					"t_mapping(t_address,t_uint256)": {
						"encoding": "mapping",
						"key": "t_address",
						"label": "mapping(address => uint256)",
						"numberOfBytes": "32",
						"value": "t_uint256"
					},
					"t_struct(Offer)694_storage": {
						"encoding": "inplace",
						"label": "struct SmartAuctionEthKipu.Offer",
						"members": [
							{
								"astId": 689,
								"contract": "SmartAuctionEthKipu.sol:SmartAuctionEthKipu",
								"label": "bidder",
								"offset": 0,
								"slot": "0",
								"type": "t_address"
							},
							{
								"astId": 691,
								"contract": "SmartAuctionEthKipu.sol:SmartAuctionEthKipu",
								"label": "amount",
								"offset": 0,
								"slot": "1",
								"type": "t_uint256"
							},
							{
								"astId": 693,
								"contract": "SmartAuctionEthKipu.sol:SmartAuctionEthKipu",
								"label": "timestamp",
								"offset": 0,
								"slot": "2",
								"type": "t_uint256"
							}
						],
						"numberOfBytes": "96"
					},
					"t_uint256": {
						"encoding": "inplace",
						"label": "uint256",
						"numberOfBytes": "32"
					}
				}
			},
			"userdoc": {
				"events": {
					"AuctionEnded(address,uint256)": {
						"notice": "Emitted when the auction ends"
					},
					"NewOffer(address,uint256)": {
						"notice": "Emitted when a new valid offer is received"
					},
					"Withdrawal(address,uint256)": {
						"notice": "Emitted on withdrawal"
					}
				},
				"kind": "user",
				"methods": {
					"EXTENSION_TIME()": {
						"notice": "Time (seconds) for auction extension when a valid bid is made near ending (10 min = 600 seconds)"
					},
					"EXTENSION_WINDOW()": {
						"notice": "Time window before the end when extensions are allowed (10 minutes)"
					},
					"MIN_INCREMENT_PERCENT()": {
						"notice": "Minimum percentage increment required for new bids (e.g., 5% = 105)"
					},
					"REFUND_FEE_PERCENT()": {
						"notice": "Commission fee percentage taken from refund to losers (2% = 2)"
					},
					"bid()": {
						"notice": "Place a new bid. Must be at least 5% higher than previous bid and during auction time"
					},
					"constructor": {
						"notice": "Initializes the auction"
					},
					"deposits(address)": {
						"notice": "Tracks total deposits for each participant (used for withdrawal/refund)"
					},
					"emergencyEndAuction()": {
						"notice": "Emergency end auction (only owner)"
					},
					"endAuction()": {
						"notice": "Ends the auction (anyone can call after time's up). Only executes once"
					},
					"endTime()": {
						"notice": "End time (timestamp, dynamically extended)"
					},
					"ended()": {
						"notice": "Auction active flag"
					},
					"getCollectedFees()": {
						"notice": "Returns collected fees (only seller can view)"
					},
					"getLastOfferIndex()": {
						"notice": "Returns last offer index for caller"
					},
					"highestBid()": {
						"notice": "Highest bid amount"
					},
					"highestBidder()": {
						"notice": "Address of the current highest bidder"
					},
					"numOffers()": {
						"notice": "Returns the current number of offers"
					},
					"partialWithdrawExcess()": {
						"notice": "Partial withdrawal of excess (over last offer) while auction is active"
					},
					"pause()": {
						"notice": "Emergency pause function (only owner)"
					},
					"seller()": {
						"notice": "Address of the auction creator/seller"
					},
					"showOffers()": {
						"notice": "Returns list of all offers (for off-chain read)"
					},
					"showWinner()": {
						"notice": "Show the current winner and bid amount"
					},
					"startTime()": {
						"notice": "Start time (timestamp) "
					},
					"unpause()": {
						"notice": "Emergency unpause function (only owner)"
					},
					"withdrawDeposit()": {
						"notice": "Withdraws funds for non-winning bidders after auction ends."
					},
					"withdrawFees()": {
						"notice": "Allows seller to withdraw collected fees from refunds"
					}
				},
				"notice": "Implements an auction with 5% minimum increment, refund with 2% fee, and dynamic end time extension",
				"version": 1
			}
		}
	}
}